{
	"src/contracts/mini.sol": {
		"MiniLendRefactored": {
			"abi": [
				{
					"inputs": [
						{
							"internalType": "address",
							"name": "_usdToken",
							"type": "address"
						},
						{
							"internalType": "address",
							"name": "_priceOracle",
							"type": "address"
						}
					],
					"stateMutability": "nonpayable",
					"type": "constructor"
				},
				{
					"inputs": [
						{
							"internalType": "uint256",
							"name": "requested",
							"type": "uint256"
						},
						{
							"internalType": "uint256",
							"name": "available",
							"type": "uint256"
						}
					],
					"name": "BorrowLimitExceeded",
					"type": "error"
				},
				{
					"inputs": [
						{
							"internalType": "uint256",
							"name": "outstanding",
							"type": "uint256"
						}
					],
					"name": "BorrowedAmountNotFullyRepaid",
					"type": "error"
				},
				{
					"inputs": [
						{
							"internalType": "uint256",
							"name": "required",
							"type": "uint256"
						},
						{
							"internalType": "uint256",
							"name": "available",
							"type": "uint256"
						}
					],
					"name": "InsufficientPoolFunds",
					"type": "error"
				},
				{
					"inputs": [
						{
							"internalType": "address",
							"name": "addr",
							"type": "address"
						}
					],
					"name": "InvalidAddress",
					"type": "error"
				},
				{
					"inputs": [],
					"name": "InvalidAmount",
					"type": "error"
				},
				{
					"inputs": [],
					"name": "LoanNotFound",
					"type": "error"
				},
				{
					"inputs": [],
					"name": "NoCollateralProvided",
					"type": "error"
				},
				{
					"inputs": [
						{
							"internalType": "uint256",
							"name": "available",
							"type": "uint256"
						},
						{
							"internalType": "uint256",
							"name": "requested",
							"type": "uint256"
						}
					],
					"name": "NotEnoughCollateral",
					"type": "error"
				},
				{
					"inputs": [
						{
							"internalType": "uint256",
							"name": "healthFactor",
							"type": "uint256"
						}
					],
					"name": "NotLiquidatable",
					"type": "error"
				},
				{
					"inputs": [
						{
							"internalType": "uint256",
							"name": "paid",
							"type": "uint256"
						},
						{
							"internalType": "uint256",
							"name": "outstanding",
							"type": "uint256"
						}
					],
					"name": "OverPaymentNotSupported",
					"type": "error"
				},
				{
					"inputs": [
						{
							"internalType": "address",
							"name": "owner",
							"type": "address"
						}
					],
					"name": "OwnableInvalidOwner",
					"type": "error"
				},
				{
					"inputs": [
						{
							"internalType": "address",
							"name": "account",
							"type": "address"
						}
					],
					"name": "OwnableUnauthorizedAccount",
					"type": "error"
				},
				{
					"inputs": [],
					"name": "TransferFailed",
					"type": "error"
				},
				{
					"inputs": [],
					"name": "UnsupportedToken",
					"type": "error"
				},
				{
					"anonymous": false,
					"inputs": [
						{
							"indexed": true,
							"internalType": "address",
							"name": "user",
							"type": "address"
						},
						{
							"indexed": false,
							"internalType": "uint256",
							"name": "ethAmount",
							"type": "uint256"
						}
					],
					"name": "ETHCollateralWithdrawn",
					"type": "event"
				},
				{
					"anonymous": false,
					"inputs": [
						{
							"indexed": true,
							"internalType": "address",
							"name": "user",
							"type": "address"
						},
						{
							"indexed": false,
							"internalType": "uint256",
							"name": "ethAmount",
							"type": "uint256"
						}
					],
					"name": "EthStaked",
					"type": "event"
				},
				{
					"anonymous": false,
					"inputs": [
						{
							"indexed": true,
							"internalType": "address",
							"name": "liquidator",
							"type": "address"
						},
						{
							"indexed": true,
							"internalType": "address",
							"name": "borrower",
							"type": "address"
						},
						{
							"indexed": false,
							"internalType": "uint256",
							"name": "repayAmount",
							"type": "uint256"
						},
						{
							"indexed": false,
							"internalType": "uint256",
							"name": "seizedEth",
							"type": "uint256"
						}
					],
					"name": "Liquidation",
					"type": "event"
				},
				{
					"anonymous": false,
					"inputs": [
						{
							"indexed": false,
							"internalType": "uint256",
							"name": "newBonusBps",
							"type": "uint256"
						}
					],
					"name": "LiquidationBonusUpdated",
					"type": "event"
				},
				{
					"anonymous": false,
					"inputs": [
						{
							"indexed": false,
							"internalType": "uint256",
							"name": "newLtv",
							"type": "uint256"
						}
					],
					"name": "LtvUpdated",
					"type": "event"
				},
				{
					"anonymous": false,
					"inputs": [
						{
							"indexed": true,
							"internalType": "address",
							"name": "newOracle",
							"type": "address"
						}
					],
					"name": "OracleUpdated",
					"type": "event"
				},
				{
					"anonymous": false,
					"inputs": [
						{
							"indexed": true,
							"internalType": "address",
							"name": "previousOwner",
							"type": "address"
						},
						{
							"indexed": true,
							"internalType": "address",
							"name": "newOwner",
							"type": "address"
						}
					],
					"name": "OwnershipTransferred",
					"type": "event"
				},
				{
					"anonymous": false,
					"inputs": [
						{
							"indexed": true,
							"internalType": "address",
							"name": "user",
							"type": "address"
						},
						{
							"indexed": false,
							"internalType": "uint256",
							"name": "usdAmount",
							"type": "uint256"
						}
					],
					"name": "USDBorrowed",
					"type": "event"
				},
				{
					"anonymous": false,
					"inputs": [
						{
							"indexed": true,
							"internalType": "address",
							"name": "user",
							"type": "address"
						},
						{
							"indexed": false,
							"internalType": "uint256",
							"name": "usdAmount",
							"type": "uint256"
						}
					],
					"name": "USDRepaid",
					"type": "event"
				},
				{
					"anonymous": false,
					"inputs": [
						{
							"indexed": true,
							"internalType": "address",
							"name": "newToken",
							"type": "address"
						}
					],
					"name": "USDTokenUpdated",
					"type": "event"
				},
				{
					"stateMutability": "payable",
					"type": "fallback"
				},
				{
					"inputs": [],
					"name": "BPS_DENOMINATOR",
					"outputs": [
						{
							"internalType": "uint256",
							"name": "",
							"type": "uint256"
						}
					],
					"stateMutability": "view",
					"type": "function"
				},
				{
					"inputs": [],
					"name": "PCT_DENOMINATOR",
					"outputs": [
						{
							"internalType": "uint256",
							"name": "",
							"type": "uint256"
						}
					],
					"stateMutability": "view",
					"type": "function"
				},
				{
					"inputs": [],
					"name": "WAD",
					"outputs": [
						{
							"internalType": "uint256",
							"name": "",
							"type": "uint256"
						}
					],
					"stateMutability": "view",
					"type": "function"
				},
				{
					"inputs": [
						{
							"internalType": "address",
							"name": "user",
							"type": "address"
						}
					],
					"name": "availableToBorrow",
					"outputs": [
						{
							"internalType": "uint256",
							"name": "",
							"type": "uint256"
						}
					],
					"stateMutability": "view",
					"type": "function"
				},
				{
					"inputs": [
						{
							"internalType": "uint256",
							"name": "amount",
							"type": "uint256"
						}
					],
					"name": "borrowUsd",
					"outputs": [],
					"stateMutability": "nonpayable",
					"type": "function"
				},
				{
					"inputs": [
						{
							"internalType": "address",
							"name": "user",
							"type": "address"
						}
					],
					"name": "collateralValueUsd",
					"outputs": [
						{
							"internalType": "uint256",
							"name": "",
							"type": "uint256"
						}
					],
					"stateMutability": "view",
					"type": "function"
				},
				{
					"inputs": [
						{
							"internalType": "address",
							"name": "user",
							"type": "address"
						}
					],
					"name": "healthFactorWad",
					"outputs": [
						{
							"internalType": "uint256",
							"name": "",
							"type": "uint256"
						}
					],
					"stateMutability": "view",
					"type": "function"
				},
				{
					"inputs": [
						{
							"internalType": "address",
							"name": "borrower",
							"type": "address"
						},
						{
							"internalType": "uint256",
							"name": "repayAmount",
							"type": "uint256"
						}
					],
					"name": "liquidate",
					"outputs": [],
					"stateMutability": "nonpayable",
					"type": "function"
				},
				{
					"inputs": [],
					"name": "liquidationBonusBps",
					"outputs": [
						{
							"internalType": "uint256",
							"name": "",
							"type": "uint256"
						}
					],
					"stateMutability": "view",
					"type": "function"
				},
				{
					"inputs": [],
					"name": "liquidationThresholdPct",
					"outputs": [
						{
							"internalType": "uint256",
							"name": "",
							"type": "uint256"
						}
					],
					"stateMutability": "view",
					"type": "function"
				},
				{
					"inputs": [],
					"name": "ltvPct",
					"outputs": [
						{
							"internalType": "uint256",
							"name": "",
							"type": "uint256"
						}
					],
					"stateMutability": "view",
					"type": "function"
				},
				{
					"inputs": [
						{
							"internalType": "address",
							"name": "user",
							"type": "address"
						}
					],
					"name": "maxBorrowAllowed",
					"outputs": [
						{
							"internalType": "uint256",
							"name": "",
							"type": "uint256"
						}
					],
					"stateMutability": "view",
					"type": "function"
				},
				{
					"inputs": [],
					"name": "owner",
					"outputs": [
						{
							"internalType": "address",
							"name": "",
							"type": "address"
						}
					],
					"stateMutability": "view",
					"type": "function"
				},
				{
					"inputs": [],
					"name": "priceOracle",
					"outputs": [
						{
							"internalType": "contract IPriceOracle",
							"name": "",
							"type": "address"
						}
					],
					"stateMutability": "view",
					"type": "function"
				},
				{
					"inputs": [],
					"name": "renounceOwnership",
					"outputs": [],
					"stateMutability": "nonpayable",
					"type": "function"
				},
				{
					"inputs": [
						{
							"internalType": "uint256",
							"name": "amount",
							"type": "uint256"
						}
					],
					"name": "repayUsd",
					"outputs": [],
					"stateMutability": "nonpayable",
					"type": "function"
				},
				{
					"inputs": [
						{
							"internalType": "uint256",
							"name": "_bonusBps",
							"type": "uint256"
						}
					],
					"name": "setLiquidationBonus",
					"outputs": [],
					"stateMutability": "nonpayable",
					"type": "function"
				},
				{
					"inputs": [
						{
							"internalType": "uint256",
							"name": "_ltvPct",
							"type": "uint256"
						}
					],
					"name": "setLtv",
					"outputs": [],
					"stateMutability": "nonpayable",
					"type": "function"
				},
				{
					"inputs": [
						{
							"internalType": "address",
							"name": "_oracle",
							"type": "address"
						}
					],
					"name": "setPriceOracle",
					"outputs": [],
					"stateMutability": "nonpayable",
					"type": "function"
				},
				{
					"inputs": [
						{
							"internalType": "address",
							"name": "_usd",
							"type": "address"
						}
					],
					"name": "setUsdToken",
					"outputs": [],
					"stateMutability": "nonpayable",
					"type": "function"
				},
				{
					"inputs": [],
					"name": "stakeEth",
					"outputs": [],
					"stateMutability": "payable",
					"type": "function"
				},
				{
					"inputs": [
						{
							"internalType": "address",
							"name": "newOwner",
							"type": "address"
						}
					],
					"name": "transferOwnership",
					"outputs": [],
					"stateMutability": "nonpayable",
					"type": "function"
				},
				{
					"inputs": [],
					"name": "usdToken",
					"outputs": [
						{
							"internalType": "contract IERC20",
							"name": "",
							"type": "address"
						}
					],
					"stateMutability": "view",
					"type": "function"
				},
				{
					"inputs": [
						{
							"internalType": "address",
							"name": "",
							"type": "address"
						}
					],
					"name": "users",
					"outputs": [
						{
							"internalType": "uint256",
							"name": "stakedEth",
							"type": "uint256"
						},
						{
							"internalType": "uint256",
							"name": "borrowedUsd",
							"type": "uint256"
						}
					],
					"stateMutability": "view",
					"type": "function"
				},
				{
					"inputs": [
						{
							"internalType": "uint256",
							"name": "ethAmount",
							"type": "uint256"
						}
					],
					"name": "withdrawCollateralEth",
					"outputs": [],
					"stateMutability": "nonpayable",
					"type": "function"
				},
				{
					"stateMutability": "payable",
					"type": "receive"
				}
			],
			"devdoc": {
				"errors": {
					"OwnableInvalidOwner(address)": [
						{
							"details": "The owner is not a valid owner account. (eg. `address(0)`)"
						}
					],
					"OwnableUnauthorizedAccount(address)": [
						{
							"details": "The caller account is not authorized to perform an operation."
						}
					]
				},
				"kind": "dev",
				"methods": {
					"owner()": {
						"details": "Returns the address of the current owner."
					},
					"renounceOwnership()": {
						"details": "Leaves the contract without owner. It will not be possible to call `onlyOwner` functions. Can only be called by the current owner. NOTE: Renouncing ownership will leave the contract without an owner, thereby disabling any functionality that is only available to the owner."
					},
					"transferOwnership(address)": {
						"details": "Transfers ownership of the contract to a new account (`newOwner`). Can only be called by the current owner."
					}
				},
				"version": 1
			},
			"evm": {
				"assembly": "    /* \"src/contracts/mini.sol\":1019:12499  contract MiniLendRefactored is ReentrancyGuard, Ownable(msg.sender) {... */\n  mstore(0x40, 0x80)\n    /* \"src/contracts/mini.sol\":3014:3016  50 */\n  0x32\n    /* \"src/contracts/mini.sol\":2990:3016  uint256 public ltvPct = 50 */\n  0x05\n  sstore\n    /* \"src/contracts/mini.sol\":3092:3094  75 */\n  0x4b\n    /* \"src/contracts/mini.sol\":3051:3094  uint256 public liquidationThresholdPct = 75 */\n  0x06\n  sstore\n    /* \"src/contracts/mini.sol\":3177:3180  500 */\n  0x01f4\n    /* \"src/contracts/mini.sol\":3140:3180  uint256 public liquidationBonusBps = 500 */\n  0x07\n  sstore\n    /* \"src/contracts/mini.sol\":3267:3529  constructor(address _usdToken, address _priceOracle) {... */\n  callvalue\n  dup1\n  iszero\n  tag_1\n  jumpi\n  revert(0x00, 0x00)\ntag_1:\n  pop\n  mload(0x40)\n  sub(codesize, bytecodeSize)\n  dup1\n  bytecodeSize\n  dup4\n  codecopy\n  dup2\n  dup2\n  add\n  0x40\n  mstore\n  dup2\n  add\n  swap1\n  tag_2\n  swap2\n  swap1\n  tag_3\n  jump\t// in\ntag_2:\n    /* \"src/contracts/mini.sol\":1075:1085  msg.sender */\n  caller\n    /* \"@openzeppelin/contracts/security/ReentrancyGuard.sol\":1716:1717  1 */\n  0x01\n    /* \"@openzeppelin/contracts/security/ReentrancyGuard.sol\":1821:1828  _status */\n  0x00\n    /* \"@openzeppelin/contracts/security/ReentrancyGuard.sol\":1821:1843  _status = _NOT_ENTERED */\n  dup2\n  swap1\n  sstore\n  pop\n    /* \"@openzeppelin/contracts/access/Ownable.sol\":1297:1298  0 */\n  0x00\n    /* \"@openzeppelin/contracts/access/Ownable.sol\":1273:1299  initialOwner == address(0) */\n  0xffffffffffffffffffffffffffffffffffffffff\n  and\n    /* \"@openzeppelin/contracts/access/Ownable.sol\":1273:1285  initialOwner */\n  dup2\n    /* \"@openzeppelin/contracts/access/Ownable.sol\":1273:1299  initialOwner == address(0) */\n  0xffffffffffffffffffffffffffffffffffffffff\n  and\n  sub\n    /* \"@openzeppelin/contracts/access/Ownable.sol\":1269:1364  if (initialOwner == address(0)) {... */\n  tag_9\n  jumpi\n    /* \"@openzeppelin/contracts/access/Ownable.sol\":1350:1351  0 */\n  0x00\n    /* \"@openzeppelin/contracts/access/Ownable.sol\":1322:1353  OwnableInvalidOwner(address(0)) */\n  mload(0x40)\n  0x1e4fbdf700000000000000000000000000000000000000000000000000000000\n  dup2\n  mstore\n  0x04\n  add\n  tag_10\n  swap2\n  swap1\n  tag_11\n  jump\t// in\ntag_10:\n  mload(0x40)\n  dup1\n  swap2\n  sub\n  swap1\n  revert\n    /* \"@openzeppelin/contracts/access/Ownable.sol\":1269:1364  if (initialOwner == address(0)) {... */\ntag_9:\n    /* \"@openzeppelin/contracts/access/Ownable.sol\":1373:1405  _transferOwnership(initialOwner) */\n  tag_12\n    /* \"@openzeppelin/contracts/access/Ownable.sol\":1392:1404  initialOwner */\n  dup2\n    /* \"@openzeppelin/contracts/access/Ownable.sol\":1373:1391  _transferOwnership */\n  shl(0x20, tag_13)\n    /* \"@openzeppelin/contracts/access/Ownable.sol\":1373:1405  _transferOwnership(initialOwner) */\n  0x20\n  shr\n  jump\t// in\ntag_12:\n    /* \"@openzeppelin/contracts/access/Ownable.sol\":1225:1412  constructor(address initialOwner) {... */\n  pop\n    /* \"src/contracts/mini.sol\":3355:3356  0 */\n  0x00\n    /* \"src/contracts/mini.sol\":3334:3357  _usdToken == address(0) */\n  0xffffffffffffffffffffffffffffffffffffffff\n  and\n    /* \"src/contracts/mini.sol\":3334:3343  _usdToken */\n  dup3\n    /* \"src/contracts/mini.sol\":3334:3357  _usdToken == address(0) */\n  0xffffffffffffffffffffffffffffffffffffffff\n  and\n  eq\n    /* \"src/contracts/mini.sol\":3334:3387  _usdToken == address(0) || _priceOracle == address(0) */\n  dup1\n  tag_15\n  jumpi\n  pop\n    /* \"src/contracts/mini.sol\":3385:3386  0 */\n  0x00\n    /* \"src/contracts/mini.sol\":3361:3387  _priceOracle == address(0) */\n  0xffffffffffffffffffffffffffffffffffffffff\n  and\n    /* \"src/contracts/mini.sol\":3361:3373  _priceOracle */\n  dup2\n    /* \"src/contracts/mini.sol\":3361:3387  _priceOracle == address(0) */\n  0xffffffffffffffffffffffffffffffffffffffff\n  and\n  eq\n    /* \"src/contracts/mini.sol\":3334:3387  _usdToken == address(0) || _priceOracle == address(0) */\ntag_15:\n    /* \"src/contracts/mini.sol\":3330:3434  if (_usdToken == address(0) || _priceOracle == address(0))... */\n  iszero\n  tag_16\n  jumpi\n    /* \"src/contracts/mini.sol\":3431:3432  0 */\n  0x00\n    /* \"src/contracts/mini.sol\":3408:3434  InvalidAddress(address(0)) */\n  mload(0x40)\n  0x8e4c8aa600000000000000000000000000000000000000000000000000000000\n  dup2\n  mstore\n  0x04\n  add\n  tag_17\n  swap2\n  swap1\n  tag_11\n  jump\t// in\ntag_17:\n  mload(0x40)\n  dup1\n  swap2\n  sub\n  swap1\n  revert\n    /* \"src/contracts/mini.sol\":3330:3434  if (_usdToken == address(0) || _priceOracle == address(0))... */\ntag_16:\n    /* \"src/contracts/mini.sol\":3462:3471  _usdToken */\n  dup2\n    /* \"src/contracts/mini.sol\":3444:3452  usdToken */\n  0x03\n  0x00\n    /* \"src/contracts/mini.sol\":3444:3472  usdToken = IERC20(_usdToken) */\n  0x0100\n  exp\n  dup2\n  sload\n  dup2\n  0xffffffffffffffffffffffffffffffffffffffff\n  mul\n  not\n  and\n  swap1\n  dup4\n  0xffffffffffffffffffffffffffffffffffffffff\n  and\n  mul\n  or\n  swap1\n  sstore\n  pop\n    /* \"src/contracts/mini.sol\":3509:3521  _priceOracle */\n  dup1\n    /* \"src/contracts/mini.sol\":3482:3493  priceOracle */\n  0x04\n  0x00\n    /* \"src/contracts/mini.sol\":3482:3522  priceOracle = IPriceOracle(_priceOracle) */\n  0x0100\n  exp\n  dup2\n  sload\n  dup2\n  0xffffffffffffffffffffffffffffffffffffffff\n  mul\n  not\n  and\n  swap1\n  dup4\n  0xffffffffffffffffffffffffffffffffffffffff\n  and\n  mul\n  or\n  swap1\n  sstore\n  pop\n    /* \"src/contracts/mini.sol\":3267:3529  constructor(address _usdToken, address _priceOracle) {... */\n  pop\n  pop\n    /* \"src/contracts/mini.sol\":1019:12499  contract MiniLendRefactored is ReentrancyGuard, Ownable(msg.sender) {... */\n  jump(tag_18)\n    /* \"@openzeppelin/contracts/access/Ownable.sol\":2912:3099  function _transferOwnership(address newOwner) internal virtual {... */\ntag_13:\n    /* \"@openzeppelin/contracts/access/Ownable.sol\":2985:3001  address oldOwner */\n  0x00\n    /* \"@openzeppelin/contracts/access/Ownable.sol\":3004:3010  _owner */\n  0x01\n  0x00\n  swap1\n  sload\n  swap1\n  0x0100\n  exp\n  swap1\n  div\n  0xffffffffffffffffffffffffffffffffffffffff\n  and\n    /* \"@openzeppelin/contracts/access/Ownable.sol\":2985:3010  address oldOwner = _owner */\n  swap1\n  pop\n    /* \"@openzeppelin/contracts/access/Ownable.sol\":3029:3037  newOwner */\n  dup2\n    /* \"@openzeppelin/contracts/access/Ownable.sol\":3020:3026  _owner */\n  0x01\n  0x00\n    /* \"@openzeppelin/contracts/access/Ownable.sol\":3020:3037  _owner = newOwner */\n  0x0100\n  exp\n  dup2\n  sload\n  dup2\n  0xffffffffffffffffffffffffffffffffffffffff\n  mul\n  not\n  and\n  swap1\n  dup4\n  0xffffffffffffffffffffffffffffffffffffffff\n  and\n  mul\n  or\n  swap1\n  sstore\n  pop\n    /* \"@openzeppelin/contracts/access/Ownable.sol\":3083:3091  newOwner */\n  dup2\n    /* \"@openzeppelin/contracts/access/Ownable.sol\":3052:3092  OwnershipTransferred(oldOwner, newOwner) */\n  0xffffffffffffffffffffffffffffffffffffffff\n  and\n    /* \"@openzeppelin/contracts/access/Ownable.sol\":3073:3081  oldOwner */\n  dup2\n    /* \"@openzeppelin/contracts/access/Ownable.sol\":3052:3092  OwnershipTransferred(oldOwner, newOwner) */\n  0xffffffffffffffffffffffffffffffffffffffff\n  and\n  0x8be0079c531659141344cd1fd0a4f28419497f9722a3daafe3b4186f6b6457e0\n  mload(0x40)\n  mload(0x40)\n  dup1\n  swap2\n  sub\n  swap1\n  log3\n    /* \"@openzeppelin/contracts/access/Ownable.sol\":2975:3099  {... */\n  pop\n    /* \"@openzeppelin/contracts/access/Ownable.sol\":2912:3099  function _transferOwnership(address newOwner) internal virtual {... */\n  pop\n  jump\t// out\n    /* \"#utility.yul\":88:205   */\ntag_21:\n    /* \"#utility.yul\":197:198   */\n  0x00\n    /* \"#utility.yul\":194:195   */\n  0x00\n    /* \"#utility.yul\":187:199   */\n  revert\n    /* \"#utility.yul\":334:460   */\ntag_23:\n    /* \"#utility.yul\":371:378   */\n  0x00\n    /* \"#utility.yul\":411:453   */\n  0xffffffffffffffffffffffffffffffffffffffff\n    /* \"#utility.yul\":404:409   */\n  dup3\n    /* \"#utility.yul\":400:454   */\n  and\n    /* \"#utility.yul\":389:454   */\n  swap1\n  pop\n    /* \"#utility.yul\":334:460   */\n  swap2\n  swap1\n  pop\n  jump\t// out\n    /* \"#utility.yul\":466:562   */\ntag_24:\n    /* \"#utility.yul\":503:510   */\n  0x00\n    /* \"#utility.yul\":532:556   */\n  tag_34\n    /* \"#utility.yul\":550:555   */\n  dup3\n    /* \"#utility.yul\":532:556   */\n  tag_23\n  jump\t// in\ntag_34:\n    /* \"#utility.yul\":521:556   */\n  swap1\n  pop\n    /* \"#utility.yul\":466:562   */\n  swap2\n  swap1\n  pop\n  jump\t// out\n    /* \"#utility.yul\":568:690   */\ntag_25:\n    /* \"#utility.yul\":641:665   */\n  tag_36\n    /* \"#utility.yul\":659:664   */\n  dup2\n    /* \"#utility.yul\":641:665   */\n  tag_24\n  jump\t// in\ntag_36:\n    /* \"#utility.yul\":634:639   */\n  dup2\n    /* \"#utility.yul\":631:666   */\n  eq\n    /* \"#utility.yul\":621:684   */\n  tag_37\n  jumpi\n    /* \"#utility.yul\":680:681   */\n  0x00\n    /* \"#utility.yul\":677:678   */\n  0x00\n    /* \"#utility.yul\":670:682   */\n  revert\n    /* \"#utility.yul\":621:684   */\ntag_37:\n    /* \"#utility.yul\":568:690   */\n  pop\n  jump\t// out\n    /* \"#utility.yul\":696:839   */\ntag_26:\n    /* \"#utility.yul\":753:758   */\n  0x00\n    /* \"#utility.yul\":784:790   */\n  dup2\n    /* \"#utility.yul\":778:791   */\n  mload\n    /* \"#utility.yul\":769:791   */\n  swap1\n  pop\n    /* \"#utility.yul\":800:833   */\n  tag_39\n    /* \"#utility.yul\":827:832   */\n  dup2\n    /* \"#utility.yul\":800:833   */\n  tag_25\n  jump\t// in\ntag_39:\n    /* \"#utility.yul\":696:839   */\n  swap3\n  swap2\n  pop\n  pop\n  jump\t// out\n    /* \"#utility.yul\":845:1352   */\ntag_3:\n    /* \"#utility.yul\":924:930   */\n  0x00\n    /* \"#utility.yul\":932:938   */\n  0x00\n    /* \"#utility.yul\":981:983   */\n  0x40\n    /* \"#utility.yul\":969:978   */\n  dup4\n    /* \"#utility.yul\":960:967   */\n  dup6\n    /* \"#utility.yul\":956:979   */\n  sub\n    /* \"#utility.yul\":952:984   */\n  slt\n    /* \"#utility.yul\":949:1068   */\n  iszero\n  tag_41\n  jumpi\n    /* \"#utility.yul\":987:1066   */\n  tag_42\n  tag_21\n  jump\t// in\ntag_42:\n    /* \"#utility.yul\":949:1068   */\ntag_41:\n    /* \"#utility.yul\":1107:1108   */\n  0x00\n    /* \"#utility.yul\":1132:1196   */\n  tag_43\n    /* \"#utility.yul\":1188:1195   */\n  dup6\n    /* \"#utility.yul\":1179:1185   */\n  dup3\n    /* \"#utility.yul\":1168:1177   */\n  dup7\n    /* \"#utility.yul\":1164:1186   */\n  add\n    /* \"#utility.yul\":1132:1196   */\n  tag_26\n  jump\t// in\ntag_43:\n    /* \"#utility.yul\":1122:1196   */\n  swap3\n  pop\n    /* \"#utility.yul\":1078:1206   */\n  pop\n    /* \"#utility.yul\":1245:1247   */\n  0x20\n    /* \"#utility.yul\":1271:1335   */\n  tag_44\n    /* \"#utility.yul\":1327:1334   */\n  dup6\n    /* \"#utility.yul\":1318:1324   */\n  dup3\n    /* \"#utility.yul\":1307:1316   */\n  dup7\n    /* \"#utility.yul\":1303:1325   */\n  add\n    /* \"#utility.yul\":1271:1335   */\n  tag_26\n  jump\t// in\ntag_44:\n    /* \"#utility.yul\":1261:1335   */\n  swap2\n  pop\n    /* \"#utility.yul\":1216:1345   */\n  pop\n    /* \"#utility.yul\":845:1352   */\n  swap3\n  pop\n  swap3\n  swap1\n  pop\n  jump\t// out\n    /* \"#utility.yul\":1358:1476   */\ntag_27:\n    /* \"#utility.yul\":1445:1469   */\n  tag_46\n    /* \"#utility.yul\":1463:1468   */\n  dup2\n    /* \"#utility.yul\":1445:1469   */\n  tag_24\n  jump\t// in\ntag_46:\n    /* \"#utility.yul\":1440:1443   */\n  dup3\n    /* \"#utility.yul\":1433:1470   */\n  mstore\n    /* \"#utility.yul\":1358:1476   */\n  pop\n  pop\n  jump\t// out\n    /* \"#utility.yul\":1482:1704   */\ntag_11:\n    /* \"#utility.yul\":1575:1579   */\n  0x00\n    /* \"#utility.yul\":1613:1615   */\n  0x20\n    /* \"#utility.yul\":1602:1611   */\n  dup3\n    /* \"#utility.yul\":1598:1616   */\n  add\n    /* \"#utility.yul\":1590:1616   */\n  swap1\n  pop\n    /* \"#utility.yul\":1626:1697   */\n  tag_48\n    /* \"#utility.yul\":1694:1695   */\n  0x00\n    /* \"#utility.yul\":1683:1692   */\n  dup4\n    /* \"#utility.yul\":1679:1696   */\n  add\n    /* \"#utility.yul\":1670:1676   */\n  dup5\n    /* \"#utility.yul\":1626:1697   */\n  tag_27\n  jump\t// in\ntag_48:\n    /* \"#utility.yul\":1482:1704   */\n  swap3\n  swap2\n  pop\n  pop\n  jump\t// out\n    /* \"src/contracts/mini.sol\":1019:12499  contract MiniLendRefactored is ReentrancyGuard, Ownable(msg.sender) {... */\ntag_18:\n  dataSize(sub_0)\n  dup1\n  dataOffset(sub_0)\n  0x00\n  codecopy\n  0x00\n  return\nstop\n\nsub_0: assembly {\n        /* \"src/contracts/mini.sol\":1019:12499  contract MiniLendRefactored is ReentrancyGuard, Ownable(msg.sender) {... */\n      mstore(0x40, 0x80)\n      jumpi(tag_1, lt(calldatasize, 0x04))\n      shr(0xe0, calldataload(0x00))\n      dup1\n      0x7a5f0dc4\n      gt\n      tag_28\n      jumpi\n      dup1\n      0xbcbaf487\n      gt\n      tag_29\n      jumpi\n      dup1\n      0xe1bf0a4b\n      gt\n      tag_30\n      jumpi\n      dup1\n      0xe1bf0a4b\n      eq\n      tag_24\n      jumpi\n      dup1\n      0xf2fde38b\n      eq\n      tag_25\n      jumpi\n      dup1\n      0xf897a22b\n      eq\n      tag_26\n      jumpi\n      dup1\n      0xfb2926b2\n      eq\n      tag_27\n      jumpi\n      jump(tag_2)\n    tag_30:\n      dup1\n      0xbcbaf487\n      eq\n      tag_21\n      jumpi\n      dup1\n      0xda805590\n      eq\n      tag_22\n      jumpi\n      dup1\n      0xe1a45218\n      eq\n      tag_23\n      jumpi\n      jump(tag_2)\n    tag_29:\n      dup1\n      0x7a5f0dc4\n      eq\n      tag_15\n      jumpi\n      dup1\n      0x80b1acf5\n      eq\n      tag_16\n      jumpi\n      dup1\n      0x8da5cb5b\n      eq\n      tag_17\n      jumpi\n      dup1\n      0x97d43965\n      eq\n      tag_18\n      jumpi\n      dup1\n      0xa37e52e3\n      eq\n      tag_19\n      jumpi\n      dup1\n      0xa87430ba\n      eq\n      tag_20\n      jumpi\n      jump(tag_2)\n    tag_28:\n      dup1\n      0x4aed0980\n      gt\n      tag_31\n      jumpi\n      dup1\n      0x4aed0980\n      eq\n      tag_9\n      jumpi\n      dup1\n      0x530e784f\n      eq\n      tag_10\n      jumpi\n      dup1\n      0x5c2e3de2\n      eq\n      tag_11\n      jumpi\n      dup1\n      0x6a146024\n      eq\n      tag_12\n      jumpi\n      dup1\n      0x6f811a2d\n      eq\n      tag_13\n      jumpi\n      dup1\n      0x715018a6\n      eq\n      tag_14\n      jumpi\n      jump(tag_2)\n    tag_31:\n      dup1\n      0x19970d8e\n      eq\n      tag_3\n      jumpi\n      dup1\n      0x2630c12f\n      eq\n      tag_4\n      jumpi\n      dup1\n      0x28842d4f\n      eq\n      tag_5\n      jumpi\n      dup1\n      0x29f98057\n      eq\n      tag_6\n      jumpi\n      dup1\n      0x2c38199e\n      eq\n      tag_7\n      jumpi\n      dup1\n      0x30f883e3\n      eq\n      tag_8\n      jumpi\n      jump(tag_2)\n    tag_1:\n    tag_2:\n      stop\n        /* \"src/contracts/mini.sol\":3140:3180  uint256 public liquidationBonusBps = 500 */\n    tag_3:\n      callvalue\n      dup1\n      iszero\n      tag_36\n      jumpi\n      revert(0x00, 0x00)\n    tag_36:\n      pop\n      tag_37\n      tag_38\n      jump\t// in\n    tag_37:\n      mload(0x40)\n      tag_39\n      swap2\n      swap1\n      tag_40\n      jump\t// in\n    tag_39:\n      mload(0x40)\n      dup1\n      swap2\n      sub\n      swap1\n      return\n        /* \"src/contracts/mini.sol\":2729:2760  IPriceOracle public priceOracle */\n    tag_4:\n      callvalue\n      dup1\n      iszero\n      tag_41\n      jumpi\n      revert(0x00, 0x00)\n    tag_41:\n      pop\n      tag_42\n      tag_43\n      jump\t// in\n    tag_42:\n      mload(0x40)\n      tag_44\n      swap2\n      swap1\n      tag_45\n      jump\t// in\n    tag_44:\n      mload(0x40)\n      dup1\n      swap2\n      sub\n      swap1\n      return\n        /* \"src/contracts/mini.sol\":4185:4407  function setLiquidationBonus(uint256 _bonusBps) external onlyOwner {... */\n    tag_5:\n      callvalue\n      dup1\n      iszero\n      tag_46\n      jumpi\n      revert(0x00, 0x00)\n    tag_46:\n      pop\n      tag_47\n      0x04\n      dup1\n      calldatasize\n      sub\n      dup2\n      add\n      swap1\n      tag_48\n      swap2\n      swap1\n      tag_49\n      jump\t// in\n    tag_48:\n      tag_50\n      jump\t// in\n    tag_47:\n      stop\n        /* \"src/contracts/mini.sol\":10105:10261  function collateralValueUsd(address user) public view returns (uint256) {... */\n    tag_6:\n      callvalue\n      dup1\n      iszero\n      tag_51\n      jumpi\n      revert(0x00, 0x00)\n    tag_51:\n      pop\n      tag_52\n      0x04\n      dup1\n      calldatasize\n      sub\n      dup2\n      add\n      swap1\n      tag_53\n      swap2\n      swap1\n      tag_54\n      jump\t// in\n    tag_53:\n      tag_55\n      jump\t// in\n    tag_52:\n      mload(0x40)\n      tag_56\n      swap2\n      swap1\n      tag_40\n      jump\t// in\n    tag_56:\n      mload(0x40)\n      dup1\n      swap2\n      sub\n      swap1\n      return\n        /* \"src/contracts/mini.sol\":10582:10826  function availableToBorrow(address user) external view returns (uint256) {... */\n    tag_7:\n      callvalue\n      dup1\n      iszero\n      tag_57\n      jumpi\n      revert(0x00, 0x00)\n    tag_57:\n      pop\n      tag_58\n      0x04\n      dup1\n      calldatasize\n      sub\n      dup2\n      add\n      swap1\n      tag_59\n      swap2\n      swap1\n      tag_54\n      jump\t// in\n    tag_59:\n      tag_60\n      jump\t// in\n    tag_58:\n      mload(0x40)\n      tag_61\n      swap2\n      swap1\n      tag_40\n      jump\t// in\n    tag_61:\n      mload(0x40)\n      dup1\n      swap2\n      sub\n      swap1\n      return\n        /* \"src/contracts/mini.sol\":10328:10522  function maxBorrowAllowed(address user) public view returns (uint256) {... */\n    tag_8:\n      callvalue\n      dup1\n      iszero\n      tag_62\n      jumpi\n      revert(0x00, 0x00)\n    tag_62:\n      pop\n      tag_63\n      0x04\n      dup1\n      calldatasize\n      sub\n      dup2\n      add\n      swap1\n      tag_64\n      swap2\n      swap1\n      tag_54\n      jump\t// in\n    tag_64:\n      tag_65\n      jump\t// in\n    tag_63:\n      mload(0x40)\n      tag_66\n      swap2\n      swap1\n      tag_40\n      jump\t// in\n    tag_66:\n      mload(0x40)\n      dup1\n      swap2\n      sub\n      swap1\n      return\n        /* \"src/contracts/mini.sol\":5668:6260  function repayUsd(uint256 amount) external nonReentrant {... */\n    tag_9:\n      callvalue\n      dup1\n      iszero\n      tag_67\n      jumpi\n      revert(0x00, 0x00)\n    tag_67:\n      pop\n      tag_68\n      0x04\n      dup1\n      calldatasize\n      sub\n      dup2\n      add\n      swap1\n      tag_69\n      swap2\n      swap1\n      tag_49\n      jump\t// in\n    tag_69:\n      tag_70\n      jump\t// in\n    tag_68:\n      stop\n        /* \"src/contracts/mini.sol\":3585:3801  function setPriceOracle(address _oracle) external onlyOwner {... */\n    tag_10:\n      callvalue\n      dup1\n      iszero\n      tag_71\n      jumpi\n      revert(0x00, 0x00)\n    tag_71:\n      pop\n      tag_72\n      0x04\n      dup1\n      calldatasize\n      sub\n      dup2\n      add\n      swap1\n      tag_73\n      swap2\n      swap1\n      tag_54\n      jump\t// in\n    tag_73:\n      tag_74\n      jump\t// in\n    tag_72:\n      stop\n        /* \"src/contracts/mini.sol\":4796:5601  function borrowUsd(uint256 amount) external nonReentrant {... */\n    tag_11:\n      callvalue\n      dup1\n      iszero\n      tag_75\n      jumpi\n      revert(0x00, 0x00)\n    tag_75:\n      pop\n      tag_76\n      0x04\n      dup1\n      calldatasize\n      sub\n      dup2\n      add\n      swap1\n      tag_77\n      swap2\n      swap1\n      tag_49\n      jump\t// in\n    tag_77:\n      tag_78\n      jump\t// in\n    tag_76:\n      stop\n        /* \"src/contracts/mini.sol\":2809:2843  uint256 public constant WAD = 1e18 */\n    tag_12:\n      callvalue\n      dup1\n      iszero\n      tag_79\n      jumpi\n      revert(0x00, 0x00)\n    tag_79:\n      pop\n      tag_80\n      tag_81\n      jump\t// in\n    tag_80:\n      mload(0x40)\n      tag_82\n      swap2\n      swap1\n      tag_40\n      jump\t// in\n    tag_82:\n      mload(0x40)\n      dup1\n      swap2\n      sub\n      swap1\n      return\n        /* \"src/contracts/mini.sol\":2990:3016  uint256 public ltvPct = 50 */\n    tag_13:\n      callvalue\n      dup1\n      iszero\n      tag_83\n      jumpi\n      revert(0x00, 0x00)\n    tag_83:\n      pop\n      tag_84\n      tag_85\n      jump\t// in\n    tag_84:\n      mload(0x40)\n      tag_86\n      swap2\n      swap1\n      tag_40\n      jump\t// in\n    tag_86:\n      mload(0x40)\n      dup1\n      swap2\n      sub\n      swap1\n      return\n        /* \"@openzeppelin/contracts/access/Ownable.sol\":2293:2394  function renounceOwnership() public virtual onlyOwner {... */\n    tag_14:\n      callvalue\n      dup1\n      iszero\n      tag_87\n      jumpi\n      revert(0x00, 0x00)\n    tag_87:\n      pop\n      tag_88\n      tag_89\n      jump\t// in\n    tag_88:\n      stop\n        /* \"src/contracts/mini.sol\":4505:4718  function stakeEth() external payable nonReentrant {... */\n    tag_15:\n      tag_90\n      tag_91\n      jump\t// in\n    tag_90:\n      stop\n        /* \"src/contracts/mini.sol\":2849:2894  uint256 public constant PCT_DENOMINATOR = 100 */\n    tag_16:\n      callvalue\n      dup1\n      iszero\n      tag_92\n      jumpi\n      revert(0x00, 0x00)\n    tag_92:\n      pop\n      tag_93\n      tag_94\n      jump\t// in\n    tag_93:\n      mload(0x40)\n      tag_95\n      swap2\n      swap1\n      tag_40\n      jump\t// in\n    tag_95:\n      mload(0x40)\n      dup1\n      swap2\n      sub\n      swap1\n      return\n        /* \"@openzeppelin/contracts/access/Ownable.sol\":1638:1723  function owner() public view virtual returns (address) {... */\n    tag_17:\n      callvalue\n      dup1\n      iszero\n      tag_96\n      jumpi\n      revert(0x00, 0x00)\n    tag_96:\n      pop\n      tag_97\n      tag_98\n      jump\t// in\n    tag_97:\n      mload(0x40)\n      tag_99\n      swap2\n      swap1\n      tag_100\n      jump\t// in\n    tag_99:\n      mload(0x40)\n      dup1\n      swap2\n      sub\n      swap1\n      return\n        /* \"src/contracts/mini.sol\":3051:3094  uint256 public liquidationThresholdPct = 75 */\n    tag_18:\n      callvalue\n      dup1\n      iszero\n      tag_101\n      jumpi\n      revert(0x00, 0x00)\n    tag_101:\n      pop\n      tag_102\n      tag_103\n      jump\t// in\n    tag_102:\n      mload(0x40)\n      tag_104\n      swap2\n      swap1\n      tag_40\n      jump\t// in\n    tag_104:\n      mload(0x40)\n      dup1\n      swap2\n      sub\n      swap1\n      return\n        /* \"src/contracts/mini.sol\":4004:4179  function setLtv(uint256 _ltvPct) external onlyOwner {... */\n    tag_19:\n      callvalue\n      dup1\n      iszero\n      tag_105\n      jumpi\n      revert(0x00, 0x00)\n    tag_105:\n      pop\n      tag_106\n      0x04\n      dup1\n      calldatasize\n      sub\n      dup2\n      add\n      swap1\n      tag_107\n      swap2\n      swap1\n      tag_49\n      jump\t// in\n    tag_107:\n      tag_108\n      jump\t// in\n    tag_106:\n      stop\n        /* \"src/contracts/mini.sol\":2616:2653  mapping(address => User) public users */\n    tag_20:\n      callvalue\n      dup1\n      iszero\n      tag_109\n      jumpi\n      revert(0x00, 0x00)\n    tag_109:\n      pop\n      tag_110\n      0x04\n      dup1\n      calldatasize\n      sub\n      dup2\n      add\n      swap1\n      tag_111\n      swap2\n      swap1\n      tag_54\n      jump\t// in\n    tag_111:\n      tag_112\n      jump\t// in\n    tag_110:\n      mload(0x40)\n      tag_113\n      swap3\n      swap2\n      swap1\n      tag_114\n      jump\t// in\n    tag_113:\n      mload(0x40)\n      dup1\n      swap2\n      sub\n      swap1\n      return\n        /* \"src/contracts/mini.sol\":7868:9994  function liquidate(... */\n    tag_21:\n      callvalue\n      dup1\n      iszero\n      tag_115\n      jumpi\n      revert(0x00, 0x00)\n    tag_115:\n      pop\n      tag_116\n      0x04\n      dup1\n      calldatasize\n      sub\n      dup2\n      add\n      swap1\n      tag_117\n      swap2\n      swap1\n      tag_118\n      jump\t// in\n    tag_117:\n      tag_119\n      jump\t// in\n    tag_116:\n      stop\n        /* \"src/contracts/mini.sol\":3807:3998  function setUsdToken(address _usd) external onlyOwner {... */\n    tag_22:\n      callvalue\n      dup1\n      iszero\n      tag_120\n      jumpi\n      revert(0x00, 0x00)\n    tag_120:\n      pop\n      tag_121\n      0x04\n      dup1\n      calldatasize\n      sub\n      dup2\n      add\n      swap1\n      tag_122\n      swap2\n      swap1\n      tag_54\n      jump\t// in\n    tag_122:\n      tag_123\n      jump\t// in\n    tag_121:\n      stop\n        /* \"src/contracts/mini.sol\":2923:2970  uint256 public constant BPS_DENOMINATOR = 10000 */\n    tag_23:\n      callvalue\n      dup1\n      iszero\n      tag_124\n      jumpi\n      revert(0x00, 0x00)\n    tag_124:\n      pop\n      tag_125\n      tag_126\n      jump\t// in\n    tag_125:\n      mload(0x40)\n      tag_127\n      swap2\n      swap1\n      tag_40\n      jump\t// in\n    tag_127:\n      mload(0x40)\n      dup1\n      swap2\n      sub\n      swap1\n      return\n        /* \"src/contracts/mini.sol\":6360:7605  function withdrawCollateralEth(uint256 ethAmount) external nonReentrant {... */\n    tag_24:\n      callvalue\n      dup1\n      iszero\n      tag_128\n      jumpi\n      revert(0x00, 0x00)\n    tag_128:\n      pop\n      tag_129\n      0x04\n      dup1\n      calldatasize\n      sub\n      dup2\n      add\n      swap1\n      tag_130\n      swap2\n      swap1\n      tag_49\n      jump\t// in\n    tag_130:\n      tag_131\n      jump\t// in\n    tag_129:\n      stop\n        /* \"@openzeppelin/contracts/access/Ownable.sol\":2543:2758  function transferOwnership(address newOwner) public virtual onlyOwner {... */\n    tag_25:\n      callvalue\n      dup1\n      iszero\n      tag_132\n      jumpi\n      revert(0x00, 0x00)\n    tag_132:\n      pop\n      tag_133\n      0x04\n      dup1\n      calldatasize\n      sub\n      dup2\n      add\n      swap1\n      tag_134\n      swap2\n      swap1\n      tag_54\n      jump\t// in\n    tag_134:\n      tag_135\n      jump\t// in\n    tag_133:\n      stop\n        /* \"src/contracts/mini.sol\":2660:2682  IERC20 public usdToken */\n    tag_26:\n      callvalue\n      dup1\n      iszero\n      tag_136\n      jumpi\n      revert(0x00, 0x00)\n    tag_136:\n      pop\n      tag_137\n      tag_138\n      jump\t// in\n    tag_137:\n      mload(0x40)\n      tag_139\n      swap2\n      swap1\n      tag_140\n      jump\t// in\n    tag_139:\n      mload(0x40)\n      dup1\n      swap2\n      sub\n      swap1\n      return\n        /* \"src/contracts/mini.sol\":10903:11337  function healthFactorWad(address user) public view returns (uint256) {... */\n    tag_27:\n      callvalue\n      dup1\n      iszero\n      tag_141\n      jumpi\n      revert(0x00, 0x00)\n    tag_141:\n      pop\n      tag_142\n      0x04\n      dup1\n      calldatasize\n      sub\n      dup2\n      add\n      swap1\n      tag_143\n      swap2\n      swap1\n      tag_54\n      jump\t// in\n    tag_143:\n      tag_144\n      jump\t// in\n    tag_142:\n      mload(0x40)\n      tag_145\n      swap2\n      swap1\n      tag_40\n      jump\t// in\n    tag_145:\n      mload(0x40)\n      dup1\n      swap2\n      sub\n      swap1\n      return\n        /* \"src/contracts/mini.sol\":3140:3180  uint256 public liquidationBonusBps = 500 */\n    tag_38:\n      sload(0x07)\n      dup2\n      jump\t// out\n        /* \"src/contracts/mini.sol\":2729:2760  IPriceOracle public priceOracle */\n    tag_43:\n      0x04\n      0x00\n      swap1\n      sload\n      swap1\n      0x0100\n      exp\n      swap1\n      div\n      0xffffffffffffffffffffffffffffffffffffffff\n      and\n      dup2\n      jump\t// out\n        /* \"src/contracts/mini.sol\":4185:4407  function setLiquidationBonus(uint256 _bonusBps) external onlyOwner {... */\n    tag_50:\n        /* \"@openzeppelin/contracts/access/Ownable.sol\":1531:1544  _checkOwner() */\n      tag_147\n        /* \"@openzeppelin/contracts/access/Ownable.sol\":1531:1542  _checkOwner */\n      tag_148\n        /* \"@openzeppelin/contracts/access/Ownable.sol\":1531:1544  _checkOwner() */\n      jump\t// in\n    tag_147:\n        /* \"src/contracts/mini.sol\":2965:2970  10000 */\n      0x2710\n        /* \"src/contracts/mini.sol\":4270:4279  _bonusBps */\n      dup2\n        /* \"src/contracts/mini.sol\":4270:4298  _bonusBps <= BPS_DENOMINATOR */\n      gt\n      iszero\n        /* \"src/contracts/mini.sol\":4262:4310  require(_bonusBps <= BPS_DENOMINATOR, \"bad bps\") */\n      tag_150\n      jumpi\n      mload(0x40)\n      0x08c379a000000000000000000000000000000000000000000000000000000000\n      dup2\n      mstore\n      0x04\n      add\n      tag_151\n      swap1\n      tag_152\n      jump\t// in\n    tag_151:\n      mload(0x40)\n      dup1\n      swap2\n      sub\n      swap1\n      revert\n    tag_150:\n        /* \"src/contracts/mini.sol\":4342:4351  _bonusBps */\n      dup1\n        /* \"src/contracts/mini.sol\":4320:4339  liquidationBonusBps */\n      0x07\n        /* \"src/contracts/mini.sol\":4320:4351  liquidationBonusBps = _bonusBps */\n      dup2\n      swap1\n      sstore\n      pop\n        /* \"src/contracts/mini.sol\":4366:4400  LiquidationBonusUpdated(_bonusBps) */\n      0xaebdbb2d62051c61387bf5a1cd77f093484880809eabd6b2ecefb2dc5869d23d\n        /* \"src/contracts/mini.sol\":4390:4399  _bonusBps */\n      dup2\n        /* \"src/contracts/mini.sol\":4366:4400  LiquidationBonusUpdated(_bonusBps) */\n      mload(0x40)\n      tag_153\n      swap2\n      swap1\n      tag_40\n      jump\t// in\n    tag_153:\n      mload(0x40)\n      dup1\n      swap2\n      sub\n      swap1\n      log1\n        /* \"src/contracts/mini.sol\":4185:4407  function setLiquidationBonus(uint256 _bonusBps) external onlyOwner {... */\n      pop\n      jump\t// out\n        /* \"src/contracts/mini.sol\":10105:10261  function collateralValueUsd(address user) public view returns (uint256) {... */\n    tag_55:\n        /* \"src/contracts/mini.sol\":10168:10175  uint256 */\n      0x00\n        /* \"src/contracts/mini.sol\":2839:2843  1e18 */\n      0x0de0b6b3a7640000\n        /* \"src/contracts/mini.sol\":10219:10230  priceOracle */\n      0x04\n      0x00\n      swap1\n      sload\n      swap1\n      0x0100\n      exp\n      swap1\n      div\n      0xffffffffffffffffffffffffffffffffffffffff\n      and\n        /* \"src/contracts/mini.sol\":10219:10245  priceOracle.getLatestPrice */\n      0xffffffffffffffffffffffffffffffffffffffff\n      and\n      0x8e15f473\n        /* \"src/contracts/mini.sol\":10219:10247  priceOracle.getLatestPrice() */\n      mload(0x40)\n      dup2\n      0xffffffff\n      and\n      0xe0\n      shl\n      dup2\n      mstore\n      0x04\n      add\n      0x20\n      mload(0x40)\n      dup1\n      dup4\n      sub\n      dup2\n      dup7\n      gas\n      staticcall\n      iszero\n      dup1\n      iszero\n      tag_156\n      jumpi\n      returndatacopy(0x00, 0x00, returndatasize)\n      revert(0x00, returndatasize)\n    tag_156:\n      pop\n      pop\n      pop\n      pop\n      mload(0x40)\n      returndatasize\n      not(0x1f)\n      0x1f\n      dup3\n      add\n      and\n      dup3\n      add\n      dup1\n      0x40\n      mstore\n      pop\n      dup2\n      add\n      swap1\n      tag_157\n      swap2\n      swap1\n      tag_158\n      jump\t// in\n    tag_157:\n        /* \"src/contracts/mini.sol\":10195:10200  users */\n      0x02\n        /* \"src/contracts/mini.sol\":10195:10206  users[user] */\n      0x00\n        /* \"src/contracts/mini.sol\":10201:10205  user */\n      dup6\n        /* \"src/contracts/mini.sol\":10195:10206  users[user] */\n      0xffffffffffffffffffffffffffffffffffffffff\n      and\n      0xffffffffffffffffffffffffffffffffffffffff\n      and\n      dup2\n      mstore\n      0x20\n      add\n      swap1\n      dup2\n      mstore\n      0x20\n      add\n      0x00\n      keccak256\n        /* \"src/contracts/mini.sol\":10195:10216  users[user].stakedEth */\n      0x00\n      add\n      sload\n        /* \"src/contracts/mini.sol\":10195:10247  users[user].stakedEth * priceOracle.getLatestPrice() */\n      tag_159\n      swap2\n      swap1\n      tag_160\n      jump\t// in\n    tag_159:\n        /* \"src/contracts/mini.sol\":10194:10254  (users[user].stakedEth * priceOracle.getLatestPrice()) / WAD */\n      tag_161\n      swap2\n      swap1\n      tag_162\n      jump\t// in\n    tag_161:\n        /* \"src/contracts/mini.sol\":10187:10254  return (users[user].stakedEth * priceOracle.getLatestPrice()) / WAD */\n      swap1\n      pop\n        /* \"src/contracts/mini.sol\":10105:10261  function collateralValueUsd(address user) public view returns (uint256) {... */\n      swap2\n      swap1\n      pop\n      jump\t// out\n        /* \"src/contracts/mini.sol\":10582:10826  function availableToBorrow(address user) external view returns (uint256) {... */\n    tag_60:\n        /* \"src/contracts/mini.sol\":10646:10653  uint256 */\n      0x00\n        /* \"src/contracts/mini.sol\":10665:10682  uint256 maxBorrow */\n      0x00\n        /* \"src/contracts/mini.sol\":10685:10707  maxBorrowAllowed(user) */\n      tag_164\n        /* \"src/contracts/mini.sol\":10702:10706  user */\n      dup4\n        /* \"src/contracts/mini.sol\":10685:10701  maxBorrowAllowed */\n      tag_65\n        /* \"src/contracts/mini.sol\":10685:10707  maxBorrowAllowed(user) */\n      jump\t// in\n    tag_164:\n        /* \"src/contracts/mini.sol\":10665:10707  uint256 maxBorrow = maxBorrowAllowed(user) */\n      swap1\n      pop\n        /* \"src/contracts/mini.sol\":10748:10757  maxBorrow */\n      dup1\n        /* \"src/contracts/mini.sol\":10721:10726  users */\n      0x02\n        /* \"src/contracts/mini.sol\":10721:10732  users[user] */\n      0x00\n        /* \"src/contracts/mini.sol\":10727:10731  user */\n      dup6\n        /* \"src/contracts/mini.sol\":10721:10732  users[user] */\n      0xffffffffffffffffffffffffffffffffffffffff\n      and\n      0xffffffffffffffffffffffffffffffffffffffff\n      and\n      dup2\n      mstore\n      0x20\n      add\n      swap1\n      dup2\n      mstore\n      0x20\n      add\n      0x00\n      keccak256\n        /* \"src/contracts/mini.sol\":10721:10744  users[user].borrowedUsd */\n      0x01\n      add\n      sload\n        /* \"src/contracts/mini.sol\":10721:10757  users[user].borrowedUsd >= maxBorrow */\n      lt\n        /* \"src/contracts/mini.sol\":10717:10767  if (users[user].borrowedUsd >= maxBorrow) return 0 */\n      tag_165\n      jumpi\n        /* \"src/contracts/mini.sol\":10766:10767  0 */\n      0x00\n        /* \"src/contracts/mini.sol\":10759:10767  return 0 */\n      swap2\n      pop\n      pop\n      jump(tag_163)\n        /* \"src/contracts/mini.sol\":10717:10767  if (users[user].borrowedUsd >= maxBorrow) return 0 */\n    tag_165:\n        /* \"src/contracts/mini.sol\":10796:10801  users */\n      0x02\n        /* \"src/contracts/mini.sol\":10796:10807  users[user] */\n      0x00\n        /* \"src/contracts/mini.sol\":10802:10806  user */\n      dup5\n        /* \"src/contracts/mini.sol\":10796:10807  users[user] */\n      0xffffffffffffffffffffffffffffffffffffffff\n      and\n      0xffffffffffffffffffffffffffffffffffffffff\n      and\n      dup2\n      mstore\n      0x20\n      add\n      swap1\n      dup2\n      mstore\n      0x20\n      add\n      0x00\n      keccak256\n        /* \"src/contracts/mini.sol\":10796:10819  users[user].borrowedUsd */\n      0x01\n      add\n      sload\n        /* \"src/contracts/mini.sol\":10784:10793  maxBorrow */\n      dup2\n        /* \"src/contracts/mini.sol\":10784:10819  maxBorrow - users[user].borrowedUsd */\n      tag_166\n      swap2\n      swap1\n      tag_167\n      jump\t// in\n    tag_166:\n        /* \"src/contracts/mini.sol\":10777:10819  return maxBorrow - users[user].borrowedUsd */\n      swap2\n      pop\n      pop\n        /* \"src/contracts/mini.sol\":10582:10826  function availableToBorrow(address user) external view returns (uint256) {... */\n    tag_163:\n      swap2\n      swap1\n      pop\n      jump\t// out\n        /* \"src/contracts/mini.sol\":10328:10522  function maxBorrowAllowed(address user) public view returns (uint256) {... */\n    tag_65:\n        /* \"src/contracts/mini.sol\":10389:10396  uint256 */\n      0x00\n        /* \"src/contracts/mini.sol\":10408:10429  uint256 collateralUsd */\n      0x00\n        /* \"src/contracts/mini.sol\":10432:10456  collateralValueUsd(user) */\n      tag_169\n        /* \"src/contracts/mini.sol\":10451:10455  user */\n      dup4\n        /* \"src/contracts/mini.sol\":10432:10450  collateralValueUsd */\n      tag_55\n        /* \"src/contracts/mini.sol\":10432:10456  collateralValueUsd(user) */\n      jump\t// in\n    tag_169:\n        /* \"src/contracts/mini.sol\":10408:10456  uint256 collateralUsd = collateralValueUsd(user) */\n      swap1\n      pop\n        /* \"src/contracts/mini.sol\":2891:2894  100 */\n      0x64\n        /* \"src/contracts/mini.sol\":10490:10496  ltvPct */\n      sload(0x05)\n        /* \"src/contracts/mini.sol\":10474:10487  collateralUsd */\n      dup3\n        /* \"src/contracts/mini.sol\":10474:10496  collateralUsd * ltvPct */\n      tag_170\n      swap2\n      swap1\n      tag_160\n      jump\t// in\n    tag_170:\n        /* \"src/contracts/mini.sol\":10473:10515  (collateralUsd * ltvPct) / PCT_DENOMINATOR */\n      tag_171\n      swap2\n      swap1\n      tag_162\n      jump\t// in\n    tag_171:\n        /* \"src/contracts/mini.sol\":10466:10515  return (collateralUsd * ltvPct) / PCT_DENOMINATOR */\n      swap2\n      pop\n      pop\n        /* \"src/contracts/mini.sol\":10328:10522  function maxBorrowAllowed(address user) public view returns (uint256) {... */\n      swap2\n      swap1\n      pop\n      jump\t// out\n        /* \"src/contracts/mini.sol\":5668:6260  function repayUsd(uint256 amount) external nonReentrant {... */\n    tag_70:\n        /* \"@openzeppelin/contracts/security/ReentrancyGuard.sol\":2261:2282  _nonReentrantBefore() */\n      tag_173\n        /* \"@openzeppelin/contracts/security/ReentrancyGuard.sol\":2261:2280  _nonReentrantBefore */\n      tag_174\n        /* \"@openzeppelin/contracts/security/ReentrancyGuard.sol\":2261:2282  _nonReentrantBefore() */\n      jump\t// in\n    tag_173:\n        /* \"src/contracts/mini.sol\":5748:5749  0 */\n      0x00\n        /* \"src/contracts/mini.sol\":5738:5744  amount */\n      dup2\n        /* \"src/contracts/mini.sol\":5738:5749  amount == 0 */\n      sub\n        /* \"src/contracts/mini.sol\":5734:5773  if (amount == 0) revert InvalidAmount() */\n      tag_176\n      jumpi\n        /* \"src/contracts/mini.sol\":5758:5773  InvalidAmount() */\n      mload(0x40)\n      0x2c5211c600000000000000000000000000000000000000000000000000000000\n      dup2\n      mstore\n      0x04\n      add\n      mload(0x40)\n      dup1\n      swap2\n      sub\n      swap1\n      revert\n        /* \"src/contracts/mini.sol\":5734:5773  if (amount == 0) revert InvalidAmount() */\n    tag_176:\n        /* \"src/contracts/mini.sol\":5783:5797  User storage u */\n      0x00\n        /* \"src/contracts/mini.sol\":5800:5805  users */\n      0x02\n        /* \"src/contracts/mini.sol\":5800:5817  users[msg.sender] */\n      0x00\n        /* \"src/contracts/mini.sol\":5806:5816  msg.sender */\n      caller\n        /* \"src/contracts/mini.sol\":5800:5817  users[msg.sender] */\n      0xffffffffffffffffffffffffffffffffffffffff\n      and\n      0xffffffffffffffffffffffffffffffffffffffff\n      and\n      dup2\n      mstore\n      0x20\n      add\n      swap1\n      dup2\n      mstore\n      0x20\n      add\n      0x00\n      keccak256\n        /* \"src/contracts/mini.sol\":5783:5817  User storage u = users[msg.sender] */\n      swap1\n      pop\n        /* \"src/contracts/mini.sol\":5848:5849  0 */\n      0x00\n        /* \"src/contracts/mini.sol\":5831:5832  u */\n      dup2\n        /* \"src/contracts/mini.sol\":5831:5844  u.borrowedUsd */\n      0x01\n      add\n      sload\n        /* \"src/contracts/mini.sol\":5831:5849  u.borrowedUsd == 0 */\n      sub\n        /* \"src/contracts/mini.sol\":5827:5880  if (u.borrowedUsd == 0) revert NoCollateralProvided() */\n      tag_177\n      jumpi\n        /* \"src/contracts/mini.sol\":5858:5880  NoCollateralProvided() */\n      mload(0x40)\n      0xb016be5e00000000000000000000000000000000000000000000000000000000\n      dup2\n      mstore\n      0x04\n      add\n      mload(0x40)\n      dup1\n      swap2\n      sub\n      swap1\n      revert\n        /* \"src/contracts/mini.sol\":5827:5880  if (u.borrowedUsd == 0) revert NoCollateralProvided() */\n    tag_177:\n        /* \"src/contracts/mini.sol\":5904:5905  u */\n      dup1\n        /* \"src/contracts/mini.sol\":5904:5917  u.borrowedUsd */\n      0x01\n      add\n      sload\n        /* \"src/contracts/mini.sol\":5895:5901  amount */\n      dup3\n        /* \"src/contracts/mini.sol\":5895:5917  amount > u.borrowedUsd */\n      gt\n        /* \"src/contracts/mini.sol\":5891:5984  if (amount > u.borrowedUsd)... */\n      iszero\n      tag_178\n      jumpi\n        /* \"src/contracts/mini.sol\":5962:5968  amount */\n      dup2\n        /* \"src/contracts/mini.sol\":5970:5971  u */\n      dup2\n        /* \"src/contracts/mini.sol\":5970:5983  u.borrowedUsd */\n      0x01\n      add\n      sload\n        /* \"src/contracts/mini.sol\":5938:5984  OverPaymentNotSupported(amount, u.borrowedUsd) */\n      mload(0x40)\n      0x99bcd81300000000000000000000000000000000000000000000000000000000\n      dup2\n      mstore\n      0x04\n      add\n      tag_179\n      swap3\n      swap2\n      swap1\n      tag_114\n      jump\t// in\n    tag_179:\n      mload(0x40)\n      dup1\n      swap2\n      sub\n      swap1\n      revert\n        /* \"src/contracts/mini.sol\":5891:5984  if (amount > u.borrowedUsd)... */\n    tag_178:\n        /* \"src/contracts/mini.sol\":6042:6049  bool ok */\n      0x00\n        /* \"src/contracts/mini.sol\":6052:6060  usdToken */\n      0x03\n      0x00\n      swap1\n      sload\n      swap1\n      0x0100\n      exp\n      swap1\n      div\n      0xffffffffffffffffffffffffffffffffffffffff\n      and\n        /* \"src/contracts/mini.sol\":6052:6073  usdToken.transferFrom */\n      0xffffffffffffffffffffffffffffffffffffffff\n      and\n      0x23b872dd\n        /* \"src/contracts/mini.sol\":6074:6084  msg.sender */\n      caller\n        /* \"src/contracts/mini.sol\":6094:6098  this */\n      address\n        /* \"src/contracts/mini.sol\":6101:6107  amount */\n      dup7\n        /* \"src/contracts/mini.sol\":6052:6108  usdToken.transferFrom(msg.sender, address(this), amount) */\n      mload(0x40)\n      dup5\n      0xffffffff\n      and\n      0xe0\n      shl\n      dup2\n      mstore\n      0x04\n      add\n      tag_180\n      swap4\n      swap3\n      swap2\n      swap1\n      tag_181\n      jump\t// in\n    tag_180:\n      0x20\n      mload(0x40)\n      dup1\n      dup4\n      sub\n      dup2\n      0x00\n      dup8\n      gas\n      call\n      iszero\n      dup1\n      iszero\n      tag_183\n      jumpi\n      returndatacopy(0x00, 0x00, returndatasize)\n      revert(0x00, returndatasize)\n    tag_183:\n      pop\n      pop\n      pop\n      pop\n      mload(0x40)\n      returndatasize\n      not(0x1f)\n      0x1f\n      dup3\n      add\n      and\n      dup3\n      add\n      dup1\n      0x40\n      mstore\n      pop\n      dup2\n      add\n      swap1\n      tag_184\n      swap2\n      swap1\n      tag_185\n      jump\t// in\n    tag_184:\n        /* \"src/contracts/mini.sol\":6042:6108  bool ok = usdToken.transferFrom(msg.sender, address(this), amount) */\n      swap1\n      pop\n        /* \"src/contracts/mini.sol\":6123:6125  ok */\n      dup1\n        /* \"src/contracts/mini.sol\":6118:6150  if (!ok) revert TransferFailed() */\n      tag_186\n      jumpi\n        /* \"src/contracts/mini.sol\":6134:6150  TransferFailed() */\n      mload(0x40)\n      0x90b8ec1800000000000000000000000000000000000000000000000000000000\n      dup2\n      mstore\n      0x04\n      add\n      mload(0x40)\n      dup1\n      swap2\n      sub\n      swap1\n      revert\n        /* \"src/contracts/mini.sol\":6118:6150  if (!ok) revert TransferFailed() */\n    tag_186:\n        /* \"src/contracts/mini.sol\":6202:6208  amount */\n      dup3\n        /* \"src/contracts/mini.sol\":6185:6186  u */\n      dup3\n        /* \"src/contracts/mini.sol\":6185:6198  u.borrowedUsd */\n      0x01\n      add\n      0x00\n        /* \"src/contracts/mini.sol\":6185:6208  u.borrowedUsd -= amount */\n      dup3\n      dup3\n      sload\n      tag_187\n      swap2\n      swap1\n      tag_167\n      jump\t// in\n    tag_187:\n      swap3\n      pop\n      pop\n      dup2\n      swap1\n      sstore\n      pop\n        /* \"src/contracts/mini.sol\":6234:6244  msg.sender */\n      caller\n        /* \"src/contracts/mini.sol\":6224:6253  USDRepaid(msg.sender, amount) */\n      0xffffffffffffffffffffffffffffffffffffffff\n      and\n      0xb7efcc12f3d3e74e33995ff303aca806b9428989809e60a4e5a4d465832966e4\n        /* \"src/contracts/mini.sol\":6246:6252  amount */\n      dup5\n        /* \"src/contracts/mini.sol\":6224:6253  USDRepaid(msg.sender, amount) */\n      mload(0x40)\n      tag_188\n      swap2\n      swap1\n      tag_40\n      jump\t// in\n    tag_188:\n      mload(0x40)\n      dup1\n      swap2\n      sub\n      swap1\n      log2\n        /* \"src/contracts/mini.sol\":5724:6260  {... */\n      pop\n      pop\n        /* \"@openzeppelin/contracts/security/ReentrancyGuard.sol\":2303:2323  _nonReentrantAfter() */\n      tag_189\n        /* \"@openzeppelin/contracts/security/ReentrancyGuard.sol\":2303:2321  _nonReentrantAfter */\n      tag_190\n        /* \"@openzeppelin/contracts/security/ReentrancyGuard.sol\":2303:2323  _nonReentrantAfter() */\n      jump\t// in\n    tag_189:\n        /* \"src/contracts/mini.sol\":5668:6260  function repayUsd(uint256 amount) external nonReentrant {... */\n      pop\n      jump\t// out\n        /* \"src/contracts/mini.sol\":3585:3801  function setPriceOracle(address _oracle) external onlyOwner {... */\n    tag_74:\n        /* \"@openzeppelin/contracts/access/Ownable.sol\":1531:1544  _checkOwner() */\n      tag_192\n        /* \"@openzeppelin/contracts/access/Ownable.sol\":1531:1542  _checkOwner */\n      tag_148\n        /* \"@openzeppelin/contracts/access/Ownable.sol\":1531:1544  _checkOwner() */\n      jump\t// in\n    tag_192:\n        /* \"src/contracts/mini.sol\":3678:3679  0 */\n      0x00\n        /* \"src/contracts/mini.sol\":3659:3680  _oracle == address(0) */\n      0xffffffffffffffffffffffffffffffffffffffff\n      and\n        /* \"src/contracts/mini.sol\":3659:3666  _oracle */\n      dup2\n        /* \"src/contracts/mini.sol\":3659:3680  _oracle == address(0) */\n      0xffffffffffffffffffffffffffffffffffffffff\n      and\n      sub\n        /* \"src/contracts/mini.sol\":3655:3712  if (_oracle == address(0)) revert InvalidAddress(_oracle) */\n      tag_194\n      jumpi\n        /* \"src/contracts/mini.sol\":3704:3711  _oracle */\n      dup1\n        /* \"src/contracts/mini.sol\":3689:3712  InvalidAddress(_oracle) */\n      mload(0x40)\n      0x8e4c8aa600000000000000000000000000000000000000000000000000000000\n      dup2\n      mstore\n      0x04\n      add\n      tag_195\n      swap2\n      swap1\n      tag_100\n      jump\t// in\n    tag_195:\n      mload(0x40)\n      dup1\n      swap2\n      sub\n      swap1\n      revert\n        /* \"src/contracts/mini.sol\":3655:3712  if (_oracle == address(0)) revert InvalidAddress(_oracle) */\n    tag_194:\n        /* \"src/contracts/mini.sol\":3749:3756  _oracle */\n      dup1\n        /* \"src/contracts/mini.sol\":3722:3733  priceOracle */\n      0x04\n      0x00\n        /* \"src/contracts/mini.sol\":3722:3757  priceOracle = IPriceOracle(_oracle) */\n      0x0100\n      exp\n      dup2\n      sload\n      dup2\n      0xffffffffffffffffffffffffffffffffffffffff\n      mul\n      not\n      and\n      swap1\n      dup4\n      0xffffffffffffffffffffffffffffffffffffffff\n      and\n      mul\n      or\n      swap1\n      sstore\n      pop\n        /* \"src/contracts/mini.sol\":3786:3793  _oracle */\n      dup1\n        /* \"src/contracts/mini.sol\":3772:3794  OracleUpdated(_oracle) */\n      0xffffffffffffffffffffffffffffffffffffffff\n      and\n      0x3df77beb5db05fcdd70a30fc8adf3f83f9501b68579455adbd100b8180940394\n      mload(0x40)\n      mload(0x40)\n      dup1\n      swap2\n      sub\n      swap1\n      log2\n        /* \"src/contracts/mini.sol\":3585:3801  function setPriceOracle(address _oracle) external onlyOwner {... */\n      pop\n      jump\t// out\n        /* \"src/contracts/mini.sol\":4796:5601  function borrowUsd(uint256 amount) external nonReentrant {... */\n    tag_78:\n        /* \"@openzeppelin/contracts/security/ReentrancyGuard.sol\":2261:2282  _nonReentrantBefore() */\n      tag_197\n        /* \"@openzeppelin/contracts/security/ReentrancyGuard.sol\":2261:2280  _nonReentrantBefore */\n      tag_174\n        /* \"@openzeppelin/contracts/security/ReentrancyGuard.sol\":2261:2282  _nonReentrantBefore() */\n      jump\t// in\n    tag_197:\n        /* \"src/contracts/mini.sol\":4877:4878  0 */\n      0x00\n        /* \"src/contracts/mini.sol\":4867:4873  amount */\n      dup2\n        /* \"src/contracts/mini.sol\":4867:4878  amount == 0 */\n      sub\n        /* \"src/contracts/mini.sol\":4863:4902  if (amount == 0) revert InvalidAmount() */\n      tag_199\n      jumpi\n        /* \"src/contracts/mini.sol\":4887:4902  InvalidAmount() */\n      mload(0x40)\n      0x2c5211c600000000000000000000000000000000000000000000000000000000\n      dup2\n      mstore\n      0x04\n      add\n      mload(0x40)\n      dup1\n      swap2\n      sub\n      swap1\n      revert\n        /* \"src/contracts/mini.sol\":4863:4902  if (amount == 0) revert InvalidAmount() */\n    tag_199:\n        /* \"src/contracts/mini.sol\":4913:4927  User storage u */\n      0x00\n        /* \"src/contracts/mini.sol\":4930:4935  users */\n      0x02\n        /* \"src/contracts/mini.sol\":4930:4947  users[msg.sender] */\n      0x00\n        /* \"src/contracts/mini.sol\":4936:4946  msg.sender */\n      caller\n        /* \"src/contracts/mini.sol\":4930:4947  users[msg.sender] */\n      0xffffffffffffffffffffffffffffffffffffffff\n      and\n      0xffffffffffffffffffffffffffffffffffffffff\n      and\n      dup2\n      mstore\n      0x20\n      add\n      swap1\n      dup2\n      mstore\n      0x20\n      add\n      0x00\n      keccak256\n        /* \"src/contracts/mini.sol\":4913:4947  User storage u = users[msg.sender] */\n      swap1\n      pop\n        /* \"src/contracts/mini.sol\":4976:4977  0 */\n      0x00\n        /* \"src/contracts/mini.sol\":4961:4962  u */\n      dup2\n        /* \"src/contracts/mini.sol\":4961:4972  u.stakedEth */\n      0x00\n      add\n      sload\n        /* \"src/contracts/mini.sol\":4961:4977  u.stakedEth == 0 */\n      sub\n        /* \"src/contracts/mini.sol\":4957:5008  if (u.stakedEth == 0) revert NoCollateralProvided() */\n      tag_200\n      jumpi\n        /* \"src/contracts/mini.sol\":4986:5008  NoCollateralProvided() */\n      mload(0x40)\n      0xb016be5e00000000000000000000000000000000000000000000000000000000\n      dup2\n      mstore\n      0x04\n      add\n      mload(0x40)\n      dup1\n      swap2\n      sub\n      swap1\n      revert\n        /* \"src/contracts/mini.sol\":4957:5008  if (u.stakedEth == 0) revert NoCollateralProvided() */\n    tag_200:\n        /* \"src/contracts/mini.sol\":5076:5093  uint256 maxBorrow */\n      0x00\n        /* \"src/contracts/mini.sol\":5096:5124  maxBorrowAllowed(msg.sender) */\n      tag_201\n        /* \"src/contracts/mini.sol\":5113:5123  msg.sender */\n      caller\n        /* \"src/contracts/mini.sol\":5096:5112  maxBorrowAllowed */\n      tag_65\n        /* \"src/contracts/mini.sol\":5096:5124  maxBorrowAllowed(msg.sender) */\n      jump\t// in\n    tag_201:\n        /* \"src/contracts/mini.sol\":5076:5124  uint256 maxBorrow = maxBorrowAllowed(msg.sender) */\n      swap1\n      pop\n        /* \"src/contracts/mini.sol\":5164:5173  maxBorrow */\n      dup1\n        /* \"src/contracts/mini.sol\":5155:5161  amount */\n      dup4\n        /* \"src/contracts/mini.sol\":5139:5140  u */\n      dup4\n        /* \"src/contracts/mini.sol\":5139:5152  u.borrowedUsd */\n      0x01\n      add\n      sload\n        /* \"src/contracts/mini.sol\":5139:5161  u.borrowedUsd + amount */\n      tag_202\n      swap2\n      swap1\n      tag_203\n      jump\t// in\n    tag_202:\n        /* \"src/contracts/mini.sol\":5139:5173  u.borrowedUsd + amount > maxBorrow */\n      gt\n        /* \"src/contracts/mini.sol\":5135:5304  if (u.borrowedUsd + amount > maxBorrow) {... */\n      iszero\n      tag_204\n      jumpi\n        /* \"src/contracts/mini.sol\":5189:5206  uint256 available */\n      0x00\n        /* \"src/contracts/mini.sol\":5221:5222  u */\n      dup3\n        /* \"src/contracts/mini.sol\":5221:5234  u.borrowedUsd */\n      0x01\n      add\n      sload\n        /* \"src/contracts/mini.sol\":5209:5218  maxBorrow */\n      dup3\n        /* \"src/contracts/mini.sol\":5209:5234  maxBorrow - u.borrowedUsd */\n      tag_205\n      swap2\n      swap1\n      tag_167\n      jump\t// in\n    tag_205:\n        /* \"src/contracts/mini.sol\":5189:5234  uint256 available = maxBorrow - u.borrowedUsd */\n      swap1\n      pop\n        /* \"src/contracts/mini.sol\":5275:5281  amount */\n      dup4\n        /* \"src/contracts/mini.sol\":5283:5292  available */\n      dup2\n        /* \"src/contracts/mini.sol\":5255:5293  BorrowLimitExceeded(amount, available) */\n      mload(0x40)\n      0xd771d8e900000000000000000000000000000000000000000000000000000000\n      dup2\n      mstore\n      0x04\n      add\n      tag_206\n      swap3\n      swap2\n      swap1\n      tag_114\n      jump\t// in\n    tag_206:\n      mload(0x40)\n      dup1\n      swap2\n      sub\n      swap1\n      revert\n        /* \"src/contracts/mini.sol\":5135:5304  if (u.borrowedUsd + amount > maxBorrow) {... */\n    tag_204:\n        /* \"src/contracts/mini.sol\":5384:5390  amount */\n      dup3\n        /* \"src/contracts/mini.sol\":5367:5368  u */\n      dup3\n        /* \"src/contracts/mini.sol\":5367:5380  u.borrowedUsd */\n      0x01\n      add\n      0x00\n        /* \"src/contracts/mini.sol\":5367:5390  u.borrowedUsd += amount */\n      dup3\n      dup3\n      sload\n      tag_207\n      swap2\n      swap1\n      tag_203\n      jump\t// in\n    tag_207:\n      swap3\n      pop\n      pop\n      dup2\n      swap1\n      sstore\n      pop\n        /* \"src/contracts/mini.sol\":5504:5547  _ensureFundsAndTransfer(msg.sender, amount) */\n      tag_208\n        /* \"src/contracts/mini.sol\":5528:5538  msg.sender */\n      caller\n        /* \"src/contracts/mini.sol\":5540:5546  amount */\n      dup5\n        /* \"src/contracts/mini.sol\":5504:5527  _ensureFundsAndTransfer */\n      tag_209\n        /* \"src/contracts/mini.sol\":5504:5547  _ensureFundsAndTransfer(msg.sender, amount) */\n      jump\t// in\n    tag_208:\n        /* \"src/contracts/mini.sol\":5575:5585  msg.sender */\n      caller\n        /* \"src/contracts/mini.sol\":5563:5594  USDBorrowed(msg.sender, amount) */\n      0xffffffffffffffffffffffffffffffffffffffff\n      and\n      0x5abc9a9c4616711eb03d720e050325118645a3695a5e75b5b10a29e2e217fe03\n        /* \"src/contracts/mini.sol\":5587:5593  amount */\n      dup5\n        /* \"src/contracts/mini.sol\":5563:5594  USDBorrowed(msg.sender, amount) */\n      mload(0x40)\n      tag_210\n      swap2\n      swap1\n      tag_40\n      jump\t// in\n    tag_210:\n      mload(0x40)\n      dup1\n      swap2\n      sub\n      swap1\n      log2\n        /* \"src/contracts/mini.sol\":4853:5601  {... */\n      pop\n      pop\n        /* \"@openzeppelin/contracts/security/ReentrancyGuard.sol\":2303:2323  _nonReentrantAfter() */\n      tag_211\n        /* \"@openzeppelin/contracts/security/ReentrancyGuard.sol\":2303:2321  _nonReentrantAfter */\n      tag_190\n        /* \"@openzeppelin/contracts/security/ReentrancyGuard.sol\":2303:2323  _nonReentrantAfter() */\n      jump\t// in\n    tag_211:\n        /* \"src/contracts/mini.sol\":4796:5601  function borrowUsd(uint256 amount) external nonReentrant {... */\n      pop\n      jump\t// out\n        /* \"src/contracts/mini.sol\":2809:2843  uint256 public constant WAD = 1e18 */\n    tag_81:\n        /* \"src/contracts/mini.sol\":2839:2843  1e18 */\n      0x0de0b6b3a7640000\n        /* \"src/contracts/mini.sol\":2809:2843  uint256 public constant WAD = 1e18 */\n      dup2\n      jump\t// out\n        /* \"src/contracts/mini.sol\":2990:3016  uint256 public ltvPct = 50 */\n    tag_85:\n      sload(0x05)\n      dup2\n      jump\t// out\n        /* \"@openzeppelin/contracts/access/Ownable.sol\":2293:2394  function renounceOwnership() public virtual onlyOwner {... */\n    tag_89:\n        /* \"@openzeppelin/contracts/access/Ownable.sol\":1531:1544  _checkOwner() */\n      tag_213\n        /* \"@openzeppelin/contracts/access/Ownable.sol\":1531:1542  _checkOwner */\n      tag_148\n        /* \"@openzeppelin/contracts/access/Ownable.sol\":1531:1544  _checkOwner() */\n      jump\t// in\n    tag_213:\n        /* \"@openzeppelin/contracts/access/Ownable.sol\":2357:2387  _transferOwnership(address(0)) */\n      tag_215\n        /* \"@openzeppelin/contracts/access/Ownable.sol\":2384:2385  0 */\n      0x00\n        /* \"@openzeppelin/contracts/access/Ownable.sol\":2357:2375  _transferOwnership */\n      tag_216\n        /* \"@openzeppelin/contracts/access/Ownable.sol\":2357:2387  _transferOwnership(address(0)) */\n      jump\t// in\n    tag_215:\n        /* \"@openzeppelin/contracts/access/Ownable.sol\":2293:2394  function renounceOwnership() public virtual onlyOwner {... */\n      jump\t// out\n        /* \"src/contracts/mini.sol\":4505:4718  function stakeEth() external payable nonReentrant {... */\n    tag_91:\n        /* \"@openzeppelin/contracts/security/ReentrancyGuard.sol\":2261:2282  _nonReentrantBefore() */\n      tag_218\n        /* \"@openzeppelin/contracts/security/ReentrancyGuard.sol\":2261:2280  _nonReentrantBefore */\n      tag_174\n        /* \"@openzeppelin/contracts/security/ReentrancyGuard.sol\":2261:2282  _nonReentrantBefore() */\n      jump\t// in\n    tag_218:\n        /* \"src/contracts/mini.sol\":4582:4583  0 */\n      0x00\n        /* \"src/contracts/mini.sol\":4569:4578  msg.value */\n      callvalue\n        /* \"src/contracts/mini.sol\":4569:4583  msg.value == 0 */\n      sub\n        /* \"src/contracts/mini.sol\":4565:4614  if (msg.value == 0) revert NoCollateralProvided() */\n      tag_220\n      jumpi\n        /* \"src/contracts/mini.sol\":4592:4614  NoCollateralProvided() */\n      mload(0x40)\n      0xb016be5e00000000000000000000000000000000000000000000000000000000\n      dup2\n      mstore\n      0x04\n      add\n      mload(0x40)\n      dup1\n      swap2\n      sub\n      swap1\n      revert\n        /* \"src/contracts/mini.sol\":4565:4614  if (msg.value == 0) revert NoCollateralProvided() */\n    tag_220:\n        /* \"src/contracts/mini.sol\":4655:4664  msg.value */\n      callvalue\n        /* \"src/contracts/mini.sol\":4624:4629  users */\n      0x02\n        /* \"src/contracts/mini.sol\":4624:4641  users[msg.sender] */\n      0x00\n        /* \"src/contracts/mini.sol\":4630:4640  msg.sender */\n      caller\n        /* \"src/contracts/mini.sol\":4624:4641  users[msg.sender] */\n      0xffffffffffffffffffffffffffffffffffffffff\n      and\n      0xffffffffffffffffffffffffffffffffffffffff\n      and\n      dup2\n      mstore\n      0x20\n      add\n      swap1\n      dup2\n      mstore\n      0x20\n      add\n      0x00\n      keccak256\n        /* \"src/contracts/mini.sol\":4624:4651  users[msg.sender].stakedEth */\n      0x00\n      add\n      0x00\n        /* \"src/contracts/mini.sol\":4624:4664  users[msg.sender].stakedEth += msg.value */\n      dup3\n      dup3\n      sload\n      tag_221\n      swap2\n      swap1\n      tag_203\n      jump\t// in\n    tag_221:\n      swap3\n      pop\n      pop\n      dup2\n      swap1\n      sstore\n      pop\n        /* \"src/contracts/mini.sol\":4689:4699  msg.sender */\n      caller\n        /* \"src/contracts/mini.sol\":4679:4711  EthStaked(msg.sender, msg.value) */\n      0xffffffffffffffffffffffffffffffffffffffff\n      and\n      0x1c0917c3a343a300b56473c59fa8355d3326f2c73472679a5b4cd5d6e0390c80\n        /* \"src/contracts/mini.sol\":4701:4710  msg.value */\n      callvalue\n        /* \"src/contracts/mini.sol\":4679:4711  EthStaked(msg.sender, msg.value) */\n      mload(0x40)\n      tag_222\n      swap2\n      swap1\n      tag_40\n      jump\t// in\n    tag_222:\n      mload(0x40)\n      dup1\n      swap2\n      sub\n      swap1\n      log2\n        /* \"@openzeppelin/contracts/security/ReentrancyGuard.sol\":2303:2323  _nonReentrantAfter() */\n      tag_223\n        /* \"@openzeppelin/contracts/security/ReentrancyGuard.sol\":2303:2321  _nonReentrantAfter */\n      tag_190\n        /* \"@openzeppelin/contracts/security/ReentrancyGuard.sol\":2303:2323  _nonReentrantAfter() */\n      jump\t// in\n    tag_223:\n        /* \"src/contracts/mini.sol\":4505:4718  function stakeEth() external payable nonReentrant {... */\n      jump\t// out\n        /* \"src/contracts/mini.sol\":2849:2894  uint256 public constant PCT_DENOMINATOR = 100 */\n    tag_94:\n        /* \"src/contracts/mini.sol\":2891:2894  100 */\n      0x64\n        /* \"src/contracts/mini.sol\":2849:2894  uint256 public constant PCT_DENOMINATOR = 100 */\n      dup2\n      jump\t// out\n        /* \"@openzeppelin/contracts/access/Ownable.sol\":1638:1723  function owner() public view virtual returns (address) {... */\n    tag_98:\n        /* \"@openzeppelin/contracts/access/Ownable.sol\":1684:1691  address */\n      0x00\n        /* \"@openzeppelin/contracts/access/Ownable.sol\":1710:1716  _owner */\n      0x01\n      0x00\n      swap1\n      sload\n      swap1\n      0x0100\n      exp\n      swap1\n      div\n      0xffffffffffffffffffffffffffffffffffffffff\n      and\n        /* \"@openzeppelin/contracts/access/Ownable.sol\":1703:1716  return _owner */\n      swap1\n      pop\n        /* \"@openzeppelin/contracts/access/Ownable.sol\":1638:1723  function owner() public view virtual returns (address) {... */\n      swap1\n      jump\t// out\n        /* \"src/contracts/mini.sol\":3051:3094  uint256 public liquidationThresholdPct = 75 */\n    tag_103:\n      sload(0x06)\n      dup2\n      jump\t// out\n        /* \"src/contracts/mini.sol\":4004:4179  function setLtv(uint256 _ltvPct) external onlyOwner {... */\n    tag_108:\n        /* \"@openzeppelin/contracts/access/Ownable.sol\":1531:1544  _checkOwner() */\n      tag_226\n        /* \"@openzeppelin/contracts/access/Ownable.sol\":1531:1542  _checkOwner */\n      tag_148\n        /* \"@openzeppelin/contracts/access/Ownable.sol\":1531:1544  _checkOwner() */\n      jump\t// in\n    tag_226:\n        /* \"src/contracts/mini.sol\":2891:2894  100 */\n      0x64\n        /* \"src/contracts/mini.sol\":4074:4081  _ltvPct */\n      dup2\n        /* \"src/contracts/mini.sol\":4074:4100  _ltvPct <= PCT_DENOMINATOR */\n      gt\n      iszero\n        /* \"src/contracts/mini.sol\":4066:4112  require(_ltvPct <= PCT_DENOMINATOR, \"bad ltv\") */\n      tag_228\n      jumpi\n      mload(0x40)\n      0x08c379a000000000000000000000000000000000000000000000000000000000\n      dup2\n      mstore\n      0x04\n      add\n      tag_229\n      swap1\n      tag_230\n      jump\t// in\n    tag_229:\n      mload(0x40)\n      dup1\n      swap2\n      sub\n      swap1\n      revert\n    tag_228:\n        /* \"src/contracts/mini.sol\":4131:4138  _ltvPct */\n      dup1\n        /* \"src/contracts/mini.sol\":4122:4128  ltvPct */\n      0x05\n        /* \"src/contracts/mini.sol\":4122:4138  ltvPct = _ltvPct */\n      dup2\n      swap1\n      sstore\n      pop\n        /* \"src/contracts/mini.sol\":4153:4172  LtvUpdated(_ltvPct) */\n      0xcce25c35b561657fb7cd2ac403c6a4854283d0f4d462e68e0f97d07c348bcff2\n        /* \"src/contracts/mini.sol\":4164:4171  _ltvPct */\n      dup2\n        /* \"src/contracts/mini.sol\":4153:4172  LtvUpdated(_ltvPct) */\n      mload(0x40)\n      tag_231\n      swap2\n      swap1\n      tag_40\n      jump\t// in\n    tag_231:\n      mload(0x40)\n      dup1\n      swap2\n      sub\n      swap1\n      log1\n        /* \"src/contracts/mini.sol\":4004:4179  function setLtv(uint256 _ltvPct) external onlyOwner {... */\n      pop\n      jump\t// out\n        /* \"src/contracts/mini.sol\":2616:2653  mapping(address => User) public users */\n    tag_112:\n      mstore(0x20, 0x02)\n      dup1\n      0x00\n      mstore\n      keccak256(0x00, 0x40)\n      0x00\n      swap2\n      pop\n      swap1\n      pop\n      dup1\n      0x00\n      add\n      sload\n      swap1\n      dup1\n      0x01\n      add\n      sload\n      swap1\n      pop\n      dup3\n      jump\t// out\n        /* \"src/contracts/mini.sol\":7868:9994  function liquidate(... */\n    tag_119:\n        /* \"@openzeppelin/contracts/security/ReentrancyGuard.sol\":2261:2282  _nonReentrantBefore() */\n      tag_233\n        /* \"@openzeppelin/contracts/security/ReentrancyGuard.sol\":2261:2280  _nonReentrantBefore */\n      tag_174\n        /* \"@openzeppelin/contracts/security/ReentrancyGuard.sol\":2261:2282  _nonReentrantBefore() */\n      jump\t// in\n    tag_233:\n        /* \"src/contracts/mini.sol\":7999:8000  0 */\n      0x00\n        /* \"src/contracts/mini.sol\":7984:7995  repayAmount */\n      dup2\n        /* \"src/contracts/mini.sol\":7984:8000  repayAmount == 0 */\n      sub\n        /* \"src/contracts/mini.sol\":7980:8024  if (repayAmount == 0) revert InvalidAmount() */\n      tag_235\n      jumpi\n        /* \"src/contracts/mini.sol\":8009:8024  InvalidAmount() */\n      mload(0x40)\n      0x2c5211c600000000000000000000000000000000000000000000000000000000\n      dup2\n      mstore\n      0x04\n      add\n      mload(0x40)\n      dup1\n      swap2\n      sub\n      swap1\n      revert\n        /* \"src/contracts/mini.sol\":7980:8024  if (repayAmount == 0) revert InvalidAmount() */\n    tag_235:\n        /* \"src/contracts/mini.sol\":8058:8059  0 */\n      0x00\n        /* \"src/contracts/mini.sol\":8038:8060  borrower == address(0) */\n      0xffffffffffffffffffffffffffffffffffffffff\n      and\n        /* \"src/contracts/mini.sol\":8038:8046  borrower */\n      dup3\n        /* \"src/contracts/mini.sol\":8038:8060  borrower == address(0) */\n      0xffffffffffffffffffffffffffffffffffffffff\n      and\n      sub\n        /* \"src/contracts/mini.sol\":8034:8093  if (borrower == address(0)) revert InvalidAddress(borrower) */\n      tag_236\n      jumpi\n        /* \"src/contracts/mini.sol\":8084:8092  borrower */\n      dup2\n        /* \"src/contracts/mini.sol\":8069:8093  InvalidAddress(borrower) */\n      mload(0x40)\n      0x8e4c8aa600000000000000000000000000000000000000000000000000000000\n      dup2\n      mstore\n      0x04\n      add\n      tag_237\n      swap2\n      swap1\n      tag_100\n      jump\t// in\n    tag_237:\n      mload(0x40)\n      dup1\n      swap2\n      sub\n      swap1\n      revert\n        /* \"src/contracts/mini.sol\":8034:8093  if (borrower == address(0)) revert InvalidAddress(borrower) */\n    tag_236:\n        /* \"src/contracts/mini.sol\":8104:8118  User storage u */\n      0x00\n        /* \"src/contracts/mini.sol\":8121:8126  users */\n      0x02\n        /* \"src/contracts/mini.sol\":8121:8136  users[borrower] */\n      0x00\n        /* \"src/contracts/mini.sol\":8127:8135  borrower */\n      dup5\n        /* \"src/contracts/mini.sol\":8121:8136  users[borrower] */\n      0xffffffffffffffffffffffffffffffffffffffff\n      and\n      0xffffffffffffffffffffffffffffffffffffffff\n      and\n      dup2\n      mstore\n      0x20\n      add\n      swap1\n      dup2\n      mstore\n      0x20\n      add\n      0x00\n      keccak256\n        /* \"src/contracts/mini.sol\":8104:8136  User storage u = users[borrower] */\n      swap1\n      pop\n        /* \"src/contracts/mini.sol\":8167:8168  0 */\n      0x00\n        /* \"src/contracts/mini.sol\":8150:8151  u */\n      dup2\n        /* \"src/contracts/mini.sol\":8150:8163  u.borrowedUsd */\n      0x01\n      add\n      sload\n        /* \"src/contracts/mini.sol\":8150:8168  u.borrowedUsd == 0 */\n      sub\n        /* \"src/contracts/mini.sol\":8146:8199  if (u.borrowedUsd == 0) revert NoCollateralProvided() */\n      tag_238\n      jumpi\n        /* \"src/contracts/mini.sol\":8177:8199  NoCollateralProvided() */\n      mload(0x40)\n      0xb016be5e00000000000000000000000000000000000000000000000000000000\n      dup2\n      mstore\n      0x04\n      add\n      mload(0x40)\n      dup1\n      swap2\n      sub\n      swap1\n      revert\n        /* \"src/contracts/mini.sol\":8146:8199  if (u.borrowedUsd == 0) revert NoCollateralProvided() */\n    tag_238:\n        /* \"src/contracts/mini.sol\":8210:8226  uint256 ethPrice */\n      0x00\n        /* \"src/contracts/mini.sol\":8229:8240  priceOracle */\n      0x04\n      0x00\n      swap1\n      sload\n      swap1\n      0x0100\n      exp\n      swap1\n      div\n      0xffffffffffffffffffffffffffffffffffffffff\n      and\n        /* \"src/contracts/mini.sol\":8229:8255  priceOracle.getLatestPrice */\n      0xffffffffffffffffffffffffffffffffffffffff\n      and\n      0x8e15f473\n        /* \"src/contracts/mini.sol\":8229:8257  priceOracle.getLatestPrice() */\n      mload(0x40)\n      dup2\n      0xffffffff\n      and\n      0xe0\n      shl\n      dup2\n      mstore\n      0x04\n      add\n      0x20\n      mload(0x40)\n      dup1\n      dup4\n      sub\n      dup2\n      dup7\n      gas\n      staticcall\n      iszero\n      dup1\n      iszero\n      tag_240\n      jumpi\n      returndatacopy(0x00, 0x00, returndatasize)\n      revert(0x00, returndatasize)\n    tag_240:\n      pop\n      pop\n      pop\n      pop\n      mload(0x40)\n      returndatasize\n      not(0x1f)\n      0x1f\n      dup3\n      add\n      and\n      dup3\n      add\n      dup1\n      0x40\n      mstore\n      pop\n      dup2\n      add\n      swap1\n      tag_241\n      swap2\n      swap1\n      tag_158\n      jump\t// in\n    tag_241:\n        /* \"src/contracts/mini.sol\":8210:8257  uint256 ethPrice = priceOracle.getLatestPrice() */\n      swap1\n      pop\n        /* \"src/contracts/mini.sol\":8267:8288  uint256 collateralUsd */\n      0x00\n        /* \"src/contracts/mini.sol\":8291:8319  collateralValueUsd(borrower) */\n      tag_242\n        /* \"src/contracts/mini.sol\":8310:8318  borrower */\n      dup6\n        /* \"src/contracts/mini.sol\":8291:8309  collateralValueUsd */\n      tag_55\n        /* \"src/contracts/mini.sol\":8291:8319  collateralValueUsd(borrower) */\n      jump\t// in\n    tag_242:\n        /* \"src/contracts/mini.sol\":8267:8319  uint256 collateralUsd = collateralValueUsd(borrower) */\n      swap1\n      pop\n        /* \"src/contracts/mini.sol\":8505:8524  uint256 hfNumerator */\n      0x00\n        /* \"src/contracts/mini.sol\":8543:8566  liquidationThresholdPct */\n      sload(0x06)\n        /* \"src/contracts/mini.sol\":8527:8540  collateralUsd */\n      dup3\n        /* \"src/contracts/mini.sol\":8527:8566  collateralUsd * liquidationThresholdPct */\n      tag_243\n      swap2\n      swap1\n      tag_160\n      jump\t// in\n    tag_243:\n        /* \"src/contracts/mini.sol\":8505:8566  uint256 hfNumerator = collateralUsd * liquidationThresholdPct */\n      swap1\n      pop\n        /* \"src/contracts/mini.sol\":8576:8597  uint256 hfDenominator */\n      0x00\n        /* \"src/contracts/mini.sol\":2891:2894  100 */\n      0x64\n        /* \"src/contracts/mini.sol\":8600:8601  u */\n      dup6\n        /* \"src/contracts/mini.sol\":8600:8613  u.borrowedUsd */\n      0x01\n      add\n      sload\n        /* \"src/contracts/mini.sol\":8600:8631  u.borrowedUsd * PCT_DENOMINATOR */\n      tag_244\n      swap2\n      swap1\n      tag_160\n      jump\t// in\n    tag_244:\n        /* \"src/contracts/mini.sol\":8576:8631  uint256 hfDenominator = u.borrowedUsd * PCT_DENOMINATOR */\n      swap1\n      pop\n        /* \"src/contracts/mini.sol\":8713:8726  hfDenominator */\n      dup1\n        /* \"src/contracts/mini.sol\":8698:8709  hfNumerator */\n      dup3\n        /* \"src/contracts/mini.sol\":8698:8726  hfNumerator >= hfDenominator */\n      lt\n        /* \"src/contracts/mini.sol\":8694:8799  if (hfNumerator >= hfDenominator)... */\n      tag_245\n      jumpi\n        /* \"src/contracts/mini.sol\":8785:8798  hfDenominator */\n      dup1\n        /* \"src/contracts/mini.sol\":2839:2843  1e18 */\n      0x0de0b6b3a7640000\n        /* \"src/contracts/mini.sol\":8764:8775  hfNumerator */\n      dup4\n        /* \"src/contracts/mini.sol\":8764:8781  hfNumerator * WAD */\n      tag_246\n      swap2\n      swap1\n      tag_160\n      jump\t// in\n    tag_246:\n        /* \"src/contracts/mini.sol\":8763:8798  (hfNumerator * WAD) / hfDenominator */\n      tag_247\n      swap2\n      swap1\n      tag_162\n      jump\t// in\n    tag_247:\n        /* \"src/contracts/mini.sol\":8747:8799  NotLiquidatable((hfNumerator * WAD) / hfDenominator) */\n      mload(0x40)\n      0x4fd4b9f700000000000000000000000000000000000000000000000000000000\n      dup2\n      mstore\n      0x04\n      add\n      tag_248\n      swap2\n      swap1\n      tag_40\n      jump\t// in\n    tag_248:\n      mload(0x40)\n      dup1\n      swap2\n      sub\n      swap1\n      revert\n        /* \"src/contracts/mini.sol\":8694:8799  if (hfNumerator >= hfDenominator)... */\n    tag_245:\n        /* \"src/contracts/mini.sol\":8868:8887  uint256 actualRepay */\n      0x00\n        /* \"src/contracts/mini.sol\":8904:8905  u */\n      dup6\n        /* \"src/contracts/mini.sol\":8904:8917  u.borrowedUsd */\n      0x01\n      add\n      sload\n        /* \"src/contracts/mini.sol\":8890:8901  repayAmount */\n      dup8\n        /* \"src/contracts/mini.sol\":8890:8917  repayAmount > u.borrowedUsd */\n      gt\n        /* \"src/contracts/mini.sol\":8890:8971  repayAmount > u.borrowedUsd... */\n      tag_249\n      jumpi\n        /* \"src/contracts/mini.sol\":8960:8971  repayAmount */\n      dup7\n        /* \"src/contracts/mini.sol\":8890:8971  repayAmount > u.borrowedUsd... */\n      jump(tag_250)\n    tag_249:\n        /* \"src/contracts/mini.sol\":8932:8933  u */\n      dup6\n        /* \"src/contracts/mini.sol\":8932:8945  u.borrowedUsd */\n      0x01\n      add\n      sload\n        /* \"src/contracts/mini.sol\":8890:8971  repayAmount > u.borrowedUsd... */\n    tag_250:\n        /* \"src/contracts/mini.sol\":8868:8971  uint256 actualRepay = repayAmount > u.borrowedUsd... */\n      swap1\n      pop\n        /* \"src/contracts/mini.sol\":9034:9041  bool ok */\n      0x00\n        /* \"src/contracts/mini.sol\":9044:9052  usdToken */\n      0x03\n      0x00\n      swap1\n      sload\n      swap1\n      0x0100\n      exp\n      swap1\n      div\n      0xffffffffffffffffffffffffffffffffffffffff\n      and\n        /* \"src/contracts/mini.sol\":9044:9065  usdToken.transferFrom */\n      0xffffffffffffffffffffffffffffffffffffffff\n      and\n      0x23b872dd\n        /* \"src/contracts/mini.sol\":9066:9076  msg.sender */\n      caller\n        /* \"src/contracts/mini.sol\":9086:9090  this */\n      address\n        /* \"src/contracts/mini.sol\":9093:9104  actualRepay */\n      dup6\n        /* \"src/contracts/mini.sol\":9044:9105  usdToken.transferFrom(msg.sender, address(this), actualRepay) */\n      mload(0x40)\n      dup5\n      0xffffffff\n      and\n      0xe0\n      shl\n      dup2\n      mstore\n      0x04\n      add\n      tag_251\n      swap4\n      swap3\n      swap2\n      swap1\n      tag_181\n      jump\t// in\n    tag_251:\n      0x20\n      mload(0x40)\n      dup1\n      dup4\n      sub\n      dup2\n      0x00\n      dup8\n      gas\n      call\n      iszero\n      dup1\n      iszero\n      tag_253\n      jumpi\n      returndatacopy(0x00, 0x00, returndatasize)\n      revert(0x00, returndatasize)\n    tag_253:\n      pop\n      pop\n      pop\n      pop\n      mload(0x40)\n      returndatasize\n      not(0x1f)\n      0x1f\n      dup3\n      add\n      and\n      dup3\n      add\n      dup1\n      0x40\n      mstore\n      pop\n      dup2\n      add\n      swap1\n      tag_254\n      swap2\n      swap1\n      tag_185\n      jump\t// in\n    tag_254:\n        /* \"src/contracts/mini.sol\":9034:9105  bool ok = usdToken.transferFrom(msg.sender, address(this), actualRepay) */\n      swap1\n      pop\n        /* \"src/contracts/mini.sol\":9120:9122  ok */\n      dup1\n        /* \"src/contracts/mini.sol\":9115:9147  if (!ok) revert TransferFailed() */\n      tag_255\n      jumpi\n        /* \"src/contracts/mini.sol\":9131:9147  TransferFailed() */\n      mload(0x40)\n      0x90b8ec1800000000000000000000000000000000000000000000000000000000\n      dup2\n      mstore\n      0x04\n      add\n      mload(0x40)\n      dup1\n      swap2\n      sub\n      swap1\n      revert\n        /* \"src/contracts/mini.sol\":9115:9147  if (!ok) revert TransferFailed() */\n    tag_255:\n        /* \"src/contracts/mini.sol\":9246:9267  uint256 ethEquivalent */\n      0x00\n        /* \"src/contracts/mini.sol\":9292:9300  ethPrice */\n      dup7\n        /* \"src/contracts/mini.sol\":2839:2843  1e18 */\n      0x0de0b6b3a7640000\n        /* \"src/contracts/mini.sol\":9271:9282  actualRepay */\n      dup5\n        /* \"src/contracts/mini.sol\":9271:9288  actualRepay * WAD */\n      tag_256\n      swap2\n      swap1\n      tag_160\n      jump\t// in\n    tag_256:\n        /* \"src/contracts/mini.sol\":9270:9300  (actualRepay * WAD) / ethPrice */\n      tag_257\n      swap2\n      swap1\n      tag_162\n      jump\t// in\n    tag_257:\n        /* \"src/contracts/mini.sol\":9246:9300  uint256 ethEquivalent = (actualRepay * WAD) / ethPrice */\n      swap1\n      pop\n        /* \"src/contracts/mini.sol\":9346:9364  uint256 bonusNumer */\n      0x00\n        /* \"src/contracts/mini.sol\":9385:9404  liquidationBonusBps */\n      sload(0x07)\n        /* \"src/contracts/mini.sol\":2965:2970  10000 */\n      0x2710\n        /* \"src/contracts/mini.sol\":9367:9404  BPS_DENOMINATOR + liquidationBonusBps */\n      tag_258\n      swap2\n      swap1\n      tag_203\n      jump\t// in\n    tag_258:\n        /* \"src/contracts/mini.sol\":9346:9404  uint256 bonusNumer = BPS_DENOMINATOR + liquidationBonusBps */\n      swap1\n      pop\n        /* \"src/contracts/mini.sol\":9443:9460  uint256 seizedEth */\n      0x00\n        /* \"src/contracts/mini.sol\":2965:2970  10000 */\n      0x2710\n        /* \"src/contracts/mini.sol\":9480:9490  bonusNumer */\n      dup3\n        /* \"src/contracts/mini.sol\":9464:9477  ethEquivalent */\n      dup5\n        /* \"src/contracts/mini.sol\":9464:9490  ethEquivalent * bonusNumer */\n      tag_259\n      swap2\n      swap1\n      tag_160\n      jump\t// in\n    tag_259:\n        /* \"src/contracts/mini.sol\":9463:9509  (ethEquivalent * bonusNumer) / BPS_DENOMINATOR */\n      tag_260\n      swap2\n      swap1\n      tag_162\n      jump\t// in\n    tag_260:\n        /* \"src/contracts/mini.sol\":9443:9509  uint256 seizedEth = (ethEquivalent * bonusNumer) / BPS_DENOMINATOR */\n      swap1\n      pop\n        /* \"src/contracts/mini.sol\":9586:9587  u */\n      dup10\n        /* \"src/contracts/mini.sol\":9586:9597  u.stakedEth */\n      0x00\n      add\n      sload\n        /* \"src/contracts/mini.sol\":9574:9583  seizedEth */\n      dup2\n        /* \"src/contracts/mini.sol\":9574:9597  seizedEth > u.stakedEth */\n      gt\n        /* \"src/contracts/mini.sol\":9570:9647  if (seizedEth > u.stakedEth) {... */\n      iszero\n      tag_261\n      jumpi\n        /* \"src/contracts/mini.sol\":9625:9626  u */\n      dup10\n        /* \"src/contracts/mini.sol\":9625:9636  u.stakedEth */\n      0x00\n      add\n      sload\n        /* \"src/contracts/mini.sol\":9613:9636  seizedEth = u.stakedEth */\n      swap1\n      pop\n        /* \"src/contracts/mini.sol\":9570:9647  if (seizedEth > u.stakedEth) {... */\n    tag_261:\n        /* \"src/contracts/mini.sol\":9707:9718  actualRepay */\n      dup5\n        /* \"src/contracts/mini.sol\":9690:9691  u */\n      dup11\n        /* \"src/contracts/mini.sol\":9690:9703  u.borrowedUsd */\n      0x01\n      add\n      0x00\n        /* \"src/contracts/mini.sol\":9690:9718  u.borrowedUsd -= actualRepay */\n      dup3\n      dup3\n      sload\n      tag_262\n      swap2\n      swap1\n      tag_167\n      jump\t// in\n    tag_262:\n      swap3\n      pop\n      pop\n      dup2\n      swap1\n      sstore\n      pop\n        /* \"src/contracts/mini.sol\":9743:9752  seizedEth */\n      dup1\n        /* \"src/contracts/mini.sol\":9728:9729  u */\n      dup11\n        /* \"src/contracts/mini.sol\":9728:9739  u.stakedEth */\n      0x00\n      add\n      0x00\n        /* \"src/contracts/mini.sol\":9728:9752  u.stakedEth -= seizedEth */\n      dup3\n      dup3\n      sload\n      tag_263\n      swap2\n      swap1\n      tag_167\n      jump\t// in\n    tag_263:\n      swap3\n      pop\n      pop\n      dup2\n      swap1\n      sstore\n      pop\n        /* \"src/contracts/mini.sol\":9809:9818  bool sent */\n      0x00\n        /* \"src/contracts/mini.sol\":9832:9842  msg.sender */\n      caller\n        /* \"src/contracts/mini.sol\":9824:9848  payable(msg.sender).call */\n      0xffffffffffffffffffffffffffffffffffffffff\n      and\n        /* \"src/contracts/mini.sol\":9856:9865  seizedEth */\n      dup3\n        /* \"src/contracts/mini.sol\":9824:9870  payable(msg.sender).call{value: seizedEth}(\"\") */\n      mload(0x40)\n      tag_264\n      swap1\n      tag_265\n      jump\t// in\n    tag_264:\n      0x00\n      mload(0x40)\n      dup1\n      dup4\n      sub\n      dup2\n      dup6\n      dup8\n      gas\n      call\n      swap3\n      pop\n      pop\n      pop\n      returndatasize\n      dup1\n      0x00\n      dup2\n      eq\n      tag_268\n      jumpi\n      mload(0x40)\n      swap2\n      pop\n      and(add(returndatasize, 0x3f), not(0x1f))\n      dup3\n      add\n      0x40\n      mstore\n      returndatasize\n      dup3\n      mstore\n      returndatasize\n      0x00\n      0x20\n      dup5\n      add\n      returndatacopy\n      jump(tag_267)\n    tag_268:\n      0x60\n      swap2\n      pop\n    tag_267:\n      pop\n        /* \"src/contracts/mini.sol\":9808:9870  (bool sent, ) = payable(msg.sender).call{value: seizedEth}(\"\") */\n      pop\n      swap1\n      pop\n        /* \"src/contracts/mini.sol\":9885:9889  sent */\n      dup1\n        /* \"src/contracts/mini.sol\":9880:9914  if (!sent) revert TransferFailed() */\n      tag_269\n      jumpi\n        /* \"src/contracts/mini.sol\":9898:9914  TransferFailed() */\n      mload(0x40)\n      0x90b8ec1800000000000000000000000000000000000000000000000000000000\n      dup2\n      mstore\n      0x04\n      add\n      mload(0x40)\n      dup1\n      swap2\n      sub\n      swap1\n      revert\n        /* \"src/contracts/mini.sol\":9880:9914  if (!sent) revert TransferFailed() */\n    tag_269:\n        /* \"src/contracts/mini.sol\":9954:9962  borrower */\n      dup13\n        /* \"src/contracts/mini.sol\":9930:9987  Liquidation(msg.sender, borrower, actualRepay, seizedEth) */\n      0xffffffffffffffffffffffffffffffffffffffff\n      and\n        /* \"src/contracts/mini.sol\":9942:9952  msg.sender */\n      caller\n        /* \"src/contracts/mini.sol\":9930:9987  Liquidation(msg.sender, borrower, actualRepay, seizedEth) */\n      0xffffffffffffffffffffffffffffffffffffffff\n      and\n      0x4ecae3269f800df64b16cb9f6f8b0b507018888521d1cff0841823e44bc0b00d\n        /* \"src/contracts/mini.sol\":9964:9975  actualRepay */\n      dup9\n        /* \"src/contracts/mini.sol\":9977:9986  seizedEth */\n      dup6\n        /* \"src/contracts/mini.sol\":9930:9987  Liquidation(msg.sender, borrower, actualRepay, seizedEth) */\n      mload(0x40)\n      tag_270\n      swap3\n      swap2\n      swap1\n      tag_114\n      jump\t// in\n    tag_270:\n      mload(0x40)\n      dup1\n      swap2\n      sub\n      swap1\n      log3\n        /* \"src/contracts/mini.sol\":7970:9994  {... */\n      pop\n      pop\n      pop\n      pop\n      pop\n      pop\n      pop\n      pop\n      pop\n      pop\n      pop\n        /* \"@openzeppelin/contracts/security/ReentrancyGuard.sol\":2303:2323  _nonReentrantAfter() */\n      tag_271\n        /* \"@openzeppelin/contracts/security/ReentrancyGuard.sol\":2303:2321  _nonReentrantAfter */\n      tag_190\n        /* \"@openzeppelin/contracts/security/ReentrancyGuard.sol\":2303:2323  _nonReentrantAfter() */\n      jump\t// in\n    tag_271:\n        /* \"src/contracts/mini.sol\":7868:9994  function liquidate(... */\n      pop\n      pop\n      jump\t// out\n        /* \"src/contracts/mini.sol\":3807:3998  function setUsdToken(address _usd) external onlyOwner {... */\n    tag_123:\n        /* \"@openzeppelin/contracts/access/Ownable.sol\":1531:1544  _checkOwner() */\n      tag_273\n        /* \"@openzeppelin/contracts/access/Ownable.sol\":1531:1542  _checkOwner */\n      tag_148\n        /* \"@openzeppelin/contracts/access/Ownable.sol\":1531:1544  _checkOwner() */\n      jump\t// in\n    tag_273:\n        /* \"src/contracts/mini.sol\":3891:3892  0 */\n      0x00\n        /* \"src/contracts/mini.sol\":3875:3893  _usd == address(0) */\n      0xffffffffffffffffffffffffffffffffffffffff\n      and\n        /* \"src/contracts/mini.sol\":3875:3879  _usd */\n      dup2\n        /* \"src/contracts/mini.sol\":3875:3893  _usd == address(0) */\n      0xffffffffffffffffffffffffffffffffffffffff\n      and\n      sub\n        /* \"src/contracts/mini.sol\":3871:3922  if (_usd == address(0)) revert InvalidAddress(_usd) */\n      tag_275\n      jumpi\n        /* \"src/contracts/mini.sol\":3917:3921  _usd */\n      dup1\n        /* \"src/contracts/mini.sol\":3902:3922  InvalidAddress(_usd) */\n      mload(0x40)\n      0x8e4c8aa600000000000000000000000000000000000000000000000000000000\n      dup2\n      mstore\n      0x04\n      add\n      tag_276\n      swap2\n      swap1\n      tag_100\n      jump\t// in\n    tag_276:\n      mload(0x40)\n      dup1\n      swap2\n      sub\n      swap1\n      revert\n        /* \"src/contracts/mini.sol\":3871:3922  if (_usd == address(0)) revert InvalidAddress(_usd) */\n    tag_275:\n        /* \"src/contracts/mini.sol\":3950:3954  _usd */\n      dup1\n        /* \"src/contracts/mini.sol\":3932:3940  usdToken */\n      0x03\n      0x00\n        /* \"src/contracts/mini.sol\":3932:3955  usdToken = IERC20(_usd) */\n      0x0100\n      exp\n      dup2\n      sload\n      dup2\n      0xffffffffffffffffffffffffffffffffffffffff\n      mul\n      not\n      and\n      swap1\n      dup4\n      0xffffffffffffffffffffffffffffffffffffffff\n      and\n      mul\n      or\n      swap1\n      sstore\n      pop\n        /* \"src/contracts/mini.sol\":3986:3990  _usd */\n      dup1\n        /* \"src/contracts/mini.sol\":3970:3991  USDTokenUpdated(_usd) */\n      0xffffffffffffffffffffffffffffffffffffffff\n      and\n      0x81a590c208a61d15bdfb64b188e09c0a6fbc5cc06d3f769de354972a76d0c12f\n      mload(0x40)\n      mload(0x40)\n      dup1\n      swap2\n      sub\n      swap1\n      log2\n        /* \"src/contracts/mini.sol\":3807:3998  function setUsdToken(address _usd) external onlyOwner {... */\n      pop\n      jump\t// out\n        /* \"src/contracts/mini.sol\":2923:2970  uint256 public constant BPS_DENOMINATOR = 10000 */\n    tag_126:\n        /* \"src/contracts/mini.sol\":2965:2970  10000 */\n      0x2710\n        /* \"src/contracts/mini.sol\":2923:2970  uint256 public constant BPS_DENOMINATOR = 10000 */\n      dup2\n      jump\t// out\n        /* \"src/contracts/mini.sol\":6360:7605  function withdrawCollateralEth(uint256 ethAmount) external nonReentrant {... */\n    tag_131:\n        /* \"@openzeppelin/contracts/security/ReentrancyGuard.sol\":2261:2282  _nonReentrantBefore() */\n      tag_278\n        /* \"@openzeppelin/contracts/security/ReentrancyGuard.sol\":2261:2280  _nonReentrantBefore */\n      tag_174\n        /* \"@openzeppelin/contracts/security/ReentrancyGuard.sol\":2261:2282  _nonReentrantBefore() */\n      jump\t// in\n    tag_278:\n        /* \"src/contracts/mini.sol\":6459:6460  0 */\n      0x00\n        /* \"src/contracts/mini.sol\":6446:6455  ethAmount */\n      dup2\n        /* \"src/contracts/mini.sol\":6446:6460  ethAmount == 0 */\n      sub\n        /* \"src/contracts/mini.sol\":6442:6484  if (ethAmount == 0) revert InvalidAmount() */\n      tag_280\n      jumpi\n        /* \"src/contracts/mini.sol\":6469:6484  InvalidAmount() */\n      mload(0x40)\n      0x2c5211c600000000000000000000000000000000000000000000000000000000\n      dup2\n      mstore\n      0x04\n      add\n      mload(0x40)\n      dup1\n      swap2\n      sub\n      swap1\n      revert\n        /* \"src/contracts/mini.sol\":6442:6484  if (ethAmount == 0) revert InvalidAmount() */\n    tag_280:\n        /* \"src/contracts/mini.sol\":6495:6509  User storage u */\n      0x00\n        /* \"src/contracts/mini.sol\":6512:6517  users */\n      0x02\n        /* \"src/contracts/mini.sol\":6512:6529  users[msg.sender] */\n      0x00\n        /* \"src/contracts/mini.sol\":6518:6528  msg.sender */\n      caller\n        /* \"src/contracts/mini.sol\":6512:6529  users[msg.sender] */\n      0xffffffffffffffffffffffffffffffffffffffff\n      and\n      0xffffffffffffffffffffffffffffffffffffffff\n      and\n      dup2\n      mstore\n      0x20\n      add\n      swap1\n      dup2\n      mstore\n      0x20\n      add\n      0x00\n      keccak256\n        /* \"src/contracts/mini.sol\":6495:6529  User storage u = users[msg.sender] */\n      swap1\n      pop\n        /* \"src/contracts/mini.sol\":6557:6566  ethAmount */\n      dup2\n        /* \"src/contracts/mini.sol\":6543:6544  u */\n      dup2\n        /* \"src/contracts/mini.sol\":6543:6554  u.stakedEth */\n      0x00\n      add\n      sload\n        /* \"src/contracts/mini.sol\":6543:6566  u.stakedEth < ethAmount */\n      lt\n        /* \"src/contracts/mini.sol\":6539:6630  if (u.stakedEth < ethAmount)... */\n      iszero\n      tag_281\n      jumpi\n        /* \"src/contracts/mini.sol\":6607:6608  u */\n      dup1\n        /* \"src/contracts/mini.sol\":6607:6618  u.stakedEth */\n      0x00\n      add\n      sload\n        /* \"src/contracts/mini.sol\":6620:6629  ethAmount */\n      dup3\n        /* \"src/contracts/mini.sol\":6587:6630  NotEnoughCollateral(u.stakedEth, ethAmount) */\n      mload(0x40)\n      0x768063db00000000000000000000000000000000000000000000000000000000\n      dup2\n      mstore\n      0x04\n      add\n      tag_282\n      swap3\n      swap2\n      swap1\n      tag_114\n      jump\t// in\n    tag_282:\n      mload(0x40)\n      dup1\n      swap2\n      sub\n      swap1\n      revert\n        /* \"src/contracts/mini.sol\":6539:6630  if (u.stakedEth < ethAmount)... */\n    tag_281:\n        /* \"src/contracts/mini.sol\":6698:6722  uint256 newCollateralEth */\n      0x00\n        /* \"src/contracts/mini.sol\":6739:6748  ethAmount */\n      dup3\n        /* \"src/contracts/mini.sol\":6725:6726  u */\n      dup3\n        /* \"src/contracts/mini.sol\":6725:6736  u.stakedEth */\n      0x00\n      add\n      sload\n        /* \"src/contracts/mini.sol\":6725:6748  u.stakedEth - ethAmount */\n      tag_283\n      swap2\n      swap1\n      tag_167\n      jump\t// in\n    tag_283:\n        /* \"src/contracts/mini.sol\":6698:6748  uint256 newCollateralEth = u.stakedEth - ethAmount */\n      swap1\n      pop\n        /* \"src/contracts/mini.sol\":6758:6774  uint256 ethPrice */\n      0x00\n        /* \"src/contracts/mini.sol\":6777:6788  priceOracle */\n      0x04\n      0x00\n      swap1\n      sload\n      swap1\n      0x0100\n      exp\n      swap1\n      div\n      0xffffffffffffffffffffffffffffffffffffffff\n      and\n        /* \"src/contracts/mini.sol\":6777:6803  priceOracle.getLatestPrice */\n      0xffffffffffffffffffffffffffffffffffffffff\n      and\n      0x8e15f473\n        /* \"src/contracts/mini.sol\":6777:6805  priceOracle.getLatestPrice() */\n      mload(0x40)\n      dup2\n      0xffffffff\n      and\n      0xe0\n      shl\n      dup2\n      mstore\n      0x04\n      add\n      0x20\n      mload(0x40)\n      dup1\n      dup4\n      sub\n      dup2\n      dup7\n      gas\n      staticcall\n      iszero\n      dup1\n      iszero\n      tag_285\n      jumpi\n      returndatacopy(0x00, 0x00, returndatasize)\n      revert(0x00, returndatasize)\n    tag_285:\n      pop\n      pop\n      pop\n      pop\n      mload(0x40)\n      returndatasize\n      not(0x1f)\n      0x1f\n      dup3\n      add\n      and\n      dup3\n      add\n      dup1\n      0x40\n      mstore\n      pop\n      dup2\n      add\n      swap1\n      tag_286\n      swap2\n      swap1\n      tag_158\n      jump\t// in\n    tag_286:\n        /* \"src/contracts/mini.sol\":6758:6805  uint256 ethPrice = priceOracle.getLatestPrice() */\n      swap1\n      pop\n        /* \"src/contracts/mini.sol\":6815:6839  uint256 newCollateralUsd */\n      0x00\n        /* \"src/contracts/mini.sol\":2839:2843  1e18 */\n      0x0de0b6b3a7640000\n        /* \"src/contracts/mini.sol\":6862:6870  ethPrice */\n      dup3\n        /* \"src/contracts/mini.sol\":6843:6859  newCollateralEth */\n      dup5\n        /* \"src/contracts/mini.sol\":6843:6870  newCollateralEth * ethPrice */\n      tag_287\n      swap2\n      swap1\n      tag_160\n      jump\t// in\n    tag_287:\n        /* \"src/contracts/mini.sol\":6842:6877  (newCollateralEth * ethPrice) / WAD */\n      tag_288\n      swap2\n      swap1\n      tag_162\n      jump\t// in\n    tag_288:\n        /* \"src/contracts/mini.sol\":6815:6877  uint256 newCollateralUsd = (newCollateralEth * ethPrice) / WAD */\n      swap1\n      pop\n        /* \"src/contracts/mini.sol\":6971:6972  0 */\n      0x00\n        /* \"src/contracts/mini.sol\":6955:6956  u */\n      dup5\n        /* \"src/contracts/mini.sol\":6955:6968  u.borrowedUsd */\n      0x01\n      add\n      sload\n        /* \"src/contracts/mini.sol\":6955:6972  u.borrowedUsd > 0 */\n      gt\n        /* \"src/contracts/mini.sol\":6951:7338  if (u.borrowedUsd > 0) {... */\n      iszero\n      tag_289\n      jumpi\n        /* \"src/contracts/mini.sol\":7054:7083  uint256 requiredCollateralUsd */\n      0x00\n        /* \"src/contracts/mini.sol\":7138:7144  ltvPct */\n      sload(0x05)\n        /* \"src/contracts/mini.sol\":2891:2894  100 */\n      0x64\n        /* \"src/contracts/mini.sol\":7087:7088  u */\n      dup7\n        /* \"src/contracts/mini.sol\":7087:7100  u.borrowedUsd */\n      0x01\n      add\n      sload\n        /* \"src/contracts/mini.sol\":7087:7118  u.borrowedUsd * PCT_DENOMINATOR */\n      tag_290\n      swap2\n      swap1\n      tag_160\n      jump\t// in\n    tag_290:\n        /* \"src/contracts/mini.sol\":7086:7144  (u.borrowedUsd * PCT_DENOMINATOR) /... */\n      tag_291\n      swap2\n      swap1\n      tag_162\n      jump\t// in\n    tag_291:\n        /* \"src/contracts/mini.sol\":7054:7144  uint256 requiredCollateralUsd = (u.borrowedUsd * PCT_DENOMINATOR) /... */\n      swap1\n      pop\n        /* \"src/contracts/mini.sol\":7181:7202  requiredCollateralUsd */\n      dup1\n        /* \"src/contracts/mini.sol\":7162:7178  newCollateralUsd */\n      dup3\n        /* \"src/contracts/mini.sol\":7162:7202  newCollateralUsd < requiredCollateralUsd */\n      lt\n        /* \"src/contracts/mini.sol\":7158:7328  if (newCollateralUsd < requiredCollateralUsd) {... */\n      iszero\n      tag_292\n      jumpi\n        /* \"src/contracts/mini.sol\":7249:7250  0 */\n      0x00\n        /* \"src/contracts/mini.sol\":7252:7273  requiredCollateralUsd */\n      dup2\n        /* \"src/contracts/mini.sol\":7229:7274  BorrowLimitExceeded(0, requiredCollateralUsd) */\n      mload(0x40)\n      0xd771d8e900000000000000000000000000000000000000000000000000000000\n      dup2\n      mstore\n      0x04\n      add\n      tag_293\n      swap3\n      swap2\n      swap1\n      tag_294\n      jump\t// in\n    tag_293:\n      mload(0x40)\n      dup1\n      swap2\n      sub\n      swap1\n      revert\n        /* \"src/contracts/mini.sol\":7158:7328  if (newCollateralUsd < requiredCollateralUsd) {... */\n    tag_292:\n        /* \"src/contracts/mini.sol\":6974:7338  {... */\n      pop\n        /* \"src/contracts/mini.sol\":6951:7338  if (u.borrowedUsd > 0) {... */\n    tag_289:\n        /* \"src/contracts/mini.sol\":7404:7420  newCollateralEth */\n      dup3\n        /* \"src/contracts/mini.sol\":7390:7391  u */\n      dup5\n        /* \"src/contracts/mini.sol\":7390:7401  u.stakedEth */\n      0x00\n      add\n        /* \"src/contracts/mini.sol\":7390:7420  u.stakedEth = newCollateralEth */\n      dup2\n      swap1\n      sstore\n      pop\n        /* \"src/contracts/mini.sol\":7432:7441  bool sent */\n      0x00\n        /* \"src/contracts/mini.sol\":7455:7465  msg.sender */\n      caller\n        /* \"src/contracts/mini.sol\":7447:7471  payable(msg.sender).call */\n      0xffffffffffffffffffffffffffffffffffffffff\n      and\n        /* \"src/contracts/mini.sol\":7479:7488  ethAmount */\n      dup7\n        /* \"src/contracts/mini.sol\":7447:7493  payable(msg.sender).call{value: ethAmount}(\"\") */\n      mload(0x40)\n      tag_295\n      swap1\n      tag_265\n      jump\t// in\n    tag_295:\n      0x00\n      mload(0x40)\n      dup1\n      dup4\n      sub\n      dup2\n      dup6\n      dup8\n      gas\n      call\n      swap3\n      pop\n      pop\n      pop\n      returndatasize\n      dup1\n      0x00\n      dup2\n      eq\n      tag_298\n      jumpi\n      mload(0x40)\n      swap2\n      pop\n      and(add(returndatasize, 0x3f), not(0x1f))\n      dup3\n      add\n      0x40\n      mstore\n      returndatasize\n      dup3\n      mstore\n      returndatasize\n      0x00\n      0x20\n      dup5\n      add\n      returndatacopy\n      jump(tag_297)\n    tag_298:\n      0x60\n      swap2\n      pop\n    tag_297:\n      pop\n        /* \"src/contracts/mini.sol\":7431:7493  (bool sent, ) = payable(msg.sender).call{value: ethAmount}(\"\") */\n      pop\n      swap1\n      pop\n        /* \"src/contracts/mini.sol\":7508:7512  sent */\n      dup1\n        /* \"src/contracts/mini.sol\":7503:7537  if (!sent) revert TransferFailed() */\n      tag_299\n      jumpi\n        /* \"src/contracts/mini.sol\":7521:7537  TransferFailed() */\n      mload(0x40)\n      0x90b8ec1800000000000000000000000000000000000000000000000000000000\n      dup2\n      mstore\n      0x04\n      add\n      mload(0x40)\n      dup1\n      swap2\n      sub\n      swap1\n      revert\n        /* \"src/contracts/mini.sol\":7503:7537  if (!sent) revert TransferFailed() */\n    tag_299:\n        /* \"src/contracts/mini.sol\":7576:7586  msg.sender */\n      caller\n        /* \"src/contracts/mini.sol\":7553:7598  ETHCollateralWithdrawn(msg.sender, ethAmount) */\n      0xffffffffffffffffffffffffffffffffffffffff\n      and\n      0x5b0743acabce0ea09498b3c2598ed444f80ef6513a2029d7d9aaed87064d1edb\n        /* \"src/contracts/mini.sol\":7588:7597  ethAmount */\n      dup8\n        /* \"src/contracts/mini.sol\":7553:7598  ETHCollateralWithdrawn(msg.sender, ethAmount) */\n      mload(0x40)\n      tag_300\n      swap2\n      swap1\n      tag_40\n      jump\t// in\n    tag_300:\n      mload(0x40)\n      dup1\n      swap2\n      sub\n      swap1\n      log2\n        /* \"src/contracts/mini.sol\":6432:7605  {... */\n      pop\n      pop\n      pop\n      pop\n      pop\n        /* \"@openzeppelin/contracts/security/ReentrancyGuard.sol\":2303:2323  _nonReentrantAfter() */\n      tag_301\n        /* \"@openzeppelin/contracts/security/ReentrancyGuard.sol\":2303:2321  _nonReentrantAfter */\n      tag_190\n        /* \"@openzeppelin/contracts/security/ReentrancyGuard.sol\":2303:2323  _nonReentrantAfter() */\n      jump\t// in\n    tag_301:\n        /* \"src/contracts/mini.sol\":6360:7605  function withdrawCollateralEth(uint256 ethAmount) external nonReentrant {... */\n      pop\n      jump\t// out\n        /* \"@openzeppelin/contracts/access/Ownable.sol\":2543:2758  function transferOwnership(address newOwner) public virtual onlyOwner {... */\n    tag_135:\n        /* \"@openzeppelin/contracts/access/Ownable.sol\":1531:1544  _checkOwner() */\n      tag_303\n        /* \"@openzeppelin/contracts/access/Ownable.sol\":1531:1542  _checkOwner */\n      tag_148\n        /* \"@openzeppelin/contracts/access/Ownable.sol\":1531:1544  _checkOwner() */\n      jump\t// in\n    tag_303:\n        /* \"@openzeppelin/contracts/access/Ownable.sol\":2647:2648  0 */\n      0x00\n        /* \"@openzeppelin/contracts/access/Ownable.sol\":2627:2649  newOwner == address(0) */\n      0xffffffffffffffffffffffffffffffffffffffff\n      and\n        /* \"@openzeppelin/contracts/access/Ownable.sol\":2627:2635  newOwner */\n      dup2\n        /* \"@openzeppelin/contracts/access/Ownable.sol\":2627:2649  newOwner == address(0) */\n      0xffffffffffffffffffffffffffffffffffffffff\n      and\n      sub\n        /* \"@openzeppelin/contracts/access/Ownable.sol\":2623:2714  if (newOwner == address(0)) {... */\n      tag_305\n      jumpi\n        /* \"@openzeppelin/contracts/access/Ownable.sol\":2700:2701  0 */\n      0x00\n        /* \"@openzeppelin/contracts/access/Ownable.sol\":2672:2703  OwnableInvalidOwner(address(0)) */\n      mload(0x40)\n      0x1e4fbdf700000000000000000000000000000000000000000000000000000000\n      dup2\n      mstore\n      0x04\n      add\n      tag_306\n      swap2\n      swap1\n      tag_100\n      jump\t// in\n    tag_306:\n      mload(0x40)\n      dup1\n      swap2\n      sub\n      swap1\n      revert\n        /* \"@openzeppelin/contracts/access/Ownable.sol\":2623:2714  if (newOwner == address(0)) {... */\n    tag_305:\n        /* \"@openzeppelin/contracts/access/Ownable.sol\":2723:2751  _transferOwnership(newOwner) */\n      tag_307\n        /* \"@openzeppelin/contracts/access/Ownable.sol\":2742:2750  newOwner */\n      dup2\n        /* \"@openzeppelin/contracts/access/Ownable.sol\":2723:2741  _transferOwnership */\n      tag_216\n        /* \"@openzeppelin/contracts/access/Ownable.sol\":2723:2751  _transferOwnership(newOwner) */\n      jump\t// in\n    tag_307:\n        /* \"@openzeppelin/contracts/access/Ownable.sol\":2543:2758  function transferOwnership(address newOwner) public virtual onlyOwner {... */\n      pop\n      jump\t// out\n        /* \"src/contracts/mini.sol\":2660:2682  IERC20 public usdToken */\n    tag_138:\n      0x03\n      0x00\n      swap1\n      sload\n      swap1\n      0x0100\n      exp\n      swap1\n      div\n      0xffffffffffffffffffffffffffffffffffffffff\n      and\n      dup2\n      jump\t// out\n        /* \"src/contracts/mini.sol\":10903:11337  function healthFactorWad(address user) public view returns (uint256) {... */\n    tag_144:\n        /* \"src/contracts/mini.sol\":10963:10970  uint256 */\n      0x00\n        /* \"src/contracts/mini.sol\":10982:10996  User storage u */\n      0x00\n        /* \"src/contracts/mini.sol\":10999:11004  users */\n      0x02\n        /* \"src/contracts/mini.sol\":10999:11010  users[user] */\n      0x00\n        /* \"src/contracts/mini.sol\":11005:11009  user */\n      dup5\n        /* \"src/contracts/mini.sol\":10999:11010  users[user] */\n      0xffffffffffffffffffffffffffffffffffffffff\n      and\n      0xffffffffffffffffffffffffffffffffffffffff\n      and\n      dup2\n      mstore\n      0x20\n      add\n      swap1\n      dup2\n      mstore\n      0x20\n      add\n      0x00\n      keccak256\n        /* \"src/contracts/mini.sol\":10982:11010  User storage u = users[user] */\n      swap1\n      pop\n        /* \"src/contracts/mini.sol\":11041:11042  0 */\n      0x00\n        /* \"src/contracts/mini.sol\":11024:11025  u */\n      dup2\n        /* \"src/contracts/mini.sol\":11024:11037  u.borrowedUsd */\n      0x01\n      add\n      sload\n        /* \"src/contracts/mini.sol\":11024:11042  u.borrowedUsd == 0 */\n      sub\n        /* \"src/contracts/mini.sol\":11020:11068  if (u.borrowedUsd == 0) return type(uint256).max */\n      tag_309\n      jumpi\n        /* \"src/contracts/mini.sol\":11051:11068  type(uint256).max */\n      0xffffffffffffffffffffffffffffffffffffffffffffffffffffffffffffffff\n        /* \"src/contracts/mini.sol\":11044:11068  return type(uint256).max */\n      swap2\n      pop\n      pop\n      jump(tag_308)\n        /* \"src/contracts/mini.sol\":11020:11068  if (u.borrowedUsd == 0) return type(uint256).max */\n    tag_309:\n        /* \"src/contracts/mini.sol\":11078:11099  uint256 collateralUsd */\n      0x00\n        /* \"src/contracts/mini.sol\":11102:11126  collateralValueUsd(user) */\n      tag_310\n        /* \"src/contracts/mini.sol\":11121:11125  user */\n      dup5\n        /* \"src/contracts/mini.sol\":11102:11120  collateralValueUsd */\n      tag_55\n        /* \"src/contracts/mini.sol\":11102:11126  collateralValueUsd(user) */\n      jump\t// in\n    tag_310:\n        /* \"src/contracts/mini.sol\":11078:11126  uint256 collateralUsd = collateralValueUsd(user) */\n      swap1\n      pop\n        /* \"src/contracts/mini.sol\":2891:2894  100 */\n      0x64\n        /* \"src/contracts/mini.sol\":11298:11299  u */\n      dup3\n        /* \"src/contracts/mini.sol\":11298:11311  u.borrowedUsd */\n      0x01\n      add\n      sload\n        /* \"src/contracts/mini.sol\":11298:11329  u.borrowedUsd * PCT_DENOMINATOR */\n      tag_311\n      swap2\n      swap1\n      tag_160\n      jump\t// in\n    tag_311:\n        /* \"src/contracts/mini.sol\":2839:2843  1e18 */\n      0x0de0b6b3a7640000\n        /* \"src/contracts/mini.sol\":11252:11275  liquidationThresholdPct */\n      sload(0x06)\n        /* \"src/contracts/mini.sol\":11236:11249  collateralUsd */\n      dup4\n        /* \"src/contracts/mini.sol\":11236:11275  collateralUsd * liquidationThresholdPct */\n      tag_312\n      swap2\n      swap1\n      tag_160\n      jump\t// in\n    tag_312:\n        /* \"src/contracts/mini.sol\":11236:11281  collateralUsd * liquidationThresholdPct * WAD */\n      tag_313\n      swap2\n      swap1\n      tag_160\n      jump\t// in\n    tag_313:\n        /* \"src/contracts/mini.sol\":11235:11330  (collateralUsd * liquidationThresholdPct * WAD) /... */\n      tag_314\n      swap2\n      swap1\n      tag_162\n      jump\t// in\n    tag_314:\n        /* \"src/contracts/mini.sol\":11216:11330  return... */\n      swap3\n      pop\n      pop\n      pop\n        /* \"src/contracts/mini.sol\":10903:11337  function healthFactorWad(address user) public view returns (uint256) {... */\n    tag_308:\n      swap2\n      swap1\n      pop\n      jump\t// out\n        /* \"@openzeppelin/contracts/access/Ownable.sol\":1796:1958  function _checkOwner() internal view virtual {... */\n    tag_148:\n        /* \"@openzeppelin/contracts/access/Ownable.sol\":1866:1878  _msgSender() */\n      tag_316\n        /* \"@openzeppelin/contracts/access/Ownable.sol\":1866:1876  _msgSender */\n      tag_317\n        /* \"@openzeppelin/contracts/access/Ownable.sol\":1866:1878  _msgSender() */\n      jump\t// in\n    tag_316:\n        /* \"@openzeppelin/contracts/access/Ownable.sol\":1855:1878  owner() != _msgSender() */\n      0xffffffffffffffffffffffffffffffffffffffff\n      and\n        /* \"@openzeppelin/contracts/access/Ownable.sol\":1855:1862  owner() */\n      tag_318\n        /* \"@openzeppelin/contracts/access/Ownable.sol\":1855:1860  owner */\n      tag_98\n        /* \"@openzeppelin/contracts/access/Ownable.sol\":1855:1862  owner() */\n      jump\t// in\n    tag_318:\n        /* \"@openzeppelin/contracts/access/Ownable.sol\":1855:1878  owner() != _msgSender() */\n      0xffffffffffffffffffffffffffffffffffffffff\n      and\n      eq\n        /* \"@openzeppelin/contracts/access/Ownable.sol\":1851:1952  if (owner() != _msgSender()) {... */\n      tag_319\n      jumpi\n        /* \"@openzeppelin/contracts/access/Ownable.sol\":1928:1940  _msgSender() */\n      tag_320\n        /* \"@openzeppelin/contracts/access/Ownable.sol\":1928:1938  _msgSender */\n      tag_317\n        /* \"@openzeppelin/contracts/access/Ownable.sol\":1928:1940  _msgSender() */\n      jump\t// in\n    tag_320:\n        /* \"@openzeppelin/contracts/access/Ownable.sol\":1901:1941  OwnableUnauthorizedAccount(_msgSender()) */\n      mload(0x40)\n      0x118cdaa700000000000000000000000000000000000000000000000000000000\n      dup2\n      mstore\n      0x04\n      add\n      tag_321\n      swap2\n      swap1\n      tag_100\n      jump\t// in\n    tag_321:\n      mload(0x40)\n      dup1\n      swap2\n      sub\n      swap1\n      revert\n        /* \"@openzeppelin/contracts/access/Ownable.sol\":1851:1952  if (owner() != _msgSender()) {... */\n    tag_319:\n        /* \"@openzeppelin/contracts/access/Ownable.sol\":1796:1958  function _checkOwner() internal view virtual {... */\n      jump\t// out\n        /* \"@openzeppelin/contracts/security/ReentrancyGuard.sol\":2336:2623  function _nonReentrantBefore() private {... */\n    tag_174:\n        /* \"@openzeppelin/contracts/security/ReentrancyGuard.sol\":1759:1760  2 */\n      0x02\n        /* \"@openzeppelin/contracts/security/ReentrancyGuard.sol\":2468:2475  _status */\n      sload(0x00)\n        /* \"@openzeppelin/contracts/security/ReentrancyGuard.sol\":2468:2487  _status != _ENTERED */\n      sub\n        /* \"@openzeppelin/contracts/security/ReentrancyGuard.sol\":2460:2523  require(_status != _ENTERED, \"ReentrancyGuard: reentrant call\") */\n      tag_323\n      jumpi\n      mload(0x40)\n      0x08c379a000000000000000000000000000000000000000000000000000000000\n      dup2\n      mstore\n      0x04\n      add\n      tag_324\n      swap1\n      tag_325\n      jump\t// in\n    tag_324:\n      mload(0x40)\n      dup1\n      swap2\n      sub\n      swap1\n      revert\n    tag_323:\n        /* \"@openzeppelin/contracts/security/ReentrancyGuard.sol\":1759:1760  2 */\n      0x02\n        /* \"@openzeppelin/contracts/security/ReentrancyGuard.sol\":2598:2605  _status */\n      0x00\n        /* \"@openzeppelin/contracts/security/ReentrancyGuard.sol\":2598:2616  _status = _ENTERED */\n      dup2\n      swap1\n      sstore\n      pop\n        /* \"@openzeppelin/contracts/security/ReentrancyGuard.sol\":2336:2623  function _nonReentrantBefore() private {... */\n      jump\t// out\n        /* \"@openzeppelin/contracts/security/ReentrancyGuard.sol\":2629:2838  function _nonReentrantAfter() private {... */\n    tag_190:\n        /* \"@openzeppelin/contracts/security/ReentrancyGuard.sol\":1716:1717  1 */\n      0x01\n        /* \"@openzeppelin/contracts/security/ReentrancyGuard.sol\":2809:2816  _status */\n      0x00\n        /* \"@openzeppelin/contracts/security/ReentrancyGuard.sol\":2809:2831  _status = _NOT_ENTERED */\n      dup2\n      swap1\n      sstore\n      pop\n        /* \"@openzeppelin/contracts/security/ReentrancyGuard.sol\":2629:2838  function _nonReentrantAfter() private {... */\n      jump\t// out\n        /* \"src/contracts/mini.sol\":11509:12372  function _ensureFundsAndTransfer(address to, uint256 amount) internal {... */\n    tag_209:\n        /* \"src/contracts/mini.sol\":11589:11600  uint256 bal */\n      0x00\n        /* \"src/contracts/mini.sol\":11603:11611  usdToken */\n      0x03\n      0x00\n      swap1\n      sload\n      swap1\n      0x0100\n      exp\n      swap1\n      div\n      0xffffffffffffffffffffffffffffffffffffffff\n      and\n        /* \"src/contracts/mini.sol\":11603:11621  usdToken.balanceOf */\n      0xffffffffffffffffffffffffffffffffffffffff\n      and\n      0x70a08231\n        /* \"src/contracts/mini.sol\":11630:11634  this */\n      address\n        /* \"src/contracts/mini.sol\":11603:11636  usdToken.balanceOf(address(this)) */\n      mload(0x40)\n      dup3\n      0xffffffff\n      and\n      0xe0\n      shl\n      dup2\n      mstore\n      0x04\n      add\n      tag_328\n      swap2\n      swap1\n      tag_100\n      jump\t// in\n    tag_328:\n      0x20\n      mload(0x40)\n      dup1\n      dup4\n      sub\n      dup2\n      dup7\n      gas\n      staticcall\n      iszero\n      dup1\n      iszero\n      tag_330\n      jumpi\n      returndatacopy(0x00, 0x00, returndatasize)\n      revert(0x00, returndatasize)\n    tag_330:\n      pop\n      pop\n      pop\n      pop\n      mload(0x40)\n      returndatasize\n      not(0x1f)\n      0x1f\n      dup3\n      add\n      and\n      dup3\n      add\n      dup1\n      0x40\n      mstore\n      pop\n      dup2\n      add\n      swap1\n      tag_331\n      swap2\n      swap1\n      tag_158\n      jump\t// in\n    tag_331:\n        /* \"src/contracts/mini.sol\":11589:11636  uint256 bal = usdToken.balanceOf(address(this)) */\n      swap1\n      pop\n        /* \"src/contracts/mini.sol\":11657:11663  amount */\n      dup2\n        /* \"src/contracts/mini.sol\":11650:11653  bal */\n      dup2\n        /* \"src/contracts/mini.sol\":11650:11663  bal >= amount */\n      lt\n        /* \"src/contracts/mini.sol\":11646:11795  if (bal >= amount) {... */\n      tag_332\n      jumpi\n        /* \"src/contracts/mini.sol\":11679:11686  bool ok */\n      0x00\n        /* \"src/contracts/mini.sol\":11689:11697  usdToken */\n      0x03\n      0x00\n      swap1\n      sload\n      swap1\n      0x0100\n      exp\n      swap1\n      div\n      0xffffffffffffffffffffffffffffffffffffffff\n      and\n        /* \"src/contracts/mini.sol\":11689:11706  usdToken.transfer */\n      0xffffffffffffffffffffffffffffffffffffffff\n      and\n      0xa9059cbb\n        /* \"src/contracts/mini.sol\":11707:11709  to */\n      dup6\n        /* \"src/contracts/mini.sol\":11711:11717  amount */\n      dup6\n        /* \"src/contracts/mini.sol\":11689:11718  usdToken.transfer(to, amount) */\n      mload(0x40)\n      dup4\n      0xffffffff\n      and\n      0xe0\n      shl\n      dup2\n      mstore\n      0x04\n      add\n      tag_333\n      swap3\n      swap2\n      swap1\n      tag_334\n      jump\t// in\n    tag_333:\n      0x20\n      mload(0x40)\n      dup1\n      dup4\n      sub\n      dup2\n      0x00\n      dup8\n      gas\n      call\n      iszero\n      dup1\n      iszero\n      tag_336\n      jumpi\n      returndatacopy(0x00, 0x00, returndatasize)\n      revert(0x00, returndatasize)\n    tag_336:\n      pop\n      pop\n      pop\n      pop\n      mload(0x40)\n      returndatasize\n      not(0x1f)\n      0x1f\n      dup3\n      add\n      and\n      dup3\n      add\n      dup1\n      0x40\n      mstore\n      pop\n      dup2\n      add\n      swap1\n      tag_337\n      swap2\n      swap1\n      tag_185\n      jump\t// in\n    tag_337:\n        /* \"src/contracts/mini.sol\":11679:11718  bool ok = usdToken.transfer(to, amount) */\n      swap1\n      pop\n        /* \"src/contracts/mini.sol\":11737:11739  ok */\n      dup1\n        /* \"src/contracts/mini.sol\":11732:11764  if (!ok) revert TransferFailed() */\n      tag_338\n      jumpi\n        /* \"src/contracts/mini.sol\":11748:11764  TransferFailed() */\n      mload(0x40)\n      0x90b8ec1800000000000000000000000000000000000000000000000000000000\n      dup2\n      mstore\n      0x04\n      add\n      mload(0x40)\n      dup1\n      swap2\n      sub\n      swap1\n      revert\n        /* \"src/contracts/mini.sol\":11732:11764  if (!ok) revert TransferFailed() */\n    tag_338:\n        /* \"src/contracts/mini.sol\":11778:11785  return; */\n      pop\n      pop\n      jump(tag_327)\n        /* \"src/contracts/mini.sol\":11646:11795  if (bal >= amount) {... */\n    tag_332:\n        /* \"src/contracts/mini.sol\":11872:11889  uint256 shortfall */\n      0x00\n        /* \"src/contracts/mini.sol\":11901:11904  bal */\n      dup2\n        /* \"src/contracts/mini.sol\":11892:11898  amount */\n      dup4\n        /* \"src/contracts/mini.sol\":11892:11904  amount - bal */\n      tag_339\n      swap2\n      swap1\n      tag_167\n      jump\t// in\n    tag_339:\n        /* \"src/contracts/mini.sol\":11872:11904  uint256 shortfall = amount - bal */\n      swap1\n      pop\n        /* \"src/contracts/mini.sol\":11924:11925  0 */\n      0x00\n        /* \"src/contracts/mini.sol\":11918:11921  bal */\n      dup3\n        /* \"src/contracts/mini.sol\":11918:11925  bal > 0 */\n      gt\n        /* \"src/contracts/mini.sol\":11914:12036  if (bal > 0) {... */\n      iszero\n      tag_340\n      jumpi\n        /* \"src/contracts/mini.sol\":11941:11949  bool ok1 */\n      0x00\n        /* \"src/contracts/mini.sol\":11952:11960  usdToken */\n      0x03\n      0x00\n      swap1\n      sload\n      swap1\n      0x0100\n      exp\n      swap1\n      div\n      0xffffffffffffffffffffffffffffffffffffffff\n      and\n        /* \"src/contracts/mini.sol\":11952:11969  usdToken.transfer */\n      0xffffffffffffffffffffffffffffffffffffffff\n      and\n      0xa9059cbb\n        /* \"src/contracts/mini.sol\":11970:11972  to */\n      dup7\n        /* \"src/contracts/mini.sol\":11974:11977  bal */\n      dup6\n        /* \"src/contracts/mini.sol\":11952:11978  usdToken.transfer(to, bal) */\n      mload(0x40)\n      dup4\n      0xffffffff\n      and\n      0xe0\n      shl\n      dup2\n      mstore\n      0x04\n      add\n      tag_341\n      swap3\n      swap2\n      swap1\n      tag_334\n      jump\t// in\n    tag_341:\n      0x20\n      mload(0x40)\n      dup1\n      dup4\n      sub\n      dup2\n      0x00\n      dup8\n      gas\n      call\n      iszero\n      dup1\n      iszero\n      tag_343\n      jumpi\n      returndatacopy(0x00, 0x00, returndatasize)\n      revert(0x00, returndatasize)\n    tag_343:\n      pop\n      pop\n      pop\n      pop\n      mload(0x40)\n      returndatasize\n      not(0x1f)\n      0x1f\n      dup3\n      add\n      and\n      dup3\n      add\n      dup1\n      0x40\n      mstore\n      pop\n      dup2\n      add\n      swap1\n      tag_344\n      swap2\n      swap1\n      tag_185\n      jump\t// in\n    tag_344:\n        /* \"src/contracts/mini.sol\":11941:11978  bool ok1 = usdToken.transfer(to, bal) */\n      swap1\n      pop\n        /* \"src/contracts/mini.sol\":11997:12000  ok1 */\n      dup1\n        /* \"src/contracts/mini.sol\":11992:12025  if (!ok1) revert TransferFailed() */\n      tag_345\n      jumpi\n        /* \"src/contracts/mini.sol\":12009:12025  TransferFailed() */\n      mload(0x40)\n      0x90b8ec1800000000000000000000000000000000000000000000000000000000\n      dup2\n      mstore\n      0x04\n      add\n      mload(0x40)\n      dup1\n      swap2\n      sub\n      swap1\n      revert\n        /* \"src/contracts/mini.sol\":11992:12025  if (!ok1) revert TransferFailed() */\n    tag_345:\n        /* \"src/contracts/mini.sol\":11927:12036  {... */\n      pop\n        /* \"src/contracts/mini.sol\":11914:12036  if (bal > 0) {... */\n    tag_340:\n        /* \"src/contracts/mini.sol\":12155:12163  usdToken */\n      0x03\n      0x00\n      swap1\n      sload\n      swap1\n      0x0100\n      exp\n      swap1\n      div\n      0xffffffffffffffffffffffffffffffffffffffff\n      and\n        /* \"src/contracts/mini.sol\":12132:12170  IMintableERC20(address(usdToken)).mint */\n      0xffffffffffffffffffffffffffffffffffffffff\n      and\n      0x40c10f19\n        /* \"src/contracts/mini.sol\":12171:12173  to */\n      dup6\n        /* \"src/contracts/mini.sol\":12175:12184  shortfall */\n      dup4\n        /* \"src/contracts/mini.sol\":12132:12185  IMintableERC20(address(usdToken)).mint(to, shortfall) */\n      mload(0x40)\n      dup4\n      0xffffffff\n      and\n      0xe0\n      shl\n      dup2\n      mstore\n      0x04\n      add\n      tag_346\n      swap3\n      swap2\n      swap1\n      tag_334\n      jump\t// in\n    tag_346:\n      0x20\n      mload(0x40)\n      dup1\n      dup4\n      sub\n      dup2\n      0x00\n      dup8\n      gas\n      call\n      swap3\n      pop\n      pop\n      pop\n      dup1\n      iszero\n      tag_347\n      jumpi\n      pop\n      mload(0x40)\n      returndatasize\n      not(0x1f)\n      0x1f\n      dup3\n      add\n      and\n      dup3\n      add\n      dup1\n      0x40\n      mstore\n      pop\n      dup2\n      add\n      swap1\n      tag_348\n      swap2\n      swap1\n      tag_185\n      jump\t// in\n    tag_348:\n      0x01\n    tag_347:\n        /* \"src/contracts/mini.sol\":12128:12366  try IMintableERC20(address(usdToken)).mint(to, shortfall) returns (... */\n      tag_349\n      jumpi\n        /* \"src/contracts/mini.sol\":12343:12349  amount */\n      dup3\n        /* \"src/contracts/mini.sol\":12351:12354  bal */\n      dup3\n        /* \"src/contracts/mini.sol\":12321:12355  InsufficientPoolFunds(amount, bal) */\n      mload(0x40)\n      0x206adee000000000000000000000000000000000000000000000000000000000\n      dup2\n      mstore\n      0x04\n      add\n      tag_353\n      swap3\n      swap2\n      swap1\n      tag_114\n      jump\t// in\n    tag_353:\n      mload(0x40)\n      dup1\n      swap2\n      sub\n      swap1\n      revert\n        /* \"src/contracts/mini.sol\":12128:12366  try IMintableERC20(address(usdToken)).mint(to, shortfall) returns (... */\n    tag_349:\n        /* \"src/contracts/mini.sol\":12249:12255  minted */\n      dup1\n        /* \"src/contracts/mini.sol\":12244:12282  if (!minted) revert UnsupportedToken() */\n      tag_355\n      jumpi\n        /* \"src/contracts/mini.sol\":12264:12282  UnsupportedToken() */\n      mload(0x40)\n      0x6a17288200000000000000000000000000000000000000000000000000000000\n      dup2\n      mstore\n      0x04\n      add\n      mload(0x40)\n      dup1\n      swap2\n      sub\n      swap1\n      revert\n        /* \"src/contracts/mini.sol\":12244:12282  if (!minted) revert UnsupportedToken() */\n    tag_355:\n        /* \"src/contracts/mini.sol\":12186:12293  returns (... */\n      pop\n        /* \"src/contracts/mini.sol\":11579:12372  {... */\n      pop\n      pop\n        /* \"src/contracts/mini.sol\":11509:12372  function _ensureFundsAndTransfer(address to, uint256 amount) internal {... */\n    tag_327:\n      pop\n      pop\n      jump\t// out\n        /* \"@openzeppelin/contracts/access/Ownable.sol\":2912:3099  function _transferOwnership(address newOwner) internal virtual {... */\n    tag_216:\n        /* \"@openzeppelin/contracts/access/Ownable.sol\":2985:3001  address oldOwner */\n      0x00\n        /* \"@openzeppelin/contracts/access/Ownable.sol\":3004:3010  _owner */\n      0x01\n      0x00\n      swap1\n      sload\n      swap1\n      0x0100\n      exp\n      swap1\n      div\n      0xffffffffffffffffffffffffffffffffffffffff\n      and\n        /* \"@openzeppelin/contracts/access/Ownable.sol\":2985:3010  address oldOwner = _owner */\n      swap1\n      pop\n        /* \"@openzeppelin/contracts/access/Ownable.sol\":3029:3037  newOwner */\n      dup2\n        /* \"@openzeppelin/contracts/access/Ownable.sol\":3020:3026  _owner */\n      0x01\n      0x00\n        /* \"@openzeppelin/contracts/access/Ownable.sol\":3020:3037  _owner = newOwner */\n      0x0100\n      exp\n      dup2\n      sload\n      dup2\n      0xffffffffffffffffffffffffffffffffffffffff\n      mul\n      not\n      and\n      swap1\n      dup4\n      0xffffffffffffffffffffffffffffffffffffffff\n      and\n      mul\n      or\n      swap1\n      sstore\n      pop\n        /* \"@openzeppelin/contracts/access/Ownable.sol\":3083:3091  newOwner */\n      dup2\n        /* \"@openzeppelin/contracts/access/Ownable.sol\":3052:3092  OwnershipTransferred(oldOwner, newOwner) */\n      0xffffffffffffffffffffffffffffffffffffffff\n      and\n        /* \"@openzeppelin/contracts/access/Ownable.sol\":3073:3081  oldOwner */\n      dup2\n        /* \"@openzeppelin/contracts/access/Ownable.sol\":3052:3092  OwnershipTransferred(oldOwner, newOwner) */\n      0xffffffffffffffffffffffffffffffffffffffff\n      and\n      0x8be0079c531659141344cd1fd0a4f28419497f9722a3daafe3b4186f6b6457e0\n      mload(0x40)\n      mload(0x40)\n      dup1\n      swap2\n      sub\n      swap1\n      log3\n        /* \"@openzeppelin/contracts/access/Ownable.sol\":2975:3099  {... */\n      pop\n        /* \"@openzeppelin/contracts/access/Ownable.sol\":2912:3099  function _transferOwnership(address newOwner) internal virtual {... */\n      pop\n      jump\t// out\n        /* \"@openzeppelin/contracts/utils/Context.sol\":656:752  function _msgSender() internal view virtual returns (address) {... */\n    tag_317:\n        /* \"@openzeppelin/contracts/utils/Context.sol\":709:716  address */\n      0x00\n        /* \"@openzeppelin/contracts/utils/Context.sol\":735:745  msg.sender */\n      caller\n        /* \"@openzeppelin/contracts/utils/Context.sol\":728:745  return msg.sender */\n      swap1\n      pop\n        /* \"@openzeppelin/contracts/utils/Context.sol\":656:752  function _msgSender() internal view virtual returns (address) {... */\n      swap1\n      jump\t// out\n        /* \"#utility.yul\":7:84   */\n    tag_358:\n        /* \"#utility.yul\":44:51   */\n      0x00\n        /* \"#utility.yul\":73:78   */\n      dup2\n        /* \"#utility.yul\":62:78   */\n      swap1\n      pop\n        /* \"#utility.yul\":7:84   */\n      swap2\n      swap1\n      pop\n      jump\t// out\n        /* \"#utility.yul\":90:208   */\n    tag_359:\n        /* \"#utility.yul\":177:201   */\n      tag_399\n        /* \"#utility.yul\":195:200   */\n      dup2\n        /* \"#utility.yul\":177:201   */\n      tag_358\n      jump\t// in\n    tag_399:\n        /* \"#utility.yul\":172:175   */\n      dup3\n        /* \"#utility.yul\":165:202   */\n      mstore\n        /* \"#utility.yul\":90:208   */\n      pop\n      pop\n      jump\t// out\n        /* \"#utility.yul\":214:436   */\n    tag_40:\n        /* \"#utility.yul\":307:311   */\n      0x00\n        /* \"#utility.yul\":345:347   */\n      0x20\n        /* \"#utility.yul\":334:343   */\n      dup3\n        /* \"#utility.yul\":330:348   */\n      add\n        /* \"#utility.yul\":322:348   */\n      swap1\n      pop\n        /* \"#utility.yul\":358:429   */\n      tag_401\n        /* \"#utility.yul\":426:427   */\n      0x00\n        /* \"#utility.yul\":415:424   */\n      dup4\n        /* \"#utility.yul\":411:428   */\n      add\n        /* \"#utility.yul\":402:408   */\n      dup5\n        /* \"#utility.yul\":358:429   */\n      tag_359\n      jump\t// in\n    tag_401:\n        /* \"#utility.yul\":214:436   */\n      swap3\n      swap2\n      pop\n      pop\n      jump\t// out\n        /* \"#utility.yul\":442:568   */\n    tag_360:\n        /* \"#utility.yul\":479:486   */\n      0x00\n        /* \"#utility.yul\":519:561   */\n      0xffffffffffffffffffffffffffffffffffffffff\n        /* \"#utility.yul\":512:517   */\n      dup3\n        /* \"#utility.yul\":508:562   */\n      and\n        /* \"#utility.yul\":497:562   */\n      swap1\n      pop\n        /* \"#utility.yul\":442:568   */\n      swap2\n      swap1\n      pop\n      jump\t// out\n        /* \"#utility.yul\":574:634   */\n    tag_361:\n        /* \"#utility.yul\":602:605   */\n      0x00\n        /* \"#utility.yul\":623:628   */\n      dup2\n        /* \"#utility.yul\":616:628   */\n      swap1\n      pop\n        /* \"#utility.yul\":574:634   */\n      swap2\n      swap1\n      pop\n      jump\t// out\n        /* \"#utility.yul\":640:782   */\n    tag_362:\n        /* \"#utility.yul\":690:699   */\n      0x00\n        /* \"#utility.yul\":723:776   */\n      tag_405\n        /* \"#utility.yul\":741:775   */\n      tag_406\n        /* \"#utility.yul\":750:774   */\n      tag_407\n        /* \"#utility.yul\":768:773   */\n      dup5\n        /* \"#utility.yul\":750:774   */\n      tag_360\n      jump\t// in\n    tag_407:\n        /* \"#utility.yul\":741:775   */\n      tag_361\n      jump\t// in\n    tag_406:\n        /* \"#utility.yul\":723:776   */\n      tag_360\n      jump\t// in\n    tag_405:\n        /* \"#utility.yul\":710:776   */\n      swap1\n      pop\n        /* \"#utility.yul\":640:782   */\n      swap2\n      swap1\n      pop\n      jump\t// out\n        /* \"#utility.yul\":788:914   */\n    tag_363:\n        /* \"#utility.yul\":838:847   */\n      0x00\n        /* \"#utility.yul\":871:908   */\n      tag_409\n        /* \"#utility.yul\":902:907   */\n      dup3\n        /* \"#utility.yul\":871:908   */\n      tag_362\n      jump\t// in\n    tag_409:\n        /* \"#utility.yul\":858:908   */\n      swap1\n      pop\n        /* \"#utility.yul\":788:914   */\n      swap2\n      swap1\n      pop\n      jump\t// out\n        /* \"#utility.yul\":920:1066   */\n    tag_364:\n        /* \"#utility.yul\":990:999   */\n      0x00\n        /* \"#utility.yul\":1023:1060   */\n      tag_411\n        /* \"#utility.yul\":1054:1059   */\n      dup3\n        /* \"#utility.yul\":1023:1060   */\n      tag_363\n      jump\t// in\n    tag_411:\n        /* \"#utility.yul\":1010:1060   */\n      swap1\n      pop\n        /* \"#utility.yul\":920:1066   */\n      swap2\n      swap1\n      pop\n      jump\t// out\n        /* \"#utility.yul\":1072:1243   */\n    tag_365:\n        /* \"#utility.yul\":1179:1236   */\n      tag_413\n        /* \"#utility.yul\":1230:1235   */\n      dup2\n        /* \"#utility.yul\":1179:1236   */\n      tag_364\n      jump\t// in\n    tag_413:\n        /* \"#utility.yul\":1174:1177   */\n      dup3\n        /* \"#utility.yul\":1167:1237   */\n      mstore\n        /* \"#utility.yul\":1072:1243   */\n      pop\n      pop\n      jump\t// out\n        /* \"#utility.yul\":1249:1511   */\n    tag_45:\n        /* \"#utility.yul\":1362:1366   */\n      0x00\n        /* \"#utility.yul\":1400:1402   */\n      0x20\n        /* \"#utility.yul\":1389:1398   */\n      dup3\n        /* \"#utility.yul\":1385:1403   */\n      add\n        /* \"#utility.yul\":1377:1403   */\n      swap1\n      pop\n        /* \"#utility.yul\":1413:1504   */\n      tag_415\n        /* \"#utility.yul\":1501:1502   */\n      0x00\n        /* \"#utility.yul\":1490:1499   */\n      dup4\n        /* \"#utility.yul\":1486:1503   */\n      add\n        /* \"#utility.yul\":1477:1483   */\n      dup5\n        /* \"#utility.yul\":1413:1504   */\n      tag_365\n      jump\t// in\n    tag_415:\n        /* \"#utility.yul\":1249:1511   */\n      swap3\n      swap2\n      pop\n      pop\n      jump\t// out\n        /* \"#utility.yul\":1598:1715   */\n    tag_367:\n        /* \"#utility.yul\":1707:1708   */\n      0x00\n        /* \"#utility.yul\":1704:1705   */\n      0x00\n        /* \"#utility.yul\":1697:1709   */\n      revert\n        /* \"#utility.yul\":1844:1966   */\n    tag_369:\n        /* \"#utility.yul\":1917:1941   */\n      tag_420\n        /* \"#utility.yul\":1935:1940   */\n      dup2\n        /* \"#utility.yul\":1917:1941   */\n      tag_358\n      jump\t// in\n    tag_420:\n        /* \"#utility.yul\":1910:1915   */\n      dup2\n        /* \"#utility.yul\":1907:1942   */\n      eq\n        /* \"#utility.yul\":1897:1960   */\n      tag_421\n      jumpi\n        /* \"#utility.yul\":1956:1957   */\n      0x00\n        /* \"#utility.yul\":1953:1954   */\n      0x00\n        /* \"#utility.yul\":1946:1958   */\n      revert\n        /* \"#utility.yul\":1897:1960   */\n    tag_421:\n        /* \"#utility.yul\":1844:1966   */\n      pop\n      jump\t// out\n        /* \"#utility.yul\":1972:2111   */\n    tag_370:\n        /* \"#utility.yul\":2018:2023   */\n      0x00\n        /* \"#utility.yul\":2056:2062   */\n      dup2\n        /* \"#utility.yul\":2043:2063   */\n      calldataload\n        /* \"#utility.yul\":2034:2063   */\n      swap1\n      pop\n        /* \"#utility.yul\":2072:2105   */\n      tag_423\n        /* \"#utility.yul\":2099:2104   */\n      dup2\n        /* \"#utility.yul\":2072:2105   */\n      tag_369\n      jump\t// in\n    tag_423:\n        /* \"#utility.yul\":1972:2111   */\n      swap3\n      swap2\n      pop\n      pop\n      jump\t// out\n        /* \"#utility.yul\":2117:2446   */\n    tag_49:\n        /* \"#utility.yul\":2176:2182   */\n      0x00\n        /* \"#utility.yul\":2225:2227   */\n      0x20\n        /* \"#utility.yul\":2213:2222   */\n      dup3\n        /* \"#utility.yul\":2204:2211   */\n      dup5\n        /* \"#utility.yul\":2200:2223   */\n      sub\n        /* \"#utility.yul\":2196:2228   */\n      slt\n        /* \"#utility.yul\":2193:2312   */\n      iszero\n      tag_425\n      jumpi\n        /* \"#utility.yul\":2231:2310   */\n      tag_426\n      tag_367\n      jump\t// in\n    tag_426:\n        /* \"#utility.yul\":2193:2312   */\n    tag_425:\n        /* \"#utility.yul\":2351:2352   */\n      0x00\n        /* \"#utility.yul\":2376:2429   */\n      tag_427\n        /* \"#utility.yul\":2421:2428   */\n      dup5\n        /* \"#utility.yul\":2412:2418   */\n      dup3\n        /* \"#utility.yul\":2401:2410   */\n      dup6\n        /* \"#utility.yul\":2397:2419   */\n      add\n        /* \"#utility.yul\":2376:2429   */\n      tag_370\n      jump\t// in\n    tag_427:\n        /* \"#utility.yul\":2366:2429   */\n      swap2\n      pop\n        /* \"#utility.yul\":2322:2439   */\n      pop\n        /* \"#utility.yul\":2117:2446   */\n      swap3\n      swap2\n      pop\n      pop\n      jump\t// out\n        /* \"#utility.yul\":2452:2548   */\n    tag_371:\n        /* \"#utility.yul\":2489:2496   */\n      0x00\n        /* \"#utility.yul\":2518:2542   */\n      tag_429\n        /* \"#utility.yul\":2536:2541   */\n      dup3\n        /* \"#utility.yul\":2518:2542   */\n      tag_360\n      jump\t// in\n    tag_429:\n        /* \"#utility.yul\":2507:2542   */\n      swap1\n      pop\n        /* \"#utility.yul\":2452:2548   */\n      swap2\n      swap1\n      pop\n      jump\t// out\n        /* \"#utility.yul\":2554:2676   */\n    tag_372:\n        /* \"#utility.yul\":2627:2651   */\n      tag_431\n        /* \"#utility.yul\":2645:2650   */\n      dup2\n        /* \"#utility.yul\":2627:2651   */\n      tag_371\n      jump\t// in\n    tag_431:\n        /* \"#utility.yul\":2620:2625   */\n      dup2\n        /* \"#utility.yul\":2617:2652   */\n      eq\n        /* \"#utility.yul\":2607:2670   */\n      tag_432\n      jumpi\n        /* \"#utility.yul\":2666:2667   */\n      0x00\n        /* \"#utility.yul\":2663:2664   */\n      0x00\n        /* \"#utility.yul\":2656:2668   */\n      revert\n        /* \"#utility.yul\":2607:2670   */\n    tag_432:\n        /* \"#utility.yul\":2554:2676   */\n      pop\n      jump\t// out\n        /* \"#utility.yul\":2682:2821   */\n    tag_373:\n        /* \"#utility.yul\":2728:2733   */\n      0x00\n        /* \"#utility.yul\":2766:2772   */\n      dup2\n        /* \"#utility.yul\":2753:2773   */\n      calldataload\n        /* \"#utility.yul\":2744:2773   */\n      swap1\n      pop\n        /* \"#utility.yul\":2782:2815   */\n      tag_434\n        /* \"#utility.yul\":2809:2814   */\n      dup2\n        /* \"#utility.yul\":2782:2815   */\n      tag_372\n      jump\t// in\n    tag_434:\n        /* \"#utility.yul\":2682:2821   */\n      swap3\n      swap2\n      pop\n      pop\n      jump\t// out\n        /* \"#utility.yul\":2827:3156   */\n    tag_54:\n        /* \"#utility.yul\":2886:2892   */\n      0x00\n        /* \"#utility.yul\":2935:2937   */\n      0x20\n        /* \"#utility.yul\":2923:2932   */\n      dup3\n        /* \"#utility.yul\":2914:2921   */\n      dup5\n        /* \"#utility.yul\":2910:2933   */\n      sub\n        /* \"#utility.yul\":2906:2938   */\n      slt\n        /* \"#utility.yul\":2903:3022   */\n      iszero\n      tag_436\n      jumpi\n        /* \"#utility.yul\":2941:3020   */\n      tag_437\n      tag_367\n      jump\t// in\n    tag_437:\n        /* \"#utility.yul\":2903:3022   */\n    tag_436:\n        /* \"#utility.yul\":3061:3062   */\n      0x00\n        /* \"#utility.yul\":3086:3139   */\n      tag_438\n        /* \"#utility.yul\":3131:3138   */\n      dup5\n        /* \"#utility.yul\":3122:3128   */\n      dup3\n        /* \"#utility.yul\":3111:3120   */\n      dup6\n        /* \"#utility.yul\":3107:3129   */\n      add\n        /* \"#utility.yul\":3086:3139   */\n      tag_373\n      jump\t// in\n    tag_438:\n        /* \"#utility.yul\":3076:3139   */\n      swap2\n      pop\n        /* \"#utility.yul\":3032:3149   */\n      pop\n        /* \"#utility.yul\":2827:3156   */\n      swap3\n      swap2\n      pop\n      pop\n      jump\t// out\n        /* \"#utility.yul\":3162:3280   */\n    tag_374:\n        /* \"#utility.yul\":3249:3273   */\n      tag_440\n        /* \"#utility.yul\":3267:3272   */\n      dup2\n        /* \"#utility.yul\":3249:3273   */\n      tag_371\n      jump\t// in\n    tag_440:\n        /* \"#utility.yul\":3244:3247   */\n      dup3\n        /* \"#utility.yul\":3237:3274   */\n      mstore\n        /* \"#utility.yul\":3162:3280   */\n      pop\n      pop\n      jump\t// out\n        /* \"#utility.yul\":3286:3508   */\n    tag_100:\n        /* \"#utility.yul\":3379:3383   */\n      0x00\n        /* \"#utility.yul\":3417:3419   */\n      0x20\n        /* \"#utility.yul\":3406:3415   */\n      dup3\n        /* \"#utility.yul\":3402:3420   */\n      add\n        /* \"#utility.yul\":3394:3420   */\n      swap1\n      pop\n        /* \"#utility.yul\":3430:3501   */\n      tag_442\n        /* \"#utility.yul\":3498:3499   */\n      0x00\n        /* \"#utility.yul\":3487:3496   */\n      dup4\n        /* \"#utility.yul\":3483:3500   */\n      add\n        /* \"#utility.yul\":3474:3480   */\n      dup5\n        /* \"#utility.yul\":3430:3501   */\n      tag_374\n      jump\t// in\n    tag_442:\n        /* \"#utility.yul\":3286:3508   */\n      swap3\n      swap2\n      pop\n      pop\n      jump\t// out\n        /* \"#utility.yul\":3514:3846   */\n    tag_114:\n        /* \"#utility.yul\":3635:3639   */\n      0x00\n        /* \"#utility.yul\":3673:3675   */\n      0x40\n        /* \"#utility.yul\":3662:3671   */\n      dup3\n        /* \"#utility.yul\":3658:3676   */\n      add\n        /* \"#utility.yul\":3650:3676   */\n      swap1\n      pop\n        /* \"#utility.yul\":3686:3757   */\n      tag_444\n        /* \"#utility.yul\":3754:3755   */\n      0x00\n        /* \"#utility.yul\":3743:3752   */\n      dup4\n        /* \"#utility.yul\":3739:3756   */\n      add\n        /* \"#utility.yul\":3730:3736   */\n      dup6\n        /* \"#utility.yul\":3686:3757   */\n      tag_359\n      jump\t// in\n    tag_444:\n        /* \"#utility.yul\":3767:3839   */\n      tag_445\n        /* \"#utility.yul\":3835:3837   */\n      0x20\n        /* \"#utility.yul\":3824:3833   */\n      dup4\n        /* \"#utility.yul\":3820:3838   */\n      add\n        /* \"#utility.yul\":3811:3817   */\n      dup5\n        /* \"#utility.yul\":3767:3839   */\n      tag_359\n      jump\t// in\n    tag_445:\n        /* \"#utility.yul\":3514:3846   */\n      swap4\n      swap3\n      pop\n      pop\n      pop\n      jump\t// out\n        /* \"#utility.yul\":3852:4326   */\n    tag_118:\n        /* \"#utility.yul\":3920:3926   */\n      0x00\n        /* \"#utility.yul\":3928:3934   */\n      0x00\n        /* \"#utility.yul\":3977:3979   */\n      0x40\n        /* \"#utility.yul\":3965:3974   */\n      dup4\n        /* \"#utility.yul\":3956:3963   */\n      dup6\n        /* \"#utility.yul\":3952:3975   */\n      sub\n        /* \"#utility.yul\":3948:3980   */\n      slt\n        /* \"#utility.yul\":3945:4064   */\n      iszero\n      tag_447\n      jumpi\n        /* \"#utility.yul\":3983:4062   */\n      tag_448\n      tag_367\n      jump\t// in\n    tag_448:\n        /* \"#utility.yul\":3945:4064   */\n    tag_447:\n        /* \"#utility.yul\":4103:4104   */\n      0x00\n        /* \"#utility.yul\":4128:4181   */\n      tag_449\n        /* \"#utility.yul\":4173:4180   */\n      dup6\n        /* \"#utility.yul\":4164:4170   */\n      dup3\n        /* \"#utility.yul\":4153:4162   */\n      dup7\n        /* \"#utility.yul\":4149:4171   */\n      add\n        /* \"#utility.yul\":4128:4181   */\n      tag_373\n      jump\t// in\n    tag_449:\n        /* \"#utility.yul\":4118:4181   */\n      swap3\n      pop\n        /* \"#utility.yul\":4074:4191   */\n      pop\n        /* \"#utility.yul\":4230:4232   */\n      0x20\n        /* \"#utility.yul\":4256:4309   */\n      tag_450\n        /* \"#utility.yul\":4301:4308   */\n      dup6\n        /* \"#utility.yul\":4292:4298   */\n      dup3\n        /* \"#utility.yul\":4281:4290   */\n      dup7\n        /* \"#utility.yul\":4277:4299   */\n      add\n        /* \"#utility.yul\":4256:4309   */\n      tag_370\n      jump\t// in\n    tag_450:\n        /* \"#utility.yul\":4246:4309   */\n      swap2\n      pop\n        /* \"#utility.yul\":4201:4319   */\n      pop\n        /* \"#utility.yul\":3852:4326   */\n      swap3\n      pop\n      swap3\n      swap1\n      pop\n      jump\t// out\n        /* \"#utility.yul\":4332:4472   */\n    tag_375:\n        /* \"#utility.yul\":4396:4405   */\n      0x00\n        /* \"#utility.yul\":4429:4466   */\n      tag_452\n        /* \"#utility.yul\":4460:4465   */\n      dup3\n        /* \"#utility.yul\":4429:4466   */\n      tag_363\n      jump\t// in\n    tag_452:\n        /* \"#utility.yul\":4416:4466   */\n      swap1\n      pop\n        /* \"#utility.yul\":4332:4472   */\n      swap2\n      swap1\n      pop\n      jump\t// out\n        /* \"#utility.yul\":4478:4637   */\n    tag_376:\n        /* \"#utility.yul\":4579:4630   */\n      tag_454\n        /* \"#utility.yul\":4624:4629   */\n      dup2\n        /* \"#utility.yul\":4579:4630   */\n      tag_375\n      jump\t// in\n    tag_454:\n        /* \"#utility.yul\":4574:4577   */\n      dup3\n        /* \"#utility.yul\":4567:4631   */\n      mstore\n        /* \"#utility.yul\":4478:4637   */\n      pop\n      pop\n      jump\t// out\n        /* \"#utility.yul\":4643:4893   */\n    tag_140:\n        /* \"#utility.yul\":4750:4754   */\n      0x00\n        /* \"#utility.yul\":4788:4790   */\n      0x20\n        /* \"#utility.yul\":4777:4786   */\n      dup3\n        /* \"#utility.yul\":4773:4791   */\n      add\n        /* \"#utility.yul\":4765:4791   */\n      swap1\n      pop\n        /* \"#utility.yul\":4801:4886   */\n      tag_456\n        /* \"#utility.yul\":4883:4884   */\n      0x00\n        /* \"#utility.yul\":4872:4881   */\n      dup4\n        /* \"#utility.yul\":4868:4885   */\n      add\n        /* \"#utility.yul\":4859:4865   */\n      dup5\n        /* \"#utility.yul\":4801:4886   */\n      tag_376\n      jump\t// in\n    tag_456:\n        /* \"#utility.yul\":4643:4893   */\n      swap3\n      swap2\n      pop\n      pop\n      jump\t// out\n        /* \"#utility.yul\":4899:5068   */\n    tag_377:\n        /* \"#utility.yul\":4983:4994   */\n      0x00\n        /* \"#utility.yul\":5017:5023   */\n      dup3\n        /* \"#utility.yul\":5012:5015   */\n      dup3\n        /* \"#utility.yul\":5005:5024   */\n      mstore\n        /* \"#utility.yul\":5057:5061   */\n      0x20\n        /* \"#utility.yul\":5052:5055   */\n      dup3\n        /* \"#utility.yul\":5048:5062   */\n      add\n        /* \"#utility.yul\":5033:5062   */\n      swap1\n      pop\n        /* \"#utility.yul\":4899:5068   */\n      swap3\n      swap2\n      pop\n      pop\n      jump\t// out\n        /* \"#utility.yul\":5074:5231   */\n    tag_378:\n        /* \"#utility.yul\":5214:5223   */\n      0x6261642062707300000000000000000000000000000000000000000000000000\n        /* \"#utility.yul\":5210:5211   */\n      0x00\n        /* \"#utility.yul\":5202:5208   */\n      dup3\n        /* \"#utility.yul\":5198:5212   */\n      add\n        /* \"#utility.yul\":5191:5224   */\n      mstore\n        /* \"#utility.yul\":5074:5231   */\n      pop\n      jump\t// out\n        /* \"#utility.yul\":5237:5602   */\n    tag_379:\n        /* \"#utility.yul\":5379:5382   */\n      0x00\n        /* \"#utility.yul\":5400:5466   */\n      tag_460\n        /* \"#utility.yul\":5464:5465   */\n      0x07\n        /* \"#utility.yul\":5459:5462   */\n      dup4\n        /* \"#utility.yul\":5400:5466   */\n      tag_377\n      jump\t// in\n    tag_460:\n        /* \"#utility.yul\":5393:5466   */\n      swap2\n      pop\n        /* \"#utility.yul\":5475:5568   */\n      tag_461\n        /* \"#utility.yul\":5564:5567   */\n      dup3\n        /* \"#utility.yul\":5475:5568   */\n      tag_378\n      jump\t// in\n    tag_461:\n        /* \"#utility.yul\":5593:5595   */\n      0x20\n        /* \"#utility.yul\":5588:5591   */\n      dup3\n        /* \"#utility.yul\":5584:5596   */\n      add\n        /* \"#utility.yul\":5577:5596   */\n      swap1\n      pop\n        /* \"#utility.yul\":5237:5602   */\n      swap2\n      swap1\n      pop\n      jump\t// out\n        /* \"#utility.yul\":5608:6027   */\n    tag_152:\n        /* \"#utility.yul\":5774:5778   */\n      0x00\n        /* \"#utility.yul\":5812:5814   */\n      0x20\n        /* \"#utility.yul\":5801:5810   */\n      dup3\n        /* \"#utility.yul\":5797:5815   */\n      add\n        /* \"#utility.yul\":5789:5815   */\n      swap1\n      pop\n        /* \"#utility.yul\":5861:5870   */\n      dup2\n        /* \"#utility.yul\":5855:5859   */\n      dup2\n        /* \"#utility.yul\":5851:5871   */\n      sub\n        /* \"#utility.yul\":5847:5848   */\n      0x00\n        /* \"#utility.yul\":5836:5845   */\n      dup4\n        /* \"#utility.yul\":5832:5849   */\n      add\n        /* \"#utility.yul\":5825:5872   */\n      mstore\n        /* \"#utility.yul\":5889:6020   */\n      tag_463\n        /* \"#utility.yul\":6015:6019   */\n      dup2\n        /* \"#utility.yul\":5889:6020   */\n      tag_379\n      jump\t// in\n    tag_463:\n        /* \"#utility.yul\":5881:6020   */\n      swap1\n      pop\n        /* \"#utility.yul\":5608:6027   */\n      swap2\n      swap1\n      pop\n      jump\t// out\n        /* \"#utility.yul\":6033:6176   */\n    tag_380:\n        /* \"#utility.yul\":6090:6095   */\n      0x00\n        /* \"#utility.yul\":6121:6127   */\n      dup2\n        /* \"#utility.yul\":6115:6128   */\n      mload\n        /* \"#utility.yul\":6106:6128   */\n      swap1\n      pop\n        /* \"#utility.yul\":6137:6170   */\n      tag_465\n        /* \"#utility.yul\":6164:6169   */\n      dup2\n        /* \"#utility.yul\":6137:6170   */\n      tag_369\n      jump\t// in\n    tag_465:\n        /* \"#utility.yul\":6033:6176   */\n      swap3\n      swap2\n      pop\n      pop\n      jump\t// out\n        /* \"#utility.yul\":6182:6533   */\n    tag_158:\n        /* \"#utility.yul\":6252:6258   */\n      0x00\n        /* \"#utility.yul\":6301:6303   */\n      0x20\n        /* \"#utility.yul\":6289:6298   */\n      dup3\n        /* \"#utility.yul\":6280:6287   */\n      dup5\n        /* \"#utility.yul\":6276:6299   */\n      sub\n        /* \"#utility.yul\":6272:6304   */\n      slt\n        /* \"#utility.yul\":6269:6388   */\n      iszero\n      tag_467\n      jumpi\n        /* \"#utility.yul\":6307:6386   */\n      tag_468\n      tag_367\n      jump\t// in\n    tag_468:\n        /* \"#utility.yul\":6269:6388   */\n    tag_467:\n        /* \"#utility.yul\":6427:6428   */\n      0x00\n        /* \"#utility.yul\":6452:6516   */\n      tag_469\n        /* \"#utility.yul\":6508:6515   */\n      dup5\n        /* \"#utility.yul\":6499:6505   */\n      dup3\n        /* \"#utility.yul\":6488:6497   */\n      dup6\n        /* \"#utility.yul\":6484:6506   */\n      add\n        /* \"#utility.yul\":6452:6516   */\n      tag_380\n      jump\t// in\n    tag_469:\n        /* \"#utility.yul\":6442:6516   */\n      swap2\n      pop\n        /* \"#utility.yul\":6398:6526   */\n      pop\n        /* \"#utility.yul\":6182:6533   */\n      swap3\n      swap2\n      pop\n      pop\n      jump\t// out\n        /* \"#utility.yul\":6539:6719   */\n    tag_381:\n        /* \"#utility.yul\":6587:6664   */\n      0x4e487b7100000000000000000000000000000000000000000000000000000000\n        /* \"#utility.yul\":6584:6585   */\n      0x00\n        /* \"#utility.yul\":6577:6665   */\n      mstore\n        /* \"#utility.yul\":6684:6688   */\n      0x11\n        /* \"#utility.yul\":6681:6682   */\n      0x04\n        /* \"#utility.yul\":6674:6689   */\n      mstore\n        /* \"#utility.yul\":6708:6712   */\n      0x24\n        /* \"#utility.yul\":6705:6706   */\n      0x00\n        /* \"#utility.yul\":6698:6713   */\n      revert\n        /* \"#utility.yul\":6725:7135   */\n    tag_160:\n        /* \"#utility.yul\":6765:6772   */\n      0x00\n        /* \"#utility.yul\":6788:6808   */\n      tag_472\n        /* \"#utility.yul\":6806:6807   */\n      dup3\n        /* \"#utility.yul\":6788:6808   */\n      tag_358\n      jump\t// in\n    tag_472:\n        /* \"#utility.yul\":6783:6808   */\n      swap2\n      pop\n        /* \"#utility.yul\":6822:6842   */\n      tag_473\n        /* \"#utility.yul\":6840:6841   */\n      dup4\n        /* \"#utility.yul\":6822:6842   */\n      tag_358\n      jump\t// in\n    tag_473:\n        /* \"#utility.yul\":6817:6842   */\n      swap3\n      pop\n        /* \"#utility.yul\":6877:6878   */\n      dup3\n        /* \"#utility.yul\":6874:6875   */\n      dup3\n        /* \"#utility.yul\":6870:6879   */\n      mul\n        /* \"#utility.yul\":6899:6929   */\n      tag_474\n        /* \"#utility.yul\":6917:6928   */\n      dup2\n        /* \"#utility.yul\":6899:6929   */\n      tag_358\n      jump\t// in\n    tag_474:\n        /* \"#utility.yul\":6888:6929   */\n      swap2\n      pop\n        /* \"#utility.yul\":7078:7079   */\n      dup3\n        /* \"#utility.yul\":7069:7076   */\n      dup3\n        /* \"#utility.yul\":7065:7080   */\n      div\n        /* \"#utility.yul\":7062:7063   */\n      dup5\n        /* \"#utility.yul\":7059:7081   */\n      eq\n        /* \"#utility.yul\":7039:7040   */\n      dup4\n        /* \"#utility.yul\":7032:7041   */\n      iszero\n        /* \"#utility.yul\":7012:7095   */\n      or\n        /* \"#utility.yul\":6989:7128   */\n      tag_475\n      jumpi\n        /* \"#utility.yul\":7108:7126   */\n      tag_476\n      tag_381\n      jump\t// in\n    tag_476:\n        /* \"#utility.yul\":6989:7128   */\n    tag_475:\n        /* \"#utility.yul\":6773:7135   */\n      pop\n        /* \"#utility.yul\":6725:7135   */\n      swap3\n      swap2\n      pop\n      pop\n      jump\t// out\n        /* \"#utility.yul\":7141:7321   */\n    tag_382:\n        /* \"#utility.yul\":7189:7266   */\n      0x4e487b7100000000000000000000000000000000000000000000000000000000\n        /* \"#utility.yul\":7186:7187   */\n      0x00\n        /* \"#utility.yul\":7179:7267   */\n      mstore\n        /* \"#utility.yul\":7286:7290   */\n      0x12\n        /* \"#utility.yul\":7283:7284   */\n      0x04\n        /* \"#utility.yul\":7276:7291   */\n      mstore\n        /* \"#utility.yul\":7310:7314   */\n      0x24\n        /* \"#utility.yul\":7307:7308   */\n      0x00\n        /* \"#utility.yul\":7300:7315   */\n      revert\n        /* \"#utility.yul\":7327:7512   */\n    tag_162:\n        /* \"#utility.yul\":7367:7368   */\n      0x00\n        /* \"#utility.yul\":7384:7404   */\n      tag_479\n        /* \"#utility.yul\":7402:7403   */\n      dup3\n        /* \"#utility.yul\":7384:7404   */\n      tag_358\n      jump\t// in\n    tag_479:\n        /* \"#utility.yul\":7379:7404   */\n      swap2\n      pop\n        /* \"#utility.yul\":7418:7438   */\n      tag_480\n        /* \"#utility.yul\":7436:7437   */\n      dup4\n        /* \"#utility.yul\":7418:7438   */\n      tag_358\n      jump\t// in\n    tag_480:\n        /* \"#utility.yul\":7413:7438   */\n      swap3\n      pop\n        /* \"#utility.yul\":7457:7458   */\n      dup3\n        /* \"#utility.yul\":7447:7482   */\n      tag_481\n      jumpi\n        /* \"#utility.yul\":7462:7480   */\n      tag_482\n      tag_382\n      jump\t// in\n    tag_482:\n        /* \"#utility.yul\":7447:7482   */\n    tag_481:\n        /* \"#utility.yul\":7504:7505   */\n      dup3\n        /* \"#utility.yul\":7501:7502   */\n      dup3\n        /* \"#utility.yul\":7497:7506   */\n      div\n        /* \"#utility.yul\":7492:7506   */\n      swap1\n      pop\n        /* \"#utility.yul\":7327:7512   */\n      swap3\n      swap2\n      pop\n      pop\n      jump\t// out\n        /* \"#utility.yul\":7518:7712   */\n    tag_167:\n        /* \"#utility.yul\":7558:7562   */\n      0x00\n        /* \"#utility.yul\":7578:7598   */\n      tag_484\n        /* \"#utility.yul\":7596:7597   */\n      dup3\n        /* \"#utility.yul\":7578:7598   */\n      tag_358\n      jump\t// in\n    tag_484:\n        /* \"#utility.yul\":7573:7598   */\n      swap2\n      pop\n        /* \"#utility.yul\":7612:7632   */\n      tag_485\n        /* \"#utility.yul\":7630:7631   */\n      dup4\n        /* \"#utility.yul\":7612:7632   */\n      tag_358\n      jump\t// in\n    tag_485:\n        /* \"#utility.yul\":7607:7632   */\n      swap3\n      pop\n        /* \"#utility.yul\":7656:7657   */\n      dup3\n        /* \"#utility.yul\":7653:7654   */\n      dup3\n        /* \"#utility.yul\":7649:7658   */\n      sub\n        /* \"#utility.yul\":7641:7658   */\n      swap1\n      pop\n        /* \"#utility.yul\":7680:7681   */\n      dup2\n        /* \"#utility.yul\":7674:7678   */\n      dup2\n        /* \"#utility.yul\":7671:7682   */\n      gt\n        /* \"#utility.yul\":7668:7705   */\n      iszero\n      tag_486\n      jumpi\n        /* \"#utility.yul\":7685:7703   */\n      tag_487\n      tag_381\n      jump\t// in\n    tag_487:\n        /* \"#utility.yul\":7668:7705   */\n    tag_486:\n        /* \"#utility.yul\":7518:7712   */\n      swap3\n      swap2\n      pop\n      pop\n      jump\t// out\n        /* \"#utility.yul\":7718:8160   */\n    tag_181:\n        /* \"#utility.yul\":7867:7871   */\n      0x00\n        /* \"#utility.yul\":7905:7907   */\n      0x60\n        /* \"#utility.yul\":7894:7903   */\n      dup3\n        /* \"#utility.yul\":7890:7908   */\n      add\n        /* \"#utility.yul\":7882:7908   */\n      swap1\n      pop\n        /* \"#utility.yul\":7918:7989   */\n      tag_489\n        /* \"#utility.yul\":7986:7987   */\n      0x00\n        /* \"#utility.yul\":7975:7984   */\n      dup4\n        /* \"#utility.yul\":7971:7988   */\n      add\n        /* \"#utility.yul\":7962:7968   */\n      dup7\n        /* \"#utility.yul\":7918:7989   */\n      tag_374\n      jump\t// in\n    tag_489:\n        /* \"#utility.yul\":7999:8071   */\n      tag_490\n        /* \"#utility.yul\":8067:8069   */\n      0x20\n        /* \"#utility.yul\":8056:8065   */\n      dup4\n        /* \"#utility.yul\":8052:8070   */\n      add\n        /* \"#utility.yul\":8043:8049   */\n      dup6\n        /* \"#utility.yul\":7999:8071   */\n      tag_374\n      jump\t// in\n    tag_490:\n        /* \"#utility.yul\":8081:8153   */\n      tag_491\n        /* \"#utility.yul\":8149:8151   */\n      0x40\n        /* \"#utility.yul\":8138:8147   */\n      dup4\n        /* \"#utility.yul\":8134:8152   */\n      add\n        /* \"#utility.yul\":8125:8131   */\n      dup5\n        /* \"#utility.yul\":8081:8153   */\n      tag_359\n      jump\t// in\n    tag_491:\n        /* \"#utility.yul\":7718:8160   */\n      swap5\n      swap4\n      pop\n      pop\n      pop\n      pop\n      jump\t// out\n        /* \"#utility.yul\":8166:8256   */\n    tag_383:\n        /* \"#utility.yul\":8200:8207   */\n      0x00\n        /* \"#utility.yul\":8243:8248   */\n      dup2\n        /* \"#utility.yul\":8236:8249   */\n      iszero\n        /* \"#utility.yul\":8229:8250   */\n      iszero\n        /* \"#utility.yul\":8218:8250   */\n      swap1\n      pop\n        /* \"#utility.yul\":8166:8256   */\n      swap2\n      swap1\n      pop\n      jump\t// out\n        /* \"#utility.yul\":8262:8378   */\n    tag_384:\n        /* \"#utility.yul\":8332:8353   */\n      tag_494\n        /* \"#utility.yul\":8347:8352   */\n      dup2\n        /* \"#utility.yul\":8332:8353   */\n      tag_383\n      jump\t// in\n    tag_494:\n        /* \"#utility.yul\":8325:8330   */\n      dup2\n        /* \"#utility.yul\":8322:8354   */\n      eq\n        /* \"#utility.yul\":8312:8372   */\n      tag_495\n      jumpi\n        /* \"#utility.yul\":8368:8369   */\n      0x00\n        /* \"#utility.yul\":8365:8366   */\n      0x00\n        /* \"#utility.yul\":8358:8370   */\n      revert\n        /* \"#utility.yul\":8312:8372   */\n    tag_495:\n        /* \"#utility.yul\":8262:8378   */\n      pop\n      jump\t// out\n        /* \"#utility.yul\":8384:8521   */\n    tag_385:\n        /* \"#utility.yul\":8438:8443   */\n      0x00\n        /* \"#utility.yul\":8469:8475   */\n      dup2\n        /* \"#utility.yul\":8463:8476   */\n      mload\n        /* \"#utility.yul\":8454:8476   */\n      swap1\n      pop\n        /* \"#utility.yul\":8485:8515   */\n      tag_497\n        /* \"#utility.yul\":8509:8514   */\n      dup2\n        /* \"#utility.yul\":8485:8515   */\n      tag_384\n      jump\t// in\n    tag_497:\n        /* \"#utility.yul\":8384:8521   */\n      swap3\n      swap2\n      pop\n      pop\n      jump\t// out\n        /* \"#utility.yul\":8527:8872   */\n    tag_185:\n        /* \"#utility.yul\":8594:8600   */\n      0x00\n        /* \"#utility.yul\":8643:8645   */\n      0x20\n        /* \"#utility.yul\":8631:8640   */\n      dup3\n        /* \"#utility.yul\":8622:8629   */\n      dup5\n        /* \"#utility.yul\":8618:8641   */\n      sub\n        /* \"#utility.yul\":8614:8646   */\n      slt\n        /* \"#utility.yul\":8611:8730   */\n      iszero\n      tag_499\n      jumpi\n        /* \"#utility.yul\":8649:8728   */\n      tag_500\n      tag_367\n      jump\t// in\n    tag_500:\n        /* \"#utility.yul\":8611:8730   */\n    tag_499:\n        /* \"#utility.yul\":8769:8770   */\n      0x00\n        /* \"#utility.yul\":8794:8855   */\n      tag_501\n        /* \"#utility.yul\":8847:8854   */\n      dup5\n        /* \"#utility.yul\":8838:8844   */\n      dup3\n        /* \"#utility.yul\":8827:8836   */\n      dup6\n        /* \"#utility.yul\":8823:8845   */\n      add\n        /* \"#utility.yul\":8794:8855   */\n      tag_385\n      jump\t// in\n    tag_501:\n        /* \"#utility.yul\":8784:8855   */\n      swap2\n      pop\n        /* \"#utility.yul\":8740:8865   */\n      pop\n        /* \"#utility.yul\":8527:8872   */\n      swap3\n      swap2\n      pop\n      pop\n      jump\t// out\n        /* \"#utility.yul\":8878:9069   */\n    tag_203:\n        /* \"#utility.yul\":8918:8921   */\n      0x00\n        /* \"#utility.yul\":8937:8957   */\n      tag_503\n        /* \"#utility.yul\":8955:8956   */\n      dup3\n        /* \"#utility.yul\":8937:8957   */\n      tag_358\n      jump\t// in\n    tag_503:\n        /* \"#utility.yul\":8932:8957   */\n      swap2\n      pop\n        /* \"#utility.yul\":8971:8991   */\n      tag_504\n        /* \"#utility.yul\":8989:8990   */\n      dup4\n        /* \"#utility.yul\":8971:8991   */\n      tag_358\n      jump\t// in\n    tag_504:\n        /* \"#utility.yul\":8966:8991   */\n      swap3\n      pop\n        /* \"#utility.yul\":9014:9015   */\n      dup3\n        /* \"#utility.yul\":9011:9012   */\n      dup3\n        /* \"#utility.yul\":9007:9016   */\n      add\n        /* \"#utility.yul\":9000:9016   */\n      swap1\n      pop\n        /* \"#utility.yul\":9035:9038   */\n      dup1\n        /* \"#utility.yul\":9032:9033   */\n      dup3\n        /* \"#utility.yul\":9029:9039   */\n      gt\n        /* \"#utility.yul\":9026:9062   */\n      iszero\n      tag_505\n      jumpi\n        /* \"#utility.yul\":9042:9060   */\n      tag_506\n      tag_381\n      jump\t// in\n    tag_506:\n        /* \"#utility.yul\":9026:9062   */\n    tag_505:\n        /* \"#utility.yul\":8878:9069   */\n      swap3\n      swap2\n      pop\n      pop\n      jump\t// out\n        /* \"#utility.yul\":9075:9232   */\n    tag_386:\n        /* \"#utility.yul\":9215:9224   */\n      0x626164206c747600000000000000000000000000000000000000000000000000\n        /* \"#utility.yul\":9211:9212   */\n      0x00\n        /* \"#utility.yul\":9203:9209   */\n      dup3\n        /* \"#utility.yul\":9199:9213   */\n      add\n        /* \"#utility.yul\":9192:9225   */\n      mstore\n        /* \"#utility.yul\":9075:9232   */\n      pop\n      jump\t// out\n        /* \"#utility.yul\":9238:9603   */\n    tag_387:\n        /* \"#utility.yul\":9380:9383   */\n      0x00\n        /* \"#utility.yul\":9401:9467   */\n      tag_509\n        /* \"#utility.yul\":9465:9466   */\n      0x07\n        /* \"#utility.yul\":9460:9463   */\n      dup4\n        /* \"#utility.yul\":9401:9467   */\n      tag_377\n      jump\t// in\n    tag_509:\n        /* \"#utility.yul\":9394:9467   */\n      swap2\n      pop\n        /* \"#utility.yul\":9476:9569   */\n      tag_510\n        /* \"#utility.yul\":9565:9568   */\n      dup3\n        /* \"#utility.yul\":9476:9569   */\n      tag_386\n      jump\t// in\n    tag_510:\n        /* \"#utility.yul\":9594:9596   */\n      0x20\n        /* \"#utility.yul\":9589:9592   */\n      dup3\n        /* \"#utility.yul\":9585:9597   */\n      add\n        /* \"#utility.yul\":9578:9597   */\n      swap1\n      pop\n        /* \"#utility.yul\":9238:9603   */\n      swap2\n      swap1\n      pop\n      jump\t// out\n        /* \"#utility.yul\":9609:10028   */\n    tag_230:\n        /* \"#utility.yul\":9775:9779   */\n      0x00\n        /* \"#utility.yul\":9813:9815   */\n      0x20\n        /* \"#utility.yul\":9802:9811   */\n      dup3\n        /* \"#utility.yul\":9798:9816   */\n      add\n        /* \"#utility.yul\":9790:9816   */\n      swap1\n      pop\n        /* \"#utility.yul\":9862:9871   */\n      dup2\n        /* \"#utility.yul\":9856:9860   */\n      dup2\n        /* \"#utility.yul\":9852:9872   */\n      sub\n        /* \"#utility.yul\":9848:9849   */\n      0x00\n        /* \"#utility.yul\":9837:9846   */\n      dup4\n        /* \"#utility.yul\":9833:9850   */\n      add\n        /* \"#utility.yul\":9826:9873   */\n      mstore\n        /* \"#utility.yul\":9890:10021   */\n      tag_512\n        /* \"#utility.yul\":10016:10020   */\n      dup2\n        /* \"#utility.yul\":9890:10021   */\n      tag_387\n      jump\t// in\n    tag_512:\n        /* \"#utility.yul\":9882:10021   */\n      swap1\n      pop\n        /* \"#utility.yul\":9609:10028   */\n      swap2\n      swap1\n      pop\n      jump\t// out\n        /* \"#utility.yul\":10034:10181   */\n    tag_388:\n        /* \"#utility.yul\":10135:10146   */\n      0x00\n        /* \"#utility.yul\":10172:10175   */\n      dup2\n        /* \"#utility.yul\":10157:10175   */\n      swap1\n      pop\n        /* \"#utility.yul\":10034:10181   */\n      swap3\n      swap2\n      pop\n      pop\n      jump\t// out\n        /* \"#utility.yul\":10187:10301   */\n    tag_389:\n      pop\n      jump\t// out\n        /* \"#utility.yul\":10307:10705   */\n    tag_390:\n        /* \"#utility.yul\":10466:10469   */\n      0x00\n        /* \"#utility.yul\":10487:10570   */\n      tag_516\n        /* \"#utility.yul\":10568:10569   */\n      0x00\n        /* \"#utility.yul\":10563:10566   */\n      dup4\n        /* \"#utility.yul\":10487:10570   */\n      tag_388\n      jump\t// in\n    tag_516:\n        /* \"#utility.yul\":10480:10570   */\n      swap2\n      pop\n        /* \"#utility.yul\":10579:10672   */\n      tag_517\n        /* \"#utility.yul\":10668:10671   */\n      dup3\n        /* \"#utility.yul\":10579:10672   */\n      tag_389\n      jump\t// in\n    tag_517:\n        /* \"#utility.yul\":10697:10698   */\n      0x00\n        /* \"#utility.yul\":10692:10695   */\n      dup3\n        /* \"#utility.yul\":10688:10699   */\n      add\n        /* \"#utility.yul\":10681:10699   */\n      swap1\n      pop\n        /* \"#utility.yul\":10307:10705   */\n      swap2\n      swap1\n      pop\n      jump\t// out\n        /* \"#utility.yul\":10711:11090   */\n    tag_265:\n        /* \"#utility.yul\":10895:10898   */\n      0x00\n        /* \"#utility.yul\":10917:11064   */\n      tag_519\n        /* \"#utility.yul\":11060:11063   */\n      dup3\n        /* \"#utility.yul\":10917:11064   */\n      tag_390\n      jump\t// in\n    tag_519:\n        /* \"#utility.yul\":10910:11064   */\n      swap2\n      pop\n        /* \"#utility.yul\":11081:11084   */\n      dup2\n        /* \"#utility.yul\":11074:11084   */\n      swap1\n      pop\n        /* \"#utility.yul\":10711:11090   */\n      swap2\n      swap1\n      pop\n      jump\t// out\n        /* \"#utility.yul\":11096:11181   */\n    tag_391:\n        /* \"#utility.yul\":11141:11148   */\n      0x00\n        /* \"#utility.yul\":11170:11175   */\n      dup2\n        /* \"#utility.yul\":11159:11175   */\n      swap1\n      pop\n        /* \"#utility.yul\":11096:11181   */\n      swap2\n      swap1\n      pop\n      jump\t// out\n        /* \"#utility.yul\":11187:11345   */\n    tag_392:\n        /* \"#utility.yul\":11245:11254   */\n      0x00\n        /* \"#utility.yul\":11278:11339   */\n      tag_522\n        /* \"#utility.yul\":11296:11338   */\n      tag_523\n        /* \"#utility.yul\":11305:11337   */\n      tag_524\n        /* \"#utility.yul\":11331:11336   */\n      dup5\n        /* \"#utility.yul\":11305:11337   */\n      tag_391\n      jump\t// in\n    tag_524:\n        /* \"#utility.yul\":11296:11338   */\n      tag_361\n      jump\t// in\n    tag_523:\n        /* \"#utility.yul\":11278:11339   */\n      tag_358\n      jump\t// in\n    tag_522:\n        /* \"#utility.yul\":11265:11339   */\n      swap1\n      pop\n        /* \"#utility.yul\":11187:11345   */\n      swap2\n      swap1\n      pop\n      jump\t// out\n        /* \"#utility.yul\":11351:11498   */\n    tag_393:\n        /* \"#utility.yul\":11446:11491   */\n      tag_526\n        /* \"#utility.yul\":11485:11490   */\n      dup2\n        /* \"#utility.yul\":11446:11491   */\n      tag_392\n      jump\t// in\n    tag_526:\n        /* \"#utility.yul\":11441:11444   */\n      dup3\n        /* \"#utility.yul\":11434:11492   */\n      mstore\n        /* \"#utility.yul\":11351:11498   */\n      pop\n      pop\n      jump\t// out\n        /* \"#utility.yul\":11504:11852   */\n    tag_294:\n        /* \"#utility.yul\":11633:11637   */\n      0x00\n        /* \"#utility.yul\":11671:11673   */\n      0x40\n        /* \"#utility.yul\":11660:11669   */\n      dup3\n        /* \"#utility.yul\":11656:11674   */\n      add\n        /* \"#utility.yul\":11648:11674   */\n      swap1\n      pop\n        /* \"#utility.yul\":11684:11763   */\n      tag_528\n        /* \"#utility.yul\":11760:11761   */\n      0x00\n        /* \"#utility.yul\":11749:11758   */\n      dup4\n        /* \"#utility.yul\":11745:11762   */\n      add\n        /* \"#utility.yul\":11736:11742   */\n      dup6\n        /* \"#utility.yul\":11684:11763   */\n      tag_393\n      jump\t// in\n    tag_528:\n        /* \"#utility.yul\":11773:11845   */\n      tag_529\n        /* \"#utility.yul\":11841:11843   */\n      0x20\n        /* \"#utility.yul\":11830:11839   */\n      dup4\n        /* \"#utility.yul\":11826:11844   */\n      add\n        /* \"#utility.yul\":11817:11823   */\n      dup5\n        /* \"#utility.yul\":11773:11845   */\n      tag_359\n      jump\t// in\n    tag_529:\n        /* \"#utility.yul\":11504:11852   */\n      swap4\n      swap3\n      pop\n      pop\n      pop\n      jump\t// out\n        /* \"#utility.yul\":11858:12039   */\n    tag_394:\n        /* \"#utility.yul\":11998:12031   */\n      0x5265656e7472616e637947756172643a207265656e7472616e742063616c6c00\n        /* \"#utility.yul\":11994:11995   */\n      0x00\n        /* \"#utility.yul\":11986:11992   */\n      dup3\n        /* \"#utility.yul\":11982:11996   */\n      add\n        /* \"#utility.yul\":11975:12032   */\n      mstore\n        /* \"#utility.yul\":11858:12039   */\n      pop\n      jump\t// out\n        /* \"#utility.yul\":12045:12411   */\n    tag_395:\n        /* \"#utility.yul\":12187:12190   */\n      0x00\n        /* \"#utility.yul\":12208:12275   */\n      tag_532\n        /* \"#utility.yul\":12272:12274   */\n      0x1f\n        /* \"#utility.yul\":12267:12270   */\n      dup4\n        /* \"#utility.yul\":12208:12275   */\n      tag_377\n      jump\t// in\n    tag_532:\n        /* \"#utility.yul\":12201:12275   */\n      swap2\n      pop\n        /* \"#utility.yul\":12284:12377   */\n      tag_533\n        /* \"#utility.yul\":12373:12376   */\n      dup3\n        /* \"#utility.yul\":12284:12377   */\n      tag_394\n      jump\t// in\n    tag_533:\n        /* \"#utility.yul\":12402:12404   */\n      0x20\n        /* \"#utility.yul\":12397:12400   */\n      dup3\n        /* \"#utility.yul\":12393:12405   */\n      add\n        /* \"#utility.yul\":12386:12405   */\n      swap1\n      pop\n        /* \"#utility.yul\":12045:12411   */\n      swap2\n      swap1\n      pop\n      jump\t// out\n        /* \"#utility.yul\":12417:12836   */\n    tag_325:\n        /* \"#utility.yul\":12583:12587   */\n      0x00\n        /* \"#utility.yul\":12621:12623   */\n      0x20\n        /* \"#utility.yul\":12610:12619   */\n      dup3\n        /* \"#utility.yul\":12606:12624   */\n      add\n        /* \"#utility.yul\":12598:12624   */\n      swap1\n      pop\n        /* \"#utility.yul\":12670:12679   */\n      dup2\n        /* \"#utility.yul\":12664:12668   */\n      dup2\n        /* \"#utility.yul\":12660:12680   */\n      sub\n        /* \"#utility.yul\":12656:12657   */\n      0x00\n        /* \"#utility.yul\":12645:12654   */\n      dup4\n        /* \"#utility.yul\":12641:12658   */\n      add\n        /* \"#utility.yul\":12634:12681   */\n      mstore\n        /* \"#utility.yul\":12698:12829   */\n      tag_535\n        /* \"#utility.yul\":12824:12828   */\n      dup2\n        /* \"#utility.yul\":12698:12829   */\n      tag_395\n      jump\t// in\n    tag_535:\n        /* \"#utility.yul\":12690:12829   */\n      swap1\n      pop\n        /* \"#utility.yul\":12417:12836   */\n      swap2\n      swap1\n      pop\n      jump\t// out\n        /* \"#utility.yul\":12842:13174   */\n    tag_334:\n        /* \"#utility.yul\":12963:12967   */\n      0x00\n        /* \"#utility.yul\":13001:13003   */\n      0x40\n        /* \"#utility.yul\":12990:12999   */\n      dup3\n        /* \"#utility.yul\":12986:13004   */\n      add\n        /* \"#utility.yul\":12978:13004   */\n      swap1\n      pop\n        /* \"#utility.yul\":13014:13085   */\n      tag_537\n        /* \"#utility.yul\":13082:13083   */\n      0x00\n        /* \"#utility.yul\":13071:13080   */\n      dup4\n        /* \"#utility.yul\":13067:13084   */\n      add\n        /* \"#utility.yul\":13058:13064   */\n      dup6\n        /* \"#utility.yul\":13014:13085   */\n      tag_374\n      jump\t// in\n    tag_537:\n        /* \"#utility.yul\":13095:13167   */\n      tag_538\n        /* \"#utility.yul\":13163:13165   */\n      0x20\n        /* \"#utility.yul\":13152:13161   */\n      dup4\n        /* \"#utility.yul\":13148:13166   */\n      add\n        /* \"#utility.yul\":13139:13145   */\n      dup5\n        /* \"#utility.yul\":13095:13167   */\n      tag_359\n      jump\t// in\n    tag_538:\n        /* \"#utility.yul\":12842:13174   */\n      swap4\n      swap3\n      pop\n      pop\n      pop\n      jump\t// out\n\n    auxdata: 0xa26469706673582212200472c204aa4620d5002e63835b1f7420dc858ad9966977ef8f2c2877413258d764736f6c634300081f0033\n}\n",
				"bytecode": {
					"linkReferences": {},
					"object": "60806040526032600555604b6006556101f460075534801561001f575f5ffd5b506040516128eb3803806128eb83398181016040528101906100419190610318565b3360015f819055505f73ffffffffffffffffffffffffffffffffffffffff168173ffffffffffffffffffffffffffffffffffffffff16036100b9575f6040517f1e4fbdf70000000000000000000000000000000000000000000000000000000081526004016100b09190610365565b60405180910390fd5b6100c8816101f760201b60201c565b505f73ffffffffffffffffffffffffffffffffffffffff168273ffffffffffffffffffffffffffffffffffffffff16148061012e57505f73ffffffffffffffffffffffffffffffffffffffff168173ffffffffffffffffffffffffffffffffffffffff16145b15610170575f6040517f8e4c8aa60000000000000000000000000000000000000000000000000000000081526004016101679190610365565b60405180910390fd5b8160035f6101000a81548173ffffffffffffffffffffffffffffffffffffffff021916908373ffffffffffffffffffffffffffffffffffffffff1602179055508060045f6101000a81548173ffffffffffffffffffffffffffffffffffffffff021916908373ffffffffffffffffffffffffffffffffffffffff160217905550505061037e565b5f60015f9054906101000a900473ffffffffffffffffffffffffffffffffffffffff1690508160015f6101000a81548173ffffffffffffffffffffffffffffffffffffffff021916908373ffffffffffffffffffffffffffffffffffffffff1602179055508173ffffffffffffffffffffffffffffffffffffffff168173ffffffffffffffffffffffffffffffffffffffff167f8be0079c531659141344cd1fd0a4f28419497f9722a3daafe3b4186f6b6457e060405160405180910390a35050565b5f5ffd5b5f73ffffffffffffffffffffffffffffffffffffffff82169050919050565b5f6102e7826102be565b9050919050565b6102f7816102dd565b8114610301575f5ffd5b50565b5f81519050610312816102ee565b92915050565b5f5f6040838503121561032e5761032d6102ba565b5b5f61033b85828601610304565b925050602061034c85828601610304565b9150509250929050565b61035f816102dd565b82525050565b5f6020820190506103785f830184610356565b92915050565b6125608061038b5f395ff3fe608060405260043610610169575f3560e01c80637a5f0dc4116100d0578063bcbaf48711610089578063e1bf0a4b11610063578063e1bf0a4b146104e5578063f2fde38b1461050d578063f897a22b14610535578063fb2926b21461055f5761016a565b8063bcbaf4871461046b578063da80559014610493578063e1a45218146104bb5761016a565b80637a5f0dc41461037e57806380b1acf5146103885780638da5cb5b146103b257806397d43965146103dc578063a37e52e314610406578063a87430ba1461042e5761016a565b80634aed0980116101225780634aed09801461029c578063530e784f146102c45780635c2e3de2146102ec5780636a146024146103145780636f811a2d1461033e578063715018a6146103685761016a565b806319970d8e1461016c5780632630c12f1461019657806328842d4f146101c057806329f98057146101e85780632c38199e1461022457806330f883e3146102605761016a565b5b005b348015610177575f5ffd5b5061018061059b565b60405161018d9190611ee4565b60405180910390f35b3480156101a1575f5ffd5b506101aa6105a1565b6040516101b79190611f77565b60405180910390f35b3480156101cb575f5ffd5b506101e660048036038101906101e19190611fbe565b6105c6565b005b3480156101f3575f5ffd5b5061020e60048036038101906102099190612024565b610654565b60405161021b9190611ee4565b60405180910390f35b34801561022f575f5ffd5b5061024a60048036038101906102459190612024565b610747565b6040516102579190611ee4565b60405180910390f35b34801561026b575f5ffd5b5061028660048036038101906102819190612024565b6107f9565b6040516102939190611ee4565b60405180910390f35b3480156102a7575f5ffd5b506102c260048036038101906102bd9190611fbe565b610828565b005b3480156102cf575f5ffd5b506102ea60048036038101906102e59190612024565b610a82565b005b3480156102f7575f5ffd5b50610312600480360381019061030d9190611fbe565b610b80565b005b34801561031f575f5ffd5b50610328610d31565b6040516103359190611ee4565b60405180910390f35b348015610349575f5ffd5b50610352610d3d565b60405161035f9190611ee4565b60405180910390f35b348015610373575f5ffd5b5061037c610d43565b005b610386610d56565b005b348015610393575f5ffd5b5061039c610e44565b6040516103a99190611ee4565b60405180910390f35b3480156103bd575f5ffd5b506103c6610e49565b6040516103d3919061205e565b60405180910390f35b3480156103e7575f5ffd5b506103f0610e71565b6040516103fd9190611ee4565b60405180910390f35b348015610411575f5ffd5b5061042c60048036038101906104279190611fbe565b610e77565b005b348015610439575f5ffd5b50610454600480360381019061044f9190612024565b610f04565b604051610462929190612077565b60405180910390f35b348015610476575f5ffd5b50610491600480360381019061048c919061209e565b610f24565b005b34801561049e575f5ffd5b506104b960048036038101906104b49190612024565b61141b565b005b3480156104c6575f5ffd5b506104cf611519565b6040516104dc9190611ee4565b60405180910390f35b3480156104f0575f5ffd5b5061050b60048036038101906105069190611fbe565b61151f565b005b348015610518575f5ffd5b50610533600480360381019061052e9190612024565b61182d565b005b348015610540575f5ffd5b506105496118b1565b60405161055691906120fc565b60405180910390f35b34801561056a575f5ffd5b5061058560048036038101906105809190612024565b6118d6565b6040516105929190611ee4565b60405180910390f35b60075481565b60045f9054906101000a900473ffffffffffffffffffffffffffffffffffffffff1681565b6105ce61199d565b612710811115610613576040517f08c379a000000000000000000000000000000000000000000000000000000000815260040161060a9061216f565b60405180910390fd5b806007819055507faebdbb2d62051c61387bf5a1cd77f093484880809eabd6b2ecefb2dc5869d23d816040516106499190611ee4565b60405180910390a150565b5f670de0b6b3a764000060045f9054906101000a900473ffffffffffffffffffffffffffffffffffffffff1673ffffffffffffffffffffffffffffffffffffffff16638e15f4736040518163ffffffff1660e01b8152600401602060405180830381865afa1580156106c8573d5f5f3e3d5ffd5b505050506040513d601f19601f820116820180604052508101906106ec91906121a1565b60025f8573ffffffffffffffffffffffffffffffffffffffff1673ffffffffffffffffffffffffffffffffffffffff1681526020019081526020015f205f015461073691906121f9565b6107409190612267565b9050919050565b5f5f610752836107f9565b90508060025f8573ffffffffffffffffffffffffffffffffffffffff1673ffffffffffffffffffffffffffffffffffffffff1681526020019081526020015f2060010154106107a4575f9150506107f4565b60025f8473ffffffffffffffffffffffffffffffffffffffff1673ffffffffffffffffffffffffffffffffffffffff1681526020019081526020015f2060010154816107f09190612297565b9150505b919050565b5f5f61080483610654565b905060646005548261081691906121f9565b6108209190612267565b915050919050565b610830611a24565b5f8103610869576040517f2c5211c600000000000000000000000000000000000000000000000000000000815260040160405180910390fd5b5f60025f3373ffffffffffffffffffffffffffffffffffffffff1673ffffffffffffffffffffffffffffffffffffffff1681526020019081526020015f2090505f8160010154036108e6576040517fb016be5e00000000000000000000000000000000000000000000000000000000815260040160405180910390fd5b8060010154821115610935578181600101546040517f99bcd81300000000000000000000000000000000000000000000000000000000815260040161092c929190612077565b60405180910390fd5b5f60035f9054906101000a900473ffffffffffffffffffffffffffffffffffffffff1673ffffffffffffffffffffffffffffffffffffffff166323b872dd3330866040518463ffffffff1660e01b8152600401610994939291906122ca565b6020604051808303815f875af11580156109b0573d5f5f3e3d5ffd5b505050506040513d601f19601f820116820180604052508101906109d49190612334565b905080610a0d576040517f90b8ec1800000000000000000000000000000000000000000000000000000000815260040160405180910390fd5b82826001015f828254610a209190612297565b925050819055503373ffffffffffffffffffffffffffffffffffffffff167fb7efcc12f3d3e74e33995ff303aca806b9428989809e60a4e5a4d465832966e484604051610a6d9190611ee4565b60405180910390a25050610a7f611a71565b50565b610a8a61199d565b5f73ffffffffffffffffffffffffffffffffffffffff168173ffffffffffffffffffffffffffffffffffffffff1603610afa57806040517f8e4c8aa6000000000000000000000000000000000000000000000000000000008152600401610af1919061205e565b60405180910390fd5b8060045f6101000a81548173ffffffffffffffffffffffffffffffffffffffff021916908373ffffffffffffffffffffffffffffffffffffffff1602179055508073ffffffffffffffffffffffffffffffffffffffff167f3df77beb5db05fcdd70a30fc8adf3f83f9501b68579455adbd100b818094039460405160405180910390a250565b610b88611a24565b5f8103610bc1576040517f2c5211c600000000000000000000000000000000000000000000000000000000815260040160405180910390fd5b5f60025f3373ffffffffffffffffffffffffffffffffffffffff1673ffffffffffffffffffffffffffffffffffffffff1681526020019081526020015f2090505f815f015403610c3d576040517fb016be5e00000000000000000000000000000000000000000000000000000000815260040160405180910390fd5b5f610c47336107f9565b905080838360010154610c5a919061235f565b1115610cb2575f826001015482610c719190612297565b905083816040517fd771d8e9000000000000000000000000000000000000000000000000000000008152600401610ca9929190612077565b60405180910390fd5b82826001015f828254610cc5919061235f565b92505081905550610cd63384611a7a565b3373ffffffffffffffffffffffffffffffffffffffff167f5abc9a9c4616711eb03d720e050325118645a3695a5e75b5b10a29e2e217fe0384604051610d1c9190611ee4565b60405180910390a25050610d2e611a71565b50565b670de0b6b3a764000081565b60055481565b610d4b61199d565b610d545f611e02565b565b610d5e611a24565b5f3403610d97576040517fb016be5e00000000000000000000000000000000000000000000000000000000815260040160405180910390fd5b3460025f3373ffffffffffffffffffffffffffffffffffffffff1673ffffffffffffffffffffffffffffffffffffffff1681526020019081526020015f205f015f828254610de5919061235f565b925050819055503373ffffffffffffffffffffffffffffffffffffffff167f1c0917c3a343a300b56473c59fa8355d3326f2c73472679a5b4cd5d6e0390c8034604051610e329190611ee4565b60405180910390a2610e42611a71565b565b606481565b5f60015f9054906101000a900473ffffffffffffffffffffffffffffffffffffffff16905090565b60065481565b610e7f61199d565b6064811115610ec3576040517f08c379a0000000000000000000000000000000000000000000000000000000008152600401610eba906123dc565b60405180910390fd5b806005819055507fcce25c35b561657fb7cd2ac403c6a4854283d0f4d462e68e0f97d07c348bcff281604051610ef99190611ee4565b60405180910390a150565b6002602052805f5260405f205f91509050805f0154908060010154905082565b610f2c611a24565b5f8103610f65576040517f2c5211c600000000000000000000000000000000000000000000000000000000815260040160405180910390fd5b5f73ffffffffffffffffffffffffffffffffffffffff168273ffffffffffffffffffffffffffffffffffffffff1603610fd557816040517f8e4c8aa6000000000000000000000000000000000000000000000000000000008152600401610fcc919061205e565b60405180910390fd5b5f60025f8473ffffffffffffffffffffffffffffffffffffffff1673ffffffffffffffffffffffffffffffffffffffff1681526020019081526020015f2090505f816001015403611052576040517fb016be5e00000000000000000000000000000000000000000000000000000000815260040160405180910390fd5b5f60045f9054906101000a900473ffffffffffffffffffffffffffffffffffffffff1673ffffffffffffffffffffffffffffffffffffffff16638e15f4736040518163ffffffff1660e01b8152600401602060405180830381865afa1580156110bd573d5f5f3e3d5ffd5b505050506040513d601f19601f820116820180604052508101906110e191906121a1565b90505f6110ed85610654565b90505f600654826110fe91906121f9565b90505f6064856001015461111291906121f9565b90508082106111765780670de0b6b3a76400008361113091906121f9565b61113a9190612267565b6040517f4fd4b9f700000000000000000000000000000000000000000000000000000000815260040161116d9190611ee4565b60405180910390fd5b5f85600101548711611188578661118e565b85600101545b90505f60035f9054906101000a900473ffffffffffffffffffffffffffffffffffffffff1673ffffffffffffffffffffffffffffffffffffffff166323b872dd3330856040518463ffffffff1660e01b81526004016111ef939291906122ca565b6020604051808303815f875af115801561120b573d5f5f3e3d5ffd5b505050506040513d601f19601f8201168201806040525081019061122f9190612334565b905080611268576040517f90b8ec1800000000000000000000000000000000000000000000000000000000815260040160405180910390fd5b5f86670de0b6b3a76400008461127e91906121f9565b6112889190612267565b90505f60075461271061129b919061235f565b90505f61271082846112ad91906121f9565b6112b79190612267565b9050895f01548111156112cb57895f015490505b848a6001015f8282546112de9190612297565b92505081905550808a5f015f8282546112f79190612297565b925050819055505f3373ffffffffffffffffffffffffffffffffffffffff168260405161132390612427565b5f6040518083038185875af1925050503d805f811461135d576040519150601f19603f3d011682016040523d82523d5f602084013e611362565b606091505b505090508061139d576040517f90b8ec1800000000000000000000000000000000000000000000000000000000815260040160405180910390fd5b8c73ffffffffffffffffffffffffffffffffffffffff163373ffffffffffffffffffffffffffffffffffffffff167f4ecae3269f800df64b16cb9f6f8b0b507018888521d1cff0841823e44bc0b00d88856040516113fc929190612077565b60405180910390a35050505050505050505050611417611a71565b5050565b61142361199d565b5f73ffffffffffffffffffffffffffffffffffffffff168173ffffffffffffffffffffffffffffffffffffffff160361149357806040517f8e4c8aa600000000000000000000000000000000000000000000000000000000815260040161148a919061205e565b60405180910390fd5b8060035f6101000a81548173ffffffffffffffffffffffffffffffffffffffff021916908373ffffffffffffffffffffffffffffffffffffffff1602179055508073ffffffffffffffffffffffffffffffffffffffff167f81a590c208a61d15bdfb64b188e09c0a6fbc5cc06d3f769de354972a76d0c12f60405160405180910390a250565b61271081565b611527611a24565b5f8103611560576040517f2c5211c600000000000000000000000000000000000000000000000000000000815260040160405180910390fd5b5f60025f3373ffffffffffffffffffffffffffffffffffffffff1673ffffffffffffffffffffffffffffffffffffffff1681526020019081526020015f20905081815f015410156115ed57805f0154826040517f768063db0000000000000000000000000000000000000000000000000000000081526004016115e4929190612077565b60405180910390fd5b5f82825f01546115fd9190612297565b90505f60045f9054906101000a900473ffffffffffffffffffffffffffffffffffffffff1673ffffffffffffffffffffffffffffffffffffffff16638e15f4736040518163ffffffff1660e01b8152600401602060405180830381865afa15801561166a573d5f5f3e3d5ffd5b505050506040513d601f19601f8201168201806040525081019061168e91906121a1565b90505f670de0b6b3a764000082846116a691906121f9565b6116b09190612267565b90505f84600101541115611728575f600554606486600101546116d391906121f9565b6116dd9190612267565b905080821015611726575f816040517fd771d8e900000000000000000000000000000000000000000000000000000000815260040161171d929190612474565b60405180910390fd5b505b82845f01819055505f3373ffffffffffffffffffffffffffffffffffffffff168660405161175590612427565b5f6040518083038185875af1925050503d805f811461178f576040519150601f19603f3d011682016040523d82523d5f602084013e611794565b606091505b50509050806117cf576040517f90b8ec1800000000000000000000000000000000000000000000000000000000815260040160405180910390fd5b3373ffffffffffffffffffffffffffffffffffffffff167f5b0743acabce0ea09498b3c2598ed444f80ef6513a2029d7d9aaed87064d1edb876040516118159190611ee4565b60405180910390a2505050505061182a611a71565b50565b61183561199d565b5f73ffffffffffffffffffffffffffffffffffffffff168173ffffffffffffffffffffffffffffffffffffffff16036118a5575f6040517f1e4fbdf700000000000000000000000000000000000000000000000000000000815260040161189c919061205e565b60405180910390fd5b6118ae81611e02565b50565b60035f9054906101000a900473ffffffffffffffffffffffffffffffffffffffff1681565b5f5f60025f8473ffffffffffffffffffffffffffffffffffffffff1673ffffffffffffffffffffffffffffffffffffffff1681526020019081526020015f2090505f81600101540361194b577fffffffffffffffffffffffffffffffffffffffffffffffffffffffffffffffff915050611998565b5f61195584610654565b90506064826001015461196891906121f9565b670de0b6b3a76400006006548361197f91906121f9565b61198991906121f9565b6119939190612267565b925050505b919050565b6119a5611ec5565b73ffffffffffffffffffffffffffffffffffffffff166119c3610e49565b73ffffffffffffffffffffffffffffffffffffffff1614611a22576119e6611ec5565b6040517f118cdaa7000000000000000000000000000000000000000000000000000000008152600401611a19919061205e565b60405180910390fd5b565b60025f5403611a68576040517f08c379a0000000000000000000000000000000000000000000000000000000008152600401611a5f906124e5565b60405180910390fd5b60025f81905550565b60015f81905550565b5f60035f9054906101000a900473ffffffffffffffffffffffffffffffffffffffff1673ffffffffffffffffffffffffffffffffffffffff166370a08231306040518263ffffffff1660e01b8152600401611ad5919061205e565b602060405180830381865afa158015611af0573d5f5f3e3d5ffd5b505050506040513d601f19601f82011682018060405250810190611b1491906121a1565b9050818110611bfa575f60035f9054906101000a900473ffffffffffffffffffffffffffffffffffffffff1673ffffffffffffffffffffffffffffffffffffffff1663a9059cbb85856040518363ffffffff1660e01b8152600401611b7a929190612503565b6020604051808303815f875af1158015611b96573d5f5f3e3d5ffd5b505050506040513d601f19601f82011682018060405250810190611bba9190612334565b905080611bf3576040517f90b8ec1800000000000000000000000000000000000000000000000000000000815260040160405180910390fd5b5050611dfe565b5f8183611c079190612297565b90505f821115611ce9575f60035f9054906101000a900473ffffffffffffffffffffffffffffffffffffffff1673ffffffffffffffffffffffffffffffffffffffff1663a9059cbb86856040518363ffffffff1660e01b8152600401611c6e929190612503565b6020604051808303815f875af1158015611c8a573d5f5f3e3d5ffd5b505050506040513d601f19601f82011682018060405250810190611cae9190612334565b905080611ce7576040517f90b8ec1800000000000000000000000000000000000000000000000000000000815260040160405180910390fd5b505b60035f9054906101000a900473ffffffffffffffffffffffffffffffffffffffff1673ffffffffffffffffffffffffffffffffffffffff166340c10f1985836040518363ffffffff1660e01b8152600401611d45929190612503565b6020604051808303815f875af1925050508015611d8057506040513d601f19601f82011682018060405250810190611d7d9190612334565b60015b611dc35782826040517f206adee0000000000000000000000000000000000000000000000000000000008152600401611dba929190612077565b60405180910390fd5b80611dfa576040517f6a17288200000000000000000000000000000000000000000000000000000000815260040160405180910390fd5b5050505b5050565b5f60015f9054906101000a900473ffffffffffffffffffffffffffffffffffffffff1690508160015f6101000a81548173ffffffffffffffffffffffffffffffffffffffff021916908373ffffffffffffffffffffffffffffffffffffffff1602179055508173ffffffffffffffffffffffffffffffffffffffff168173ffffffffffffffffffffffffffffffffffffffff167f8be0079c531659141344cd1fd0a4f28419497f9722a3daafe3b4186f6b6457e060405160405180910390a35050565b5f33905090565b5f819050919050565b611ede81611ecc565b82525050565b5f602082019050611ef75f830184611ed5565b92915050565b5f73ffffffffffffffffffffffffffffffffffffffff82169050919050565b5f819050919050565b5f611f3f611f3a611f3584611efd565b611f1c565b611efd565b9050919050565b5f611f5082611f25565b9050919050565b5f611f6182611f46565b9050919050565b611f7181611f57565b82525050565b5f602082019050611f8a5f830184611f68565b92915050565b5f5ffd5b611f9d81611ecc565b8114611fa7575f5ffd5b50565b5f81359050611fb881611f94565b92915050565b5f60208284031215611fd357611fd2611f90565b5b5f611fe084828501611faa565b91505092915050565b5f611ff382611efd565b9050919050565b61200381611fe9565b811461200d575f5ffd5b50565b5f8135905061201e81611ffa565b92915050565b5f6020828403121561203957612038611f90565b5b5f61204684828501612010565b91505092915050565b61205881611fe9565b82525050565b5f6020820190506120715f83018461204f565b92915050565b5f60408201905061208a5f830185611ed5565b6120976020830184611ed5565b9392505050565b5f5f604083850312156120b4576120b3611f90565b5b5f6120c185828601612010565b92505060206120d285828601611faa565b9150509250929050565b5f6120e682611f46565b9050919050565b6120f6816120dc565b82525050565b5f60208201905061210f5f8301846120ed565b92915050565b5f82825260208201905092915050565b7f62616420627073000000000000000000000000000000000000000000000000005f82015250565b5f612159600783612115565b915061216482612125565b602082019050919050565b5f6020820190508181035f8301526121868161214d565b9050919050565b5f8151905061219b81611f94565b92915050565b5f602082840312156121b6576121b5611f90565b5b5f6121c38482850161218d565b91505092915050565b7f4e487b71000000000000000000000000000000000000000000000000000000005f52601160045260245ffd5b5f61220382611ecc565b915061220e83611ecc565b925082820261221c81611ecc565b91508282048414831517612233576122326121cc565b5b5092915050565b7f4e487b71000000000000000000000000000000000000000000000000000000005f52601260045260245ffd5b5f61227182611ecc565b915061227c83611ecc565b92508261228c5761228b61223a565b5b828204905092915050565b5f6122a182611ecc565b91506122ac83611ecc565b92508282039050818111156122c4576122c36121cc565b5b92915050565b5f6060820190506122dd5f83018661204f565b6122ea602083018561204f565b6122f76040830184611ed5565b949350505050565b5f8115159050919050565b612313816122ff565b811461231d575f5ffd5b50565b5f8151905061232e8161230a565b92915050565b5f6020828403121561234957612348611f90565b5b5f61235684828501612320565b91505092915050565b5f61236982611ecc565b915061237483611ecc565b925082820190508082111561238c5761238b6121cc565b5b92915050565b7f626164206c7476000000000000000000000000000000000000000000000000005f82015250565b5f6123c6600783612115565b91506123d182612392565b602082019050919050565b5f6020820190508181035f8301526123f3816123ba565b9050919050565b5f81905092915050565b50565b5f6124125f836123fa565b915061241d82612404565b5f82019050919050565b5f61243182612407565b9150819050919050565b5f819050919050565b5f61245e6124596124548461243b565b611f1c565b611ecc565b9050919050565b61246e81612444565b82525050565b5f6040820190506124875f830185612465565b6124946020830184611ed5565b9392505050565b7f5265656e7472616e637947756172643a207265656e7472616e742063616c6c005f82015250565b5f6124cf601f83612115565b91506124da8261249b565b602082019050919050565b5f6020820190508181035f8301526124fc816124c3565b9050919050565b5f6040820190506125165f83018561204f565b6125236020830184611ed5565b939250505056fea26469706673582212200472c204aa4620d5002e63835b1f7420dc858ad9966977ef8f2c2877413258d764736f6c634300081f0033",
					"opcodes": "PUSH1 0x80 PUSH1 0x40 MSTORE PUSH1 0x32 PUSH1 0x5 SSTORE PUSH1 0x4B PUSH1 0x6 SSTORE PUSH2 0x1F4 PUSH1 0x7 SSTORE CALLVALUE DUP1 ISZERO PUSH2 0x1F JUMPI PUSH0 PUSH0 REVERT JUMPDEST POP PUSH1 0x40 MLOAD PUSH2 0x28EB CODESIZE SUB DUP1 PUSH2 0x28EB DUP4 CODECOPY DUP2 DUP2 ADD PUSH1 0x40 MSTORE DUP2 ADD SWAP1 PUSH2 0x41 SWAP2 SWAP1 PUSH2 0x318 JUMP JUMPDEST CALLER PUSH1 0x1 PUSH0 DUP2 SWAP1 SSTORE POP PUSH0 PUSH20 0xFFFFFFFFFFFFFFFFFFFFFFFFFFFFFFFFFFFFFFFF AND DUP2 PUSH20 0xFFFFFFFFFFFFFFFFFFFFFFFFFFFFFFFFFFFFFFFF AND SUB PUSH2 0xB9 JUMPI PUSH0 PUSH1 0x40 MLOAD PUSH32 0x1E4FBDF700000000000000000000000000000000000000000000000000000000 DUP2 MSTORE PUSH1 0x4 ADD PUSH2 0xB0 SWAP2 SWAP1 PUSH2 0x365 JUMP JUMPDEST PUSH1 0x40 MLOAD DUP1 SWAP2 SUB SWAP1 REVERT JUMPDEST PUSH2 0xC8 DUP2 PUSH2 0x1F7 PUSH1 0x20 SHL PUSH1 0x20 SHR JUMP JUMPDEST POP PUSH0 PUSH20 0xFFFFFFFFFFFFFFFFFFFFFFFFFFFFFFFFFFFFFFFF AND DUP3 PUSH20 0xFFFFFFFFFFFFFFFFFFFFFFFFFFFFFFFFFFFFFFFF AND EQ DUP1 PUSH2 0x12E JUMPI POP PUSH0 PUSH20 0xFFFFFFFFFFFFFFFFFFFFFFFFFFFFFFFFFFFFFFFF AND DUP2 PUSH20 0xFFFFFFFFFFFFFFFFFFFFFFFFFFFFFFFFFFFFFFFF AND EQ JUMPDEST ISZERO PUSH2 0x170 JUMPI PUSH0 PUSH1 0x40 MLOAD PUSH32 0x8E4C8AA600000000000000000000000000000000000000000000000000000000 DUP2 MSTORE PUSH1 0x4 ADD PUSH2 0x167 SWAP2 SWAP1 PUSH2 0x365 JUMP JUMPDEST PUSH1 0x40 MLOAD DUP1 SWAP2 SUB SWAP1 REVERT JUMPDEST DUP2 PUSH1 0x3 PUSH0 PUSH2 0x100 EXP DUP2 SLOAD DUP2 PUSH20 0xFFFFFFFFFFFFFFFFFFFFFFFFFFFFFFFFFFFFFFFF MUL NOT AND SWAP1 DUP4 PUSH20 0xFFFFFFFFFFFFFFFFFFFFFFFFFFFFFFFFFFFFFFFF AND MUL OR SWAP1 SSTORE POP DUP1 PUSH1 0x4 PUSH0 PUSH2 0x100 EXP DUP2 SLOAD DUP2 PUSH20 0xFFFFFFFFFFFFFFFFFFFFFFFFFFFFFFFFFFFFFFFF MUL NOT AND SWAP1 DUP4 PUSH20 0xFFFFFFFFFFFFFFFFFFFFFFFFFFFFFFFFFFFFFFFF AND MUL OR SWAP1 SSTORE POP POP POP PUSH2 0x37E JUMP JUMPDEST PUSH0 PUSH1 0x1 PUSH0 SWAP1 SLOAD SWAP1 PUSH2 0x100 EXP SWAP1 DIV PUSH20 0xFFFFFFFFFFFFFFFFFFFFFFFFFFFFFFFFFFFFFFFF AND SWAP1 POP DUP2 PUSH1 0x1 PUSH0 PUSH2 0x100 EXP DUP2 SLOAD DUP2 PUSH20 0xFFFFFFFFFFFFFFFFFFFFFFFFFFFFFFFFFFFFFFFF MUL NOT AND SWAP1 DUP4 PUSH20 0xFFFFFFFFFFFFFFFFFFFFFFFFFFFFFFFFFFFFFFFF AND MUL OR SWAP1 SSTORE POP DUP2 PUSH20 0xFFFFFFFFFFFFFFFFFFFFFFFFFFFFFFFFFFFFFFFF AND DUP2 PUSH20 0xFFFFFFFFFFFFFFFFFFFFFFFFFFFFFFFFFFFFFFFF AND PUSH32 0x8BE0079C531659141344CD1FD0A4F28419497F9722A3DAAFE3B4186F6B6457E0 PUSH1 0x40 MLOAD PUSH1 0x40 MLOAD DUP1 SWAP2 SUB SWAP1 LOG3 POP POP JUMP JUMPDEST PUSH0 PUSH0 REVERT JUMPDEST PUSH0 PUSH20 0xFFFFFFFFFFFFFFFFFFFFFFFFFFFFFFFFFFFFFFFF DUP3 AND SWAP1 POP SWAP2 SWAP1 POP JUMP JUMPDEST PUSH0 PUSH2 0x2E7 DUP3 PUSH2 0x2BE JUMP JUMPDEST SWAP1 POP SWAP2 SWAP1 POP JUMP JUMPDEST PUSH2 0x2F7 DUP2 PUSH2 0x2DD JUMP JUMPDEST DUP2 EQ PUSH2 0x301 JUMPI PUSH0 PUSH0 REVERT JUMPDEST POP JUMP JUMPDEST PUSH0 DUP2 MLOAD SWAP1 POP PUSH2 0x312 DUP2 PUSH2 0x2EE JUMP JUMPDEST SWAP3 SWAP2 POP POP JUMP JUMPDEST PUSH0 PUSH0 PUSH1 0x40 DUP4 DUP6 SUB SLT ISZERO PUSH2 0x32E JUMPI PUSH2 0x32D PUSH2 0x2BA JUMP JUMPDEST JUMPDEST PUSH0 PUSH2 0x33B DUP6 DUP3 DUP7 ADD PUSH2 0x304 JUMP JUMPDEST SWAP3 POP POP PUSH1 0x20 PUSH2 0x34C DUP6 DUP3 DUP7 ADD PUSH2 0x304 JUMP JUMPDEST SWAP2 POP POP SWAP3 POP SWAP3 SWAP1 POP JUMP JUMPDEST PUSH2 0x35F DUP2 PUSH2 0x2DD JUMP JUMPDEST DUP3 MSTORE POP POP JUMP JUMPDEST PUSH0 PUSH1 0x20 DUP3 ADD SWAP1 POP PUSH2 0x378 PUSH0 DUP4 ADD DUP5 PUSH2 0x356 JUMP JUMPDEST SWAP3 SWAP2 POP POP JUMP JUMPDEST PUSH2 0x2560 DUP1 PUSH2 0x38B PUSH0 CODECOPY PUSH0 RETURN INVALID PUSH1 0x80 PUSH1 0x40 MSTORE PUSH1 0x4 CALLDATASIZE LT PUSH2 0x169 JUMPI PUSH0 CALLDATALOAD PUSH1 0xE0 SHR DUP1 PUSH4 0x7A5F0DC4 GT PUSH2 0xD0 JUMPI DUP1 PUSH4 0xBCBAF487 GT PUSH2 0x89 JUMPI DUP1 PUSH4 0xE1BF0A4B GT PUSH2 0x63 JUMPI DUP1 PUSH4 0xE1BF0A4B EQ PUSH2 0x4E5 JUMPI DUP1 PUSH4 0xF2FDE38B EQ PUSH2 0x50D JUMPI DUP1 PUSH4 0xF897A22B EQ PUSH2 0x535 JUMPI DUP1 PUSH4 0xFB2926B2 EQ PUSH2 0x55F JUMPI PUSH2 0x16A JUMP JUMPDEST DUP1 PUSH4 0xBCBAF487 EQ PUSH2 0x46B JUMPI DUP1 PUSH4 0xDA805590 EQ PUSH2 0x493 JUMPI DUP1 PUSH4 0xE1A45218 EQ PUSH2 0x4BB JUMPI PUSH2 0x16A JUMP JUMPDEST DUP1 PUSH4 0x7A5F0DC4 EQ PUSH2 0x37E JUMPI DUP1 PUSH4 0x80B1ACF5 EQ PUSH2 0x388 JUMPI DUP1 PUSH4 0x8DA5CB5B EQ PUSH2 0x3B2 JUMPI DUP1 PUSH4 0x97D43965 EQ PUSH2 0x3DC JUMPI DUP1 PUSH4 0xA37E52E3 EQ PUSH2 0x406 JUMPI DUP1 PUSH4 0xA87430BA EQ PUSH2 0x42E JUMPI PUSH2 0x16A JUMP JUMPDEST DUP1 PUSH4 0x4AED0980 GT PUSH2 0x122 JUMPI DUP1 PUSH4 0x4AED0980 EQ PUSH2 0x29C JUMPI DUP1 PUSH4 0x530E784F EQ PUSH2 0x2C4 JUMPI DUP1 PUSH4 0x5C2E3DE2 EQ PUSH2 0x2EC JUMPI DUP1 PUSH4 0x6A146024 EQ PUSH2 0x314 JUMPI DUP1 PUSH4 0x6F811A2D EQ PUSH2 0x33E JUMPI DUP1 PUSH4 0x715018A6 EQ PUSH2 0x368 JUMPI PUSH2 0x16A JUMP JUMPDEST DUP1 PUSH4 0x19970D8E EQ PUSH2 0x16C JUMPI DUP1 PUSH4 0x2630C12F EQ PUSH2 0x196 JUMPI DUP1 PUSH4 0x28842D4F EQ PUSH2 0x1C0 JUMPI DUP1 PUSH4 0x29F98057 EQ PUSH2 0x1E8 JUMPI DUP1 PUSH4 0x2C38199E EQ PUSH2 0x224 JUMPI DUP1 PUSH4 0x30F883E3 EQ PUSH2 0x260 JUMPI PUSH2 0x16A JUMP JUMPDEST JUMPDEST STOP JUMPDEST CALLVALUE DUP1 ISZERO PUSH2 0x177 JUMPI PUSH0 PUSH0 REVERT JUMPDEST POP PUSH2 0x180 PUSH2 0x59B JUMP JUMPDEST PUSH1 0x40 MLOAD PUSH2 0x18D SWAP2 SWAP1 PUSH2 0x1EE4 JUMP JUMPDEST PUSH1 0x40 MLOAD DUP1 SWAP2 SUB SWAP1 RETURN JUMPDEST CALLVALUE DUP1 ISZERO PUSH2 0x1A1 JUMPI PUSH0 PUSH0 REVERT JUMPDEST POP PUSH2 0x1AA PUSH2 0x5A1 JUMP JUMPDEST PUSH1 0x40 MLOAD PUSH2 0x1B7 SWAP2 SWAP1 PUSH2 0x1F77 JUMP JUMPDEST PUSH1 0x40 MLOAD DUP1 SWAP2 SUB SWAP1 RETURN JUMPDEST CALLVALUE DUP1 ISZERO PUSH2 0x1CB JUMPI PUSH0 PUSH0 REVERT JUMPDEST POP PUSH2 0x1E6 PUSH1 0x4 DUP1 CALLDATASIZE SUB DUP2 ADD SWAP1 PUSH2 0x1E1 SWAP2 SWAP1 PUSH2 0x1FBE JUMP JUMPDEST PUSH2 0x5C6 JUMP JUMPDEST STOP JUMPDEST CALLVALUE DUP1 ISZERO PUSH2 0x1F3 JUMPI PUSH0 PUSH0 REVERT JUMPDEST POP PUSH2 0x20E PUSH1 0x4 DUP1 CALLDATASIZE SUB DUP2 ADD SWAP1 PUSH2 0x209 SWAP2 SWAP1 PUSH2 0x2024 JUMP JUMPDEST PUSH2 0x654 JUMP JUMPDEST PUSH1 0x40 MLOAD PUSH2 0x21B SWAP2 SWAP1 PUSH2 0x1EE4 JUMP JUMPDEST PUSH1 0x40 MLOAD DUP1 SWAP2 SUB SWAP1 RETURN JUMPDEST CALLVALUE DUP1 ISZERO PUSH2 0x22F JUMPI PUSH0 PUSH0 REVERT JUMPDEST POP PUSH2 0x24A PUSH1 0x4 DUP1 CALLDATASIZE SUB DUP2 ADD SWAP1 PUSH2 0x245 SWAP2 SWAP1 PUSH2 0x2024 JUMP JUMPDEST PUSH2 0x747 JUMP JUMPDEST PUSH1 0x40 MLOAD PUSH2 0x257 SWAP2 SWAP1 PUSH2 0x1EE4 JUMP JUMPDEST PUSH1 0x40 MLOAD DUP1 SWAP2 SUB SWAP1 RETURN JUMPDEST CALLVALUE DUP1 ISZERO PUSH2 0x26B JUMPI PUSH0 PUSH0 REVERT JUMPDEST POP PUSH2 0x286 PUSH1 0x4 DUP1 CALLDATASIZE SUB DUP2 ADD SWAP1 PUSH2 0x281 SWAP2 SWAP1 PUSH2 0x2024 JUMP JUMPDEST PUSH2 0x7F9 JUMP JUMPDEST PUSH1 0x40 MLOAD PUSH2 0x293 SWAP2 SWAP1 PUSH2 0x1EE4 JUMP JUMPDEST PUSH1 0x40 MLOAD DUP1 SWAP2 SUB SWAP1 RETURN JUMPDEST CALLVALUE DUP1 ISZERO PUSH2 0x2A7 JUMPI PUSH0 PUSH0 REVERT JUMPDEST POP PUSH2 0x2C2 PUSH1 0x4 DUP1 CALLDATASIZE SUB DUP2 ADD SWAP1 PUSH2 0x2BD SWAP2 SWAP1 PUSH2 0x1FBE JUMP JUMPDEST PUSH2 0x828 JUMP JUMPDEST STOP JUMPDEST CALLVALUE DUP1 ISZERO PUSH2 0x2CF JUMPI PUSH0 PUSH0 REVERT JUMPDEST POP PUSH2 0x2EA PUSH1 0x4 DUP1 CALLDATASIZE SUB DUP2 ADD SWAP1 PUSH2 0x2E5 SWAP2 SWAP1 PUSH2 0x2024 JUMP JUMPDEST PUSH2 0xA82 JUMP JUMPDEST STOP JUMPDEST CALLVALUE DUP1 ISZERO PUSH2 0x2F7 JUMPI PUSH0 PUSH0 REVERT JUMPDEST POP PUSH2 0x312 PUSH1 0x4 DUP1 CALLDATASIZE SUB DUP2 ADD SWAP1 PUSH2 0x30D SWAP2 SWAP1 PUSH2 0x1FBE JUMP JUMPDEST PUSH2 0xB80 JUMP JUMPDEST STOP JUMPDEST CALLVALUE DUP1 ISZERO PUSH2 0x31F JUMPI PUSH0 PUSH0 REVERT JUMPDEST POP PUSH2 0x328 PUSH2 0xD31 JUMP JUMPDEST PUSH1 0x40 MLOAD PUSH2 0x335 SWAP2 SWAP1 PUSH2 0x1EE4 JUMP JUMPDEST PUSH1 0x40 MLOAD DUP1 SWAP2 SUB SWAP1 RETURN JUMPDEST CALLVALUE DUP1 ISZERO PUSH2 0x349 JUMPI PUSH0 PUSH0 REVERT JUMPDEST POP PUSH2 0x352 PUSH2 0xD3D JUMP JUMPDEST PUSH1 0x40 MLOAD PUSH2 0x35F SWAP2 SWAP1 PUSH2 0x1EE4 JUMP JUMPDEST PUSH1 0x40 MLOAD DUP1 SWAP2 SUB SWAP1 RETURN JUMPDEST CALLVALUE DUP1 ISZERO PUSH2 0x373 JUMPI PUSH0 PUSH0 REVERT JUMPDEST POP PUSH2 0x37C PUSH2 0xD43 JUMP JUMPDEST STOP JUMPDEST PUSH2 0x386 PUSH2 0xD56 JUMP JUMPDEST STOP JUMPDEST CALLVALUE DUP1 ISZERO PUSH2 0x393 JUMPI PUSH0 PUSH0 REVERT JUMPDEST POP PUSH2 0x39C PUSH2 0xE44 JUMP JUMPDEST PUSH1 0x40 MLOAD PUSH2 0x3A9 SWAP2 SWAP1 PUSH2 0x1EE4 JUMP JUMPDEST PUSH1 0x40 MLOAD DUP1 SWAP2 SUB SWAP1 RETURN JUMPDEST CALLVALUE DUP1 ISZERO PUSH2 0x3BD JUMPI PUSH0 PUSH0 REVERT JUMPDEST POP PUSH2 0x3C6 PUSH2 0xE49 JUMP JUMPDEST PUSH1 0x40 MLOAD PUSH2 0x3D3 SWAP2 SWAP1 PUSH2 0x205E JUMP JUMPDEST PUSH1 0x40 MLOAD DUP1 SWAP2 SUB SWAP1 RETURN JUMPDEST CALLVALUE DUP1 ISZERO PUSH2 0x3E7 JUMPI PUSH0 PUSH0 REVERT JUMPDEST POP PUSH2 0x3F0 PUSH2 0xE71 JUMP JUMPDEST PUSH1 0x40 MLOAD PUSH2 0x3FD SWAP2 SWAP1 PUSH2 0x1EE4 JUMP JUMPDEST PUSH1 0x40 MLOAD DUP1 SWAP2 SUB SWAP1 RETURN JUMPDEST CALLVALUE DUP1 ISZERO PUSH2 0x411 JUMPI PUSH0 PUSH0 REVERT JUMPDEST POP PUSH2 0x42C PUSH1 0x4 DUP1 CALLDATASIZE SUB DUP2 ADD SWAP1 PUSH2 0x427 SWAP2 SWAP1 PUSH2 0x1FBE JUMP JUMPDEST PUSH2 0xE77 JUMP JUMPDEST STOP JUMPDEST CALLVALUE DUP1 ISZERO PUSH2 0x439 JUMPI PUSH0 PUSH0 REVERT JUMPDEST POP PUSH2 0x454 PUSH1 0x4 DUP1 CALLDATASIZE SUB DUP2 ADD SWAP1 PUSH2 0x44F SWAP2 SWAP1 PUSH2 0x2024 JUMP JUMPDEST PUSH2 0xF04 JUMP JUMPDEST PUSH1 0x40 MLOAD PUSH2 0x462 SWAP3 SWAP2 SWAP1 PUSH2 0x2077 JUMP JUMPDEST PUSH1 0x40 MLOAD DUP1 SWAP2 SUB SWAP1 RETURN JUMPDEST CALLVALUE DUP1 ISZERO PUSH2 0x476 JUMPI PUSH0 PUSH0 REVERT JUMPDEST POP PUSH2 0x491 PUSH1 0x4 DUP1 CALLDATASIZE SUB DUP2 ADD SWAP1 PUSH2 0x48C SWAP2 SWAP1 PUSH2 0x209E JUMP JUMPDEST PUSH2 0xF24 JUMP JUMPDEST STOP JUMPDEST CALLVALUE DUP1 ISZERO PUSH2 0x49E JUMPI PUSH0 PUSH0 REVERT JUMPDEST POP PUSH2 0x4B9 PUSH1 0x4 DUP1 CALLDATASIZE SUB DUP2 ADD SWAP1 PUSH2 0x4B4 SWAP2 SWAP1 PUSH2 0x2024 JUMP JUMPDEST PUSH2 0x141B JUMP JUMPDEST STOP JUMPDEST CALLVALUE DUP1 ISZERO PUSH2 0x4C6 JUMPI PUSH0 PUSH0 REVERT JUMPDEST POP PUSH2 0x4CF PUSH2 0x1519 JUMP JUMPDEST PUSH1 0x40 MLOAD PUSH2 0x4DC SWAP2 SWAP1 PUSH2 0x1EE4 JUMP JUMPDEST PUSH1 0x40 MLOAD DUP1 SWAP2 SUB SWAP1 RETURN JUMPDEST CALLVALUE DUP1 ISZERO PUSH2 0x4F0 JUMPI PUSH0 PUSH0 REVERT JUMPDEST POP PUSH2 0x50B PUSH1 0x4 DUP1 CALLDATASIZE SUB DUP2 ADD SWAP1 PUSH2 0x506 SWAP2 SWAP1 PUSH2 0x1FBE JUMP JUMPDEST PUSH2 0x151F JUMP JUMPDEST STOP JUMPDEST CALLVALUE DUP1 ISZERO PUSH2 0x518 JUMPI PUSH0 PUSH0 REVERT JUMPDEST POP PUSH2 0x533 PUSH1 0x4 DUP1 CALLDATASIZE SUB DUP2 ADD SWAP1 PUSH2 0x52E SWAP2 SWAP1 PUSH2 0x2024 JUMP JUMPDEST PUSH2 0x182D JUMP JUMPDEST STOP JUMPDEST CALLVALUE DUP1 ISZERO PUSH2 0x540 JUMPI PUSH0 PUSH0 REVERT JUMPDEST POP PUSH2 0x549 PUSH2 0x18B1 JUMP JUMPDEST PUSH1 0x40 MLOAD PUSH2 0x556 SWAP2 SWAP1 PUSH2 0x20FC JUMP JUMPDEST PUSH1 0x40 MLOAD DUP1 SWAP2 SUB SWAP1 RETURN JUMPDEST CALLVALUE DUP1 ISZERO PUSH2 0x56A JUMPI PUSH0 PUSH0 REVERT JUMPDEST POP PUSH2 0x585 PUSH1 0x4 DUP1 CALLDATASIZE SUB DUP2 ADD SWAP1 PUSH2 0x580 SWAP2 SWAP1 PUSH2 0x2024 JUMP JUMPDEST PUSH2 0x18D6 JUMP JUMPDEST PUSH1 0x40 MLOAD PUSH2 0x592 SWAP2 SWAP1 PUSH2 0x1EE4 JUMP JUMPDEST PUSH1 0x40 MLOAD DUP1 SWAP2 SUB SWAP1 RETURN JUMPDEST PUSH1 0x7 SLOAD DUP2 JUMP JUMPDEST PUSH1 0x4 PUSH0 SWAP1 SLOAD SWAP1 PUSH2 0x100 EXP SWAP1 DIV PUSH20 0xFFFFFFFFFFFFFFFFFFFFFFFFFFFFFFFFFFFFFFFF AND DUP2 JUMP JUMPDEST PUSH2 0x5CE PUSH2 0x199D JUMP JUMPDEST PUSH2 0x2710 DUP2 GT ISZERO PUSH2 0x613 JUMPI PUSH1 0x40 MLOAD PUSH32 0x8C379A000000000000000000000000000000000000000000000000000000000 DUP2 MSTORE PUSH1 0x4 ADD PUSH2 0x60A SWAP1 PUSH2 0x216F JUMP JUMPDEST PUSH1 0x40 MLOAD DUP1 SWAP2 SUB SWAP1 REVERT JUMPDEST DUP1 PUSH1 0x7 DUP2 SWAP1 SSTORE POP PUSH32 0xAEBDBB2D62051C61387BF5A1CD77F093484880809EABD6B2ECEFB2DC5869D23D DUP2 PUSH1 0x40 MLOAD PUSH2 0x649 SWAP2 SWAP1 PUSH2 0x1EE4 JUMP JUMPDEST PUSH1 0x40 MLOAD DUP1 SWAP2 SUB SWAP1 LOG1 POP JUMP JUMPDEST PUSH0 PUSH8 0xDE0B6B3A7640000 PUSH1 0x4 PUSH0 SWAP1 SLOAD SWAP1 PUSH2 0x100 EXP SWAP1 DIV PUSH20 0xFFFFFFFFFFFFFFFFFFFFFFFFFFFFFFFFFFFFFFFF AND PUSH20 0xFFFFFFFFFFFFFFFFFFFFFFFFFFFFFFFFFFFFFFFF AND PUSH4 0x8E15F473 PUSH1 0x40 MLOAD DUP2 PUSH4 0xFFFFFFFF AND PUSH1 0xE0 SHL DUP2 MSTORE PUSH1 0x4 ADD PUSH1 0x20 PUSH1 0x40 MLOAD DUP1 DUP4 SUB DUP2 DUP7 GAS STATICCALL ISZERO DUP1 ISZERO PUSH2 0x6C8 JUMPI RETURNDATASIZE PUSH0 PUSH0 RETURNDATACOPY RETURNDATASIZE PUSH0 REVERT JUMPDEST POP POP POP POP PUSH1 0x40 MLOAD RETURNDATASIZE PUSH1 0x1F NOT PUSH1 0x1F DUP3 ADD AND DUP3 ADD DUP1 PUSH1 0x40 MSTORE POP DUP2 ADD SWAP1 PUSH2 0x6EC SWAP2 SWAP1 PUSH2 0x21A1 JUMP JUMPDEST PUSH1 0x2 PUSH0 DUP6 PUSH20 0xFFFFFFFFFFFFFFFFFFFFFFFFFFFFFFFFFFFFFFFF AND PUSH20 0xFFFFFFFFFFFFFFFFFFFFFFFFFFFFFFFFFFFFFFFF AND DUP2 MSTORE PUSH1 0x20 ADD SWAP1 DUP2 MSTORE PUSH1 0x20 ADD PUSH0 KECCAK256 PUSH0 ADD SLOAD PUSH2 0x736 SWAP2 SWAP1 PUSH2 0x21F9 JUMP JUMPDEST PUSH2 0x740 SWAP2 SWAP1 PUSH2 0x2267 JUMP JUMPDEST SWAP1 POP SWAP2 SWAP1 POP JUMP JUMPDEST PUSH0 PUSH0 PUSH2 0x752 DUP4 PUSH2 0x7F9 JUMP JUMPDEST SWAP1 POP DUP1 PUSH1 0x2 PUSH0 DUP6 PUSH20 0xFFFFFFFFFFFFFFFFFFFFFFFFFFFFFFFFFFFFFFFF AND PUSH20 0xFFFFFFFFFFFFFFFFFFFFFFFFFFFFFFFFFFFFFFFF AND DUP2 MSTORE PUSH1 0x20 ADD SWAP1 DUP2 MSTORE PUSH1 0x20 ADD PUSH0 KECCAK256 PUSH1 0x1 ADD SLOAD LT PUSH2 0x7A4 JUMPI PUSH0 SWAP2 POP POP PUSH2 0x7F4 JUMP JUMPDEST PUSH1 0x2 PUSH0 DUP5 PUSH20 0xFFFFFFFFFFFFFFFFFFFFFFFFFFFFFFFFFFFFFFFF AND PUSH20 0xFFFFFFFFFFFFFFFFFFFFFFFFFFFFFFFFFFFFFFFF AND DUP2 MSTORE PUSH1 0x20 ADD SWAP1 DUP2 MSTORE PUSH1 0x20 ADD PUSH0 KECCAK256 PUSH1 0x1 ADD SLOAD DUP2 PUSH2 0x7F0 SWAP2 SWAP1 PUSH2 0x2297 JUMP JUMPDEST SWAP2 POP POP JUMPDEST SWAP2 SWAP1 POP JUMP JUMPDEST PUSH0 PUSH0 PUSH2 0x804 DUP4 PUSH2 0x654 JUMP JUMPDEST SWAP1 POP PUSH1 0x64 PUSH1 0x5 SLOAD DUP3 PUSH2 0x816 SWAP2 SWAP1 PUSH2 0x21F9 JUMP JUMPDEST PUSH2 0x820 SWAP2 SWAP1 PUSH2 0x2267 JUMP JUMPDEST SWAP2 POP POP SWAP2 SWAP1 POP JUMP JUMPDEST PUSH2 0x830 PUSH2 0x1A24 JUMP JUMPDEST PUSH0 DUP2 SUB PUSH2 0x869 JUMPI PUSH1 0x40 MLOAD PUSH32 0x2C5211C600000000000000000000000000000000000000000000000000000000 DUP2 MSTORE PUSH1 0x4 ADD PUSH1 0x40 MLOAD DUP1 SWAP2 SUB SWAP1 REVERT JUMPDEST PUSH0 PUSH1 0x2 PUSH0 CALLER PUSH20 0xFFFFFFFFFFFFFFFFFFFFFFFFFFFFFFFFFFFFFFFF AND PUSH20 0xFFFFFFFFFFFFFFFFFFFFFFFFFFFFFFFFFFFFFFFF AND DUP2 MSTORE PUSH1 0x20 ADD SWAP1 DUP2 MSTORE PUSH1 0x20 ADD PUSH0 KECCAK256 SWAP1 POP PUSH0 DUP2 PUSH1 0x1 ADD SLOAD SUB PUSH2 0x8E6 JUMPI PUSH1 0x40 MLOAD PUSH32 0xB016BE5E00000000000000000000000000000000000000000000000000000000 DUP2 MSTORE PUSH1 0x4 ADD PUSH1 0x40 MLOAD DUP1 SWAP2 SUB SWAP1 REVERT JUMPDEST DUP1 PUSH1 0x1 ADD SLOAD DUP3 GT ISZERO PUSH2 0x935 JUMPI DUP2 DUP2 PUSH1 0x1 ADD SLOAD PUSH1 0x40 MLOAD PUSH32 0x99BCD81300000000000000000000000000000000000000000000000000000000 DUP2 MSTORE PUSH1 0x4 ADD PUSH2 0x92C SWAP3 SWAP2 SWAP1 PUSH2 0x2077 JUMP JUMPDEST PUSH1 0x40 MLOAD DUP1 SWAP2 SUB SWAP1 REVERT JUMPDEST PUSH0 PUSH1 0x3 PUSH0 SWAP1 SLOAD SWAP1 PUSH2 0x100 EXP SWAP1 DIV PUSH20 0xFFFFFFFFFFFFFFFFFFFFFFFFFFFFFFFFFFFFFFFF AND PUSH20 0xFFFFFFFFFFFFFFFFFFFFFFFFFFFFFFFFFFFFFFFF AND PUSH4 0x23B872DD CALLER ADDRESS DUP7 PUSH1 0x40 MLOAD DUP5 PUSH4 0xFFFFFFFF AND PUSH1 0xE0 SHL DUP2 MSTORE PUSH1 0x4 ADD PUSH2 0x994 SWAP4 SWAP3 SWAP2 SWAP1 PUSH2 0x22CA JUMP JUMPDEST PUSH1 0x20 PUSH1 0x40 MLOAD DUP1 DUP4 SUB DUP2 PUSH0 DUP8 GAS CALL ISZERO DUP1 ISZERO PUSH2 0x9B0 JUMPI RETURNDATASIZE PUSH0 PUSH0 RETURNDATACOPY RETURNDATASIZE PUSH0 REVERT JUMPDEST POP POP POP POP PUSH1 0x40 MLOAD RETURNDATASIZE PUSH1 0x1F NOT PUSH1 0x1F DUP3 ADD AND DUP3 ADD DUP1 PUSH1 0x40 MSTORE POP DUP2 ADD SWAP1 PUSH2 0x9D4 SWAP2 SWAP1 PUSH2 0x2334 JUMP JUMPDEST SWAP1 POP DUP1 PUSH2 0xA0D JUMPI PUSH1 0x40 MLOAD PUSH32 0x90B8EC1800000000000000000000000000000000000000000000000000000000 DUP2 MSTORE PUSH1 0x4 ADD PUSH1 0x40 MLOAD DUP1 SWAP2 SUB SWAP1 REVERT JUMPDEST DUP3 DUP3 PUSH1 0x1 ADD PUSH0 DUP3 DUP3 SLOAD PUSH2 0xA20 SWAP2 SWAP1 PUSH2 0x2297 JUMP JUMPDEST SWAP3 POP POP DUP2 SWAP1 SSTORE POP CALLER PUSH20 0xFFFFFFFFFFFFFFFFFFFFFFFFFFFFFFFFFFFFFFFF AND PUSH32 0xB7EFCC12F3D3E74E33995FF303ACA806B9428989809E60A4E5A4D465832966E4 DUP5 PUSH1 0x40 MLOAD PUSH2 0xA6D SWAP2 SWAP1 PUSH2 0x1EE4 JUMP JUMPDEST PUSH1 0x40 MLOAD DUP1 SWAP2 SUB SWAP1 LOG2 POP POP PUSH2 0xA7F PUSH2 0x1A71 JUMP JUMPDEST POP JUMP JUMPDEST PUSH2 0xA8A PUSH2 0x199D JUMP JUMPDEST PUSH0 PUSH20 0xFFFFFFFFFFFFFFFFFFFFFFFFFFFFFFFFFFFFFFFF AND DUP2 PUSH20 0xFFFFFFFFFFFFFFFFFFFFFFFFFFFFFFFFFFFFFFFF AND SUB PUSH2 0xAFA JUMPI DUP1 PUSH1 0x40 MLOAD PUSH32 0x8E4C8AA600000000000000000000000000000000000000000000000000000000 DUP2 MSTORE PUSH1 0x4 ADD PUSH2 0xAF1 SWAP2 SWAP1 PUSH2 0x205E JUMP JUMPDEST PUSH1 0x40 MLOAD DUP1 SWAP2 SUB SWAP1 REVERT JUMPDEST DUP1 PUSH1 0x4 PUSH0 PUSH2 0x100 EXP DUP2 SLOAD DUP2 PUSH20 0xFFFFFFFFFFFFFFFFFFFFFFFFFFFFFFFFFFFFFFFF MUL NOT AND SWAP1 DUP4 PUSH20 0xFFFFFFFFFFFFFFFFFFFFFFFFFFFFFFFFFFFFFFFF AND MUL OR SWAP1 SSTORE POP DUP1 PUSH20 0xFFFFFFFFFFFFFFFFFFFFFFFFFFFFFFFFFFFFFFFF AND PUSH32 0x3DF77BEB5DB05FCDD70A30FC8ADF3F83F9501B68579455ADBD100B8180940394 PUSH1 0x40 MLOAD PUSH1 0x40 MLOAD DUP1 SWAP2 SUB SWAP1 LOG2 POP JUMP JUMPDEST PUSH2 0xB88 PUSH2 0x1A24 JUMP JUMPDEST PUSH0 DUP2 SUB PUSH2 0xBC1 JUMPI PUSH1 0x40 MLOAD PUSH32 0x2C5211C600000000000000000000000000000000000000000000000000000000 DUP2 MSTORE PUSH1 0x4 ADD PUSH1 0x40 MLOAD DUP1 SWAP2 SUB SWAP1 REVERT JUMPDEST PUSH0 PUSH1 0x2 PUSH0 CALLER PUSH20 0xFFFFFFFFFFFFFFFFFFFFFFFFFFFFFFFFFFFFFFFF AND PUSH20 0xFFFFFFFFFFFFFFFFFFFFFFFFFFFFFFFFFFFFFFFF AND DUP2 MSTORE PUSH1 0x20 ADD SWAP1 DUP2 MSTORE PUSH1 0x20 ADD PUSH0 KECCAK256 SWAP1 POP PUSH0 DUP2 PUSH0 ADD SLOAD SUB PUSH2 0xC3D JUMPI PUSH1 0x40 MLOAD PUSH32 0xB016BE5E00000000000000000000000000000000000000000000000000000000 DUP2 MSTORE PUSH1 0x4 ADD PUSH1 0x40 MLOAD DUP1 SWAP2 SUB SWAP1 REVERT JUMPDEST PUSH0 PUSH2 0xC47 CALLER PUSH2 0x7F9 JUMP JUMPDEST SWAP1 POP DUP1 DUP4 DUP4 PUSH1 0x1 ADD SLOAD PUSH2 0xC5A SWAP2 SWAP1 PUSH2 0x235F JUMP JUMPDEST GT ISZERO PUSH2 0xCB2 JUMPI PUSH0 DUP3 PUSH1 0x1 ADD SLOAD DUP3 PUSH2 0xC71 SWAP2 SWAP1 PUSH2 0x2297 JUMP JUMPDEST SWAP1 POP DUP4 DUP2 PUSH1 0x40 MLOAD PUSH32 0xD771D8E900000000000000000000000000000000000000000000000000000000 DUP2 MSTORE PUSH1 0x4 ADD PUSH2 0xCA9 SWAP3 SWAP2 SWAP1 PUSH2 0x2077 JUMP JUMPDEST PUSH1 0x40 MLOAD DUP1 SWAP2 SUB SWAP1 REVERT JUMPDEST DUP3 DUP3 PUSH1 0x1 ADD PUSH0 DUP3 DUP3 SLOAD PUSH2 0xCC5 SWAP2 SWAP1 PUSH2 0x235F JUMP JUMPDEST SWAP3 POP POP DUP2 SWAP1 SSTORE POP PUSH2 0xCD6 CALLER DUP5 PUSH2 0x1A7A JUMP JUMPDEST CALLER PUSH20 0xFFFFFFFFFFFFFFFFFFFFFFFFFFFFFFFFFFFFFFFF AND PUSH32 0x5ABC9A9C4616711EB03D720E050325118645A3695A5E75B5B10A29E2E217FE03 DUP5 PUSH1 0x40 MLOAD PUSH2 0xD1C SWAP2 SWAP1 PUSH2 0x1EE4 JUMP JUMPDEST PUSH1 0x40 MLOAD DUP1 SWAP2 SUB SWAP1 LOG2 POP POP PUSH2 0xD2E PUSH2 0x1A71 JUMP JUMPDEST POP JUMP JUMPDEST PUSH8 0xDE0B6B3A7640000 DUP2 JUMP JUMPDEST PUSH1 0x5 SLOAD DUP2 JUMP JUMPDEST PUSH2 0xD4B PUSH2 0x199D JUMP JUMPDEST PUSH2 0xD54 PUSH0 PUSH2 0x1E02 JUMP JUMPDEST JUMP JUMPDEST PUSH2 0xD5E PUSH2 0x1A24 JUMP JUMPDEST PUSH0 CALLVALUE SUB PUSH2 0xD97 JUMPI PUSH1 0x40 MLOAD PUSH32 0xB016BE5E00000000000000000000000000000000000000000000000000000000 DUP2 MSTORE PUSH1 0x4 ADD PUSH1 0x40 MLOAD DUP1 SWAP2 SUB SWAP1 REVERT JUMPDEST CALLVALUE PUSH1 0x2 PUSH0 CALLER PUSH20 0xFFFFFFFFFFFFFFFFFFFFFFFFFFFFFFFFFFFFFFFF AND PUSH20 0xFFFFFFFFFFFFFFFFFFFFFFFFFFFFFFFFFFFFFFFF AND DUP2 MSTORE PUSH1 0x20 ADD SWAP1 DUP2 MSTORE PUSH1 0x20 ADD PUSH0 KECCAK256 PUSH0 ADD PUSH0 DUP3 DUP3 SLOAD PUSH2 0xDE5 SWAP2 SWAP1 PUSH2 0x235F JUMP JUMPDEST SWAP3 POP POP DUP2 SWAP1 SSTORE POP CALLER PUSH20 0xFFFFFFFFFFFFFFFFFFFFFFFFFFFFFFFFFFFFFFFF AND PUSH32 0x1C0917C3A343A300B56473C59FA8355D3326F2C73472679A5B4CD5D6E0390C80 CALLVALUE PUSH1 0x40 MLOAD PUSH2 0xE32 SWAP2 SWAP1 PUSH2 0x1EE4 JUMP JUMPDEST PUSH1 0x40 MLOAD DUP1 SWAP2 SUB SWAP1 LOG2 PUSH2 0xE42 PUSH2 0x1A71 JUMP JUMPDEST JUMP JUMPDEST PUSH1 0x64 DUP2 JUMP JUMPDEST PUSH0 PUSH1 0x1 PUSH0 SWAP1 SLOAD SWAP1 PUSH2 0x100 EXP SWAP1 DIV PUSH20 0xFFFFFFFFFFFFFFFFFFFFFFFFFFFFFFFFFFFFFFFF AND SWAP1 POP SWAP1 JUMP JUMPDEST PUSH1 0x6 SLOAD DUP2 JUMP JUMPDEST PUSH2 0xE7F PUSH2 0x199D JUMP JUMPDEST PUSH1 0x64 DUP2 GT ISZERO PUSH2 0xEC3 JUMPI PUSH1 0x40 MLOAD PUSH32 0x8C379A000000000000000000000000000000000000000000000000000000000 DUP2 MSTORE PUSH1 0x4 ADD PUSH2 0xEBA SWAP1 PUSH2 0x23DC JUMP JUMPDEST PUSH1 0x40 MLOAD DUP1 SWAP2 SUB SWAP1 REVERT JUMPDEST DUP1 PUSH1 0x5 DUP2 SWAP1 SSTORE POP PUSH32 0xCCE25C35B561657FB7CD2AC403C6A4854283D0F4D462E68E0F97D07C348BCFF2 DUP2 PUSH1 0x40 MLOAD PUSH2 0xEF9 SWAP2 SWAP1 PUSH2 0x1EE4 JUMP JUMPDEST PUSH1 0x40 MLOAD DUP1 SWAP2 SUB SWAP1 LOG1 POP JUMP JUMPDEST PUSH1 0x2 PUSH1 0x20 MSTORE DUP1 PUSH0 MSTORE PUSH1 0x40 PUSH0 KECCAK256 PUSH0 SWAP2 POP SWAP1 POP DUP1 PUSH0 ADD SLOAD SWAP1 DUP1 PUSH1 0x1 ADD SLOAD SWAP1 POP DUP3 JUMP JUMPDEST PUSH2 0xF2C PUSH2 0x1A24 JUMP JUMPDEST PUSH0 DUP2 SUB PUSH2 0xF65 JUMPI PUSH1 0x40 MLOAD PUSH32 0x2C5211C600000000000000000000000000000000000000000000000000000000 DUP2 MSTORE PUSH1 0x4 ADD PUSH1 0x40 MLOAD DUP1 SWAP2 SUB SWAP1 REVERT JUMPDEST PUSH0 PUSH20 0xFFFFFFFFFFFFFFFFFFFFFFFFFFFFFFFFFFFFFFFF AND DUP3 PUSH20 0xFFFFFFFFFFFFFFFFFFFFFFFFFFFFFFFFFFFFFFFF AND SUB PUSH2 0xFD5 JUMPI DUP2 PUSH1 0x40 MLOAD PUSH32 0x8E4C8AA600000000000000000000000000000000000000000000000000000000 DUP2 MSTORE PUSH1 0x4 ADD PUSH2 0xFCC SWAP2 SWAP1 PUSH2 0x205E JUMP JUMPDEST PUSH1 0x40 MLOAD DUP1 SWAP2 SUB SWAP1 REVERT JUMPDEST PUSH0 PUSH1 0x2 PUSH0 DUP5 PUSH20 0xFFFFFFFFFFFFFFFFFFFFFFFFFFFFFFFFFFFFFFFF AND PUSH20 0xFFFFFFFFFFFFFFFFFFFFFFFFFFFFFFFFFFFFFFFF AND DUP2 MSTORE PUSH1 0x20 ADD SWAP1 DUP2 MSTORE PUSH1 0x20 ADD PUSH0 KECCAK256 SWAP1 POP PUSH0 DUP2 PUSH1 0x1 ADD SLOAD SUB PUSH2 0x1052 JUMPI PUSH1 0x40 MLOAD PUSH32 0xB016BE5E00000000000000000000000000000000000000000000000000000000 DUP2 MSTORE PUSH1 0x4 ADD PUSH1 0x40 MLOAD DUP1 SWAP2 SUB SWAP1 REVERT JUMPDEST PUSH0 PUSH1 0x4 PUSH0 SWAP1 SLOAD SWAP1 PUSH2 0x100 EXP SWAP1 DIV PUSH20 0xFFFFFFFFFFFFFFFFFFFFFFFFFFFFFFFFFFFFFFFF AND PUSH20 0xFFFFFFFFFFFFFFFFFFFFFFFFFFFFFFFFFFFFFFFF AND PUSH4 0x8E15F473 PUSH1 0x40 MLOAD DUP2 PUSH4 0xFFFFFFFF AND PUSH1 0xE0 SHL DUP2 MSTORE PUSH1 0x4 ADD PUSH1 0x20 PUSH1 0x40 MLOAD DUP1 DUP4 SUB DUP2 DUP7 GAS STATICCALL ISZERO DUP1 ISZERO PUSH2 0x10BD JUMPI RETURNDATASIZE PUSH0 PUSH0 RETURNDATACOPY RETURNDATASIZE PUSH0 REVERT JUMPDEST POP POP POP POP PUSH1 0x40 MLOAD RETURNDATASIZE PUSH1 0x1F NOT PUSH1 0x1F DUP3 ADD AND DUP3 ADD DUP1 PUSH1 0x40 MSTORE POP DUP2 ADD SWAP1 PUSH2 0x10E1 SWAP2 SWAP1 PUSH2 0x21A1 JUMP JUMPDEST SWAP1 POP PUSH0 PUSH2 0x10ED DUP6 PUSH2 0x654 JUMP JUMPDEST SWAP1 POP PUSH0 PUSH1 0x6 SLOAD DUP3 PUSH2 0x10FE SWAP2 SWAP1 PUSH2 0x21F9 JUMP JUMPDEST SWAP1 POP PUSH0 PUSH1 0x64 DUP6 PUSH1 0x1 ADD SLOAD PUSH2 0x1112 SWAP2 SWAP1 PUSH2 0x21F9 JUMP JUMPDEST SWAP1 POP DUP1 DUP3 LT PUSH2 0x1176 JUMPI DUP1 PUSH8 0xDE0B6B3A7640000 DUP4 PUSH2 0x1130 SWAP2 SWAP1 PUSH2 0x21F9 JUMP JUMPDEST PUSH2 0x113A SWAP2 SWAP1 PUSH2 0x2267 JUMP JUMPDEST PUSH1 0x40 MLOAD PUSH32 0x4FD4B9F700000000000000000000000000000000000000000000000000000000 DUP2 MSTORE PUSH1 0x4 ADD PUSH2 0x116D SWAP2 SWAP1 PUSH2 0x1EE4 JUMP JUMPDEST PUSH1 0x40 MLOAD DUP1 SWAP2 SUB SWAP1 REVERT JUMPDEST PUSH0 DUP6 PUSH1 0x1 ADD SLOAD DUP8 GT PUSH2 0x1188 JUMPI DUP7 PUSH2 0x118E JUMP JUMPDEST DUP6 PUSH1 0x1 ADD SLOAD JUMPDEST SWAP1 POP PUSH0 PUSH1 0x3 PUSH0 SWAP1 SLOAD SWAP1 PUSH2 0x100 EXP SWAP1 DIV PUSH20 0xFFFFFFFFFFFFFFFFFFFFFFFFFFFFFFFFFFFFFFFF AND PUSH20 0xFFFFFFFFFFFFFFFFFFFFFFFFFFFFFFFFFFFFFFFF AND PUSH4 0x23B872DD CALLER ADDRESS DUP6 PUSH1 0x40 MLOAD DUP5 PUSH4 0xFFFFFFFF AND PUSH1 0xE0 SHL DUP2 MSTORE PUSH1 0x4 ADD PUSH2 0x11EF SWAP4 SWAP3 SWAP2 SWAP1 PUSH2 0x22CA JUMP JUMPDEST PUSH1 0x20 PUSH1 0x40 MLOAD DUP1 DUP4 SUB DUP2 PUSH0 DUP8 GAS CALL ISZERO DUP1 ISZERO PUSH2 0x120B JUMPI RETURNDATASIZE PUSH0 PUSH0 RETURNDATACOPY RETURNDATASIZE PUSH0 REVERT JUMPDEST POP POP POP POP PUSH1 0x40 MLOAD RETURNDATASIZE PUSH1 0x1F NOT PUSH1 0x1F DUP3 ADD AND DUP3 ADD DUP1 PUSH1 0x40 MSTORE POP DUP2 ADD SWAP1 PUSH2 0x122F SWAP2 SWAP1 PUSH2 0x2334 JUMP JUMPDEST SWAP1 POP DUP1 PUSH2 0x1268 JUMPI PUSH1 0x40 MLOAD PUSH32 0x90B8EC1800000000000000000000000000000000000000000000000000000000 DUP2 MSTORE PUSH1 0x4 ADD PUSH1 0x40 MLOAD DUP1 SWAP2 SUB SWAP1 REVERT JUMPDEST PUSH0 DUP7 PUSH8 0xDE0B6B3A7640000 DUP5 PUSH2 0x127E SWAP2 SWAP1 PUSH2 0x21F9 JUMP JUMPDEST PUSH2 0x1288 SWAP2 SWAP1 PUSH2 0x2267 JUMP JUMPDEST SWAP1 POP PUSH0 PUSH1 0x7 SLOAD PUSH2 0x2710 PUSH2 0x129B SWAP2 SWAP1 PUSH2 0x235F JUMP JUMPDEST SWAP1 POP PUSH0 PUSH2 0x2710 DUP3 DUP5 PUSH2 0x12AD SWAP2 SWAP1 PUSH2 0x21F9 JUMP JUMPDEST PUSH2 0x12B7 SWAP2 SWAP1 PUSH2 0x2267 JUMP JUMPDEST SWAP1 POP DUP10 PUSH0 ADD SLOAD DUP2 GT ISZERO PUSH2 0x12CB JUMPI DUP10 PUSH0 ADD SLOAD SWAP1 POP JUMPDEST DUP5 DUP11 PUSH1 0x1 ADD PUSH0 DUP3 DUP3 SLOAD PUSH2 0x12DE SWAP2 SWAP1 PUSH2 0x2297 JUMP JUMPDEST SWAP3 POP POP DUP2 SWAP1 SSTORE POP DUP1 DUP11 PUSH0 ADD PUSH0 DUP3 DUP3 SLOAD PUSH2 0x12F7 SWAP2 SWAP1 PUSH2 0x2297 JUMP JUMPDEST SWAP3 POP POP DUP2 SWAP1 SSTORE POP PUSH0 CALLER PUSH20 0xFFFFFFFFFFFFFFFFFFFFFFFFFFFFFFFFFFFFFFFF AND DUP3 PUSH1 0x40 MLOAD PUSH2 0x1323 SWAP1 PUSH2 0x2427 JUMP JUMPDEST PUSH0 PUSH1 0x40 MLOAD DUP1 DUP4 SUB DUP2 DUP6 DUP8 GAS CALL SWAP3 POP POP POP RETURNDATASIZE DUP1 PUSH0 DUP2 EQ PUSH2 0x135D JUMPI PUSH1 0x40 MLOAD SWAP2 POP PUSH1 0x1F NOT PUSH1 0x3F RETURNDATASIZE ADD AND DUP3 ADD PUSH1 0x40 MSTORE RETURNDATASIZE DUP3 MSTORE RETURNDATASIZE PUSH0 PUSH1 0x20 DUP5 ADD RETURNDATACOPY PUSH2 0x1362 JUMP JUMPDEST PUSH1 0x60 SWAP2 POP JUMPDEST POP POP SWAP1 POP DUP1 PUSH2 0x139D JUMPI PUSH1 0x40 MLOAD PUSH32 0x90B8EC1800000000000000000000000000000000000000000000000000000000 DUP2 MSTORE PUSH1 0x4 ADD PUSH1 0x40 MLOAD DUP1 SWAP2 SUB SWAP1 REVERT JUMPDEST DUP13 PUSH20 0xFFFFFFFFFFFFFFFFFFFFFFFFFFFFFFFFFFFFFFFF AND CALLER PUSH20 0xFFFFFFFFFFFFFFFFFFFFFFFFFFFFFFFFFFFFFFFF AND PUSH32 0x4ECAE3269F800DF64B16CB9F6F8B0B507018888521D1CFF0841823E44BC0B00D DUP9 DUP6 PUSH1 0x40 MLOAD PUSH2 0x13FC SWAP3 SWAP2 SWAP1 PUSH2 0x2077 JUMP JUMPDEST PUSH1 0x40 MLOAD DUP1 SWAP2 SUB SWAP1 LOG3 POP POP POP POP POP POP POP POP POP POP POP PUSH2 0x1417 PUSH2 0x1A71 JUMP JUMPDEST POP POP JUMP JUMPDEST PUSH2 0x1423 PUSH2 0x199D JUMP JUMPDEST PUSH0 PUSH20 0xFFFFFFFFFFFFFFFFFFFFFFFFFFFFFFFFFFFFFFFF AND DUP2 PUSH20 0xFFFFFFFFFFFFFFFFFFFFFFFFFFFFFFFFFFFFFFFF AND SUB PUSH2 0x1493 JUMPI DUP1 PUSH1 0x40 MLOAD PUSH32 0x8E4C8AA600000000000000000000000000000000000000000000000000000000 DUP2 MSTORE PUSH1 0x4 ADD PUSH2 0x148A SWAP2 SWAP1 PUSH2 0x205E JUMP JUMPDEST PUSH1 0x40 MLOAD DUP1 SWAP2 SUB SWAP1 REVERT JUMPDEST DUP1 PUSH1 0x3 PUSH0 PUSH2 0x100 EXP DUP2 SLOAD DUP2 PUSH20 0xFFFFFFFFFFFFFFFFFFFFFFFFFFFFFFFFFFFFFFFF MUL NOT AND SWAP1 DUP4 PUSH20 0xFFFFFFFFFFFFFFFFFFFFFFFFFFFFFFFFFFFFFFFF AND MUL OR SWAP1 SSTORE POP DUP1 PUSH20 0xFFFFFFFFFFFFFFFFFFFFFFFFFFFFFFFFFFFFFFFF AND PUSH32 0x81A590C208A61D15BDFB64B188E09C0A6FBC5CC06D3F769DE354972A76D0C12F PUSH1 0x40 MLOAD PUSH1 0x40 MLOAD DUP1 SWAP2 SUB SWAP1 LOG2 POP JUMP JUMPDEST PUSH2 0x2710 DUP2 JUMP JUMPDEST PUSH2 0x1527 PUSH2 0x1A24 JUMP JUMPDEST PUSH0 DUP2 SUB PUSH2 0x1560 JUMPI PUSH1 0x40 MLOAD PUSH32 0x2C5211C600000000000000000000000000000000000000000000000000000000 DUP2 MSTORE PUSH1 0x4 ADD PUSH1 0x40 MLOAD DUP1 SWAP2 SUB SWAP1 REVERT JUMPDEST PUSH0 PUSH1 0x2 PUSH0 CALLER PUSH20 0xFFFFFFFFFFFFFFFFFFFFFFFFFFFFFFFFFFFFFFFF AND PUSH20 0xFFFFFFFFFFFFFFFFFFFFFFFFFFFFFFFFFFFFFFFF AND DUP2 MSTORE PUSH1 0x20 ADD SWAP1 DUP2 MSTORE PUSH1 0x20 ADD PUSH0 KECCAK256 SWAP1 POP DUP2 DUP2 PUSH0 ADD SLOAD LT ISZERO PUSH2 0x15ED JUMPI DUP1 PUSH0 ADD SLOAD DUP3 PUSH1 0x40 MLOAD PUSH32 0x768063DB00000000000000000000000000000000000000000000000000000000 DUP2 MSTORE PUSH1 0x4 ADD PUSH2 0x15E4 SWAP3 SWAP2 SWAP1 PUSH2 0x2077 JUMP JUMPDEST PUSH1 0x40 MLOAD DUP1 SWAP2 SUB SWAP1 REVERT JUMPDEST PUSH0 DUP3 DUP3 PUSH0 ADD SLOAD PUSH2 0x15FD SWAP2 SWAP1 PUSH2 0x2297 JUMP JUMPDEST SWAP1 POP PUSH0 PUSH1 0x4 PUSH0 SWAP1 SLOAD SWAP1 PUSH2 0x100 EXP SWAP1 DIV PUSH20 0xFFFFFFFFFFFFFFFFFFFFFFFFFFFFFFFFFFFFFFFF AND PUSH20 0xFFFFFFFFFFFFFFFFFFFFFFFFFFFFFFFFFFFFFFFF AND PUSH4 0x8E15F473 PUSH1 0x40 MLOAD DUP2 PUSH4 0xFFFFFFFF AND PUSH1 0xE0 SHL DUP2 MSTORE PUSH1 0x4 ADD PUSH1 0x20 PUSH1 0x40 MLOAD DUP1 DUP4 SUB DUP2 DUP7 GAS STATICCALL ISZERO DUP1 ISZERO PUSH2 0x166A JUMPI RETURNDATASIZE PUSH0 PUSH0 RETURNDATACOPY RETURNDATASIZE PUSH0 REVERT JUMPDEST POP POP POP POP PUSH1 0x40 MLOAD RETURNDATASIZE PUSH1 0x1F NOT PUSH1 0x1F DUP3 ADD AND DUP3 ADD DUP1 PUSH1 0x40 MSTORE POP DUP2 ADD SWAP1 PUSH2 0x168E SWAP2 SWAP1 PUSH2 0x21A1 JUMP JUMPDEST SWAP1 POP PUSH0 PUSH8 0xDE0B6B3A7640000 DUP3 DUP5 PUSH2 0x16A6 SWAP2 SWAP1 PUSH2 0x21F9 JUMP JUMPDEST PUSH2 0x16B0 SWAP2 SWAP1 PUSH2 0x2267 JUMP JUMPDEST SWAP1 POP PUSH0 DUP5 PUSH1 0x1 ADD SLOAD GT ISZERO PUSH2 0x1728 JUMPI PUSH0 PUSH1 0x5 SLOAD PUSH1 0x64 DUP7 PUSH1 0x1 ADD SLOAD PUSH2 0x16D3 SWAP2 SWAP1 PUSH2 0x21F9 JUMP JUMPDEST PUSH2 0x16DD SWAP2 SWAP1 PUSH2 0x2267 JUMP JUMPDEST SWAP1 POP DUP1 DUP3 LT ISZERO PUSH2 0x1726 JUMPI PUSH0 DUP2 PUSH1 0x40 MLOAD PUSH32 0xD771D8E900000000000000000000000000000000000000000000000000000000 DUP2 MSTORE PUSH1 0x4 ADD PUSH2 0x171D SWAP3 SWAP2 SWAP1 PUSH2 0x2474 JUMP JUMPDEST PUSH1 0x40 MLOAD DUP1 SWAP2 SUB SWAP1 REVERT JUMPDEST POP JUMPDEST DUP3 DUP5 PUSH0 ADD DUP2 SWAP1 SSTORE POP PUSH0 CALLER PUSH20 0xFFFFFFFFFFFFFFFFFFFFFFFFFFFFFFFFFFFFFFFF AND DUP7 PUSH1 0x40 MLOAD PUSH2 0x1755 SWAP1 PUSH2 0x2427 JUMP JUMPDEST PUSH0 PUSH1 0x40 MLOAD DUP1 DUP4 SUB DUP2 DUP6 DUP8 GAS CALL SWAP3 POP POP POP RETURNDATASIZE DUP1 PUSH0 DUP2 EQ PUSH2 0x178F JUMPI PUSH1 0x40 MLOAD SWAP2 POP PUSH1 0x1F NOT PUSH1 0x3F RETURNDATASIZE ADD AND DUP3 ADD PUSH1 0x40 MSTORE RETURNDATASIZE DUP3 MSTORE RETURNDATASIZE PUSH0 PUSH1 0x20 DUP5 ADD RETURNDATACOPY PUSH2 0x1794 JUMP JUMPDEST PUSH1 0x60 SWAP2 POP JUMPDEST POP POP SWAP1 POP DUP1 PUSH2 0x17CF JUMPI PUSH1 0x40 MLOAD PUSH32 0x90B8EC1800000000000000000000000000000000000000000000000000000000 DUP2 MSTORE PUSH1 0x4 ADD PUSH1 0x40 MLOAD DUP1 SWAP2 SUB SWAP1 REVERT JUMPDEST CALLER PUSH20 0xFFFFFFFFFFFFFFFFFFFFFFFFFFFFFFFFFFFFFFFF AND PUSH32 0x5B0743ACABCE0EA09498B3C2598ED444F80EF6513A2029D7D9AAED87064D1EDB DUP8 PUSH1 0x40 MLOAD PUSH2 0x1815 SWAP2 SWAP1 PUSH2 0x1EE4 JUMP JUMPDEST PUSH1 0x40 MLOAD DUP1 SWAP2 SUB SWAP1 LOG2 POP POP POP POP POP PUSH2 0x182A PUSH2 0x1A71 JUMP JUMPDEST POP JUMP JUMPDEST PUSH2 0x1835 PUSH2 0x199D JUMP JUMPDEST PUSH0 PUSH20 0xFFFFFFFFFFFFFFFFFFFFFFFFFFFFFFFFFFFFFFFF AND DUP2 PUSH20 0xFFFFFFFFFFFFFFFFFFFFFFFFFFFFFFFFFFFFFFFF AND SUB PUSH2 0x18A5 JUMPI PUSH0 PUSH1 0x40 MLOAD PUSH32 0x1E4FBDF700000000000000000000000000000000000000000000000000000000 DUP2 MSTORE PUSH1 0x4 ADD PUSH2 0x189C SWAP2 SWAP1 PUSH2 0x205E JUMP JUMPDEST PUSH1 0x40 MLOAD DUP1 SWAP2 SUB SWAP1 REVERT JUMPDEST PUSH2 0x18AE DUP2 PUSH2 0x1E02 JUMP JUMPDEST POP JUMP JUMPDEST PUSH1 0x3 PUSH0 SWAP1 SLOAD SWAP1 PUSH2 0x100 EXP SWAP1 DIV PUSH20 0xFFFFFFFFFFFFFFFFFFFFFFFFFFFFFFFFFFFFFFFF AND DUP2 JUMP JUMPDEST PUSH0 PUSH0 PUSH1 0x2 PUSH0 DUP5 PUSH20 0xFFFFFFFFFFFFFFFFFFFFFFFFFFFFFFFFFFFFFFFF AND PUSH20 0xFFFFFFFFFFFFFFFFFFFFFFFFFFFFFFFFFFFFFFFF AND DUP2 MSTORE PUSH1 0x20 ADD SWAP1 DUP2 MSTORE PUSH1 0x20 ADD PUSH0 KECCAK256 SWAP1 POP PUSH0 DUP2 PUSH1 0x1 ADD SLOAD SUB PUSH2 0x194B JUMPI PUSH32 0xFFFFFFFFFFFFFFFFFFFFFFFFFFFFFFFFFFFFFFFFFFFFFFFFFFFFFFFFFFFFFFFF SWAP2 POP POP PUSH2 0x1998 JUMP JUMPDEST PUSH0 PUSH2 0x1955 DUP5 PUSH2 0x654 JUMP JUMPDEST SWAP1 POP PUSH1 0x64 DUP3 PUSH1 0x1 ADD SLOAD PUSH2 0x1968 SWAP2 SWAP1 PUSH2 0x21F9 JUMP JUMPDEST PUSH8 0xDE0B6B3A7640000 PUSH1 0x6 SLOAD DUP4 PUSH2 0x197F SWAP2 SWAP1 PUSH2 0x21F9 JUMP JUMPDEST PUSH2 0x1989 SWAP2 SWAP1 PUSH2 0x21F9 JUMP JUMPDEST PUSH2 0x1993 SWAP2 SWAP1 PUSH2 0x2267 JUMP JUMPDEST SWAP3 POP POP POP JUMPDEST SWAP2 SWAP1 POP JUMP JUMPDEST PUSH2 0x19A5 PUSH2 0x1EC5 JUMP JUMPDEST PUSH20 0xFFFFFFFFFFFFFFFFFFFFFFFFFFFFFFFFFFFFFFFF AND PUSH2 0x19C3 PUSH2 0xE49 JUMP JUMPDEST PUSH20 0xFFFFFFFFFFFFFFFFFFFFFFFFFFFFFFFFFFFFFFFF AND EQ PUSH2 0x1A22 JUMPI PUSH2 0x19E6 PUSH2 0x1EC5 JUMP JUMPDEST PUSH1 0x40 MLOAD PUSH32 0x118CDAA700000000000000000000000000000000000000000000000000000000 DUP2 MSTORE PUSH1 0x4 ADD PUSH2 0x1A19 SWAP2 SWAP1 PUSH2 0x205E JUMP JUMPDEST PUSH1 0x40 MLOAD DUP1 SWAP2 SUB SWAP1 REVERT JUMPDEST JUMP JUMPDEST PUSH1 0x2 PUSH0 SLOAD SUB PUSH2 0x1A68 JUMPI PUSH1 0x40 MLOAD PUSH32 0x8C379A000000000000000000000000000000000000000000000000000000000 DUP2 MSTORE PUSH1 0x4 ADD PUSH2 0x1A5F SWAP1 PUSH2 0x24E5 JUMP JUMPDEST PUSH1 0x40 MLOAD DUP1 SWAP2 SUB SWAP1 REVERT JUMPDEST PUSH1 0x2 PUSH0 DUP2 SWAP1 SSTORE POP JUMP JUMPDEST PUSH1 0x1 PUSH0 DUP2 SWAP1 SSTORE POP JUMP JUMPDEST PUSH0 PUSH1 0x3 PUSH0 SWAP1 SLOAD SWAP1 PUSH2 0x100 EXP SWAP1 DIV PUSH20 0xFFFFFFFFFFFFFFFFFFFFFFFFFFFFFFFFFFFFFFFF AND PUSH20 0xFFFFFFFFFFFFFFFFFFFFFFFFFFFFFFFFFFFFFFFF AND PUSH4 0x70A08231 ADDRESS PUSH1 0x40 MLOAD DUP3 PUSH4 0xFFFFFFFF AND PUSH1 0xE0 SHL DUP2 MSTORE PUSH1 0x4 ADD PUSH2 0x1AD5 SWAP2 SWAP1 PUSH2 0x205E JUMP JUMPDEST PUSH1 0x20 PUSH1 0x40 MLOAD DUP1 DUP4 SUB DUP2 DUP7 GAS STATICCALL ISZERO DUP1 ISZERO PUSH2 0x1AF0 JUMPI RETURNDATASIZE PUSH0 PUSH0 RETURNDATACOPY RETURNDATASIZE PUSH0 REVERT JUMPDEST POP POP POP POP PUSH1 0x40 MLOAD RETURNDATASIZE PUSH1 0x1F NOT PUSH1 0x1F DUP3 ADD AND DUP3 ADD DUP1 PUSH1 0x40 MSTORE POP DUP2 ADD SWAP1 PUSH2 0x1B14 SWAP2 SWAP1 PUSH2 0x21A1 JUMP JUMPDEST SWAP1 POP DUP2 DUP2 LT PUSH2 0x1BFA JUMPI PUSH0 PUSH1 0x3 PUSH0 SWAP1 SLOAD SWAP1 PUSH2 0x100 EXP SWAP1 DIV PUSH20 0xFFFFFFFFFFFFFFFFFFFFFFFFFFFFFFFFFFFFFFFF AND PUSH20 0xFFFFFFFFFFFFFFFFFFFFFFFFFFFFFFFFFFFFFFFF AND PUSH4 0xA9059CBB DUP6 DUP6 PUSH1 0x40 MLOAD DUP4 PUSH4 0xFFFFFFFF AND PUSH1 0xE0 SHL DUP2 MSTORE PUSH1 0x4 ADD PUSH2 0x1B7A SWAP3 SWAP2 SWAP1 PUSH2 0x2503 JUMP JUMPDEST PUSH1 0x20 PUSH1 0x40 MLOAD DUP1 DUP4 SUB DUP2 PUSH0 DUP8 GAS CALL ISZERO DUP1 ISZERO PUSH2 0x1B96 JUMPI RETURNDATASIZE PUSH0 PUSH0 RETURNDATACOPY RETURNDATASIZE PUSH0 REVERT JUMPDEST POP POP POP POP PUSH1 0x40 MLOAD RETURNDATASIZE PUSH1 0x1F NOT PUSH1 0x1F DUP3 ADD AND DUP3 ADD DUP1 PUSH1 0x40 MSTORE POP DUP2 ADD SWAP1 PUSH2 0x1BBA SWAP2 SWAP1 PUSH2 0x2334 JUMP JUMPDEST SWAP1 POP DUP1 PUSH2 0x1BF3 JUMPI PUSH1 0x40 MLOAD PUSH32 0x90B8EC1800000000000000000000000000000000000000000000000000000000 DUP2 MSTORE PUSH1 0x4 ADD PUSH1 0x40 MLOAD DUP1 SWAP2 SUB SWAP1 REVERT JUMPDEST POP POP PUSH2 0x1DFE JUMP JUMPDEST PUSH0 DUP2 DUP4 PUSH2 0x1C07 SWAP2 SWAP1 PUSH2 0x2297 JUMP JUMPDEST SWAP1 POP PUSH0 DUP3 GT ISZERO PUSH2 0x1CE9 JUMPI PUSH0 PUSH1 0x3 PUSH0 SWAP1 SLOAD SWAP1 PUSH2 0x100 EXP SWAP1 DIV PUSH20 0xFFFFFFFFFFFFFFFFFFFFFFFFFFFFFFFFFFFFFFFF AND PUSH20 0xFFFFFFFFFFFFFFFFFFFFFFFFFFFFFFFFFFFFFFFF AND PUSH4 0xA9059CBB DUP7 DUP6 PUSH1 0x40 MLOAD DUP4 PUSH4 0xFFFFFFFF AND PUSH1 0xE0 SHL DUP2 MSTORE PUSH1 0x4 ADD PUSH2 0x1C6E SWAP3 SWAP2 SWAP1 PUSH2 0x2503 JUMP JUMPDEST PUSH1 0x20 PUSH1 0x40 MLOAD DUP1 DUP4 SUB DUP2 PUSH0 DUP8 GAS CALL ISZERO DUP1 ISZERO PUSH2 0x1C8A JUMPI RETURNDATASIZE PUSH0 PUSH0 RETURNDATACOPY RETURNDATASIZE PUSH0 REVERT JUMPDEST POP POP POP POP PUSH1 0x40 MLOAD RETURNDATASIZE PUSH1 0x1F NOT PUSH1 0x1F DUP3 ADD AND DUP3 ADD DUP1 PUSH1 0x40 MSTORE POP DUP2 ADD SWAP1 PUSH2 0x1CAE SWAP2 SWAP1 PUSH2 0x2334 JUMP JUMPDEST SWAP1 POP DUP1 PUSH2 0x1CE7 JUMPI PUSH1 0x40 MLOAD PUSH32 0x90B8EC1800000000000000000000000000000000000000000000000000000000 DUP2 MSTORE PUSH1 0x4 ADD PUSH1 0x40 MLOAD DUP1 SWAP2 SUB SWAP1 REVERT JUMPDEST POP JUMPDEST PUSH1 0x3 PUSH0 SWAP1 SLOAD SWAP1 PUSH2 0x100 EXP SWAP1 DIV PUSH20 0xFFFFFFFFFFFFFFFFFFFFFFFFFFFFFFFFFFFFFFFF AND PUSH20 0xFFFFFFFFFFFFFFFFFFFFFFFFFFFFFFFFFFFFFFFF AND PUSH4 0x40C10F19 DUP6 DUP4 PUSH1 0x40 MLOAD DUP4 PUSH4 0xFFFFFFFF AND PUSH1 0xE0 SHL DUP2 MSTORE PUSH1 0x4 ADD PUSH2 0x1D45 SWAP3 SWAP2 SWAP1 PUSH2 0x2503 JUMP JUMPDEST PUSH1 0x20 PUSH1 0x40 MLOAD DUP1 DUP4 SUB DUP2 PUSH0 DUP8 GAS CALL SWAP3 POP POP POP DUP1 ISZERO PUSH2 0x1D80 JUMPI POP PUSH1 0x40 MLOAD RETURNDATASIZE PUSH1 0x1F NOT PUSH1 0x1F DUP3 ADD AND DUP3 ADD DUP1 PUSH1 0x40 MSTORE POP DUP2 ADD SWAP1 PUSH2 0x1D7D SWAP2 SWAP1 PUSH2 0x2334 JUMP JUMPDEST PUSH1 0x1 JUMPDEST PUSH2 0x1DC3 JUMPI DUP3 DUP3 PUSH1 0x40 MLOAD PUSH32 0x206ADEE000000000000000000000000000000000000000000000000000000000 DUP2 MSTORE PUSH1 0x4 ADD PUSH2 0x1DBA SWAP3 SWAP2 SWAP1 PUSH2 0x2077 JUMP JUMPDEST PUSH1 0x40 MLOAD DUP1 SWAP2 SUB SWAP1 REVERT JUMPDEST DUP1 PUSH2 0x1DFA JUMPI PUSH1 0x40 MLOAD PUSH32 0x6A17288200000000000000000000000000000000000000000000000000000000 DUP2 MSTORE PUSH1 0x4 ADD PUSH1 0x40 MLOAD DUP1 SWAP2 SUB SWAP1 REVERT JUMPDEST POP POP POP JUMPDEST POP POP JUMP JUMPDEST PUSH0 PUSH1 0x1 PUSH0 SWAP1 SLOAD SWAP1 PUSH2 0x100 EXP SWAP1 DIV PUSH20 0xFFFFFFFFFFFFFFFFFFFFFFFFFFFFFFFFFFFFFFFF AND SWAP1 POP DUP2 PUSH1 0x1 PUSH0 PUSH2 0x100 EXP DUP2 SLOAD DUP2 PUSH20 0xFFFFFFFFFFFFFFFFFFFFFFFFFFFFFFFFFFFFFFFF MUL NOT AND SWAP1 DUP4 PUSH20 0xFFFFFFFFFFFFFFFFFFFFFFFFFFFFFFFFFFFFFFFF AND MUL OR SWAP1 SSTORE POP DUP2 PUSH20 0xFFFFFFFFFFFFFFFFFFFFFFFFFFFFFFFFFFFFFFFF AND DUP2 PUSH20 0xFFFFFFFFFFFFFFFFFFFFFFFFFFFFFFFFFFFFFFFF AND PUSH32 0x8BE0079C531659141344CD1FD0A4F28419497F9722A3DAAFE3B4186F6B6457E0 PUSH1 0x40 MLOAD PUSH1 0x40 MLOAD DUP1 SWAP2 SUB SWAP1 LOG3 POP POP JUMP JUMPDEST PUSH0 CALLER SWAP1 POP SWAP1 JUMP JUMPDEST PUSH0 DUP2 SWAP1 POP SWAP2 SWAP1 POP JUMP JUMPDEST PUSH2 0x1EDE DUP2 PUSH2 0x1ECC JUMP JUMPDEST DUP3 MSTORE POP POP JUMP JUMPDEST PUSH0 PUSH1 0x20 DUP3 ADD SWAP1 POP PUSH2 0x1EF7 PUSH0 DUP4 ADD DUP5 PUSH2 0x1ED5 JUMP JUMPDEST SWAP3 SWAP2 POP POP JUMP JUMPDEST PUSH0 PUSH20 0xFFFFFFFFFFFFFFFFFFFFFFFFFFFFFFFFFFFFFFFF DUP3 AND SWAP1 POP SWAP2 SWAP1 POP JUMP JUMPDEST PUSH0 DUP2 SWAP1 POP SWAP2 SWAP1 POP JUMP JUMPDEST PUSH0 PUSH2 0x1F3F PUSH2 0x1F3A PUSH2 0x1F35 DUP5 PUSH2 0x1EFD JUMP JUMPDEST PUSH2 0x1F1C JUMP JUMPDEST PUSH2 0x1EFD JUMP JUMPDEST SWAP1 POP SWAP2 SWAP1 POP JUMP JUMPDEST PUSH0 PUSH2 0x1F50 DUP3 PUSH2 0x1F25 JUMP JUMPDEST SWAP1 POP SWAP2 SWAP1 POP JUMP JUMPDEST PUSH0 PUSH2 0x1F61 DUP3 PUSH2 0x1F46 JUMP JUMPDEST SWAP1 POP SWAP2 SWAP1 POP JUMP JUMPDEST PUSH2 0x1F71 DUP2 PUSH2 0x1F57 JUMP JUMPDEST DUP3 MSTORE POP POP JUMP JUMPDEST PUSH0 PUSH1 0x20 DUP3 ADD SWAP1 POP PUSH2 0x1F8A PUSH0 DUP4 ADD DUP5 PUSH2 0x1F68 JUMP JUMPDEST SWAP3 SWAP2 POP POP JUMP JUMPDEST PUSH0 PUSH0 REVERT JUMPDEST PUSH2 0x1F9D DUP2 PUSH2 0x1ECC JUMP JUMPDEST DUP2 EQ PUSH2 0x1FA7 JUMPI PUSH0 PUSH0 REVERT JUMPDEST POP JUMP JUMPDEST PUSH0 DUP2 CALLDATALOAD SWAP1 POP PUSH2 0x1FB8 DUP2 PUSH2 0x1F94 JUMP JUMPDEST SWAP3 SWAP2 POP POP JUMP JUMPDEST PUSH0 PUSH1 0x20 DUP3 DUP5 SUB SLT ISZERO PUSH2 0x1FD3 JUMPI PUSH2 0x1FD2 PUSH2 0x1F90 JUMP JUMPDEST JUMPDEST PUSH0 PUSH2 0x1FE0 DUP5 DUP3 DUP6 ADD PUSH2 0x1FAA JUMP JUMPDEST SWAP2 POP POP SWAP3 SWAP2 POP POP JUMP JUMPDEST PUSH0 PUSH2 0x1FF3 DUP3 PUSH2 0x1EFD JUMP JUMPDEST SWAP1 POP SWAP2 SWAP1 POP JUMP JUMPDEST PUSH2 0x2003 DUP2 PUSH2 0x1FE9 JUMP JUMPDEST DUP2 EQ PUSH2 0x200D JUMPI PUSH0 PUSH0 REVERT JUMPDEST POP JUMP JUMPDEST PUSH0 DUP2 CALLDATALOAD SWAP1 POP PUSH2 0x201E DUP2 PUSH2 0x1FFA JUMP JUMPDEST SWAP3 SWAP2 POP POP JUMP JUMPDEST PUSH0 PUSH1 0x20 DUP3 DUP5 SUB SLT ISZERO PUSH2 0x2039 JUMPI PUSH2 0x2038 PUSH2 0x1F90 JUMP JUMPDEST JUMPDEST PUSH0 PUSH2 0x2046 DUP5 DUP3 DUP6 ADD PUSH2 0x2010 JUMP JUMPDEST SWAP2 POP POP SWAP3 SWAP2 POP POP JUMP JUMPDEST PUSH2 0x2058 DUP2 PUSH2 0x1FE9 JUMP JUMPDEST DUP3 MSTORE POP POP JUMP JUMPDEST PUSH0 PUSH1 0x20 DUP3 ADD SWAP1 POP PUSH2 0x2071 PUSH0 DUP4 ADD DUP5 PUSH2 0x204F JUMP JUMPDEST SWAP3 SWAP2 POP POP JUMP JUMPDEST PUSH0 PUSH1 0x40 DUP3 ADD SWAP1 POP PUSH2 0x208A PUSH0 DUP4 ADD DUP6 PUSH2 0x1ED5 JUMP JUMPDEST PUSH2 0x2097 PUSH1 0x20 DUP4 ADD DUP5 PUSH2 0x1ED5 JUMP JUMPDEST SWAP4 SWAP3 POP POP POP JUMP JUMPDEST PUSH0 PUSH0 PUSH1 0x40 DUP4 DUP6 SUB SLT ISZERO PUSH2 0x20B4 JUMPI PUSH2 0x20B3 PUSH2 0x1F90 JUMP JUMPDEST JUMPDEST PUSH0 PUSH2 0x20C1 DUP6 DUP3 DUP7 ADD PUSH2 0x2010 JUMP JUMPDEST SWAP3 POP POP PUSH1 0x20 PUSH2 0x20D2 DUP6 DUP3 DUP7 ADD PUSH2 0x1FAA JUMP JUMPDEST SWAP2 POP POP SWAP3 POP SWAP3 SWAP1 POP JUMP JUMPDEST PUSH0 PUSH2 0x20E6 DUP3 PUSH2 0x1F46 JUMP JUMPDEST SWAP1 POP SWAP2 SWAP1 POP JUMP JUMPDEST PUSH2 0x20F6 DUP2 PUSH2 0x20DC JUMP JUMPDEST DUP3 MSTORE POP POP JUMP JUMPDEST PUSH0 PUSH1 0x20 DUP3 ADD SWAP1 POP PUSH2 0x210F PUSH0 DUP4 ADD DUP5 PUSH2 0x20ED JUMP JUMPDEST SWAP3 SWAP2 POP POP JUMP JUMPDEST PUSH0 DUP3 DUP3 MSTORE PUSH1 0x20 DUP3 ADD SWAP1 POP SWAP3 SWAP2 POP POP JUMP JUMPDEST PUSH32 0x6261642062707300000000000000000000000000000000000000000000000000 PUSH0 DUP3 ADD MSTORE POP JUMP JUMPDEST PUSH0 PUSH2 0x2159 PUSH1 0x7 DUP4 PUSH2 0x2115 JUMP JUMPDEST SWAP2 POP PUSH2 0x2164 DUP3 PUSH2 0x2125 JUMP JUMPDEST PUSH1 0x20 DUP3 ADD SWAP1 POP SWAP2 SWAP1 POP JUMP JUMPDEST PUSH0 PUSH1 0x20 DUP3 ADD SWAP1 POP DUP2 DUP2 SUB PUSH0 DUP4 ADD MSTORE PUSH2 0x2186 DUP2 PUSH2 0x214D JUMP JUMPDEST SWAP1 POP SWAP2 SWAP1 POP JUMP JUMPDEST PUSH0 DUP2 MLOAD SWAP1 POP PUSH2 0x219B DUP2 PUSH2 0x1F94 JUMP JUMPDEST SWAP3 SWAP2 POP POP JUMP JUMPDEST PUSH0 PUSH1 0x20 DUP3 DUP5 SUB SLT ISZERO PUSH2 0x21B6 JUMPI PUSH2 0x21B5 PUSH2 0x1F90 JUMP JUMPDEST JUMPDEST PUSH0 PUSH2 0x21C3 DUP5 DUP3 DUP6 ADD PUSH2 0x218D JUMP JUMPDEST SWAP2 POP POP SWAP3 SWAP2 POP POP JUMP JUMPDEST PUSH32 0x4E487B7100000000000000000000000000000000000000000000000000000000 PUSH0 MSTORE PUSH1 0x11 PUSH1 0x4 MSTORE PUSH1 0x24 PUSH0 REVERT JUMPDEST PUSH0 PUSH2 0x2203 DUP3 PUSH2 0x1ECC JUMP JUMPDEST SWAP2 POP PUSH2 0x220E DUP4 PUSH2 0x1ECC JUMP JUMPDEST SWAP3 POP DUP3 DUP3 MUL PUSH2 0x221C DUP2 PUSH2 0x1ECC JUMP JUMPDEST SWAP2 POP DUP3 DUP3 DIV DUP5 EQ DUP4 ISZERO OR PUSH2 0x2233 JUMPI PUSH2 0x2232 PUSH2 0x21CC JUMP JUMPDEST JUMPDEST POP SWAP3 SWAP2 POP POP JUMP JUMPDEST PUSH32 0x4E487B7100000000000000000000000000000000000000000000000000000000 PUSH0 MSTORE PUSH1 0x12 PUSH1 0x4 MSTORE PUSH1 0x24 PUSH0 REVERT JUMPDEST PUSH0 PUSH2 0x2271 DUP3 PUSH2 0x1ECC JUMP JUMPDEST SWAP2 POP PUSH2 0x227C DUP4 PUSH2 0x1ECC JUMP JUMPDEST SWAP3 POP DUP3 PUSH2 0x228C JUMPI PUSH2 0x228B PUSH2 0x223A JUMP JUMPDEST JUMPDEST DUP3 DUP3 DIV SWAP1 POP SWAP3 SWAP2 POP POP JUMP JUMPDEST PUSH0 PUSH2 0x22A1 DUP3 PUSH2 0x1ECC JUMP JUMPDEST SWAP2 POP PUSH2 0x22AC DUP4 PUSH2 0x1ECC JUMP JUMPDEST SWAP3 POP DUP3 DUP3 SUB SWAP1 POP DUP2 DUP2 GT ISZERO PUSH2 0x22C4 JUMPI PUSH2 0x22C3 PUSH2 0x21CC JUMP JUMPDEST JUMPDEST SWAP3 SWAP2 POP POP JUMP JUMPDEST PUSH0 PUSH1 0x60 DUP3 ADD SWAP1 POP PUSH2 0x22DD PUSH0 DUP4 ADD DUP7 PUSH2 0x204F JUMP JUMPDEST PUSH2 0x22EA PUSH1 0x20 DUP4 ADD DUP6 PUSH2 0x204F JUMP JUMPDEST PUSH2 0x22F7 PUSH1 0x40 DUP4 ADD DUP5 PUSH2 0x1ED5 JUMP JUMPDEST SWAP5 SWAP4 POP POP POP POP JUMP JUMPDEST PUSH0 DUP2 ISZERO ISZERO SWAP1 POP SWAP2 SWAP1 POP JUMP JUMPDEST PUSH2 0x2313 DUP2 PUSH2 0x22FF JUMP JUMPDEST DUP2 EQ PUSH2 0x231D JUMPI PUSH0 PUSH0 REVERT JUMPDEST POP JUMP JUMPDEST PUSH0 DUP2 MLOAD SWAP1 POP PUSH2 0x232E DUP2 PUSH2 0x230A JUMP JUMPDEST SWAP3 SWAP2 POP POP JUMP JUMPDEST PUSH0 PUSH1 0x20 DUP3 DUP5 SUB SLT ISZERO PUSH2 0x2349 JUMPI PUSH2 0x2348 PUSH2 0x1F90 JUMP JUMPDEST JUMPDEST PUSH0 PUSH2 0x2356 DUP5 DUP3 DUP6 ADD PUSH2 0x2320 JUMP JUMPDEST SWAP2 POP POP SWAP3 SWAP2 POP POP JUMP JUMPDEST PUSH0 PUSH2 0x2369 DUP3 PUSH2 0x1ECC JUMP JUMPDEST SWAP2 POP PUSH2 0x2374 DUP4 PUSH2 0x1ECC JUMP JUMPDEST SWAP3 POP DUP3 DUP3 ADD SWAP1 POP DUP1 DUP3 GT ISZERO PUSH2 0x238C JUMPI PUSH2 0x238B PUSH2 0x21CC JUMP JUMPDEST JUMPDEST SWAP3 SWAP2 POP POP JUMP JUMPDEST PUSH32 0x626164206C747600000000000000000000000000000000000000000000000000 PUSH0 DUP3 ADD MSTORE POP JUMP JUMPDEST PUSH0 PUSH2 0x23C6 PUSH1 0x7 DUP4 PUSH2 0x2115 JUMP JUMPDEST SWAP2 POP PUSH2 0x23D1 DUP3 PUSH2 0x2392 JUMP JUMPDEST PUSH1 0x20 DUP3 ADD SWAP1 POP SWAP2 SWAP1 POP JUMP JUMPDEST PUSH0 PUSH1 0x20 DUP3 ADD SWAP1 POP DUP2 DUP2 SUB PUSH0 DUP4 ADD MSTORE PUSH2 0x23F3 DUP2 PUSH2 0x23BA JUMP JUMPDEST SWAP1 POP SWAP2 SWAP1 POP JUMP JUMPDEST PUSH0 DUP2 SWAP1 POP SWAP3 SWAP2 POP POP JUMP JUMPDEST POP JUMP JUMPDEST PUSH0 PUSH2 0x2412 PUSH0 DUP4 PUSH2 0x23FA JUMP JUMPDEST SWAP2 POP PUSH2 0x241D DUP3 PUSH2 0x2404 JUMP JUMPDEST PUSH0 DUP3 ADD SWAP1 POP SWAP2 SWAP1 POP JUMP JUMPDEST PUSH0 PUSH2 0x2431 DUP3 PUSH2 0x2407 JUMP JUMPDEST SWAP2 POP DUP2 SWAP1 POP SWAP2 SWAP1 POP JUMP JUMPDEST PUSH0 DUP2 SWAP1 POP SWAP2 SWAP1 POP JUMP JUMPDEST PUSH0 PUSH2 0x245E PUSH2 0x2459 PUSH2 0x2454 DUP5 PUSH2 0x243B JUMP JUMPDEST PUSH2 0x1F1C JUMP JUMPDEST PUSH2 0x1ECC JUMP JUMPDEST SWAP1 POP SWAP2 SWAP1 POP JUMP JUMPDEST PUSH2 0x246E DUP2 PUSH2 0x2444 JUMP JUMPDEST DUP3 MSTORE POP POP JUMP JUMPDEST PUSH0 PUSH1 0x40 DUP3 ADD SWAP1 POP PUSH2 0x2487 PUSH0 DUP4 ADD DUP6 PUSH2 0x2465 JUMP JUMPDEST PUSH2 0x2494 PUSH1 0x20 DUP4 ADD DUP5 PUSH2 0x1ED5 JUMP JUMPDEST SWAP4 SWAP3 POP POP POP JUMP JUMPDEST PUSH32 0x5265656E7472616E637947756172643A207265656E7472616E742063616C6C00 PUSH0 DUP3 ADD MSTORE POP JUMP JUMPDEST PUSH0 PUSH2 0x24CF PUSH1 0x1F DUP4 PUSH2 0x2115 JUMP JUMPDEST SWAP2 POP PUSH2 0x24DA DUP3 PUSH2 0x249B JUMP JUMPDEST PUSH1 0x20 DUP3 ADD SWAP1 POP SWAP2 SWAP1 POP JUMP JUMPDEST PUSH0 PUSH1 0x20 DUP3 ADD SWAP1 POP DUP2 DUP2 SUB PUSH0 DUP4 ADD MSTORE PUSH2 0x24FC DUP2 PUSH2 0x24C3 JUMP JUMPDEST SWAP1 POP SWAP2 SWAP1 POP JUMP JUMPDEST PUSH0 PUSH1 0x40 DUP3 ADD SWAP1 POP PUSH2 0x2516 PUSH0 DUP4 ADD DUP6 PUSH2 0x204F JUMP JUMPDEST PUSH2 0x2523 PUSH1 0x20 DUP4 ADD DUP5 PUSH2 0x1ED5 JUMP JUMPDEST SWAP4 SWAP3 POP POP POP JUMP INVALID LOG2 PUSH5 0x6970667358 0x22 SLT KECCAK256 DIV PUSH19 0xC204AA4620D5002E63835B1F7420DC858AD996 PUSH10 0x77EF8F2C2877413258D7 PUSH5 0x736F6C6343 STOP ADDMOD 0x1F STOP CALLER "
				},
				"gasEstimates": {
					"creation": {
						"codeDepositCost": "1913600",
						"executionCost": "infinite",
						"totalCost": "infinite"
					},
					"external": {
						"": "240",
						"BPS_DENOMINATOR()": "414",
						"PCT_DENOMINATOR()": "370",
						"WAD()": "414",
						"availableToBorrow(address)": "infinite",
						"borrowUsd(uint256)": "infinite",
						"collateralValueUsd(address)": "infinite",
						"healthFactorWad(address)": "infinite",
						"liquidate(address,uint256)": "infinite",
						"liquidationBonusBps()": "2449",
						"liquidationThresholdPct()": "2514",
						"ltvPct()": "2536",
						"maxBorrowAllowed(address)": "infinite",
						"owner()": "2582",
						"priceOracle()": "infinite",
						"renounceOwnership()": "infinite",
						"repayUsd(uint256)": "infinite",
						"setLiquidationBonus(uint256)": "infinite",
						"setLtv(uint256)": "infinite",
						"setPriceOracle(address)": "infinite",
						"setUsdToken(address)": "infinite",
						"stakeEth()": "infinite",
						"transferOwnership(address)": "infinite",
						"usdToken()": "infinite",
						"users(address)": "infinite",
						"withdrawCollateralEth(uint256)": "infinite"
					},
					"internal": {
						"_ensureFundsAndTransfer(address,uint256)": "infinite"
					}
				},
				"methodIdentifiers": {
					"BPS_DENOMINATOR()": "e1a45218",
					"PCT_DENOMINATOR()": "80b1acf5",
					"WAD()": "6a146024",
					"availableToBorrow(address)": "2c38199e",
					"borrowUsd(uint256)": "5c2e3de2",
					"collateralValueUsd(address)": "29f98057",
					"healthFactorWad(address)": "fb2926b2",
					"liquidate(address,uint256)": "bcbaf487",
					"liquidationBonusBps()": "19970d8e",
					"liquidationThresholdPct()": "97d43965",
					"ltvPct()": "6f811a2d",
					"maxBorrowAllowed(address)": "30f883e3",
					"owner()": "8da5cb5b",
					"priceOracle()": "2630c12f",
					"renounceOwnership()": "715018a6",
					"repayUsd(uint256)": "4aed0980",
					"setLiquidationBonus(uint256)": "28842d4f",
					"setLtv(uint256)": "a37e52e3",
					"setPriceOracle(address)": "530e784f",
					"setUsdToken(address)": "da805590",
					"stakeEth()": "7a5f0dc4",
					"transferOwnership(address)": "f2fde38b",
					"usdToken()": "f897a22b",
					"users(address)": "a87430ba",
					"withdrawCollateralEth(uint256)": "e1bf0a4b"
				}
			},
			"storageLayout": {
				"storage": [
					{
						"astId": 158,
						"contract": "src/contracts/mini.sol:MiniLendRefactored",
						"label": "_status",
						"offset": 0,
						"slot": "0",
						"type": "t_uint256"
					},
					{
						"astId": 8,
						"contract": "src/contracts/mini.sol:MiniLendRefactored",
						"label": "_owner",
						"offset": 0,
						"slot": "1",
						"type": "t_address"
					},
					{
						"astId": 742,
						"contract": "src/contracts/mini.sol:MiniLendRefactored",
						"label": "users",
						"offset": 0,
						"slot": "2",
						"type": "t_mapping(t_address,t_struct(User)737_storage)"
					},
					{
						"astId": 745,
						"contract": "src/contracts/mini.sol:MiniLendRefactored",
						"label": "usdToken",
						"offset": 0,
						"slot": "3",
						"type": "t_contract(IERC20)290"
					},
					{
						"astId": 748,
						"contract": "src/contracts/mini.sol:MiniLendRefactored",
						"label": "priceOracle",
						"offset": 0,
						"slot": "4",
						"type": "t_contract(IPriceOracle)615"
					},
					{
						"astId": 760,
						"contract": "src/contracts/mini.sol:MiniLendRefactored",
						"label": "ltvPct",
						"offset": 0,
						"slot": "5",
						"type": "t_uint256"
					},
					{
						"astId": 763,
						"contract": "src/contracts/mini.sol:MiniLendRefactored",
						"label": "liquidationThresholdPct",
						"offset": 0,
						"slot": "6",
						"type": "t_uint256"
					},
					{
						"astId": 766,
						"contract": "src/contracts/mini.sol:MiniLendRefactored",
						"label": "liquidationBonusBps",
						"offset": 0,
						"slot": "7",
						"type": "t_uint256"
					}
				],
				"types": {
					"t_address": {
						"encoding": "inplace",
						"label": "address",
						"numberOfBytes": "20"
					},
					"t_contract(IERC20)290": {
						"encoding": "inplace",
						"label": "contract IERC20",
						"numberOfBytes": "20"
					},
					"t_contract(IPriceOracle)615": {
						"encoding": "inplace",
						"label": "contract IPriceOracle",
						"numberOfBytes": "20"
					},
					"t_mapping(t_address,t_struct(User)737_storage)": {
						"encoding": "mapping",
						"key": "t_address",
						"label": "mapping(address => struct MiniLendRefactored.User)",
						"numberOfBytes": "32",
						"value": "t_struct(User)737_storage"
					},
					"t_struct(User)737_storage": {
						"encoding": "inplace",
						"label": "struct MiniLendRefactored.User",
						"members": [
							{
								"astId": 734,
								"contract": "src/contracts/mini.sol:MiniLendRefactored",
								"label": "stakedEth",
								"offset": 0,
								"slot": "0",
								"type": "t_uint256"
							},
							{
								"astId": 736,
								"contract": "src/contracts/mini.sol:MiniLendRefactored",
								"label": "borrowedUsd",
								"offset": 0,
								"slot": "1",
								"type": "t_uint256"
							}
						],
						"numberOfBytes": "64"
					},
					"t_uint256": {
						"encoding": "inplace",
						"label": "uint256",
						"numberOfBytes": "32"
					}
				}
			},
			"userdoc": {
				"kind": "user",
				"methods": {
					"availableToBorrow(address)": {
						"notice": "Returns available to borrow right now"
					},
					"borrowUsd(uint256)": {
						"notice": "Borrow USD up to LTV limit. USD amounts are 18-decimal."
					},
					"collateralValueUsd(address)": {
						"notice": "Returns collateral value in USD (18 decimals)"
					},
					"healthFactorWad(address)": {
						"notice": "Returns health factor scaled by WAD (>=WAD => healthy)"
					},
					"liquidate(address,uint256)": {
						"notice": "Liquidate an undercollateralized position by repaying part or all of the borrow. liquidator provides USD (transferFrom) to repay `repayAmount`. They receive ETH collateral plus bonus."
					},
					"maxBorrowAllowed(address)": {
						"notice": "Returns max borrow allowed (USD 18 decimals)"
					},
					"repayUsd(uint256)": {
						"notice": "Repay borrowed USD. Overpayment not allowed."
					},
					"stakeEth()": {
						"notice": "Stake ETH as collateral"
					},
					"withdrawCollateralEth(uint256)": {
						"notice": "Withdraw collateral (partial or full) if health remains >= 1 after withdrawal"
					}
				},
				"version": 1
			}
		}
	}
}