{
	"src/contracts/MiniLend.sol": {
		"MiniLend": {
			"abi": [
				{
					"inputs": [
						{
							"internalType": "address",
							"name": "_mockusdtAddress",
							"type": "address"
						}
					],
					"stateMutability": "nonpayable",
					"type": "constructor"
				},
				{
					"inputs": [
						{
							"internalType": "uint256",
							"name": "amount",
							"type": "uint256"
						},
						{
							"internalType": "uint256",
							"name": "availableToBorrow",
							"type": "uint256"
						}
					],
					"name": "BorrowLimitExceeded",
					"type": "error"
				},
				{
					"inputs": [
						{
							"internalType": "uint256",
							"name": "balance",
							"type": "uint256"
						}
					],
					"name": "BorrowedAmountNotFullyRepaid",
					"type": "error"
				},
				{
					"inputs": [
						{
							"internalType": "address",
							"name": "addr",
							"type": "address"
						}
					],
					"name": "InvalidAddress",
					"type": "error"
				},
				{
					"inputs": [],
					"name": "InvalidAmount",
					"type": "error"
				},
				{
					"inputs": [],
					"name": "NoCollateralProvided",
					"type": "error"
				},
				{
					"inputs": [],
					"name": "NoUsdtBorrowed",
					"type": "error"
				},
				{
					"inputs": [
						{
							"internalType": "uint256",
							"name": "collateralBalance",
							"type": "uint256"
						},
						{
							"internalType": "uint256",
							"name": "userInput",
							"type": "uint256"
						}
					],
					"name": "NotEnoughCollateral",
					"type": "error"
				},
				{
					"inputs": [
						{
							"internalType": "uint256",
							"name": "amountPaid",
							"type": "uint256"
						},
						{
							"internalType": "uint256",
							"name": "expectedAmount",
							"type": "uint256"
						}
					],
					"name": "OverPaymentNotSupported",
					"type": "error"
				},
				{
					"anonymous": false,
					"inputs": [
						{
							"indexed": true,
							"internalType": "address",
							"name": "user",
							"type": "address"
						},
						{
							"indexed": false,
							"internalType": "uint256",
							"name": "amount",
							"type": "uint256"
						}
					],
					"name": "ETHCollateralWithdrawn",
					"type": "event"
				},
				{
					"anonymous": false,
					"inputs": [
						{
							"indexed": true,
							"internalType": "address",
							"name": "user",
							"type": "address"
						},
						{
							"indexed": false,
							"internalType": "uint256",
							"name": "ethAmount",
							"type": "uint256"
						}
					],
					"name": "EthStaked",
					"type": "event"
				},
				{
					"anonymous": false,
					"inputs": [
						{
							"indexed": true,
							"internalType": "address",
							"name": "user",
							"type": "address"
						},
						{
							"indexed": false,
							"internalType": "uint256",
							"name": "usdAmount",
							"type": "uint256"
						}
					],
					"name": "USDBorrowed",
					"type": "event"
				},
				{
					"anonymous": false,
					"inputs": [
						{
							"indexed": true,
							"internalType": "address",
							"name": "user",
							"type": "address"
						},
						{
							"indexed": false,
							"internalType": "uint256",
							"name": "usdAmount",
							"type": "uint256"
						}
					],
					"name": "USDRepaid",
					"type": "event"
				},
				{
					"stateMutability": "payable",
					"type": "fallback"
				},
				{
					"inputs": [
						{
							"internalType": "uint256",
							"name": "amount",
							"type": "uint256"
						}
					],
					"name": "borrowUsd",
					"outputs": [],
					"stateMutability": "nonpayable",
					"type": "function"
				},
				{
					"inputs": [],
					"name": "getContractEthBal",
					"outputs": [
						{
							"internalType": "uint256",
							"name": "",
							"type": "uint256"
						}
					],
					"stateMutability": "view",
					"type": "function"
				},
				{
					"inputs": [],
					"name": "getContractUsdBal",
					"outputs": [
						{
							"internalType": "uint256",
							"name": "",
							"type": "uint256"
						}
					],
					"stateMutability": "view",
					"type": "function"
				},
				{
					"inputs": [],
					"name": "mockusdt",
					"outputs": [
						{
							"internalType": "contract MockUsdt",
							"name": "",
							"type": "address"
						}
					],
					"stateMutability": "view",
					"type": "function"
				},
				{
					"inputs": [
						{
							"internalType": "uint256",
							"name": "amount",
							"type": "uint256"
						}
					],
					"name": "repayUsd",
					"outputs": [],
					"stateMutability": "nonpayable",
					"type": "function"
				},
				{
					"inputs": [],
					"name": "stakeEth",
					"outputs": [],
					"stateMutability": "payable",
					"type": "function"
				},
				{
					"inputs": [
						{
							"internalType": "address",
							"name": "",
							"type": "address"
						}
					],
					"name": "users",
					"outputs": [
						{
							"internalType": "uint256",
							"name": "stakedEth",
							"type": "uint256"
						},
						{
							"internalType": "uint256",
							"name": "borrowedUsdt",
							"type": "uint256"
						}
					],
					"stateMutability": "view",
					"type": "function"
				},
				{
					"inputs": [
						{
							"internalType": "uint256",
							"name": "amount",
							"type": "uint256"
						}
					],
					"name": "withdrawCollateralEth",
					"outputs": [],
					"stateMutability": "nonpayable",
					"type": "function"
				},
				{
					"stateMutability": "payable",
					"type": "receive"
				}
			],
			"devdoc": {
				"kind": "dev",
				"methods": {},
				"version": 1
			},
			"evm": {
				"assembly": "    /* \"src/contracts/MiniLend.sol\":325:5654  contract MiniLend {... */\n  mstore(0x40, 0x80)\n    /* \"src/contracts/MiniLend.sol\":1469:1691  constructor(address _mockusdtAddress) {... */\n  callvalue\n  dup1\n  iszero\n  tag_1\n  jumpi\n  revert(0x00, 0x00)\ntag_1:\n  pop\n  mload(0x40)\n  sub(codesize, bytecodeSize)\n  dup1\n  bytecodeSize\n  dup4\n  codecopy\n  dup2\n  dup2\n  add\n  0x40\n  mstore\n  dup2\n  add\n  swap1\n  tag_2\n  swap2\n  swap1\n  tag_3\n  jump\t// in\ntag_2:\n    /* \"src/contracts/MiniLend.sol\":1549:1550  0 */\n  0x00\n    /* \"src/contracts/MiniLend.sol\":1521:1551  _mockusdtAddress != address(0) */\n  0xffffffffffffffffffffffffffffffffffffffff\n  and\n    /* \"src/contracts/MiniLend.sol\":1521:1537  _mockusdtAddress */\n  dup2\n    /* \"src/contracts/MiniLend.sol\":1521:1551  _mockusdtAddress != address(0) */\n  0xffffffffffffffffffffffffffffffffffffffff\n  and\n  eq\n    /* \"src/contracts/MiniLend.sol\":1517:1685  if (_mockusdtAddress != address(0)) {... */\n  tag_6\n  jumpi\n    /* \"src/contracts/MiniLend.sol\":1587:1603  _mockusdtAddress */\n  dup1\n    /* \"src/contracts/MiniLend.sol\":1567:1575  mockusdt */\n  0x00\n  0x00\n    /* \"src/contracts/MiniLend.sol\":1567:1604  mockusdt = MockUsdt(_mockusdtAddress) */\n  0x0100\n  exp\n  dup2\n  sload\n  dup2\n  0xffffffffffffffffffffffffffffffffffffffff\n  mul\n  not\n  and\n  swap1\n  dup4\n  0xffffffffffffffffffffffffffffffffffffffff\n  and\n  mul\n  or\n  swap1\n  sstore\n  pop\n    /* \"src/contracts/MiniLend.sol\":1517:1685  if (_mockusdtAddress != address(0)) {... */\n  jump(tag_7)\ntag_6:\n    /* \"src/contracts/MiniLend.sol\":1657:1673  _mockusdtAddress */\n  dup1\n    /* \"src/contracts/MiniLend.sol\":1642:1674  InvalidAddress(_mockusdtAddress) */\n  mload(0x40)\n  0x8e4c8aa600000000000000000000000000000000000000000000000000000000\n  dup2\n  mstore\n  0x04\n  add\n  tag_8\n  swap2\n  swap1\n  tag_9\n  jump\t// in\ntag_8:\n  mload(0x40)\n  dup1\n  swap2\n  sub\n  swap1\n  revert\n    /* \"src/contracts/MiniLend.sol\":1517:1685  if (_mockusdtAddress != address(0)) {... */\ntag_7:\n    /* \"src/contracts/MiniLend.sol\":1469:1691  constructor(address _mockusdtAddress) {... */\n  pop\n    /* \"src/contracts/MiniLend.sol\":325:5654  contract MiniLend {... */\n  jump(tag_10)\n    /* \"#utility.yul\":88:205   */\ntag_12:\n    /* \"#utility.yul\":197:198   */\n  0x00\n    /* \"#utility.yul\":194:195   */\n  0x00\n    /* \"#utility.yul\":187:199   */\n  revert\n    /* \"#utility.yul\":334:460   */\ntag_14:\n    /* \"#utility.yul\":371:378   */\n  0x00\n    /* \"#utility.yul\":411:453   */\n  0xffffffffffffffffffffffffffffffffffffffff\n    /* \"#utility.yul\":404:409   */\n  dup3\n    /* \"#utility.yul\":400:454   */\n  and\n    /* \"#utility.yul\":389:454   */\n  swap1\n  pop\n    /* \"#utility.yul\":334:460   */\n  swap2\n  swap1\n  pop\n  jump\t// out\n    /* \"#utility.yul\":466:562   */\ntag_15:\n    /* \"#utility.yul\":503:510   */\n  0x00\n    /* \"#utility.yul\":532:556   */\n  tag_25\n    /* \"#utility.yul\":550:555   */\n  dup3\n    /* \"#utility.yul\":532:556   */\n  tag_14\n  jump\t// in\ntag_25:\n    /* \"#utility.yul\":521:556   */\n  swap1\n  pop\n    /* \"#utility.yul\":466:562   */\n  swap2\n  swap1\n  pop\n  jump\t// out\n    /* \"#utility.yul\":568:690   */\ntag_16:\n    /* \"#utility.yul\":641:665   */\n  tag_27\n    /* \"#utility.yul\":659:664   */\n  dup2\n    /* \"#utility.yul\":641:665   */\n  tag_15\n  jump\t// in\ntag_27:\n    /* \"#utility.yul\":634:639   */\n  dup2\n    /* \"#utility.yul\":631:666   */\n  eq\n    /* \"#utility.yul\":621:684   */\n  tag_28\n  jumpi\n    /* \"#utility.yul\":680:681   */\n  0x00\n    /* \"#utility.yul\":677:678   */\n  0x00\n    /* \"#utility.yul\":670:682   */\n  revert\n    /* \"#utility.yul\":621:684   */\ntag_28:\n    /* \"#utility.yul\":568:690   */\n  pop\n  jump\t// out\n    /* \"#utility.yul\":696:839   */\ntag_17:\n    /* \"#utility.yul\":753:758   */\n  0x00\n    /* \"#utility.yul\":784:790   */\n  dup2\n    /* \"#utility.yul\":778:791   */\n  mload\n    /* \"#utility.yul\":769:791   */\n  swap1\n  pop\n    /* \"#utility.yul\":800:833   */\n  tag_30\n    /* \"#utility.yul\":827:832   */\n  dup2\n    /* \"#utility.yul\":800:833   */\n  tag_16\n  jump\t// in\ntag_30:\n    /* \"#utility.yul\":696:839   */\n  swap3\n  swap2\n  pop\n  pop\n  jump\t// out\n    /* \"#utility.yul\":845:1196   */\ntag_3:\n    /* \"#utility.yul\":915:921   */\n  0x00\n    /* \"#utility.yul\":964:966   */\n  0x20\n    /* \"#utility.yul\":952:961   */\n  dup3\n    /* \"#utility.yul\":943:950   */\n  dup5\n    /* \"#utility.yul\":939:962   */\n  sub\n    /* \"#utility.yul\":935:967   */\n  slt\n    /* \"#utility.yul\":932:1051   */\n  iszero\n  tag_32\n  jumpi\n    /* \"#utility.yul\":970:1049   */\n  tag_33\n  tag_12\n  jump\t// in\ntag_33:\n    /* \"#utility.yul\":932:1051   */\ntag_32:\n    /* \"#utility.yul\":1090:1091   */\n  0x00\n    /* \"#utility.yul\":1115:1179   */\n  tag_34\n    /* \"#utility.yul\":1171:1178   */\n  dup5\n    /* \"#utility.yul\":1162:1168   */\n  dup3\n    /* \"#utility.yul\":1151:1160   */\n  dup6\n    /* \"#utility.yul\":1147:1169   */\n  add\n    /* \"#utility.yul\":1115:1179   */\n  tag_17\n  jump\t// in\ntag_34:\n    /* \"#utility.yul\":1105:1179   */\n  swap2\n  pop\n    /* \"#utility.yul\":1061:1189   */\n  pop\n    /* \"#utility.yul\":845:1196   */\n  swap3\n  swap2\n  pop\n  pop\n  jump\t// out\n    /* \"#utility.yul\":1202:1320   */\ntag_18:\n    /* \"#utility.yul\":1289:1313   */\n  tag_36\n    /* \"#utility.yul\":1307:1312   */\n  dup2\n    /* \"#utility.yul\":1289:1313   */\n  tag_15\n  jump\t// in\ntag_36:\n    /* \"#utility.yul\":1284:1287   */\n  dup3\n    /* \"#utility.yul\":1277:1314   */\n  mstore\n    /* \"#utility.yul\":1202:1320   */\n  pop\n  pop\n  jump\t// out\n    /* \"#utility.yul\":1326:1548   */\ntag_9:\n    /* \"#utility.yul\":1419:1423   */\n  0x00\n    /* \"#utility.yul\":1457:1459   */\n  0x20\n    /* \"#utility.yul\":1446:1455   */\n  dup3\n    /* \"#utility.yul\":1442:1460   */\n  add\n    /* \"#utility.yul\":1434:1460   */\n  swap1\n  pop\n    /* \"#utility.yul\":1470:1541   */\n  tag_38\n    /* \"#utility.yul\":1538:1539   */\n  0x00\n    /* \"#utility.yul\":1527:1536   */\n  dup4\n    /* \"#utility.yul\":1523:1540   */\n  add\n    /* \"#utility.yul\":1514:1520   */\n  dup5\n    /* \"#utility.yul\":1470:1541   */\n  tag_18\n  jump\t// in\ntag_38:\n    /* \"#utility.yul\":1326:1548   */\n  swap3\n  swap2\n  pop\n  pop\n  jump\t// out\n    /* \"src/contracts/MiniLend.sol\":325:5654  contract MiniLend {... */\ntag_10:\n  dataSize(sub_0)\n  dup1\n  dataOffset(sub_0)\n  0x00\n  codecopy\n  0x00\n  return\nstop\n\nsub_0: assembly {\n        /* \"src/contracts/MiniLend.sol\":325:5654  contract MiniLend {... */\n      mstore(0x40, 0x80)\n      jumpi(tag_1, lt(calldatasize, 0x04))\n      shr(0xe0, calldataload(0x00))\n      dup1\n      0x685398e7\n      gt\n      tag_11\n      jumpi\n      dup1\n      0x685398e7\n      eq\n      tag_7\n      jumpi\n      dup1\n      0x7a5f0dc4\n      eq\n      tag_8\n      jumpi\n      dup1\n      0xa87430ba\n      eq\n      tag_9\n      jumpi\n      dup1\n      0xe1bf0a4b\n      eq\n      tag_10\n      jumpi\n      jump(tag_2)\n    tag_11:\n      dup1\n      0x0ce90e5f\n      eq\n      tag_3\n      jumpi\n      dup1\n      0x0fb9f035\n      eq\n      tag_4\n      jumpi\n      dup1\n      0x4aed0980\n      eq\n      tag_5\n      jumpi\n      dup1\n      0x5c2e3de2\n      eq\n      tag_6\n      jumpi\n      jump(tag_2)\n    tag_1:\n    tag_2:\n      stop\n        /* \"src/contracts/MiniLend.sol\":1945:2049  function getContractEthBal() public view returns (uint256) {... */\n    tag_3:\n      callvalue\n      dup1\n      iszero\n      tag_16\n      jumpi\n      revert(0x00, 0x00)\n    tag_16:\n      pop\n      tag_17\n      tag_18\n      jump\t// in\n    tag_17:\n      mload(0x40)\n      tag_19\n      swap2\n      swap1\n      tag_20\n      jump\t// in\n    tag_19:\n      mload(0x40)\n      dup1\n      swap2\n      sub\n      swap1\n      return\n        /* \"src/contracts/MiniLend.sol\":349:373  MockUsdt public mockusdt */\n    tag_4:\n      callvalue\n      dup1\n      iszero\n      tag_21\n      jumpi\n      revert(0x00, 0x00)\n    tag_21:\n      pop\n      tag_22\n      tag_23\n      jump\t// in\n    tag_22:\n      mload(0x40)\n      tag_24\n      swap2\n      swap1\n      tag_25\n      jump\t// in\n    tag_24:\n      mload(0x40)\n      dup1\n      swap2\n      sub\n      swap1\n      return\n        /* \"src/contracts/MiniLend.sol\":3276:3872  function repayUsd(uint256 amount) public {... */\n    tag_5:\n      callvalue\n      dup1\n      iszero\n      tag_26\n      jumpi\n      revert(0x00, 0x00)\n    tag_26:\n      pop\n      tag_27\n      0x04\n      dup1\n      calldatasize\n      sub\n      dup2\n      add\n      swap1\n      tag_28\n      swap2\n      swap1\n      tag_29\n      jump\t// in\n    tag_28:\n      tag_30\n      jump\t// in\n    tag_27:\n      stop\n        /* \"src/contracts/MiniLend.sol\":2304:3270  function borrowUsd(uint256 amount) external {... */\n    tag_6:\n      callvalue\n      dup1\n      iszero\n      tag_31\n      jumpi\n      revert(0x00, 0x00)\n    tag_31:\n      pop\n      tag_32\n      0x04\n      dup1\n      calldatasize\n      sub\n      dup2\n      add\n      swap1\n      tag_33\n      swap2\n      swap1\n      tag_29\n      jump\t// in\n    tag_33:\n      tag_34\n      jump\t// in\n    tag_32:\n      stop\n        /* \"src/contracts/MiniLend.sol\":1823:1939  function getContractUsdBal() public view returns (uint256) {... */\n    tag_7:\n      callvalue\n      dup1\n      iszero\n      tag_35\n      jumpi\n      revert(0x00, 0x00)\n    tag_35:\n      pop\n      tag_36\n      tag_37\n      jump\t// in\n    tag_36:\n      mload(0x40)\n      tag_38\n      swap2\n      swap1\n      tag_20\n      jump\t// in\n    tag_38:\n      mload(0x40)\n      dup1\n      swap2\n      sub\n      swap1\n      return\n        /* \"src/contracts/MiniLend.sol\":2055:2298  function stakeEth() public payable {... */\n    tag_8:\n      tag_39\n      tag_40\n      jump\t// in\n    tag_39:\n      stop\n        /* \"src/contracts/MiniLend.sol\":1179:1216  mapping(address => User) public users */\n    tag_9:\n      callvalue\n      dup1\n      iszero\n      tag_41\n      jumpi\n      revert(0x00, 0x00)\n    tag_41:\n      pop\n      tag_42\n      0x04\n      dup1\n      calldatasize\n      sub\n      dup2\n      add\n      swap1\n      tag_43\n      swap2\n      swap1\n      tag_44\n      jump\t// in\n    tag_43:\n      tag_45\n      jump\t// in\n    tag_42:\n      mload(0x40)\n      tag_46\n      swap3\n      swap2\n      swap1\n      tag_47\n      jump\t// in\n    tag_46:\n      mload(0x40)\n      dup1\n      swap2\n      sub\n      swap1\n      return\n        /* \"src/contracts/MiniLend.sol\":3953:4592  function withdrawCollateralEth(uint256 amount) public {... */\n    tag_10:\n      callvalue\n      dup1\n      iszero\n      tag_48\n      jumpi\n      revert(0x00, 0x00)\n    tag_48:\n      pop\n      tag_49\n      0x04\n      dup1\n      calldatasize\n      sub\n      dup2\n      add\n      swap1\n      tag_50\n      swap2\n      swap1\n      tag_29\n      jump\t// in\n    tag_50:\n      tag_51\n      jump\t// in\n    tag_49:\n      stop\n        /* \"src/contracts/MiniLend.sol\":1945:2049  function getContractEthBal() public view returns (uint256) {... */\n    tag_18:\n        /* \"src/contracts/MiniLend.sol\":1995:2002  uint256 */\n      0x00\n        /* \"src/contracts/MiniLend.sol\":2021:2042  address(this).balance */\n      selfbalance\n        /* \"src/contracts/MiniLend.sol\":2014:2042  return address(this).balance */\n      swap1\n      pop\n        /* \"src/contracts/MiniLend.sol\":1945:2049  function getContractEthBal() public view returns (uint256) {... */\n      swap1\n      jump\t// out\n        /* \"src/contracts/MiniLend.sol\":349:373  MockUsdt public mockusdt */\n    tag_23:\n      0x00\n      0x00\n      swap1\n      sload\n      swap1\n      0x0100\n      exp\n      swap1\n      div\n      0xffffffffffffffffffffffffffffffffffffffff\n      and\n      dup2\n      jump\t// out\n        /* \"src/contracts/MiniLend.sol\":3276:3872  function repayUsd(uint256 amount) public {... */\n    tag_30:\n        /* \"src/contracts/MiniLend.sol\":3327:3344  User storage user */\n      0x00\n        /* \"src/contracts/MiniLend.sol\":3347:3352  users */\n      0x01\n        /* \"src/contracts/MiniLend.sol\":3347:3364  users[msg.sender] */\n      0x00\n        /* \"src/contracts/MiniLend.sol\":3353:3363  msg.sender */\n      caller\n        /* \"src/contracts/MiniLend.sol\":3347:3364  users[msg.sender] */\n      0xffffffffffffffffffffffffffffffffffffffff\n      and\n      0xffffffffffffffffffffffffffffffffffffffff\n      and\n      dup2\n      mstore\n      0x20\n      add\n      swap1\n      dup2\n      mstore\n      0x20\n      add\n      0x00\n      keccak256\n        /* \"src/contracts/MiniLend.sol\":3327:3364  User storage user = users[msg.sender] */\n      swap1\n      pop\n        /* \"src/contracts/MiniLend.sol\":3388:3389  0 */\n      0x00\n        /* \"src/contracts/MiniLend.sol\":3378:3384  amount */\n      dup3\n        /* \"src/contracts/MiniLend.sol\":3378:3389  amount == 0 */\n      eq\n        /* \"src/contracts/MiniLend.sol\":3378:3415  amount == 0 || user.borrowedUsdt == 0 */\n      dup1\n      tag_54\n      jumpi\n      pop\n        /* \"src/contracts/MiniLend.sol\":3414:3415  0 */\n      0x00\n        /* \"src/contracts/MiniLend.sol\":3393:3397  user */\n      dup2\n        /* \"src/contracts/MiniLend.sol\":3393:3410  user.borrowedUsdt */\n      0x01\n      add\n      sload\n        /* \"src/contracts/MiniLend.sol\":3393:3415  user.borrowedUsdt == 0 */\n      eq\n        /* \"src/contracts/MiniLend.sol\":3378:3415  amount == 0 || user.borrowedUsdt == 0 */\n    tag_54:\n        /* \"src/contracts/MiniLend.sol\":3374:3440  if (amount == 0 || user.borrowedUsdt == 0) revert NoUsdtBorrowed() */\n      iszero\n      tag_55\n      jumpi\n        /* \"src/contracts/MiniLend.sol\":3424:3440  NoUsdtBorrowed() */\n      mload(0x40)\n      0xf79050d000000000000000000000000000000000000000000000000000000000\n      dup2\n      mstore\n      0x04\n      add\n      mload(0x40)\n      dup1\n      swap2\n      sub\n      swap1\n      revert\n        /* \"src/contracts/MiniLend.sol\":3374:3440  if (amount == 0 || user.borrowedUsdt == 0) revert NoUsdtBorrowed() */\n    tag_55:\n        /* \"src/contracts/MiniLend.sol\":3465:3469  user */\n      dup1\n        /* \"src/contracts/MiniLend.sol\":3465:3482  user.borrowedUsdt */\n      0x01\n      add\n      sload\n        /* \"src/contracts/MiniLend.sol\":3455:3461  amount */\n      dup3\n        /* \"src/contracts/MiniLend.sol\":3455:3482  amount <= user.borrowedUsdt */\n      gt\n        /* \"src/contracts/MiniLend.sol\":3451:3783  if (amount <= user.borrowedUsdt) {... */\n      tag_56\n      jumpi\n        /* \"src/contracts/MiniLend.sol\":3579:3587  mockusdt */\n      0x00\n      0x00\n      swap1\n      sload\n      swap1\n      0x0100\n      exp\n      swap1\n      div\n      0xffffffffffffffffffffffffffffffffffffffff\n      and\n        /* \"src/contracts/MiniLend.sol\":3579:3600  mockusdt.transferFrom */\n      0xffffffffffffffffffffffffffffffffffffffff\n      and\n      0x23b872dd\n        /* \"src/contracts/MiniLend.sol\":3601:3611  msg.sender */\n      caller\n        /* \"src/contracts/MiniLend.sol\":3621:3625  this */\n      address\n        /* \"src/contracts/MiniLend.sol\":3628:3634  amount */\n      dup6\n        /* \"src/contracts/MiniLend.sol\":3579:3635  mockusdt.transferFrom(msg.sender, address(this), amount) */\n      mload(0x40)\n      dup5\n      0xffffffff\n      and\n      0xe0\n      shl\n      dup2\n      mstore\n      0x04\n      add\n      tag_57\n      swap4\n      swap3\n      swap2\n      swap1\n      tag_58\n      jump\t// in\n    tag_57:\n      0x20\n      mload(0x40)\n      dup1\n      dup4\n      sub\n      dup2\n      0x00\n      dup8\n      gas\n      call\n      iszero\n      dup1\n      iszero\n      tag_60\n      jumpi\n      returndatacopy(0x00, 0x00, returndatasize)\n      revert(0x00, returndatasize)\n    tag_60:\n      pop\n      pop\n      pop\n      pop\n      mload(0x40)\n      returndatasize\n      not(0x1f)\n      0x1f\n      dup3\n      add\n      and\n      dup3\n      add\n      dup1\n      0x40\n      mstore\n      pop\n      dup2\n      add\n      swap1\n      tag_61\n      swap2\n      swap1\n      tag_62\n      jump\t// in\n    tag_61:\n        /* \"src/contracts/MiniLend.sol\":3554:3684  require(... */\n      tag_63\n      jumpi\n      mload(0x40)\n      0x08c379a000000000000000000000000000000000000000000000000000000000\n      dup2\n      mstore\n      0x04\n      add\n      tag_64\n      swap1\n      tag_65\n      jump\t// in\n    tag_64:\n      mload(0x40)\n      dup1\n      swap2\n      sub\n      swap1\n      revert\n    tag_63:\n        /* \"src/contracts/MiniLend.sol\":3451:3783  if (amount <= user.borrowedUsdt) {... */\n      jump(tag_66)\n    tag_56:\n        /* \"src/contracts/MiniLend.sol\":3746:3752  amount */\n      dup2\n        /* \"src/contracts/MiniLend.sol\":3754:3758  user */\n      dup2\n        /* \"src/contracts/MiniLend.sol\":3754:3771  user.borrowedUsdt */\n      0x01\n      add\n      sload\n        /* \"src/contracts/MiniLend.sol\":3722:3772  OverPaymentNotSupported(amount, user.borrowedUsdt) */\n      mload(0x40)\n      0x99bcd81300000000000000000000000000000000000000000000000000000000\n      dup2\n      mstore\n      0x04\n      add\n      tag_67\n      swap3\n      swap2\n      swap1\n      tag_47\n      jump\t// in\n    tag_67:\n      mload(0x40)\n      dup1\n      swap2\n      sub\n      swap1\n      revert\n        /* \"src/contracts/MiniLend.sol\":3451:3783  if (amount <= user.borrowedUsdt) {... */\n    tag_66:\n        /* \"src/contracts/MiniLend.sol\":3814:3820  amount */\n      dup2\n        /* \"src/contracts/MiniLend.sol\":3793:3797  user */\n      dup2\n        /* \"src/contracts/MiniLend.sol\":3793:3810  user.borrowedUsdt */\n      0x01\n      add\n      0x00\n        /* \"src/contracts/MiniLend.sol\":3793:3820  user.borrowedUsdt -= amount */\n      dup3\n      dup3\n      sload\n      tag_68\n      swap2\n      swap1\n      tag_69\n      jump\t// in\n    tag_68:\n      swap3\n      pop\n      pop\n      dup2\n      swap1\n      sstore\n      pop\n        /* \"src/contracts/MiniLend.sol\":3846:3856  msg.sender */\n      caller\n        /* \"src/contracts/MiniLend.sol\":3836:3865  USDRepaid(msg.sender, amount) */\n      0xffffffffffffffffffffffffffffffffffffffff\n      and\n      0xb7efcc12f3d3e74e33995ff303aca806b9428989809e60a4e5a4d465832966e4\n        /* \"src/contracts/MiniLend.sol\":3858:3864  amount */\n      dup4\n        /* \"src/contracts/MiniLend.sol\":3836:3865  USDRepaid(msg.sender, amount) */\n      mload(0x40)\n      tag_70\n      swap2\n      swap1\n      tag_20\n      jump\t// in\n    tag_70:\n      mload(0x40)\n      dup1\n      swap2\n      sub\n      swap1\n      log2\n        /* \"src/contracts/MiniLend.sol\":3317:3872  {... */\n      pop\n        /* \"src/contracts/MiniLend.sol\":3276:3872  function repayUsd(uint256 amount) public {... */\n      pop\n      jump\t// out\n        /* \"src/contracts/MiniLend.sol\":2304:3270  function borrowUsd(uint256 amount) external {... */\n    tag_34:\n        /* \"src/contracts/MiniLend.sol\":2358:2375  User storage user */\n      0x00\n        /* \"src/contracts/MiniLend.sol\":2378:2383  users */\n      0x01\n        /* \"src/contracts/MiniLend.sol\":2378:2395  users[msg.sender] */\n      0x00\n        /* \"src/contracts/MiniLend.sol\":2384:2394  msg.sender */\n      caller\n        /* \"src/contracts/MiniLend.sol\":2378:2395  users[msg.sender] */\n      0xffffffffffffffffffffffffffffffffffffffff\n      and\n      0xffffffffffffffffffffffffffffffffffffffff\n      and\n      dup2\n      mstore\n      0x20\n      add\n      swap1\n      dup2\n      mstore\n      0x20\n      add\n      0x00\n      keccak256\n        /* \"src/contracts/MiniLend.sol\":2358:2395  User storage user = users[msg.sender] */\n      swap1\n      pop\n        /* \"src/contracts/MiniLend.sol\":2428:2429  0 */\n      0x00\n        /* \"src/contracts/MiniLend.sol\":2410:2414  user */\n      dup2\n        /* \"src/contracts/MiniLend.sol\":2410:2424  user.stakedEth */\n      0x00\n      add\n      sload\n        /* \"src/contracts/MiniLend.sol\":2410:2429  user.stakedEth == 0 */\n      sub\n        /* \"src/contracts/MiniLend.sol\":2406:2460  if (user.stakedEth == 0) revert NoCollateralProvided() */\n      tag_72\n      jumpi\n        /* \"src/contracts/MiniLend.sol\":2438:2460  NoCollateralProvided() */\n      mload(0x40)\n      0xb016be5e00000000000000000000000000000000000000000000000000000000\n      dup2\n      mstore\n      0x04\n      add\n      mload(0x40)\n      dup1\n      swap2\n      sub\n      swap1\n      revert\n        /* \"src/contracts/MiniLend.sol\":2406:2460  if (user.stakedEth == 0) revert NoCollateralProvided() */\n    tag_72:\n        /* \"src/contracts/MiniLend.sol\":2484:2485  0 */\n      0x00\n        /* \"src/contracts/MiniLend.sol\":2474:2480  amount */\n      dup3\n        /* \"src/contracts/MiniLend.sol\":2474:2485  amount == 0 */\n      sub\n        /* \"src/contracts/MiniLend.sol\":2470:2509  if (amount == 0) revert InvalidAmount() */\n      tag_73\n      jumpi\n        /* \"src/contracts/MiniLend.sol\":2494:2509  InvalidAmount() */\n      mload(0x40)\n      0x2c5211c600000000000000000000000000000000000000000000000000000000\n      dup2\n      mstore\n      0x04\n      add\n      mload(0x40)\n      dup1\n      swap2\n      sub\n      swap1\n      revert\n        /* \"src/contracts/MiniLend.sol\":2470:2509  if (amount == 0) revert InvalidAmount() */\n    tag_73:\n        /* \"src/contracts/MiniLend.sol\":2595:2596  0 */\n      0x00\n        /* \"src/contracts/MiniLend.sol\":2556:2592  howMuchYouCanStillBorrow(msg.sender) */\n      tag_74\n        /* \"src/contracts/MiniLend.sol\":2581:2591  msg.sender */\n      caller\n        /* \"src/contracts/MiniLend.sol\":2556:2580  howMuchYouCanStillBorrow */\n      tag_75\n        /* \"src/contracts/MiniLend.sol\":2556:2592  howMuchYouCanStillBorrow(msg.sender) */\n      jump\t// in\n    tag_74:\n        /* \"src/contracts/MiniLend.sol\":2556:2596  howMuchYouCanStillBorrow(msg.sender) > 0 */\n      gt\n        /* \"src/contracts/MiniLend.sol\":2552:2726  if (howMuchYouCanStillBorrow(msg.sender) > 0) {... */\n      iszero\n      tag_76\n      jumpi\n        /* \"src/contracts/MiniLend.sol\":2633:2639  amount */\n      dup2\n        /* \"src/contracts/MiniLend.sol\":2612:2616  user */\n      dup2\n        /* \"src/contracts/MiniLend.sol\":2612:2629  user.borrowedUsdt */\n      0x01\n      add\n      0x00\n        /* \"src/contracts/MiniLend.sol\":2612:2639  user.borrowedUsdt += amount */\n      dup3\n      dup3\n      sload\n      tag_77\n      swap2\n      swap1\n      tag_78\n      jump\t// in\n    tag_77:\n      swap3\n      pop\n      pop\n      dup2\n      swap1\n      sstore\n      pop\n        /* \"src/contracts/MiniLend.sol\":2552:2726  if (howMuchYouCanStillBorrow(msg.sender) > 0) {... */\n      jump(tag_79)\n    tag_76:\n        /* \"src/contracts/MiniLend.sol\":2670:2715  revert(\"You have exceeded your borrow limit\") */\n      mload(0x40)\n      0x08c379a000000000000000000000000000000000000000000000000000000000\n      dup2\n      mstore\n      0x04\n      add\n      tag_80\n      swap1\n      tag_81\n      jump\t// in\n    tag_80:\n      mload(0x40)\n      dup1\n      swap2\n      sub\n      swap1\n      revert\n        /* \"src/contracts/MiniLend.sol\":2552:2726  if (howMuchYouCanStillBorrow(msg.sender) > 0) {... */\n    tag_79:\n        /* \"src/contracts/MiniLend.sol\":3130:3136  amount */\n      dup2\n        /* \"src/contracts/MiniLend.sol\":3109:3113  user */\n      dup2\n        /* \"src/contracts/MiniLend.sol\":3109:3126  user.borrowedUsdt */\n      0x01\n      add\n      0x00\n        /* \"src/contracts/MiniLend.sol\":3109:3136  user.borrowedUsdt += amount */\n      dup3\n      dup3\n      sload\n      tag_82\n      swap2\n      swap1\n      tag_78\n      jump\t// in\n    tag_82:\n      swap3\n      pop\n      pop\n      dup2\n      swap1\n      sstore\n      pop\n        /* \"src/contracts/MiniLend.sol\":3173:3216  _ensureFundsAndTransfer(msg.sender, amount) */\n      tag_83\n        /* \"src/contracts/MiniLend.sol\":3197:3207  msg.sender */\n      caller\n        /* \"src/contracts/MiniLend.sol\":3209:3215  amount */\n      dup4\n        /* \"src/contracts/MiniLend.sol\":3173:3196  _ensureFundsAndTransfer */\n      tag_84\n        /* \"src/contracts/MiniLend.sol\":3173:3216  _ensureFundsAndTransfer(msg.sender, amount) */\n      jump\t// in\n    tag_83:\n        /* \"src/contracts/MiniLend.sol\":3244:3254  msg.sender */\n      caller\n        /* \"src/contracts/MiniLend.sol\":3232:3263  USDBorrowed(msg.sender, amount) */\n      0xffffffffffffffffffffffffffffffffffffffff\n      and\n      0x5abc9a9c4616711eb03d720e050325118645a3695a5e75b5b10a29e2e217fe03\n        /* \"src/contracts/MiniLend.sol\":3256:3262  amount */\n      dup4\n        /* \"src/contracts/MiniLend.sol\":3232:3263  USDBorrowed(msg.sender, amount) */\n      mload(0x40)\n      tag_85\n      swap2\n      swap1\n      tag_20\n      jump\t// in\n    tag_85:\n      mload(0x40)\n      dup1\n      swap2\n      sub\n      swap1\n      log2\n        /* \"src/contracts/MiniLend.sol\":2348:3270  {... */\n      pop\n        /* \"src/contracts/MiniLend.sol\":2304:3270  function borrowUsd(uint256 amount) external {... */\n      pop\n      jump\t// out\n        /* \"src/contracts/MiniLend.sol\":1823:1939  function getContractUsdBal() public view returns (uint256) {... */\n    tag_37:\n        /* \"src/contracts/MiniLend.sol\":1873:1880  uint256 */\n      0x00\n        /* \"src/contracts/MiniLend.sol\":1899:1907  mockusdt */\n      0x00\n      0x00\n      swap1\n      sload\n      swap1\n      0x0100\n      exp\n      swap1\n      div\n      0xffffffffffffffffffffffffffffffffffffffff\n      and\n        /* \"src/contracts/MiniLend.sol\":1899:1917  mockusdt.balanceOf */\n      0xffffffffffffffffffffffffffffffffffffffff\n      and\n      0x70a08231\n        /* \"src/contracts/MiniLend.sol\":1926:1930  this */\n      address\n        /* \"src/contracts/MiniLend.sol\":1899:1932  mockusdt.balanceOf(address(this)) */\n      mload(0x40)\n      dup3\n      0xffffffff\n      and\n      0xe0\n      shl\n      dup2\n      mstore\n      0x04\n      add\n      tag_87\n      swap2\n      swap1\n      tag_88\n      jump\t// in\n    tag_87:\n      0x20\n      mload(0x40)\n      dup1\n      dup4\n      sub\n      dup2\n      dup7\n      gas\n      staticcall\n      iszero\n      dup1\n      iszero\n      tag_90\n      jumpi\n      returndatacopy(0x00, 0x00, returndatasize)\n      revert(0x00, returndatasize)\n    tag_90:\n      pop\n      pop\n      pop\n      pop\n      mload(0x40)\n      returndatasize\n      not(0x1f)\n      0x1f\n      dup3\n      add\n      and\n      dup3\n      add\n      dup1\n      0x40\n      mstore\n      pop\n      dup2\n      add\n      swap1\n      tag_91\n      swap2\n      swap1\n      tag_92\n      jump\t// in\n    tag_91:\n        /* \"src/contracts/MiniLend.sol\":1892:1932  return mockusdt.balanceOf(address(this)) */\n      swap1\n      pop\n        /* \"src/contracts/MiniLend.sol\":1823:1939  function getContractUsdBal() public view returns (uint256) {... */\n      swap1\n      jump\t// out\n        /* \"src/contracts/MiniLend.sol\":2055:2298  function stakeEth() public payable {... */\n    tag_40:\n        /* \"src/contracts/MiniLend.sol\":2116:2117  0 */\n      0x00\n        /* \"src/contracts/MiniLend.sol\":2104:2113  msg.value */\n      callvalue\n        /* \"src/contracts/MiniLend.sol\":2104:2117  msg.value > 0 */\n      gt\n        /* \"src/contracts/MiniLend.sol\":2100:2244  if (msg.value > 0) {... */\n      iszero\n      tag_94\n      jumpi\n        /* \"src/contracts/MiniLend.sol\":2164:2173  msg.value */\n      callvalue\n        /* \"src/contracts/MiniLend.sol\":2133:2138  users */\n      0x01\n        /* \"src/contracts/MiniLend.sol\":2133:2150  users[msg.sender] */\n      0x00\n        /* \"src/contracts/MiniLend.sol\":2139:2149  msg.sender */\n      caller\n        /* \"src/contracts/MiniLend.sol\":2133:2150  users[msg.sender] */\n      0xffffffffffffffffffffffffffffffffffffffff\n      and\n      0xffffffffffffffffffffffffffffffffffffffff\n      and\n      dup2\n      mstore\n      0x20\n      add\n      swap1\n      dup2\n      mstore\n      0x20\n      add\n      0x00\n      keccak256\n        /* \"src/contracts/MiniLend.sol\":2133:2160  users[msg.sender].stakedEth */\n      0x00\n      add\n      0x00\n        /* \"src/contracts/MiniLend.sol\":2133:2173  users[msg.sender].stakedEth += msg.value */\n      dup3\n      dup3\n      sload\n      tag_95\n      swap2\n      swap1\n      tag_78\n      jump\t// in\n    tag_95:\n      swap3\n      pop\n      pop\n      dup2\n      swap1\n      sstore\n      pop\n        /* \"src/contracts/MiniLend.sol\":2100:2244  if (msg.value > 0) {... */\n      jump(tag_96)\n    tag_94:\n        /* \"src/contracts/MiniLend.sol\":2211:2233  NoCollateralProvided() */\n      mload(0x40)\n      0xb016be5e00000000000000000000000000000000000000000000000000000000\n      dup2\n      mstore\n      0x04\n      add\n      mload(0x40)\n      dup1\n      swap2\n      sub\n      swap1\n      revert\n        /* \"src/contracts/MiniLend.sol\":2100:2244  if (msg.value > 0) {... */\n    tag_96:\n        /* \"src/contracts/MiniLend.sol\":2269:2279  msg.sender */\n      caller\n        /* \"src/contracts/MiniLend.sol\":2259:2291  EthStaked(msg.sender, msg.value) */\n      0xffffffffffffffffffffffffffffffffffffffff\n      and\n      0x1c0917c3a343a300b56473c59fa8355d3326f2c73472679a5b4cd5d6e0390c80\n        /* \"src/contracts/MiniLend.sol\":2281:2290  msg.value */\n      callvalue\n        /* \"src/contracts/MiniLend.sol\":2259:2291  EthStaked(msg.sender, msg.value) */\n      mload(0x40)\n      tag_97\n      swap2\n      swap1\n      tag_20\n      jump\t// in\n    tag_97:\n      mload(0x40)\n      dup1\n      swap2\n      sub\n      swap1\n      log2\n        /* \"src/contracts/MiniLend.sol\":2055:2298  function stakeEth() public payable {... */\n      jump\t// out\n        /* \"src/contracts/MiniLend.sol\":1179:1216  mapping(address => User) public users */\n    tag_45:\n      mstore(0x20, 0x01)\n      dup1\n      0x00\n      mstore\n      keccak256(0x00, 0x40)\n      0x00\n      swap2\n      pop\n      swap1\n      pop\n      dup1\n      0x00\n      add\n      sload\n      swap1\n      dup1\n      0x01\n      add\n      sload\n      swap1\n      pop\n      dup3\n      jump\t// out\n        /* \"src/contracts/MiniLend.sol\":3953:4592  function withdrawCollateralEth(uint256 amount) public {... */\n    tag_51:\n        /* \"src/contracts/MiniLend.sol\":4017:4034  User storage user */\n      0x00\n        /* \"src/contracts/MiniLend.sol\":4037:4042  users */\n      0x01\n        /* \"src/contracts/MiniLend.sol\":4037:4054  users[msg.sender] */\n      0x00\n        /* \"src/contracts/MiniLend.sol\":4043:4053  msg.sender */\n      caller\n        /* \"src/contracts/MiniLend.sol\":4037:4054  users[msg.sender] */\n      0xffffffffffffffffffffffffffffffffffffffff\n      and\n      0xffffffffffffffffffffffffffffffffffffffff\n      and\n      dup2\n      mstore\n      0x20\n      add\n      swap1\n      dup2\n      mstore\n      0x20\n      add\n      0x00\n      keccak256\n        /* \"src/contracts/MiniLend.sol\":4017:4054  User storage user = users[msg.sender] */\n      swap1\n      pop\n        /* \"src/contracts/MiniLend.sol\":4078:4079  0 */\n      0x00\n        /* \"src/contracts/MiniLend.sol\":4068:4074  amount */\n      dup3\n        /* \"src/contracts/MiniLend.sol\":4068:4079  amount == 0 */\n      eq\n        /* \"src/contracts/MiniLend.sol\":4068:4105  amount == 0 || user.borrowedUsdt != 0 */\n      dup1\n      tag_99\n      jumpi\n      pop\n        /* \"src/contracts/MiniLend.sol\":4104:4105  0 */\n      0x00\n        /* \"src/contracts/MiniLend.sol\":4083:4087  user */\n      dup2\n        /* \"src/contracts/MiniLend.sol\":4083:4100  user.borrowedUsdt */\n      0x01\n      add\n      sload\n        /* \"src/contracts/MiniLend.sol\":4083:4105  user.borrowedUsdt != 0 */\n      eq\n      iszero\n        /* \"src/contracts/MiniLend.sol\":4068:4105  amount == 0 || user.borrowedUsdt != 0 */\n    tag_99:\n        /* \"src/contracts/MiniLend.sol\":4064:4173  if (amount == 0 || user.borrowedUsdt != 0)... */\n      iszero\n      tag_100\n      jumpi\n        /* \"src/contracts/MiniLend.sol\":4155:4159  user */\n      dup1\n        /* \"src/contracts/MiniLend.sol\":4155:4172  user.borrowedUsdt */\n      0x01\n      add\n      sload\n        /* \"src/contracts/MiniLend.sol\":4126:4173  BorrowedAmountNotFullyRepaid(user.borrowedUsdt) */\n      mload(0x40)\n      0x40a636fb00000000000000000000000000000000000000000000000000000000\n      dup2\n      mstore\n      0x04\n      add\n      tag_101\n      swap2\n      swap1\n      tag_20\n      jump\t// in\n    tag_101:\n      mload(0x40)\n      dup1\n      swap2\n      sub\n      swap1\n      revert\n        /* \"src/contracts/MiniLend.sol\":4064:4173  if (amount == 0 || user.borrowedUsdt != 0)... */\n    tag_100:\n        /* \"src/contracts/MiniLend.sol\":4196:4200  user */\n      dup1\n        /* \"src/contracts/MiniLend.sol\":4196:4210  user.stakedEth */\n      0x00\n      add\n      sload\n        /* \"src/contracts/MiniLend.sol\":4187:4193  amount */\n      dup3\n        /* \"src/contracts/MiniLend.sol\":4187:4210  amount > user.stakedEth */\n      gt\n        /* \"src/contracts/MiniLend.sol\":4183:4274  if (amount > user.stakedEth)... */\n      iszero\n      tag_102\n      jumpi\n        /* \"src/contracts/MiniLend.sol\":4251:4255  user */\n      dup1\n        /* \"src/contracts/MiniLend.sol\":4251:4265  user.stakedEth */\n      0x00\n      add\n      sload\n        /* \"src/contracts/MiniLend.sol\":4267:4273  amount */\n      dup3\n        /* \"src/contracts/MiniLend.sol\":4231:4274  NotEnoughCollateral(user.stakedEth, amount) */\n      mload(0x40)\n      0x768063db00000000000000000000000000000000000000000000000000000000\n      dup2\n      mstore\n      0x04\n      add\n      tag_103\n      swap3\n      swap2\n      swap1\n      tag_47\n      jump\t// in\n    tag_103:\n      mload(0x40)\n      dup1\n      swap2\n      sub\n      swap1\n      revert\n        /* \"src/contracts/MiniLend.sol\":4183:4274  if (amount > user.stakedEth)... */\n    tag_102:\n        /* \"src/contracts/MiniLend.sol\":4327:4333  amount */\n      dup2\n        /* \"src/contracts/MiniLend.sol\":4309:4313  user */\n      dup2\n        /* \"src/contracts/MiniLend.sol\":4309:4323  user.stakedEth */\n      0x00\n      add\n      0x00\n        /* \"src/contracts/MiniLend.sol\":4309:4333  user.stakedEth -= amount */\n      dup3\n      dup3\n      sload\n      tag_104\n      swap2\n      swap1\n      tag_69\n      jump\t// in\n    tag_104:\n      swap3\n      pop\n      pop\n      dup2\n      swap1\n      sstore\n      pop\n        /* \"src/contracts/MiniLend.sol\":4417:4429  bool success */\n      0x00\n        /* \"src/contracts/MiniLend.sol\":4443:4453  msg.sender */\n      caller\n        /* \"src/contracts/MiniLend.sol\":4435:4459  address(msg.sender).call */\n      0xffffffffffffffffffffffffffffffffffffffff\n      and\n        /* \"src/contracts/MiniLend.sol\":4467:4473  amount */\n      dup4\n        /* \"src/contracts/MiniLend.sol\":4435:4478  address(msg.sender).call{value: amount}(\"\") */\n      mload(0x40)\n      tag_105\n      swap1\n      tag_106\n      jump\t// in\n    tag_105:\n      0x00\n      mload(0x40)\n      dup1\n      dup4\n      sub\n      dup2\n      dup6\n      dup8\n      gas\n      call\n      swap3\n      pop\n      pop\n      pop\n      returndatasize\n      dup1\n      0x00\n      dup2\n      eq\n      tag_109\n      jumpi\n      mload(0x40)\n      swap2\n      pop\n      and(add(returndatasize, 0x3f), not(0x1f))\n      dup3\n      add\n      0x40\n      mstore\n      returndatasize\n      dup3\n      mstore\n      returndatasize\n      0x00\n      0x20\n      dup5\n      add\n      returndatacopy\n      jump(tag_108)\n    tag_109:\n      0x60\n      swap2\n      pop\n    tag_108:\n      pop\n        /* \"src/contracts/MiniLend.sol\":4416:4478  (bool success, ) = address(msg.sender).call{value: amount}(\"\") */\n      pop\n      swap1\n      pop\n        /* \"src/contracts/MiniLend.sol\":4496:4503  success */\n      dup1\n        /* \"src/contracts/MiniLend.sol\":4488:4527  require(success, \"ETH transfer failed\") */\n      tag_110\n      jumpi\n      mload(0x40)\n      0x08c379a000000000000000000000000000000000000000000000000000000000\n      dup2\n      mstore\n      0x04\n      add\n      tag_111\n      swap1\n      tag_112\n      jump\t// in\n    tag_111:\n      mload(0x40)\n      dup1\n      swap2\n      sub\n      swap1\n      revert\n    tag_110:\n        /* \"src/contracts/MiniLend.sol\":4566:4576  msg.sender */\n      caller\n        /* \"src/contracts/MiniLend.sol\":4543:4585  ETHCollateralWithdrawn(msg.sender, amount) */\n      0xffffffffffffffffffffffffffffffffffffffff\n      and\n      0x5b0743acabce0ea09498b3c2598ed444f80ef6513a2029d7d9aaed87064d1edb\n        /* \"src/contracts/MiniLend.sol\":4578:4584  amount */\n      dup5\n        /* \"src/contracts/MiniLend.sol\":4543:4585  ETHCollateralWithdrawn(msg.sender, amount) */\n      mload(0x40)\n      tag_113\n      swap2\n      swap1\n      tag_20\n      jump\t// in\n    tag_113:\n      mload(0x40)\n      dup1\n      swap2\n      sub\n      swap1\n      log2\n        /* \"src/contracts/MiniLend.sol\":4007:4592  {... */\n      pop\n      pop\n        /* \"src/contracts/MiniLend.sol\":3953:4592  function withdrawCollateralEth(uint256 amount) public {... */\n      pop\n      jump\t// out\n        /* \"src/contracts/MiniLend.sol\":5224:5652  function howMuchYouCanStillBorrow(... */\n    tag_75:\n        /* \"src/contracts/MiniLend.sol\":5309:5316  uint256 */\n      0x00\n        /* \"src/contracts/MiniLend.sol\":5328:5345  uint256 maxBorrow */\n      0x00\n        /* \"src/contracts/MiniLend.sol\":1292:1296  1e18 */\n      0x0de0b6b3a7640000\n      dup1\n        /* \"src/contracts/MiniLend.sol\":1345:1348  100 */\n      0x64\n        /* \"src/contracts/MiniLend.sol\":5413:5434  PCT_DENOMINATOR * WAD */\n      tag_115\n      swap2\n      swap1\n      tag_116\n      jump\t// in\n    tag_115:\n        /* \"src/contracts/MiniLend.sol\":5413:5440  PCT_DENOMINATOR * WAD * WAD */\n      tag_117\n      swap2\n      swap1\n      tag_116\n      jump\t// in\n    tag_117:\n        /* \"src/contracts/MiniLend.sol\":1253:1255  50 */\n      0x32\n        /* \"src/contracts/MiniLend.sol\":1398:1405  2000e18 */\n      0x6c6b935b8bbd400000\n        /* \"src/contracts/MiniLend.sol\":5350:5355  users */\n      0x01\n        /* \"src/contracts/MiniLend.sol\":5350:5361  users[user] */\n      0x00\n        /* \"src/contracts/MiniLend.sol\":5356:5360  user */\n      dup8\n        /* \"src/contracts/MiniLend.sol\":5350:5361  users[user] */\n      0xffffffffffffffffffffffffffffffffffffffff\n      and\n      0xffffffffffffffffffffffffffffffffffffffff\n      and\n      dup2\n      mstore\n      0x20\n      add\n      swap1\n      dup2\n      mstore\n      0x20\n      add\n      0x00\n      keccak256\n        /* \"src/contracts/MiniLend.sol\":5350:5371  users[user].stakedEth */\n      0x00\n      add\n      sload\n        /* \"src/contracts/MiniLend.sol\":5350:5390  users[user].stakedEth * ETH_PRICE_IN_USD */\n      tag_118\n      swap2\n      swap1\n      tag_116\n      jump\t// in\n    tag_118:\n        /* \"src/contracts/MiniLend.sol\":5350:5396  users[user].stakedEth * ETH_PRICE_IN_USD * LTV */\n      tag_119\n      swap2\n      swap1\n      tag_116\n      jump\t// in\n    tag_119:\n        /* \"src/contracts/MiniLend.sol\":5349:5441  (users[user].stakedEth * ETH_PRICE_IN_USD * LTV) /... */\n      tag_120\n      swap2\n      swap1\n      tag_121\n      jump\t// in\n    tag_120:\n        /* \"src/contracts/MiniLend.sol\":5328:5442  uint256 maxBorrow = ((users[user].stakedEth * ETH_PRICE_IN_USD * LTV) /... */\n      swap1\n      pop\n        /* \"src/contracts/MiniLend.sol\":5494:5503  maxBorrow */\n      dup1\n        /* \"src/contracts/MiniLend.sol\":1292:1296  1e18 */\n      0x0de0b6b3a7640000\n        /* \"src/contracts/MiniLend.sol\":5458:5463  users */\n      0x01\n        /* \"src/contracts/MiniLend.sol\":5458:5469  users[user] */\n      0x00\n        /* \"src/contracts/MiniLend.sol\":5464:5468  user */\n      dup7\n        /* \"src/contracts/MiniLend.sol\":5458:5469  users[user] */\n      0xffffffffffffffffffffffffffffffffffffffff\n      and\n      0xffffffffffffffffffffffffffffffffffffffff\n      and\n      dup2\n      mstore\n      0x20\n      add\n      swap1\n      dup2\n      mstore\n      0x20\n      add\n      0x00\n      keccak256\n        /* \"src/contracts/MiniLend.sol\":5458:5482  users[user].borrowedUsdt */\n      0x01\n      add\n      sload\n        /* \"src/contracts/MiniLend.sol\":5457:5489  (users[user].borrowedUsdt) / WAD */\n      tag_122\n      swap2\n      swap1\n      tag_121\n      jump\t// in\n    tag_122:\n        /* \"src/contracts/MiniLend.sol\":5456:5503  ((users[user].borrowedUsdt) / WAD) >= maxBorrow */\n      lt\n        /* \"src/contracts/MiniLend.sol\":5452:5513  if (((users[user].borrowedUsdt) / WAD) >= maxBorrow) return 0 */\n      tag_123\n      jumpi\n        /* \"src/contracts/MiniLend.sol\":5512:5513  0 */\n      0x00\n        /* \"src/contracts/MiniLend.sol\":5505:5513  return 0 */\n      swap2\n      pop\n      pop\n      jump(tag_114)\n        /* \"src/contracts/MiniLend.sol\":5452:5513  if (((users[user].borrowedUsdt) / WAD) >= maxBorrow) return 0 */\n    tag_123:\n        /* \"src/contracts/MiniLend.sol\":5523:5548  uint256 availableToBorrow */\n      0x00\n        /* \"src/contracts/MiniLend.sol\":1292:1296  1e18 */\n      0x0de0b6b3a7640000\n        /* \"src/contracts/MiniLend.sol\":5577:5582  users */\n      0x01\n        /* \"src/contracts/MiniLend.sol\":5577:5588  users[user] */\n      0x00\n        /* \"src/contracts/MiniLend.sol\":5583:5587  user */\n      dup7\n        /* \"src/contracts/MiniLend.sol\":5577:5588  users[user] */\n      0xffffffffffffffffffffffffffffffffffffffff\n      and\n      0xffffffffffffffffffffffffffffffffffffffff\n      and\n      dup2\n      mstore\n      0x20\n      add\n      swap1\n      dup2\n      mstore\n      0x20\n      add\n      0x00\n      keccak256\n        /* \"src/contracts/MiniLend.sol\":5577:5601  users[user].borrowedUsdt */\n      0x01\n      add\n      sload\n        /* \"src/contracts/MiniLend.sol\":5576:5608  (users[user].borrowedUsdt) / WAD */\n      tag_124\n      swap2\n      swap1\n      tag_121\n      jump\t// in\n    tag_124:\n        /* \"src/contracts/MiniLend.sol\":5551:5560  maxBorrow */\n      dup3\n        /* \"src/contracts/MiniLend.sol\":5551:5609  maxBorrow -... */\n      tag_125\n      swap2\n      swap1\n      tag_69\n      jump\t// in\n    tag_125:\n        /* \"src/contracts/MiniLend.sol\":5523:5609  uint256 availableToBorrow = maxBorrow -... */\n      swap1\n      pop\n        /* \"src/contracts/MiniLend.sol\":5627:5644  availableToBorrow */\n      dup1\n        /* \"src/contracts/MiniLend.sol\":5619:5645  return (availableToBorrow) */\n      swap3\n      pop\n      pop\n      pop\n        /* \"src/contracts/MiniLend.sol\":5224:5652  function howMuchYouCanStillBorrow(... */\n    tag_114:\n      swap2\n      swap1\n      pop\n      jump\t// out\n        /* \"src/contracts/MiniLend.sol\":4651:5218  function _ensureFundsAndTransfer(address to, uint256 amount) internal {... */\n    tag_84:\n        /* \"src/contracts/MiniLend.sol\":4731:4754  uint256 contractBalance */\n      0x00\n        /* \"src/contracts/MiniLend.sol\":4757:4776  getContractUsdBal() */\n      tag_127\n        /* \"src/contracts/MiniLend.sol\":4757:4774  getContractUsdBal */\n      tag_37\n        /* \"src/contracts/MiniLend.sol\":4757:4776  getContractUsdBal() */\n      jump\t// in\n    tag_127:\n        /* \"src/contracts/MiniLend.sol\":4731:4776  uint256 contractBalance = getContractUsdBal() */\n      swap1\n      pop\n        /* \"src/contracts/MiniLend.sol\":4810:4816  amount */\n      dup2\n        /* \"src/contracts/MiniLend.sol\":4791:4806  contractBalance */\n      dup2\n        /* \"src/contracts/MiniLend.sol\":4791:4816  contractBalance >= amount */\n      lt\n        /* \"src/contracts/MiniLend.sol\":4787:5212  if (contractBalance >= amount) {... */\n      tag_128\n      jumpi\n        /* \"src/contracts/MiniLend.sol\":4840:4848  mockusdt */\n      0x00\n      0x00\n      swap1\n      sload\n      swap1\n      0x0100\n      exp\n      swap1\n      div\n      0xffffffffffffffffffffffffffffffffffffffff\n      and\n        /* \"src/contracts/MiniLend.sol\":4840:4857  mockusdt.transfer */\n      0xffffffffffffffffffffffffffffffffffffffff\n      and\n      0xa9059cbb\n        /* \"src/contracts/MiniLend.sol\":4858:4860  to */\n      dup5\n        /* \"src/contracts/MiniLend.sol\":4862:4868  amount */\n      dup5\n        /* \"src/contracts/MiniLend.sol\":4840:4869  mockusdt.transfer(to, amount) */\n      mload(0x40)\n      dup4\n      0xffffffff\n      and\n      0xe0\n      shl\n      dup2\n      mstore\n      0x04\n      add\n      tag_129\n      swap3\n      swap2\n      swap1\n      tag_130\n      jump\t// in\n    tag_129:\n      0x20\n      mload(0x40)\n      dup1\n      dup4\n      sub\n      dup2\n      0x00\n      dup8\n      gas\n      call\n      iszero\n      dup1\n      iszero\n      tag_132\n      jumpi\n      returndatacopy(0x00, 0x00, returndatasize)\n      revert(0x00, returndatasize)\n    tag_132:\n      pop\n      pop\n      pop\n      pop\n      mload(0x40)\n      returndatasize\n      not(0x1f)\n      0x1f\n      dup3\n      add\n      and\n      dup3\n      add\n      dup1\n      0x40\n      mstore\n      pop\n      dup2\n      add\n      swap1\n      tag_133\n      swap2\n      swap1\n      tag_62\n      jump\t// in\n    tag_133:\n        /* \"src/contracts/MiniLend.sol\":4832:4889  require(mockusdt.transfer(to, amount), \"Transfer failed\") */\n      tag_134\n      jumpi\n      mload(0x40)\n      0x08c379a000000000000000000000000000000000000000000000000000000000\n      dup2\n      mstore\n      0x04\n      add\n      tag_135\n      swap1\n      tag_136\n      jump\t// in\n    tag_135:\n      mload(0x40)\n      dup1\n      swap2\n      sub\n      swap1\n      revert\n    tag_134:\n        /* \"src/contracts/MiniLend.sol\":4787:5212  if (contractBalance >= amount) {... */\n      jump(tag_137)\n    tag_128:\n        /* \"src/contracts/MiniLend.sol\":4920:4937  uint256 shortfall */\n      0x00\n        /* \"src/contracts/MiniLend.sol\":4949:4964  contractBalance */\n      dup2\n        /* \"src/contracts/MiniLend.sol\":4940:4946  amount */\n      dup4\n        /* \"src/contracts/MiniLend.sol\":4940:4964  amount - contractBalance */\n      tag_138\n      swap2\n      swap1\n      tag_69\n      jump\t// in\n    tag_138:\n        /* \"src/contracts/MiniLend.sol\":4920:4964  uint256 shortfall = amount - contractBalance */\n      swap1\n      pop\n        /* \"src/contracts/MiniLend.sol\":5000:5001  0 */\n      0x00\n        /* \"src/contracts/MiniLend.sol\":4982:4997  contractBalance */\n      dup3\n        /* \"src/contracts/MiniLend.sol\":4982:5001  contractBalance > 0 */\n      gt\n        /* \"src/contracts/MiniLend.sol\":4978:5160  if (contractBalance > 0) {... */\n      iszero\n      tag_139\n      jumpi\n        /* \"src/contracts/MiniLend.sol\":5050:5058  mockusdt */\n      0x00\n      0x00\n      swap1\n      sload\n      swap1\n      0x0100\n      exp\n      swap1\n      div\n      0xffffffffffffffffffffffffffffffffffffffff\n      and\n        /* \"src/contracts/MiniLend.sol\":5050:5067  mockusdt.transfer */\n      0xffffffffffffffffffffffffffffffffffffffff\n      and\n      0xa9059cbb\n        /* \"src/contracts/MiniLend.sol\":5068:5070  to */\n      dup6\n        /* \"src/contracts/MiniLend.sol\":5072:5087  contractBalance */\n      dup5\n        /* \"src/contracts/MiniLend.sol\":5050:5088  mockusdt.transfer(to, contractBalance) */\n      mload(0x40)\n      dup4\n      0xffffffff\n      and\n      0xe0\n      shl\n      dup2\n      mstore\n      0x04\n      add\n      tag_140\n      swap3\n      swap2\n      swap1\n      tag_130\n      jump\t// in\n    tag_140:\n      0x20\n      mload(0x40)\n      dup1\n      dup4\n      sub\n      dup2\n      0x00\n      dup8\n      gas\n      call\n      iszero\n      dup1\n      iszero\n      tag_142\n      jumpi\n      returndatacopy(0x00, 0x00, returndatasize)\n      revert(0x00, returndatasize)\n    tag_142:\n      pop\n      pop\n      pop\n      pop\n      mload(0x40)\n      returndatasize\n      not(0x1f)\n      0x1f\n      dup3\n      add\n      and\n      dup3\n      add\n      dup1\n      0x40\n      mstore\n      pop\n      dup2\n      add\n      swap1\n      tag_143\n      swap2\n      swap1\n      tag_62\n      jump\t// in\n    tag_143:\n        /* \"src/contracts/MiniLend.sol\":5021:5145  require(... */\n      tag_144\n      jumpi\n      mload(0x40)\n      0x08c379a000000000000000000000000000000000000000000000000000000000\n      dup2\n      mstore\n      0x04\n      add\n      tag_145\n      swap1\n      tag_136\n      jump\t// in\n    tag_145:\n      mload(0x40)\n      dup1\n      swap2\n      sub\n      swap1\n      revert\n    tag_144:\n        /* \"src/contracts/MiniLend.sol\":4978:5160  if (contractBalance > 0) {... */\n    tag_139:\n        /* \"src/contracts/MiniLend.sol\":5173:5181  mockusdt */\n      0x00\n      0x00\n      swap1\n      sload\n      swap1\n      0x0100\n      exp\n      swap1\n      div\n      0xffffffffffffffffffffffffffffffffffffffff\n      and\n        /* \"src/contracts/MiniLend.sol\":5173:5186  mockusdt.mint */\n      0xffffffffffffffffffffffffffffffffffffffff\n      and\n      0x40c10f19\n        /* \"src/contracts/MiniLend.sol\":5187:5189  to */\n      dup6\n        /* \"src/contracts/MiniLend.sol\":5191:5200  shortfall */\n      dup4\n        /* \"src/contracts/MiniLend.sol\":5173:5201  mockusdt.mint(to, shortfall) */\n      mload(0x40)\n      dup4\n      0xffffffff\n      and\n      0xe0\n      shl\n      dup2\n      mstore\n      0x04\n      add\n      tag_146\n      swap3\n      swap2\n      swap1\n      tag_130\n      jump\t// in\n    tag_146:\n      0x00\n      mload(0x40)\n      dup1\n      dup4\n      sub\n      dup2\n      0x00\n      dup8\n      dup1\n      extcodesize\n      iszero\n      dup1\n      iszero\n      tag_147\n      jumpi\n      revert(0x00, 0x00)\n    tag_147:\n      pop\n      gas\n      call\n      iszero\n      dup1\n      iszero\n      tag_149\n      jumpi\n      returndatacopy(0x00, 0x00, returndatasize)\n      revert(0x00, returndatasize)\n    tag_149:\n      pop\n      pop\n      pop\n      pop\n        /* \"src/contracts/MiniLend.sol\":4906:5212  {... */\n      pop\n        /* \"src/contracts/MiniLend.sol\":4787:5212  if (contractBalance >= amount) {... */\n    tag_137:\n        /* \"src/contracts/MiniLend.sol\":4721:5218  {... */\n      pop\n        /* \"src/contracts/MiniLend.sol\":4651:5218  function _ensureFundsAndTransfer(address to, uint256 amount) internal {... */\n      pop\n      pop\n      jump\t// out\n        /* \"#utility.yul\":7:84   */\n    tag_150:\n        /* \"#utility.yul\":44:51   */\n      0x00\n        /* \"#utility.yul\":73:78   */\n      dup2\n        /* \"#utility.yul\":62:78   */\n      swap1\n      pop\n        /* \"#utility.yul\":7:84   */\n      swap2\n      swap1\n      pop\n      jump\t// out\n        /* \"#utility.yul\":90:208   */\n    tag_151:\n        /* \"#utility.yul\":177:201   */\n      tag_188\n        /* \"#utility.yul\":195:200   */\n      dup2\n        /* \"#utility.yul\":177:201   */\n      tag_150\n      jump\t// in\n    tag_188:\n        /* \"#utility.yul\":172:175   */\n      dup3\n        /* \"#utility.yul\":165:202   */\n      mstore\n        /* \"#utility.yul\":90:208   */\n      pop\n      pop\n      jump\t// out\n        /* \"#utility.yul\":214:436   */\n    tag_20:\n        /* \"#utility.yul\":307:311   */\n      0x00\n        /* \"#utility.yul\":345:347   */\n      0x20\n        /* \"#utility.yul\":334:343   */\n      dup3\n        /* \"#utility.yul\":330:348   */\n      add\n        /* \"#utility.yul\":322:348   */\n      swap1\n      pop\n        /* \"#utility.yul\":358:429   */\n      tag_190\n        /* \"#utility.yul\":426:427   */\n      0x00\n        /* \"#utility.yul\":415:424   */\n      dup4\n        /* \"#utility.yul\":411:428   */\n      add\n        /* \"#utility.yul\":402:408   */\n      dup5\n        /* \"#utility.yul\":358:429   */\n      tag_151\n      jump\t// in\n    tag_190:\n        /* \"#utility.yul\":214:436   */\n      swap3\n      swap2\n      pop\n      pop\n      jump\t// out\n        /* \"#utility.yul\":442:568   */\n    tag_152:\n        /* \"#utility.yul\":479:486   */\n      0x00\n        /* \"#utility.yul\":519:561   */\n      0xffffffffffffffffffffffffffffffffffffffff\n        /* \"#utility.yul\":512:517   */\n      dup3\n        /* \"#utility.yul\":508:562   */\n      and\n        /* \"#utility.yul\":497:562   */\n      swap1\n      pop\n        /* \"#utility.yul\":442:568   */\n      swap2\n      swap1\n      pop\n      jump\t// out\n        /* \"#utility.yul\":574:634   */\n    tag_153:\n        /* \"#utility.yul\":602:605   */\n      0x00\n        /* \"#utility.yul\":623:628   */\n      dup2\n        /* \"#utility.yul\":616:628   */\n      swap1\n      pop\n        /* \"#utility.yul\":574:634   */\n      swap2\n      swap1\n      pop\n      jump\t// out\n        /* \"#utility.yul\":640:782   */\n    tag_154:\n        /* \"#utility.yul\":690:699   */\n      0x00\n        /* \"#utility.yul\":723:776   */\n      tag_194\n        /* \"#utility.yul\":741:775   */\n      tag_195\n        /* \"#utility.yul\":750:774   */\n      tag_196\n        /* \"#utility.yul\":768:773   */\n      dup5\n        /* \"#utility.yul\":750:774   */\n      tag_152\n      jump\t// in\n    tag_196:\n        /* \"#utility.yul\":741:775   */\n      tag_153\n      jump\t// in\n    tag_195:\n        /* \"#utility.yul\":723:776   */\n      tag_152\n      jump\t// in\n    tag_194:\n        /* \"#utility.yul\":710:776   */\n      swap1\n      pop\n        /* \"#utility.yul\":640:782   */\n      swap2\n      swap1\n      pop\n      jump\t// out\n        /* \"#utility.yul\":788:914   */\n    tag_155:\n        /* \"#utility.yul\":838:847   */\n      0x00\n        /* \"#utility.yul\":871:908   */\n      tag_198\n        /* \"#utility.yul\":902:907   */\n      dup3\n        /* \"#utility.yul\":871:908   */\n      tag_154\n      jump\t// in\n    tag_198:\n        /* \"#utility.yul\":858:908   */\n      swap1\n      pop\n        /* \"#utility.yul\":788:914   */\n      swap2\n      swap1\n      pop\n      jump\t// out\n        /* \"#utility.yul\":920:1063   */\n    tag_156:\n        /* \"#utility.yul\":987:996   */\n      0x00\n        /* \"#utility.yul\":1020:1057   */\n      tag_200\n        /* \"#utility.yul\":1051:1056   */\n      dup3\n        /* \"#utility.yul\":1020:1057   */\n      tag_155\n      jump\t// in\n    tag_200:\n        /* \"#utility.yul\":1007:1057   */\n      swap1\n      pop\n        /* \"#utility.yul\":920:1063   */\n      swap2\n      swap1\n      pop\n      jump\t// out\n        /* \"#utility.yul\":1069:1234   */\n    tag_157:\n        /* \"#utility.yul\":1173:1227   */\n      tag_202\n        /* \"#utility.yul\":1221:1226   */\n      dup2\n        /* \"#utility.yul\":1173:1227   */\n      tag_156\n      jump\t// in\n    tag_202:\n        /* \"#utility.yul\":1168:1171   */\n      dup3\n        /* \"#utility.yul\":1161:1228   */\n      mstore\n        /* \"#utility.yul\":1069:1234   */\n      pop\n      pop\n      jump\t// out\n        /* \"#utility.yul\":1240:1496   */\n    tag_25:\n        /* \"#utility.yul\":1350:1354   */\n      0x00\n        /* \"#utility.yul\":1388:1390   */\n      0x20\n        /* \"#utility.yul\":1377:1386   */\n      dup3\n        /* \"#utility.yul\":1373:1391   */\n      add\n        /* \"#utility.yul\":1365:1391   */\n      swap1\n      pop\n        /* \"#utility.yul\":1401:1489   */\n      tag_204\n        /* \"#utility.yul\":1486:1487   */\n      0x00\n        /* \"#utility.yul\":1475:1484   */\n      dup4\n        /* \"#utility.yul\":1471:1488   */\n      add\n        /* \"#utility.yul\":1462:1468   */\n      dup5\n        /* \"#utility.yul\":1401:1489   */\n      tag_157\n      jump\t// in\n    tag_204:\n        /* \"#utility.yul\":1240:1496   */\n      swap3\n      swap2\n      pop\n      pop\n      jump\t// out\n        /* \"#utility.yul\":1583:1700   */\n    tag_159:\n        /* \"#utility.yul\":1692:1693   */\n      0x00\n        /* \"#utility.yul\":1689:1690   */\n      0x00\n        /* \"#utility.yul\":1682:1694   */\n      revert\n        /* \"#utility.yul\":1829:1951   */\n    tag_161:\n        /* \"#utility.yul\":1902:1926   */\n      tag_209\n        /* \"#utility.yul\":1920:1925   */\n      dup2\n        /* \"#utility.yul\":1902:1926   */\n      tag_150\n      jump\t// in\n    tag_209:\n        /* \"#utility.yul\":1895:1900   */\n      dup2\n        /* \"#utility.yul\":1892:1927   */\n      eq\n        /* \"#utility.yul\":1882:1945   */\n      tag_210\n      jumpi\n        /* \"#utility.yul\":1941:1942   */\n      0x00\n        /* \"#utility.yul\":1938:1939   */\n      0x00\n        /* \"#utility.yul\":1931:1943   */\n      revert\n        /* \"#utility.yul\":1882:1945   */\n    tag_210:\n        /* \"#utility.yul\":1829:1951   */\n      pop\n      jump\t// out\n        /* \"#utility.yul\":1957:2096   */\n    tag_162:\n        /* \"#utility.yul\":2003:2008   */\n      0x00\n        /* \"#utility.yul\":2041:2047   */\n      dup2\n        /* \"#utility.yul\":2028:2048   */\n      calldataload\n        /* \"#utility.yul\":2019:2048   */\n      swap1\n      pop\n        /* \"#utility.yul\":2057:2090   */\n      tag_212\n        /* \"#utility.yul\":2084:2089   */\n      dup2\n        /* \"#utility.yul\":2057:2090   */\n      tag_161\n      jump\t// in\n    tag_212:\n        /* \"#utility.yul\":1957:2096   */\n      swap3\n      swap2\n      pop\n      pop\n      jump\t// out\n        /* \"#utility.yul\":2102:2431   */\n    tag_29:\n        /* \"#utility.yul\":2161:2167   */\n      0x00\n        /* \"#utility.yul\":2210:2212   */\n      0x20\n        /* \"#utility.yul\":2198:2207   */\n      dup3\n        /* \"#utility.yul\":2189:2196   */\n      dup5\n        /* \"#utility.yul\":2185:2208   */\n      sub\n        /* \"#utility.yul\":2181:2213   */\n      slt\n        /* \"#utility.yul\":2178:2297   */\n      iszero\n      tag_214\n      jumpi\n        /* \"#utility.yul\":2216:2295   */\n      tag_215\n      tag_159\n      jump\t// in\n    tag_215:\n        /* \"#utility.yul\":2178:2297   */\n    tag_214:\n        /* \"#utility.yul\":2336:2337   */\n      0x00\n        /* \"#utility.yul\":2361:2414   */\n      tag_216\n        /* \"#utility.yul\":2406:2413   */\n      dup5\n        /* \"#utility.yul\":2397:2403   */\n      dup3\n        /* \"#utility.yul\":2386:2395   */\n      dup6\n        /* \"#utility.yul\":2382:2404   */\n      add\n        /* \"#utility.yul\":2361:2414   */\n      tag_162\n      jump\t// in\n    tag_216:\n        /* \"#utility.yul\":2351:2414   */\n      swap2\n      pop\n        /* \"#utility.yul\":2307:2424   */\n      pop\n        /* \"#utility.yul\":2102:2431   */\n      swap3\n      swap2\n      pop\n      pop\n      jump\t// out\n        /* \"#utility.yul\":2437:2533   */\n    tag_163:\n        /* \"#utility.yul\":2474:2481   */\n      0x00\n        /* \"#utility.yul\":2503:2527   */\n      tag_218\n        /* \"#utility.yul\":2521:2526   */\n      dup3\n        /* \"#utility.yul\":2503:2527   */\n      tag_152\n      jump\t// in\n    tag_218:\n        /* \"#utility.yul\":2492:2527   */\n      swap1\n      pop\n        /* \"#utility.yul\":2437:2533   */\n      swap2\n      swap1\n      pop\n      jump\t// out\n        /* \"#utility.yul\":2539:2661   */\n    tag_164:\n        /* \"#utility.yul\":2612:2636   */\n      tag_220\n        /* \"#utility.yul\":2630:2635   */\n      dup2\n        /* \"#utility.yul\":2612:2636   */\n      tag_163\n      jump\t// in\n    tag_220:\n        /* \"#utility.yul\":2605:2610   */\n      dup2\n        /* \"#utility.yul\":2602:2637   */\n      eq\n        /* \"#utility.yul\":2592:2655   */\n      tag_221\n      jumpi\n        /* \"#utility.yul\":2651:2652   */\n      0x00\n        /* \"#utility.yul\":2648:2649   */\n      0x00\n        /* \"#utility.yul\":2641:2653   */\n      revert\n        /* \"#utility.yul\":2592:2655   */\n    tag_221:\n        /* \"#utility.yul\":2539:2661   */\n      pop\n      jump\t// out\n        /* \"#utility.yul\":2667:2806   */\n    tag_165:\n        /* \"#utility.yul\":2713:2718   */\n      0x00\n        /* \"#utility.yul\":2751:2757   */\n      dup2\n        /* \"#utility.yul\":2738:2758   */\n      calldataload\n        /* \"#utility.yul\":2729:2758   */\n      swap1\n      pop\n        /* \"#utility.yul\":2767:2800   */\n      tag_223\n        /* \"#utility.yul\":2794:2799   */\n      dup2\n        /* \"#utility.yul\":2767:2800   */\n      tag_164\n      jump\t// in\n    tag_223:\n        /* \"#utility.yul\":2667:2806   */\n      swap3\n      swap2\n      pop\n      pop\n      jump\t// out\n        /* \"#utility.yul\":2812:3141   */\n    tag_44:\n        /* \"#utility.yul\":2871:2877   */\n      0x00\n        /* \"#utility.yul\":2920:2922   */\n      0x20\n        /* \"#utility.yul\":2908:2917   */\n      dup3\n        /* \"#utility.yul\":2899:2906   */\n      dup5\n        /* \"#utility.yul\":2895:2918   */\n      sub\n        /* \"#utility.yul\":2891:2923   */\n      slt\n        /* \"#utility.yul\":2888:3007   */\n      iszero\n      tag_225\n      jumpi\n        /* \"#utility.yul\":2926:3005   */\n      tag_226\n      tag_159\n      jump\t// in\n    tag_226:\n        /* \"#utility.yul\":2888:3007   */\n    tag_225:\n        /* \"#utility.yul\":3046:3047   */\n      0x00\n        /* \"#utility.yul\":3071:3124   */\n      tag_227\n        /* \"#utility.yul\":3116:3123   */\n      dup5\n        /* \"#utility.yul\":3107:3113   */\n      dup3\n        /* \"#utility.yul\":3096:3105   */\n      dup6\n        /* \"#utility.yul\":3092:3114   */\n      add\n        /* \"#utility.yul\":3071:3124   */\n      tag_165\n      jump\t// in\n    tag_227:\n        /* \"#utility.yul\":3061:3124   */\n      swap2\n      pop\n        /* \"#utility.yul\":3017:3134   */\n      pop\n        /* \"#utility.yul\":2812:3141   */\n      swap3\n      swap2\n      pop\n      pop\n      jump\t// out\n        /* \"#utility.yul\":3147:3479   */\n    tag_47:\n        /* \"#utility.yul\":3268:3272   */\n      0x00\n        /* \"#utility.yul\":3306:3308   */\n      0x40\n        /* \"#utility.yul\":3295:3304   */\n      dup3\n        /* \"#utility.yul\":3291:3309   */\n      add\n        /* \"#utility.yul\":3283:3309   */\n      swap1\n      pop\n        /* \"#utility.yul\":3319:3390   */\n      tag_229\n        /* \"#utility.yul\":3387:3388   */\n      0x00\n        /* \"#utility.yul\":3376:3385   */\n      dup4\n        /* \"#utility.yul\":3372:3389   */\n      add\n        /* \"#utility.yul\":3363:3369   */\n      dup6\n        /* \"#utility.yul\":3319:3390   */\n      tag_151\n      jump\t// in\n    tag_229:\n        /* \"#utility.yul\":3400:3472   */\n      tag_230\n        /* \"#utility.yul\":3468:3470   */\n      0x20\n        /* \"#utility.yul\":3457:3466   */\n      dup4\n        /* \"#utility.yul\":3453:3471   */\n      add\n        /* \"#utility.yul\":3444:3450   */\n      dup5\n        /* \"#utility.yul\":3400:3472   */\n      tag_151\n      jump\t// in\n    tag_230:\n        /* \"#utility.yul\":3147:3479   */\n      swap4\n      swap3\n      pop\n      pop\n      pop\n      jump\t// out\n        /* \"#utility.yul\":3485:3603   */\n    tag_166:\n        /* \"#utility.yul\":3572:3596   */\n      tag_232\n        /* \"#utility.yul\":3590:3595   */\n      dup2\n        /* \"#utility.yul\":3572:3596   */\n      tag_163\n      jump\t// in\n    tag_232:\n        /* \"#utility.yul\":3567:3570   */\n      dup3\n        /* \"#utility.yul\":3560:3597   */\n      mstore\n        /* \"#utility.yul\":3485:3603   */\n      pop\n      pop\n      jump\t// out\n        /* \"#utility.yul\":3609:4051   */\n    tag_58:\n        /* \"#utility.yul\":3758:3762   */\n      0x00\n        /* \"#utility.yul\":3796:3798   */\n      0x60\n        /* \"#utility.yul\":3785:3794   */\n      dup3\n        /* \"#utility.yul\":3781:3799   */\n      add\n        /* \"#utility.yul\":3773:3799   */\n      swap1\n      pop\n        /* \"#utility.yul\":3809:3880   */\n      tag_234\n        /* \"#utility.yul\":3877:3878   */\n      0x00\n        /* \"#utility.yul\":3866:3875   */\n      dup4\n        /* \"#utility.yul\":3862:3879   */\n      add\n        /* \"#utility.yul\":3853:3859   */\n      dup7\n        /* \"#utility.yul\":3809:3880   */\n      tag_166\n      jump\t// in\n    tag_234:\n        /* \"#utility.yul\":3890:3962   */\n      tag_235\n        /* \"#utility.yul\":3958:3960   */\n      0x20\n        /* \"#utility.yul\":3947:3956   */\n      dup4\n        /* \"#utility.yul\":3943:3961   */\n      add\n        /* \"#utility.yul\":3934:3940   */\n      dup6\n        /* \"#utility.yul\":3890:3962   */\n      tag_166\n      jump\t// in\n    tag_235:\n        /* \"#utility.yul\":3972:4044   */\n      tag_236\n        /* \"#utility.yul\":4040:4042   */\n      0x40\n        /* \"#utility.yul\":4029:4038   */\n      dup4\n        /* \"#utility.yul\":4025:4043   */\n      add\n        /* \"#utility.yul\":4016:4022   */\n      dup5\n        /* \"#utility.yul\":3972:4044   */\n      tag_151\n      jump\t// in\n    tag_236:\n        /* \"#utility.yul\":3609:4051   */\n      swap5\n      swap4\n      pop\n      pop\n      pop\n      pop\n      jump\t// out\n        /* \"#utility.yul\":4057:4147   */\n    tag_167:\n        /* \"#utility.yul\":4091:4098   */\n      0x00\n        /* \"#utility.yul\":4134:4139   */\n      dup2\n        /* \"#utility.yul\":4127:4140   */\n      iszero\n        /* \"#utility.yul\":4120:4141   */\n      iszero\n        /* \"#utility.yul\":4109:4141   */\n      swap1\n      pop\n        /* \"#utility.yul\":4057:4147   */\n      swap2\n      swap1\n      pop\n      jump\t// out\n        /* \"#utility.yul\":4153:4269   */\n    tag_168:\n        /* \"#utility.yul\":4223:4244   */\n      tag_239\n        /* \"#utility.yul\":4238:4243   */\n      dup2\n        /* \"#utility.yul\":4223:4244   */\n      tag_167\n      jump\t// in\n    tag_239:\n        /* \"#utility.yul\":4216:4221   */\n      dup2\n        /* \"#utility.yul\":4213:4245   */\n      eq\n        /* \"#utility.yul\":4203:4263   */\n      tag_240\n      jumpi\n        /* \"#utility.yul\":4259:4260   */\n      0x00\n        /* \"#utility.yul\":4256:4257   */\n      0x00\n        /* \"#utility.yul\":4249:4261   */\n      revert\n        /* \"#utility.yul\":4203:4263   */\n    tag_240:\n        /* \"#utility.yul\":4153:4269   */\n      pop\n      jump\t// out\n        /* \"#utility.yul\":4275:4412   */\n    tag_169:\n        /* \"#utility.yul\":4329:4334   */\n      0x00\n        /* \"#utility.yul\":4360:4366   */\n      dup2\n        /* \"#utility.yul\":4354:4367   */\n      mload\n        /* \"#utility.yul\":4345:4367   */\n      swap1\n      pop\n        /* \"#utility.yul\":4376:4406   */\n      tag_242\n        /* \"#utility.yul\":4400:4405   */\n      dup2\n        /* \"#utility.yul\":4376:4406   */\n      tag_168\n      jump\t// in\n    tag_242:\n        /* \"#utility.yul\":4275:4412   */\n      swap3\n      swap2\n      pop\n      pop\n      jump\t// out\n        /* \"#utility.yul\":4418:4763   */\n    tag_62:\n        /* \"#utility.yul\":4485:4491   */\n      0x00\n        /* \"#utility.yul\":4534:4536   */\n      0x20\n        /* \"#utility.yul\":4522:4531   */\n      dup3\n        /* \"#utility.yul\":4513:4520   */\n      dup5\n        /* \"#utility.yul\":4509:4532   */\n      sub\n        /* \"#utility.yul\":4505:4537   */\n      slt\n        /* \"#utility.yul\":4502:4621   */\n      iszero\n      tag_244\n      jumpi\n        /* \"#utility.yul\":4540:4619   */\n      tag_245\n      tag_159\n      jump\t// in\n    tag_245:\n        /* \"#utility.yul\":4502:4621   */\n    tag_244:\n        /* \"#utility.yul\":4660:4661   */\n      0x00\n        /* \"#utility.yul\":4685:4746   */\n      tag_246\n        /* \"#utility.yul\":4738:4745   */\n      dup5\n        /* \"#utility.yul\":4729:4735   */\n      dup3\n        /* \"#utility.yul\":4718:4727   */\n      dup6\n        /* \"#utility.yul\":4714:4736   */\n      add\n        /* \"#utility.yul\":4685:4746   */\n      tag_169\n      jump\t// in\n    tag_246:\n        /* \"#utility.yul\":4675:4746   */\n      swap2\n      pop\n        /* \"#utility.yul\":4631:4756   */\n      pop\n        /* \"#utility.yul\":4418:4763   */\n      swap3\n      swap2\n      pop\n      pop\n      jump\t// out\n        /* \"#utility.yul\":4769:4938   */\n    tag_170:\n        /* \"#utility.yul\":4853:4864   */\n      0x00\n        /* \"#utility.yul\":4887:4893   */\n      dup3\n        /* \"#utility.yul\":4882:4885   */\n      dup3\n        /* \"#utility.yul\":4875:4894   */\n      mstore\n        /* \"#utility.yul\":4927:4931   */\n      0x20\n        /* \"#utility.yul\":4922:4925   */\n      dup3\n        /* \"#utility.yul\":4918:4932   */\n      add\n        /* \"#utility.yul\":4903:4932   */\n      swap1\n      pop\n        /* \"#utility.yul\":4769:4938   */\n      swap3\n      swap2\n      pop\n      pop\n      jump\t// out\n        /* \"#utility.yul\":4944:5109   */\n    tag_171:\n        /* \"#utility.yul\":5084:5101   */\n      0x5472616e73666572204661696c65640000000000000000000000000000000000\n        /* \"#utility.yul\":5080:5081   */\n      0x00\n        /* \"#utility.yul\":5072:5078   */\n      dup3\n        /* \"#utility.yul\":5068:5082   */\n      add\n        /* \"#utility.yul\":5061:5102   */\n      mstore\n        /* \"#utility.yul\":4944:5109   */\n      pop\n      jump\t// out\n        /* \"#utility.yul\":5115:5481   */\n    tag_172:\n        /* \"#utility.yul\":5257:5260   */\n      0x00\n        /* \"#utility.yul\":5278:5345   */\n      tag_250\n        /* \"#utility.yul\":5342:5344   */\n      0x0f\n        /* \"#utility.yul\":5337:5340   */\n      dup4\n        /* \"#utility.yul\":5278:5345   */\n      tag_170\n      jump\t// in\n    tag_250:\n        /* \"#utility.yul\":5271:5345   */\n      swap2\n      pop\n        /* \"#utility.yul\":5354:5447   */\n      tag_251\n        /* \"#utility.yul\":5443:5446   */\n      dup3\n        /* \"#utility.yul\":5354:5447   */\n      tag_171\n      jump\t// in\n    tag_251:\n        /* \"#utility.yul\":5472:5474   */\n      0x20\n        /* \"#utility.yul\":5467:5470   */\n      dup3\n        /* \"#utility.yul\":5463:5475   */\n      add\n        /* \"#utility.yul\":5456:5475   */\n      swap1\n      pop\n        /* \"#utility.yul\":5115:5481   */\n      swap2\n      swap1\n      pop\n      jump\t// out\n        /* \"#utility.yul\":5487:5906   */\n    tag_65:\n        /* \"#utility.yul\":5653:5657   */\n      0x00\n        /* \"#utility.yul\":5691:5693   */\n      0x20\n        /* \"#utility.yul\":5680:5689   */\n      dup3\n        /* \"#utility.yul\":5676:5694   */\n      add\n        /* \"#utility.yul\":5668:5694   */\n      swap1\n      pop\n        /* \"#utility.yul\":5740:5749   */\n      dup2\n        /* \"#utility.yul\":5734:5738   */\n      dup2\n        /* \"#utility.yul\":5730:5750   */\n      sub\n        /* \"#utility.yul\":5726:5727   */\n      0x00\n        /* \"#utility.yul\":5715:5724   */\n      dup4\n        /* \"#utility.yul\":5711:5728   */\n      add\n        /* \"#utility.yul\":5704:5751   */\n      mstore\n        /* \"#utility.yul\":5768:5899   */\n      tag_253\n        /* \"#utility.yul\":5894:5898   */\n      dup2\n        /* \"#utility.yul\":5768:5899   */\n      tag_172\n      jump\t// in\n    tag_253:\n        /* \"#utility.yul\":5760:5899   */\n      swap1\n      pop\n        /* \"#utility.yul\":5487:5906   */\n      swap2\n      swap1\n      pop\n      jump\t// out\n        /* \"#utility.yul\":5912:6092   */\n    tag_173:\n        /* \"#utility.yul\":5960:6037   */\n      0x4e487b7100000000000000000000000000000000000000000000000000000000\n        /* \"#utility.yul\":5957:5958   */\n      0x00\n        /* \"#utility.yul\":5950:6038   */\n      mstore\n        /* \"#utility.yul\":6057:6061   */\n      0x11\n        /* \"#utility.yul\":6054:6055   */\n      0x04\n        /* \"#utility.yul\":6047:6062   */\n      mstore\n        /* \"#utility.yul\":6081:6085   */\n      0x24\n        /* \"#utility.yul\":6078:6079   */\n      0x00\n        /* \"#utility.yul\":6071:6086   */\n      revert\n        /* \"#utility.yul\":6098:6292   */\n    tag_69:\n        /* \"#utility.yul\":6138:6142   */\n      0x00\n        /* \"#utility.yul\":6158:6178   */\n      tag_256\n        /* \"#utility.yul\":6176:6177   */\n      dup3\n        /* \"#utility.yul\":6158:6178   */\n      tag_150\n      jump\t// in\n    tag_256:\n        /* \"#utility.yul\":6153:6178   */\n      swap2\n      pop\n        /* \"#utility.yul\":6192:6212   */\n      tag_257\n        /* \"#utility.yul\":6210:6211   */\n      dup4\n        /* \"#utility.yul\":6192:6212   */\n      tag_150\n      jump\t// in\n    tag_257:\n        /* \"#utility.yul\":6187:6212   */\n      swap3\n      pop\n        /* \"#utility.yul\":6236:6237   */\n      dup3\n        /* \"#utility.yul\":6233:6234   */\n      dup3\n        /* \"#utility.yul\":6229:6238   */\n      sub\n        /* \"#utility.yul\":6221:6238   */\n      swap1\n      pop\n        /* \"#utility.yul\":6260:6261   */\n      dup2\n        /* \"#utility.yul\":6254:6258   */\n      dup2\n        /* \"#utility.yul\":6251:6262   */\n      gt\n        /* \"#utility.yul\":6248:6285   */\n      iszero\n      tag_258\n      jumpi\n        /* \"#utility.yul\":6265:6283   */\n      tag_259\n      tag_173\n      jump\t// in\n    tag_259:\n        /* \"#utility.yul\":6248:6285   */\n    tag_258:\n        /* \"#utility.yul\":6098:6292   */\n      swap3\n      swap2\n      pop\n      pop\n      jump\t// out\n        /* \"#utility.yul\":6298:6489   */\n    tag_78:\n        /* \"#utility.yul\":6338:6341   */\n      0x00\n        /* \"#utility.yul\":6357:6377   */\n      tag_261\n        /* \"#utility.yul\":6375:6376   */\n      dup3\n        /* \"#utility.yul\":6357:6377   */\n      tag_150\n      jump\t// in\n    tag_261:\n        /* \"#utility.yul\":6352:6377   */\n      swap2\n      pop\n        /* \"#utility.yul\":6391:6411   */\n      tag_262\n        /* \"#utility.yul\":6409:6410   */\n      dup4\n        /* \"#utility.yul\":6391:6411   */\n      tag_150\n      jump\t// in\n    tag_262:\n        /* \"#utility.yul\":6386:6411   */\n      swap3\n      pop\n        /* \"#utility.yul\":6434:6435   */\n      dup3\n        /* \"#utility.yul\":6431:6432   */\n      dup3\n        /* \"#utility.yul\":6427:6436   */\n      add\n        /* \"#utility.yul\":6420:6436   */\n      swap1\n      pop\n        /* \"#utility.yul\":6455:6458   */\n      dup1\n        /* \"#utility.yul\":6452:6453   */\n      dup3\n        /* \"#utility.yul\":6449:6459   */\n      gt\n        /* \"#utility.yul\":6446:6482   */\n      iszero\n      tag_263\n      jumpi\n        /* \"#utility.yul\":6462:6480   */\n      tag_264\n      tag_173\n      jump\t// in\n    tag_264:\n        /* \"#utility.yul\":6446:6482   */\n    tag_263:\n        /* \"#utility.yul\":6298:6489   */\n      swap3\n      swap2\n      pop\n      pop\n      jump\t// out\n        /* \"#utility.yul\":6495:6717   */\n    tag_174:\n        /* \"#utility.yul\":6635:6669   */\n      0x596f75206861766520657863656564656420796f757220626f72726f77206c69\n        /* \"#utility.yul\":6631:6632   */\n      0x00\n        /* \"#utility.yul\":6623:6629   */\n      dup3\n        /* \"#utility.yul\":6619:6633   */\n      add\n        /* \"#utility.yul\":6612:6670   */\n      mstore\n        /* \"#utility.yul\":6704:6709   */\n      0x6d69740000000000000000000000000000000000000000000000000000000000\n        /* \"#utility.yul\":6699:6701   */\n      0x20\n        /* \"#utility.yul\":6691:6697   */\n      dup3\n        /* \"#utility.yul\":6687:6702   */\n      add\n        /* \"#utility.yul\":6680:6710   */\n      mstore\n        /* \"#utility.yul\":6495:6717   */\n      pop\n      jump\t// out\n        /* \"#utility.yul\":6723:7089   */\n    tag_175:\n        /* \"#utility.yul\":6865:6868   */\n      0x00\n        /* \"#utility.yul\":6886:6953   */\n      tag_267\n        /* \"#utility.yul\":6950:6952   */\n      0x23\n        /* \"#utility.yul\":6945:6948   */\n      dup4\n        /* \"#utility.yul\":6886:6953   */\n      tag_170\n      jump\t// in\n    tag_267:\n        /* \"#utility.yul\":6879:6953   */\n      swap2\n      pop\n        /* \"#utility.yul\":6962:7055   */\n      tag_268\n        /* \"#utility.yul\":7051:7054   */\n      dup3\n        /* \"#utility.yul\":6962:7055   */\n      tag_174\n      jump\t// in\n    tag_268:\n        /* \"#utility.yul\":7080:7082   */\n      0x40\n        /* \"#utility.yul\":7075:7078   */\n      dup3\n        /* \"#utility.yul\":7071:7083   */\n      add\n        /* \"#utility.yul\":7064:7083   */\n      swap1\n      pop\n        /* \"#utility.yul\":6723:7089   */\n      swap2\n      swap1\n      pop\n      jump\t// out\n        /* \"#utility.yul\":7095:7514   */\n    tag_81:\n        /* \"#utility.yul\":7261:7265   */\n      0x00\n        /* \"#utility.yul\":7299:7301   */\n      0x20\n        /* \"#utility.yul\":7288:7297   */\n      dup3\n        /* \"#utility.yul\":7284:7302   */\n      add\n        /* \"#utility.yul\":7276:7302   */\n      swap1\n      pop\n        /* \"#utility.yul\":7348:7357   */\n      dup2\n        /* \"#utility.yul\":7342:7346   */\n      dup2\n        /* \"#utility.yul\":7338:7358   */\n      sub\n        /* \"#utility.yul\":7334:7335   */\n      0x00\n        /* \"#utility.yul\":7323:7332   */\n      dup4\n        /* \"#utility.yul\":7319:7336   */\n      add\n        /* \"#utility.yul\":7312:7359   */\n      mstore\n        /* \"#utility.yul\":7376:7507   */\n      tag_270\n        /* \"#utility.yul\":7502:7506   */\n      dup2\n        /* \"#utility.yul\":7376:7507   */\n      tag_175\n      jump\t// in\n    tag_270:\n        /* \"#utility.yul\":7368:7507   */\n      swap1\n      pop\n        /* \"#utility.yul\":7095:7514   */\n      swap2\n      swap1\n      pop\n      jump\t// out\n        /* \"#utility.yul\":7520:7742   */\n    tag_88:\n        /* \"#utility.yul\":7613:7617   */\n      0x00\n        /* \"#utility.yul\":7651:7653   */\n      0x20\n        /* \"#utility.yul\":7640:7649   */\n      dup3\n        /* \"#utility.yul\":7636:7654   */\n      add\n        /* \"#utility.yul\":7628:7654   */\n      swap1\n      pop\n        /* \"#utility.yul\":7664:7735   */\n      tag_272\n        /* \"#utility.yul\":7732:7733   */\n      0x00\n        /* \"#utility.yul\":7721:7730   */\n      dup4\n        /* \"#utility.yul\":7717:7734   */\n      add\n        /* \"#utility.yul\":7708:7714   */\n      dup5\n        /* \"#utility.yul\":7664:7735   */\n      tag_166\n      jump\t// in\n    tag_272:\n        /* \"#utility.yul\":7520:7742   */\n      swap3\n      swap2\n      pop\n      pop\n      jump\t// out\n        /* \"#utility.yul\":7748:7891   */\n    tag_176:\n        /* \"#utility.yul\":7805:7810   */\n      0x00\n        /* \"#utility.yul\":7836:7842   */\n      dup2\n        /* \"#utility.yul\":7830:7843   */\n      mload\n        /* \"#utility.yul\":7821:7843   */\n      swap1\n      pop\n        /* \"#utility.yul\":7852:7885   */\n      tag_274\n        /* \"#utility.yul\":7879:7884   */\n      dup2\n        /* \"#utility.yul\":7852:7885   */\n      tag_161\n      jump\t// in\n    tag_274:\n        /* \"#utility.yul\":7748:7891   */\n      swap3\n      swap2\n      pop\n      pop\n      jump\t// out\n        /* \"#utility.yul\":7897:8248   */\n    tag_92:\n        /* \"#utility.yul\":7967:7973   */\n      0x00\n        /* \"#utility.yul\":8016:8018   */\n      0x20\n        /* \"#utility.yul\":8004:8013   */\n      dup3\n        /* \"#utility.yul\":7995:8002   */\n      dup5\n        /* \"#utility.yul\":7991:8014   */\n      sub\n        /* \"#utility.yul\":7987:8019   */\n      slt\n        /* \"#utility.yul\":7984:8103   */\n      iszero\n      tag_276\n      jumpi\n        /* \"#utility.yul\":8022:8101   */\n      tag_277\n      tag_159\n      jump\t// in\n    tag_277:\n        /* \"#utility.yul\":7984:8103   */\n    tag_276:\n        /* \"#utility.yul\":8142:8143   */\n      0x00\n        /* \"#utility.yul\":8167:8231   */\n      tag_278\n        /* \"#utility.yul\":8223:8230   */\n      dup5\n        /* \"#utility.yul\":8214:8220   */\n      dup3\n        /* \"#utility.yul\":8203:8212   */\n      dup6\n        /* \"#utility.yul\":8199:8221   */\n      add\n        /* \"#utility.yul\":8167:8231   */\n      tag_176\n      jump\t// in\n    tag_278:\n        /* \"#utility.yul\":8157:8231   */\n      swap2\n      pop\n        /* \"#utility.yul\":8113:8241   */\n      pop\n        /* \"#utility.yul\":7897:8248   */\n      swap3\n      swap2\n      pop\n      pop\n      jump\t// out\n        /* \"#utility.yul\":8254:8401   */\n    tag_177:\n        /* \"#utility.yul\":8355:8366   */\n      0x00\n        /* \"#utility.yul\":8392:8395   */\n      dup2\n        /* \"#utility.yul\":8377:8395   */\n      swap1\n      pop\n        /* \"#utility.yul\":8254:8401   */\n      swap3\n      swap2\n      pop\n      pop\n      jump\t// out\n        /* \"#utility.yul\":8407:8521   */\n    tag_178:\n      pop\n      jump\t// out\n        /* \"#utility.yul\":8527:8925   */\n    tag_179:\n        /* \"#utility.yul\":8686:8689   */\n      0x00\n        /* \"#utility.yul\":8707:8790   */\n      tag_282\n        /* \"#utility.yul\":8788:8789   */\n      0x00\n        /* \"#utility.yul\":8783:8786   */\n      dup4\n        /* \"#utility.yul\":8707:8790   */\n      tag_177\n      jump\t// in\n    tag_282:\n        /* \"#utility.yul\":8700:8790   */\n      swap2\n      pop\n        /* \"#utility.yul\":8799:8892   */\n      tag_283\n        /* \"#utility.yul\":8888:8891   */\n      dup3\n        /* \"#utility.yul\":8799:8892   */\n      tag_178\n      jump\t// in\n    tag_283:\n        /* \"#utility.yul\":8917:8918   */\n      0x00\n        /* \"#utility.yul\":8912:8915   */\n      dup3\n        /* \"#utility.yul\":8908:8919   */\n      add\n        /* \"#utility.yul\":8901:8919   */\n      swap1\n      pop\n        /* \"#utility.yul\":8527:8925   */\n      swap2\n      swap1\n      pop\n      jump\t// out\n        /* \"#utility.yul\":8931:9310   */\n    tag_106:\n        /* \"#utility.yul\":9115:9118   */\n      0x00\n        /* \"#utility.yul\":9137:9284   */\n      tag_285\n        /* \"#utility.yul\":9280:9283   */\n      dup3\n        /* \"#utility.yul\":9137:9284   */\n      tag_179\n      jump\t// in\n    tag_285:\n        /* \"#utility.yul\":9130:9284   */\n      swap2\n      pop\n        /* \"#utility.yul\":9301:9304   */\n      dup2\n        /* \"#utility.yul\":9294:9304   */\n      swap1\n      pop\n        /* \"#utility.yul\":8931:9310   */\n      swap2\n      swap1\n      pop\n      jump\t// out\n        /* \"#utility.yul\":9316:9485   */\n    tag_180:\n        /* \"#utility.yul\":9456:9477   */\n      0x455448207472616e73666572206661696c656400000000000000000000000000\n        /* \"#utility.yul\":9452:9453   */\n      0x00\n        /* \"#utility.yul\":9444:9450   */\n      dup3\n        /* \"#utility.yul\":9440:9454   */\n      add\n        /* \"#utility.yul\":9433:9478   */\n      mstore\n        /* \"#utility.yul\":9316:9485   */\n      pop\n      jump\t// out\n        /* \"#utility.yul\":9491:9857   */\n    tag_181:\n        /* \"#utility.yul\":9633:9636   */\n      0x00\n        /* \"#utility.yul\":9654:9721   */\n      tag_288\n        /* \"#utility.yul\":9718:9720   */\n      0x13\n        /* \"#utility.yul\":9713:9716   */\n      dup4\n        /* \"#utility.yul\":9654:9721   */\n      tag_170\n      jump\t// in\n    tag_288:\n        /* \"#utility.yul\":9647:9721   */\n      swap2\n      pop\n        /* \"#utility.yul\":9730:9823   */\n      tag_289\n        /* \"#utility.yul\":9819:9822   */\n      dup3\n        /* \"#utility.yul\":9730:9823   */\n      tag_180\n      jump\t// in\n    tag_289:\n        /* \"#utility.yul\":9848:9850   */\n      0x20\n        /* \"#utility.yul\":9843:9846   */\n      dup3\n        /* \"#utility.yul\":9839:9851   */\n      add\n        /* \"#utility.yul\":9832:9851   */\n      swap1\n      pop\n        /* \"#utility.yul\":9491:9857   */\n      swap2\n      swap1\n      pop\n      jump\t// out\n        /* \"#utility.yul\":9863:10282   */\n    tag_112:\n        /* \"#utility.yul\":10029:10033   */\n      0x00\n        /* \"#utility.yul\":10067:10069   */\n      0x20\n        /* \"#utility.yul\":10056:10065   */\n      dup3\n        /* \"#utility.yul\":10052:10070   */\n      add\n        /* \"#utility.yul\":10044:10070   */\n      swap1\n      pop\n        /* \"#utility.yul\":10116:10125   */\n      dup2\n        /* \"#utility.yul\":10110:10114   */\n      dup2\n        /* \"#utility.yul\":10106:10126   */\n      sub\n        /* \"#utility.yul\":10102:10103   */\n      0x00\n        /* \"#utility.yul\":10091:10100   */\n      dup4\n        /* \"#utility.yul\":10087:10104   */\n      add\n        /* \"#utility.yul\":10080:10127   */\n      mstore\n        /* \"#utility.yul\":10144:10275   */\n      tag_291\n        /* \"#utility.yul\":10270:10274   */\n      dup2\n        /* \"#utility.yul\":10144:10275   */\n      tag_181\n      jump\t// in\n    tag_291:\n        /* \"#utility.yul\":10136:10275   */\n      swap1\n      pop\n        /* \"#utility.yul\":9863:10282   */\n      swap2\n      swap1\n      pop\n      jump\t// out\n        /* \"#utility.yul\":10288:10698   */\n    tag_116:\n        /* \"#utility.yul\":10328:10335   */\n      0x00\n        /* \"#utility.yul\":10351:10371   */\n      tag_293\n        /* \"#utility.yul\":10369:10370   */\n      dup3\n        /* \"#utility.yul\":10351:10371   */\n      tag_150\n      jump\t// in\n    tag_293:\n        /* \"#utility.yul\":10346:10371   */\n      swap2\n      pop\n        /* \"#utility.yul\":10385:10405   */\n      tag_294\n        /* \"#utility.yul\":10403:10404   */\n      dup4\n        /* \"#utility.yul\":10385:10405   */\n      tag_150\n      jump\t// in\n    tag_294:\n        /* \"#utility.yul\":10380:10405   */\n      swap3\n      pop\n        /* \"#utility.yul\":10440:10441   */\n      dup3\n        /* \"#utility.yul\":10437:10438   */\n      dup3\n        /* \"#utility.yul\":10433:10442   */\n      mul\n        /* \"#utility.yul\":10462:10492   */\n      tag_295\n        /* \"#utility.yul\":10480:10491   */\n      dup2\n        /* \"#utility.yul\":10462:10492   */\n      tag_150\n      jump\t// in\n    tag_295:\n        /* \"#utility.yul\":10451:10492   */\n      swap2\n      pop\n        /* \"#utility.yul\":10641:10642   */\n      dup3\n        /* \"#utility.yul\":10632:10639   */\n      dup3\n        /* \"#utility.yul\":10628:10643   */\n      div\n        /* \"#utility.yul\":10625:10626   */\n      dup5\n        /* \"#utility.yul\":10622:10644   */\n      eq\n        /* \"#utility.yul\":10602:10603   */\n      dup4\n        /* \"#utility.yul\":10595:10604   */\n      iszero\n        /* \"#utility.yul\":10575:10658   */\n      or\n        /* \"#utility.yul\":10552:10691   */\n      tag_296\n      jumpi\n        /* \"#utility.yul\":10671:10689   */\n      tag_297\n      tag_173\n      jump\t// in\n    tag_297:\n        /* \"#utility.yul\":10552:10691   */\n    tag_296:\n        /* \"#utility.yul\":10336:10698   */\n      pop\n        /* \"#utility.yul\":10288:10698   */\n      swap3\n      swap2\n      pop\n      pop\n      jump\t// out\n        /* \"#utility.yul\":10704:10884   */\n    tag_182:\n        /* \"#utility.yul\":10752:10829   */\n      0x4e487b7100000000000000000000000000000000000000000000000000000000\n        /* \"#utility.yul\":10749:10750   */\n      0x00\n        /* \"#utility.yul\":10742:10830   */\n      mstore\n        /* \"#utility.yul\":10849:10853   */\n      0x12\n        /* \"#utility.yul\":10846:10847   */\n      0x04\n        /* \"#utility.yul\":10839:10854   */\n      mstore\n        /* \"#utility.yul\":10873:10877   */\n      0x24\n        /* \"#utility.yul\":10870:10871   */\n      0x00\n        /* \"#utility.yul\":10863:10878   */\n      revert\n        /* \"#utility.yul\":10890:11075   */\n    tag_121:\n        /* \"#utility.yul\":10930:10931   */\n      0x00\n        /* \"#utility.yul\":10947:10967   */\n      tag_300\n        /* \"#utility.yul\":10965:10966   */\n      dup3\n        /* \"#utility.yul\":10947:10967   */\n      tag_150\n      jump\t// in\n    tag_300:\n        /* \"#utility.yul\":10942:10967   */\n      swap2\n      pop\n        /* \"#utility.yul\":10981:11001   */\n      tag_301\n        /* \"#utility.yul\":10999:11000   */\n      dup4\n        /* \"#utility.yul\":10981:11001   */\n      tag_150\n      jump\t// in\n    tag_301:\n        /* \"#utility.yul\":10976:11001   */\n      swap3\n      pop\n        /* \"#utility.yul\":11020:11021   */\n      dup3\n        /* \"#utility.yul\":11010:11045   */\n      tag_302\n      jumpi\n        /* \"#utility.yul\":11025:11043   */\n      tag_303\n      tag_182\n      jump\t// in\n    tag_303:\n        /* \"#utility.yul\":11010:11045   */\n    tag_302:\n        /* \"#utility.yul\":11067:11068   */\n      dup3\n        /* \"#utility.yul\":11064:11065   */\n      dup3\n        /* \"#utility.yul\":11060:11069   */\n      div\n        /* \"#utility.yul\":11055:11069   */\n      swap1\n      pop\n        /* \"#utility.yul\":10890:11075   */\n      swap3\n      swap2\n      pop\n      pop\n      jump\t// out\n        /* \"#utility.yul\":11081:11413   */\n    tag_130:\n        /* \"#utility.yul\":11202:11206   */\n      0x00\n        /* \"#utility.yul\":11240:11242   */\n      0x40\n        /* \"#utility.yul\":11229:11238   */\n      dup3\n        /* \"#utility.yul\":11225:11243   */\n      add\n        /* \"#utility.yul\":11217:11243   */\n      swap1\n      pop\n        /* \"#utility.yul\":11253:11324   */\n      tag_305\n        /* \"#utility.yul\":11321:11322   */\n      0x00\n        /* \"#utility.yul\":11310:11319   */\n      dup4\n        /* \"#utility.yul\":11306:11323   */\n      add\n        /* \"#utility.yul\":11297:11303   */\n      dup6\n        /* \"#utility.yul\":11253:11324   */\n      tag_166\n      jump\t// in\n    tag_305:\n        /* \"#utility.yul\":11334:11406   */\n      tag_306\n        /* \"#utility.yul\":11402:11404   */\n      0x20\n        /* \"#utility.yul\":11391:11400   */\n      dup4\n        /* \"#utility.yul\":11387:11405   */\n      add\n        /* \"#utility.yul\":11378:11384   */\n      dup5\n        /* \"#utility.yul\":11334:11406   */\n      tag_151\n      jump\t// in\n    tag_306:\n        /* \"#utility.yul\":11081:11413   */\n      swap4\n      swap3\n      pop\n      pop\n      pop\n      jump\t// out\n        /* \"#utility.yul\":11419:11584   */\n    tag_183:\n        /* \"#utility.yul\":11559:11576   */\n      0x5472616e73666572206661696c65640000000000000000000000000000000000\n        /* \"#utility.yul\":11555:11556   */\n      0x00\n        /* \"#utility.yul\":11547:11553   */\n      dup3\n        /* \"#utility.yul\":11543:11557   */\n      add\n        /* \"#utility.yul\":11536:11577   */\n      mstore\n        /* \"#utility.yul\":11419:11584   */\n      pop\n      jump\t// out\n        /* \"#utility.yul\":11590:11956   */\n    tag_184:\n        /* \"#utility.yul\":11732:11735   */\n      0x00\n        /* \"#utility.yul\":11753:11820   */\n      tag_309\n        /* \"#utility.yul\":11817:11819   */\n      0x0f\n        /* \"#utility.yul\":11812:11815   */\n      dup4\n        /* \"#utility.yul\":11753:11820   */\n      tag_170\n      jump\t// in\n    tag_309:\n        /* \"#utility.yul\":11746:11820   */\n      swap2\n      pop\n        /* \"#utility.yul\":11829:11922   */\n      tag_310\n        /* \"#utility.yul\":11918:11921   */\n      dup3\n        /* \"#utility.yul\":11829:11922   */\n      tag_183\n      jump\t// in\n    tag_310:\n        /* \"#utility.yul\":11947:11949   */\n      0x20\n        /* \"#utility.yul\":11942:11945   */\n      dup3\n        /* \"#utility.yul\":11938:11950   */\n      add\n        /* \"#utility.yul\":11931:11950   */\n      swap1\n      pop\n        /* \"#utility.yul\":11590:11956   */\n      swap2\n      swap1\n      pop\n      jump\t// out\n        /* \"#utility.yul\":11962:12381   */\n    tag_136:\n        /* \"#utility.yul\":12128:12132   */\n      0x00\n        /* \"#utility.yul\":12166:12168   */\n      0x20\n        /* \"#utility.yul\":12155:12164   */\n      dup3\n        /* \"#utility.yul\":12151:12169   */\n      add\n        /* \"#utility.yul\":12143:12169   */\n      swap1\n      pop\n        /* \"#utility.yul\":12215:12224   */\n      dup2\n        /* \"#utility.yul\":12209:12213   */\n      dup2\n        /* \"#utility.yul\":12205:12225   */\n      sub\n        /* \"#utility.yul\":12201:12202   */\n      0x00\n        /* \"#utility.yul\":12190:12199   */\n      dup4\n        /* \"#utility.yul\":12186:12203   */\n      add\n        /* \"#utility.yul\":12179:12226   */\n      mstore\n        /* \"#utility.yul\":12243:12374   */\n      tag_312\n        /* \"#utility.yul\":12369:12373   */\n      dup2\n        /* \"#utility.yul\":12243:12374   */\n      tag_184\n      jump\t// in\n    tag_312:\n        /* \"#utility.yul\":12235:12374   */\n      swap1\n      pop\n        /* \"#utility.yul\":11962:12381   */\n      swap2\n      swap1\n      pop\n      jump\t// out\n\n    auxdata: 0xa26469706673582212207a2f1c4b3bf33717d5492bc0df533e74e2411550eef7151d8a4e7ff64d1a377c64736f6c634300081f0033\n}\n",
				"bytecode": {
					"linkReferences": {},
					"object": "608060405234801561000f575f5ffd5b5060405161150038038061150083398181016040528101906100319190610149565b5f73ffffffffffffffffffffffffffffffffffffffff168173ffffffffffffffffffffffffffffffffffffffff16146100a857805f5f6101000a81548173ffffffffffffffffffffffffffffffffffffffff021916908373ffffffffffffffffffffffffffffffffffffffff1602179055506100e5565b806040517f8e4c8aa60000000000000000000000000000000000000000000000000000000081526004016100dc9190610183565b60405180910390fd5b5061019c565b5f5ffd5b5f73ffffffffffffffffffffffffffffffffffffffff82169050919050565b5f610118826100ef565b9050919050565b6101288161010e565b8114610132575f5ffd5b50565b5f815190506101438161011f565b92915050565b5f6020828403121561015e5761015d6100eb565b5b5f61016b84828501610135565b91505092915050565b61017d8161010e565b82525050565b5f6020820190506101965f830184610174565b92915050565b611357806101a95f395ff3fe60806040526004361061007e575f3560e01c8063685398e71161004d578063685398e7146101255780637a5f0dc41461014f578063a87430ba14610159578063e1bf0a4b146101965761007f565b80630ce90e5f146100815780630fb9f035146100ab5780634aed0980146100d55780635c2e3de2146100fd5761007f565b5b005b34801561008c575f5ffd5b506100956101be565b6040516100a29190610d24565b60405180910390f35b3480156100b6575f5ffd5b506100bf6101c5565b6040516100cc9190610db7565b60405180910390f35b3480156100e0575f5ffd5b506100fb60048036038101906100f69190610dfe565b6101e9565b005b348015610108575f5ffd5b50610123600480360381019061011e9190610dfe565b61040c565b005b348015610130575f5ffd5b506101396105a1565b6040516101469190610d24565b60405180910390f35b61015761063f565b005b348015610164575f5ffd5b5061017f600480360381019061017a9190610e64565b610723565b60405161018d929190610e8f565b60405180910390f35b3480156101a1575f5ffd5b506101bc60048036038101906101b79190610dfe565b610743565b005b5f47905090565b5f5f9054906101000a900473ffffffffffffffffffffffffffffffffffffffff1681565b5f60015f3373ffffffffffffffffffffffffffffffffffffffff1673ffffffffffffffffffffffffffffffffffffffff1681526020019081526020015f2090505f82148061023a57505f8160010154145b15610271576040517ff79050d000000000000000000000000000000000000000000000000000000000815260040160405180910390fd5b8060010154821161035d575f5f9054906101000a900473ffffffffffffffffffffffffffffffffffffffff1673ffffffffffffffffffffffffffffffffffffffff166323b872dd3330856040518463ffffffff1660e01b81526004016102d993929190610ec5565b6020604051808303815f875af11580156102f5573d5f5f3e3d5ffd5b505050506040513d601f19601f820116820180604052508101906103199190610f2f565b610358576040517f08c379a000000000000000000000000000000000000000000000000000000000815260040161034f90610fb4565b60405180910390fd5b6103a0565b8181600101546040517f99bcd813000000000000000000000000000000000000000000000000000000008152600401610397929190610e8f565b60405180910390fd5b81816001015f8282546103b39190610fff565b925050819055503373ffffffffffffffffffffffffffffffffffffffff167fb7efcc12f3d3e74e33995ff303aca806b9428989809e60a4e5a4d465832966e4836040516104009190610d24565b60405180910390a25050565b5f60015f3373ffffffffffffffffffffffffffffffffffffffff1673ffffffffffffffffffffffffffffffffffffffff1681526020019081526020015f2090505f815f015403610488576040517fb016be5e00000000000000000000000000000000000000000000000000000000815260040160405180910390fd5b5f82036104c1576040517f2c5211c600000000000000000000000000000000000000000000000000000000815260040160405180910390fd5b5f6104cb3361093c565b11156104f05781816001015f8282546104e49190611032565b9250508190555061052b565b6040517f08c379a0000000000000000000000000000000000000000000000000000000008152600401610522906110d5565b60405180910390fd5b81816001015f82825461053e9190611032565b9250508190555061054f3383610a9a565b3373ffffffffffffffffffffffffffffffffffffffff167f5abc9a9c4616711eb03d720e050325118645a3695a5e75b5b10a29e2e217fe03836040516105959190610d24565b60405180910390a25050565b5f5f5f9054906101000a900473ffffffffffffffffffffffffffffffffffffffff1673ffffffffffffffffffffffffffffffffffffffff166370a08231306040518263ffffffff1660e01b81526004016105fb91906110f3565b602060405180830381865afa158015610616573d5f5f3e3d5ffd5b505050506040513d601f19601f8201168201806040525081019061063a9190611120565b905090565b5f3411156106a1573460015f3373ffffffffffffffffffffffffffffffffffffffff1673ffffffffffffffffffffffffffffffffffffffff1681526020019081526020015f205f015f8282546106959190611032565b925050819055506106d3565b6040517fb016be5e00000000000000000000000000000000000000000000000000000000815260040160405180910390fd5b3373ffffffffffffffffffffffffffffffffffffffff167f1c0917c3a343a300b56473c59fa8355d3326f2c73472679a5b4cd5d6e0390c80346040516107199190610d24565b60405180910390a2565b6001602052805f5260405f205f91509050805f0154908060010154905082565b5f60015f3373ffffffffffffffffffffffffffffffffffffffff1673ffffffffffffffffffffffffffffffffffffffff1681526020019081526020015f2090505f82148061079557505f816001015414155b156107db5780600101546040517f40a636fb0000000000000000000000000000000000000000000000000000000081526004016107d29190610d24565b60405180910390fd5b805f015482111561082857805f0154826040517f768063db00000000000000000000000000000000000000000000000000000000815260040161081f929190610e8f565b60405180910390fd5b81815f015f82825461083a9190610fff565b925050819055505f3373ffffffffffffffffffffffffffffffffffffffff168360405161086690611178565b5f6040518083038185875af1925050503d805f81146108a0576040519150601f19603f3d011682016040523d82523d5f602084013e6108a5565b606091505b50509050806108e9576040517f08c379a00000000000000000000000000000000000000000000000000000000081526004016108e0906111d6565b60405180910390fd5b3373ffffffffffffffffffffffffffffffffffffffff167f5b0743acabce0ea09498b3c2598ed444f80ef6513a2029d7d9aaed87064d1edb8460405161092f9190610d24565b60405180910390a2505050565b5f5f670de0b6b3a764000080606461095491906111f4565b61095e91906111f4565b6032686c6b935b8bbd40000060015f8773ffffffffffffffffffffffffffffffffffffffff1673ffffffffffffffffffffffffffffffffffffffff1681526020019081526020015f205f01546109b491906111f4565b6109be91906111f4565b6109c89190611262565b905080670de0b6b3a764000060015f8673ffffffffffffffffffffffffffffffffffffffff1673ffffffffffffffffffffffffffffffffffffffff1681526020019081526020015f2060010154610a1f9190611262565b10610a2d575f915050610a95565b5f670de0b6b3a764000060015f8673ffffffffffffffffffffffffffffffffffffffff1673ffffffffffffffffffffffffffffffffffffffff1681526020019081526020015f2060010154610a829190611262565b82610a8d9190610fff565b905080925050505b919050565b5f610aa36105a1565b9050818110610b8b575f5f9054906101000a900473ffffffffffffffffffffffffffffffffffffffff1673ffffffffffffffffffffffffffffffffffffffff1663a9059cbb84846040518363ffffffff1660e01b8152600401610b07929190611292565b6020604051808303815f875af1158015610b23573d5f5f3e3d5ffd5b505050506040513d601f19601f82011682018060405250810190610b479190610f2f565b610b86576040517f08c379a0000000000000000000000000000000000000000000000000000000008152600401610b7d90611303565b60405180910390fd5b610d07565b5f8183610b989190610fff565b90505f821115610c7d575f5f9054906101000a900473ffffffffffffffffffffffffffffffffffffffff1673ffffffffffffffffffffffffffffffffffffffff1663a9059cbb85846040518363ffffffff1660e01b8152600401610bfd929190611292565b6020604051808303815f875af1158015610c19573d5f5f3e3d5ffd5b505050506040513d601f19601f82011682018060405250810190610c3d9190610f2f565b610c7c576040517f08c379a0000000000000000000000000000000000000000000000000000000008152600401610c7390611303565b60405180910390fd5b5b5f5f9054906101000a900473ffffffffffffffffffffffffffffffffffffffff1673ffffffffffffffffffffffffffffffffffffffff166340c10f1985836040518363ffffffff1660e01b8152600401610cd8929190611292565b5f604051808303815f87803b158015610cef575f5ffd5b505af1158015610d01573d5f5f3e3d5ffd5b50505050505b505050565b5f819050919050565b610d1e81610d0c565b82525050565b5f602082019050610d375f830184610d15565b92915050565b5f73ffffffffffffffffffffffffffffffffffffffff82169050919050565b5f819050919050565b5f610d7f610d7a610d7584610d3d565b610d5c565b610d3d565b9050919050565b5f610d9082610d65565b9050919050565b5f610da182610d86565b9050919050565b610db181610d97565b82525050565b5f602082019050610dca5f830184610da8565b92915050565b5f5ffd5b610ddd81610d0c565b8114610de7575f5ffd5b50565b5f81359050610df881610dd4565b92915050565b5f60208284031215610e1357610e12610dd0565b5b5f610e2084828501610dea565b91505092915050565b5f610e3382610d3d565b9050919050565b610e4381610e29565b8114610e4d575f5ffd5b50565b5f81359050610e5e81610e3a565b92915050565b5f60208284031215610e7957610e78610dd0565b5b5f610e8684828501610e50565b91505092915050565b5f604082019050610ea25f830185610d15565b610eaf6020830184610d15565b9392505050565b610ebf81610e29565b82525050565b5f606082019050610ed85f830186610eb6565b610ee56020830185610eb6565b610ef26040830184610d15565b949350505050565b5f8115159050919050565b610f0e81610efa565b8114610f18575f5ffd5b50565b5f81519050610f2981610f05565b92915050565b5f60208284031215610f4457610f43610dd0565b5b5f610f5184828501610f1b565b91505092915050565b5f82825260208201905092915050565b7f5472616e73666572204661696c656400000000000000000000000000000000005f82015250565b5f610f9e600f83610f5a565b9150610fa982610f6a565b602082019050919050565b5f6020820190508181035f830152610fcb81610f92565b9050919050565b7f4e487b71000000000000000000000000000000000000000000000000000000005f52601160045260245ffd5b5f61100982610d0c565b915061101483610d0c565b925082820390508181111561102c5761102b610fd2565b5b92915050565b5f61103c82610d0c565b915061104783610d0c565b925082820190508082111561105f5761105e610fd2565b5b92915050565b7f596f75206861766520657863656564656420796f757220626f72726f77206c695f8201527f6d69740000000000000000000000000000000000000000000000000000000000602082015250565b5f6110bf602383610f5a565b91506110ca82611065565b604082019050919050565b5f6020820190508181035f8301526110ec816110b3565b9050919050565b5f6020820190506111065f830184610eb6565b92915050565b5f8151905061111a81610dd4565b92915050565b5f6020828403121561113557611134610dd0565b5b5f6111428482850161110c565b91505092915050565b5f81905092915050565b50565b5f6111635f8361114b565b915061116e82611155565b5f82019050919050565b5f61118282611158565b9150819050919050565b7f455448207472616e73666572206661696c6564000000000000000000000000005f82015250565b5f6111c0601383610f5a565b91506111cb8261118c565b602082019050919050565b5f6020820190508181035f8301526111ed816111b4565b9050919050565b5f6111fe82610d0c565b915061120983610d0c565b925082820261121781610d0c565b9150828204841483151761122e5761122d610fd2565b5b5092915050565b7f4e487b71000000000000000000000000000000000000000000000000000000005f52601260045260245ffd5b5f61126c82610d0c565b915061127783610d0c565b92508261128757611286611235565b5b828204905092915050565b5f6040820190506112a55f830185610eb6565b6112b26020830184610d15565b9392505050565b7f5472616e73666572206661696c656400000000000000000000000000000000005f82015250565b5f6112ed600f83610f5a565b91506112f8826112b9565b602082019050919050565b5f6020820190508181035f83015261131a816112e1565b905091905056fea26469706673582212207a2f1c4b3bf33717d5492bc0df533e74e2411550eef7151d8a4e7ff64d1a377c64736f6c634300081f0033",
					"opcodes": "PUSH1 0x80 PUSH1 0x40 MSTORE CALLVALUE DUP1 ISZERO PUSH2 0xF JUMPI PUSH0 PUSH0 REVERT JUMPDEST POP PUSH1 0x40 MLOAD PUSH2 0x1500 CODESIZE SUB DUP1 PUSH2 0x1500 DUP4 CODECOPY DUP2 DUP2 ADD PUSH1 0x40 MSTORE DUP2 ADD SWAP1 PUSH2 0x31 SWAP2 SWAP1 PUSH2 0x149 JUMP JUMPDEST PUSH0 PUSH20 0xFFFFFFFFFFFFFFFFFFFFFFFFFFFFFFFFFFFFFFFF AND DUP2 PUSH20 0xFFFFFFFFFFFFFFFFFFFFFFFFFFFFFFFFFFFFFFFF AND EQ PUSH2 0xA8 JUMPI DUP1 PUSH0 PUSH0 PUSH2 0x100 EXP DUP2 SLOAD DUP2 PUSH20 0xFFFFFFFFFFFFFFFFFFFFFFFFFFFFFFFFFFFFFFFF MUL NOT AND SWAP1 DUP4 PUSH20 0xFFFFFFFFFFFFFFFFFFFFFFFFFFFFFFFFFFFFFFFF AND MUL OR SWAP1 SSTORE POP PUSH2 0xE5 JUMP JUMPDEST DUP1 PUSH1 0x40 MLOAD PUSH32 0x8E4C8AA600000000000000000000000000000000000000000000000000000000 DUP2 MSTORE PUSH1 0x4 ADD PUSH2 0xDC SWAP2 SWAP1 PUSH2 0x183 JUMP JUMPDEST PUSH1 0x40 MLOAD DUP1 SWAP2 SUB SWAP1 REVERT JUMPDEST POP PUSH2 0x19C JUMP JUMPDEST PUSH0 PUSH0 REVERT JUMPDEST PUSH0 PUSH20 0xFFFFFFFFFFFFFFFFFFFFFFFFFFFFFFFFFFFFFFFF DUP3 AND SWAP1 POP SWAP2 SWAP1 POP JUMP JUMPDEST PUSH0 PUSH2 0x118 DUP3 PUSH2 0xEF JUMP JUMPDEST SWAP1 POP SWAP2 SWAP1 POP JUMP JUMPDEST PUSH2 0x128 DUP2 PUSH2 0x10E JUMP JUMPDEST DUP2 EQ PUSH2 0x132 JUMPI PUSH0 PUSH0 REVERT JUMPDEST POP JUMP JUMPDEST PUSH0 DUP2 MLOAD SWAP1 POP PUSH2 0x143 DUP2 PUSH2 0x11F JUMP JUMPDEST SWAP3 SWAP2 POP POP JUMP JUMPDEST PUSH0 PUSH1 0x20 DUP3 DUP5 SUB SLT ISZERO PUSH2 0x15E JUMPI PUSH2 0x15D PUSH2 0xEB JUMP JUMPDEST JUMPDEST PUSH0 PUSH2 0x16B DUP5 DUP3 DUP6 ADD PUSH2 0x135 JUMP JUMPDEST SWAP2 POP POP SWAP3 SWAP2 POP POP JUMP JUMPDEST PUSH2 0x17D DUP2 PUSH2 0x10E JUMP JUMPDEST DUP3 MSTORE POP POP JUMP JUMPDEST PUSH0 PUSH1 0x20 DUP3 ADD SWAP1 POP PUSH2 0x196 PUSH0 DUP4 ADD DUP5 PUSH2 0x174 JUMP JUMPDEST SWAP3 SWAP2 POP POP JUMP JUMPDEST PUSH2 0x1357 DUP1 PUSH2 0x1A9 PUSH0 CODECOPY PUSH0 RETURN INVALID PUSH1 0x80 PUSH1 0x40 MSTORE PUSH1 0x4 CALLDATASIZE LT PUSH2 0x7E JUMPI PUSH0 CALLDATALOAD PUSH1 0xE0 SHR DUP1 PUSH4 0x685398E7 GT PUSH2 0x4D JUMPI DUP1 PUSH4 0x685398E7 EQ PUSH2 0x125 JUMPI DUP1 PUSH4 0x7A5F0DC4 EQ PUSH2 0x14F JUMPI DUP1 PUSH4 0xA87430BA EQ PUSH2 0x159 JUMPI DUP1 PUSH4 0xE1BF0A4B EQ PUSH2 0x196 JUMPI PUSH2 0x7F JUMP JUMPDEST DUP1 PUSH4 0xCE90E5F EQ PUSH2 0x81 JUMPI DUP1 PUSH4 0xFB9F035 EQ PUSH2 0xAB JUMPI DUP1 PUSH4 0x4AED0980 EQ PUSH2 0xD5 JUMPI DUP1 PUSH4 0x5C2E3DE2 EQ PUSH2 0xFD JUMPI PUSH2 0x7F JUMP JUMPDEST JUMPDEST STOP JUMPDEST CALLVALUE DUP1 ISZERO PUSH2 0x8C JUMPI PUSH0 PUSH0 REVERT JUMPDEST POP PUSH2 0x95 PUSH2 0x1BE JUMP JUMPDEST PUSH1 0x40 MLOAD PUSH2 0xA2 SWAP2 SWAP1 PUSH2 0xD24 JUMP JUMPDEST PUSH1 0x40 MLOAD DUP1 SWAP2 SUB SWAP1 RETURN JUMPDEST CALLVALUE DUP1 ISZERO PUSH2 0xB6 JUMPI PUSH0 PUSH0 REVERT JUMPDEST POP PUSH2 0xBF PUSH2 0x1C5 JUMP JUMPDEST PUSH1 0x40 MLOAD PUSH2 0xCC SWAP2 SWAP1 PUSH2 0xDB7 JUMP JUMPDEST PUSH1 0x40 MLOAD DUP1 SWAP2 SUB SWAP1 RETURN JUMPDEST CALLVALUE DUP1 ISZERO PUSH2 0xE0 JUMPI PUSH0 PUSH0 REVERT JUMPDEST POP PUSH2 0xFB PUSH1 0x4 DUP1 CALLDATASIZE SUB DUP2 ADD SWAP1 PUSH2 0xF6 SWAP2 SWAP1 PUSH2 0xDFE JUMP JUMPDEST PUSH2 0x1E9 JUMP JUMPDEST STOP JUMPDEST CALLVALUE DUP1 ISZERO PUSH2 0x108 JUMPI PUSH0 PUSH0 REVERT JUMPDEST POP PUSH2 0x123 PUSH1 0x4 DUP1 CALLDATASIZE SUB DUP2 ADD SWAP1 PUSH2 0x11E SWAP2 SWAP1 PUSH2 0xDFE JUMP JUMPDEST PUSH2 0x40C JUMP JUMPDEST STOP JUMPDEST CALLVALUE DUP1 ISZERO PUSH2 0x130 JUMPI PUSH0 PUSH0 REVERT JUMPDEST POP PUSH2 0x139 PUSH2 0x5A1 JUMP JUMPDEST PUSH1 0x40 MLOAD PUSH2 0x146 SWAP2 SWAP1 PUSH2 0xD24 JUMP JUMPDEST PUSH1 0x40 MLOAD DUP1 SWAP2 SUB SWAP1 RETURN JUMPDEST PUSH2 0x157 PUSH2 0x63F JUMP JUMPDEST STOP JUMPDEST CALLVALUE DUP1 ISZERO PUSH2 0x164 JUMPI PUSH0 PUSH0 REVERT JUMPDEST POP PUSH2 0x17F PUSH1 0x4 DUP1 CALLDATASIZE SUB DUP2 ADD SWAP1 PUSH2 0x17A SWAP2 SWAP1 PUSH2 0xE64 JUMP JUMPDEST PUSH2 0x723 JUMP JUMPDEST PUSH1 0x40 MLOAD PUSH2 0x18D SWAP3 SWAP2 SWAP1 PUSH2 0xE8F JUMP JUMPDEST PUSH1 0x40 MLOAD DUP1 SWAP2 SUB SWAP1 RETURN JUMPDEST CALLVALUE DUP1 ISZERO PUSH2 0x1A1 JUMPI PUSH0 PUSH0 REVERT JUMPDEST POP PUSH2 0x1BC PUSH1 0x4 DUP1 CALLDATASIZE SUB DUP2 ADD SWAP1 PUSH2 0x1B7 SWAP2 SWAP1 PUSH2 0xDFE JUMP JUMPDEST PUSH2 0x743 JUMP JUMPDEST STOP JUMPDEST PUSH0 SELFBALANCE SWAP1 POP SWAP1 JUMP JUMPDEST PUSH0 PUSH0 SWAP1 SLOAD SWAP1 PUSH2 0x100 EXP SWAP1 DIV PUSH20 0xFFFFFFFFFFFFFFFFFFFFFFFFFFFFFFFFFFFFFFFF AND DUP2 JUMP JUMPDEST PUSH0 PUSH1 0x1 PUSH0 CALLER PUSH20 0xFFFFFFFFFFFFFFFFFFFFFFFFFFFFFFFFFFFFFFFF AND PUSH20 0xFFFFFFFFFFFFFFFFFFFFFFFFFFFFFFFFFFFFFFFF AND DUP2 MSTORE PUSH1 0x20 ADD SWAP1 DUP2 MSTORE PUSH1 0x20 ADD PUSH0 KECCAK256 SWAP1 POP PUSH0 DUP3 EQ DUP1 PUSH2 0x23A JUMPI POP PUSH0 DUP2 PUSH1 0x1 ADD SLOAD EQ JUMPDEST ISZERO PUSH2 0x271 JUMPI PUSH1 0x40 MLOAD PUSH32 0xF79050D000000000000000000000000000000000000000000000000000000000 DUP2 MSTORE PUSH1 0x4 ADD PUSH1 0x40 MLOAD DUP1 SWAP2 SUB SWAP1 REVERT JUMPDEST DUP1 PUSH1 0x1 ADD SLOAD DUP3 GT PUSH2 0x35D JUMPI PUSH0 PUSH0 SWAP1 SLOAD SWAP1 PUSH2 0x100 EXP SWAP1 DIV PUSH20 0xFFFFFFFFFFFFFFFFFFFFFFFFFFFFFFFFFFFFFFFF AND PUSH20 0xFFFFFFFFFFFFFFFFFFFFFFFFFFFFFFFFFFFFFFFF AND PUSH4 0x23B872DD CALLER ADDRESS DUP6 PUSH1 0x40 MLOAD DUP5 PUSH4 0xFFFFFFFF AND PUSH1 0xE0 SHL DUP2 MSTORE PUSH1 0x4 ADD PUSH2 0x2D9 SWAP4 SWAP3 SWAP2 SWAP1 PUSH2 0xEC5 JUMP JUMPDEST PUSH1 0x20 PUSH1 0x40 MLOAD DUP1 DUP4 SUB DUP2 PUSH0 DUP8 GAS CALL ISZERO DUP1 ISZERO PUSH2 0x2F5 JUMPI RETURNDATASIZE PUSH0 PUSH0 RETURNDATACOPY RETURNDATASIZE PUSH0 REVERT JUMPDEST POP POP POP POP PUSH1 0x40 MLOAD RETURNDATASIZE PUSH1 0x1F NOT PUSH1 0x1F DUP3 ADD AND DUP3 ADD DUP1 PUSH1 0x40 MSTORE POP DUP2 ADD SWAP1 PUSH2 0x319 SWAP2 SWAP1 PUSH2 0xF2F JUMP JUMPDEST PUSH2 0x358 JUMPI PUSH1 0x40 MLOAD PUSH32 0x8C379A000000000000000000000000000000000000000000000000000000000 DUP2 MSTORE PUSH1 0x4 ADD PUSH2 0x34F SWAP1 PUSH2 0xFB4 JUMP JUMPDEST PUSH1 0x40 MLOAD DUP1 SWAP2 SUB SWAP1 REVERT JUMPDEST PUSH2 0x3A0 JUMP JUMPDEST DUP2 DUP2 PUSH1 0x1 ADD SLOAD PUSH1 0x40 MLOAD PUSH32 0x99BCD81300000000000000000000000000000000000000000000000000000000 DUP2 MSTORE PUSH1 0x4 ADD PUSH2 0x397 SWAP3 SWAP2 SWAP1 PUSH2 0xE8F JUMP JUMPDEST PUSH1 0x40 MLOAD DUP1 SWAP2 SUB SWAP1 REVERT JUMPDEST DUP2 DUP2 PUSH1 0x1 ADD PUSH0 DUP3 DUP3 SLOAD PUSH2 0x3B3 SWAP2 SWAP1 PUSH2 0xFFF JUMP JUMPDEST SWAP3 POP POP DUP2 SWAP1 SSTORE POP CALLER PUSH20 0xFFFFFFFFFFFFFFFFFFFFFFFFFFFFFFFFFFFFFFFF AND PUSH32 0xB7EFCC12F3D3E74E33995FF303ACA806B9428989809E60A4E5A4D465832966E4 DUP4 PUSH1 0x40 MLOAD PUSH2 0x400 SWAP2 SWAP1 PUSH2 0xD24 JUMP JUMPDEST PUSH1 0x40 MLOAD DUP1 SWAP2 SUB SWAP1 LOG2 POP POP JUMP JUMPDEST PUSH0 PUSH1 0x1 PUSH0 CALLER PUSH20 0xFFFFFFFFFFFFFFFFFFFFFFFFFFFFFFFFFFFFFFFF AND PUSH20 0xFFFFFFFFFFFFFFFFFFFFFFFFFFFFFFFFFFFFFFFF AND DUP2 MSTORE PUSH1 0x20 ADD SWAP1 DUP2 MSTORE PUSH1 0x20 ADD PUSH0 KECCAK256 SWAP1 POP PUSH0 DUP2 PUSH0 ADD SLOAD SUB PUSH2 0x488 JUMPI PUSH1 0x40 MLOAD PUSH32 0xB016BE5E00000000000000000000000000000000000000000000000000000000 DUP2 MSTORE PUSH1 0x4 ADD PUSH1 0x40 MLOAD DUP1 SWAP2 SUB SWAP1 REVERT JUMPDEST PUSH0 DUP3 SUB PUSH2 0x4C1 JUMPI PUSH1 0x40 MLOAD PUSH32 0x2C5211C600000000000000000000000000000000000000000000000000000000 DUP2 MSTORE PUSH1 0x4 ADD PUSH1 0x40 MLOAD DUP1 SWAP2 SUB SWAP1 REVERT JUMPDEST PUSH0 PUSH2 0x4CB CALLER PUSH2 0x93C JUMP JUMPDEST GT ISZERO PUSH2 0x4F0 JUMPI DUP2 DUP2 PUSH1 0x1 ADD PUSH0 DUP3 DUP3 SLOAD PUSH2 0x4E4 SWAP2 SWAP1 PUSH2 0x1032 JUMP JUMPDEST SWAP3 POP POP DUP2 SWAP1 SSTORE POP PUSH2 0x52B JUMP JUMPDEST PUSH1 0x40 MLOAD PUSH32 0x8C379A000000000000000000000000000000000000000000000000000000000 DUP2 MSTORE PUSH1 0x4 ADD PUSH2 0x522 SWAP1 PUSH2 0x10D5 JUMP JUMPDEST PUSH1 0x40 MLOAD DUP1 SWAP2 SUB SWAP1 REVERT JUMPDEST DUP2 DUP2 PUSH1 0x1 ADD PUSH0 DUP3 DUP3 SLOAD PUSH2 0x53E SWAP2 SWAP1 PUSH2 0x1032 JUMP JUMPDEST SWAP3 POP POP DUP2 SWAP1 SSTORE POP PUSH2 0x54F CALLER DUP4 PUSH2 0xA9A JUMP JUMPDEST CALLER PUSH20 0xFFFFFFFFFFFFFFFFFFFFFFFFFFFFFFFFFFFFFFFF AND PUSH32 0x5ABC9A9C4616711EB03D720E050325118645A3695A5E75B5B10A29E2E217FE03 DUP4 PUSH1 0x40 MLOAD PUSH2 0x595 SWAP2 SWAP1 PUSH2 0xD24 JUMP JUMPDEST PUSH1 0x40 MLOAD DUP1 SWAP2 SUB SWAP1 LOG2 POP POP JUMP JUMPDEST PUSH0 PUSH0 PUSH0 SWAP1 SLOAD SWAP1 PUSH2 0x100 EXP SWAP1 DIV PUSH20 0xFFFFFFFFFFFFFFFFFFFFFFFFFFFFFFFFFFFFFFFF AND PUSH20 0xFFFFFFFFFFFFFFFFFFFFFFFFFFFFFFFFFFFFFFFF AND PUSH4 0x70A08231 ADDRESS PUSH1 0x40 MLOAD DUP3 PUSH4 0xFFFFFFFF AND PUSH1 0xE0 SHL DUP2 MSTORE PUSH1 0x4 ADD PUSH2 0x5FB SWAP2 SWAP1 PUSH2 0x10F3 JUMP JUMPDEST PUSH1 0x20 PUSH1 0x40 MLOAD DUP1 DUP4 SUB DUP2 DUP7 GAS STATICCALL ISZERO DUP1 ISZERO PUSH2 0x616 JUMPI RETURNDATASIZE PUSH0 PUSH0 RETURNDATACOPY RETURNDATASIZE PUSH0 REVERT JUMPDEST POP POP POP POP PUSH1 0x40 MLOAD RETURNDATASIZE PUSH1 0x1F NOT PUSH1 0x1F DUP3 ADD AND DUP3 ADD DUP1 PUSH1 0x40 MSTORE POP DUP2 ADD SWAP1 PUSH2 0x63A SWAP2 SWAP1 PUSH2 0x1120 JUMP JUMPDEST SWAP1 POP SWAP1 JUMP JUMPDEST PUSH0 CALLVALUE GT ISZERO PUSH2 0x6A1 JUMPI CALLVALUE PUSH1 0x1 PUSH0 CALLER PUSH20 0xFFFFFFFFFFFFFFFFFFFFFFFFFFFFFFFFFFFFFFFF AND PUSH20 0xFFFFFFFFFFFFFFFFFFFFFFFFFFFFFFFFFFFFFFFF AND DUP2 MSTORE PUSH1 0x20 ADD SWAP1 DUP2 MSTORE PUSH1 0x20 ADD PUSH0 KECCAK256 PUSH0 ADD PUSH0 DUP3 DUP3 SLOAD PUSH2 0x695 SWAP2 SWAP1 PUSH2 0x1032 JUMP JUMPDEST SWAP3 POP POP DUP2 SWAP1 SSTORE POP PUSH2 0x6D3 JUMP JUMPDEST PUSH1 0x40 MLOAD PUSH32 0xB016BE5E00000000000000000000000000000000000000000000000000000000 DUP2 MSTORE PUSH1 0x4 ADD PUSH1 0x40 MLOAD DUP1 SWAP2 SUB SWAP1 REVERT JUMPDEST CALLER PUSH20 0xFFFFFFFFFFFFFFFFFFFFFFFFFFFFFFFFFFFFFFFF AND PUSH32 0x1C0917C3A343A300B56473C59FA8355D3326F2C73472679A5B4CD5D6E0390C80 CALLVALUE PUSH1 0x40 MLOAD PUSH2 0x719 SWAP2 SWAP1 PUSH2 0xD24 JUMP JUMPDEST PUSH1 0x40 MLOAD DUP1 SWAP2 SUB SWAP1 LOG2 JUMP JUMPDEST PUSH1 0x1 PUSH1 0x20 MSTORE DUP1 PUSH0 MSTORE PUSH1 0x40 PUSH0 KECCAK256 PUSH0 SWAP2 POP SWAP1 POP DUP1 PUSH0 ADD SLOAD SWAP1 DUP1 PUSH1 0x1 ADD SLOAD SWAP1 POP DUP3 JUMP JUMPDEST PUSH0 PUSH1 0x1 PUSH0 CALLER PUSH20 0xFFFFFFFFFFFFFFFFFFFFFFFFFFFFFFFFFFFFFFFF AND PUSH20 0xFFFFFFFFFFFFFFFFFFFFFFFFFFFFFFFFFFFFFFFF AND DUP2 MSTORE PUSH1 0x20 ADD SWAP1 DUP2 MSTORE PUSH1 0x20 ADD PUSH0 KECCAK256 SWAP1 POP PUSH0 DUP3 EQ DUP1 PUSH2 0x795 JUMPI POP PUSH0 DUP2 PUSH1 0x1 ADD SLOAD EQ ISZERO JUMPDEST ISZERO PUSH2 0x7DB JUMPI DUP1 PUSH1 0x1 ADD SLOAD PUSH1 0x40 MLOAD PUSH32 0x40A636FB00000000000000000000000000000000000000000000000000000000 DUP2 MSTORE PUSH1 0x4 ADD PUSH2 0x7D2 SWAP2 SWAP1 PUSH2 0xD24 JUMP JUMPDEST PUSH1 0x40 MLOAD DUP1 SWAP2 SUB SWAP1 REVERT JUMPDEST DUP1 PUSH0 ADD SLOAD DUP3 GT ISZERO PUSH2 0x828 JUMPI DUP1 PUSH0 ADD SLOAD DUP3 PUSH1 0x40 MLOAD PUSH32 0x768063DB00000000000000000000000000000000000000000000000000000000 DUP2 MSTORE PUSH1 0x4 ADD PUSH2 0x81F SWAP3 SWAP2 SWAP1 PUSH2 0xE8F JUMP JUMPDEST PUSH1 0x40 MLOAD DUP1 SWAP2 SUB SWAP1 REVERT JUMPDEST DUP2 DUP2 PUSH0 ADD PUSH0 DUP3 DUP3 SLOAD PUSH2 0x83A SWAP2 SWAP1 PUSH2 0xFFF JUMP JUMPDEST SWAP3 POP POP DUP2 SWAP1 SSTORE POP PUSH0 CALLER PUSH20 0xFFFFFFFFFFFFFFFFFFFFFFFFFFFFFFFFFFFFFFFF AND DUP4 PUSH1 0x40 MLOAD PUSH2 0x866 SWAP1 PUSH2 0x1178 JUMP JUMPDEST PUSH0 PUSH1 0x40 MLOAD DUP1 DUP4 SUB DUP2 DUP6 DUP8 GAS CALL SWAP3 POP POP POP RETURNDATASIZE DUP1 PUSH0 DUP2 EQ PUSH2 0x8A0 JUMPI PUSH1 0x40 MLOAD SWAP2 POP PUSH1 0x1F NOT PUSH1 0x3F RETURNDATASIZE ADD AND DUP3 ADD PUSH1 0x40 MSTORE RETURNDATASIZE DUP3 MSTORE RETURNDATASIZE PUSH0 PUSH1 0x20 DUP5 ADD RETURNDATACOPY PUSH2 0x8A5 JUMP JUMPDEST PUSH1 0x60 SWAP2 POP JUMPDEST POP POP SWAP1 POP DUP1 PUSH2 0x8E9 JUMPI PUSH1 0x40 MLOAD PUSH32 0x8C379A000000000000000000000000000000000000000000000000000000000 DUP2 MSTORE PUSH1 0x4 ADD PUSH2 0x8E0 SWAP1 PUSH2 0x11D6 JUMP JUMPDEST PUSH1 0x40 MLOAD DUP1 SWAP2 SUB SWAP1 REVERT JUMPDEST CALLER PUSH20 0xFFFFFFFFFFFFFFFFFFFFFFFFFFFFFFFFFFFFFFFF AND PUSH32 0x5B0743ACABCE0EA09498B3C2598ED444F80EF6513A2029D7D9AAED87064D1EDB DUP5 PUSH1 0x40 MLOAD PUSH2 0x92F SWAP2 SWAP1 PUSH2 0xD24 JUMP JUMPDEST PUSH1 0x40 MLOAD DUP1 SWAP2 SUB SWAP1 LOG2 POP POP POP JUMP JUMPDEST PUSH0 PUSH0 PUSH8 0xDE0B6B3A7640000 DUP1 PUSH1 0x64 PUSH2 0x954 SWAP2 SWAP1 PUSH2 0x11F4 JUMP JUMPDEST PUSH2 0x95E SWAP2 SWAP1 PUSH2 0x11F4 JUMP JUMPDEST PUSH1 0x32 PUSH9 0x6C6B935B8BBD400000 PUSH1 0x1 PUSH0 DUP8 PUSH20 0xFFFFFFFFFFFFFFFFFFFFFFFFFFFFFFFFFFFFFFFF AND PUSH20 0xFFFFFFFFFFFFFFFFFFFFFFFFFFFFFFFFFFFFFFFF AND DUP2 MSTORE PUSH1 0x20 ADD SWAP1 DUP2 MSTORE PUSH1 0x20 ADD PUSH0 KECCAK256 PUSH0 ADD SLOAD PUSH2 0x9B4 SWAP2 SWAP1 PUSH2 0x11F4 JUMP JUMPDEST PUSH2 0x9BE SWAP2 SWAP1 PUSH2 0x11F4 JUMP JUMPDEST PUSH2 0x9C8 SWAP2 SWAP1 PUSH2 0x1262 JUMP JUMPDEST SWAP1 POP DUP1 PUSH8 0xDE0B6B3A7640000 PUSH1 0x1 PUSH0 DUP7 PUSH20 0xFFFFFFFFFFFFFFFFFFFFFFFFFFFFFFFFFFFFFFFF AND PUSH20 0xFFFFFFFFFFFFFFFFFFFFFFFFFFFFFFFFFFFFFFFF AND DUP2 MSTORE PUSH1 0x20 ADD SWAP1 DUP2 MSTORE PUSH1 0x20 ADD PUSH0 KECCAK256 PUSH1 0x1 ADD SLOAD PUSH2 0xA1F SWAP2 SWAP1 PUSH2 0x1262 JUMP JUMPDEST LT PUSH2 0xA2D JUMPI PUSH0 SWAP2 POP POP PUSH2 0xA95 JUMP JUMPDEST PUSH0 PUSH8 0xDE0B6B3A7640000 PUSH1 0x1 PUSH0 DUP7 PUSH20 0xFFFFFFFFFFFFFFFFFFFFFFFFFFFFFFFFFFFFFFFF AND PUSH20 0xFFFFFFFFFFFFFFFFFFFFFFFFFFFFFFFFFFFFFFFF AND DUP2 MSTORE PUSH1 0x20 ADD SWAP1 DUP2 MSTORE PUSH1 0x20 ADD PUSH0 KECCAK256 PUSH1 0x1 ADD SLOAD PUSH2 0xA82 SWAP2 SWAP1 PUSH2 0x1262 JUMP JUMPDEST DUP3 PUSH2 0xA8D SWAP2 SWAP1 PUSH2 0xFFF JUMP JUMPDEST SWAP1 POP DUP1 SWAP3 POP POP POP JUMPDEST SWAP2 SWAP1 POP JUMP JUMPDEST PUSH0 PUSH2 0xAA3 PUSH2 0x5A1 JUMP JUMPDEST SWAP1 POP DUP2 DUP2 LT PUSH2 0xB8B JUMPI PUSH0 PUSH0 SWAP1 SLOAD SWAP1 PUSH2 0x100 EXP SWAP1 DIV PUSH20 0xFFFFFFFFFFFFFFFFFFFFFFFFFFFFFFFFFFFFFFFF AND PUSH20 0xFFFFFFFFFFFFFFFFFFFFFFFFFFFFFFFFFFFFFFFF AND PUSH4 0xA9059CBB DUP5 DUP5 PUSH1 0x40 MLOAD DUP4 PUSH4 0xFFFFFFFF AND PUSH1 0xE0 SHL DUP2 MSTORE PUSH1 0x4 ADD PUSH2 0xB07 SWAP3 SWAP2 SWAP1 PUSH2 0x1292 JUMP JUMPDEST PUSH1 0x20 PUSH1 0x40 MLOAD DUP1 DUP4 SUB DUP2 PUSH0 DUP8 GAS CALL ISZERO DUP1 ISZERO PUSH2 0xB23 JUMPI RETURNDATASIZE PUSH0 PUSH0 RETURNDATACOPY RETURNDATASIZE PUSH0 REVERT JUMPDEST POP POP POP POP PUSH1 0x40 MLOAD RETURNDATASIZE PUSH1 0x1F NOT PUSH1 0x1F DUP3 ADD AND DUP3 ADD DUP1 PUSH1 0x40 MSTORE POP DUP2 ADD SWAP1 PUSH2 0xB47 SWAP2 SWAP1 PUSH2 0xF2F JUMP JUMPDEST PUSH2 0xB86 JUMPI PUSH1 0x40 MLOAD PUSH32 0x8C379A000000000000000000000000000000000000000000000000000000000 DUP2 MSTORE PUSH1 0x4 ADD PUSH2 0xB7D SWAP1 PUSH2 0x1303 JUMP JUMPDEST PUSH1 0x40 MLOAD DUP1 SWAP2 SUB SWAP1 REVERT JUMPDEST PUSH2 0xD07 JUMP JUMPDEST PUSH0 DUP2 DUP4 PUSH2 0xB98 SWAP2 SWAP1 PUSH2 0xFFF JUMP JUMPDEST SWAP1 POP PUSH0 DUP3 GT ISZERO PUSH2 0xC7D JUMPI PUSH0 PUSH0 SWAP1 SLOAD SWAP1 PUSH2 0x100 EXP SWAP1 DIV PUSH20 0xFFFFFFFFFFFFFFFFFFFFFFFFFFFFFFFFFFFFFFFF AND PUSH20 0xFFFFFFFFFFFFFFFFFFFFFFFFFFFFFFFFFFFFFFFF AND PUSH4 0xA9059CBB DUP6 DUP5 PUSH1 0x40 MLOAD DUP4 PUSH4 0xFFFFFFFF AND PUSH1 0xE0 SHL DUP2 MSTORE PUSH1 0x4 ADD PUSH2 0xBFD SWAP3 SWAP2 SWAP1 PUSH2 0x1292 JUMP JUMPDEST PUSH1 0x20 PUSH1 0x40 MLOAD DUP1 DUP4 SUB DUP2 PUSH0 DUP8 GAS CALL ISZERO DUP1 ISZERO PUSH2 0xC19 JUMPI RETURNDATASIZE PUSH0 PUSH0 RETURNDATACOPY RETURNDATASIZE PUSH0 REVERT JUMPDEST POP POP POP POP PUSH1 0x40 MLOAD RETURNDATASIZE PUSH1 0x1F NOT PUSH1 0x1F DUP3 ADD AND DUP3 ADD DUP1 PUSH1 0x40 MSTORE POP DUP2 ADD SWAP1 PUSH2 0xC3D SWAP2 SWAP1 PUSH2 0xF2F JUMP JUMPDEST PUSH2 0xC7C JUMPI PUSH1 0x40 MLOAD PUSH32 0x8C379A000000000000000000000000000000000000000000000000000000000 DUP2 MSTORE PUSH1 0x4 ADD PUSH2 0xC73 SWAP1 PUSH2 0x1303 JUMP JUMPDEST PUSH1 0x40 MLOAD DUP1 SWAP2 SUB SWAP1 REVERT JUMPDEST JUMPDEST PUSH0 PUSH0 SWAP1 SLOAD SWAP1 PUSH2 0x100 EXP SWAP1 DIV PUSH20 0xFFFFFFFFFFFFFFFFFFFFFFFFFFFFFFFFFFFFFFFF AND PUSH20 0xFFFFFFFFFFFFFFFFFFFFFFFFFFFFFFFFFFFFFFFF AND PUSH4 0x40C10F19 DUP6 DUP4 PUSH1 0x40 MLOAD DUP4 PUSH4 0xFFFFFFFF AND PUSH1 0xE0 SHL DUP2 MSTORE PUSH1 0x4 ADD PUSH2 0xCD8 SWAP3 SWAP2 SWAP1 PUSH2 0x1292 JUMP JUMPDEST PUSH0 PUSH1 0x40 MLOAD DUP1 DUP4 SUB DUP2 PUSH0 DUP8 DUP1 EXTCODESIZE ISZERO DUP1 ISZERO PUSH2 0xCEF JUMPI PUSH0 PUSH0 REVERT JUMPDEST POP GAS CALL ISZERO DUP1 ISZERO PUSH2 0xD01 JUMPI RETURNDATASIZE PUSH0 PUSH0 RETURNDATACOPY RETURNDATASIZE PUSH0 REVERT JUMPDEST POP POP POP POP POP JUMPDEST POP POP POP JUMP JUMPDEST PUSH0 DUP2 SWAP1 POP SWAP2 SWAP1 POP JUMP JUMPDEST PUSH2 0xD1E DUP2 PUSH2 0xD0C JUMP JUMPDEST DUP3 MSTORE POP POP JUMP JUMPDEST PUSH0 PUSH1 0x20 DUP3 ADD SWAP1 POP PUSH2 0xD37 PUSH0 DUP4 ADD DUP5 PUSH2 0xD15 JUMP JUMPDEST SWAP3 SWAP2 POP POP JUMP JUMPDEST PUSH0 PUSH20 0xFFFFFFFFFFFFFFFFFFFFFFFFFFFFFFFFFFFFFFFF DUP3 AND SWAP1 POP SWAP2 SWAP1 POP JUMP JUMPDEST PUSH0 DUP2 SWAP1 POP SWAP2 SWAP1 POP JUMP JUMPDEST PUSH0 PUSH2 0xD7F PUSH2 0xD7A PUSH2 0xD75 DUP5 PUSH2 0xD3D JUMP JUMPDEST PUSH2 0xD5C JUMP JUMPDEST PUSH2 0xD3D JUMP JUMPDEST SWAP1 POP SWAP2 SWAP1 POP JUMP JUMPDEST PUSH0 PUSH2 0xD90 DUP3 PUSH2 0xD65 JUMP JUMPDEST SWAP1 POP SWAP2 SWAP1 POP JUMP JUMPDEST PUSH0 PUSH2 0xDA1 DUP3 PUSH2 0xD86 JUMP JUMPDEST SWAP1 POP SWAP2 SWAP1 POP JUMP JUMPDEST PUSH2 0xDB1 DUP2 PUSH2 0xD97 JUMP JUMPDEST DUP3 MSTORE POP POP JUMP JUMPDEST PUSH0 PUSH1 0x20 DUP3 ADD SWAP1 POP PUSH2 0xDCA PUSH0 DUP4 ADD DUP5 PUSH2 0xDA8 JUMP JUMPDEST SWAP3 SWAP2 POP POP JUMP JUMPDEST PUSH0 PUSH0 REVERT JUMPDEST PUSH2 0xDDD DUP2 PUSH2 0xD0C JUMP JUMPDEST DUP2 EQ PUSH2 0xDE7 JUMPI PUSH0 PUSH0 REVERT JUMPDEST POP JUMP JUMPDEST PUSH0 DUP2 CALLDATALOAD SWAP1 POP PUSH2 0xDF8 DUP2 PUSH2 0xDD4 JUMP JUMPDEST SWAP3 SWAP2 POP POP JUMP JUMPDEST PUSH0 PUSH1 0x20 DUP3 DUP5 SUB SLT ISZERO PUSH2 0xE13 JUMPI PUSH2 0xE12 PUSH2 0xDD0 JUMP JUMPDEST JUMPDEST PUSH0 PUSH2 0xE20 DUP5 DUP3 DUP6 ADD PUSH2 0xDEA JUMP JUMPDEST SWAP2 POP POP SWAP3 SWAP2 POP POP JUMP JUMPDEST PUSH0 PUSH2 0xE33 DUP3 PUSH2 0xD3D JUMP JUMPDEST SWAP1 POP SWAP2 SWAP1 POP JUMP JUMPDEST PUSH2 0xE43 DUP2 PUSH2 0xE29 JUMP JUMPDEST DUP2 EQ PUSH2 0xE4D JUMPI PUSH0 PUSH0 REVERT JUMPDEST POP JUMP JUMPDEST PUSH0 DUP2 CALLDATALOAD SWAP1 POP PUSH2 0xE5E DUP2 PUSH2 0xE3A JUMP JUMPDEST SWAP3 SWAP2 POP POP JUMP JUMPDEST PUSH0 PUSH1 0x20 DUP3 DUP5 SUB SLT ISZERO PUSH2 0xE79 JUMPI PUSH2 0xE78 PUSH2 0xDD0 JUMP JUMPDEST JUMPDEST PUSH0 PUSH2 0xE86 DUP5 DUP3 DUP6 ADD PUSH2 0xE50 JUMP JUMPDEST SWAP2 POP POP SWAP3 SWAP2 POP POP JUMP JUMPDEST PUSH0 PUSH1 0x40 DUP3 ADD SWAP1 POP PUSH2 0xEA2 PUSH0 DUP4 ADD DUP6 PUSH2 0xD15 JUMP JUMPDEST PUSH2 0xEAF PUSH1 0x20 DUP4 ADD DUP5 PUSH2 0xD15 JUMP JUMPDEST SWAP4 SWAP3 POP POP POP JUMP JUMPDEST PUSH2 0xEBF DUP2 PUSH2 0xE29 JUMP JUMPDEST DUP3 MSTORE POP POP JUMP JUMPDEST PUSH0 PUSH1 0x60 DUP3 ADD SWAP1 POP PUSH2 0xED8 PUSH0 DUP4 ADD DUP7 PUSH2 0xEB6 JUMP JUMPDEST PUSH2 0xEE5 PUSH1 0x20 DUP4 ADD DUP6 PUSH2 0xEB6 JUMP JUMPDEST PUSH2 0xEF2 PUSH1 0x40 DUP4 ADD DUP5 PUSH2 0xD15 JUMP JUMPDEST SWAP5 SWAP4 POP POP POP POP JUMP JUMPDEST PUSH0 DUP2 ISZERO ISZERO SWAP1 POP SWAP2 SWAP1 POP JUMP JUMPDEST PUSH2 0xF0E DUP2 PUSH2 0xEFA JUMP JUMPDEST DUP2 EQ PUSH2 0xF18 JUMPI PUSH0 PUSH0 REVERT JUMPDEST POP JUMP JUMPDEST PUSH0 DUP2 MLOAD SWAP1 POP PUSH2 0xF29 DUP2 PUSH2 0xF05 JUMP JUMPDEST SWAP3 SWAP2 POP POP JUMP JUMPDEST PUSH0 PUSH1 0x20 DUP3 DUP5 SUB SLT ISZERO PUSH2 0xF44 JUMPI PUSH2 0xF43 PUSH2 0xDD0 JUMP JUMPDEST JUMPDEST PUSH0 PUSH2 0xF51 DUP5 DUP3 DUP6 ADD PUSH2 0xF1B JUMP JUMPDEST SWAP2 POP POP SWAP3 SWAP2 POP POP JUMP JUMPDEST PUSH0 DUP3 DUP3 MSTORE PUSH1 0x20 DUP3 ADD SWAP1 POP SWAP3 SWAP2 POP POP JUMP JUMPDEST PUSH32 0x5472616E73666572204661696C65640000000000000000000000000000000000 PUSH0 DUP3 ADD MSTORE POP JUMP JUMPDEST PUSH0 PUSH2 0xF9E PUSH1 0xF DUP4 PUSH2 0xF5A JUMP JUMPDEST SWAP2 POP PUSH2 0xFA9 DUP3 PUSH2 0xF6A JUMP JUMPDEST PUSH1 0x20 DUP3 ADD SWAP1 POP SWAP2 SWAP1 POP JUMP JUMPDEST PUSH0 PUSH1 0x20 DUP3 ADD SWAP1 POP DUP2 DUP2 SUB PUSH0 DUP4 ADD MSTORE PUSH2 0xFCB DUP2 PUSH2 0xF92 JUMP JUMPDEST SWAP1 POP SWAP2 SWAP1 POP JUMP JUMPDEST PUSH32 0x4E487B7100000000000000000000000000000000000000000000000000000000 PUSH0 MSTORE PUSH1 0x11 PUSH1 0x4 MSTORE PUSH1 0x24 PUSH0 REVERT JUMPDEST PUSH0 PUSH2 0x1009 DUP3 PUSH2 0xD0C JUMP JUMPDEST SWAP2 POP PUSH2 0x1014 DUP4 PUSH2 0xD0C JUMP JUMPDEST SWAP3 POP DUP3 DUP3 SUB SWAP1 POP DUP2 DUP2 GT ISZERO PUSH2 0x102C JUMPI PUSH2 0x102B PUSH2 0xFD2 JUMP JUMPDEST JUMPDEST SWAP3 SWAP2 POP POP JUMP JUMPDEST PUSH0 PUSH2 0x103C DUP3 PUSH2 0xD0C JUMP JUMPDEST SWAP2 POP PUSH2 0x1047 DUP4 PUSH2 0xD0C JUMP JUMPDEST SWAP3 POP DUP3 DUP3 ADD SWAP1 POP DUP1 DUP3 GT ISZERO PUSH2 0x105F JUMPI PUSH2 0x105E PUSH2 0xFD2 JUMP JUMPDEST JUMPDEST SWAP3 SWAP2 POP POP JUMP JUMPDEST PUSH32 0x596F75206861766520657863656564656420796F757220626F72726F77206C69 PUSH0 DUP3 ADD MSTORE PUSH32 0x6D69740000000000000000000000000000000000000000000000000000000000 PUSH1 0x20 DUP3 ADD MSTORE POP JUMP JUMPDEST PUSH0 PUSH2 0x10BF PUSH1 0x23 DUP4 PUSH2 0xF5A JUMP JUMPDEST SWAP2 POP PUSH2 0x10CA DUP3 PUSH2 0x1065 JUMP JUMPDEST PUSH1 0x40 DUP3 ADD SWAP1 POP SWAP2 SWAP1 POP JUMP JUMPDEST PUSH0 PUSH1 0x20 DUP3 ADD SWAP1 POP DUP2 DUP2 SUB PUSH0 DUP4 ADD MSTORE PUSH2 0x10EC DUP2 PUSH2 0x10B3 JUMP JUMPDEST SWAP1 POP SWAP2 SWAP1 POP JUMP JUMPDEST PUSH0 PUSH1 0x20 DUP3 ADD SWAP1 POP PUSH2 0x1106 PUSH0 DUP4 ADD DUP5 PUSH2 0xEB6 JUMP JUMPDEST SWAP3 SWAP2 POP POP JUMP JUMPDEST PUSH0 DUP2 MLOAD SWAP1 POP PUSH2 0x111A DUP2 PUSH2 0xDD4 JUMP JUMPDEST SWAP3 SWAP2 POP POP JUMP JUMPDEST PUSH0 PUSH1 0x20 DUP3 DUP5 SUB SLT ISZERO PUSH2 0x1135 JUMPI PUSH2 0x1134 PUSH2 0xDD0 JUMP JUMPDEST JUMPDEST PUSH0 PUSH2 0x1142 DUP5 DUP3 DUP6 ADD PUSH2 0x110C JUMP JUMPDEST SWAP2 POP POP SWAP3 SWAP2 POP POP JUMP JUMPDEST PUSH0 DUP2 SWAP1 POP SWAP3 SWAP2 POP POP JUMP JUMPDEST POP JUMP JUMPDEST PUSH0 PUSH2 0x1163 PUSH0 DUP4 PUSH2 0x114B JUMP JUMPDEST SWAP2 POP PUSH2 0x116E DUP3 PUSH2 0x1155 JUMP JUMPDEST PUSH0 DUP3 ADD SWAP1 POP SWAP2 SWAP1 POP JUMP JUMPDEST PUSH0 PUSH2 0x1182 DUP3 PUSH2 0x1158 JUMP JUMPDEST SWAP2 POP DUP2 SWAP1 POP SWAP2 SWAP1 POP JUMP JUMPDEST PUSH32 0x455448207472616E73666572206661696C656400000000000000000000000000 PUSH0 DUP3 ADD MSTORE POP JUMP JUMPDEST PUSH0 PUSH2 0x11C0 PUSH1 0x13 DUP4 PUSH2 0xF5A JUMP JUMPDEST SWAP2 POP PUSH2 0x11CB DUP3 PUSH2 0x118C JUMP JUMPDEST PUSH1 0x20 DUP3 ADD SWAP1 POP SWAP2 SWAP1 POP JUMP JUMPDEST PUSH0 PUSH1 0x20 DUP3 ADD SWAP1 POP DUP2 DUP2 SUB PUSH0 DUP4 ADD MSTORE PUSH2 0x11ED DUP2 PUSH2 0x11B4 JUMP JUMPDEST SWAP1 POP SWAP2 SWAP1 POP JUMP JUMPDEST PUSH0 PUSH2 0x11FE DUP3 PUSH2 0xD0C JUMP JUMPDEST SWAP2 POP PUSH2 0x1209 DUP4 PUSH2 0xD0C JUMP JUMPDEST SWAP3 POP DUP3 DUP3 MUL PUSH2 0x1217 DUP2 PUSH2 0xD0C JUMP JUMPDEST SWAP2 POP DUP3 DUP3 DIV DUP5 EQ DUP4 ISZERO OR PUSH2 0x122E JUMPI PUSH2 0x122D PUSH2 0xFD2 JUMP JUMPDEST JUMPDEST POP SWAP3 SWAP2 POP POP JUMP JUMPDEST PUSH32 0x4E487B7100000000000000000000000000000000000000000000000000000000 PUSH0 MSTORE PUSH1 0x12 PUSH1 0x4 MSTORE PUSH1 0x24 PUSH0 REVERT JUMPDEST PUSH0 PUSH2 0x126C DUP3 PUSH2 0xD0C JUMP JUMPDEST SWAP2 POP PUSH2 0x1277 DUP4 PUSH2 0xD0C JUMP JUMPDEST SWAP3 POP DUP3 PUSH2 0x1287 JUMPI PUSH2 0x1286 PUSH2 0x1235 JUMP JUMPDEST JUMPDEST DUP3 DUP3 DIV SWAP1 POP SWAP3 SWAP2 POP POP JUMP JUMPDEST PUSH0 PUSH1 0x40 DUP3 ADD SWAP1 POP PUSH2 0x12A5 PUSH0 DUP4 ADD DUP6 PUSH2 0xEB6 JUMP JUMPDEST PUSH2 0x12B2 PUSH1 0x20 DUP4 ADD DUP5 PUSH2 0xD15 JUMP JUMPDEST SWAP4 SWAP3 POP POP POP JUMP JUMPDEST PUSH32 0x5472616E73666572206661696C65640000000000000000000000000000000000 PUSH0 DUP3 ADD MSTORE POP JUMP JUMPDEST PUSH0 PUSH2 0x12ED PUSH1 0xF DUP4 PUSH2 0xF5A JUMP JUMPDEST SWAP2 POP PUSH2 0x12F8 DUP3 PUSH2 0x12B9 JUMP JUMPDEST PUSH1 0x20 DUP3 ADD SWAP1 POP SWAP2 SWAP1 POP JUMP JUMPDEST PUSH0 PUSH1 0x20 DUP3 ADD SWAP1 POP DUP2 DUP2 SUB PUSH0 DUP4 ADD MSTORE PUSH2 0x131A DUP2 PUSH2 0x12E1 JUMP JUMPDEST SWAP1 POP SWAP2 SWAP1 POP JUMP INVALID LOG2 PUSH5 0x6970667358 0x22 SLT KECCAK256 PUSH27 0x2F1C4B3BF33717D5492BC0DF533E74E2411550EEF7151D8A4E7FF6 0x4D BYTE CALLDATACOPY PUSH29 0x64736F6C634300081F0033000000000000000000000000000000000000 "
				},
				"gasEstimates": {
					"creation": {
						"codeDepositCost": "990200",
						"executionCost": "infinite",
						"totalCost": "infinite"
					},
					"external": {
						"": "173",
						"borrowUsd(uint256)": "infinite",
						"getContractEthBal()": "335",
						"getContractUsdBal()": "infinite",
						"mockusdt()": "infinite",
						"repayUsd(uint256)": "infinite",
						"stakeEth()": "infinite",
						"users(address)": "infinite",
						"withdrawCollateralEth(uint256)": "infinite"
					},
					"internal": {
						"_ensureFundsAndTransfer(address,uint256)": "infinite",
						"howMuchYouCanStillBorrow(address)": "infinite"
					}
				},
				"methodIdentifiers": {
					"borrowUsd(uint256)": "5c2e3de2",
					"getContractEthBal()": "0ce90e5f",
					"getContractUsdBal()": "685398e7",
					"mockusdt()": "0fb9f035",
					"repayUsd(uint256)": "4aed0980",
					"stakeEth()": "7a5f0dc4",
					"users(address)": "a87430ba",
					"withdrawCollateralEth(uint256)": "e1bf0a4b"
				}
			},
			"storageLayout": {
				"storage": [
					{
						"astId": 1291,
						"contract": "src/contracts/MiniLend.sol:MiniLend",
						"label": "mockusdt",
						"offset": 0,
						"slot": "0",
						"type": "t_contract(MockUsdt)1848"
					},
					{
						"astId": 1360,
						"contract": "src/contracts/MiniLend.sol:MiniLend",
						"label": "users",
						"offset": 0,
						"slot": "1",
						"type": "t_mapping(t_address,t_struct(User)1355_storage)"
					}
				],
				"types": {
					"t_address": {
						"encoding": "inplace",
						"label": "address",
						"numberOfBytes": "20"
					},
					"t_contract(MockUsdt)1848": {
						"encoding": "inplace",
						"label": "contract MockUsdt",
						"numberOfBytes": "20"
					},
					"t_mapping(t_address,t_struct(User)1355_storage)": {
						"encoding": "mapping",
						"key": "t_address",
						"label": "mapping(address => struct MiniLend.User)",
						"numberOfBytes": "32",
						"value": "t_struct(User)1355_storage"
					},
					"t_struct(User)1355_storage": {
						"encoding": "inplace",
						"label": "struct MiniLend.User",
						"members": [
							{
								"astId": 1352,
								"contract": "src/contracts/MiniLend.sol:MiniLend",
								"label": "stakedEth",
								"offset": 0,
								"slot": "0",
								"type": "t_uint256"
							},
							{
								"astId": 1354,
								"contract": "src/contracts/MiniLend.sol:MiniLend",
								"label": "borrowedUsdt",
								"offset": 0,
								"slot": "1",
								"type": "t_uint256"
							}
						],
						"numberOfBytes": "64"
					},
					"t_uint256": {
						"encoding": "inplace",
						"label": "uint256",
						"numberOfBytes": "32"
					}
				}
			},
			"userdoc": {
				"kind": "user",
				"methods": {},
				"version": 1
			}
		}
	}
}