{
	"src/contracts/MiniLend.sol": {
		"MiniLend": {
			"abi": [
				{
					"inputs": [
						{
							"internalType": "uint256",
							"name": "bonus",
							"type": "uint256"
						}
					],
					"name": "BadBonus",
					"type": "error"
				},
				{
					"inputs": [
						{
							"internalType": "uint256",
							"name": "ltv",
							"type": "uint256"
						}
					],
					"name": "BadLtv",
					"type": "error"
				},
				{
					"inputs": [
						{
							"internalType": "uint256",
							"name": "amount",
							"type": "uint256"
						},
						{
							"internalType": "uint256",
							"name": "availableToBorrow",
							"type": "uint256"
						}
					],
					"name": "BorrowLimitExceeded",
					"type": "error"
				},
				{
					"inputs": [
						{
							"internalType": "uint256",
							"name": "balance",
							"type": "uint256"
						}
					],
					"name": "BorrowedAmountNotFullyRepaid",
					"type": "error"
				},
				{
					"inputs": [],
					"name": "FeedDataNotFinalized",
					"type": "error"
				},
				{
					"inputs": [
						{
							"internalType": "uint256",
							"name": "poolBalance",
							"type": "uint256"
						},
						{
							"internalType": "uint256",
							"name": "requestedAmount",
							"type": "uint256"
						}
					],
					"name": "InsufficientPoolBalance",
					"type": "error"
				},
				{
					"inputs": [
						{
							"internalType": "address",
							"name": "addr",
							"type": "address"
						}
					],
					"name": "InvalidAddress",
					"type": "error"
				},
				{
					"inputs": [],
					"name": "InvalidAmount",
					"type": "error"
				},
				{
					"inputs": [
						{
							"internalType": "address",
							"name": "asset",
							"type": "address"
						}
					],
					"name": "InvalidAsset",
					"type": "error"
				},
				{
					"inputs": [],
					"name": "InvalidDecimals",
					"type": "error"
				},
				{
					"inputs": [
						{
							"internalType": "int256",
							"name": "price",
							"type": "int256"
						}
					],
					"name": "InvalidPriceData",
					"type": "error"
				},
				{
					"inputs": [],
					"name": "NoActivePosition",
					"type": "error"
				},
				{
					"inputs": [],
					"name": "NoCollateralProvided",
					"type": "error"
				},
				{
					"inputs": [
						{
							"internalType": "uint256",
							"name": "collateralBalance",
							"type": "uint256"
						},
						{
							"internalType": "uint256",
							"name": "userInput",
							"type": "uint256"
						}
					],
					"name": "NotEnoughCollateral",
					"type": "error"
				},
				{
					"inputs": [
						{
							"internalType": "uint256",
							"name": "amountPaid",
							"type": "uint256"
						},
						{
							"internalType": "uint256",
							"name": "expectedAmount",
							"type": "uint256"
						}
					],
					"name": "OverPaymentNotSupported",
					"type": "error"
				},
				{
					"inputs": [
						{
							"internalType": "address",
							"name": "owner",
							"type": "address"
						}
					],
					"name": "OwnableInvalidOwner",
					"type": "error"
				},
				{
					"inputs": [
						{
							"internalType": "address",
							"name": "account",
							"type": "address"
						}
					],
					"name": "OwnableUnauthorizedAccount",
					"type": "error"
				},
				{
					"inputs": [
						{
							"internalType": "uint256",
							"name": "data",
							"type": "uint256"
						}
					],
					"name": "StalePriceData",
					"type": "error"
				},
				{
					"inputs": [
						{
							"internalType": "address",
							"name": "token",
							"type": "address"
						}
					],
					"name": "TokenAlreadyApproved",
					"type": "error"
				},
				{
					"inputs": [
						{
							"internalType": "address",
							"name": "token",
							"type": "address"
						}
					],
					"name": "TokenNotApproved",
					"type": "error"
				},
				{
					"inputs": [
						{
							"internalType": "address",
							"name": "token",
							"type": "address"
						},
						{
							"internalType": "address",
							"name": "to",
							"type": "address"
						},
						{
							"internalType": "uint256",
							"name": "amount",
							"type": "uint256"
						}
					],
					"name": "TokenTransferFailed",
					"type": "error"
				},
				{
					"inputs": [
						{
							"internalType": "address",
							"name": "token",
							"type": "address"
						},
						{
							"internalType": "address",
							"name": "sender",
							"type": "address"
						},
						{
							"internalType": "uint256",
							"name": "amount",
							"type": "uint256"
						}
					],
					"name": "TransferFailed",
					"type": "error"
				},
				{
					"anonymous": false,
					"inputs": [
						{
							"indexed": false,
							"internalType": "uint256",
							"name": "newBonus",
							"type": "uint256"
						}
					],
					"name": "BonusUpdated",
					"type": "event"
				},
				{
					"anonymous": false,
					"inputs": [
						{
							"indexed": true,
							"internalType": "address",
							"name": "user",
							"type": "address"
						},
						{
							"indexed": false,
							"internalType": "uint256",
							"name": "amount",
							"type": "uint256"
						}
					],
					"name": "ETHCollateralWithdrawn",
					"type": "event"
				},
				{
					"anonymous": false,
					"inputs": [
						{
							"indexed": true,
							"internalType": "address",
							"name": "user",
							"type": "address"
						},
						{
							"indexed": false,
							"internalType": "uint256",
							"name": "ethAmount",
							"type": "uint256"
						}
					],
					"name": "EthStaked",
					"type": "event"
				},
				{
					"anonymous": false,
					"inputs": [
						{
							"indexed": false,
							"internalType": "uint256",
							"name": "newLtv",
							"type": "uint256"
						}
					],
					"name": "LtvUpdated",
					"type": "event"
				},
				{
					"anonymous": false,
					"inputs": [
						{
							"indexed": false,
							"internalType": "address",
							"name": "newAddress",
							"type": "address"
						}
					],
					"name": "MockUsdtAddressUpdated",
					"type": "event"
				},
				{
					"anonymous": false,
					"inputs": [
						{
							"indexed": true,
							"internalType": "address",
							"name": "token",
							"type": "address"
						}
					],
					"name": "NewTokenApproved",
					"type": "event"
				},
				{
					"anonymous": false,
					"inputs": [
						{
							"indexed": true,
							"internalType": "address",
							"name": "previousOwner",
							"type": "address"
						},
						{
							"indexed": true,
							"internalType": "address",
							"name": "newOwner",
							"type": "address"
						}
					],
					"name": "OwnershipTransferred",
					"type": "event"
				},
				{
					"anonymous": false,
					"inputs": [
						{
							"indexed": true,
							"internalType": "address",
							"name": "token",
							"type": "address"
						},
						{
							"indexed": true,
							"internalType": "address",
							"name": "feed",
							"type": "address"
						}
					],
					"name": "PriceFeedUpdated",
					"type": "event"
				},
				{
					"anonymous": false,
					"inputs": [
						{
							"indexed": true,
							"internalType": "address",
							"name": "token",
							"type": "address"
						}
					],
					"name": "TokenRevoked",
					"type": "event"
				},
				{
					"anonymous": false,
					"inputs": [
						{
							"indexed": true,
							"internalType": "address",
							"name": "user",
							"type": "address"
						},
						{
							"indexed": false,
							"internalType": "uint256",
							"name": "usdAmount",
							"type": "uint256"
						}
					],
					"name": "USDBorrowed",
					"type": "event"
				},
				{
					"anonymous": false,
					"inputs": [
						{
							"indexed": true,
							"internalType": "address",
							"name": "user",
							"type": "address"
						},
						{
							"indexed": false,
							"internalType": "uint256",
							"name": "usdAmount",
							"type": "uint256"
						}
					],
					"name": "USDRepaid",
					"type": "event"
				},
				{
					"stateMutability": "payable",
					"type": "fallback"
				},
				{
					"inputs": [
						{
							"internalType": "address",
							"name": "token",
							"type": "address"
						}
					],
					"name": "approveToken",
					"outputs": [],
					"stateMutability": "nonpayable",
					"type": "function"
				},
				{
					"inputs": [
						{
							"internalType": "uint256",
							"name": "",
							"type": "uint256"
						}
					],
					"name": "approvedTokenList",
					"outputs": [
						{
							"internalType": "address",
							"name": "",
							"type": "address"
						}
					],
					"stateMutability": "view",
					"type": "function"
				},
				{
					"inputs": [
						{
							"internalType": "address",
							"name": "",
							"type": "address"
						}
					],
					"name": "approvedTokens",
					"outputs": [
						{
							"internalType": "bool",
							"name": "",
							"type": "bool"
						}
					],
					"stateMutability": "view",
					"type": "function"
				},
				{
					"inputs": [
						{
							"internalType": "address",
							"name": "token",
							"type": "address"
						},
						{
							"internalType": "uint256",
							"name": "amount",
							"type": "uint256"
						}
					],
					"name": "borrowAsset",
					"outputs": [],
					"stateMutability": "nonpayable",
					"type": "function"
				},
				{
					"inputs": [],
					"name": "getApprovedTokensCount",
					"outputs": [
						{
							"internalType": "uint256",
							"name": "",
							"type": "uint256"
						}
					],
					"stateMutability": "view",
					"type": "function"
				},
				{
					"inputs": [],
					"name": "getContractEthBalance",
					"outputs": [
						{
							"internalType": "uint256",
							"name": "",
							"type": "uint256"
						}
					],
					"stateMutability": "view",
					"type": "function"
				},
				{
					"inputs": [
						{
							"internalType": "address",
							"name": "token",
							"type": "address"
						}
					],
					"name": "getContractsTokenBalance",
					"outputs": [
						{
							"internalType": "uint256",
							"name": "",
							"type": "uint256"
						}
					],
					"stateMutability": "view",
					"type": "function"
				},
				{
					"inputs": [
						{
							"internalType": "address",
							"name": "token",
							"type": "address"
						}
					],
					"name": "getLatestPrice",
					"outputs": [
						{
							"internalType": "uint256",
							"name": "",
							"type": "uint256"
						}
					],
					"stateMutability": "view",
					"type": "function"
				},
				{
					"inputs": [
						{
							"internalType": "address",
							"name": "token",
							"type": "address"
						},
						{
							"internalType": "uint256",
							"name": "amount",
							"type": "uint256"
						}
					],
					"name": "getUsdValue",
					"outputs": [
						{
							"internalType": "uint256",
							"name": "usdValue",
							"type": "uint256"
						}
					],
					"stateMutability": "view",
					"type": "function"
				},
				{
					"inputs": [
						{
							"internalType": "address",
							"name": "user",
							"type": "address"
						}
					],
					"name": "getUser",
					"outputs": [
						{
							"internalType": "address",
							"name": "stakedAsset",
							"type": "address"
						},
						{
							"internalType": "uint256",
							"name": "stakedAmount",
							"type": "uint256"
						},
						{
							"internalType": "address",
							"name": "borrowedAsset",
							"type": "address"
						},
						{
							"internalType": "uint256",
							"name": "borrowedAssetAmount",
							"type": "uint256"
						}
					],
					"stateMutability": "view",
					"type": "function"
				},
				{
					"inputs": [
						{
							"internalType": "address",
							"name": "token",
							"type": "address"
						}
					],
					"name": "isTokenApproved",
					"outputs": [
						{
							"internalType": "bool",
							"name": "",
							"type": "bool"
						}
					],
					"stateMutability": "view",
					"type": "function"
				},
				{
					"inputs": [
						{
							"internalType": "address",
							"name": "borrower",
							"type": "address"
						},
						{
							"internalType": "uint256",
							"name": "repayAmount",
							"type": "uint256"
						}
					],
					"name": "liquidate",
					"outputs": [],
					"stateMutability": "nonpayable",
					"type": "function"
				},
				{
					"inputs": [],
					"name": "owner",
					"outputs": [
						{
							"internalType": "address",
							"name": "",
							"type": "address"
						}
					],
					"stateMutability": "view",
					"type": "function"
				},
				{
					"inputs": [
						{
							"internalType": "address",
							"name": "",
							"type": "address"
						}
					],
					"name": "priceFeeds",
					"outputs": [
						{
							"internalType": "address",
							"name": "",
							"type": "address"
						}
					],
					"stateMutability": "view",
					"type": "function"
				},
				{
					"inputs": [],
					"name": "renounceOwnership",
					"outputs": [],
					"stateMutability": "nonpayable",
					"type": "function"
				},
				{
					"inputs": [
						{
							"internalType": "address",
							"name": "token",
							"type": "address"
						},
						{
							"internalType": "uint256",
							"name": "amount",
							"type": "uint256"
						}
					],
					"name": "repayAsset",
					"outputs": [],
					"stateMutability": "nonpayable",
					"type": "function"
				},
				{
					"inputs": [
						{
							"internalType": "address",
							"name": "token",
							"type": "address"
						}
					],
					"name": "revokeTokenApproval",
					"outputs": [],
					"stateMutability": "nonpayable",
					"type": "function"
				},
				{
					"inputs": [
						{
							"internalType": "address",
							"name": "token",
							"type": "address"
						},
						{
							"internalType": "address",
							"name": "feed",
							"type": "address"
						}
					],
					"name": "setFeed",
					"outputs": [],
					"stateMutability": "nonpayable",
					"type": "function"
				},
				{
					"inputs": [
						{
							"internalType": "uint256",
							"name": "_bonus",
							"type": "uint256"
						}
					],
					"name": "setLiquidationBonus",
					"outputs": [],
					"stateMutability": "nonpayable",
					"type": "function"
				},
				{
					"inputs": [
						{
							"internalType": "uint256",
							"name": "_ltv",
							"type": "uint256"
						}
					],
					"name": "setLtv",
					"outputs": [],
					"stateMutability": "nonpayable",
					"type": "function"
				},
				{
					"inputs": [],
					"name": "stakeEth",
					"outputs": [],
					"stateMutability": "payable",
					"type": "function"
				},
				{
					"inputs": [
						{
							"internalType": "address",
							"name": "",
							"type": "address"
						}
					],
					"name": "tokenIndex",
					"outputs": [
						{
							"internalType": "uint256",
							"name": "",
							"type": "uint256"
						}
					],
					"stateMutability": "view",
					"type": "function"
				},
				{
					"inputs": [
						{
							"internalType": "address",
							"name": "newOwner",
							"type": "address"
						}
					],
					"name": "transferOwnership",
					"outputs": [],
					"stateMutability": "nonpayable",
					"type": "function"
				},
				{
					"inputs": [
						{
							"internalType": "address",
							"name": "",
							"type": "address"
						}
					],
					"name": "users",
					"outputs": [
						{
							"internalType": "address",
							"name": "stakedAsset",
							"type": "address"
						},
						{
							"internalType": "uint256",
							"name": "stakedAmount",
							"type": "uint256"
						},
						{
							"internalType": "address",
							"name": "borrowedAsset",
							"type": "address"
						},
						{
							"internalType": "uint256",
							"name": "borrowedAssetAmount",
							"type": "uint256"
						}
					],
					"stateMutability": "view",
					"type": "function"
				},
				{
					"inputs": [
						{
							"internalType": "uint256",
							"name": "amount",
							"type": "uint256"
						}
					],
					"name": "withdrawCollateralEth",
					"outputs": [],
					"stateMutability": "nonpayable",
					"type": "function"
				},
				{
					"stateMutability": "payable",
					"type": "receive"
				}
			],
			"devdoc": {
				"errors": {
					"OwnableInvalidOwner(address)": [
						{
							"details": "The owner is not a valid owner account. (eg. `address(0)`)"
						}
					],
					"OwnableUnauthorizedAccount(address)": [
						{
							"details": "The caller account is not authorized to perform an operation."
						}
					]
				},
				"kind": "dev",
				"methods": {
					"getUser(address)": {
						"details": "External callers cannot get storage references, so return memory version."
					},
					"owner()": {
						"details": "Returns the address of the current owner."
					},
					"renounceOwnership()": {
						"details": "Leaves the contract without owner. It will not be possible to call `onlyOwner` functions. Can only be called by the current owner. NOTE: Renouncing ownership will leave the contract without an owner, thereby disabling any functionality that is only available to the owner."
					},
					"transferOwnership(address)": {
						"details": "Transfers ownership of the contract to a new account (`newOwner`). Can only be called by the current owner."
					}
				},
				"version": 1
			},
			"evm": {
				"assembly": "    /* \"src/contracts/MiniLend.sol\":444:16704  contract MiniLend is ReentrancyGuard, Ownable(msg.sender) {... */\n  mstore(0x40, 0x80)\n    /* \"src/contracts/MiniLend.sol\":2760:2802  0xEeeeeEeeeEeEeeEeEeEeeEEEeeeeEeeeeeeeEEeE */\n  0xeeeeeeeeeeeeeeeeeeeeeeeeeeeeeeeeeeeeeeee\n    /* \"src/contracts/MiniLend.sol\":2739:2802  address ethAddress = 0xEeeeeEeeeEeEeeEeEeEeeEEEeeeeEeeeeeeeEEeE */\n  0x07\n  exp(0x0100, 0x00)\n  dup2\n  sload\n  dup2\n  0xffffffffffffffffffffffffffffffffffffffff\n  mul\n  not\n  and\n  swap1\n  dup4\n  0xffffffffffffffffffffffffffffffffffffffff\n  and\n  mul\n  or\n  swap1\n  sstore\n  pop\n    /* \"src/contracts/MiniLend.sol\":2861:2865  5000 */\n  0x1388\n    /* \"src/contracts/MiniLend.sol\":2839:2865  uint256 private LTV = 5000 */\n  0x08\n  sstore\n    /* \"src/contracts/MiniLend.sol\":2925:2928  500 */\n  0x01f4\n    /* \"src/contracts/MiniLend.sol\":2889:2928  uint256 private LIQUIDATION_BONUS = 500 */\n  0x09\n  sstore\n    /* \"src/contracts/MiniLend.sol\":444:16704  contract MiniLend is ReentrancyGuard, Ownable(msg.sender) {... */\n  callvalue\n  dup1\n  iszero\n  tag_1\n  jumpi\n  revert(0x00, 0x00)\ntag_1:\n  pop\n    /* \"src/contracts/MiniLend.sol\":490:500  msg.sender */\n  caller\n    /* \"@openzeppelin/contracts/security/ReentrancyGuard.sol\":1716:1717  1 */\n  0x01\n    /* \"@openzeppelin/contracts/security/ReentrancyGuard.sol\":1821:1828  _status */\n  0x00\n    /* \"@openzeppelin/contracts/security/ReentrancyGuard.sol\":1821:1843  _status = _NOT_ENTERED */\n  dup2\n  swap1\n  sstore\n  pop\n    /* \"@openzeppelin/contracts/access/Ownable.sol\":1297:1298  0 */\n  0x00\n    /* \"@openzeppelin/contracts/access/Ownable.sol\":1273:1299  initialOwner == address(0) */\n  0xffffffffffffffffffffffffffffffffffffffff\n  and\n    /* \"@openzeppelin/contracts/access/Ownable.sol\":1273:1285  initialOwner */\n  dup2\n    /* \"@openzeppelin/contracts/access/Ownable.sol\":1273:1299  initialOwner == address(0) */\n  0xffffffffffffffffffffffffffffffffffffffff\n  and\n  sub\n    /* \"@openzeppelin/contracts/access/Ownable.sol\":1269:1364  if (initialOwner == address(0)) {... */\n  tag_6\n  jumpi\n    /* \"@openzeppelin/contracts/access/Ownable.sol\":1350:1351  0 */\n  0x00\n    /* \"@openzeppelin/contracts/access/Ownable.sol\":1322:1353  OwnableInvalidOwner(address(0)) */\n  mload(0x40)\n  0x1e4fbdf700000000000000000000000000000000000000000000000000000000\n  dup2\n  mstore\n  0x04\n  add\n  tag_7\n  swap2\n  swap1\n  tag_8\n  jump\t// in\ntag_7:\n  mload(0x40)\n  dup1\n  swap2\n  sub\n  swap1\n  revert\n    /* \"@openzeppelin/contracts/access/Ownable.sol\":1269:1364  if (initialOwner == address(0)) {... */\ntag_6:\n    /* \"@openzeppelin/contracts/access/Ownable.sol\":1373:1405  _transferOwnership(initialOwner) */\n  tag_9\n    /* \"@openzeppelin/contracts/access/Ownable.sol\":1392:1404  initialOwner */\n  dup2\n    /* \"@openzeppelin/contracts/access/Ownable.sol\":1373:1391  _transferOwnership */\n  shl(0x20, tag_10)\n    /* \"@openzeppelin/contracts/access/Ownable.sol\":1373:1405  _transferOwnership(initialOwner) */\n  0x20\n  shr\n  jump\t// in\ntag_9:\n    /* \"@openzeppelin/contracts/access/Ownable.sol\":1225:1412  constructor(address initialOwner) {... */\n  pop\n    /* \"src/contracts/MiniLend.sol\":444:16704  contract MiniLend is ReentrancyGuard, Ownable(msg.sender) {... */\n  jump(tag_11)\n    /* \"@openzeppelin/contracts/access/Ownable.sol\":2912:3099  function _transferOwnership(address newOwner) internal virtual {... */\ntag_10:\n    /* \"@openzeppelin/contracts/access/Ownable.sol\":2985:3001  address oldOwner */\n  0x00\n    /* \"@openzeppelin/contracts/access/Ownable.sol\":3004:3010  _owner */\n  0x01\n  0x00\n  swap1\n  sload\n  swap1\n  0x0100\n  exp\n  swap1\n  div\n  0xffffffffffffffffffffffffffffffffffffffff\n  and\n    /* \"@openzeppelin/contracts/access/Ownable.sol\":2985:3010  address oldOwner = _owner */\n  swap1\n  pop\n    /* \"@openzeppelin/contracts/access/Ownable.sol\":3029:3037  newOwner */\n  dup2\n    /* \"@openzeppelin/contracts/access/Ownable.sol\":3020:3026  _owner */\n  0x01\n  0x00\n    /* \"@openzeppelin/contracts/access/Ownable.sol\":3020:3037  _owner = newOwner */\n  0x0100\n  exp\n  dup2\n  sload\n  dup2\n  0xffffffffffffffffffffffffffffffffffffffff\n  mul\n  not\n  and\n  swap1\n  dup4\n  0xffffffffffffffffffffffffffffffffffffffff\n  and\n  mul\n  or\n  swap1\n  sstore\n  pop\n    /* \"@openzeppelin/contracts/access/Ownable.sol\":3083:3091  newOwner */\n  dup2\n    /* \"@openzeppelin/contracts/access/Ownable.sol\":3052:3092  OwnershipTransferred(oldOwner, newOwner) */\n  0xffffffffffffffffffffffffffffffffffffffff\n  and\n    /* \"@openzeppelin/contracts/access/Ownable.sol\":3073:3081  oldOwner */\n  dup2\n    /* \"@openzeppelin/contracts/access/Ownable.sol\":3052:3092  OwnershipTransferred(oldOwner, newOwner) */\n  0xffffffffffffffffffffffffffffffffffffffff\n  and\n  0x8be0079c531659141344cd1fd0a4f28419497f9722a3daafe3b4186f6b6457e0\n  mload(0x40)\n  mload(0x40)\n  dup1\n  swap2\n  sub\n  swap1\n  log3\n    /* \"@openzeppelin/contracts/access/Ownable.sol\":2975:3099  {... */\n  pop\n    /* \"@openzeppelin/contracts/access/Ownable.sol\":2912:3099  function _transferOwnership(address newOwner) internal virtual {... */\n  pop\n  jump\t// out\n    /* \"#utility.yul\":7:133   */\ntag_13:\n    /* \"#utility.yul\":44:51   */\n  0x00\n    /* \"#utility.yul\":84:126   */\n  0xffffffffffffffffffffffffffffffffffffffff\n    /* \"#utility.yul\":77:82   */\n  dup3\n    /* \"#utility.yul\":73:127   */\n  and\n    /* \"#utility.yul\":62:127   */\n  swap1\n  pop\n    /* \"#utility.yul\":7:133   */\n  swap2\n  swap1\n  pop\n  jump\t// out\n    /* \"#utility.yul\":139:235   */\ntag_14:\n    /* \"#utility.yul\":176:183   */\n  0x00\n    /* \"#utility.yul\":205:229   */\n  tag_19\n    /* \"#utility.yul\":223:228   */\n  dup3\n    /* \"#utility.yul\":205:229   */\n  tag_13\n  jump\t// in\ntag_19:\n    /* \"#utility.yul\":194:229   */\n  swap1\n  pop\n    /* \"#utility.yul\":139:235   */\n  swap2\n  swap1\n  pop\n  jump\t// out\n    /* \"#utility.yul\":241:359   */\ntag_15:\n    /* \"#utility.yul\":328:352   */\n  tag_21\n    /* \"#utility.yul\":346:351   */\n  dup2\n    /* \"#utility.yul\":328:352   */\n  tag_14\n  jump\t// in\ntag_21:\n    /* \"#utility.yul\":323:326   */\n  dup3\n    /* \"#utility.yul\":316:353   */\n  mstore\n    /* \"#utility.yul\":241:359   */\n  pop\n  pop\n  jump\t// out\n    /* \"#utility.yul\":365:587   */\ntag_8:\n    /* \"#utility.yul\":458:462   */\n  0x00\n    /* \"#utility.yul\":496:498   */\n  0x20\n    /* \"#utility.yul\":485:494   */\n  dup3\n    /* \"#utility.yul\":481:499   */\n  add\n    /* \"#utility.yul\":473:499   */\n  swap1\n  pop\n    /* \"#utility.yul\":509:580   */\n  tag_23\n    /* \"#utility.yul\":577:578   */\n  0x00\n    /* \"#utility.yul\":566:575   */\n  dup4\n    /* \"#utility.yul\":562:579   */\n  add\n    /* \"#utility.yul\":553:559   */\n  dup5\n    /* \"#utility.yul\":509:580   */\n  tag_15\n  jump\t// in\ntag_23:\n    /* \"#utility.yul\":365:587   */\n  swap3\n  swap2\n  pop\n  pop\n  jump\t// out\n    /* \"src/contracts/MiniLend.sol\":444:16704  contract MiniLend is ReentrancyGuard, Ownable(msg.sender) {... */\ntag_11:\n  dataSize(sub_0)\n  dup1\n  dataOffset(sub_0)\n  0x00\n  codecopy\n  0x00\n  return\nstop\n\nsub_0: assembly {\n        /* \"src/contracts/MiniLend.sol\":444:16704  contract MiniLend is ReentrancyGuard, Ownable(msg.sender) {... */\n      mstore(0x40, 0x80)\n      jumpi(tag_1, lt(calldatasize, 0x04))\n      shr(0xe0, calldataload(0x00))\n      dup1\n      0x7a5f0dc4\n      gt\n      tag_28\n      jumpi\n      dup1\n      0xa37e52e3\n      gt\n      tag_29\n      jumpi\n      dup1\n      0xbcbaf487\n      gt\n      tag_30\n      jumpi\n      dup1\n      0xbcbaf487\n      eq\n      tag_24\n      jumpi\n      dup1\n      0xc660d112\n      eq\n      tag_25\n      jumpi\n      dup1\n      0xe1bf0a4b\n      eq\n      tag_26\n      jumpi\n      dup1\n      0xf2fde38b\n      eq\n      tag_27\n      jumpi\n      jump(tag_2)\n    tag_30:\n      dup1\n      0xa37e52e3\n      eq\n      tag_21\n      jumpi\n      dup1\n      0xa87430ba\n      eq\n      tag_22\n      jumpi\n      dup1\n      0xb8bc9cab\n      eq\n      tag_23\n      jumpi\n      jump(tag_2)\n    tag_29:\n      dup1\n      0x7a5f0dc4\n      eq\n      tag_15\n      jumpi\n      dup1\n      0x80b2edd8\n      eq\n      tag_16\n      jumpi\n      dup1\n      0x8da5cb5b\n      eq\n      tag_17\n      jumpi\n      dup1\n      0x9776f4a5\n      eq\n      tag_18\n      jumpi\n      dup1\n      0x9d93d352\n      eq\n      tag_19\n      jumpi\n      dup1\n      0x9dcb511a\n      eq\n      tag_20\n      jumpi\n      jump(tag_2)\n    tag_28:\n      dup1\n      0x427f91a6\n      gt\n      tag_31\n      jumpi\n      dup1\n      0x427f91a6\n      eq\n      tag_9\n      jumpi\n      dup1\n      0x4bb55d5c\n      eq\n      tag_10\n      jumpi\n      dup1\n      0x4de57d75\n      eq\n      tag_11\n      jumpi\n      dup1\n      0x6d1ea3fa\n      eq\n      tag_12\n      jumpi\n      dup1\n      0x6f77926b\n      eq\n      tag_13\n      jumpi\n      dup1\n      0x715018a6\n      eq\n      tag_14\n      jumpi\n      jump(tag_2)\n    tag_31:\n      dup1\n      0x0f07645a\n      eq\n      tag_3\n      jumpi\n      dup1\n      0x15c92678\n      eq\n      tag_4\n      jumpi\n      dup1\n      0x16345f18\n      eq\n      tag_5\n      jumpi\n      dup1\n      0x28842d4f\n      eq\n      tag_6\n      jumpi\n      dup1\n      0x3e4e1c27\n      eq\n      tag_7\n      jumpi\n      dup1\n      0x40b1eb10\n      eq\n      tag_8\n      jumpi\n      jump(tag_2)\n    tag_1:\n    tag_2:\n      stop\n        /* \"src/contracts/MiniLend.sol\":9046:9838  function borrowAsset(... */\n    tag_3:\n      callvalue\n      dup1\n      iszero\n      tag_36\n      jumpi\n      revert(0x00, 0x00)\n    tag_36:\n      pop\n      tag_37\n      0x04\n      dup1\n      calldatasize\n      sub\n      dup2\n      add\n      swap1\n      tag_38\n      swap2\n      swap1\n      tag_39\n      jump\t// in\n    tag_38:\n      tag_40\n      jump\t// in\n    tag_37:\n      stop\n        /* \"src/contracts/MiniLend.sol\":4783:5491  function revokeTokenApproval(... */\n    tag_4:\n      callvalue\n      dup1\n      iszero\n      tag_41\n      jumpi\n      revert(0x00, 0x00)\n    tag_41:\n      pop\n      tag_42\n      0x04\n      dup1\n      calldatasize\n      sub\n      dup2\n      add\n      swap1\n      tag_43\n      swap2\n      swap1\n      tag_44\n      jump\t// in\n    tag_43:\n      tag_45\n      jump\t// in\n    tag_42:\n      stop\n        /* \"src/contracts/MiniLend.sol\":5753:6736  function getLatestPrice(... */\n    tag_5:\n      callvalue\n      dup1\n      iszero\n      tag_46\n      jumpi\n      revert(0x00, 0x00)\n    tag_46:\n      pop\n      tag_47\n      0x04\n      dup1\n      calldatasize\n      sub\n      dup2\n      add\n      swap1\n      tag_48\n      swap2\n      swap1\n      tag_44\n      jump\t// in\n    tag_48:\n      tag_49\n      jump\t// in\n    tag_47:\n      mload(0x40)\n      tag_50\n      swap2\n      swap1\n      tag_51\n      jump\t// in\n    tag_50:\n      mload(0x40)\n      dup1\n      swap2\n      sub\n      swap1\n      return\n        /* \"src/contracts/MiniLend.sol\":4189:4430  function setLiquidationBonus(... */\n    tag_6:\n      callvalue\n      dup1\n      iszero\n      tag_52\n      jumpi\n      revert(0x00, 0x00)\n    tag_52:\n      pop\n      tag_53\n      0x04\n      dup1\n      calldatasize\n      sub\n      dup2\n      add\n      swap1\n      tag_54\n      swap2\n      swap1\n      tag_55\n      jump\t// in\n    tag_54:\n      tag_56\n      jump\t// in\n    tag_53:\n      stop\n        /* \"src/contracts/MiniLend.sol\":7365:7570  function getContractsTokenBalance(... */\n    tag_7:\n      callvalue\n      dup1\n      iszero\n      tag_57\n      jumpi\n      revert(0x00, 0x00)\n    tag_57:\n      pop\n      tag_58\n      0x04\n      dup1\n      calldatasize\n      sub\n      dup2\n      add\n      swap1\n      tag_59\n      swap2\n      swap1\n      tag_44\n      jump\t// in\n    tag_59:\n      tag_60\n      jump\t// in\n    tag_58:\n      mload(0x40)\n      tag_61\n      swap2\n      swap1\n      tag_51\n      jump\t// in\n    tag_61:\n      mload(0x40)\n      dup1\n      swap2\n      sub\n      swap1\n      return\n        /* \"src/contracts/MiniLend.sol\":3721:3936  function setFeed(... */\n    tag_8:\n      callvalue\n      dup1\n      iszero\n      tag_62\n      jumpi\n      revert(0x00, 0x00)\n    tag_62:\n      pop\n      tag_63\n      0x04\n      dup1\n      calldatasize\n      sub\n      dup2\n      add\n      swap1\n      tag_64\n      swap2\n      swap1\n      tag_65\n      jump\t// in\n    tag_64:\n      tag_66\n      jump\t// in\n    tag_63:\n      stop\n        /* \"src/contracts/MiniLend.sol\":2618:2663  mapping(address => uint256) public tokenIndex */\n    tag_9:\n      callvalue\n      dup1\n      iszero\n      tag_67\n      jumpi\n      revert(0x00, 0x00)\n    tag_67:\n      pop\n      tag_68\n      0x04\n      dup1\n      calldatasize\n      sub\n      dup2\n      add\n      swap1\n      tag_69\n      swap2\n      swap1\n      tag_44\n      jump\t// in\n    tag_69:\n      tag_70\n      jump\t// in\n    tag_68:\n      mload(0x40)\n      tag_71\n      swap2\n      swap1\n      tag_51\n      jump\t// in\n    tag_71:\n      mload(0x40)\n      dup1\n      swap2\n      sub\n      swap1\n      return\n        /* \"src/contracts/MiniLend.sol\":8461:8575  function getApprovedTokensCount() external view returns (uint256) {... */\n    tag_10:\n      callvalue\n      dup1\n      iszero\n      tag_72\n      jumpi\n      revert(0x00, 0x00)\n    tag_72:\n      pop\n      tag_73\n      tag_74\n      jump\t// in\n    tag_73:\n      mload(0x40)\n      tag_75\n      swap2\n      swap1\n      tag_51\n      jump\t// in\n    tag_75:\n      mload(0x40)\n      dup1\n      swap2\n      sub\n      swap1\n      return\n        /* \"src/contracts/MiniLend.sol\":8189:8299  function getContractEthBalance() external view returns (uint256) {... */\n    tag_11:\n      callvalue\n      dup1\n      iszero\n      tag_76\n      jumpi\n      revert(0x00, 0x00)\n    tag_76:\n      pop\n      tag_77\n      tag_78\n      jump\t// in\n    tag_77:\n      mload(0x40)\n      tag_79\n      swap2\n      swap1\n      tag_51\n      jump\t// in\n    tag_79:\n      mload(0x40)\n      dup1\n      swap2\n      sub\n      swap1\n      return\n        /* \"src/contracts/MiniLend.sol\":2566:2612  mapping(address => bool) public approvedTokens */\n    tag_12:\n      callvalue\n      dup1\n      iszero\n      tag_80\n      jumpi\n      revert(0x00, 0x00)\n    tag_80:\n      pop\n      tag_81\n      0x04\n      dup1\n      calldatasize\n      sub\n      dup2\n      add\n      swap1\n      tag_82\n      swap2\n      swap1\n      tag_44\n      jump\t// in\n    tag_82:\n      tag_83\n      jump\t// in\n    tag_81:\n      mload(0x40)\n      tag_84\n      swap2\n      swap1\n      tag_85\n      jump\t// in\n    tag_84:\n      mload(0x40)\n      dup1\n      swap2\n      sub\n      swap1\n      return\n        /* \"src/contracts/MiniLend.sol\":7743:8183  function getUser(... */\n    tag_13:\n      callvalue\n      dup1\n      iszero\n      tag_86\n      jumpi\n      revert(0x00, 0x00)\n    tag_86:\n      pop\n      tag_87\n      0x04\n      dup1\n      calldatasize\n      sub\n      dup2\n      add\n      swap1\n      tag_88\n      swap2\n      swap1\n      tag_44\n      jump\t// in\n    tag_88:\n      tag_89\n      jump\t// in\n    tag_87:\n      mload(0x40)\n      tag_90\n      swap5\n      swap4\n      swap3\n      swap2\n      swap1\n      tag_91\n      jump\t// in\n    tag_90:\n      mload(0x40)\n      dup1\n      swap2\n      sub\n      swap1\n      return\n        /* \"@openzeppelin/contracts/access/Ownable.sol\":2293:2394  function renounceOwnership() public virtual onlyOwner {... */\n    tag_14:\n      callvalue\n      dup1\n      iszero\n      tag_92\n      jumpi\n      revert(0x00, 0x00)\n    tag_92:\n      pop\n      tag_93\n      tag_94\n      jump\t// in\n    tag_93:\n      stop\n        /* \"src/contracts/MiniLend.sol\":8668:8942  function stakeEth() public payable {... */\n    tag_15:\n      tag_95\n      tag_96\n      jump\t// in\n    tag_95:\n      stop\n        /* \"src/contracts/MiniLend.sol\":4436:4777  function approveToken(... */\n    tag_16:\n      callvalue\n      dup1\n      iszero\n      tag_97\n      jumpi\n      revert(0x00, 0x00)\n    tag_97:\n      pop\n      tag_98\n      0x04\n      dup1\n      calldatasize\n      sub\n      dup2\n      add\n      swap1\n      tag_99\n      swap2\n      swap1\n      tag_44\n      jump\t// in\n    tag_99:\n      tag_100\n      jump\t// in\n    tag_98:\n      stop\n        /* \"@openzeppelin/contracts/access/Ownable.sol\":1638:1723  function owner() public view virtual returns (address) {... */\n    tag_17:\n      callvalue\n      dup1\n      iszero\n      tag_101\n      jumpi\n      revert(0x00, 0x00)\n    tag_101:\n      pop\n      tag_102\n      tag_103\n      jump\t// in\n    tag_102:\n      mload(0x40)\n      tag_104\n      swap2\n      swap1\n      tag_105\n      jump\t// in\n    tag_104:\n      mload(0x40)\n      dup1\n      swap2\n      sub\n      swap1\n      return\n        /* \"src/contracts/MiniLend.sol\":2699:2733  address[] public approvedTokenList */\n    tag_18:\n      callvalue\n      dup1\n      iszero\n      tag_106\n      jumpi\n      revert(0x00, 0x00)\n    tag_106:\n      pop\n      tag_107\n      0x04\n      dup1\n      calldatasize\n      sub\n      dup2\n      add\n      swap1\n      tag_108\n      swap2\n      swap1\n      tag_55\n      jump\t// in\n    tag_108:\n      tag_109\n      jump\t// in\n    tag_107:\n      mload(0x40)\n      tag_110\n      swap2\n      swap1\n      tag_105\n      jump\t// in\n    tag_110:\n      mload(0x40)\n      dup1\n      swap2\n      sub\n      swap1\n      return\n        /* \"src/contracts/MiniLend.sol\":8305:8455  function isTokenApproved(... */\n    tag_19:\n      callvalue\n      dup1\n      iszero\n      tag_111\n      jumpi\n      revert(0x00, 0x00)\n    tag_111:\n      pop\n      tag_112\n      0x04\n      dup1\n      calldatasize\n      sub\n      dup2\n      add\n      swap1\n      tag_113\n      swap2\n      swap1\n      tag_44\n      jump\t// in\n    tag_113:\n      tag_114\n      jump\t// in\n    tag_112:\n      mload(0x40)\n      tag_115\n      swap2\n      swap1\n      tag_85\n      jump\t// in\n    tag_115:\n      mload(0x40)\n      dup1\n      swap2\n      sub\n      swap1\n      return\n        /* \"src/contracts/MiniLend.sol\":2468:2513  mapping(address => address) public priceFeeds */\n    tag_20:\n      callvalue\n      dup1\n      iszero\n      tag_116\n      jumpi\n      revert(0x00, 0x00)\n    tag_116:\n      pop\n      tag_117\n      0x04\n      dup1\n      calldatasize\n      sub\n      dup2\n      add\n      swap1\n      tag_118\n      swap2\n      swap1\n      tag_44\n      jump\t// in\n    tag_118:\n      tag_119\n      jump\t// in\n    tag_117:\n      mload(0x40)\n      tag_120\n      swap2\n      swap1\n      tag_105\n      jump\t// in\n    tag_120:\n      mload(0x40)\n      dup1\n      swap2\n      sub\n      swap1\n      return\n        /* \"src/contracts/MiniLend.sol\":3942:4183  function setLtv(uint256 _ltv) external onlyOwner nonZeroAmount(_ltv) {... */\n    tag_21:\n      callvalue\n      dup1\n      iszero\n      tag_121\n      jumpi\n      revert(0x00, 0x00)\n    tag_121:\n      pop\n      tag_122\n      0x04\n      dup1\n      calldatasize\n      sub\n      dup2\n      add\n      swap1\n      tag_123\n      swap2\n      swap1\n      tag_55\n      jump\t// in\n    tag_123:\n      tag_124\n      jump\t// in\n    tag_122:\n      stop\n        /* \"src/contracts/MiniLend.sol\":2425:2462  mapping(address => User) public users */\n    tag_22:\n      callvalue\n      dup1\n      iszero\n      tag_125\n      jumpi\n      revert(0x00, 0x00)\n    tag_125:\n      pop\n      tag_126\n      0x04\n      dup1\n      calldatasize\n      sub\n      dup2\n      add\n      swap1\n      tag_127\n      swap2\n      swap1\n      tag_44\n      jump\t// in\n    tag_127:\n      tag_128\n      jump\t// in\n    tag_126:\n      mload(0x40)\n      tag_129\n      swap5\n      swap4\n      swap3\n      swap2\n      swap1\n      tag_91\n      jump\t// in\n    tag_129:\n      mload(0x40)\n      dup1\n      swap2\n      sub\n      swap1\n      return\n        /* \"src/contracts/MiniLend.sol\":9913:10894  function repayAsset(... */\n    tag_23:\n      callvalue\n      dup1\n      iszero\n      tag_130\n      jumpi\n      revert(0x00, 0x00)\n    tag_130:\n      pop\n      tag_131\n      0x04\n      dup1\n      calldatasize\n      sub\n      dup2\n      add\n      swap1\n      tag_132\n      swap2\n      swap1\n      tag_39\n      jump\t// in\n    tag_132:\n      tag_133\n      jump\t// in\n    tag_131:\n      stop\n        /* \"src/contracts/MiniLend.sol\":11740:13529  function liquidate(... */\n    tag_24:\n      callvalue\n      dup1\n      iszero\n      tag_134\n      jumpi\n      revert(0x00, 0x00)\n    tag_134:\n      pop\n      tag_135\n      0x04\n      dup1\n      calldatasize\n      sub\n      dup2\n      add\n      swap1\n      tag_136\n      swap2\n      swap1\n      tag_39\n      jump\t// in\n    tag_136:\n      tag_137\n      jump\t// in\n    tag_135:\n      stop\n        /* \"src/contracts/MiniLend.sol\":6742:7359  function getUsdValue(... */\n    tag_25:\n      callvalue\n      dup1\n      iszero\n      tag_138\n      jumpi\n      revert(0x00, 0x00)\n    tag_138:\n      pop\n      tag_139\n      0x04\n      dup1\n      calldatasize\n      sub\n      dup2\n      add\n      swap1\n      tag_140\n      swap2\n      swap1\n      tag_39\n      jump\t// in\n    tag_140:\n      tag_141\n      jump\t// in\n    tag_139:\n      mload(0x40)\n      tag_142\n      swap2\n      swap1\n      tag_51\n      jump\t// in\n    tag_142:\n      mload(0x40)\n      dup1\n      swap2\n      sub\n      swap1\n      return\n        /* \"src/contracts/MiniLend.sol\":10975:11734  function withdrawCollateralEth(... */\n    tag_26:\n      callvalue\n      dup1\n      iszero\n      tag_143\n      jumpi\n      revert(0x00, 0x00)\n    tag_143:\n      pop\n      tag_144\n      0x04\n      dup1\n      calldatasize\n      sub\n      dup2\n      add\n      swap1\n      tag_145\n      swap2\n      swap1\n      tag_55\n      jump\t// in\n    tag_145:\n      tag_146\n      jump\t// in\n    tag_144:\n      stop\n        /* \"@openzeppelin/contracts/access/Ownable.sol\":2543:2758  function transferOwnership(address newOwner) public virtual onlyOwner {... */\n    tag_27:\n      callvalue\n      dup1\n      iszero\n      tag_147\n      jumpi\n      revert(0x00, 0x00)\n    tag_147:\n      pop\n      tag_148\n      0x04\n      dup1\n      calldatasize\n      sub\n      dup2\n      add\n      swap1\n      tag_149\n      swap2\n      swap1\n      tag_44\n      jump\t// in\n    tag_149:\n      tag_150\n      jump\t// in\n    tag_148:\n      stop\n        /* \"src/contracts/MiniLend.sol\":9046:9838  function borrowAsset(... */\n    tag_40:\n        /* \"@openzeppelin/contracts/security/ReentrancyGuard.sol\":2261:2282  _nonReentrantBefore() */\n      tag_152\n        /* \"@openzeppelin/contracts/security/ReentrancyGuard.sol\":2261:2280  _nonReentrantBefore */\n      tag_153\n        /* \"@openzeppelin/contracts/security/ReentrancyGuard.sol\":2261:2282  _nonReentrantBefore() */\n      jump\t// in\n    tag_152:\n        /* \"src/contracts/MiniLend.sol\":9181:9186  token */\n      dup2\n        /* \"src/contracts/MiniLend.sol\":3380:3381  0 */\n      0x00\n        /* \"src/contracts/MiniLend.sol\":3364:3382  addr == address(0) */\n      0xffffffffffffffffffffffffffffffffffffffff\n      and\n        /* \"src/contracts/MiniLend.sol\":3364:3368  addr */\n      dup2\n        /* \"src/contracts/MiniLend.sol\":3364:3382  addr == address(0) */\n      0xffffffffffffffffffffffffffffffffffffffff\n      and\n      sub\n        /* \"src/contracts/MiniLend.sol\":3360:3411  if (addr == address(0)) revert InvalidAddress(addr) */\n      tag_155\n      jumpi\n        /* \"src/contracts/MiniLend.sol\":3406:3410  addr */\n      dup1\n        /* \"src/contracts/MiniLend.sol\":3391:3411  InvalidAddress(addr) */\n      mload(0x40)\n      0x8e4c8aa600000000000000000000000000000000000000000000000000000000\n      dup2\n      mstore\n      0x04\n      add\n      tag_156\n      swap2\n      swap1\n      tag_105\n      jump\t// in\n    tag_156:\n      mload(0x40)\n      dup1\n      swap2\n      sub\n      swap1\n      revert\n        /* \"src/contracts/MiniLend.sol\":3360:3411  if (addr == address(0)) revert InvalidAddress(addr) */\n    tag_155:\n        /* \"src/contracts/MiniLend.sol\":9210:9216  amount */\n      dup2\n        /* \"src/contracts/MiniLend.sol\":3498:3499  0 */\n      0x00\n        /* \"src/contracts/MiniLend.sol\":3488:3494  amount */\n      dup2\n        /* \"src/contracts/MiniLend.sol\":3488:3499  amount == 0 */\n      sub\n        /* \"src/contracts/MiniLend.sol\":3484:3523  if (amount == 0) revert InvalidAmount() */\n      tag_158\n      jumpi\n        /* \"src/contracts/MiniLend.sol\":3508:3523  InvalidAmount() */\n      mload(0x40)\n      0x2c5211c600000000000000000000000000000000000000000000000000000000\n      dup2\n      mstore\n      0x04\n      add\n      mload(0x40)\n      dup1\n      swap2\n      sub\n      swap1\n      revert\n        /* \"src/contracts/MiniLend.sol\":3484:3523  if (amount == 0) revert InvalidAmount() */\n    tag_158:\n        /* \"src/contracts/MiniLend.sol\":9244:9249  token */\n      dup4\n        /* \"src/contracts/MiniLend.sol\":3235:3249  approvedTokens */\n      0x04\n        /* \"src/contracts/MiniLend.sol\":3235:3256  approvedTokens[token] */\n      0x00\n        /* \"src/contracts/MiniLend.sol\":3250:3255  token */\n      dup3\n        /* \"src/contracts/MiniLend.sol\":3235:3256  approvedTokens[token] */\n      0xffffffffffffffffffffffffffffffffffffffff\n      and\n      0xffffffffffffffffffffffffffffffffffffffff\n      and\n      dup2\n      mstore\n      0x20\n      add\n      swap1\n      dup2\n      mstore\n      0x20\n      add\n      0x00\n      keccak256\n      0x00\n      swap1\n      sload\n      swap1\n      0x0100\n      exp\n      swap1\n      div\n      0xff\n      and\n        /* \"src/contracts/MiniLend.sol\":3230:3288  if (!approvedTokens[token]) revert TokenNotApproved(token) */\n      tag_160\n      jumpi\n        /* \"src/contracts/MiniLend.sol\":3282:3287  token */\n      dup1\n        /* \"src/contracts/MiniLend.sol\":3265:3288  TokenNotApproved(token) */\n      mload(0x40)\n      0x87921f5a00000000000000000000000000000000000000000000000000000000\n      dup2\n      mstore\n      0x04\n      add\n      tag_161\n      swap2\n      swap1\n      tag_105\n      jump\t// in\n    tag_161:\n      mload(0x40)\n      dup1\n      swap2\n      sub\n      swap1\n      revert\n        /* \"src/contracts/MiniLend.sol\":3230:3288  if (!approvedTokens[token]) revert TokenNotApproved(token) */\n    tag_160:\n        /* \"src/contracts/MiniLend.sol\":9265:9282  User storage user */\n      0x00\n        /* \"src/contracts/MiniLend.sol\":9285:9302  _user(msg.sender) */\n      tag_163\n        /* \"src/contracts/MiniLend.sol\":9291:9301  msg.sender */\n      caller\n        /* \"src/contracts/MiniLend.sol\":9285:9290  _user */\n      tag_164\n        /* \"src/contracts/MiniLend.sol\":9285:9302  _user(msg.sender) */\n      jump\t// in\n    tag_163:\n        /* \"src/contracts/MiniLend.sol\":9265:9302  User storage user = _user(msg.sender) */\n      swap1\n      pop\n        /* \"src/contracts/MiniLend.sol\":9318:9344  _hasCollateral(msg.sender) */\n      tag_165\n        /* \"src/contracts/MiniLend.sol\":9333:9343  msg.sender */\n      caller\n        /* \"src/contracts/MiniLend.sol\":9318:9332  _hasCollateral */\n      tag_166\n        /* \"src/contracts/MiniLend.sol\":9318:9344  _hasCollateral(msg.sender) */\n      jump\t// in\n    tag_165:\n        /* \"src/contracts/MiniLend.sol\":9313:9375  if (!_hasCollateral(msg.sender)) revert NoCollateralProvided() */\n      tag_167\n      jumpi\n        /* \"src/contracts/MiniLend.sol\":9353:9375  NoCollateralProvided() */\n      mload(0x40)\n      0xb016be5e00000000000000000000000000000000000000000000000000000000\n      dup2\n      mstore\n      0x04\n      add\n      mload(0x40)\n      dup1\n      swap2\n      sub\n      swap1\n      revert\n        /* \"src/contracts/MiniLend.sol\":9313:9375  if (!_hasCollateral(msg.sender)) revert NoCollateralProvided() */\n    tag_167:\n        /* \"src/contracts/MiniLend.sol\":9457:9493  _borrowableAmount(msg.sender, token) */\n      tag_168\n        /* \"src/contracts/MiniLend.sol\":9475:9485  msg.sender */\n      caller\n        /* \"src/contracts/MiniLend.sol\":9487:9492  token */\n      dup8\n        /* \"src/contracts/MiniLend.sol\":9457:9474  _borrowableAmount */\n      tag_169\n        /* \"src/contracts/MiniLend.sol\":9457:9493  _borrowableAmount(msg.sender, token) */\n      jump\t// in\n    tag_168:\n      pop\n        /* \"src/contracts/MiniLend.sol\":9665:9671  amount */\n      dup5\n        /* \"src/contracts/MiniLend.sol\":9637:9641  user */\n      dup2\n        /* \"src/contracts/MiniLend.sol\":9637:9661  user.borrowedAssetAmount */\n      0x03\n      add\n      0x00\n        /* \"src/contracts/MiniLend.sol\":9637:9671  user.borrowedAssetAmount += amount */\n      dup3\n      dup3\n      sload\n      tag_170\n      swap2\n      swap1\n      tag_171\n      jump\t// in\n    tag_170:\n      swap3\n      pop\n      pop\n      dup2\n      swap1\n      sstore\n      pop\n        /* \"src/contracts/MiniLend.sol\":9702:9707  token */\n      dup6\n        /* \"src/contracts/MiniLend.sol\":9681:9685  user */\n      dup2\n        /* \"src/contracts/MiniLend.sol\":9681:9699  user.borrowedAsset */\n      0x02\n      add\n      0x00\n        /* \"src/contracts/MiniLend.sol\":9681:9707  user.borrowedAsset = token */\n      0x0100\n      exp\n      dup2\n      sload\n      dup2\n      0xffffffffffffffffffffffffffffffffffffffff\n      mul\n      not\n      and\n      swap1\n      dup4\n      0xffffffffffffffffffffffffffffffffffffffff\n      and\n      mul\n      or\n      swap1\n      sstore\n      pop\n        /* \"src/contracts/MiniLend.sol\":9744:9784  _poolTransfer(token, msg.sender, amount) */\n      tag_172\n        /* \"src/contracts/MiniLend.sol\":9758:9763  token */\n      dup7\n        /* \"src/contracts/MiniLend.sol\":9765:9775  msg.sender */\n      caller\n        /* \"src/contracts/MiniLend.sol\":9777:9783  amount */\n      dup8\n        /* \"src/contracts/MiniLend.sol\":9744:9757  _poolTransfer */\n      tag_173\n        /* \"src/contracts/MiniLend.sol\":9744:9784  _poolTransfer(token, msg.sender, amount) */\n      jump\t// in\n    tag_172:\n        /* \"src/contracts/MiniLend.sol\":9812:9822  msg.sender */\n      caller\n        /* \"src/contracts/MiniLend.sol\":9800:9831  USDBorrowed(msg.sender, amount) */\n      0xffffffffffffffffffffffffffffffffffffffff\n      and\n      0x5abc9a9c4616711eb03d720e050325118645a3695a5e75b5b10a29e2e217fe03\n        /* \"src/contracts/MiniLend.sol\":9824:9830  amount */\n      dup7\n        /* \"src/contracts/MiniLend.sol\":9800:9831  USDBorrowed(msg.sender, amount) */\n      mload(0x40)\n      tag_174\n      swap2\n      swap1\n      tag_51\n      jump\t// in\n    tag_174:\n      mload(0x40)\n      dup1\n      swap2\n      sub\n      swap1\n      log2\n        /* \"src/contracts/MiniLend.sol\":9255:9838  {... */\n      pop\n        /* \"src/contracts/MiniLend.sol\":3533:3534  _ */\n      pop\n        /* \"src/contracts/MiniLend.sol\":3421:3422  _ */\n      pop\n        /* \"@openzeppelin/contracts/security/ReentrancyGuard.sol\":2292:2293  _ */\n      pop\n        /* \"@openzeppelin/contracts/security/ReentrancyGuard.sol\":2303:2323  _nonReentrantAfter() */\n      tag_175\n        /* \"@openzeppelin/contracts/security/ReentrancyGuard.sol\":2303:2321  _nonReentrantAfter */\n      tag_176\n        /* \"@openzeppelin/contracts/security/ReentrancyGuard.sol\":2303:2323  _nonReentrantAfter() */\n      jump\t// in\n    tag_175:\n        /* \"src/contracts/MiniLend.sol\":9046:9838  function borrowAsset(... */\n      pop\n      pop\n      jump\t// out\n        /* \"src/contracts/MiniLend.sol\":4783:5491  function revokeTokenApproval(... */\n    tag_45:\n        /* \"@openzeppelin/contracts/access/Ownable.sol\":1531:1544  _checkOwner() */\n      tag_178\n        /* \"@openzeppelin/contracts/access/Ownable.sol\":1531:1542  _checkOwner */\n      tag_179\n        /* \"@openzeppelin/contracts/access/Ownable.sol\":1531:1544  _checkOwner() */\n      jump\t// in\n    tag_178:\n        /* \"src/contracts/MiniLend.sol\":4875:4880  token */\n      dup1\n        /* \"src/contracts/MiniLend.sol\":3380:3381  0 */\n      0x00\n        /* \"src/contracts/MiniLend.sol\":3364:3382  addr == address(0) */\n      0xffffffffffffffffffffffffffffffffffffffff\n      and\n        /* \"src/contracts/MiniLend.sol\":3364:3368  addr */\n      dup2\n        /* \"src/contracts/MiniLend.sol\":3364:3382  addr == address(0) */\n      0xffffffffffffffffffffffffffffffffffffffff\n      and\n      sub\n        /* \"src/contracts/MiniLend.sol\":3360:3411  if (addr == address(0)) revert InvalidAddress(addr) */\n      tag_181\n      jumpi\n        /* \"src/contracts/MiniLend.sol\":3406:3410  addr */\n      dup1\n        /* \"src/contracts/MiniLend.sol\":3391:3411  InvalidAddress(addr) */\n      mload(0x40)\n      0x8e4c8aa600000000000000000000000000000000000000000000000000000000\n      dup2\n      mstore\n      0x04\n      add\n      tag_182\n      swap2\n      swap1\n      tag_105\n      jump\t// in\n    tag_182:\n      mload(0x40)\n      dup1\n      swap2\n      sub\n      swap1\n      revert\n        /* \"src/contracts/MiniLend.sol\":3360:3411  if (addr == address(0)) revert InvalidAddress(addr) */\n    tag_181:\n        /* \"src/contracts/MiniLend.sol\":4897:4911  approvedTokens */\n      0x04\n        /* \"src/contracts/MiniLend.sol\":4897:4918  approvedTokens[token] */\n      0x00\n        /* \"src/contracts/MiniLend.sol\":4912:4917  token */\n      dup4\n        /* \"src/contracts/MiniLend.sol\":4897:4918  approvedTokens[token] */\n      0xffffffffffffffffffffffffffffffffffffffff\n      and\n      0xffffffffffffffffffffffffffffffffffffffff\n      and\n      dup2\n      mstore\n      0x20\n      add\n      swap1\n      dup2\n      mstore\n      0x20\n      add\n      0x00\n      keccak256\n      0x00\n      swap1\n      sload\n      swap1\n      0x0100\n      exp\n      swap1\n      div\n      0xff\n      and\n        /* \"src/contracts/MiniLend.sol\":4892:4950  if (!approvedTokens[token]) revert TokenNotApproved(token) */\n      tag_184\n      jumpi\n        /* \"src/contracts/MiniLend.sol\":4944:4949  token */\n      dup2\n        /* \"src/contracts/MiniLend.sol\":4927:4950  TokenNotApproved(token) */\n      mload(0x40)\n      0x87921f5a00000000000000000000000000000000000000000000000000000000\n      dup2\n      mstore\n      0x04\n      add\n      tag_185\n      swap2\n      swap1\n      tag_105\n      jump\t// in\n    tag_185:\n      mload(0x40)\n      dup1\n      swap2\n      sub\n      swap1\n      revert\n        /* \"src/contracts/MiniLend.sol\":4892:4950  if (!approvedTokens[token]) revert TokenNotApproved(token) */\n    tag_184:\n        /* \"src/contracts/MiniLend.sol\":4985:4990  false */\n      0x00\n        /* \"src/contracts/MiniLend.sol\":4961:4975  approvedTokens */\n      0x04\n        /* \"src/contracts/MiniLend.sol\":4961:4982  approvedTokens[token] */\n      0x00\n        /* \"src/contracts/MiniLend.sol\":4976:4981  token */\n      dup5\n        /* \"src/contracts/MiniLend.sol\":4961:4982  approvedTokens[token] */\n      0xffffffffffffffffffffffffffffffffffffffff\n      and\n      0xffffffffffffffffffffffffffffffffffffffff\n      and\n      dup2\n      mstore\n      0x20\n      add\n      swap1\n      dup2\n      mstore\n      0x20\n      add\n      0x00\n      keccak256\n      0x00\n        /* \"src/contracts/MiniLend.sol\":4961:4990  approvedTokens[token] = false */\n      0x0100\n      exp\n      dup2\n      sload\n      dup2\n      0xff\n      mul\n      not\n      and\n      swap1\n      dup4\n      iszero\n      iszero\n      mul\n      or\n      swap1\n      sstore\n      pop\n        /* \"src/contracts/MiniLend.sol\":5042:5055  uint256 index */\n      0x00\n        /* \"src/contracts/MiniLend.sol\":5058:5068  tokenIndex */\n      0x05\n        /* \"src/contracts/MiniLend.sol\":5058:5075  tokenIndex[token] */\n      0x00\n        /* \"src/contracts/MiniLend.sol\":5069:5074  token */\n      dup5\n        /* \"src/contracts/MiniLend.sol\":5058:5075  tokenIndex[token] */\n      0xffffffffffffffffffffffffffffffffffffffff\n      and\n      0xffffffffffffffffffffffffffffffffffffffff\n      and\n      dup2\n      mstore\n      0x20\n      add\n      swap1\n      dup2\n      mstore\n      0x20\n      add\n      0x00\n      keccak256\n      sload\n        /* \"src/contracts/MiniLend.sol\":5042:5075  uint256 index = tokenIndex[token] */\n      swap1\n      pop\n        /* \"src/contracts/MiniLend.sol\":5085:5102  uint256 lastIndex */\n      0x00\n        /* \"src/contracts/MiniLend.sol\":5132:5133  1 */\n      0x01\n        /* \"src/contracts/MiniLend.sol\":5105:5122  approvedTokenList */\n      0x06\n        /* \"src/contracts/MiniLend.sol\":5105:5129  approvedTokenList.length */\n      dup1\n      sload\n      swap1\n      pop\n        /* \"src/contracts/MiniLend.sol\":5105:5133  approvedTokenList.length - 1 */\n      tag_186\n      swap2\n      swap1\n      tag_187\n      jump\t// in\n    tag_186:\n        /* \"src/contracts/MiniLend.sol\":5085:5133  uint256 lastIndex = approvedTokenList.length - 1 */\n      swap1\n      pop\n        /* \"src/contracts/MiniLend.sol\":5143:5160  address lastToken */\n      0x00\n        /* \"src/contracts/MiniLend.sol\":5163:5180  approvedTokenList */\n      0x06\n        /* \"src/contracts/MiniLend.sol\":5181:5190  lastIndex */\n      dup3\n        /* \"src/contracts/MiniLend.sol\":5163:5191  approvedTokenList[lastIndex] */\n      dup2\n      sload\n      dup2\n      lt\n      tag_188\n      jumpi\n      tag_189\n      tag_190\n      jump\t// in\n    tag_189:\n    tag_188:\n      swap1\n      0x00\n      mstore\n      keccak256(0x00, 0x20)\n      add\n      0x00\n      swap1\n      sload\n      swap1\n      0x0100\n      exp\n      swap1\n      div\n      0xffffffffffffffffffffffffffffffffffffffff\n      and\n        /* \"src/contracts/MiniLend.sol\":5143:5191  address lastToken = approvedTokenList[lastIndex] */\n      swap1\n      pop\n        /* \"src/contracts/MiniLend.sol\":5215:5224  lastIndex */\n      dup2\n        /* \"src/contracts/MiniLend.sol\":5206:5211  index */\n      dup4\n        /* \"src/contracts/MiniLend.sol\":5206:5224  index != lastIndex */\n      eq\n        /* \"src/contracts/MiniLend.sol\":5202:5383  if (index != lastIndex) {... */\n      tag_192\n      jumpi\n        /* \"src/contracts/MiniLend.sol\":5320:5329  lastToken */\n      dup1\n        /* \"src/contracts/MiniLend.sol\":5293:5310  approvedTokenList */\n      0x06\n        /* \"src/contracts/MiniLend.sol\":5311:5316  index */\n      dup5\n        /* \"src/contracts/MiniLend.sol\":5293:5317  approvedTokenList[index] */\n      dup2\n      sload\n      dup2\n      lt\n      tag_193\n      jumpi\n      tag_194\n      tag_190\n      jump\t// in\n    tag_194:\n    tag_193:\n      swap1\n      0x00\n      mstore\n      keccak256(0x00, 0x20)\n      add\n      0x00\n        /* \"src/contracts/MiniLend.sol\":5293:5329  approvedTokenList[index] = lastToken */\n      0x0100\n      exp\n      dup2\n      sload\n      dup2\n      0xffffffffffffffffffffffffffffffffffffffff\n      mul\n      not\n      and\n      swap1\n      dup4\n      0xffffffffffffffffffffffffffffffffffffffff\n      and\n      mul\n      or\n      swap1\n      sstore\n      pop\n        /* \"src/contracts/MiniLend.sol\":5367:5372  index */\n      dup3\n        /* \"src/contracts/MiniLend.sol\":5343:5353  tokenIndex */\n      0x05\n        /* \"src/contracts/MiniLend.sol\":5343:5364  tokenIndex[lastToken] */\n      0x00\n        /* \"src/contracts/MiniLend.sol\":5354:5363  lastToken */\n      dup4\n        /* \"src/contracts/MiniLend.sol\":5343:5364  tokenIndex[lastToken] */\n      0xffffffffffffffffffffffffffffffffffffffff\n      and\n      0xffffffffffffffffffffffffffffffffffffffff\n      and\n      dup2\n      mstore\n      0x20\n      add\n      swap1\n      dup2\n      mstore\n      0x20\n      add\n      0x00\n      keccak256\n        /* \"src/contracts/MiniLend.sol\":5343:5372  tokenIndex[lastToken] = index */\n      dup2\n      swap1\n      sstore\n      pop\n        /* \"src/contracts/MiniLend.sol\":5202:5383  if (index != lastIndex) {... */\n    tag_192:\n        /* \"src/contracts/MiniLend.sol\":5393:5410  approvedTokenList */\n      0x06\n        /* \"src/contracts/MiniLend.sol\":5393:5416  approvedTokenList.pop() */\n      dup1\n      sload\n      dup1\n      tag_196\n      jumpi\n      tag_197\n      tag_198\n      jump\t// in\n    tag_197:\n    tag_196:\n      0x01\n      swap1\n      sub\n      dup2\n      dup2\n      swap1\n      0x00\n      mstore\n      keccak256(0x00, 0x20)\n      add\n      exp(0x0100, 0x00)\n      dup2\n      sload\n      swap1\n      0xffffffffffffffffffffffffffffffffffffffff\n      mul\n      not\n      and\n      swap1\n      sstore\n      swap1\n      sstore\n        /* \"src/contracts/MiniLend.sol\":5433:5443  tokenIndex */\n      0x05\n        /* \"src/contracts/MiniLend.sol\":5433:5450  tokenIndex[token] */\n      0x00\n        /* \"src/contracts/MiniLend.sol\":5444:5449  token */\n      dup7\n        /* \"src/contracts/MiniLend.sol\":5433:5450  tokenIndex[token] */\n      0xffffffffffffffffffffffffffffffffffffffff\n      and\n      0xffffffffffffffffffffffffffffffffffffffff\n      and\n      dup2\n      mstore\n      0x20\n      add\n      swap1\n      dup2\n      mstore\n      0x20\n      add\n      0x00\n      keccak256\n        /* \"src/contracts/MiniLend.sol\":5426:5450  delete tokenIndex[token] */\n      0x00\n      swap1\n      sstore\n        /* \"src/contracts/MiniLend.sol\":5478:5483  token */\n      dup5\n        /* \"src/contracts/MiniLend.sol\":5465:5484  TokenRevoked(token) */\n      0xffffffffffffffffffffffffffffffffffffffff\n      and\n      0x45f62f30e7b8439e0da7d8e560fe39d01238091ce9e789e3d12b514edf98acea\n      mload(0x40)\n      mload(0x40)\n      dup1\n      swap2\n      sub\n      swap1\n      log2\n        /* \"src/contracts/MiniLend.sol\":4882:5491  {... */\n      pop\n      pop\n      pop\n        /* \"@openzeppelin/contracts/access/Ownable.sol\":1554:1555  _ */\n      pop\n        /* \"src/contracts/MiniLend.sol\":4783:5491  function revokeTokenApproval(... */\n      pop\n      jump\t// out\n        /* \"src/contracts/MiniLend.sol\":5753:6736  function getLatestPrice(... */\n    tag_49:\n        /* \"src/contracts/MiniLend.sol\":5849:5856  uint256 */\n      0x00\n        /* \"src/contracts/MiniLend.sol\":5833:5838  token */\n      dup2\n        /* \"src/contracts/MiniLend.sol\":3380:3381  0 */\n      0x00\n        /* \"src/contracts/MiniLend.sol\":3364:3382  addr == address(0) */\n      0xffffffffffffffffffffffffffffffffffffffff\n      and\n        /* \"src/contracts/MiniLend.sol\":3364:3368  addr */\n      dup2\n        /* \"src/contracts/MiniLend.sol\":3364:3382  addr == address(0) */\n      0xffffffffffffffffffffffffffffffffffffffff\n      and\n      sub\n        /* \"src/contracts/MiniLend.sol\":3360:3411  if (addr == address(0)) revert InvalidAddress(addr) */\n      tag_201\n      jumpi\n        /* \"src/contracts/MiniLend.sol\":3406:3410  addr */\n      dup1\n        /* \"src/contracts/MiniLend.sol\":3391:3411  InvalidAddress(addr) */\n      mload(0x40)\n      0x8e4c8aa600000000000000000000000000000000000000000000000000000000\n      dup2\n      mstore\n      0x04\n      add\n      tag_202\n      swap2\n      swap1\n      tag_105\n      jump\t// in\n    tag_202:\n      mload(0x40)\n      dup1\n      swap2\n      sub\n      swap1\n      revert\n        /* \"src/contracts/MiniLend.sol\":3360:3411  if (addr == address(0)) revert InvalidAddress(addr) */\n    tag_201:\n        /* \"src/contracts/MiniLend.sol\":5868:5887  address feedAddress */\n      0x00\n        /* \"src/contracts/MiniLend.sol\":5890:5900  priceFeeds */\n      0x03\n        /* \"src/contracts/MiniLend.sol\":5890:5907  priceFeeds[token] */\n      0x00\n        /* \"src/contracts/MiniLend.sol\":5901:5906  token */\n      dup6\n        /* \"src/contracts/MiniLend.sol\":5890:5907  priceFeeds[token] */\n      0xffffffffffffffffffffffffffffffffffffffff\n      and\n      0xffffffffffffffffffffffffffffffffffffffff\n      and\n      dup2\n      mstore\n      0x20\n      add\n      swap1\n      dup2\n      mstore\n      0x20\n      add\n      0x00\n      keccak256\n      0x00\n      swap1\n      sload\n      swap1\n      0x0100\n      exp\n      swap1\n      div\n      0xffffffffffffffffffffffffffffffffffffffff\n      and\n        /* \"src/contracts/MiniLend.sol\":5868:5907  address feedAddress = priceFeeds[token] */\n      swap1\n      pop\n        /* \"src/contracts/MiniLend.sol\":5944:5945  0 */\n      0x00\n        /* \"src/contracts/MiniLend.sol\":5921:5946  feedAddress == address(0) */\n      0xffffffffffffffffffffffffffffffffffffffff\n      and\n        /* \"src/contracts/MiniLend.sol\":5921:5932  feedAddress */\n      dup2\n        /* \"src/contracts/MiniLend.sol\":5921:5946  feedAddress == address(0) */\n      0xffffffffffffffffffffffffffffffffffffffff\n      and\n      sub\n        /* \"src/contracts/MiniLend.sol\":5917:5982  if (feedAddress == address(0)) revert InvalidAddress(feedAddress) */\n      tag_204\n      jumpi\n        /* \"src/contracts/MiniLend.sol\":5970:5981  feedAddress */\n      dup1\n        /* \"src/contracts/MiniLend.sol\":5955:5982  InvalidAddress(feedAddress) */\n      mload(0x40)\n      0x8e4c8aa600000000000000000000000000000000000000000000000000000000\n      dup2\n      mstore\n      0x04\n      add\n      tag_205\n      swap2\n      swap1\n      tag_105\n      jump\t// in\n    tag_205:\n      mload(0x40)\n      dup1\n      swap2\n      sub\n      swap1\n      revert\n        /* \"src/contracts/MiniLend.sol\":5917:5982  if (feedAddress == address(0)) revert InvalidAddress(feedAddress) */\n    tag_204:\n        /* \"src/contracts/MiniLend.sol\":5993:6024  AggregatorV3Interface priceFeed */\n      0x00\n        /* \"src/contracts/MiniLend.sol\":6049:6060  feedAddress */\n      dup2\n        /* \"src/contracts/MiniLend.sol\":5993:6061  AggregatorV3Interface priceFeed = AggregatorV3Interface(feedAddress) */\n      swap1\n      pop\n        /* \"src/contracts/MiniLend.sol\":6085:6099  uint80 roundId */\n      0x00\n        /* \"src/contracts/MiniLend.sol\":6113:6125  int256 price */\n      0x00\n        /* \"src/contracts/MiniLend.sol\":6153:6170  uint256 updatedAt */\n      0x00\n        /* \"src/contracts/MiniLend.sol\":6184:6206  uint80 answeredInRound */\n      0x00\n        /* \"src/contracts/MiniLend.sol\":6219:6228  priceFeed */\n      dup5\n        /* \"src/contracts/MiniLend.sol\":6219:6244  priceFeed.latestRoundData */\n      0xffffffffffffffffffffffffffffffffffffffff\n      and\n      0xfeaf968c\n        /* \"src/contracts/MiniLend.sol\":6219:6246  priceFeed.latestRoundData() */\n      mload(0x40)\n      dup2\n      0xffffffff\n      and\n      0xe0\n      shl\n      dup2\n      mstore\n      0x04\n      add\n      0xa0\n      mload(0x40)\n      dup1\n      dup4\n      sub\n      dup2\n      dup7\n      gas\n      staticcall\n      iszero\n      dup1\n      iszero\n      tag_207\n      jumpi\n      returndatacopy(0x00, 0x00, returndatasize)\n      revert(0x00, returndatasize)\n    tag_207:\n      pop\n      pop\n      pop\n      pop\n      mload(0x40)\n      returndatasize\n      not(0x1f)\n      0x1f\n      dup3\n      add\n      and\n      dup3\n      add\n      dup1\n      0x40\n      mstore\n      pop\n      dup2\n      add\n      swap1\n      tag_208\n      swap2\n      swap1\n      tag_209\n      jump\t// in\n    tag_208:\n        /* \"src/contracts/MiniLend.sol\":6071:6246  (... */\n      swap5\n      pop\n      swap5\n      pop\n      pop\n      swap4\n      pop\n      swap4\n      pop\n        /* \"src/contracts/MiniLend.sol\":6297:6298  0 */\n      0x00\n        /* \"src/contracts/MiniLend.sol\":6288:6293  price */\n      dup4\n        /* \"src/contracts/MiniLend.sol\":6288:6298  price <= 0 */\n      sgt\n        /* \"src/contracts/MiniLend.sol\":6284:6330  if (price <= 0) revert InvalidPriceData(price) */\n      tag_210\n      jumpi\n        /* \"src/contracts/MiniLend.sol\":6324:6329  price */\n      dup3\n        /* \"src/contracts/MiniLend.sol\":6307:6330  InvalidPriceData(price) */\n      mload(0x40)\n      0xb4e8ae1100000000000000000000000000000000000000000000000000000000\n      dup2\n      mstore\n      0x04\n      add\n      tag_211\n      swap2\n      swap1\n      tag_212\n      jump\t// in\n    tag_211:\n      mload(0x40)\n      dup1\n      swap2\n      sub\n      swap1\n      revert\n        /* \"src/contracts/MiniLend.sol\":6284:6330  if (price <= 0) revert InvalidPriceData(price) */\n    tag_210:\n        /* \"src/contracts/MiniLend.sol\":6362:6369  roundId */\n      dup4\n        /* \"src/contracts/MiniLend.sol\":6344:6369  answeredInRound < roundId */\n      0xffffffffffffffffffff\n      and\n        /* \"src/contracts/MiniLend.sol\":6344:6359  answeredInRound */\n      dup2\n        /* \"src/contracts/MiniLend.sol\":6344:6369  answeredInRound < roundId */\n      0xffffffffffffffffffff\n      and\n      lt\n        /* \"src/contracts/MiniLend.sol\":6340:6400  if (answeredInRound < roundId) revert FeedDataNotFinalized() */\n      iszero\n      tag_213\n      jumpi\n        /* \"src/contracts/MiniLend.sol\":6378:6400  FeedDataNotFinalized() */\n      mload(0x40)\n      0xeb8eec2e00000000000000000000000000000000000000000000000000000000\n      dup2\n      mstore\n      0x04\n      add\n      mload(0x40)\n      dup1\n      swap2\n      sub\n      swap1\n      revert\n        /* \"src/contracts/MiniLend.sol\":6340:6400  if (answeredInRound < roundId) revert FeedDataNotFinalized() */\n    tag_213:\n        /* \"src/contracts/MiniLend.sol\":6441:6442  0 */\n      0x00\n        /* \"src/contracts/MiniLend.sol\":6428:6437  updatedAt */\n      dup3\n        /* \"src/contracts/MiniLend.sol\":6428:6442  updatedAt == 0 */\n      eq\n        /* \"src/contracts/MiniLend.sol\":6428:6495  updatedAt == 0 || (block.timestamp - uint256(updatedAt)) >= 1 hours */\n      dup1\n      tag_214\n      jumpi\n      pop\n        /* \"src/contracts/MiniLend.sol\":6488:6495  1 hours */\n      0x0e10\n        /* \"src/contracts/MiniLend.sol\":6473:6482  updatedAt */\n      dup3\n        /* \"src/contracts/MiniLend.sol\":6447:6462  block.timestamp */\n      timestamp\n        /* \"src/contracts/MiniLend.sol\":6447:6483  block.timestamp - uint256(updatedAt) */\n      tag_215\n      swap2\n      swap1\n      tag_187\n      jump\t// in\n    tag_215:\n        /* \"src/contracts/MiniLend.sol\":6446:6495  (block.timestamp - uint256(updatedAt)) >= 1 hours */\n      lt\n      iszero\n        /* \"src/contracts/MiniLend.sol\":6428:6495  updatedAt == 0 || (block.timestamp - uint256(updatedAt)) >= 1 hours */\n    tag_214:\n        /* \"src/contracts/MiniLend.sol\":6411:6572  if (... */\n      iszero\n      tag_216\n      jumpi\n        /* \"src/contracts/MiniLend.sol\":6550:6559  updatedAt */\n      dup2\n        /* \"src/contracts/MiniLend.sol\":6527:6561  StalePriceData(uint256(updatedAt)) */\n      mload(0x40)\n      0x3b90dd8b00000000000000000000000000000000000000000000000000000000\n      dup2\n      mstore\n      0x04\n      add\n      tag_217\n      swap2\n      swap1\n      tag_51\n      jump\t// in\n    tag_217:\n      mload(0x40)\n      dup1\n      swap2\n      sub\n      swap1\n      revert\n        /* \"src/contracts/MiniLend.sol\":6411:6572  if (... */\n    tag_216:\n        /* \"src/contracts/MiniLend.sol\":6582:6598  uint256 decimals */\n      0x00\n        /* \"src/contracts/MiniLend.sol\":6601:6610  priceFeed */\n      dup6\n        /* \"src/contracts/MiniLend.sol\":6601:6619  priceFeed.decimals */\n      0xffffffffffffffffffffffffffffffffffffffff\n      and\n      0x313ce567\n        /* \"src/contracts/MiniLend.sol\":6601:6621  priceFeed.decimals() */\n      mload(0x40)\n      dup2\n      0xffffffff\n      and\n      0xe0\n      shl\n      dup2\n      mstore\n      0x04\n      add\n      0x20\n      mload(0x40)\n      dup1\n      dup4\n      sub\n      dup2\n      dup7\n      gas\n      staticcall\n      iszero\n      dup1\n      iszero\n      tag_219\n      jumpi\n      returndatacopy(0x00, 0x00, returndatasize)\n      revert(0x00, returndatasize)\n    tag_219:\n      pop\n      pop\n      pop\n      pop\n      mload(0x40)\n      returndatasize\n      not(0x1f)\n      0x1f\n      dup3\n      add\n      and\n      dup3\n      add\n      dup1\n      0x40\n      mstore\n      pop\n      dup2\n      add\n      swap1\n      tag_220\n      swap2\n      swap1\n      tag_221\n      jump\t// in\n    tag_220:\n        /* \"src/contracts/MiniLend.sol\":6582:6621  uint256 decimals = priceFeed.decimals() */\n      0xff\n      and\n      swap1\n      pop\n        /* \"src/contracts/MiniLend.sol\":6646:6648  18 */\n      0x12\n        /* \"src/contracts/MiniLend.sol\":6635:6643  decimals */\n      dup2\n        /* \"src/contracts/MiniLend.sol\":6635:6648  decimals > 18 */\n      gt\n        /* \"src/contracts/MiniLend.sol\":6631:6674  if (decimals > 18) revert InvalidDecimals() */\n      iszero\n      tag_222\n      jumpi\n        /* \"src/contracts/MiniLend.sol\":6657:6674  InvalidDecimals() */\n      mload(0x40)\n      0xd25598a000000000000000000000000000000000000000000000000000000000\n      dup2\n      mstore\n      0x04\n      add\n      mload(0x40)\n      dup1\n      swap2\n      sub\n      swap1\n      revert\n        /* \"src/contracts/MiniLend.sol\":6631:6674  if (decimals > 18) revert InvalidDecimals() */\n    tag_222:\n        /* \"src/contracts/MiniLend.sol\":6720:6728  decimals */\n      dup1\n        /* \"src/contracts/MiniLend.sol\":6715:6717  18 */\n      0x12\n        /* \"src/contracts/MiniLend.sol\":6715:6728  18 - decimals */\n      tag_223\n      swap2\n      swap1\n      tag_187\n      jump\t// in\n    tag_223:\n        /* \"src/contracts/MiniLend.sol\":6708:6710  10 */\n      0x0a\n        /* \"src/contracts/MiniLend.sol\":6708:6729  10 ** (18 - decimals) */\n      tag_224\n      swap2\n      swap1\n      tag_225\n      jump\t// in\n    tag_224:\n        /* \"src/contracts/MiniLend.sol\":6699:6704  price */\n      dup5\n        /* \"src/contracts/MiniLend.sol\":6691:6729  uint256(price) * 10 ** (18 - decimals) */\n      tag_226\n      swap2\n      swap1\n      tag_227\n      jump\t// in\n    tag_226:\n        /* \"src/contracts/MiniLend.sol\":6684:6729  return uint256(price) * 10 ** (18 - decimals) */\n      swap9\n      pop\n      pop\n      pop\n      pop\n      pop\n      pop\n      pop\n      pop\n        /* \"src/contracts/MiniLend.sol\":5753:6736  function getLatestPrice(... */\n      pop\n      swap2\n      swap1\n      pop\n      jump\t// out\n        /* \"src/contracts/MiniLend.sol\":4189:4430  function setLiquidationBonus(... */\n    tag_56:\n        /* \"@openzeppelin/contracts/access/Ownable.sol\":1531:1544  _checkOwner() */\n      tag_229\n        /* \"@openzeppelin/contracts/access/Ownable.sol\":1531:1542  _checkOwner */\n      tag_179\n        /* \"@openzeppelin/contracts/access/Ownable.sol\":1531:1544  _checkOwner() */\n      jump\t// in\n    tag_229:\n        /* \"src/contracts/MiniLend.sol\":4281:4287  _bonus */\n      dup1\n        /* \"src/contracts/MiniLend.sol\":3498:3499  0 */\n      0x00\n        /* \"src/contracts/MiniLend.sol\":3488:3494  amount */\n      dup2\n        /* \"src/contracts/MiniLend.sol\":3488:3499  amount == 0 */\n      sub\n        /* \"src/contracts/MiniLend.sol\":3484:3523  if (amount == 0) revert InvalidAmount() */\n      tag_231\n      jumpi\n        /* \"src/contracts/MiniLend.sol\":3508:3523  InvalidAmount() */\n      mload(0x40)\n      0x2c5211c600000000000000000000000000000000000000000000000000000000\n      dup2\n      mstore\n      0x04\n      add\n      mload(0x40)\n      dup1\n      swap2\n      sub\n      swap1\n      revert\n        /* \"src/contracts/MiniLend.sol\":3484:3523  if (amount == 0) revert InvalidAmount() */\n    tag_231:\n        /* \"src/contracts/MiniLend.sol\":3034:3039  10000 */\n      0x2710\n        /* \"src/contracts/MiniLend.sol\":4303:4309  _bonus */\n      dup3\n        /* \"src/contracts/MiniLend.sol\":4303:4327  _bonus > PCT_DENOMINATOR */\n      gt\n        /* \"src/contracts/MiniLend.sol\":4299:4352  if (_bonus > PCT_DENOMINATOR) revert BadBonus(_bonus) */\n      iszero\n      tag_233\n      jumpi\n        /* \"src/contracts/MiniLend.sol\":4345:4351  _bonus */\n      dup2\n        /* \"src/contracts/MiniLend.sol\":4336:4352  BadBonus(_bonus) */\n      mload(0x40)\n      0x45c57aac00000000000000000000000000000000000000000000000000000000\n      dup2\n      mstore\n      0x04\n      add\n      tag_234\n      swap2\n      swap1\n      tag_51\n      jump\t// in\n    tag_234:\n      mload(0x40)\n      dup1\n      swap2\n      sub\n      swap1\n      revert\n        /* \"src/contracts/MiniLend.sol\":4299:4352  if (_bonus > PCT_DENOMINATOR) revert BadBonus(_bonus) */\n    tag_233:\n        /* \"src/contracts/MiniLend.sol\":4382:4388  _bonus */\n      dup2\n        /* \"src/contracts/MiniLend.sol\":4362:4379  LIQUIDATION_BONUS */\n      0x09\n        /* \"src/contracts/MiniLend.sol\":4362:4388  LIQUIDATION_BONUS = _bonus */\n      dup2\n      swap1\n      sstore\n      pop\n        /* \"src/contracts/MiniLend.sol\":4403:4423  BonusUpdated(_bonus) */\n      0x04a7ca0e55f887a637b560614f621b92b79423e20152fea70bc4be66edaee3d6\n        /* \"src/contracts/MiniLend.sol\":4416:4422  _bonus */\n      dup3\n        /* \"src/contracts/MiniLend.sol\":4403:4423  BonusUpdated(_bonus) */\n      mload(0x40)\n      tag_235\n      swap2\n      swap1\n      tag_51\n      jump\t// in\n    tag_235:\n      mload(0x40)\n      dup1\n      swap2\n      sub\n      swap1\n      log1\n        /* \"@openzeppelin/contracts/access/Ownable.sol\":1554:1555  _ */\n      pop\n        /* \"src/contracts/MiniLend.sol\":4189:4430  function setLiquidationBonus(... */\n      pop\n      jump\t// out\n        /* \"src/contracts/MiniLend.sol\":7365:7570  function getContractsTokenBalance(... */\n    tag_60:\n        /* \"src/contracts/MiniLend.sol\":7473:7480  uint256 */\n      0x00\n        /* \"src/contracts/MiniLend.sol\":7457:7462  token */\n      dup2\n        /* \"src/contracts/MiniLend.sol\":3380:3381  0 */\n      0x00\n        /* \"src/contracts/MiniLend.sol\":3364:3382  addr == address(0) */\n      0xffffffffffffffffffffffffffffffffffffffff\n      and\n        /* \"src/contracts/MiniLend.sol\":3364:3368  addr */\n      dup2\n        /* \"src/contracts/MiniLend.sol\":3364:3382  addr == address(0) */\n      0xffffffffffffffffffffffffffffffffffffffff\n      and\n      sub\n        /* \"src/contracts/MiniLend.sol\":3360:3411  if (addr == address(0)) revert InvalidAddress(addr) */\n      tag_237\n      jumpi\n        /* \"src/contracts/MiniLend.sol\":3406:3410  addr */\n      dup1\n        /* \"src/contracts/MiniLend.sol\":3391:3411  InvalidAddress(addr) */\n      mload(0x40)\n      0x8e4c8aa600000000000000000000000000000000000000000000000000000000\n      dup2\n      mstore\n      0x04\n      add\n      tag_238\n      swap2\n      swap1\n      tag_105\n      jump\t// in\n    tag_238:\n      mload(0x40)\n      dup1\n      swap2\n      sub\n      swap1\n      revert\n        /* \"src/contracts/MiniLend.sol\":3360:3411  if (addr == address(0)) revert InvalidAddress(addr) */\n    tag_237:\n        /* \"src/contracts/MiniLend.sol\":7492:7502  IERC20 erc */\n      0x00\n        /* \"src/contracts/MiniLend.sol\":7512:7517  token */\n      dup4\n        /* \"src/contracts/MiniLend.sol\":7492:7518  IERC20 erc = IERC20(token) */\n      swap1\n      pop\n        /* \"src/contracts/MiniLend.sol\":7535:7538  erc */\n      dup1\n        /* \"src/contracts/MiniLend.sol\":7535:7548  erc.balanceOf */\n      0xffffffffffffffffffffffffffffffffffffffff\n      and\n      0x70a08231\n        /* \"src/contracts/MiniLend.sol\":7557:7561  this */\n      address\n        /* \"src/contracts/MiniLend.sol\":7535:7563  erc.balanceOf(address(this)) */\n      mload(0x40)\n      dup3\n      0xffffffff\n      and\n      0xe0\n      shl\n      dup2\n      mstore\n      0x04\n      add\n      tag_240\n      swap2\n      swap1\n      tag_105\n      jump\t// in\n    tag_240:\n      0x20\n      mload(0x40)\n      dup1\n      dup4\n      sub\n      dup2\n      dup7\n      gas\n      staticcall\n      iszero\n      dup1\n      iszero\n      tag_242\n      jumpi\n      returndatacopy(0x00, 0x00, returndatasize)\n      revert(0x00, returndatasize)\n    tag_242:\n      pop\n      pop\n      pop\n      pop\n      mload(0x40)\n      returndatasize\n      not(0x1f)\n      0x1f\n      dup3\n      add\n      and\n      dup3\n      add\n      dup1\n      0x40\n      mstore\n      pop\n      dup2\n      add\n      swap1\n      tag_243\n      swap2\n      swap1\n      tag_244\n      jump\t// in\n    tag_243:\n        /* \"src/contracts/MiniLend.sol\":7528:7563  return erc.balanceOf(address(this)) */\n      swap3\n      pop\n      pop\n        /* \"src/contracts/MiniLend.sol\":7365:7570  function getContractsTokenBalance(... */\n      pop\n      swap2\n      swap1\n      pop\n      jump\t// out\n        /* \"src/contracts/MiniLend.sol\":3721:3936  function setFeed(... */\n    tag_66:\n        /* \"@openzeppelin/contracts/access/Ownable.sol\":1531:1544  _checkOwner() */\n      tag_246\n        /* \"@openzeppelin/contracts/access/Ownable.sol\":1531:1542  _checkOwner */\n      tag_179\n        /* \"@openzeppelin/contracts/access/Ownable.sol\":1531:1544  _checkOwner() */\n      jump\t// in\n    tag_246:\n        /* \"src/contracts/MiniLend.sol\":3823:3828  token */\n      dup2\n        /* \"src/contracts/MiniLend.sol\":3380:3381  0 */\n      0x00\n        /* \"src/contracts/MiniLend.sol\":3364:3382  addr == address(0) */\n      0xffffffffffffffffffffffffffffffffffffffff\n      and\n        /* \"src/contracts/MiniLend.sol\":3364:3368  addr */\n      dup2\n        /* \"src/contracts/MiniLend.sol\":3364:3382  addr == address(0) */\n      0xffffffffffffffffffffffffffffffffffffffff\n      and\n      sub\n        /* \"src/contracts/MiniLend.sol\":3360:3411  if (addr == address(0)) revert InvalidAddress(addr) */\n      tag_248\n      jumpi\n        /* \"src/contracts/MiniLend.sol\":3406:3410  addr */\n      dup1\n        /* \"src/contracts/MiniLend.sol\":3391:3411  InvalidAddress(addr) */\n      mload(0x40)\n      0x8e4c8aa600000000000000000000000000000000000000000000000000000000\n      dup2\n      mstore\n      0x04\n      add\n      tag_249\n      swap2\n      swap1\n      tag_105\n      jump\t// in\n    tag_249:\n      mload(0x40)\n      dup1\n      swap2\n      sub\n      swap1\n      revert\n        /* \"src/contracts/MiniLend.sol\":3360:3411  if (addr == address(0)) revert InvalidAddress(addr) */\n    tag_248:\n        /* \"src/contracts/MiniLend.sol\":3845:3849  feed */\n      dup2\n        /* \"src/contracts/MiniLend.sol\":3380:3381  0 */\n      0x00\n        /* \"src/contracts/MiniLend.sol\":3364:3382  addr == address(0) */\n      0xffffffffffffffffffffffffffffffffffffffff\n      and\n        /* \"src/contracts/MiniLend.sol\":3364:3368  addr */\n      dup2\n        /* \"src/contracts/MiniLend.sol\":3364:3382  addr == address(0) */\n      0xffffffffffffffffffffffffffffffffffffffff\n      and\n      sub\n        /* \"src/contracts/MiniLend.sol\":3360:3411  if (addr == address(0)) revert InvalidAddress(addr) */\n      tag_251\n      jumpi\n        /* \"src/contracts/MiniLend.sol\":3406:3410  addr */\n      dup1\n        /* \"src/contracts/MiniLend.sol\":3391:3411  InvalidAddress(addr) */\n      mload(0x40)\n      0x8e4c8aa600000000000000000000000000000000000000000000000000000000\n      dup2\n      mstore\n      0x04\n      add\n      tag_252\n      swap2\n      swap1\n      tag_105\n      jump\t// in\n    tag_252:\n      mload(0x40)\n      dup1\n      swap2\n      sub\n      swap1\n      revert\n        /* \"src/contracts/MiniLend.sol\":3360:3411  if (addr == address(0)) revert InvalidAddress(addr) */\n    tag_251:\n        /* \"src/contracts/MiniLend.sol\":3881:3885  feed */\n      dup3\n        /* \"src/contracts/MiniLend.sol\":3861:3871  priceFeeds */\n      0x03\n        /* \"src/contracts/MiniLend.sol\":3861:3878  priceFeeds[token] */\n      0x00\n        /* \"src/contracts/MiniLend.sol\":3872:3877  token */\n      dup7\n        /* \"src/contracts/MiniLend.sol\":3861:3878  priceFeeds[token] */\n      0xffffffffffffffffffffffffffffffffffffffff\n      and\n      0xffffffffffffffffffffffffffffffffffffffff\n      and\n      dup2\n      mstore\n      0x20\n      add\n      swap1\n      dup2\n      mstore\n      0x20\n      add\n      0x00\n      keccak256\n      0x00\n        /* \"src/contracts/MiniLend.sol\":3861:3885  priceFeeds[token] = feed */\n      0x0100\n      exp\n      dup2\n      sload\n      dup2\n      0xffffffffffffffffffffffffffffffffffffffff\n      mul\n      not\n      and\n      swap1\n      dup4\n      0xffffffffffffffffffffffffffffffffffffffff\n      and\n      mul\n      or\n      swap1\n      sstore\n      pop\n        /* \"src/contracts/MiniLend.sol\":3924:3928  feed */\n      dup3\n        /* \"src/contracts/MiniLend.sol\":3900:3929  PriceFeedUpdated(token, feed) */\n      0xffffffffffffffffffffffffffffffffffffffff\n      and\n        /* \"src/contracts/MiniLend.sol\":3917:3922  token */\n      dup5\n        /* \"src/contracts/MiniLend.sol\":3900:3929  PriceFeedUpdated(token, feed) */\n      0xffffffffffffffffffffffffffffffffffffffff\n      and\n      0xa8abe0398416476db5b05737cd4da3b3cbde5012d978a6a6c3fd49d321753536\n      mload(0x40)\n      mload(0x40)\n      dup1\n      swap2\n      sub\n      swap1\n      log3\n        /* \"src/contracts/MiniLend.sol\":3421:3422  _ */\n      pop\n        /* \"@openzeppelin/contracts/access/Ownable.sol\":1554:1555  _ */\n      pop\n        /* \"src/contracts/MiniLend.sol\":3721:3936  function setFeed(... */\n      pop\n      pop\n      jump\t// out\n        /* \"src/contracts/MiniLend.sol\":2618:2663  mapping(address => uint256) public tokenIndex */\n    tag_70:\n      mstore(0x20, 0x05)\n      dup1\n      0x00\n      mstore\n      keccak256(0x00, 0x40)\n      0x00\n      swap2\n      pop\n      swap1\n      pop\n      sload\n      dup2\n      jump\t// out\n        /* \"src/contracts/MiniLend.sol\":8461:8575  function getApprovedTokensCount() external view returns (uint256) {... */\n    tag_74:\n        /* \"src/contracts/MiniLend.sol\":8518:8525  uint256 */\n      0x00\n        /* \"src/contracts/MiniLend.sol\":8544:8561  approvedTokenList */\n      0x06\n        /* \"src/contracts/MiniLend.sol\":8544:8568  approvedTokenList.length */\n      dup1\n      sload\n      swap1\n      pop\n        /* \"src/contracts/MiniLend.sol\":8537:8568  return approvedTokenList.length */\n      swap1\n      pop\n        /* \"src/contracts/MiniLend.sol\":8461:8575  function getApprovedTokensCount() external view returns (uint256) {... */\n      swap1\n      jump\t// out\n        /* \"src/contracts/MiniLend.sol\":8189:8299  function getContractEthBalance() external view returns (uint256) {... */\n    tag_78:\n        /* \"src/contracts/MiniLend.sol\":8245:8252  uint256 */\n      0x00\n        /* \"src/contracts/MiniLend.sol\":8271:8292  address(this).balance */\n      selfbalance\n        /* \"src/contracts/MiniLend.sol\":8264:8292  return address(this).balance */\n      swap1\n      pop\n        /* \"src/contracts/MiniLend.sol\":8189:8299  function getContractEthBalance() external view returns (uint256) {... */\n      swap1\n      jump\t// out\n        /* \"src/contracts/MiniLend.sol\":2566:2612  mapping(address => bool) public approvedTokens */\n    tag_83:\n      mstore(0x20, 0x04)\n      dup1\n      0x00\n      mstore\n      keccak256(0x00, 0x40)\n      0x00\n      swap2\n      pop\n      sload\n      swap1\n      0x0100\n      exp\n      swap1\n      div\n      0xff\n      and\n      dup2\n      jump\t// out\n        /* \"src/contracts/MiniLend.sol\":7743:8183  function getUser(... */\n    tag_89:\n        /* \"src/contracts/MiniLend.sol\":7848:7867  address stakedAsset */\n      0x00\n        /* \"src/contracts/MiniLend.sol\":7881:7901  uint256 stakedAmount */\n      0x00\n        /* \"src/contracts/MiniLend.sol\":7915:7936  address borrowedAsset */\n      0x00\n        /* \"src/contracts/MiniLend.sol\":7950:7977  uint256 borrowedAssetAmount */\n      0x00\n        /* \"src/contracts/MiniLend.sol\":8002:8016  User storage u */\n      0x00\n        /* \"src/contracts/MiniLend.sol\":8019:8024  users */\n      0x02\n        /* \"src/contracts/MiniLend.sol\":8019:8030  users[user] */\n      0x00\n        /* \"src/contracts/MiniLend.sol\":8025:8029  user */\n      dup8\n        /* \"src/contracts/MiniLend.sol\":8019:8030  users[user] */\n      0xffffffffffffffffffffffffffffffffffffffff\n      and\n      0xffffffffffffffffffffffffffffffffffffffff\n      and\n      dup2\n      mstore\n      0x20\n      add\n      swap1\n      dup2\n      mstore\n      0x20\n      add\n      0x00\n      keccak256\n        /* \"src/contracts/MiniLend.sol\":8002:8030  User storage u = users[user] */\n      swap1\n      pop\n        /* \"src/contracts/MiniLend.sol\":8061:8062  u */\n      dup1\n        /* \"src/contracts/MiniLend.sol\":8061:8074  u.stakedAsset */\n      0x00\n      add\n      0x00\n      swap1\n      sload\n      swap1\n      0x0100\n      exp\n      swap1\n      div\n      0xffffffffffffffffffffffffffffffffffffffff\n      and\n        /* \"src/contracts/MiniLend.sol\":8088:8089  u */\n      dup2\n        /* \"src/contracts/MiniLend.sol\":8088:8102  u.stakedAmount */\n      0x01\n      add\n      sload\n        /* \"src/contracts/MiniLend.sol\":8116:8117  u */\n      dup3\n        /* \"src/contracts/MiniLend.sol\":8116:8131  u.borrowedAsset */\n      0x02\n      add\n      0x00\n      swap1\n      sload\n      swap1\n      0x0100\n      exp\n      swap1\n      div\n      0xffffffffffffffffffffffffffffffffffffffff\n      and\n        /* \"src/contracts/MiniLend.sol\":8145:8146  u */\n      dup4\n        /* \"src/contracts/MiniLend.sol\":8145:8166  u.borrowedAssetAmount */\n      0x03\n      add\n      sload\n        /* \"src/contracts/MiniLend.sol\":8040:8176  return (... */\n      swap5\n      pop\n      swap5\n      pop\n      swap5\n      pop\n      swap5\n      pop\n      pop\n        /* \"src/contracts/MiniLend.sol\":7743:8183  function getUser(... */\n      swap2\n      swap4\n      pop\n      swap2\n      swap4\n      jump\t// out\n        /* \"@openzeppelin/contracts/access/Ownable.sol\":2293:2394  function renounceOwnership() public virtual onlyOwner {... */\n    tag_94:\n        /* \"@openzeppelin/contracts/access/Ownable.sol\":1531:1544  _checkOwner() */\n      tag_258\n        /* \"@openzeppelin/contracts/access/Ownable.sol\":1531:1542  _checkOwner */\n      tag_179\n        /* \"@openzeppelin/contracts/access/Ownable.sol\":1531:1544  _checkOwner() */\n      jump\t// in\n    tag_258:\n        /* \"@openzeppelin/contracts/access/Ownable.sol\":2357:2387  _transferOwnership(address(0)) */\n      tag_260\n        /* \"@openzeppelin/contracts/access/Ownable.sol\":2384:2385  0 */\n      0x00\n        /* \"@openzeppelin/contracts/access/Ownable.sol\":2357:2375  _transferOwnership */\n      tag_261\n        /* \"@openzeppelin/contracts/access/Ownable.sol\":2357:2387  _transferOwnership(address(0)) */\n      jump\t// in\n    tag_260:\n        /* \"@openzeppelin/contracts/access/Ownable.sol\":2293:2394  function renounceOwnership() public virtual onlyOwner {... */\n      jump\t// out\n        /* \"src/contracts/MiniLend.sol\":8668:8942  function stakeEth() public payable {... */\n    tag_96:\n        /* \"src/contracts/MiniLend.sol\":8730:8731  0 */\n      0x00\n        /* \"src/contracts/MiniLend.sol\":8717:8726  msg.value */\n      callvalue\n        /* \"src/contracts/MiniLend.sol\":8717:8731  msg.value == 0 */\n      sub\n        /* \"src/contracts/MiniLend.sol\":8713:8762  if (msg.value == 0) revert NoCollateralProvided() */\n      tag_263\n      jumpi\n        /* \"src/contracts/MiniLend.sol\":8740:8762  NoCollateralProvided() */\n      mload(0x40)\n      0xb016be5e00000000000000000000000000000000000000000000000000000000\n      dup2\n      mstore\n      0x04\n      add\n      mload(0x40)\n      dup1\n      swap2\n      sub\n      swap1\n      revert\n        /* \"src/contracts/MiniLend.sol\":8713:8762  if (msg.value == 0) revert NoCollateralProvided() */\n    tag_263:\n        /* \"src/contracts/MiniLend.sol\":8772:8789  User storage user */\n      0x00\n        /* \"src/contracts/MiniLend.sol\":8792:8809  _user(msg.sender) */\n      tag_264\n        /* \"src/contracts/MiniLend.sol\":8798:8808  msg.sender */\n      caller\n        /* \"src/contracts/MiniLend.sol\":8792:8797  _user */\n      tag_164\n        /* \"src/contracts/MiniLend.sol\":8792:8809  _user(msg.sender) */\n      jump\t// in\n    tag_264:\n        /* \"src/contracts/MiniLend.sol\":8772:8809  User storage user = _user(msg.sender) */\n      swap1\n      pop\n        /* \"src/contracts/MiniLend.sol\":8840:8849  msg.value */\n      callvalue\n        /* \"src/contracts/MiniLend.sol\":8819:8823  user */\n      dup2\n        /* \"src/contracts/MiniLend.sol\":8819:8836  user.stakedAmount */\n      0x01\n      add\n      0x00\n        /* \"src/contracts/MiniLend.sol\":8819:8849  user.stakedAmount += msg.value */\n      dup3\n      dup3\n      sload\n      tag_265\n      swap2\n      swap1\n      tag_171\n      jump\t// in\n    tag_265:\n      swap3\n      pop\n      pop\n      dup2\n      swap1\n      sstore\n      pop\n        /* \"src/contracts/MiniLend.sol\":8878:8888  ethAddress */\n      0x07\n      0x00\n      swap1\n      sload\n      swap1\n      0x0100\n      exp\n      swap1\n      div\n      0xffffffffffffffffffffffffffffffffffffffff\n      and\n        /* \"src/contracts/MiniLend.sol\":8859:8863  user */\n      dup2\n        /* \"src/contracts/MiniLend.sol\":8859:8875  user.stakedAsset */\n      0x00\n      add\n      0x00\n        /* \"src/contracts/MiniLend.sol\":8859:8888  user.stakedAsset = ethAddress */\n      0x0100\n      exp\n      dup2\n      sload\n      dup2\n      0xffffffffffffffffffffffffffffffffffffffff\n      mul\n      not\n      and\n      swap1\n      dup4\n      0xffffffffffffffffffffffffffffffffffffffff\n      and\n      mul\n      or\n      swap1\n      sstore\n      pop\n        /* \"src/contracts/MiniLend.sol\":8913:8923  msg.sender */\n      caller\n        /* \"src/contracts/MiniLend.sol\":8903:8935  EthStaked(msg.sender, msg.value) */\n      0xffffffffffffffffffffffffffffffffffffffff\n      and\n      0x1c0917c3a343a300b56473c59fa8355d3326f2c73472679a5b4cd5d6e0390c80\n        /* \"src/contracts/MiniLend.sol\":8925:8934  msg.value */\n      callvalue\n        /* \"src/contracts/MiniLend.sol\":8903:8935  EthStaked(msg.sender, msg.value) */\n      mload(0x40)\n      tag_266\n      swap2\n      swap1\n      tag_51\n      jump\t// in\n    tag_266:\n      mload(0x40)\n      dup1\n      swap2\n      sub\n      swap1\n      log2\n        /* \"src/contracts/MiniLend.sol\":8703:8942  {... */\n      pop\n        /* \"src/contracts/MiniLend.sol\":8668:8942  function stakeEth() public payable {... */\n      jump\t// out\n        /* \"src/contracts/MiniLend.sol\":4436:4777  function approveToken(... */\n    tag_100:\n        /* \"@openzeppelin/contracts/access/Ownable.sol\":1531:1544  _checkOwner() */\n      tag_268\n        /* \"@openzeppelin/contracts/access/Ownable.sol\":1531:1542  _checkOwner */\n      tag_179\n        /* \"@openzeppelin/contracts/access/Ownable.sol\":1531:1544  _checkOwner() */\n      jump\t// in\n    tag_268:\n        /* \"src/contracts/MiniLend.sol\":4521:4526  token */\n      dup1\n        /* \"src/contracts/MiniLend.sol\":3380:3381  0 */\n      0x00\n        /* \"src/contracts/MiniLend.sol\":3364:3382  addr == address(0) */\n      0xffffffffffffffffffffffffffffffffffffffff\n      and\n        /* \"src/contracts/MiniLend.sol\":3364:3368  addr */\n      dup2\n        /* \"src/contracts/MiniLend.sol\":3364:3382  addr == address(0) */\n      0xffffffffffffffffffffffffffffffffffffffff\n      and\n      sub\n        /* \"src/contracts/MiniLend.sol\":3360:3411  if (addr == address(0)) revert InvalidAddress(addr) */\n      tag_270\n      jumpi\n        /* \"src/contracts/MiniLend.sol\":3406:3410  addr */\n      dup1\n        /* \"src/contracts/MiniLend.sol\":3391:3411  InvalidAddress(addr) */\n      mload(0x40)\n      0x8e4c8aa600000000000000000000000000000000000000000000000000000000\n      dup2\n      mstore\n      0x04\n      add\n      tag_271\n      swap2\n      swap1\n      tag_105\n      jump\t// in\n    tag_271:\n      mload(0x40)\n      dup1\n      swap2\n      sub\n      swap1\n      revert\n        /* \"src/contracts/MiniLend.sol\":3360:3411  if (addr == address(0)) revert InvalidAddress(addr) */\n    tag_270:\n        /* \"src/contracts/MiniLend.sol\":4542:4556  approvedTokens */\n      0x04\n        /* \"src/contracts/MiniLend.sol\":4542:4563  approvedTokens[token] */\n      0x00\n        /* \"src/contracts/MiniLend.sol\":4557:4562  token */\n      dup4\n        /* \"src/contracts/MiniLend.sol\":4542:4563  approvedTokens[token] */\n      0xffffffffffffffffffffffffffffffffffffffff\n      and\n      0xffffffffffffffffffffffffffffffffffffffff\n      and\n      dup2\n      mstore\n      0x20\n      add\n      swap1\n      dup2\n      mstore\n      0x20\n      add\n      0x00\n      keccak256\n      0x00\n      swap1\n      sload\n      swap1\n      0x0100\n      exp\n      swap1\n      div\n      0xff\n      and\n        /* \"src/contracts/MiniLend.sol\":4538:4599  if (approvedTokens[token]) revert TokenAlreadyApproved(token) */\n      iszero\n      tag_273\n      jumpi\n        /* \"src/contracts/MiniLend.sol\":4593:4598  token */\n      dup2\n        /* \"src/contracts/MiniLend.sol\":4572:4599  TokenAlreadyApproved(token) */\n      mload(0x40)\n      0x7664204700000000000000000000000000000000000000000000000000000000\n      dup2\n      mstore\n      0x04\n      add\n      tag_274\n      swap2\n      swap1\n      tag_105\n      jump\t// in\n    tag_274:\n      mload(0x40)\n      dup1\n      swap2\n      sub\n      swap1\n      revert\n        /* \"src/contracts/MiniLend.sol\":4538:4599  if (approvedTokens[token]) revert TokenAlreadyApproved(token) */\n    tag_273:\n        /* \"src/contracts/MiniLend.sol\":4634:4638  true */\n      0x01\n        /* \"src/contracts/MiniLend.sol\":4610:4624  approvedTokens */\n      0x04\n        /* \"src/contracts/MiniLend.sol\":4610:4631  approvedTokens[token] */\n      0x00\n        /* \"src/contracts/MiniLend.sol\":4625:4630  token */\n      dup5\n        /* \"src/contracts/MiniLend.sol\":4610:4631  approvedTokens[token] */\n      0xffffffffffffffffffffffffffffffffffffffff\n      and\n      0xffffffffffffffffffffffffffffffffffffffff\n      and\n      dup2\n      mstore\n      0x20\n      add\n      swap1\n      dup2\n      mstore\n      0x20\n      add\n      0x00\n      keccak256\n      0x00\n        /* \"src/contracts/MiniLend.sol\":4610:4638  approvedTokens[token] = true */\n      0x0100\n      exp\n      dup2\n      sload\n      dup2\n      0xff\n      mul\n      not\n      and\n      swap1\n      dup4\n      iszero\n      iszero\n      mul\n      or\n      swap1\n      sstore\n      pop\n        /* \"src/contracts/MiniLend.sol\":4668:4685  approvedTokenList */\n      0x06\n        /* \"src/contracts/MiniLend.sol\":4668:4692  approvedTokenList.length */\n      dup1\n      sload\n      swap1\n      pop\n        /* \"src/contracts/MiniLend.sol\":4648:4658  tokenIndex */\n      0x05\n        /* \"src/contracts/MiniLend.sol\":4648:4665  tokenIndex[token] */\n      0x00\n        /* \"src/contracts/MiniLend.sol\":4659:4664  token */\n      dup5\n        /* \"src/contracts/MiniLend.sol\":4648:4665  tokenIndex[token] */\n      0xffffffffffffffffffffffffffffffffffffffff\n      and\n      0xffffffffffffffffffffffffffffffffffffffff\n      and\n      dup2\n      mstore\n      0x20\n      add\n      swap1\n      dup2\n      mstore\n      0x20\n      add\n      0x00\n      keccak256\n        /* \"src/contracts/MiniLend.sol\":4648:4692  tokenIndex[token] = approvedTokenList.length */\n      dup2\n      swap1\n      sstore\n      pop\n        /* \"src/contracts/MiniLend.sol\":4702:4719  approvedTokenList */\n      0x06\n        /* \"src/contracts/MiniLend.sol\":4725:4730  token */\n      dup3\n        /* \"src/contracts/MiniLend.sol\":4702:4731  approvedTokenList.push(token) */\n      swap1\n      dup1\n      0x01\n      dup2\n      sload\n      add\n      dup1\n      dup3\n      sstore\n      dup1\n      swap2\n      pop\n      pop\n      0x01\n      swap1\n      sub\n      swap1\n      0x00\n      mstore\n      keccak256(0x00, 0x20)\n      add\n      0x00\n      swap1\n      swap2\n      swap1\n      swap2\n      swap1\n      swap2\n      0x0100\n      exp\n      dup2\n      sload\n      dup2\n      0xffffffffffffffffffffffffffffffffffffffff\n      mul\n      not\n      and\n      swap1\n      dup4\n      0xffffffffffffffffffffffffffffffffffffffff\n      and\n      mul\n      or\n      swap1\n      sstore\n      pop\n        /* \"src/contracts/MiniLend.sol\":4764:4769  token */\n      dup2\n        /* \"src/contracts/MiniLend.sol\":4747:4770  NewTokenApproved(token) */\n      0xffffffffffffffffffffffffffffffffffffffff\n      and\n      0x026283404367cffc0443317066c3531d3db2306ad6e65aa1bee91dbe98c615a1\n      mload(0x40)\n      mload(0x40)\n      dup1\n      swap2\n      sub\n      swap1\n      log2\n        /* \"@openzeppelin/contracts/access/Ownable.sol\":1554:1555  _ */\n      pop\n        /* \"src/contracts/MiniLend.sol\":4436:4777  function approveToken(... */\n      pop\n      jump\t// out\n        /* \"@openzeppelin/contracts/access/Ownable.sol\":1638:1723  function owner() public view virtual returns (address) {... */\n    tag_103:\n        /* \"@openzeppelin/contracts/access/Ownable.sol\":1684:1691  address */\n      0x00\n        /* \"@openzeppelin/contracts/access/Ownable.sol\":1710:1716  _owner */\n      0x01\n      0x00\n      swap1\n      sload\n      swap1\n      0x0100\n      exp\n      swap1\n      div\n      0xffffffffffffffffffffffffffffffffffffffff\n      and\n        /* \"@openzeppelin/contracts/access/Ownable.sol\":1703:1716  return _owner */\n      swap1\n      pop\n        /* \"@openzeppelin/contracts/access/Ownable.sol\":1638:1723  function owner() public view virtual returns (address) {... */\n      swap1\n      jump\t// out\n        /* \"src/contracts/MiniLend.sol\":2699:2733  address[] public approvedTokenList */\n    tag_109:\n      0x06\n      dup2\n      dup2\n      sload\n      dup2\n      lt\n      tag_277\n      jumpi\n      0x00\n      dup1\n      revert\n    tag_277:\n      swap1\n      0x00\n      mstore\n      keccak256(0x00, 0x20)\n      add\n      0x00\n      swap2\n      pop\n      sload\n      swap1\n      0x0100\n      exp\n      swap1\n      div\n      0xffffffffffffffffffffffffffffffffffffffff\n      and\n      dup2\n      jump\t// out\n        /* \"src/contracts/MiniLend.sol\":8305:8455  function isTokenApproved(... */\n    tag_114:\n        /* \"src/contracts/MiniLend.sol\":8404:8408  bool */\n      0x00\n        /* \"src/contracts/MiniLend.sol\":8388:8393  token */\n      dup2\n        /* \"src/contracts/MiniLend.sol\":3380:3381  0 */\n      0x00\n        /* \"src/contracts/MiniLend.sol\":3364:3382  addr == address(0) */\n      0xffffffffffffffffffffffffffffffffffffffff\n      and\n        /* \"src/contracts/MiniLend.sol\":3364:3368  addr */\n      dup2\n        /* \"src/contracts/MiniLend.sol\":3364:3382  addr == address(0) */\n      0xffffffffffffffffffffffffffffffffffffffff\n      and\n      sub\n        /* \"src/contracts/MiniLend.sol\":3360:3411  if (addr == address(0)) revert InvalidAddress(addr) */\n      tag_280\n      jumpi\n        /* \"src/contracts/MiniLend.sol\":3406:3410  addr */\n      dup1\n        /* \"src/contracts/MiniLend.sol\":3391:3411  InvalidAddress(addr) */\n      mload(0x40)\n      0x8e4c8aa600000000000000000000000000000000000000000000000000000000\n      dup2\n      mstore\n      0x04\n      add\n      tag_281\n      swap2\n      swap1\n      tag_105\n      jump\t// in\n    tag_281:\n      mload(0x40)\n      dup1\n      swap2\n      sub\n      swap1\n      revert\n        /* \"src/contracts/MiniLend.sol\":3360:3411  if (addr == address(0)) revert InvalidAddress(addr) */\n    tag_280:\n        /* \"src/contracts/MiniLend.sol\":8427:8441  approvedTokens */\n      0x04\n        /* \"src/contracts/MiniLend.sol\":8427:8448  approvedTokens[token] */\n      0x00\n        /* \"src/contracts/MiniLend.sol\":8442:8447  token */\n      dup5\n        /* \"src/contracts/MiniLend.sol\":8427:8448  approvedTokens[token] */\n      0xffffffffffffffffffffffffffffffffffffffff\n      and\n      0xffffffffffffffffffffffffffffffffffffffff\n      and\n      dup2\n      mstore\n      0x20\n      add\n      swap1\n      dup2\n      mstore\n      0x20\n      add\n      0x00\n      keccak256\n      0x00\n      swap1\n      sload\n      swap1\n      0x0100\n      exp\n      swap1\n      div\n      0xff\n      and\n        /* \"src/contracts/MiniLend.sol\":8420:8448  return approvedTokens[token] */\n      swap2\n      pop\n        /* \"src/contracts/MiniLend.sol\":8305:8455  function isTokenApproved(... */\n      pop\n      swap2\n      swap1\n      pop\n      jump\t// out\n        /* \"src/contracts/MiniLend.sol\":2468:2513  mapping(address => address) public priceFeeds */\n    tag_119:\n      mstore(0x20, 0x03)\n      dup1\n      0x00\n      mstore\n      keccak256(0x00, 0x40)\n      0x00\n      swap2\n      pop\n      sload\n      swap1\n      0x0100\n      exp\n      swap1\n      div\n      0xffffffffffffffffffffffffffffffffffffffff\n      and\n      dup2\n      jump\t// out\n        /* \"src/contracts/MiniLend.sol\":3942:4183  function setLtv(uint256 _ltv) external onlyOwner nonZeroAmount(_ltv) {... */\n    tag_124:\n        /* \"@openzeppelin/contracts/access/Ownable.sol\":1531:1544  _checkOwner() */\n      tag_284\n        /* \"@openzeppelin/contracts/access/Ownable.sol\":1531:1542  _checkOwner */\n      tag_179\n        /* \"@openzeppelin/contracts/access/Ownable.sol\":1531:1544  _checkOwner() */\n      jump\t// in\n    tag_284:\n        /* \"src/contracts/MiniLend.sol\":4005:4009  _ltv */\n      dup1\n        /* \"src/contracts/MiniLend.sol\":3498:3499  0 */\n      0x00\n        /* \"src/contracts/MiniLend.sol\":3488:3494  amount */\n      dup2\n        /* \"src/contracts/MiniLend.sol\":3488:3499  amount == 0 */\n      sub\n        /* \"src/contracts/MiniLend.sol\":3484:3523  if (amount == 0) revert InvalidAmount() */\n      tag_286\n      jumpi\n        /* \"src/contracts/MiniLend.sol\":3508:3523  InvalidAmount() */\n      mload(0x40)\n      0x2c5211c600000000000000000000000000000000000000000000000000000000\n      dup2\n      mstore\n      0x04\n      add\n      mload(0x40)\n      dup1\n      swap2\n      sub\n      swap1\n      revert\n        /* \"src/contracts/MiniLend.sol\":3484:3523  if (amount == 0) revert InvalidAmount() */\n    tag_286:\n        /* \"src/contracts/MiniLend.sol\":4033:4034  0 */\n      0x00\n        /* \"src/contracts/MiniLend.sol\":4025:4029  _ltv */\n      dup3\n        /* \"src/contracts/MiniLend.sol\":4025:4034  _ltv == 0 */\n      eq\n        /* \"src/contracts/MiniLend.sol\":4025:4060  _ltv == 0 || _ltv > PCT_DENOMINATOR */\n      dup1\n      tag_288\n      jumpi\n      pop\n        /* \"src/contracts/MiniLend.sol\":3034:3039  10000 */\n      0x2710\n        /* \"src/contracts/MiniLend.sol\":4038:4042  _ltv */\n      dup3\n        /* \"src/contracts/MiniLend.sol\":4038:4060  _ltv > PCT_DENOMINATOR */\n      gt\n        /* \"src/contracts/MiniLend.sol\":4025:4060  _ltv == 0 || _ltv > PCT_DENOMINATOR */\n    tag_288:\n        /* \"src/contracts/MiniLend.sol\":4025:4092  _ltv == 0 || _ltv > PCT_DENOMINATOR || _ltv > LIQUIDATION_THRESHOLD */\n      dup1\n      tag_289\n      jumpi\n      pop\n        /* \"src/contracts/MiniLend.sol\":3125:3129  7500 */\n      0x1d4c\n        /* \"src/contracts/MiniLend.sol\":4064:4068  _ltv */\n      dup3\n        /* \"src/contracts/MiniLend.sol\":4064:4092  _ltv > LIQUIDATION_THRESHOLD */\n      gt\n        /* \"src/contracts/MiniLend.sol\":4025:4092  _ltv == 0 || _ltv > PCT_DENOMINATOR || _ltv > LIQUIDATION_THRESHOLD */\n    tag_289:\n        /* \"src/contracts/MiniLend.sol\":4021:4125  if (_ltv == 0 || _ltv > PCT_DENOMINATOR || _ltv > LIQUIDATION_THRESHOLD)... */\n      iszero\n      tag_290\n      jumpi\n        /* \"src/contracts/MiniLend.sol\":4120:4124  _ltv */\n      dup2\n        /* \"src/contracts/MiniLend.sol\":4113:4125  BadLtv(_ltv) */\n      mload(0x40)\n      0x78dc164f00000000000000000000000000000000000000000000000000000000\n      dup2\n      mstore\n      0x04\n      add\n      tag_291\n      swap2\n      swap1\n      tag_51\n      jump\t// in\n    tag_291:\n      mload(0x40)\n      dup1\n      swap2\n      sub\n      swap1\n      revert\n        /* \"src/contracts/MiniLend.sol\":4021:4125  if (_ltv == 0 || _ltv > PCT_DENOMINATOR || _ltv > LIQUIDATION_THRESHOLD)... */\n    tag_290:\n        /* \"src/contracts/MiniLend.sol\":4141:4145  _ltv */\n      dup2\n        /* \"src/contracts/MiniLend.sol\":4135:4138  LTV */\n      0x08\n        /* \"src/contracts/MiniLend.sol\":4135:4145  LTV = _ltv */\n      dup2\n      swap1\n      sstore\n      pop\n        /* \"src/contracts/MiniLend.sol\":4160:4176  LtvUpdated(_ltv) */\n      0xcce25c35b561657fb7cd2ac403c6a4854283d0f4d462e68e0f97d07c348bcff2\n        /* \"src/contracts/MiniLend.sol\":4171:4175  _ltv */\n      dup3\n        /* \"src/contracts/MiniLend.sol\":4160:4176  LtvUpdated(_ltv) */\n      mload(0x40)\n      tag_292\n      swap2\n      swap1\n      tag_51\n      jump\t// in\n    tag_292:\n      mload(0x40)\n      dup1\n      swap2\n      sub\n      swap1\n      log1\n        /* \"@openzeppelin/contracts/access/Ownable.sol\":1554:1555  _ */\n      pop\n        /* \"src/contracts/MiniLend.sol\":3942:4183  function setLtv(uint256 _ltv) external onlyOwner nonZeroAmount(_ltv) {... */\n      pop\n      jump\t// out\n        /* \"src/contracts/MiniLend.sol\":2425:2462  mapping(address => User) public users */\n    tag_128:\n      mstore(0x20, 0x02)\n      dup1\n      0x00\n      mstore\n      keccak256(0x00, 0x40)\n      0x00\n      swap2\n      pop\n      swap1\n      pop\n      dup1\n      0x00\n      add\n      0x00\n      swap1\n      sload\n      swap1\n      0x0100\n      exp\n      swap1\n      div\n      0xffffffffffffffffffffffffffffffffffffffff\n      and\n      swap1\n      dup1\n      0x01\n      add\n      sload\n      swap1\n      dup1\n      0x02\n      add\n      0x00\n      swap1\n      sload\n      swap1\n      0x0100\n      exp\n      swap1\n      div\n      0xffffffffffffffffffffffffffffffffffffffff\n      and\n      swap1\n      dup1\n      0x03\n      add\n      sload\n      swap1\n      pop\n      dup5\n      jump\t// out\n        /* \"src/contracts/MiniLend.sol\":9913:10894  function repayAsset(... */\n    tag_133:\n        /* \"src/contracts/MiniLend.sol\":10024:10029  token */\n      dup2\n        /* \"src/contracts/MiniLend.sol\":3380:3381  0 */\n      0x00\n        /* \"src/contracts/MiniLend.sol\":3364:3382  addr == address(0) */\n      0xffffffffffffffffffffffffffffffffffffffff\n      and\n        /* \"src/contracts/MiniLend.sol\":3364:3368  addr */\n      dup2\n        /* \"src/contracts/MiniLend.sol\":3364:3382  addr == address(0) */\n      0xffffffffffffffffffffffffffffffffffffffff\n      and\n      sub\n        /* \"src/contracts/MiniLend.sol\":3360:3411  if (addr == address(0)) revert InvalidAddress(addr) */\n      tag_294\n      jumpi\n        /* \"src/contracts/MiniLend.sol\":3406:3410  addr */\n      dup1\n        /* \"src/contracts/MiniLend.sol\":3391:3411  InvalidAddress(addr) */\n      mload(0x40)\n      0x8e4c8aa600000000000000000000000000000000000000000000000000000000\n      dup2\n      mstore\n      0x04\n      add\n      tag_295\n      swap2\n      swap1\n      tag_105\n      jump\t// in\n    tag_295:\n      mload(0x40)\n      dup1\n      swap2\n      sub\n      swap1\n      revert\n        /* \"src/contracts/MiniLend.sol\":3360:3411  if (addr == address(0)) revert InvalidAddress(addr) */\n    tag_294:\n        /* \"src/contracts/MiniLend.sol\":10053:10059  amount */\n      dup2\n        /* \"src/contracts/MiniLend.sol\":3498:3499  0 */\n      0x00\n        /* \"src/contracts/MiniLend.sol\":3488:3494  amount */\n      dup2\n        /* \"src/contracts/MiniLend.sol\":3488:3499  amount == 0 */\n      sub\n        /* \"src/contracts/MiniLend.sol\":3484:3523  if (amount == 0) revert InvalidAmount() */\n      tag_297\n      jumpi\n        /* \"src/contracts/MiniLend.sol\":3508:3523  InvalidAmount() */\n      mload(0x40)\n      0x2c5211c600000000000000000000000000000000000000000000000000000000\n      dup2\n      mstore\n      0x04\n      add\n      mload(0x40)\n      dup1\n      swap2\n      sub\n      swap1\n      revert\n        /* \"src/contracts/MiniLend.sol\":3484:3523  if (amount == 0) revert InvalidAmount() */\n    tag_297:\n        /* \"src/contracts/MiniLend.sol\":10087:10092  token */\n      dup4\n        /* \"src/contracts/MiniLend.sol\":3235:3249  approvedTokens */\n      0x04\n        /* \"src/contracts/MiniLend.sol\":3235:3256  approvedTokens[token] */\n      0x00\n        /* \"src/contracts/MiniLend.sol\":3250:3255  token */\n      dup3\n        /* \"src/contracts/MiniLend.sol\":3235:3256  approvedTokens[token] */\n      0xffffffffffffffffffffffffffffffffffffffff\n      and\n      0xffffffffffffffffffffffffffffffffffffffff\n      and\n      dup2\n      mstore\n      0x20\n      add\n      swap1\n      dup2\n      mstore\n      0x20\n      add\n      0x00\n      keccak256\n      0x00\n      swap1\n      sload\n      swap1\n      0x0100\n      exp\n      swap1\n      div\n      0xff\n      and\n        /* \"src/contracts/MiniLend.sol\":3230:3288  if (!approvedTokens[token]) revert TokenNotApproved(token) */\n      tag_299\n      jumpi\n        /* \"src/contracts/MiniLend.sol\":3282:3287  token */\n      dup1\n        /* \"src/contracts/MiniLend.sol\":3265:3288  TokenNotApproved(token) */\n      mload(0x40)\n      0x87921f5a00000000000000000000000000000000000000000000000000000000\n      dup2\n      mstore\n      0x04\n      add\n      tag_300\n      swap2\n      swap1\n      tag_105\n      jump\t// in\n    tag_300:\n      mload(0x40)\n      dup1\n      swap2\n      sub\n      swap1\n      revert\n        /* \"src/contracts/MiniLend.sol\":3230:3288  if (!approvedTokens[token]) revert TokenNotApproved(token) */\n    tag_299:\n        /* \"src/contracts/MiniLend.sol\":10108:10125  User storage user */\n      0x00\n        /* \"src/contracts/MiniLend.sol\":10128:10145  _user(msg.sender) */\n      tag_302\n        /* \"src/contracts/MiniLend.sol\":10134:10144  msg.sender */\n      caller\n        /* \"src/contracts/MiniLend.sol\":10128:10133  _user */\n      tag_164\n        /* \"src/contracts/MiniLend.sol\":10128:10145  _user(msg.sender) */\n      jump\t// in\n    tag_302:\n        /* \"src/contracts/MiniLend.sol\":10108:10145  User storage user = _user(msg.sender) */\n      swap1\n      pop\n        /* \"src/contracts/MiniLend.sol\":10160:10187  _activePosition(msg.sender) */\n      tag_303\n        /* \"src/contracts/MiniLend.sol\":10176:10186  msg.sender */\n      caller\n        /* \"src/contracts/MiniLend.sol\":10160:10175  _activePosition */\n      tag_304\n        /* \"src/contracts/MiniLend.sol\":10160:10187  _activePosition(msg.sender) */\n      jump\t// in\n    tag_303:\n        /* \"src/contracts/MiniLend.sol\":10155:10214  if (!_activePosition(msg.sender)) revert NoActivePosition() */\n      tag_305\n      jumpi\n        /* \"src/contracts/MiniLend.sol\":10196:10214  NoActivePosition() */\n      mload(0x40)\n      0x33cbf2bc00000000000000000000000000000000000000000000000000000000\n      dup2\n      mstore\n      0x04\n      add\n      mload(0x40)\n      dup1\n      swap2\n      sub\n      swap1\n      revert\n        /* \"src/contracts/MiniLend.sol\":10155:10214  if (!_activePosition(msg.sender)) revert NoActivePosition() */\n    tag_305:\n        /* \"src/contracts/MiniLend.sol\":10229:10271  _repayWithBorrowedAsset(msg.sender, token) */\n      tag_306\n        /* \"src/contracts/MiniLend.sol\":10253:10263  msg.sender */\n      caller\n        /* \"src/contracts/MiniLend.sol\":10265:10270  token */\n      dup8\n        /* \"src/contracts/MiniLend.sol\":10229:10252  _repayWithBorrowedAsset */\n      tag_307\n        /* \"src/contracts/MiniLend.sol\":10229:10271  _repayWithBorrowedAsset(msg.sender, token) */\n      jump\t// in\n    tag_306:\n        /* \"src/contracts/MiniLend.sol\":10224:10311  if (!_repayWithBorrowedAsset(msg.sender, token))... */\n      tag_308\n      jumpi\n        /* \"src/contracts/MiniLend.sol\":10305:10310  token */\n      dup6\n        /* \"src/contracts/MiniLend.sol\":10292:10311  InvalidAsset(token) */\n      mload(0x40)\n      0x6f79c78a00000000000000000000000000000000000000000000000000000000\n      dup2\n      mstore\n      0x04\n      add\n      tag_309\n      swap2\n      swap1\n      tag_105\n      jump\t// in\n    tag_309:\n      mload(0x40)\n      dup1\n      swap2\n      sub\n      swap1\n      revert\n        /* \"src/contracts/MiniLend.sol\":10224:10311  if (!_repayWithBorrowedAsset(msg.sender, token))... */\n    tag_308:\n        /* \"src/contracts/MiniLend.sol\":10335:10339  user */\n      dup1\n        /* \"src/contracts/MiniLend.sol\":10335:10359  user.borrowedAssetAmount */\n      0x03\n      add\n      sload\n        /* \"src/contracts/MiniLend.sol\":10326:10332  amount */\n      dup6\n        /* \"src/contracts/MiniLend.sol\":10326:10359  amount > user.borrowedAssetAmount */\n      gt\n        /* \"src/contracts/MiniLend.sol\":10322:10437  if (amount > user.borrowedAssetAmount)... */\n      iszero\n      tag_310\n      jumpi\n        /* \"src/contracts/MiniLend.sol\":10404:10410  amount */\n      dup5\n        /* \"src/contracts/MiniLend.sol\":10412:10416  user */\n      dup2\n        /* \"src/contracts/MiniLend.sol\":10412:10436  user.borrowedAssetAmount */\n      0x03\n      add\n      sload\n        /* \"src/contracts/MiniLend.sol\":10380:10437  OverPaymentNotSupported(amount, user.borrowedAssetAmount) */\n      mload(0x40)\n      0x99bcd81300000000000000000000000000000000000000000000000000000000\n      dup2\n      mstore\n      0x04\n      add\n      tag_311\n      swap3\n      swap2\n      swap1\n      tag_312\n      jump\t// in\n    tag_311:\n      mload(0x40)\n      dup1\n      swap2\n      sub\n      swap1\n      revert\n        /* \"src/contracts/MiniLend.sol\":10322:10437  if (amount > user.borrowedAssetAmount)... */\n    tag_310:\n        /* \"src/contracts/MiniLend.sol\":10481:10485  user */\n      dup1\n        /* \"src/contracts/MiniLend.sol\":10481:10499  user.borrowedAsset */\n      0x02\n      add\n      0x00\n      swap1\n      sload\n      swap1\n      0x0100\n      exp\n      swap1\n      div\n      0xffffffffffffffffffffffffffffffffffffffff\n      and\n        /* \"src/contracts/MiniLend.sol\":10474:10508  IERC20(user.borrowedAsset).approve */\n      0xffffffffffffffffffffffffffffffffffffffff\n      and\n      0x095ea7b3\n        /* \"src/contracts/MiniLend.sol\":10517:10521  this */\n      address\n        /* \"src/contracts/MiniLend.sol\":10524:10530  amount */\n      dup8\n        /* \"src/contracts/MiniLend.sol\":10474:10531  IERC20(user.borrowedAsset).approve(address(this), amount) */\n      mload(0x40)\n      dup4\n      0xffffffff\n      and\n      0xe0\n      shl\n      dup2\n      mstore\n      0x04\n      add\n      tag_313\n      swap3\n      swap2\n      swap1\n      tag_314\n      jump\t// in\n    tag_313:\n      0x20\n      mload(0x40)\n      dup1\n      dup4\n      sub\n      dup2\n      0x00\n      dup8\n      gas\n      call\n      iszero\n      dup1\n      iszero\n      tag_316\n      jumpi\n      returndatacopy(0x00, 0x00, returndatasize)\n      revert(0x00, returndatasize)\n    tag_316:\n      pop\n      pop\n      pop\n      pop\n      mload(0x40)\n      returndatasize\n      not(0x1f)\n      0x1f\n      dup3\n      add\n      and\n      dup3\n      add\n      dup1\n      0x40\n      mstore\n      pop\n      dup2\n      add\n      swap1\n      tag_317\n      swap2\n      swap1\n      tag_318\n      jump\t// in\n    tag_317:\n      pop\n        /* \"src/contracts/MiniLend.sol\":10542:10553  bool sucess */\n      0x00\n        /* \"src/contracts/MiniLend.sol\":10563:10567  user */\n      dup2\n        /* \"src/contracts/MiniLend.sol\":10563:10581  user.borrowedAsset */\n      0x02\n      add\n      0x00\n      swap1\n      sload\n      swap1\n      0x0100\n      exp\n      swap1\n      div\n      0xffffffffffffffffffffffffffffffffffffffff\n      and\n        /* \"src/contracts/MiniLend.sol\":10556:10595  IERC20(user.borrowedAsset).transferFrom */\n      0xffffffffffffffffffffffffffffffffffffffff\n      and\n      0x23b872dd\n        /* \"src/contracts/MiniLend.sol\":10609:10619  msg.sender */\n      caller\n        /* \"src/contracts/MiniLend.sol\":10641:10645  this */\n      address\n        /* \"src/contracts/MiniLend.sol\":10660:10666  amount */\n      dup10\n        /* \"src/contracts/MiniLend.sol\":10556:10676  IERC20(user.borrowedAsset).transferFrom(... */\n      mload(0x40)\n      dup5\n      0xffffffff\n      and\n      0xe0\n      shl\n      dup2\n      mstore\n      0x04\n      add\n      tag_319\n      swap4\n      swap3\n      swap2\n      swap1\n      tag_320\n      jump\t// in\n    tag_319:\n      0x20\n      mload(0x40)\n      dup1\n      dup4\n      sub\n      dup2\n      0x00\n      dup8\n      gas\n      call\n      iszero\n      dup1\n      iszero\n      tag_322\n      jumpi\n      returndatacopy(0x00, 0x00, returndatasize)\n      revert(0x00, returndatasize)\n    tag_322:\n      pop\n      pop\n      pop\n      pop\n      mload(0x40)\n      returndatasize\n      not(0x1f)\n      0x1f\n      dup3\n      add\n      and\n      dup3\n      add\n      dup1\n      0x40\n      mstore\n      pop\n      dup2\n      add\n      swap1\n      tag_323\n      swap2\n      swap1\n      tag_318\n      jump\t// in\n    tag_323:\n        /* \"src/contracts/MiniLend.sol\":10542:10676  bool sucess = IERC20(user.borrowedAsset).transferFrom(... */\n      swap1\n      pop\n        /* \"src/contracts/MiniLend.sol\":10692:10698  sucess */\n      dup1\n        /* \"src/contracts/MiniLend.sol\":10687:10773  if (!sucess)... */\n      tag_324\n      jumpi\n        /* \"src/contracts/MiniLend.sol\":10734:10738  user */\n      dup2\n        /* \"src/contracts/MiniLend.sol\":10734:10752  user.borrowedAsset */\n      0x02\n      add\n      0x00\n      swap1\n      sload\n      swap1\n      0x0100\n      exp\n      swap1\n      div\n      0xffffffffffffffffffffffffffffffffffffffff\n      and\n        /* \"src/contracts/MiniLend.sol\":10754:10764  msg.sender */\n      caller\n        /* \"src/contracts/MiniLend.sol\":10766:10772  amount */\n      dup8\n        /* \"src/contracts/MiniLend.sol\":10719:10773  TransferFailed(user.borrowedAsset, msg.sender, amount) */\n      mload(0x40)\n      0xbf182be800000000000000000000000000000000000000000000000000000000\n      dup2\n      mstore\n      0x04\n      add\n      tag_325\n      swap4\n      swap3\n      swap2\n      swap1\n      tag_320\n      jump\t// in\n    tag_325:\n      mload(0x40)\n      dup1\n      swap2\n      sub\n      swap1\n      revert\n        /* \"src/contracts/MiniLend.sol\":10687:10773  if (!sucess)... */\n    tag_324:\n        /* \"src/contracts/MiniLend.sol\":10836:10842  amount */\n      dup6\n        /* \"src/contracts/MiniLend.sol\":10808:10812  user */\n      dup3\n        /* \"src/contracts/MiniLend.sol\":10808:10832  user.borrowedAssetAmount */\n      0x03\n      add\n      0x00\n        /* \"src/contracts/MiniLend.sol\":10808:10842  user.borrowedAssetAmount -= amount */\n      dup3\n      dup3\n      sload\n      tag_326\n      swap2\n      swap1\n      tag_187\n      jump\t// in\n    tag_326:\n      swap3\n      pop\n      pop\n      dup2\n      swap1\n      sstore\n      pop\n        /* \"src/contracts/MiniLend.sol\":10868:10878  msg.sender */\n      caller\n        /* \"src/contracts/MiniLend.sol\":10858:10887  USDRepaid(msg.sender, amount) */\n      0xffffffffffffffffffffffffffffffffffffffff\n      and\n      0xb7efcc12f3d3e74e33995ff303aca806b9428989809e60a4e5a4d465832966e4\n        /* \"src/contracts/MiniLend.sol\":10880:10886  amount */\n      dup8\n        /* \"src/contracts/MiniLend.sol\":10858:10887  USDRepaid(msg.sender, amount) */\n      mload(0x40)\n      tag_327\n      swap2\n      swap1\n      tag_51\n      jump\t// in\n    tag_327:\n      mload(0x40)\n      dup1\n      swap2\n      sub\n      swap1\n      log2\n        /* \"src/contracts/MiniLend.sol\":10098:10894  {... */\n      pop\n      pop\n        /* \"src/contracts/MiniLend.sol\":3533:3534  _ */\n      pop\n        /* \"src/contracts/MiniLend.sol\":3421:3422  _ */\n      pop\n        /* \"src/contracts/MiniLend.sol\":9913:10894  function repayAsset(... */\n      pop\n      pop\n      pop\n      jump\t// out\n        /* \"src/contracts/MiniLend.sol\":11740:13529  function liquidate(... */\n    tag_137:\n        /* \"src/contracts/MiniLend.sol\":11844:11852  borrower */\n      dup2\n        /* \"src/contracts/MiniLend.sol\":3380:3381  0 */\n      0x00\n        /* \"src/contracts/MiniLend.sol\":3364:3382  addr == address(0) */\n      0xffffffffffffffffffffffffffffffffffffffff\n      and\n        /* \"src/contracts/MiniLend.sol\":3364:3368  addr */\n      dup2\n        /* \"src/contracts/MiniLend.sol\":3364:3382  addr == address(0) */\n      0xffffffffffffffffffffffffffffffffffffffff\n      and\n      sub\n        /* \"src/contracts/MiniLend.sol\":3360:3411  if (addr == address(0)) revert InvalidAddress(addr) */\n      tag_329\n      jumpi\n        /* \"src/contracts/MiniLend.sol\":3406:3410  addr */\n      dup1\n        /* \"src/contracts/MiniLend.sol\":3391:3411  InvalidAddress(addr) */\n      mload(0x40)\n      0x8e4c8aa600000000000000000000000000000000000000000000000000000000\n      dup2\n      mstore\n      0x04\n      add\n      tag_330\n      swap2\n      swap1\n      tag_105\n      jump\t// in\n    tag_330:\n      mload(0x40)\n      dup1\n      swap2\n      sub\n      swap1\n      revert\n        /* \"src/contracts/MiniLend.sol\":3360:3411  if (addr == address(0)) revert InvalidAddress(addr) */\n    tag_329:\n        /* \"src/contracts/MiniLend.sol\":11868:11879  repayAmount */\n      dup2\n        /* \"src/contracts/MiniLend.sol\":3498:3499  0 */\n      0x00\n        /* \"src/contracts/MiniLend.sol\":3488:3494  amount */\n      dup2\n        /* \"src/contracts/MiniLend.sol\":3488:3499  amount == 0 */\n      sub\n        /* \"src/contracts/MiniLend.sol\":3484:3523  if (amount == 0) revert InvalidAmount() */\n      tag_332\n      jumpi\n        /* \"src/contracts/MiniLend.sol\":3508:3523  InvalidAmount() */\n      mload(0x40)\n      0x2c5211c600000000000000000000000000000000000000000000000000000000\n      dup2\n      mstore\n      0x04\n      add\n      mload(0x40)\n      dup1\n      swap2\n      sub\n      swap1\n      revert\n        /* \"src/contracts/MiniLend.sol\":3484:3523  if (amount == 0) revert InvalidAmount() */\n    tag_332:\n        /* \"src/contracts/MiniLend.sol\":11891:11908  User storage user */\n      0x00\n        /* \"src/contracts/MiniLend.sol\":11911:11926  _user(borrower) */\n      tag_334\n        /* \"src/contracts/MiniLend.sol\":11917:11925  borrower */\n      dup6\n        /* \"src/contracts/MiniLend.sol\":11911:11916  _user */\n      tag_164\n        /* \"src/contracts/MiniLend.sol\":11911:11926  _user(borrower) */\n      jump\t// in\n    tag_334:\n        /* \"src/contracts/MiniLend.sol\":11891:11926  User storage user = _user(borrower) */\n      swap1\n      pop\n        /* \"src/contracts/MiniLend.sol\":11941:11966  _activePosition(borrower) */\n      tag_335\n        /* \"src/contracts/MiniLend.sol\":11957:11965  borrower */\n      dup6\n        /* \"src/contracts/MiniLend.sol\":11941:11956  _activePosition */\n      tag_304\n        /* \"src/contracts/MiniLend.sol\":11941:11966  _activePosition(borrower) */\n      jump\t// in\n    tag_335:\n        /* \"src/contracts/MiniLend.sol\":11936:11993  if (!_activePosition(borrower)) revert NoActivePosition() */\n      tag_336\n      jumpi\n        /* \"src/contracts/MiniLend.sol\":11975:11993  NoActivePosition() */\n      mload(0x40)\n      0x33cbf2bc00000000000000000000000000000000000000000000000000000000\n      dup2\n      mstore\n      0x04\n      add\n      mload(0x40)\n      dup1\n      swap2\n      sub\n      swap1\n      revert\n        /* \"src/contracts/MiniLend.sol\":11936:11993  if (!_activePosition(borrower)) revert NoActivePosition() */\n    tag_336:\n        /* \"src/contracts/MiniLend.sol\":12004:12032  uint256 liquidationThreshold */\n      0x00\n        /* \"src/contracts/MiniLend.sol\":3034:3039  10000 */\n      0x2710\n        /* \"src/contracts/MiniLend.sol\":3125:3129  7500 */\n      0x1d4c\n        /* \"src/contracts/MiniLend.sol\":12036:12040  user */\n      dup4\n        /* \"src/contracts/MiniLend.sol\":12036:12053  user.stakedAmount */\n      0x01\n      add\n      sload\n        /* \"src/contracts/MiniLend.sol\":12036:12089  user.stakedAmount *... */\n      tag_337\n      swap2\n      swap1\n      tag_227\n      jump\t// in\n    tag_337:\n        /* \"src/contracts/MiniLend.sol\":12035:12108  (user.stakedAmount *... */\n      tag_338\n      swap2\n      swap1\n      tag_339\n      jump\t// in\n    tag_338:\n        /* \"src/contracts/MiniLend.sol\":12004:12108  uint256 liquidationThreshold = (user.stakedAmount *... */\n      swap1\n      pop\n        /* \"src/contracts/MiniLend.sol\":12118:12144  uint256 borrowedValueInUsd */\n      0x00\n        /* \"src/contracts/MiniLend.sol\":2981:2985  1e18 */\n      0x0de0b6b3a7640000\n        /* \"src/contracts/MiniLend.sol\":12195:12229  getLatestPrice(user.borrowedAsset) */\n      tag_340\n        /* \"src/contracts/MiniLend.sol\":12210:12214  user */\n      dup5\n        /* \"src/contracts/MiniLend.sol\":12210:12228  user.borrowedAsset */\n      0x02\n      add\n      0x00\n      swap1\n      sload\n      swap1\n      0x0100\n      exp\n      swap1\n      div\n      0xffffffffffffffffffffffffffffffffffffffff\n      and\n        /* \"src/contracts/MiniLend.sol\":12195:12209  getLatestPrice */\n      tag_49\n        /* \"src/contracts/MiniLend.sol\":12195:12229  getLatestPrice(user.borrowedAsset) */\n      jump\t// in\n    tag_340:\n        /* \"src/contracts/MiniLend.sol\":12148:12152  user */\n      dup5\n        /* \"src/contracts/MiniLend.sol\":12148:12172  user.borrowedAssetAmount */\n      0x03\n      add\n      sload\n        /* \"src/contracts/MiniLend.sol\":12148:12230  user.borrowedAssetAmount *... */\n      tag_341\n      swap2\n      swap1\n      tag_227\n      jump\t// in\n    tag_341:\n        /* \"src/contracts/MiniLend.sol\":12147:12237  (user.borrowedAssetAmount *... */\n      tag_342\n      swap2\n      swap1\n      tag_339\n      jump\t// in\n    tag_342:\n        /* \"src/contracts/MiniLend.sol\":12118:12237  uint256 borrowedValueInUsd = (user.borrowedAssetAmount *... */\n      swap1\n      pop\n        /* \"src/contracts/MiniLend.sol\":12273:12293  liquidationThreshold */\n      dup2\n        /* \"src/contracts/MiniLend.sol\":12252:12270  borrowedValueInUsd */\n      dup2\n        /* \"src/contracts/MiniLend.sol\":12252:12293  borrowedValueInUsd < liquidationThreshold */\n      lt\n        /* \"src/contracts/MiniLend.sol\":12248:12434  if (borrowedValueInUsd < liquidationThreshold) {... */\n      iszero\n      tag_343\n      jumpi\n        /* \"src/contracts/MiniLend.sol\":12353:12371  borrowedValueInUsd */\n      dup1\n        /* \"src/contracts/MiniLend.sol\":12389:12409  liquidationThreshold */\n      dup3\n        /* \"src/contracts/MiniLend.sol\":12316:12423  BorrowLimitExceeded(... */\n      mload(0x40)\n      0xd771d8e900000000000000000000000000000000000000000000000000000000\n      dup2\n      mstore\n      0x04\n      add\n      tag_344\n      swap3\n      swap2\n      swap1\n      tag_312\n      jump\t// in\n    tag_344:\n      mload(0x40)\n      dup1\n      swap2\n      sub\n      swap1\n      revert\n        /* \"src/contracts/MiniLend.sol\":12248:12434  if (borrowedValueInUsd < liquidationThreshold) {... */\n    tag_343:\n        /* \"src/contracts/MiniLend.sol\":12477:12481  user */\n      dup3\n        /* \"src/contracts/MiniLend.sol\":12477:12495  user.borrowedAsset */\n      0x02\n      add\n      0x00\n      swap1\n      sload\n      swap1\n      0x0100\n      exp\n      swap1\n      div\n      0xffffffffffffffffffffffffffffffffffffffff\n      and\n        /* \"src/contracts/MiniLend.sol\":12470:12504  IERC20(user.borrowedAsset).approve */\n      0xffffffffffffffffffffffffffffffffffffffff\n      and\n      0x095ea7b3\n        /* \"src/contracts/MiniLend.sol\":12513:12517  this */\n      address\n        /* \"src/contracts/MiniLend.sol\":12520:12531  repayAmount */\n      dup9\n        /* \"src/contracts/MiniLend.sol\":12470:12532  IERC20(user.borrowedAsset).approve(address(this), repayAmount) */\n      mload(0x40)\n      dup4\n      0xffffffff\n      and\n      0xe0\n      shl\n      dup2\n      mstore\n      0x04\n      add\n      tag_345\n      swap3\n      swap2\n      swap1\n      tag_314\n      jump\t// in\n    tag_345:\n      0x20\n      mload(0x40)\n      dup1\n      dup4\n      sub\n      dup2\n      0x00\n      dup8\n      gas\n      call\n      iszero\n      dup1\n      iszero\n      tag_347\n      jumpi\n      returndatacopy(0x00, 0x00, returndatasize)\n      revert(0x00, returndatasize)\n    tag_347:\n      pop\n      pop\n      pop\n      pop\n      mload(0x40)\n      returndatasize\n      not(0x1f)\n      0x1f\n      dup3\n      add\n      and\n      dup3\n      add\n      dup1\n      0x40\n      mstore\n      pop\n      dup2\n      add\n      swap1\n      tag_348\n      swap2\n      swap1\n      tag_318\n      jump\t// in\n    tag_348:\n      pop\n        /* \"src/contracts/MiniLend.sol\":12543:12554  bool sucess */\n      0x00\n        /* \"src/contracts/MiniLend.sol\":12564:12568  user */\n      dup4\n        /* \"src/contracts/MiniLend.sol\":12564:12582  user.borrowedAsset */\n      0x02\n      add\n      0x00\n      swap1\n      sload\n      swap1\n      0x0100\n      exp\n      swap1\n      div\n      0xffffffffffffffffffffffffffffffffffffffff\n      and\n        /* \"src/contracts/MiniLend.sol\":12557:12596  IERC20(user.borrowedAsset).transferFrom */\n      0xffffffffffffffffffffffffffffffffffffffff\n      and\n      0x23b872dd\n        /* \"src/contracts/MiniLend.sol\":12610:12620  msg.sender */\n      caller\n        /* \"src/contracts/MiniLend.sol\":12642:12646  this */\n      address\n        /* \"src/contracts/MiniLend.sol\":12661:12672  repayAmount */\n      dup11\n        /* \"src/contracts/MiniLend.sol\":12557:12682  IERC20(user.borrowedAsset).transferFrom(... */\n      mload(0x40)\n      dup5\n      0xffffffff\n      and\n      0xe0\n      shl\n      dup2\n      mstore\n      0x04\n      add\n      tag_349\n      swap4\n      swap3\n      swap2\n      swap1\n      tag_320\n      jump\t// in\n    tag_349:\n      0x20\n      mload(0x40)\n      dup1\n      dup4\n      sub\n      dup2\n      0x00\n      dup8\n      gas\n      call\n      iszero\n      dup1\n      iszero\n      tag_351\n      jumpi\n      returndatacopy(0x00, 0x00, returndatasize)\n      revert(0x00, returndatasize)\n    tag_351:\n      pop\n      pop\n      pop\n      pop\n      mload(0x40)\n      returndatasize\n      not(0x1f)\n      0x1f\n      dup3\n      add\n      and\n      dup3\n      add\n      dup1\n      0x40\n      mstore\n      pop\n      dup2\n      add\n      swap1\n      tag_352\n      swap2\n      swap1\n      tag_318\n      jump\t// in\n    tag_352:\n        /* \"src/contracts/MiniLend.sol\":12543:12682  bool sucess = IERC20(user.borrowedAsset).transferFrom(... */\n      swap1\n      pop\n        /* \"src/contracts/MiniLend.sol\":12698:12704  sucess */\n      dup1\n        /* \"src/contracts/MiniLend.sol\":12693:12784  if (!sucess)... */\n      tag_353\n      jumpi\n        /* \"src/contracts/MiniLend.sol\":12740:12744  user */\n      dup4\n        /* \"src/contracts/MiniLend.sol\":12740:12758  user.borrowedAsset */\n      0x02\n      add\n      0x00\n      swap1\n      sload\n      swap1\n      0x0100\n      exp\n      swap1\n      div\n      0xffffffffffffffffffffffffffffffffffffffff\n      and\n        /* \"src/contracts/MiniLend.sol\":12760:12770  msg.sender */\n      caller\n        /* \"src/contracts/MiniLend.sol\":12772:12783  repayAmount */\n      dup9\n        /* \"src/contracts/MiniLend.sol\":12725:12784  TransferFailed(user.borrowedAsset, msg.sender, repayAmount) */\n      mload(0x40)\n      0xbf182be800000000000000000000000000000000000000000000000000000000\n      dup2\n      mstore\n      0x04\n      add\n      tag_354\n      swap4\n      swap3\n      swap2\n      swap1\n      tag_320\n      jump\t// in\n    tag_354:\n      mload(0x40)\n      dup1\n      swap2\n      sub\n      swap1\n      revert\n        /* \"src/contracts/MiniLend.sol\":12693:12784  if (!sucess)... */\n    tag_353:\n        /* \"src/contracts/MiniLend.sol\":12847:12858  repayAmount */\n      dup7\n        /* \"src/contracts/MiniLend.sol\":12819:12823  user */\n      dup5\n        /* \"src/contracts/MiniLend.sol\":12819:12843  user.borrowedAssetAmount */\n      0x03\n      add\n      0x00\n        /* \"src/contracts/MiniLend.sol\":12819:12858  user.borrowedAssetAmount -= repayAmount */\n      dup3\n      dup3\n      sload\n      tag_355\n      swap2\n      swap1\n      tag_187\n      jump\t// in\n    tag_355:\n      swap3\n      pop\n      pop\n      dup2\n      swap1\n      sstore\n      pop\n        /* \"src/contracts/MiniLend.sol\":12914:12939  uint256 collateralToSeize */\n      0x00\n        /* \"src/contracts/MiniLend.sol\":12982:13014  getLatestPrice(user.stakedAsset) */\n      tag_356\n        /* \"src/contracts/MiniLend.sol\":12997:13001  user */\n      dup6\n        /* \"src/contracts/MiniLend.sol\":12997:13013  user.stakedAsset */\n      0x00\n      add\n      0x00\n      swap1\n      sload\n      swap1\n      0x0100\n      exp\n      swap1\n      div\n      0xffffffffffffffffffffffffffffffffffffffff\n      and\n        /* \"src/contracts/MiniLend.sol\":12982:12996  getLatestPrice */\n      tag_49\n        /* \"src/contracts/MiniLend.sol\":12982:13014  getLatestPrice(user.stakedAsset) */\n      jump\t// in\n    tag_356:\n        /* \"src/contracts/MiniLend.sol\":2981:2985  1e18 */\n      0x0de0b6b3a7640000\n      dup1\n        /* \"src/contracts/MiniLend.sol\":12943:12954  repayAmount */\n      dup11\n        /* \"src/contracts/MiniLend.sol\":12943:12960  repayAmount * WAD */\n      tag_357\n      swap2\n      swap1\n      tag_227\n      jump\t// in\n    tag_357:\n        /* \"src/contracts/MiniLend.sol\":12943:12966  repayAmount * WAD * WAD */\n      tag_358\n      swap2\n      swap1\n      tag_227\n      jump\t// in\n    tag_358:\n        /* \"src/contracts/MiniLend.sol\":12942:13014  (repayAmount * WAD * WAD) /... */\n      tag_359\n      swap2\n      swap1\n      tag_339\n      jump\t// in\n    tag_359:\n        /* \"src/contracts/MiniLend.sol\":12914:13014  uint256 collateralToSeize = (repayAmount * WAD * WAD) /... */\n      swap1\n      pop\n        /* \"src/contracts/MiniLend.sol\":13049:13053  user */\n      dup5\n        /* \"src/contracts/MiniLend.sol\":13049:13066  user.stakedAmount */\n      0x01\n      add\n      sload\n        /* \"src/contracts/MiniLend.sol\":13029:13046  collateralToSeize */\n      dup2\n        /* \"src/contracts/MiniLend.sol\":13029:13066  collateralToSeize > user.stakedAmount */\n      gt\n        /* \"src/contracts/MiniLend.sol\":13025:13130  if (collateralToSeize > user.stakedAmount) {... */\n      iszero\n      tag_360\n      jumpi\n        /* \"src/contracts/MiniLend.sol\":13102:13106  user */\n      dup5\n        /* \"src/contracts/MiniLend.sol\":13102:13119  user.stakedAmount */\n      0x01\n      add\n      sload\n        /* \"src/contracts/MiniLend.sol\":13082:13119  collateralToSeize = user.stakedAmount */\n      swap1\n      pop\n        /* \"src/contracts/MiniLend.sol\":13025:13130  if (collateralToSeize > user.stakedAmount) {... */\n    tag_360:\n        /* \"src/contracts/MiniLend.sol\":13161:13178  collateralToSeize */\n      dup1\n        /* \"src/contracts/MiniLend.sol\":13140:13144  user */\n      dup6\n        /* \"src/contracts/MiniLend.sol\":13140:13157  user.stakedAmount */\n      0x01\n      add\n      0x00\n        /* \"src/contracts/MiniLend.sol\":13140:13178  user.stakedAmount -= collateralToSeize */\n      dup3\n      dup3\n      sload\n      tag_361\n      swap2\n      swap1\n      tag_187\n      jump\t// in\n    tag_361:\n      swap3\n      pop\n      pop\n      dup2\n      swap1\n      sstore\n      pop\n        /* \"src/contracts/MiniLend.sol\":13214:13226  bool success */\n      0x00\n        /* \"src/contracts/MiniLend.sol\":13240:13250  msg.sender */\n      caller\n        /* \"src/contracts/MiniLend.sol\":13232:13256  address(msg.sender).call */\n      0xffffffffffffffffffffffffffffffffffffffff\n      and\n        /* \"src/contracts/MiniLend.sol\":13264:13281  collateralToSeize */\n      dup3\n        /* \"src/contracts/MiniLend.sol\":13232:13308  address(msg.sender).call{value: collateralToSeize}(... */\n      mload(0x40)\n      tag_362\n      swap1\n      tag_363\n      jump\t// in\n    tag_362:\n      0x00\n      mload(0x40)\n      dup1\n      dup4\n      sub\n      dup2\n      dup6\n      dup8\n      gas\n      call\n      swap3\n      pop\n      pop\n      pop\n      returndatasize\n      dup1\n      0x00\n      dup2\n      eq\n      tag_366\n      jumpi\n      mload(0x40)\n      swap2\n      pop\n      and(add(returndatasize, 0x3f), not(0x1f))\n      dup3\n      add\n      0x40\n      mstore\n      returndatasize\n      dup3\n      mstore\n      returndatasize\n      0x00\n      0x20\n      dup5\n      add\n      returndatacopy\n      jump(tag_365)\n    tag_366:\n      0x60\n      swap2\n      pop\n    tag_365:\n      pop\n        /* \"src/contracts/MiniLend.sol\":13213:13308  (bool success, ) = address(msg.sender).call{value: collateralToSeize}(... */\n      pop\n      swap1\n      pop\n        /* \"src/contracts/MiniLend.sol\":13323:13330  success */\n      dup1\n        /* \"src/contracts/MiniLend.sol\":13318:13408  if (!success)... */\n      tag_367\n      jumpi\n        /* \"src/contracts/MiniLend.sol\":13374:13375  0 */\n      0x00\n        /* \"src/contracts/MiniLend.sol\":13378:13388  msg.sender */\n      caller\n        /* \"src/contracts/MiniLend.sol\":13390:13407  collateralToSeize */\n      dup4\n        /* \"src/contracts/MiniLend.sol\":13351:13408  TransferFailed(address(0), msg.sender, collateralToSeize) */\n      mload(0x40)\n      0xbf182be800000000000000000000000000000000000000000000000000000000\n      dup2\n      mstore\n      0x04\n      add\n      tag_368\n      swap4\n      swap3\n      swap2\n      swap1\n      tag_320\n      jump\t// in\n    tag_368:\n      mload(0x40)\n      dup1\n      swap2\n      sub\n      swap1\n      revert\n        /* \"src/contracts/MiniLend.sol\":13318:13408  if (!success)... */\n    tag_367:\n        /* \"src/contracts/MiniLend.sol\":13451:13452  0 */\n      0x00\n        /* \"src/contracts/MiniLend.sol\":13423:13427  user */\n      dup7\n        /* \"src/contracts/MiniLend.sol\":13423:13447  user.borrowedAssetAmount */\n      0x03\n      add\n      sload\n        /* \"src/contracts/MiniLend.sol\":13423:13452  user.borrowedAssetAmount == 0 */\n      eq\n        /* \"src/contracts/MiniLend.sol\":13423:13478  user.borrowedAssetAmount == 0 && user.stakedAmount == 0 */\n      dup1\n      iszero\n      tag_369\n      jumpi\n      pop\n        /* \"src/contracts/MiniLend.sol\":13477:13478  0 */\n      0x00\n        /* \"src/contracts/MiniLend.sol\":13456:13460  user */\n      dup7\n        /* \"src/contracts/MiniLend.sol\":13456:13473  user.stakedAmount */\n      0x01\n      add\n      sload\n        /* \"src/contracts/MiniLend.sol\":13456:13478  user.stakedAmount == 0 */\n      eq\n        /* \"src/contracts/MiniLend.sol\":13423:13478  user.borrowedAssetAmount == 0 && user.stakedAmount == 0 */\n    tag_369:\n        /* \"src/contracts/MiniLend.sol\":13419:13523  if (user.borrowedAssetAmount == 0 && user.stakedAmount == 0) {... */\n      iszero\n      tag_370\n      jumpi\n        /* \"src/contracts/MiniLend.sol\":13494:13512  _default(borrower) */\n      tag_371\n        /* \"src/contracts/MiniLend.sol\":13503:13511  borrower */\n      dup11\n        /* \"src/contracts/MiniLend.sol\":13494:13502  _default */\n      tag_372\n        /* \"src/contracts/MiniLend.sol\":13494:13512  _default(borrower) */\n      jump\t// in\n    tag_371:\n        /* \"src/contracts/MiniLend.sol\":13419:13523  if (user.borrowedAssetAmount == 0 && user.stakedAmount == 0) {... */\n    tag_370:\n        /* \"src/contracts/MiniLend.sol\":11881:13529  {... */\n      pop\n      pop\n      pop\n      pop\n      pop\n      pop\n        /* \"src/contracts/MiniLend.sol\":3421:3422  _ */\n      pop\n        /* \"src/contracts/MiniLend.sol\":11740:13529  function liquidate(... */\n      pop\n      pop\n      pop\n      jump\t// out\n        /* \"src/contracts/MiniLend.sol\":6742:7359  function getUsdValue(... */\n    tag_141:\n        /* \"src/contracts/MiniLend.sol\":6837:6853  uint256 usdValue */\n      0x00\n        /* \"src/contracts/MiniLend.sol\":6931:6944  uint256 price */\n      0x00\n        /* \"src/contracts/MiniLend.sol\":6955:6976  getLatestPrice(token) */\n      tag_374\n        /* \"src/contracts/MiniLend.sol\":6970:6975  token */\n      dup5\n        /* \"src/contracts/MiniLend.sol\":6955:6969  getLatestPrice */\n      tag_49\n        /* \"src/contracts/MiniLend.sol\":6955:6976  getLatestPrice(token) */\n      jump\t// in\n    tag_374:\n        /* \"src/contracts/MiniLend.sol\":6931:6977  uint256 price = uint256(getLatestPrice(token)) */\n      swap1\n      pop\n        /* \"src/contracts/MiniLend.sol\":7015:7016  0 */\n      0x00\n        /* \"src/contracts/MiniLend.sol\":7006:7011  price */\n      dup2\n        /* \"src/contracts/MiniLend.sol\":7006:7016  price == 0 */\n      sub\n        /* \"src/contracts/MiniLend.sol\":7002:7026  if (price == 0) return 0 */\n      tag_375\n      jumpi\n        /* \"src/contracts/MiniLend.sol\":7025:7026  0 */\n      0x00\n        /* \"src/contracts/MiniLend.sol\":7018:7026  return 0 */\n      swap2\n      pop\n      pop\n      jump(tag_373)\n        /* \"src/contracts/MiniLend.sol\":7002:7026  if (price == 0) return 0 */\n    tag_375:\n        /* \"src/contracts/MiniLend.sol\":7067:7086  uint8 tokenDecimals */\n      0x00\n        /* \"src/contracts/MiniLend.sol\":7089:7113  _getTokenDecimals(token) */\n      tag_376\n        /* \"src/contracts/MiniLend.sol\":7107:7112  token */\n      dup6\n        /* \"src/contracts/MiniLend.sol\":7089:7106  _getTokenDecimals */\n      tag_377\n        /* \"src/contracts/MiniLend.sol\":7089:7113  _getTokenDecimals(token) */\n      jump\t// in\n    tag_376:\n        /* \"src/contracts/MiniLend.sol\":7067:7113  uint8 tokenDecimals = _getTokenDecimals(token) */\n      swap1\n      pop\n        /* \"src/contracts/MiniLend.sol\":7173:7197  uint256 normalizedAmount */\n      0x00\n        /* \"src/contracts/MiniLend.sol\":7222:7235  tokenDecimals */\n      dup2\n        /* \"src/contracts/MiniLend.sol\":7217:7219  18 */\n      0x12\n        /* \"src/contracts/MiniLend.sol\":7217:7235  18 - tokenDecimals */\n      tag_378\n      swap2\n      swap1\n      tag_379\n      jump\t// in\n    tag_378:\n        /* \"src/contracts/MiniLend.sol\":7210:7212  10 */\n      0x0a\n        /* \"src/contracts/MiniLend.sol\":7210:7236  10 ** (18 - tokenDecimals) */\n      tag_380\n      swap2\n      swap1\n      tag_381\n      jump\t// in\n    tag_380:\n        /* \"src/contracts/MiniLend.sol\":7200:7206  amount */\n      dup6\n        /* \"src/contracts/MiniLend.sol\":7200:7237  amount * (10 ** (18 - tokenDecimals)) */\n      tag_382\n      swap2\n      swap1\n      tag_227\n      jump\t// in\n    tag_382:\n        /* \"src/contracts/MiniLend.sol\":7173:7237  uint256 normalizedAmount = amount * (10 ** (18 - tokenDecimals)) */\n      swap1\n      pop\n        /* \"src/contracts/MiniLend.sol\":7348:7352  1e18 */\n      0x0de0b6b3a7640000\n        /* \"src/contracts/MiniLend.sol\":7339:7344  price */\n      dup4\n        /* \"src/contracts/MiniLend.sol\":7320:7336  normalizedAmount */\n      dup3\n        /* \"src/contracts/MiniLend.sol\":7320:7344  normalizedAmount * price */\n      tag_383\n      swap2\n      swap1\n      tag_227\n      jump\t// in\n    tag_383:\n        /* \"src/contracts/MiniLend.sol\":7319:7352  (normalizedAmount * price) / 1e18 */\n      tag_384\n      swap2\n      swap1\n      tag_339\n      jump\t// in\n    tag_384:\n        /* \"src/contracts/MiniLend.sol\":7308:7352  usdValue = (normalizedAmount * price) / 1e18 */\n      swap4\n      pop\n        /* \"src/contracts/MiniLend.sol\":7301:7352  return usdValue = (normalizedAmount * price) / 1e18 */\n      pop\n      pop\n      pop\n        /* \"src/contracts/MiniLend.sol\":6742:7359  function getUsdValue(... */\n    tag_373:\n      swap3\n      swap2\n      pop\n      pop\n      jump\t// out\n        /* \"src/contracts/MiniLend.sol\":10975:11734  function withdrawCollateralEth(... */\n    tag_146:\n        /* \"@openzeppelin/contracts/security/ReentrancyGuard.sol\":2261:2282  _nonReentrantBefore() */\n      tag_386\n        /* \"@openzeppelin/contracts/security/ReentrancyGuard.sol\":2261:2280  _nonReentrantBefore */\n      tag_153\n        /* \"@openzeppelin/contracts/security/ReentrancyGuard.sol\":2261:2282  _nonReentrantBefore() */\n      jump\t// in\n    tag_386:\n        /* \"src/contracts/MiniLend.sol\":11070:11076  amount */\n      dup1\n        /* \"src/contracts/MiniLend.sol\":3498:3499  0 */\n      0x00\n        /* \"src/contracts/MiniLend.sol\":3488:3494  amount */\n      dup2\n        /* \"src/contracts/MiniLend.sol\":3488:3499  amount == 0 */\n      sub\n        /* \"src/contracts/MiniLend.sol\":3484:3523  if (amount == 0) revert InvalidAmount() */\n      tag_388\n      jumpi\n        /* \"src/contracts/MiniLend.sol\":3508:3523  InvalidAmount() */\n      mload(0x40)\n      0x2c5211c600000000000000000000000000000000000000000000000000000000\n      dup2\n      mstore\n      0x04\n      add\n      mload(0x40)\n      dup1\n      swap2\n      sub\n      swap1\n      revert\n        /* \"src/contracts/MiniLend.sol\":3484:3523  if (amount == 0) revert InvalidAmount() */\n    tag_388:\n        /* \"src/contracts/MiniLend.sol\":11088:11105  User storage user */\n      0x00\n        /* \"src/contracts/MiniLend.sol\":11108:11125  _user(msg.sender) */\n      tag_390\n        /* \"src/contracts/MiniLend.sol\":11114:11124  msg.sender */\n      caller\n        /* \"src/contracts/MiniLend.sol\":11108:11113  _user */\n      tag_164\n        /* \"src/contracts/MiniLend.sol\":11108:11125  _user(msg.sender) */\n      jump\t// in\n    tag_390:\n        /* \"src/contracts/MiniLend.sol\":11088:11125  User storage user = _user(msg.sender) */\n      swap1\n      pop\n        /* \"src/contracts/MiniLend.sol\":11167:11168  0 */\n      0x00\n        /* \"src/contracts/MiniLend.sol\":11139:11143  user */\n      dup2\n        /* \"src/contracts/MiniLend.sol\":11139:11163  user.borrowedAssetAmount */\n      0x03\n      add\n      sload\n        /* \"src/contracts/MiniLend.sol\":11139:11168  user.borrowedAssetAmount != 0 */\n      eq\n        /* \"src/contracts/MiniLend.sol\":11135:11243  if (user.borrowedAssetAmount != 0)... */\n      tag_391\n      jumpi\n        /* \"src/contracts/MiniLend.sol\":11218:11222  user */\n      dup1\n        /* \"src/contracts/MiniLend.sol\":11218:11242  user.borrowedAssetAmount */\n      0x03\n      add\n      sload\n        /* \"src/contracts/MiniLend.sol\":11189:11243  BorrowedAmountNotFullyRepaid(user.borrowedAssetAmount) */\n      mload(0x40)\n      0x40a636fb00000000000000000000000000000000000000000000000000000000\n      dup2\n      mstore\n      0x04\n      add\n      tag_392\n      swap2\n      swap1\n      tag_51\n      jump\t// in\n    tag_392:\n      mload(0x40)\n      dup1\n      swap2\n      sub\n      swap1\n      revert\n        /* \"src/contracts/MiniLend.sol\":11135:11243  if (user.borrowedAssetAmount != 0)... */\n    tag_391:\n        /* \"src/contracts/MiniLend.sol\":11266:11270  user */\n      dup1\n        /* \"src/contracts/MiniLend.sol\":11266:11283  user.stakedAmount */\n      0x01\n      add\n      sload\n        /* \"src/contracts/MiniLend.sol\":11257:11263  amount */\n      dup4\n        /* \"src/contracts/MiniLend.sol\":11257:11283  amount > user.stakedAmount */\n      gt\n        /* \"src/contracts/MiniLend.sol\":11253:11350  if (amount > user.stakedAmount)... */\n      iszero\n      tag_393\n      jumpi\n        /* \"src/contracts/MiniLend.sol\":11324:11328  user */\n      dup1\n        /* \"src/contracts/MiniLend.sol\":11324:11341  user.stakedAmount */\n      0x01\n      add\n      sload\n        /* \"src/contracts/MiniLend.sol\":11343:11349  amount */\n      dup4\n        /* \"src/contracts/MiniLend.sol\":11304:11350  NotEnoughCollateral(user.stakedAmount, amount) */\n      mload(0x40)\n      0x768063db00000000000000000000000000000000000000000000000000000000\n      dup2\n      mstore\n      0x04\n      add\n      tag_394\n      swap3\n      swap2\n      swap1\n      tag_312\n      jump\t// in\n    tag_394:\n      mload(0x40)\n      dup1\n      swap2\n      sub\n      swap1\n      revert\n        /* \"src/contracts/MiniLend.sol\":11253:11350  if (amount > user.stakedAmount)... */\n    tag_393:\n        /* \"src/contracts/MiniLend.sol\":11386:11398  bool success */\n      0x00\n        /* \"src/contracts/MiniLend.sol\":11412:11422  msg.sender */\n      caller\n        /* \"src/contracts/MiniLend.sol\":11404:11428  address(msg.sender).call */\n      0xffffffffffffffffffffffffffffffffffffffff\n      and\n        /* \"src/contracts/MiniLend.sol\":11436:11442  amount */\n      dup5\n        /* \"src/contracts/MiniLend.sol\":11404:11447  address(msg.sender).call{value: amount}(\"\") */\n      mload(0x40)\n      tag_395\n      swap1\n      tag_363\n      jump\t// in\n    tag_395:\n      0x00\n      mload(0x40)\n      dup1\n      dup4\n      sub\n      dup2\n      dup6\n      dup8\n      gas\n      call\n      swap3\n      pop\n      pop\n      pop\n      returndatasize\n      dup1\n      0x00\n      dup2\n      eq\n      tag_398\n      jumpi\n      mload(0x40)\n      swap2\n      pop\n      and(add(returndatasize, 0x3f), not(0x1f))\n      dup3\n      add\n      0x40\n      mstore\n      returndatasize\n      dup3\n      mstore\n      returndatasize\n      0x00\n      0x20\n      dup5\n      add\n      returndatacopy\n      jump(tag_397)\n    tag_398:\n      0x60\n      swap2\n      pop\n    tag_397:\n      pop\n        /* \"src/contracts/MiniLend.sol\":11385:11447  (bool success, ) = address(msg.sender).call{value: amount}(\"\") */\n      pop\n      swap1\n      pop\n        /* \"src/contracts/MiniLend.sol\":11462:11469  success */\n      dup1\n        /* \"src/contracts/MiniLend.sol\":11457:11524  if (!success) revert TransferFailed(address(0), msg.sender, amount) */\n      tag_399\n      jumpi\n        /* \"src/contracts/MiniLend.sol\":11501:11502  0 */\n      0x00\n        /* \"src/contracts/MiniLend.sol\":11505:11515  msg.sender */\n      caller\n        /* \"src/contracts/MiniLend.sol\":11517:11523  amount */\n      dup6\n        /* \"src/contracts/MiniLend.sol\":11478:11524  TransferFailed(address(0), msg.sender, amount) */\n      mload(0x40)\n      0xbf182be800000000000000000000000000000000000000000000000000000000\n      dup2\n      mstore\n      0x04\n      add\n      tag_400\n      swap4\n      swap3\n      swap2\n      swap1\n      tag_320\n      jump\t// in\n    tag_400:\n      mload(0x40)\n      dup1\n      swap2\n      sub\n      swap1\n      revert\n        /* \"src/contracts/MiniLend.sol\":11457:11524  if (!success) revert TransferFailed(address(0), msg.sender, amount) */\n    tag_399:\n        /* \"src/contracts/MiniLend.sol\":11580:11586  amount */\n      dup4\n        /* \"src/contracts/MiniLend.sol\":11559:11563  user */\n      dup3\n        /* \"src/contracts/MiniLend.sol\":11559:11576  user.stakedAmount */\n      0x01\n      add\n      0x00\n        /* \"src/contracts/MiniLend.sol\":11559:11586  user.stakedAmount -= amount */\n      dup3\n      dup3\n      sload\n      tag_401\n      swap2\n      swap1\n      tag_187\n      jump\t// in\n    tag_401:\n      swap3\n      pop\n      pop\n      dup2\n      swap1\n      sstore\n      pop\n        /* \"src/contracts/MiniLend.sol\":11622:11623  0 */\n      0x00\n        /* \"src/contracts/MiniLend.sol\":11601:11605  user */\n      dup3\n        /* \"src/contracts/MiniLend.sol\":11601:11618  user.stakedAmount */\n      0x01\n      add\n      sload\n        /* \"src/contracts/MiniLend.sol\":11601:11623  user.stakedAmount == 0 */\n      sub\n        /* \"src/contracts/MiniLend.sol\":11597:11670  if (user.stakedAmount == 0) {... */\n      tag_402\n      jumpi\n        /* \"src/contracts/MiniLend.sol\":11639:11659  _default(msg.sender) */\n      tag_403\n        /* \"src/contracts/MiniLend.sol\":11648:11658  msg.sender */\n      caller\n        /* \"src/contracts/MiniLend.sol\":11639:11647  _default */\n      tag_372\n        /* \"src/contracts/MiniLend.sol\":11639:11659  _default(msg.sender) */\n      jump\t// in\n    tag_403:\n        /* \"src/contracts/MiniLend.sol\":11597:11670  if (user.stakedAmount == 0) {... */\n    tag_402:\n        /* \"src/contracts/MiniLend.sol\":11708:11718  msg.sender */\n      caller\n        /* \"src/contracts/MiniLend.sol\":11685:11727  ETHCollateralWithdrawn(msg.sender, amount) */\n      0xffffffffffffffffffffffffffffffffffffffff\n      and\n      0x5b0743acabce0ea09498b3c2598ed444f80ef6513a2029d7d9aaed87064d1edb\n        /* \"src/contracts/MiniLend.sol\":11720:11726  amount */\n      dup6\n        /* \"src/contracts/MiniLend.sol\":11685:11727  ETHCollateralWithdrawn(msg.sender, amount) */\n      mload(0x40)\n      tag_404\n      swap2\n      swap1\n      tag_51\n      jump\t// in\n    tag_404:\n      mload(0x40)\n      dup1\n      swap2\n      sub\n      swap1\n      log2\n        /* \"src/contracts/MiniLend.sol\":11078:11734  {... */\n      pop\n      pop\n        /* \"@openzeppelin/contracts/security/ReentrancyGuard.sol\":2292:2293  _ */\n      pop\n        /* \"@openzeppelin/contracts/security/ReentrancyGuard.sol\":2303:2323  _nonReentrantAfter() */\n      tag_405\n        /* \"@openzeppelin/contracts/security/ReentrancyGuard.sol\":2303:2321  _nonReentrantAfter */\n      tag_176\n        /* \"@openzeppelin/contracts/security/ReentrancyGuard.sol\":2303:2323  _nonReentrantAfter() */\n      jump\t// in\n    tag_405:\n        /* \"src/contracts/MiniLend.sol\":10975:11734  function withdrawCollateralEth(... */\n      pop\n      jump\t// out\n        /* \"@openzeppelin/contracts/access/Ownable.sol\":2543:2758  function transferOwnership(address newOwner) public virtual onlyOwner {... */\n    tag_150:\n        /* \"@openzeppelin/contracts/access/Ownable.sol\":1531:1544  _checkOwner() */\n      tag_407\n        /* \"@openzeppelin/contracts/access/Ownable.sol\":1531:1542  _checkOwner */\n      tag_179\n        /* \"@openzeppelin/contracts/access/Ownable.sol\":1531:1544  _checkOwner() */\n      jump\t// in\n    tag_407:\n        /* \"@openzeppelin/contracts/access/Ownable.sol\":2647:2648  0 */\n      0x00\n        /* \"@openzeppelin/contracts/access/Ownable.sol\":2627:2649  newOwner == address(0) */\n      0xffffffffffffffffffffffffffffffffffffffff\n      and\n        /* \"@openzeppelin/contracts/access/Ownable.sol\":2627:2635  newOwner */\n      dup2\n        /* \"@openzeppelin/contracts/access/Ownable.sol\":2627:2649  newOwner == address(0) */\n      0xffffffffffffffffffffffffffffffffffffffff\n      and\n      sub\n        /* \"@openzeppelin/contracts/access/Ownable.sol\":2623:2714  if (newOwner == address(0)) {... */\n      tag_409\n      jumpi\n        /* \"@openzeppelin/contracts/access/Ownable.sol\":2700:2701  0 */\n      0x00\n        /* \"@openzeppelin/contracts/access/Ownable.sol\":2672:2703  OwnableInvalidOwner(address(0)) */\n      mload(0x40)\n      0x1e4fbdf700000000000000000000000000000000000000000000000000000000\n      dup2\n      mstore\n      0x04\n      add\n      tag_410\n      swap2\n      swap1\n      tag_105\n      jump\t// in\n    tag_410:\n      mload(0x40)\n      dup1\n      swap2\n      sub\n      swap1\n      revert\n        /* \"@openzeppelin/contracts/access/Ownable.sol\":2623:2714  if (newOwner == address(0)) {... */\n    tag_409:\n        /* \"@openzeppelin/contracts/access/Ownable.sol\":2723:2751  _transferOwnership(newOwner) */\n      tag_411\n        /* \"@openzeppelin/contracts/access/Ownable.sol\":2742:2750  newOwner */\n      dup2\n        /* \"@openzeppelin/contracts/access/Ownable.sol\":2723:2741  _transferOwnership */\n      tag_261\n        /* \"@openzeppelin/contracts/access/Ownable.sol\":2723:2751  _transferOwnership(newOwner) */\n      jump\t// in\n    tag_411:\n        /* \"@openzeppelin/contracts/access/Ownable.sol\":2543:2758  function transferOwnership(address newOwner) public virtual onlyOwner {... */\n      pop\n      jump\t// out\n        /* \"@openzeppelin/contracts/security/ReentrancyGuard.sol\":2336:2623  function _nonReentrantBefore() private {... */\n    tag_153:\n        /* \"@openzeppelin/contracts/security/ReentrancyGuard.sol\":1759:1760  2 */\n      0x02\n        /* \"@openzeppelin/contracts/security/ReentrancyGuard.sol\":2468:2475  _status */\n      sload(0x00)\n        /* \"@openzeppelin/contracts/security/ReentrancyGuard.sol\":2468:2487  _status != _ENTERED */\n      sub\n        /* \"@openzeppelin/contracts/security/ReentrancyGuard.sol\":2460:2523  require(_status != _ENTERED, \"ReentrancyGuard: reentrant call\") */\n      tag_413\n      jumpi\n      mload(0x40)\n      0x08c379a000000000000000000000000000000000000000000000000000000000\n      dup2\n      mstore\n      0x04\n      add\n      tag_414\n      swap1\n      tag_415\n      jump\t// in\n    tag_414:\n      mload(0x40)\n      dup1\n      swap2\n      sub\n      swap1\n      revert\n    tag_413:\n        /* \"@openzeppelin/contracts/security/ReentrancyGuard.sol\":1759:1760  2 */\n      0x02\n        /* \"@openzeppelin/contracts/security/ReentrancyGuard.sol\":2598:2605  _status */\n      0x00\n        /* \"@openzeppelin/contracts/security/ReentrancyGuard.sol\":2598:2616  _status = _ENTERED */\n      dup2\n      swap1\n      sstore\n      pop\n        /* \"@openzeppelin/contracts/security/ReentrancyGuard.sol\":2336:2623  function _nonReentrantBefore() private {... */\n      jump\t// out\n        /* \"src/contracts/MiniLend.sol\":13595:13696  function _user(address user) internal view returns (User storage) {... */\n    tag_164:\n        /* \"src/contracts/MiniLend.sol\":13647:13659  User storage */\n      0x00\n        /* \"src/contracts/MiniLend.sol\":13678:13683  users */\n      0x02\n        /* \"src/contracts/MiniLend.sol\":13678:13689  users[user] */\n      0x00\n        /* \"src/contracts/MiniLend.sol\":13684:13688  user */\n      dup4\n        /* \"src/contracts/MiniLend.sol\":13678:13689  users[user] */\n      0xffffffffffffffffffffffffffffffffffffffff\n      and\n      0xffffffffffffffffffffffffffffffffffffffff\n      and\n      dup2\n      mstore\n      0x20\n      add\n      swap1\n      dup2\n      mstore\n      0x20\n      add\n      0x00\n      keccak256\n        /* \"src/contracts/MiniLend.sol\":13671:13689  return users[user] */\n      swap1\n      pop\n        /* \"src/contracts/MiniLend.sol\":13595:13696  function _user(address user) internal view returns (User storage) {... */\n      swap2\n      swap1\n      pop\n      jump\t// out\n        /* \"src/contracts/MiniLend.sol\":13702:13821  function _hasCollateral(address user) internal view returns (bool) {... */\n    tag_166:\n        /* \"src/contracts/MiniLend.sol\":13763:13767  bool */\n      0x00\n        /* \"src/contracts/MiniLend.sol\":13813:13814  0 */\n      0x00\n        /* \"src/contracts/MiniLend.sol\":13786:13791  users */\n      0x02\n        /* \"src/contracts/MiniLend.sol\":13786:13797  users[user] */\n      0x00\n        /* \"src/contracts/MiniLend.sol\":13792:13796  user */\n      dup5\n        /* \"src/contracts/MiniLend.sol\":13786:13797  users[user] */\n      0xffffffffffffffffffffffffffffffffffffffff\n      and\n      0xffffffffffffffffffffffffffffffffffffffff\n      and\n      dup2\n      mstore\n      0x20\n      add\n      swap1\n      dup2\n      mstore\n      0x20\n      add\n      0x00\n      keccak256\n        /* \"src/contracts/MiniLend.sol\":13786:13810  users[user].stakedAmount */\n      0x01\n      add\n      sload\n        /* \"src/contracts/MiniLend.sol\":13786:13814  users[user].stakedAmount > 0 */\n      gt\n        /* \"src/contracts/MiniLend.sol\":13779:13814  return users[user].stakedAmount > 0 */\n      swap1\n      pop\n        /* \"src/contracts/MiniLend.sol\":13702:13821  function _hasCollateral(address user) internal view returns (bool) {... */\n      swap2\n      swap1\n      pop\n      jump\t// out\n        /* \"src/contracts/MiniLend.sol\":15090:16702  function _borrowableAmount(... */\n    tag_169:\n        /* \"src/contracts/MiniLend.sol\":15191:15198  uint256 */\n      0x00\n        /* \"src/contracts/MiniLend.sol\":15210:15224  User storage u */\n      0x00\n        /* \"src/contracts/MiniLend.sol\":15227:15238  _user(user) */\n      tag_419\n        /* \"src/contracts/MiniLend.sol\":15233:15237  user */\n      dup5\n        /* \"src/contracts/MiniLend.sol\":15227:15232  _user */\n      tag_164\n        /* \"src/contracts/MiniLend.sol\":15227:15238  _user(user) */\n      jump\t// in\n    tag_419:\n        /* \"src/contracts/MiniLend.sol\":15210:15238  User storage u = _user(user) */\n      swap1\n      pop\n        /* \"src/contracts/MiniLend.sol\":15308:15309  0 */\n      0x00\n        /* \"src/contracts/MiniLend.sol\":15290:15291  u */\n      dup2\n        /* \"src/contracts/MiniLend.sol\":15290:15304  u.stakedAmount */\n      0x01\n      add\n      sload\n        /* \"src/contracts/MiniLend.sol\":15290:15309  u.stakedAmount == 0 */\n      sub\n        /* \"src/contracts/MiniLend.sol\":15286:15365  if (u.stakedAmount == 0) {... */\n      tag_420\n      jumpi\n        /* \"src/contracts/MiniLend.sol\":15332:15354  NoCollateralProvided() */\n      mload(0x40)\n      0xb016be5e00000000000000000000000000000000000000000000000000000000\n      dup2\n      mstore\n      0x04\n      add\n      mload(0x40)\n      dup1\n      swap2\n      sub\n      swap1\n      revert\n        /* \"src/contracts/MiniLend.sol\":15286:15365  if (u.stakedAmount == 0) {... */\n    tag_420:\n        /* \"src/contracts/MiniLend.sol\":15457:15458  0 */\n      0x00\n        /* \"src/contracts/MiniLend.sol\":15428:15459  priceFeeds[token] == address(0) */\n      0xffffffffffffffffffffffffffffffffffffffff\n      and\n        /* \"src/contracts/MiniLend.sol\":15428:15438  priceFeeds */\n      0x03\n        /* \"src/contracts/MiniLend.sol\":15428:15445  priceFeeds[token] */\n      0x00\n        /* \"src/contracts/MiniLend.sol\":15439:15444  token */\n      dup6\n        /* \"src/contracts/MiniLend.sol\":15428:15445  priceFeeds[token] */\n      0xffffffffffffffffffffffffffffffffffffffff\n      and\n      0xffffffffffffffffffffffffffffffffffffffff\n      and\n      dup2\n      mstore\n      0x20\n      add\n      swap1\n      dup2\n      mstore\n      0x20\n      add\n      0x00\n      keccak256\n      0x00\n      swap1\n      sload\n      swap1\n      0x0100\n      exp\n      swap1\n      div\n      0xffffffffffffffffffffffffffffffffffffffff\n      and\n        /* \"src/contracts/MiniLend.sol\":15428:15459  priceFeeds[token] == address(0) */\n      0xffffffffffffffffffffffffffffffffffffffff\n      and\n      sub\n        /* \"src/contracts/MiniLend.sol\":15424:15512  if (priceFeeds[token] == address(0)) {... */\n      tag_421\n      jumpi\n        /* \"src/contracts/MiniLend.sol\":15495:15500  token */\n      dup3\n        /* \"src/contracts/MiniLend.sol\":15482:15501  InvalidAsset(token) */\n      mload(0x40)\n      0x6f79c78a00000000000000000000000000000000000000000000000000000000\n      dup2\n      mstore\n      0x04\n      add\n      tag_422\n      swap2\n      swap1\n      tag_105\n      jump\t// in\n    tag_422:\n      mload(0x40)\n      dup1\n      swap2\n      sub\n      swap1\n      revert\n        /* \"src/contracts/MiniLend.sol\":15424:15512  if (priceFeeds[token] == address(0)) {... */\n    tag_421:\n        /* \"src/contracts/MiniLend.sol\":15564:15585  uint256 assetUsdValue */\n      0x00\n        /* \"src/contracts/MiniLend.sol\":15588:15630  getUsdValue(u.stakedAsset, u.stakedAmount) */\n      tag_423\n        /* \"src/contracts/MiniLend.sol\":15600:15601  u */\n      dup3\n        /* \"src/contracts/MiniLend.sol\":15600:15613  u.stakedAsset */\n      0x00\n      add\n      0x00\n      swap1\n      sload\n      swap1\n      0x0100\n      exp\n      swap1\n      div\n      0xffffffffffffffffffffffffffffffffffffffff\n      and\n        /* \"src/contracts/MiniLend.sol\":15615:15616  u */\n      dup4\n        /* \"src/contracts/MiniLend.sol\":15615:15629  u.stakedAmount */\n      0x01\n      add\n      sload\n        /* \"src/contracts/MiniLend.sol\":15588:15599  getUsdValue */\n      tag_141\n        /* \"src/contracts/MiniLend.sol\":15588:15630  getUsdValue(u.stakedAsset, u.stakedAmount) */\n      jump\t// in\n    tag_423:\n        /* \"src/contracts/MiniLend.sol\":15564:15630  uint256 assetUsdValue = getUsdValue(u.stakedAsset, u.stakedAmount) */\n      swap1\n      pop\n        /* \"src/contracts/MiniLend.sol\":15691:15713  uint256 borrowingPower */\n      0x00\n        /* \"src/contracts/MiniLend.sol\":3034:3039  10000 */\n      0x2710\n        /* \"src/contracts/MiniLend.sol\":15733:15736  LTV */\n      sload(0x08)\n        /* \"src/contracts/MiniLend.sol\":15717:15730  assetUsdValue */\n      dup4\n        /* \"src/contracts/MiniLend.sol\":15717:15736  assetUsdValue * LTV */\n      tag_424\n      swap2\n      swap1\n      tag_227\n      jump\t// in\n    tag_424:\n        /* \"src/contracts/MiniLend.sol\":15716:15755  (assetUsdValue * LTV) / PCT_DENOMINATOR */\n      tag_425\n      swap2\n      swap1\n      tag_339\n      jump\t// in\n    tag_425:\n        /* \"src/contracts/MiniLend.sol\":15691:15755  uint256 borrowingPower = (assetUsdValue * LTV) / PCT_DENOMINATOR */\n      swap1\n      pop\n        /* \"src/contracts/MiniLend.sol\":15821:15840  uint256 borrowedUsd */\n      0x00\n        /* \"src/contracts/MiniLend.sol\":15843:15844  0 */\n      0x00\n        /* \"src/contracts/MiniLend.sol\":15821:15844  uint256 borrowedUsd = 0 */\n      swap1\n      pop\n        /* \"src/contracts/MiniLend.sol\":15882:15883  0 */\n      0x00\n        /* \"src/contracts/MiniLend.sol\":15858:15859  u */\n      dup5\n        /* \"src/contracts/MiniLend.sol\":15858:15879  u.borrowedAssetAmount */\n      0x03\n      add\n      sload\n        /* \"src/contracts/MiniLend.sol\":15858:15883  u.borrowedAssetAmount > 0 */\n      gt\n        /* \"src/contracts/MiniLend.sol\":15854:15975  if (u.borrowedAssetAmount > 0) {... */\n      iszero\n      tag_426\n      jumpi\n        /* \"src/contracts/MiniLend.sol\":15913:15964  getUsdValue(u.borrowedAsset, u.borrowedAssetAmount) */\n      tag_427\n        /* \"src/contracts/MiniLend.sol\":15925:15926  u */\n      dup5\n        /* \"src/contracts/MiniLend.sol\":15925:15940  u.borrowedAsset */\n      0x02\n      add\n      0x00\n      swap1\n      sload\n      swap1\n      0x0100\n      exp\n      swap1\n      div\n      0xffffffffffffffffffffffffffffffffffffffff\n      and\n        /* \"src/contracts/MiniLend.sol\":15942:15943  u */\n      dup6\n        /* \"src/contracts/MiniLend.sol\":15942:15963  u.borrowedAssetAmount */\n      0x03\n      add\n      sload\n        /* \"src/contracts/MiniLend.sol\":15913:15924  getUsdValue */\n      tag_141\n        /* \"src/contracts/MiniLend.sol\":15913:15964  getUsdValue(u.borrowedAsset, u.borrowedAssetAmount) */\n      jump\t// in\n    tag_427:\n        /* \"src/contracts/MiniLend.sol\":15899:15964  borrowedUsd = getUsdValue(u.borrowedAsset, u.borrowedAssetAmount) */\n      swap1\n      pop\n        /* \"src/contracts/MiniLend.sol\":15854:15975  if (u.borrowedAssetAmount > 0) {... */\n    tag_426:\n        /* \"src/contracts/MiniLend.sol\":16066:16080  borrowingPower */\n      dup2\n        /* \"src/contracts/MiniLend.sol\":16051:16062  borrowedUsd */\n      dup2\n        /* \"src/contracts/MiniLend.sol\":16051:16080  borrowedUsd >= borrowingPower */\n      lt\n        /* \"src/contracts/MiniLend.sol\":16047:16151  if (borrowedUsd >= borrowingPower) {... */\n      tag_428\n      jumpi\n        /* \"src/contracts/MiniLend.sol\":16103:16104  0 */\n      0x00\n        /* \"src/contracts/MiniLend.sol\":16096:16104  return 0 */\n      swap5\n      pop\n      pop\n      pop\n      pop\n      pop\n      jump(tag_418)\n        /* \"src/contracts/MiniLend.sol\":16047:16151  if (borrowedUsd >= borrowingPower) {... */\n    tag_428:\n        /* \"src/contracts/MiniLend.sol\":16199:16229  uint256 availableToBorrowInUsd */\n      0x00\n        /* \"src/contracts/MiniLend.sol\":16249:16260  borrowedUsd */\n      dup2\n        /* \"src/contracts/MiniLend.sol\":16232:16246  borrowingPower */\n      dup4\n        /* \"src/contracts/MiniLend.sol\":16232:16260  borrowingPower - borrowedUsd */\n      tag_429\n      swap2\n      swap1\n      tag_187\n      jump\t// in\n    tag_429:\n        /* \"src/contracts/MiniLend.sol\":16199:16260  uint256 availableToBorrowInUsd = borrowingPower - borrowedUsd */\n      swap1\n      pop\n        /* \"src/contracts/MiniLend.sol\":16300:16301  0 */\n      0x00\n        /* \"src/contracts/MiniLend.sol\":16274:16296  availableToBorrowInUsd */\n      dup2\n        /* \"src/contracts/MiniLend.sol\":16274:16301  availableToBorrowInUsd == 0 */\n      sub\n        /* \"src/contracts/MiniLend.sol\":16270:16336  if (availableToBorrowInUsd == 0) {... */\n      tag_430\n      jumpi\n        /* \"src/contracts/MiniLend.sol\":16324:16325  0 */\n      0x00\n        /* \"src/contracts/MiniLend.sol\":16317:16325  return 0 */\n      swap6\n      pop\n      pop\n      pop\n      pop\n      pop\n      pop\n      jump(tag_418)\n        /* \"src/contracts/MiniLend.sol\":16270:16336  if (availableToBorrowInUsd == 0) {... */\n    tag_430:\n        /* \"src/contracts/MiniLend.sol\":16404:16422  uint256 tokenPrice */\n      0x00\n        /* \"src/contracts/MiniLend.sol\":16425:16446  getLatestPrice(token) */\n      tag_431\n        /* \"src/contracts/MiniLend.sol\":16440:16445  token */\n      dup9\n        /* \"src/contracts/MiniLend.sol\":16425:16439  getLatestPrice */\n      tag_49\n        /* \"src/contracts/MiniLend.sol\":16425:16446  getLatestPrice(token) */\n      jump\t// in\n    tag_431:\n        /* \"src/contracts/MiniLend.sol\":16404:16446  uint256 tokenPrice = getLatestPrice(token) */\n      swap1\n      pop\n        /* \"src/contracts/MiniLend.sol\":16594:16617  uint256 borrowableToken */\n      0x00\n        /* \"src/contracts/MiniLend.sol\":16653:16663  tokenPrice */\n      dup2\n        /* \"src/contracts/MiniLend.sol\":2981:2985  1e18 */\n      0x0de0b6b3a7640000\n        /* \"src/contracts/MiniLend.sol\":16621:16643  availableToBorrowInUsd */\n      dup5\n        /* \"src/contracts/MiniLend.sol\":16621:16649  availableToBorrowInUsd * WAD */\n      tag_432\n      swap2\n      swap1\n      tag_227\n      jump\t// in\n    tag_432:\n        /* \"src/contracts/MiniLend.sol\":16620:16663  (availableToBorrowInUsd * WAD) / tokenPrice */\n      tag_433\n      swap2\n      swap1\n      tag_339\n      jump\t// in\n    tag_433:\n        /* \"src/contracts/MiniLend.sol\":16594:16663  uint256 borrowableToken = (availableToBorrowInUsd * WAD) / tokenPrice */\n      swap1\n      pop\n        /* \"src/contracts/MiniLend.sol\":16680:16695  borrowableToken */\n      dup1\n        /* \"src/contracts/MiniLend.sol\":16673:16695  return borrowableToken */\n      swap8\n      pop\n      pop\n      pop\n      pop\n      pop\n      pop\n      pop\n      pop\n        /* \"src/contracts/MiniLend.sol\":15090:16702  function _borrowableAmount(... */\n    tag_418:\n      swap3\n      swap2\n      pop\n      pop\n      jump\t// out\n        /* \"src/contracts/MiniLend.sol\":14688:15084  function _poolTransfer(address token, address to, uint256 amount) internal {... */\n    tag_173:\n        /* \"src/contracts/MiniLend.sol\":14773:14783  IERC20 erc */\n      0x00\n        /* \"src/contracts/MiniLend.sol\":14793:14798  token */\n      dup4\n        /* \"src/contracts/MiniLend.sol\":14773:14799  IERC20 erc = IERC20(token) */\n      swap1\n      pop\n        /* \"src/contracts/MiniLend.sol\":14809:14824  uint256 balance */\n      0x00\n        /* \"src/contracts/MiniLend.sol\":14827:14830  erc */\n      dup2\n        /* \"src/contracts/MiniLend.sol\":14827:14840  erc.balanceOf */\n      0xffffffffffffffffffffffffffffffffffffffff\n      and\n      0x70a08231\n        /* \"src/contracts/MiniLend.sol\":14849:14853  this */\n      address\n        /* \"src/contracts/MiniLend.sol\":14827:14855  erc.balanceOf(address(this)) */\n      mload(0x40)\n      dup3\n      0xffffffff\n      and\n      0xe0\n      shl\n      dup2\n      mstore\n      0x04\n      add\n      tag_435\n      swap2\n      swap1\n      tag_105\n      jump\t// in\n    tag_435:\n      0x20\n      mload(0x40)\n      dup1\n      dup4\n      sub\n      dup2\n      dup7\n      gas\n      staticcall\n      iszero\n      dup1\n      iszero\n      tag_437\n      jumpi\n      returndatacopy(0x00, 0x00, returndatasize)\n      revert(0x00, returndatasize)\n    tag_437:\n      pop\n      pop\n      pop\n      pop\n      mload(0x40)\n      returndatasize\n      not(0x1f)\n      0x1f\n      dup3\n      add\n      and\n      dup3\n      add\n      dup1\n      0x40\n      mstore\n      pop\n      dup2\n      add\n      swap1\n      tag_438\n      swap2\n      swap1\n      tag_244\n      jump\t// in\n    tag_438:\n        /* \"src/contracts/MiniLend.sol\":14809:14855  uint256 balance = erc.balanceOf(address(this)) */\n      swap1\n      pop\n        /* \"src/contracts/MiniLend.sol\":14880:14886  amount */\n      dup3\n        /* \"src/contracts/MiniLend.sol\":14870:14877  balance */\n      dup2\n        /* \"src/contracts/MiniLend.sol\":14870:14886  balance < amount */\n      lt\n        /* \"src/contracts/MiniLend.sol\":14866:14960  if (balance < amount) {... */\n      iszero\n      tag_439\n      jumpi\n        /* \"src/contracts/MiniLend.sol\":14933:14940  balance */\n      dup1\n        /* \"src/contracts/MiniLend.sol\":14942:14948  amount */\n      dup4\n        /* \"src/contracts/MiniLend.sol\":14909:14949  InsufficientPoolBalance(balance, amount) */\n      mload(0x40)\n      0xce9514f900000000000000000000000000000000000000000000000000000000\n      dup2\n      mstore\n      0x04\n      add\n      tag_440\n      swap3\n      swap2\n      swap1\n      tag_312\n      jump\t// in\n    tag_440:\n      mload(0x40)\n      dup1\n      swap2\n      sub\n      swap1\n      revert\n        /* \"src/contracts/MiniLend.sol\":14866:14960  if (balance < amount) {... */\n    tag_439:\n        /* \"src/contracts/MiniLend.sol\":14970:14981  bool sucess */\n      0x00\n        /* \"src/contracts/MiniLend.sol\":14984:14987  erc */\n      dup3\n        /* \"src/contracts/MiniLend.sol\":14984:14996  erc.transfer */\n      0xffffffffffffffffffffffffffffffffffffffff\n      and\n      0xa9059cbb\n        /* \"src/contracts/MiniLend.sol\":14997:14999  to */\n      dup7\n        /* \"src/contracts/MiniLend.sol\":15001:15007  amount */\n      dup7\n        /* \"src/contracts/MiniLend.sol\":14984:15008  erc.transfer(to, amount) */\n      mload(0x40)\n      dup4\n      0xffffffff\n      and\n      0xe0\n      shl\n      dup2\n      mstore\n      0x04\n      add\n      tag_441\n      swap3\n      swap2\n      swap1\n      tag_314\n      jump\t// in\n    tag_441:\n      0x20\n      mload(0x40)\n      dup1\n      dup4\n      sub\n      dup2\n      0x00\n      dup8\n      gas\n      call\n      iszero\n      dup1\n      iszero\n      tag_443\n      jumpi\n      returndatacopy(0x00, 0x00, returndatasize)\n      revert(0x00, returndatasize)\n    tag_443:\n      pop\n      pop\n      pop\n      pop\n      mload(0x40)\n      returndatasize\n      not(0x1f)\n      0x1f\n      dup3\n      add\n      and\n      dup3\n      add\n      dup1\n      0x40\n      mstore\n      pop\n      dup2\n      add\n      swap1\n      tag_444\n      swap2\n      swap1\n      tag_318\n      jump\t// in\n    tag_444:\n        /* \"src/contracts/MiniLend.sol\":14970:15008  bool sucess = erc.transfer(to, amount) */\n      swap1\n      pop\n        /* \"src/contracts/MiniLend.sol\":15024:15030  sucess */\n      dup1\n        /* \"src/contracts/MiniLend.sol\":15019:15077  if (!sucess) revert TokenTransferFailed(token, to, amount) */\n      tag_445\n      jumpi\n        /* \"src/contracts/MiniLend.sol\":15059:15064  token */\n      dup6\n        /* \"src/contracts/MiniLend.sol\":15066:15068  to */\n      dup6\n        /* \"src/contracts/MiniLend.sol\":15070:15076  amount */\n      dup6\n        /* \"src/contracts/MiniLend.sol\":15039:15077  TokenTransferFailed(token, to, amount) */\n      mload(0x40)\n      0xc877679800000000000000000000000000000000000000000000000000000000\n      dup2\n      mstore\n      0x04\n      add\n      tag_446\n      swap4\n      swap3\n      swap2\n      swap1\n      tag_320\n      jump\t// in\n    tag_446:\n      mload(0x40)\n      dup1\n      swap2\n      sub\n      swap1\n      revert\n        /* \"src/contracts/MiniLend.sol\":15019:15077  if (!sucess) revert TokenTransferFailed(token, to, amount) */\n    tag_445:\n        /* \"src/contracts/MiniLend.sol\":14763:15084  {... */\n      pop\n      pop\n      pop\n        /* \"src/contracts/MiniLend.sol\":14688:15084  function _poolTransfer(address token, address to, uint256 amount) internal {... */\n      pop\n      pop\n      pop\n      jump\t// out\n        /* \"@openzeppelin/contracts/security/ReentrancyGuard.sol\":2629:2838  function _nonReentrantAfter() private {... */\n    tag_176:\n        /* \"@openzeppelin/contracts/security/ReentrancyGuard.sol\":1716:1717  1 */\n      0x01\n        /* \"@openzeppelin/contracts/security/ReentrancyGuard.sol\":2809:2816  _status */\n      0x00\n        /* \"@openzeppelin/contracts/security/ReentrancyGuard.sol\":2809:2831  _status = _NOT_ENTERED */\n      dup2\n      swap1\n      sstore\n      pop\n        /* \"@openzeppelin/contracts/security/ReentrancyGuard.sol\":2629:2838  function _nonReentrantAfter() private {... */\n      jump\t// out\n        /* \"@openzeppelin/contracts/access/Ownable.sol\":1796:1958  function _checkOwner() internal view virtual {... */\n    tag_179:\n        /* \"@openzeppelin/contracts/access/Ownable.sol\":1866:1878  _msgSender() */\n      tag_449\n        /* \"@openzeppelin/contracts/access/Ownable.sol\":1866:1876  _msgSender */\n      tag_450\n        /* \"@openzeppelin/contracts/access/Ownable.sol\":1866:1878  _msgSender() */\n      jump\t// in\n    tag_449:\n        /* \"@openzeppelin/contracts/access/Ownable.sol\":1855:1878  owner() != _msgSender() */\n      0xffffffffffffffffffffffffffffffffffffffff\n      and\n        /* \"@openzeppelin/contracts/access/Ownable.sol\":1855:1862  owner() */\n      tag_451\n        /* \"@openzeppelin/contracts/access/Ownable.sol\":1855:1860  owner */\n      tag_103\n        /* \"@openzeppelin/contracts/access/Ownable.sol\":1855:1862  owner() */\n      jump\t// in\n    tag_451:\n        /* \"@openzeppelin/contracts/access/Ownable.sol\":1855:1878  owner() != _msgSender() */\n      0xffffffffffffffffffffffffffffffffffffffff\n      and\n      eq\n        /* \"@openzeppelin/contracts/access/Ownable.sol\":1851:1952  if (owner() != _msgSender()) {... */\n      tag_452\n      jumpi\n        /* \"@openzeppelin/contracts/access/Ownable.sol\":1928:1940  _msgSender() */\n      tag_453\n        /* \"@openzeppelin/contracts/access/Ownable.sol\":1928:1938  _msgSender */\n      tag_450\n        /* \"@openzeppelin/contracts/access/Ownable.sol\":1928:1940  _msgSender() */\n      jump\t// in\n    tag_453:\n        /* \"@openzeppelin/contracts/access/Ownable.sol\":1901:1941  OwnableUnauthorizedAccount(_msgSender()) */\n      mload(0x40)\n      0x118cdaa700000000000000000000000000000000000000000000000000000000\n      dup2\n      mstore\n      0x04\n      add\n      tag_454\n      swap2\n      swap1\n      tag_105\n      jump\t// in\n    tag_454:\n      mload(0x40)\n      dup1\n      swap2\n      sub\n      swap1\n      revert\n        /* \"@openzeppelin/contracts/access/Ownable.sol\":1851:1952  if (owner() != _msgSender()) {... */\n    tag_452:\n        /* \"@openzeppelin/contracts/access/Ownable.sol\":1796:1958  function _checkOwner() internal view virtual {... */\n      jump\t// out\n        /* \"@openzeppelin/contracts/access/Ownable.sol\":2912:3099  function _transferOwnership(address newOwner) internal virtual {... */\n    tag_261:\n        /* \"@openzeppelin/contracts/access/Ownable.sol\":2985:3001  address oldOwner */\n      0x00\n        /* \"@openzeppelin/contracts/access/Ownable.sol\":3004:3010  _owner */\n      0x01\n      0x00\n      swap1\n      sload\n      swap1\n      0x0100\n      exp\n      swap1\n      div\n      0xffffffffffffffffffffffffffffffffffffffff\n      and\n        /* \"@openzeppelin/contracts/access/Ownable.sol\":2985:3010  address oldOwner = _owner */\n      swap1\n      pop\n        /* \"@openzeppelin/contracts/access/Ownable.sol\":3029:3037  newOwner */\n      dup2\n        /* \"@openzeppelin/contracts/access/Ownable.sol\":3020:3026  _owner */\n      0x01\n      0x00\n        /* \"@openzeppelin/contracts/access/Ownable.sol\":3020:3037  _owner = newOwner */\n      0x0100\n      exp\n      dup2\n      sload\n      dup2\n      0xffffffffffffffffffffffffffffffffffffffff\n      mul\n      not\n      and\n      swap1\n      dup4\n      0xffffffffffffffffffffffffffffffffffffffff\n      and\n      mul\n      or\n      swap1\n      sstore\n      pop\n        /* \"@openzeppelin/contracts/access/Ownable.sol\":3083:3091  newOwner */\n      dup2\n        /* \"@openzeppelin/contracts/access/Ownable.sol\":3052:3092  OwnershipTransferred(oldOwner, newOwner) */\n      0xffffffffffffffffffffffffffffffffffffffff\n      and\n        /* \"@openzeppelin/contracts/access/Ownable.sol\":3073:3081  oldOwner */\n      dup2\n        /* \"@openzeppelin/contracts/access/Ownable.sol\":3052:3092  OwnershipTransferred(oldOwner, newOwner) */\n      0xffffffffffffffffffffffffffffffffffffffff\n      and\n      0x8be0079c531659141344cd1fd0a4f28419497f9722a3daafe3b4186f6b6457e0\n      mload(0x40)\n      mload(0x40)\n      dup1\n      swap2\n      sub\n      swap1\n      log3\n        /* \"@openzeppelin/contracts/access/Ownable.sol\":2975:3099  {... */\n      pop\n        /* \"@openzeppelin/contracts/access/Ownable.sol\":2912:3099  function _transferOwnership(address newOwner) internal virtual {... */\n      pop\n      jump\t// out\n        /* \"src/contracts/MiniLend.sol\":13827:13954  function _activePosition(address user) internal view returns (bool) {... */\n    tag_304:\n        /* \"src/contracts/MiniLend.sol\":13889:13893  bool */\n      0x00\n        /* \"src/contracts/MiniLend.sol\":13946:13947  0 */\n      0x00\n        /* \"src/contracts/MiniLend.sol\":13912:13917  users */\n      0x02\n        /* \"src/contracts/MiniLend.sol\":13912:13923  users[user] */\n      0x00\n        /* \"src/contracts/MiniLend.sol\":13918:13922  user */\n      dup5\n        /* \"src/contracts/MiniLend.sol\":13912:13923  users[user] */\n      0xffffffffffffffffffffffffffffffffffffffff\n      and\n      0xffffffffffffffffffffffffffffffffffffffff\n      and\n      dup2\n      mstore\n      0x20\n      add\n      swap1\n      dup2\n      mstore\n      0x20\n      add\n      0x00\n      keccak256\n        /* \"src/contracts/MiniLend.sol\":13912:13943  users[user].borrowedAssetAmount */\n      0x03\n      add\n      sload\n        /* \"src/contracts/MiniLend.sol\":13912:13947  users[user].borrowedAssetAmount > 0 */\n      gt\n        /* \"src/contracts/MiniLend.sol\":13905:13947  return users[user].borrowedAssetAmount > 0 */\n      swap1\n      pop\n        /* \"src/contracts/MiniLend.sol\":13827:13954  function _activePosition(address user) internal view returns (bool) {... */\n      swap2\n      swap1\n      pop\n      jump\t// out\n        /* \"src/contracts/MiniLend.sol\":13960:14133  function _repayWithBorrowedAsset(... */\n    tag_307:\n        /* \"src/contracts/MiniLend.sol\":14067:14071  bool */\n      0x00\n        /* \"src/contracts/MiniLend.sol\":14120:14125  token */\n      dup2\n        /* \"src/contracts/MiniLend.sol\":14091:14125  users[user].borrowedAsset == token */\n      0xffffffffffffffffffffffffffffffffffffffff\n      and\n        /* \"src/contracts/MiniLend.sol\":14091:14096  users */\n      0x02\n        /* \"src/contracts/MiniLend.sol\":14091:14102  users[user] */\n      0x00\n        /* \"src/contracts/MiniLend.sol\":14097:14101  user */\n      dup6\n        /* \"src/contracts/MiniLend.sol\":14091:14102  users[user] */\n      0xffffffffffffffffffffffffffffffffffffffff\n      and\n      0xffffffffffffffffffffffffffffffffffffffff\n      and\n      dup2\n      mstore\n      0x20\n      add\n      swap1\n      dup2\n      mstore\n      0x20\n      add\n      0x00\n      keccak256\n        /* \"src/contracts/MiniLend.sol\":14091:14116  users[user].borrowedAsset */\n      0x02\n      add\n      0x00\n      swap1\n      sload\n      swap1\n      0x0100\n      exp\n      swap1\n      div\n      0xffffffffffffffffffffffffffffffffffffffff\n      and\n        /* \"src/contracts/MiniLend.sol\":14091:14125  users[user].borrowedAsset == token */\n      0xffffffffffffffffffffffffffffffffffffffff\n      and\n      eq\n        /* \"src/contracts/MiniLend.sol\":14083:14126  return (users[user].borrowedAsset == token) */\n      swap1\n      pop\n        /* \"src/contracts/MiniLend.sol\":13960:14133  function _repayWithBorrowedAsset(... */\n      swap3\n      swap2\n      pop\n      pop\n      jump\t// out\n        /* \"src/contracts/MiniLend.sol\":14139:14362  function _default(address user) internal {... */\n    tag_372:\n        /* \"src/contracts/MiniLend.sol\":14190:14204  User storage u */\n      0x00\n        /* \"src/contracts/MiniLend.sol\":14207:14218  _user(user) */\n      tag_459\n        /* \"src/contracts/MiniLend.sol\":14213:14217  user */\n      dup3\n        /* \"src/contracts/MiniLend.sol\":14207:14212  _user */\n      tag_164\n        /* \"src/contracts/MiniLend.sol\":14207:14218  _user(user) */\n      jump\t// in\n    tag_459:\n        /* \"src/contracts/MiniLend.sol\":14190:14218  User storage u = _user(user) */\n      swap1\n      pop\n        /* \"src/contracts/MiniLend.sol\":14254:14255  0 */\n      0x00\n        /* \"src/contracts/MiniLend.sol\":14228:14229  u */\n      dup2\n        /* \"src/contracts/MiniLend.sol\":14228:14243  u.borrowedAsset */\n      0x02\n      add\n      0x00\n        /* \"src/contracts/MiniLend.sol\":14228:14256  u.borrowedAsset = address(0) */\n      0x0100\n      exp\n      dup2\n      sload\n      dup2\n      0xffffffffffffffffffffffffffffffffffffffff\n      mul\n      not\n      and\n      swap1\n      dup4\n      0xffffffffffffffffffffffffffffffffffffffff\n      and\n      mul\n      or\n      swap1\n      sstore\n      pop\n        /* \"src/contracts/MiniLend.sol\":14290:14291  0 */\n      0x00\n        /* \"src/contracts/MiniLend.sol\":14266:14267  u */\n      dup2\n        /* \"src/contracts/MiniLend.sol\":14266:14287  u.borrowedAssetAmount */\n      0x03\n      add\n        /* \"src/contracts/MiniLend.sol\":14266:14291  u.borrowedAssetAmount = 0 */\n      dup2\n      swap1\n      sstore\n      pop\n        /* \"src/contracts/MiniLend.sol\":14325:14326  0 */\n      0x00\n        /* \"src/contracts/MiniLend.sol\":14301:14302  u */\n      dup2\n        /* \"src/contracts/MiniLend.sol\":14301:14314  u.stakedAsset */\n      0x00\n      add\n      0x00\n        /* \"src/contracts/MiniLend.sol\":14301:14327  u.stakedAsset = address(0) */\n      0x0100\n      exp\n      dup2\n      sload\n      dup2\n      0xffffffffffffffffffffffffffffffffffffffff\n      mul\n      not\n      and\n      swap1\n      dup4\n      0xffffffffffffffffffffffffffffffffffffffff\n      and\n      mul\n      or\n      swap1\n      sstore\n      pop\n        /* \"src/contracts/MiniLend.sol\":14354:14355  0 */\n      0x00\n        /* \"src/contracts/MiniLend.sol\":14337:14338  u */\n      dup2\n        /* \"src/contracts/MiniLend.sol\":14337:14351  u.stakedAmount */\n      0x01\n      add\n        /* \"src/contracts/MiniLend.sol\":14337:14355  u.stakedAmount = 0 */\n      dup2\n      swap1\n      sstore\n      pop\n        /* \"src/contracts/MiniLend.sol\":14180:14362  {... */\n      pop\n        /* \"src/contracts/MiniLend.sol\":14139:14362  function _default(address user) internal {... */\n      pop\n      jump\t// out\n        /* \"src/contracts/MiniLend.sol\":14368:14682  function _getTokenDecimals(address token) internal view returns (uint8) {... */\n    tag_377:\n        /* \"src/contracts/MiniLend.sol\":14433:14438  uint8 */\n      0x00\n        /* \"src/contracts/MiniLend.sol\":14463:14473  ethAddress */\n      0x07\n      0x00\n      swap1\n      sload\n      swap1\n      0x0100\n      exp\n      swap1\n      div\n      0xffffffffffffffffffffffffffffffffffffffff\n      and\n        /* \"src/contracts/MiniLend.sol\":14454:14473  token == ethAddress */\n      0xffffffffffffffffffffffffffffffffffffffff\n      and\n        /* \"src/contracts/MiniLend.sol\":14454:14459  token */\n      dup3\n        /* \"src/contracts/MiniLend.sol\":14454:14473  token == ethAddress */\n      0xffffffffffffffffffffffffffffffffffffffff\n      and\n      sub\n        /* \"src/contracts/MiniLend.sol\":14450:14509  if (token == ethAddress) {... */\n      tag_461\n      jumpi\n        /* \"src/contracts/MiniLend.sol\":14496:14498  18 */\n      0x12\n        /* \"src/contracts/MiniLend.sol\":14489:14498  return 18 */\n      swap1\n      pop\n      jump(tag_460)\n        /* \"src/contracts/MiniLend.sol\":14450:14509  if (token == ethAddress) {... */\n    tag_461:\n        /* \"src/contracts/MiniLend.sol\":14537:14542  token */\n      dup2\n        /* \"src/contracts/MiniLend.sol\":14522:14552  IERC20Metadata(token).decimals */\n      0xffffffffffffffffffffffffffffffffffffffff\n      and\n      0x313ce567\n        /* \"src/contracts/MiniLend.sol\":14522:14554  IERC20Metadata(token).decimals() */\n      mload(0x40)\n      dup2\n      0xffffffff\n      and\n      0xe0\n      shl\n      dup2\n      mstore\n      0x04\n      add\n      0x20\n      mload(0x40)\n      dup1\n      dup4\n      sub\n      dup2\n      dup7\n      gas\n      staticcall\n      swap3\n      pop\n      pop\n      pop\n      dup1\n      iszero\n      tag_462\n      jumpi\n      pop\n      mload(0x40)\n      returndatasize\n      not(0x1f)\n      0x1f\n      dup3\n      add\n      and\n      dup3\n      add\n      dup1\n      0x40\n      mstore\n      pop\n      dup2\n      add\n      swap1\n      tag_463\n      swap2\n      swap1\n      tag_221\n      jump\t// in\n    tag_463:\n      0x01\n    tag_462:\n        /* \"src/contracts/MiniLend.sol\":14518:14676  try IERC20Metadata(token).decimals() returns (uint8 decimals) {... */\n      tag_464\n      jumpi\n        /* \"src/contracts/MiniLend.sol\":14648:14665  InvalidDecimals() */\n      mload(0x40)\n      0xd25598a000000000000000000000000000000000000000000000000000000000\n      dup2\n      mstore\n      0x04\n      add\n      mload(0x40)\n      dup1\n      swap2\n      sub\n      swap1\n      revert\n        /* \"src/contracts/MiniLend.sol\":14518:14676  try IERC20Metadata(token).decimals() returns (uint8 decimals) {... */\n    tag_464:\n        /* \"src/contracts/MiniLend.sol\":14601:14609  decimals */\n      dup1\n        /* \"src/contracts/MiniLend.sol\":14594:14609  return decimals */\n      swap2\n      pop\n      pop\n        /* \"src/contracts/MiniLend.sol\":14368:14682  function _getTokenDecimals(address token) internal view returns (uint8) {... */\n    tag_460:\n      swap2\n      swap1\n      pop\n      jump\t// out\n        /* \"@openzeppelin/contracts/utils/Context.sol\":656:752  function _msgSender() internal view virtual returns (address) {... */\n    tag_450:\n        /* \"@openzeppelin/contracts/utils/Context.sol\":709:716  address */\n      0x00\n        /* \"@openzeppelin/contracts/utils/Context.sol\":735:745  msg.sender */\n      caller\n        /* \"@openzeppelin/contracts/utils/Context.sol\":728:745  return msg.sender */\n      swap1\n      pop\n        /* \"@openzeppelin/contracts/utils/Context.sol\":656:752  function _msgSender() internal view virtual returns (address) {... */\n      swap1\n      jump\t// out\n        /* \"#utility.yul\":88:205   */\n    tag_471:\n        /* \"#utility.yul\":197:198   */\n      0x00\n        /* \"#utility.yul\":194:195   */\n      0x00\n        /* \"#utility.yul\":187:199   */\n      revert\n        /* \"#utility.yul\":334:460   */\n    tag_473:\n        /* \"#utility.yul\":371:378   */\n      0x00\n        /* \"#utility.yul\":411:453   */\n      0xffffffffffffffffffffffffffffffffffffffff\n        /* \"#utility.yul\":404:409   */\n      dup3\n        /* \"#utility.yul\":400:454   */\n      and\n        /* \"#utility.yul\":389:454   */\n      swap1\n      pop\n        /* \"#utility.yul\":334:460   */\n      swap2\n      swap1\n      pop\n      jump\t// out\n        /* \"#utility.yul\":466:562   */\n    tag_474:\n        /* \"#utility.yul\":503:510   */\n      0x00\n        /* \"#utility.yul\":532:556   */\n      tag_514\n        /* \"#utility.yul\":550:555   */\n      dup3\n        /* \"#utility.yul\":532:556   */\n      tag_473\n      jump\t// in\n    tag_514:\n        /* \"#utility.yul\":521:556   */\n      swap1\n      pop\n        /* \"#utility.yul\":466:562   */\n      swap2\n      swap1\n      pop\n      jump\t// out\n        /* \"#utility.yul\":568:690   */\n    tag_475:\n        /* \"#utility.yul\":641:665   */\n      tag_516\n        /* \"#utility.yul\":659:664   */\n      dup2\n        /* \"#utility.yul\":641:665   */\n      tag_474\n      jump\t// in\n    tag_516:\n        /* \"#utility.yul\":634:639   */\n      dup2\n        /* \"#utility.yul\":631:666   */\n      eq\n        /* \"#utility.yul\":621:684   */\n      tag_517\n      jumpi\n        /* \"#utility.yul\":680:681   */\n      0x00\n        /* \"#utility.yul\":677:678   */\n      0x00\n        /* \"#utility.yul\":670:682   */\n      revert\n        /* \"#utility.yul\":621:684   */\n    tag_517:\n        /* \"#utility.yul\":568:690   */\n      pop\n      jump\t// out\n        /* \"#utility.yul\":696:835   */\n    tag_476:\n        /* \"#utility.yul\":742:747   */\n      0x00\n        /* \"#utility.yul\":780:786   */\n      dup2\n        /* \"#utility.yul\":767:787   */\n      calldataload\n        /* \"#utility.yul\":758:787   */\n      swap1\n      pop\n        /* \"#utility.yul\":796:829   */\n      tag_519\n        /* \"#utility.yul\":823:828   */\n      dup2\n        /* \"#utility.yul\":796:829   */\n      tag_475\n      jump\t// in\n    tag_519:\n        /* \"#utility.yul\":696:835   */\n      swap3\n      swap2\n      pop\n      pop\n      jump\t// out\n        /* \"#utility.yul\":841:918   */\n    tag_477:\n        /* \"#utility.yul\":878:885   */\n      0x00\n        /* \"#utility.yul\":907:912   */\n      dup2\n        /* \"#utility.yul\":896:912   */\n      swap1\n      pop\n        /* \"#utility.yul\":841:918   */\n      swap2\n      swap1\n      pop\n      jump\t// out\n        /* \"#utility.yul\":924:1046   */\n    tag_478:\n        /* \"#utility.yul\":997:1021   */\n      tag_522\n        /* \"#utility.yul\":1015:1020   */\n      dup2\n        /* \"#utility.yul\":997:1021   */\n      tag_477\n      jump\t// in\n    tag_522:\n        /* \"#utility.yul\":990:995   */\n      dup2\n        /* \"#utility.yul\":987:1022   */\n      eq\n        /* \"#utility.yul\":977:1040   */\n      tag_523\n      jumpi\n        /* \"#utility.yul\":1036:1037   */\n      0x00\n        /* \"#utility.yul\":1033:1034   */\n      0x00\n        /* \"#utility.yul\":1026:1038   */\n      revert\n        /* \"#utility.yul\":977:1040   */\n    tag_523:\n        /* \"#utility.yul\":924:1046   */\n      pop\n      jump\t// out\n        /* \"#utility.yul\":1052:1191   */\n    tag_479:\n        /* \"#utility.yul\":1098:1103   */\n      0x00\n        /* \"#utility.yul\":1136:1142   */\n      dup2\n        /* \"#utility.yul\":1123:1143   */\n      calldataload\n        /* \"#utility.yul\":1114:1143   */\n      swap1\n      pop\n        /* \"#utility.yul\":1152:1185   */\n      tag_525\n        /* \"#utility.yul\":1179:1184   */\n      dup2\n        /* \"#utility.yul\":1152:1185   */\n      tag_478\n      jump\t// in\n    tag_525:\n        /* \"#utility.yul\":1052:1191   */\n      swap3\n      swap2\n      pop\n      pop\n      jump\t// out\n        /* \"#utility.yul\":1197:1671   */\n    tag_39:\n        /* \"#utility.yul\":1265:1271   */\n      0x00\n        /* \"#utility.yul\":1273:1279   */\n      0x00\n        /* \"#utility.yul\":1322:1324   */\n      0x40\n        /* \"#utility.yul\":1310:1319   */\n      dup4\n        /* \"#utility.yul\":1301:1308   */\n      dup6\n        /* \"#utility.yul\":1297:1320   */\n      sub\n        /* \"#utility.yul\":1293:1325   */\n      slt\n        /* \"#utility.yul\":1290:1409   */\n      iszero\n      tag_527\n      jumpi\n        /* \"#utility.yul\":1328:1407   */\n      tag_528\n      tag_471\n      jump\t// in\n    tag_528:\n        /* \"#utility.yul\":1290:1409   */\n    tag_527:\n        /* \"#utility.yul\":1448:1449   */\n      0x00\n        /* \"#utility.yul\":1473:1526   */\n      tag_529\n        /* \"#utility.yul\":1518:1525   */\n      dup6\n        /* \"#utility.yul\":1509:1515   */\n      dup3\n        /* \"#utility.yul\":1498:1507   */\n      dup7\n        /* \"#utility.yul\":1494:1516   */\n      add\n        /* \"#utility.yul\":1473:1526   */\n      tag_476\n      jump\t// in\n    tag_529:\n        /* \"#utility.yul\":1463:1526   */\n      swap3\n      pop\n        /* \"#utility.yul\":1419:1536   */\n      pop\n        /* \"#utility.yul\":1575:1577   */\n      0x20\n        /* \"#utility.yul\":1601:1654   */\n      tag_530\n        /* \"#utility.yul\":1646:1653   */\n      dup6\n        /* \"#utility.yul\":1637:1643   */\n      dup3\n        /* \"#utility.yul\":1626:1635   */\n      dup7\n        /* \"#utility.yul\":1622:1644   */\n      add\n        /* \"#utility.yul\":1601:1654   */\n      tag_479\n      jump\t// in\n    tag_530:\n        /* \"#utility.yul\":1591:1654   */\n      swap2\n      pop\n        /* \"#utility.yul\":1546:1664   */\n      pop\n        /* \"#utility.yul\":1197:1671   */\n      swap3\n      pop\n      swap3\n      swap1\n      pop\n      jump\t// out\n        /* \"#utility.yul\":1677:2006   */\n    tag_44:\n        /* \"#utility.yul\":1736:1742   */\n      0x00\n        /* \"#utility.yul\":1785:1787   */\n      0x20\n        /* \"#utility.yul\":1773:1782   */\n      dup3\n        /* \"#utility.yul\":1764:1771   */\n      dup5\n        /* \"#utility.yul\":1760:1783   */\n      sub\n        /* \"#utility.yul\":1756:1788   */\n      slt\n        /* \"#utility.yul\":1753:1872   */\n      iszero\n      tag_532\n      jumpi\n        /* \"#utility.yul\":1791:1870   */\n      tag_533\n      tag_471\n      jump\t// in\n    tag_533:\n        /* \"#utility.yul\":1753:1872   */\n    tag_532:\n        /* \"#utility.yul\":1911:1912   */\n      0x00\n        /* \"#utility.yul\":1936:1989   */\n      tag_534\n        /* \"#utility.yul\":1981:1988   */\n      dup5\n        /* \"#utility.yul\":1972:1978   */\n      dup3\n        /* \"#utility.yul\":1961:1970   */\n      dup6\n        /* \"#utility.yul\":1957:1979   */\n      add\n        /* \"#utility.yul\":1936:1989   */\n      tag_476\n      jump\t// in\n    tag_534:\n        /* \"#utility.yul\":1926:1989   */\n      swap2\n      pop\n        /* \"#utility.yul\":1882:1999   */\n      pop\n        /* \"#utility.yul\":1677:2006   */\n      swap3\n      swap2\n      pop\n      pop\n      jump\t// out\n        /* \"#utility.yul\":2012:2130   */\n    tag_480:\n        /* \"#utility.yul\":2099:2123   */\n      tag_536\n        /* \"#utility.yul\":2117:2122   */\n      dup2\n        /* \"#utility.yul\":2099:2123   */\n      tag_477\n      jump\t// in\n    tag_536:\n        /* \"#utility.yul\":2094:2097   */\n      dup3\n        /* \"#utility.yul\":2087:2124   */\n      mstore\n        /* \"#utility.yul\":2012:2130   */\n      pop\n      pop\n      jump\t// out\n        /* \"#utility.yul\":2136:2358   */\n    tag_51:\n        /* \"#utility.yul\":2229:2233   */\n      0x00\n        /* \"#utility.yul\":2267:2269   */\n      0x20\n        /* \"#utility.yul\":2256:2265   */\n      dup3\n        /* \"#utility.yul\":2252:2270   */\n      add\n        /* \"#utility.yul\":2244:2270   */\n      swap1\n      pop\n        /* \"#utility.yul\":2280:2351   */\n      tag_538\n        /* \"#utility.yul\":2348:2349   */\n      0x00\n        /* \"#utility.yul\":2337:2346   */\n      dup4\n        /* \"#utility.yul\":2333:2350   */\n      add\n        /* \"#utility.yul\":2324:2330   */\n      dup5\n        /* \"#utility.yul\":2280:2351   */\n      tag_480\n      jump\t// in\n    tag_538:\n        /* \"#utility.yul\":2136:2358   */\n      swap3\n      swap2\n      pop\n      pop\n      jump\t// out\n        /* \"#utility.yul\":2364:2693   */\n    tag_55:\n        /* \"#utility.yul\":2423:2429   */\n      0x00\n        /* \"#utility.yul\":2472:2474   */\n      0x20\n        /* \"#utility.yul\":2460:2469   */\n      dup3\n        /* \"#utility.yul\":2451:2458   */\n      dup5\n        /* \"#utility.yul\":2447:2470   */\n      sub\n        /* \"#utility.yul\":2443:2475   */\n      slt\n        /* \"#utility.yul\":2440:2559   */\n      iszero\n      tag_540\n      jumpi\n        /* \"#utility.yul\":2478:2557   */\n      tag_541\n      tag_471\n      jump\t// in\n    tag_541:\n        /* \"#utility.yul\":2440:2559   */\n    tag_540:\n        /* \"#utility.yul\":2598:2599   */\n      0x00\n        /* \"#utility.yul\":2623:2676   */\n      tag_542\n        /* \"#utility.yul\":2668:2675   */\n      dup5\n        /* \"#utility.yul\":2659:2665   */\n      dup3\n        /* \"#utility.yul\":2648:2657   */\n      dup6\n        /* \"#utility.yul\":2644:2666   */\n      add\n        /* \"#utility.yul\":2623:2676   */\n      tag_479\n      jump\t// in\n    tag_542:\n        /* \"#utility.yul\":2613:2676   */\n      swap2\n      pop\n        /* \"#utility.yul\":2569:2686   */\n      pop\n        /* \"#utility.yul\":2364:2693   */\n      swap3\n      swap2\n      pop\n      pop\n      jump\t// out\n        /* \"#utility.yul\":2699:3173   */\n    tag_65:\n        /* \"#utility.yul\":2767:2773   */\n      0x00\n        /* \"#utility.yul\":2775:2781   */\n      0x00\n        /* \"#utility.yul\":2824:2826   */\n      0x40\n        /* \"#utility.yul\":2812:2821   */\n      dup4\n        /* \"#utility.yul\":2803:2810   */\n      dup6\n        /* \"#utility.yul\":2799:2822   */\n      sub\n        /* \"#utility.yul\":2795:2827   */\n      slt\n        /* \"#utility.yul\":2792:2911   */\n      iszero\n      tag_544\n      jumpi\n        /* \"#utility.yul\":2830:2909   */\n      tag_545\n      tag_471\n      jump\t// in\n    tag_545:\n        /* \"#utility.yul\":2792:2911   */\n    tag_544:\n        /* \"#utility.yul\":2950:2951   */\n      0x00\n        /* \"#utility.yul\":2975:3028   */\n      tag_546\n        /* \"#utility.yul\":3020:3027   */\n      dup6\n        /* \"#utility.yul\":3011:3017   */\n      dup3\n        /* \"#utility.yul\":3000:3009   */\n      dup7\n        /* \"#utility.yul\":2996:3018   */\n      add\n        /* \"#utility.yul\":2975:3028   */\n      tag_476\n      jump\t// in\n    tag_546:\n        /* \"#utility.yul\":2965:3028   */\n      swap3\n      pop\n        /* \"#utility.yul\":2921:3038   */\n      pop\n        /* \"#utility.yul\":3077:3079   */\n      0x20\n        /* \"#utility.yul\":3103:3156   */\n      tag_547\n        /* \"#utility.yul\":3148:3155   */\n      dup6\n        /* \"#utility.yul\":3139:3145   */\n      dup3\n        /* \"#utility.yul\":3128:3137   */\n      dup7\n        /* \"#utility.yul\":3124:3146   */\n      add\n        /* \"#utility.yul\":3103:3156   */\n      tag_476\n      jump\t// in\n    tag_547:\n        /* \"#utility.yul\":3093:3156   */\n      swap2\n      pop\n        /* \"#utility.yul\":3048:3166   */\n      pop\n        /* \"#utility.yul\":2699:3173   */\n      swap3\n      pop\n      swap3\n      swap1\n      pop\n      jump\t// out\n        /* \"#utility.yul\":3179:3269   */\n    tag_481:\n        /* \"#utility.yul\":3213:3220   */\n      0x00\n        /* \"#utility.yul\":3256:3261   */\n      dup2\n        /* \"#utility.yul\":3249:3262   */\n      iszero\n        /* \"#utility.yul\":3242:3263   */\n      iszero\n        /* \"#utility.yul\":3231:3263   */\n      swap1\n      pop\n        /* \"#utility.yul\":3179:3269   */\n      swap2\n      swap1\n      pop\n      jump\t// out\n        /* \"#utility.yul\":3275:3384   */\n    tag_482:\n        /* \"#utility.yul\":3356:3377   */\n      tag_550\n        /* \"#utility.yul\":3371:3376   */\n      dup2\n        /* \"#utility.yul\":3356:3377   */\n      tag_481\n      jump\t// in\n    tag_550:\n        /* \"#utility.yul\":3351:3354   */\n      dup3\n        /* \"#utility.yul\":3344:3378   */\n      mstore\n        /* \"#utility.yul\":3275:3384   */\n      pop\n      pop\n      jump\t// out\n        /* \"#utility.yul\":3390:3600   */\n    tag_85:\n        /* \"#utility.yul\":3477:3481   */\n      0x00\n        /* \"#utility.yul\":3515:3517   */\n      0x20\n        /* \"#utility.yul\":3504:3513   */\n      dup3\n        /* \"#utility.yul\":3500:3518   */\n      add\n        /* \"#utility.yul\":3492:3518   */\n      swap1\n      pop\n        /* \"#utility.yul\":3528:3593   */\n      tag_552\n        /* \"#utility.yul\":3590:3591   */\n      0x00\n        /* \"#utility.yul\":3579:3588   */\n      dup4\n        /* \"#utility.yul\":3575:3592   */\n      add\n        /* \"#utility.yul\":3566:3572   */\n      dup5\n        /* \"#utility.yul\":3528:3593   */\n      tag_482\n      jump\t// in\n    tag_552:\n        /* \"#utility.yul\":3390:3600   */\n      swap3\n      swap2\n      pop\n      pop\n      jump\t// out\n        /* \"#utility.yul\":3606:3724   */\n    tag_483:\n        /* \"#utility.yul\":3693:3717   */\n      tag_554\n        /* \"#utility.yul\":3711:3716   */\n      dup2\n        /* \"#utility.yul\":3693:3717   */\n      tag_474\n      jump\t// in\n    tag_554:\n        /* \"#utility.yul\":3688:3691   */\n      dup3\n        /* \"#utility.yul\":3681:3718   */\n      mstore\n        /* \"#utility.yul\":3606:3724   */\n      pop\n      pop\n      jump\t// out\n        /* \"#utility.yul\":3730:4283   */\n    tag_91:\n        /* \"#utility.yul\":3907:3911   */\n      0x00\n        /* \"#utility.yul\":3945:3948   */\n      0x80\n        /* \"#utility.yul\":3934:3943   */\n      dup3\n        /* \"#utility.yul\":3930:3949   */\n      add\n        /* \"#utility.yul\":3922:3949   */\n      swap1\n      pop\n        /* \"#utility.yul\":3959:4030   */\n      tag_556\n        /* \"#utility.yul\":4027:4028   */\n      0x00\n        /* \"#utility.yul\":4016:4025   */\n      dup4\n        /* \"#utility.yul\":4012:4029   */\n      add\n        /* \"#utility.yul\":4003:4009   */\n      dup8\n        /* \"#utility.yul\":3959:4030   */\n      tag_483\n      jump\t// in\n    tag_556:\n        /* \"#utility.yul\":4040:4112   */\n      tag_557\n        /* \"#utility.yul\":4108:4110   */\n      0x20\n        /* \"#utility.yul\":4097:4106   */\n      dup4\n        /* \"#utility.yul\":4093:4111   */\n      add\n        /* \"#utility.yul\":4084:4090   */\n      dup7\n        /* \"#utility.yul\":4040:4112   */\n      tag_480\n      jump\t// in\n    tag_557:\n        /* \"#utility.yul\":4122:4194   */\n      tag_558\n        /* \"#utility.yul\":4190:4192   */\n      0x40\n        /* \"#utility.yul\":4179:4188   */\n      dup4\n        /* \"#utility.yul\":4175:4193   */\n      add\n        /* \"#utility.yul\":4166:4172   */\n      dup6\n        /* \"#utility.yul\":4122:4194   */\n      tag_483\n      jump\t// in\n    tag_558:\n        /* \"#utility.yul\":4204:4276   */\n      tag_559\n        /* \"#utility.yul\":4272:4274   */\n      0x60\n        /* \"#utility.yul\":4261:4270   */\n      dup4\n        /* \"#utility.yul\":4257:4275   */\n      add\n        /* \"#utility.yul\":4248:4254   */\n      dup5\n        /* \"#utility.yul\":4204:4276   */\n      tag_480\n      jump\t// in\n    tag_559:\n        /* \"#utility.yul\":3730:4283   */\n      swap6\n      swap5\n      pop\n      pop\n      pop\n      pop\n      pop\n      jump\t// out\n        /* \"#utility.yul\":4289:4511   */\n    tag_105:\n        /* \"#utility.yul\":4382:4386   */\n      0x00\n        /* \"#utility.yul\":4420:4422   */\n      0x20\n        /* \"#utility.yul\":4409:4418   */\n      dup3\n        /* \"#utility.yul\":4405:4423   */\n      add\n        /* \"#utility.yul\":4397:4423   */\n      swap1\n      pop\n        /* \"#utility.yul\":4433:4504   */\n      tag_561\n        /* \"#utility.yul\":4501:4502   */\n      0x00\n        /* \"#utility.yul\":4490:4499   */\n      dup4\n        /* \"#utility.yul\":4486:4503   */\n      add\n        /* \"#utility.yul\":4477:4483   */\n      dup5\n        /* \"#utility.yul\":4433:4504   */\n      tag_483\n      jump\t// in\n    tag_561:\n        /* \"#utility.yul\":4289:4511   */\n      swap3\n      swap2\n      pop\n      pop\n      jump\t// out\n        /* \"#utility.yul\":4517:4697   */\n    tag_484:\n        /* \"#utility.yul\":4565:4642   */\n      0x4e487b7100000000000000000000000000000000000000000000000000000000\n        /* \"#utility.yul\":4562:4563   */\n      0x00\n        /* \"#utility.yul\":4555:4643   */\n      mstore\n        /* \"#utility.yul\":4662:4666   */\n      0x11\n        /* \"#utility.yul\":4659:4660   */\n      0x04\n        /* \"#utility.yul\":4652:4667   */\n      mstore\n        /* \"#utility.yul\":4686:4690   */\n      0x24\n        /* \"#utility.yul\":4683:4684   */\n      0x00\n        /* \"#utility.yul\":4676:4691   */\n      revert\n        /* \"#utility.yul\":4703:4894   */\n    tag_171:\n        /* \"#utility.yul\":4743:4746   */\n      0x00\n        /* \"#utility.yul\":4762:4782   */\n      tag_564\n        /* \"#utility.yul\":4780:4781   */\n      dup3\n        /* \"#utility.yul\":4762:4782   */\n      tag_477\n      jump\t// in\n    tag_564:\n        /* \"#utility.yul\":4757:4782   */\n      swap2\n      pop\n        /* \"#utility.yul\":4796:4816   */\n      tag_565\n        /* \"#utility.yul\":4814:4815   */\n      dup4\n        /* \"#utility.yul\":4796:4816   */\n      tag_477\n      jump\t// in\n    tag_565:\n        /* \"#utility.yul\":4791:4816   */\n      swap3\n      pop\n        /* \"#utility.yul\":4839:4840   */\n      dup3\n        /* \"#utility.yul\":4836:4837   */\n      dup3\n        /* \"#utility.yul\":4832:4841   */\n      add\n        /* \"#utility.yul\":4825:4841   */\n      swap1\n      pop\n        /* \"#utility.yul\":4860:4863   */\n      dup1\n        /* \"#utility.yul\":4857:4858   */\n      dup3\n        /* \"#utility.yul\":4854:4864   */\n      gt\n        /* \"#utility.yul\":4851:4887   */\n      iszero\n      tag_566\n      jumpi\n        /* \"#utility.yul\":4867:4885   */\n      tag_567\n      tag_484\n      jump\t// in\n    tag_567:\n        /* \"#utility.yul\":4851:4887   */\n    tag_566:\n        /* \"#utility.yul\":4703:4894   */\n      swap3\n      swap2\n      pop\n      pop\n      jump\t// out\n        /* \"#utility.yul\":4900:5094   */\n    tag_187:\n        /* \"#utility.yul\":4940:4944   */\n      0x00\n        /* \"#utility.yul\":4960:4980   */\n      tag_569\n        /* \"#utility.yul\":4978:4979   */\n      dup3\n        /* \"#utility.yul\":4960:4980   */\n      tag_477\n      jump\t// in\n    tag_569:\n        /* \"#utility.yul\":4955:4980   */\n      swap2\n      pop\n        /* \"#utility.yul\":4994:5014   */\n      tag_570\n        /* \"#utility.yul\":5012:5013   */\n      dup4\n        /* \"#utility.yul\":4994:5014   */\n      tag_477\n      jump\t// in\n    tag_570:\n        /* \"#utility.yul\":4989:5014   */\n      swap3\n      pop\n        /* \"#utility.yul\":5038:5039   */\n      dup3\n        /* \"#utility.yul\":5035:5036   */\n      dup3\n        /* \"#utility.yul\":5031:5040   */\n      sub\n        /* \"#utility.yul\":5023:5040   */\n      swap1\n      pop\n        /* \"#utility.yul\":5062:5063   */\n      dup2\n        /* \"#utility.yul\":5056:5060   */\n      dup2\n        /* \"#utility.yul\":5053:5064   */\n      gt\n        /* \"#utility.yul\":5050:5087   */\n      iszero\n      tag_571\n      jumpi\n        /* \"#utility.yul\":5067:5085   */\n      tag_572\n      tag_484\n      jump\t// in\n    tag_572:\n        /* \"#utility.yul\":5050:5087   */\n    tag_571:\n        /* \"#utility.yul\":4900:5094   */\n      swap3\n      swap2\n      pop\n      pop\n      jump\t// out\n        /* \"#utility.yul\":5100:5280   */\n    tag_190:\n        /* \"#utility.yul\":5148:5225   */\n      0x4e487b7100000000000000000000000000000000000000000000000000000000\n        /* \"#utility.yul\":5145:5146   */\n      0x00\n        /* \"#utility.yul\":5138:5226   */\n      mstore\n        /* \"#utility.yul\":5245:5249   */\n      0x32\n        /* \"#utility.yul\":5242:5243   */\n      0x04\n        /* \"#utility.yul\":5235:5250   */\n      mstore\n        /* \"#utility.yul\":5269:5273   */\n      0x24\n        /* \"#utility.yul\":5266:5267   */\n      0x00\n        /* \"#utility.yul\":5259:5274   */\n      revert\n        /* \"#utility.yul\":5286:5466   */\n    tag_198:\n        /* \"#utility.yul\":5334:5411   */\n      0x4e487b7100000000000000000000000000000000000000000000000000000000\n        /* \"#utility.yul\":5331:5332   */\n      0x00\n        /* \"#utility.yul\":5324:5412   */\n      mstore\n        /* \"#utility.yul\":5431:5435   */\n      0x31\n        /* \"#utility.yul\":5428:5429   */\n      0x04\n        /* \"#utility.yul\":5421:5436   */\n      mstore\n        /* \"#utility.yul\":5455:5459   */\n      0x24\n        /* \"#utility.yul\":5452:5453   */\n      0x00\n        /* \"#utility.yul\":5445:5460   */\n      revert\n        /* \"#utility.yul\":5472:5577   */\n    tag_485:\n        /* \"#utility.yul\":5508:5515   */\n      0x00\n        /* \"#utility.yul\":5548:5570   */\n      0xffffffffffffffffffff\n        /* \"#utility.yul\":5541:5546   */\n      dup3\n        /* \"#utility.yul\":5537:5571   */\n      and\n        /* \"#utility.yul\":5526:5571   */\n      swap1\n      pop\n        /* \"#utility.yul\":5472:5577   */\n      swap2\n      swap1\n      pop\n      jump\t// out\n        /* \"#utility.yul\":5583:5703   */\n    tag_486:\n        /* \"#utility.yul\":5655:5678   */\n      tag_577\n        /* \"#utility.yul\":5672:5677   */\n      dup2\n        /* \"#utility.yul\":5655:5678   */\n      tag_485\n      jump\t// in\n    tag_577:\n        /* \"#utility.yul\":5648:5653   */\n      dup2\n        /* \"#utility.yul\":5645:5679   */\n      eq\n        /* \"#utility.yul\":5635:5697   */\n      tag_578\n      jumpi\n        /* \"#utility.yul\":5693:5694   */\n      0x00\n        /* \"#utility.yul\":5690:5691   */\n      0x00\n        /* \"#utility.yul\":5683:5695   */\n      revert\n        /* \"#utility.yul\":5635:5697   */\n    tag_578:\n        /* \"#utility.yul\":5583:5703   */\n      pop\n      jump\t// out\n        /* \"#utility.yul\":5709:5850   */\n    tag_487:\n        /* \"#utility.yul\":5765:5770   */\n      0x00\n        /* \"#utility.yul\":5796:5802   */\n      dup2\n        /* \"#utility.yul\":5790:5803   */\n      mload\n        /* \"#utility.yul\":5781:5803   */\n      swap1\n      pop\n        /* \"#utility.yul\":5812:5844   */\n      tag_580\n        /* \"#utility.yul\":5838:5843   */\n      dup2\n        /* \"#utility.yul\":5812:5844   */\n      tag_486\n      jump\t// in\n    tag_580:\n        /* \"#utility.yul\":5709:5850   */\n      swap3\n      swap2\n      pop\n      pop\n      jump\t// out\n        /* \"#utility.yul\":5856:5932   */\n    tag_488:\n        /* \"#utility.yul\":5892:5899   */\n      0x00\n        /* \"#utility.yul\":5921:5926   */\n      dup2\n        /* \"#utility.yul\":5910:5926   */\n      swap1\n      pop\n        /* \"#utility.yul\":5856:5932   */\n      swap2\n      swap1\n      pop\n      jump\t// out\n        /* \"#utility.yul\":5938:6058   */\n    tag_489:\n        /* \"#utility.yul\":6010:6033   */\n      tag_583\n        /* \"#utility.yul\":6027:6032   */\n      dup2\n        /* \"#utility.yul\":6010:6033   */\n      tag_488\n      jump\t// in\n    tag_583:\n        /* \"#utility.yul\":6003:6008   */\n      dup2\n        /* \"#utility.yul\":6000:6034   */\n      eq\n        /* \"#utility.yul\":5990:6052   */\n      tag_584\n      jumpi\n        /* \"#utility.yul\":6048:6049   */\n      0x00\n        /* \"#utility.yul\":6045:6046   */\n      0x00\n        /* \"#utility.yul\":6038:6050   */\n      revert\n        /* \"#utility.yul\":5990:6052   */\n    tag_584:\n        /* \"#utility.yul\":5938:6058   */\n      pop\n      jump\t// out\n        /* \"#utility.yul\":6064:6205   */\n    tag_490:\n        /* \"#utility.yul\":6120:6125   */\n      0x00\n        /* \"#utility.yul\":6151:6157   */\n      dup2\n        /* \"#utility.yul\":6145:6158   */\n      mload\n        /* \"#utility.yul\":6136:6158   */\n      swap1\n      pop\n        /* \"#utility.yul\":6167:6199   */\n      tag_586\n        /* \"#utility.yul\":6193:6198   */\n      dup2\n        /* \"#utility.yul\":6167:6199   */\n      tag_489\n      jump\t// in\n    tag_586:\n        /* \"#utility.yul\":6064:6205   */\n      swap3\n      swap2\n      pop\n      pop\n      jump\t// out\n        /* \"#utility.yul\":6211:6354   */\n    tag_491:\n        /* \"#utility.yul\":6268:6273   */\n      0x00\n        /* \"#utility.yul\":6299:6305   */\n      dup2\n        /* \"#utility.yul\":6293:6306   */\n      mload\n        /* \"#utility.yul\":6284:6306   */\n      swap1\n      pop\n        /* \"#utility.yul\":6315:6348   */\n      tag_588\n        /* \"#utility.yul\":6342:6347   */\n      dup2\n        /* \"#utility.yul\":6315:6348   */\n      tag_478\n      jump\t// in\n    tag_588:\n        /* \"#utility.yul\":6211:6354   */\n      swap3\n      swap2\n      pop\n      pop\n      jump\t// out\n        /* \"#utility.yul\":6360:7331   */\n    tag_209:\n        /* \"#utility.yul\":6463:6469   */\n      0x00\n        /* \"#utility.yul\":6471:6477   */\n      0x00\n        /* \"#utility.yul\":6479:6485   */\n      0x00\n        /* \"#utility.yul\":6487:6493   */\n      0x00\n        /* \"#utility.yul\":6495:6501   */\n      0x00\n        /* \"#utility.yul\":6544:6547   */\n      0xa0\n        /* \"#utility.yul\":6532:6541   */\n      dup7\n        /* \"#utility.yul\":6523:6530   */\n      dup9\n        /* \"#utility.yul\":6519:6542   */\n      sub\n        /* \"#utility.yul\":6515:6548   */\n      slt\n        /* \"#utility.yul\":6512:6632   */\n      iszero\n      tag_590\n      jumpi\n        /* \"#utility.yul\":6551:6630   */\n      tag_591\n      tag_471\n      jump\t// in\n    tag_591:\n        /* \"#utility.yul\":6512:6632   */\n    tag_590:\n        /* \"#utility.yul\":6671:6672   */\n      0x00\n        /* \"#utility.yul\":6696:6759   */\n      tag_592\n        /* \"#utility.yul\":6751:6758   */\n      dup9\n        /* \"#utility.yul\":6742:6748   */\n      dup3\n        /* \"#utility.yul\":6731:6740   */\n      dup10\n        /* \"#utility.yul\":6727:6749   */\n      add\n        /* \"#utility.yul\":6696:6759   */\n      tag_487\n      jump\t// in\n    tag_592:\n        /* \"#utility.yul\":6686:6759   */\n      swap6\n      pop\n        /* \"#utility.yul\":6642:6769   */\n      pop\n        /* \"#utility.yul\":6808:6810   */\n      0x20\n        /* \"#utility.yul\":6834:6897   */\n      tag_593\n        /* \"#utility.yul\":6889:6896   */\n      dup9\n        /* \"#utility.yul\":6880:6886   */\n      dup3\n        /* \"#utility.yul\":6869:6878   */\n      dup10\n        /* \"#utility.yul\":6865:6887   */\n      add\n        /* \"#utility.yul\":6834:6897   */\n      tag_490\n      jump\t// in\n    tag_593:\n        /* \"#utility.yul\":6824:6897   */\n      swap5\n      pop\n        /* \"#utility.yul\":6779:6907   */\n      pop\n        /* \"#utility.yul\":6946:6948   */\n      0x40\n        /* \"#utility.yul\":6972:7036   */\n      tag_594\n        /* \"#utility.yul\":7028:7035   */\n      dup9\n        /* \"#utility.yul\":7019:7025   */\n      dup3\n        /* \"#utility.yul\":7008:7017   */\n      dup10\n        /* \"#utility.yul\":7004:7026   */\n      add\n        /* \"#utility.yul\":6972:7036   */\n      tag_491\n      jump\t// in\n    tag_594:\n        /* \"#utility.yul\":6962:7036   */\n      swap4\n      pop\n        /* \"#utility.yul\":6917:7046   */\n      pop\n        /* \"#utility.yul\":7085:7087   */\n      0x60\n        /* \"#utility.yul\":7111:7175   */\n      tag_595\n        /* \"#utility.yul\":7167:7174   */\n      dup9\n        /* \"#utility.yul\":7158:7164   */\n      dup3\n        /* \"#utility.yul\":7147:7156   */\n      dup10\n        /* \"#utility.yul\":7143:7165   */\n      add\n        /* \"#utility.yul\":7111:7175   */\n      tag_491\n      jump\t// in\n    tag_595:\n        /* \"#utility.yul\":7101:7175   */\n      swap3\n      pop\n        /* \"#utility.yul\":7056:7185   */\n      pop\n        /* \"#utility.yul\":7224:7227   */\n      0x80\n        /* \"#utility.yul\":7251:7314   */\n      tag_596\n        /* \"#utility.yul\":7306:7313   */\n      dup9\n        /* \"#utility.yul\":7297:7303   */\n      dup3\n        /* \"#utility.yul\":7286:7295   */\n      dup10\n        /* \"#utility.yul\":7282:7304   */\n      add\n        /* \"#utility.yul\":7251:7314   */\n      tag_487\n      jump\t// in\n    tag_596:\n        /* \"#utility.yul\":7241:7314   */\n      swap2\n      pop\n        /* \"#utility.yul\":7195:7324   */\n      pop\n        /* \"#utility.yul\":6360:7331   */\n      swap3\n      swap6\n      pop\n      swap3\n      swap6\n      swap1\n      swap4\n      pop\n      jump\t// out\n        /* \"#utility.yul\":7337:7452   */\n    tag_492:\n        /* \"#utility.yul\":7422:7445   */\n      tag_598\n        /* \"#utility.yul\":7439:7444   */\n      dup2\n        /* \"#utility.yul\":7422:7445   */\n      tag_488\n      jump\t// in\n    tag_598:\n        /* \"#utility.yul\":7417:7420   */\n      dup3\n        /* \"#utility.yul\":7410:7446   */\n      mstore\n        /* \"#utility.yul\":7337:7452   */\n      pop\n      pop\n      jump\t// out\n        /* \"#utility.yul\":7458:7676   */\n    tag_212:\n        /* \"#utility.yul\":7549:7553   */\n      0x00\n        /* \"#utility.yul\":7587:7589   */\n      0x20\n        /* \"#utility.yul\":7576:7585   */\n      dup3\n        /* \"#utility.yul\":7572:7590   */\n      add\n        /* \"#utility.yul\":7564:7590   */\n      swap1\n      pop\n        /* \"#utility.yul\":7600:7669   */\n      tag_600\n        /* \"#utility.yul\":7666:7667   */\n      0x00\n        /* \"#utility.yul\":7655:7664   */\n      dup4\n        /* \"#utility.yul\":7651:7668   */\n      add\n        /* \"#utility.yul\":7642:7648   */\n      dup5\n        /* \"#utility.yul\":7600:7669   */\n      tag_492\n      jump\t// in\n    tag_600:\n        /* \"#utility.yul\":7458:7676   */\n      swap3\n      swap2\n      pop\n      pop\n      jump\t// out\n        /* \"#utility.yul\":7682:7768   */\n    tag_493:\n        /* \"#utility.yul\":7717:7724   */\n      0x00\n        /* \"#utility.yul\":7757:7761   */\n      0xff\n        /* \"#utility.yul\":7750:7755   */\n      dup3\n        /* \"#utility.yul\":7746:7762   */\n      and\n        /* \"#utility.yul\":7735:7762   */\n      swap1\n      pop\n        /* \"#utility.yul\":7682:7768   */\n      swap2\n      swap1\n      pop\n      jump\t// out\n        /* \"#utility.yul\":7774:7892   */\n    tag_494:\n        /* \"#utility.yul\":7845:7867   */\n      tag_603\n        /* \"#utility.yul\":7861:7866   */\n      dup2\n        /* \"#utility.yul\":7845:7867   */\n      tag_493\n      jump\t// in\n    tag_603:\n        /* \"#utility.yul\":7838:7843   */\n      dup2\n        /* \"#utility.yul\":7835:7868   */\n      eq\n        /* \"#utility.yul\":7825:7886   */\n      tag_604\n      jumpi\n        /* \"#utility.yul\":7882:7883   */\n      0x00\n        /* \"#utility.yul\":7879:7880   */\n      0x00\n        /* \"#utility.yul\":7872:7884   */\n      revert\n        /* \"#utility.yul\":7825:7886   */\n    tag_604:\n        /* \"#utility.yul\":7774:7892   */\n      pop\n      jump\t// out\n        /* \"#utility.yul\":7898:8037   */\n    tag_495:\n        /* \"#utility.yul\":7953:7958   */\n      0x00\n        /* \"#utility.yul\":7984:7990   */\n      dup2\n        /* \"#utility.yul\":7978:7991   */\n      mload\n        /* \"#utility.yul\":7969:7991   */\n      swap1\n      pop\n        /* \"#utility.yul\":8000:8031   */\n      tag_606\n        /* \"#utility.yul\":8025:8030   */\n      dup2\n        /* \"#utility.yul\":8000:8031   */\n      tag_494\n      jump\t// in\n    tag_606:\n        /* \"#utility.yul\":7898:8037   */\n      swap3\n      swap2\n      pop\n      pop\n      jump\t// out\n        /* \"#utility.yul\":8043:8390   */\n    tag_221:\n        /* \"#utility.yul\":8111:8117   */\n      0x00\n        /* \"#utility.yul\":8160:8162   */\n      0x20\n        /* \"#utility.yul\":8148:8157   */\n      dup3\n        /* \"#utility.yul\":8139:8146   */\n      dup5\n        /* \"#utility.yul\":8135:8158   */\n      sub\n        /* \"#utility.yul\":8131:8163   */\n      slt\n        /* \"#utility.yul\":8128:8247   */\n      iszero\n      tag_608\n      jumpi\n        /* \"#utility.yul\":8166:8245   */\n      tag_609\n      tag_471\n      jump\t// in\n    tag_609:\n        /* \"#utility.yul\":8128:8247   */\n    tag_608:\n        /* \"#utility.yul\":8286:8287   */\n      0x00\n        /* \"#utility.yul\":8311:8373   */\n      tag_610\n        /* \"#utility.yul\":8365:8372   */\n      dup5\n        /* \"#utility.yul\":8356:8362   */\n      dup3\n        /* \"#utility.yul\":8345:8354   */\n      dup6\n        /* \"#utility.yul\":8341:8363   */\n      add\n        /* \"#utility.yul\":8311:8373   */\n      tag_495\n      jump\t// in\n    tag_610:\n        /* \"#utility.yul\":8301:8373   */\n      swap2\n      pop\n        /* \"#utility.yul\":8257:8383   */\n      pop\n        /* \"#utility.yul\":8043:8390   */\n      swap3\n      swap2\n      pop\n      pop\n      jump\t// out\n        /* \"#utility.yul\":8396:8498   */\n    tag_496:\n        /* \"#utility.yul\":8438:8446   */\n      0x00\n        /* \"#utility.yul\":8485:8490   */\n      dup2\n        /* \"#utility.yul\":8482:8483   */\n      0x01\n        /* \"#utility.yul\":8478:8491   */\n      shr\n        /* \"#utility.yul\":8457:8491   */\n      swap1\n      pop\n        /* \"#utility.yul\":8396:8498   */\n      swap2\n      swap1\n      pop\n      jump\t// out\n        /* \"#utility.yul\":8504:9352   */\n    tag_497:\n        /* \"#utility.yul\":8565:8570   */\n      0x00\n        /* \"#utility.yul\":8572:8576   */\n      0x00\n        /* \"#utility.yul\":8596:8602   */\n      dup3\n        /* \"#utility.yul\":8587:8602   */\n      swap2\n      pop\n        /* \"#utility.yul\":8620:8625   */\n      dup4\n        /* \"#utility.yul\":8611:8625   */\n      swap1\n      pop\n        /* \"#utility.yul\":8634:9346   */\n    tag_613:\n        /* \"#utility.yul\":8655:8656   */\n      0x01\n        /* \"#utility.yul\":8645:8653   */\n      dup6\n        /* \"#utility.yul\":8642:8657   */\n      gt\n        /* \"#utility.yul\":8634:9346   */\n      iszero\n      tag_615\n      jumpi\n        /* \"#utility.yul\":8750:8754   */\n      dup1\n        /* \"#utility.yul\":8745:8748   */\n      dup7\n        /* \"#utility.yul\":8741:8755   */\n      div\n        /* \"#utility.yul\":8735:8739   */\n      dup2\n        /* \"#utility.yul\":8732:8756   */\n      gt\n        /* \"#utility.yul\":8729:8779   */\n      iszero\n      tag_616\n      jumpi\n        /* \"#utility.yul\":8759:8777   */\n      tag_617\n      tag_484\n      jump\t// in\n    tag_617:\n        /* \"#utility.yul\":8729:8779   */\n    tag_616:\n        /* \"#utility.yul\":8809:8810   */\n      0x01\n        /* \"#utility.yul\":8799:8807   */\n      dup6\n        /* \"#utility.yul\":8795:8811   */\n      and\n        /* \"#utility.yul\":8792:9243   */\n      iszero\n      tag_618\n      jumpi\n        /* \"#utility.yul\":9224:9228   */\n      dup1\n        /* \"#utility.yul\":9217:9222   */\n      dup3\n        /* \"#utility.yul\":9213:9229   */\n      mul\n        /* \"#utility.yul\":9204:9229   */\n      swap2\n      pop\n        /* \"#utility.yul\":8792:9243   */\n    tag_618:\n        /* \"#utility.yul\":9274:9278   */\n      dup1\n        /* \"#utility.yul\":9268:9272   */\n      dup2\n        /* \"#utility.yul\":9264:9279   */\n      mul\n        /* \"#utility.yul\":9256:9279   */\n      swap1\n      pop\n        /* \"#utility.yul\":9304:9336   */\n      tag_619\n        /* \"#utility.yul\":9327:9335   */\n      dup6\n        /* \"#utility.yul\":9304:9336   */\n      tag_496\n      jump\t// in\n    tag_619:\n        /* \"#utility.yul\":9292:9336   */\n      swap5\n      pop\n        /* \"#utility.yul\":8634:9346   */\n      jump(tag_613)\n    tag_615:\n        /* \"#utility.yul\":8504:9352   */\n      swap5\n      pop\n      swap5\n      swap3\n      pop\n      pop\n      pop\n      jump\t// out\n        /* \"#utility.yul\":9358:10431   */\n    tag_498:\n        /* \"#utility.yul\":9412:9417   */\n      0x00\n        /* \"#utility.yul\":9603:9611   */\n      dup3\n        /* \"#utility.yul\":9593:9633   */\n      tag_621\n      jumpi\n        /* \"#utility.yul\":9624:9625   */\n      0x01\n        /* \"#utility.yul\":9615:9625   */\n      swap1\n      pop\n        /* \"#utility.yul\":9626:9631   */\n      jump(tag_620)\n        /* \"#utility.yul\":9593:9633   */\n    tag_621:\n        /* \"#utility.yul\":9652:9656   */\n      dup2\n        /* \"#utility.yul\":9642:9678   */\n      tag_622\n      jumpi\n        /* \"#utility.yul\":9669:9670   */\n      0x00\n        /* \"#utility.yul\":9660:9670   */\n      swap1\n      pop\n        /* \"#utility.yul\":9671:9676   */\n      jump(tag_620)\n        /* \"#utility.yul\":9642:9678   */\n    tag_622:\n        /* \"#utility.yul\":9738:9742   */\n      dup2\n        /* \"#utility.yul\":9786:9787   */\n      0x01\n        /* \"#utility.yul\":9781:9808   */\n      dup2\n      eq\n      tag_624\n      jumpi\n        /* \"#utility.yul\":9822:9823   */\n      0x02\n        /* \"#utility.yul\":9817:10008   */\n      dup2\n      eq\n      tag_625\n      jumpi\n        /* \"#utility.yul\":9731:10008   */\n      jump(tag_623)\n        /* \"#utility.yul\":9781:9808   */\n    tag_624:\n        /* \"#utility.yul\":9799:9800   */\n      0x01\n        /* \"#utility.yul\":9790:9800   */\n      swap2\n      pop\n        /* \"#utility.yul\":9801:9806   */\n      pop\n      jump(tag_620)\n        /* \"#utility.yul\":9817:10008   */\n    tag_625:\n        /* \"#utility.yul\":9862:9865   */\n      0xff\n        /* \"#utility.yul\":9852:9860   */\n      dup5\n        /* \"#utility.yul\":9849:9866   */\n      gt\n        /* \"#utility.yul\":9846:9889   */\n      iszero\n      tag_626\n      jumpi\n        /* \"#utility.yul\":9869:9887   */\n      tag_627\n      tag_484\n      jump\t// in\n    tag_627:\n        /* \"#utility.yul\":9846:9889   */\n    tag_626:\n        /* \"#utility.yul\":9918:9926   */\n      dup4\n        /* \"#utility.yul\":9915:9916   */\n      0x02\n        /* \"#utility.yul\":9911:9927   */\n      exp\n        /* \"#utility.yul\":9902:9927   */\n      swap2\n      pop\n        /* \"#utility.yul\":9953:9956   */\n      dup5\n        /* \"#utility.yul\":9946:9951   */\n      dup3\n        /* \"#utility.yul\":9943:9957   */\n      gt\n        /* \"#utility.yul\":9940:9980   */\n      iszero\n      tag_628\n      jumpi\n        /* \"#utility.yul\":9960:9978   */\n      tag_629\n      tag_484\n      jump\t// in\n    tag_629:\n        /* \"#utility.yul\":9940:9980   */\n    tag_628:\n        /* \"#utility.yul\":9993:9998   */\n      pop\n      jump(tag_620)\n        /* \"#utility.yul\":9731:10008   */\n    tag_623:\n      pop\n        /* \"#utility.yul\":10117:10119   */\n      0x20\n        /* \"#utility.yul\":10107:10115   */\n      dup4\n        /* \"#utility.yul\":10104:10120   */\n      lt\n        /* \"#utility.yul\":10098:10101   */\n      0x0133\n        /* \"#utility.yul\":10092:10096   */\n      dup4\n        /* \"#utility.yul\":10089:10102   */\n      lt\n        /* \"#utility.yul\":10085:10121   */\n      and\n        /* \"#utility.yul\":10067:10069   */\n      0x4e\n        /* \"#utility.yul\":10057:10065   */\n      dup5\n        /* \"#utility.yul\":10054:10070   */\n      lt\n        /* \"#utility.yul\":10049:10051   */\n      0x0b\n        /* \"#utility.yul\":10043:10047   */\n      dup5\n        /* \"#utility.yul\":10040:10052   */\n      lt\n        /* \"#utility.yul\":10036:10071   */\n      and\n        /* \"#utility.yul\":10020:10131   */\n      or\n        /* \"#utility.yul\":10017:10263   */\n      iszero\n      tag_630\n      jumpi\n        /* \"#utility.yul\":10173:10181   */\n      dup3\n        /* \"#utility.yul\":10167:10171   */\n      dup3\n        /* \"#utility.yul\":10163:10182   */\n      exp\n        /* \"#utility.yul\":10154:10182   */\n      swap1\n      pop\n        /* \"#utility.yul\":10208:10211   */\n      dup4\n        /* \"#utility.yul\":10201:10206   */\n      dup2\n        /* \"#utility.yul\":10198:10212   */\n      gt\n        /* \"#utility.yul\":10195:10235   */\n      iszero\n      tag_631\n      jumpi\n        /* \"#utility.yul\":10215:10233   */\n      tag_632\n      tag_484\n      jump\t// in\n    tag_632:\n        /* \"#utility.yul\":10195:10235   */\n    tag_631:\n        /* \"#utility.yul\":10248:10253   */\n      jump(tag_620)\n        /* \"#utility.yul\":10017:10263   */\n    tag_630:\n        /* \"#utility.yul\":10288:10330   */\n      tag_633\n        /* \"#utility.yul\":10326:10329   */\n      dup5\n        /* \"#utility.yul\":10316:10324   */\n      dup5\n        /* \"#utility.yul\":10310:10314   */\n      dup5\n        /* \"#utility.yul\":10307:10308   */\n      0x01\n        /* \"#utility.yul\":10288:10330   */\n      tag_497\n      jump\t// in\n    tag_633:\n        /* \"#utility.yul\":10273:10330   */\n      swap3\n      pop\n      swap1\n      pop\n        /* \"#utility.yul\":10362:10366   */\n      dup2\n        /* \"#utility.yul\":10357:10360   */\n      dup5\n        /* \"#utility.yul\":10353:10367   */\n      div\n        /* \"#utility.yul\":10346:10351   */\n      dup2\n        /* \"#utility.yul\":10343:10368   */\n      gt\n        /* \"#utility.yul\":10340:10391   */\n      iszero\n      tag_634\n      jumpi\n        /* \"#utility.yul\":10371:10389   */\n      tag_635\n      tag_484\n      jump\t// in\n    tag_635:\n        /* \"#utility.yul\":10340:10391   */\n    tag_634:\n        /* \"#utility.yul\":10420:10424   */\n      dup2\n        /* \"#utility.yul\":10413:10418   */\n      dup2\n        /* \"#utility.yul\":10409:10425   */\n      mul\n        /* \"#utility.yul\":10400:10425   */\n      swap1\n      pop\n        /* \"#utility.yul\":9358:10431   */\n    tag_620:\n      swap4\n      swap3\n      pop\n      pop\n      pop\n      jump\t// out\n        /* \"#utility.yul\":10437:10722   */\n    tag_225:\n        /* \"#utility.yul\":10497:10502   */\n      0x00\n        /* \"#utility.yul\":10521:10544   */\n      tag_637\n        /* \"#utility.yul\":10539:10543   */\n      dup3\n        /* \"#utility.yul\":10521:10544   */\n      tag_477\n      jump\t// in\n    tag_637:\n        /* \"#utility.yul\":10513:10544   */\n      swap2\n      pop\n        /* \"#utility.yul\":10565:10592   */\n      tag_638\n        /* \"#utility.yul\":10583:10591   */\n      dup4\n        /* \"#utility.yul\":10565:10592   */\n      tag_477\n      jump\t// in\n    tag_638:\n        /* \"#utility.yul\":10553:10592   */\n      swap3\n      pop\n        /* \"#utility.yul\":10611:10715   */\n      tag_639\n        /* \"#utility.yul\":10648:10714   */\n      0xffffffffffffffffffffffffffffffffffffffffffffffffffffffffffffffff\n        /* \"#utility.yul\":10638:10646   */\n      dup5\n        /* \"#utility.yul\":10632:10636   */\n      dup5\n        /* \"#utility.yul\":10611:10715   */\n      tag_498\n      jump\t// in\n    tag_639:\n        /* \"#utility.yul\":10602:10715   */\n      swap1\n      pop\n        /* \"#utility.yul\":10437:10722   */\n      swap3\n      swap2\n      pop\n      pop\n      jump\t// out\n        /* \"#utility.yul\":10728:11138   */\n    tag_227:\n        /* \"#utility.yul\":10768:10775   */\n      0x00\n        /* \"#utility.yul\":10791:10811   */\n      tag_641\n        /* \"#utility.yul\":10809:10810   */\n      dup3\n        /* \"#utility.yul\":10791:10811   */\n      tag_477\n      jump\t// in\n    tag_641:\n        /* \"#utility.yul\":10786:10811   */\n      swap2\n      pop\n        /* \"#utility.yul\":10825:10845   */\n      tag_642\n        /* \"#utility.yul\":10843:10844   */\n      dup4\n        /* \"#utility.yul\":10825:10845   */\n      tag_477\n      jump\t// in\n    tag_642:\n        /* \"#utility.yul\":10820:10845   */\n      swap3\n      pop\n        /* \"#utility.yul\":10880:10881   */\n      dup3\n        /* \"#utility.yul\":10877:10878   */\n      dup3\n        /* \"#utility.yul\":10873:10882   */\n      mul\n        /* \"#utility.yul\":10902:10932   */\n      tag_643\n        /* \"#utility.yul\":10920:10931   */\n      dup2\n        /* \"#utility.yul\":10902:10932   */\n      tag_477\n      jump\t// in\n    tag_643:\n        /* \"#utility.yul\":10891:10932   */\n      swap2\n      pop\n        /* \"#utility.yul\":11081:11082   */\n      dup3\n        /* \"#utility.yul\":11072:11079   */\n      dup3\n        /* \"#utility.yul\":11068:11083   */\n      div\n        /* \"#utility.yul\":11065:11066   */\n      dup5\n        /* \"#utility.yul\":11062:11084   */\n      eq\n        /* \"#utility.yul\":11042:11043   */\n      dup4\n        /* \"#utility.yul\":11035:11044   */\n      iszero\n        /* \"#utility.yul\":11015:11098   */\n      or\n        /* \"#utility.yul\":10992:11131   */\n      tag_644\n      jumpi\n        /* \"#utility.yul\":11111:11129   */\n      tag_645\n      tag_484\n      jump\t// in\n    tag_645:\n        /* \"#utility.yul\":10992:11131   */\n    tag_644:\n        /* \"#utility.yul\":10776:11138   */\n      pop\n        /* \"#utility.yul\":10728:11138   */\n      swap3\n      swap2\n      pop\n      pop\n      jump\t// out\n        /* \"#utility.yul\":11144:11495   */\n    tag_244:\n        /* \"#utility.yul\":11214:11220   */\n      0x00\n        /* \"#utility.yul\":11263:11265   */\n      0x20\n        /* \"#utility.yul\":11251:11260   */\n      dup3\n        /* \"#utility.yul\":11242:11249   */\n      dup5\n        /* \"#utility.yul\":11238:11261   */\n      sub\n        /* \"#utility.yul\":11234:11266   */\n      slt\n        /* \"#utility.yul\":11231:11350   */\n      iszero\n      tag_647\n      jumpi\n        /* \"#utility.yul\":11269:11348   */\n      tag_648\n      tag_471\n      jump\t// in\n    tag_648:\n        /* \"#utility.yul\":11231:11350   */\n    tag_647:\n        /* \"#utility.yul\":11389:11390   */\n      0x00\n        /* \"#utility.yul\":11414:11478   */\n      tag_649\n        /* \"#utility.yul\":11470:11477   */\n      dup5\n        /* \"#utility.yul\":11461:11467   */\n      dup3\n        /* \"#utility.yul\":11450:11459   */\n      dup6\n        /* \"#utility.yul\":11446:11468   */\n      add\n        /* \"#utility.yul\":11414:11478   */\n      tag_491\n      jump\t// in\n    tag_649:\n        /* \"#utility.yul\":11404:11478   */\n      swap2\n      pop\n        /* \"#utility.yul\":11360:11488   */\n      pop\n        /* \"#utility.yul\":11144:11495   */\n      swap3\n      swap2\n      pop\n      pop\n      jump\t// out\n        /* \"#utility.yul\":11501:11833   */\n    tag_312:\n        /* \"#utility.yul\":11622:11626   */\n      0x00\n        /* \"#utility.yul\":11660:11662   */\n      0x40\n        /* \"#utility.yul\":11649:11658   */\n      dup3\n        /* \"#utility.yul\":11645:11663   */\n      add\n        /* \"#utility.yul\":11637:11663   */\n      swap1\n      pop\n        /* \"#utility.yul\":11673:11744   */\n      tag_651\n        /* \"#utility.yul\":11741:11742   */\n      0x00\n        /* \"#utility.yul\":11730:11739   */\n      dup4\n        /* \"#utility.yul\":11726:11743   */\n      add\n        /* \"#utility.yul\":11717:11723   */\n      dup6\n        /* \"#utility.yul\":11673:11744   */\n      tag_480\n      jump\t// in\n    tag_651:\n        /* \"#utility.yul\":11754:11826   */\n      tag_652\n        /* \"#utility.yul\":11822:11824   */\n      0x20\n        /* \"#utility.yul\":11811:11820   */\n      dup4\n        /* \"#utility.yul\":11807:11825   */\n      add\n        /* \"#utility.yul\":11798:11804   */\n      dup5\n        /* \"#utility.yul\":11754:11826   */\n      tag_480\n      jump\t// in\n    tag_652:\n        /* \"#utility.yul\":11501:11833   */\n      swap4\n      swap3\n      pop\n      pop\n      pop\n      jump\t// out\n        /* \"#utility.yul\":11839:12171   */\n    tag_314:\n        /* \"#utility.yul\":11960:11964   */\n      0x00\n        /* \"#utility.yul\":11998:12000   */\n      0x40\n        /* \"#utility.yul\":11987:11996   */\n      dup3\n        /* \"#utility.yul\":11983:12001   */\n      add\n        /* \"#utility.yul\":11975:12001   */\n      swap1\n      pop\n        /* \"#utility.yul\":12011:12082   */\n      tag_654\n        /* \"#utility.yul\":12079:12080   */\n      0x00\n        /* \"#utility.yul\":12068:12077   */\n      dup4\n        /* \"#utility.yul\":12064:12081   */\n      add\n        /* \"#utility.yul\":12055:12061   */\n      dup6\n        /* \"#utility.yul\":12011:12082   */\n      tag_483\n      jump\t// in\n    tag_654:\n        /* \"#utility.yul\":12092:12164   */\n      tag_655\n        /* \"#utility.yul\":12160:12162   */\n      0x20\n        /* \"#utility.yul\":12149:12158   */\n      dup4\n        /* \"#utility.yul\":12145:12163   */\n      add\n        /* \"#utility.yul\":12136:12142   */\n      dup5\n        /* \"#utility.yul\":12092:12164   */\n      tag_480\n      jump\t// in\n    tag_655:\n        /* \"#utility.yul\":11839:12171   */\n      swap4\n      swap3\n      pop\n      pop\n      pop\n      jump\t// out\n        /* \"#utility.yul\":12177:12293   */\n    tag_499:\n        /* \"#utility.yul\":12247:12268   */\n      tag_657\n        /* \"#utility.yul\":12262:12267   */\n      dup2\n        /* \"#utility.yul\":12247:12268   */\n      tag_481\n      jump\t// in\n    tag_657:\n        /* \"#utility.yul\":12240:12245   */\n      dup2\n        /* \"#utility.yul\":12237:12269   */\n      eq\n        /* \"#utility.yul\":12227:12287   */\n      tag_658\n      jumpi\n        /* \"#utility.yul\":12283:12284   */\n      0x00\n        /* \"#utility.yul\":12280:12281   */\n      0x00\n        /* \"#utility.yul\":12273:12285   */\n      revert\n        /* \"#utility.yul\":12227:12287   */\n    tag_658:\n        /* \"#utility.yul\":12177:12293   */\n      pop\n      jump\t// out\n        /* \"#utility.yul\":12299:12436   */\n    tag_500:\n        /* \"#utility.yul\":12353:12358   */\n      0x00\n        /* \"#utility.yul\":12384:12390   */\n      dup2\n        /* \"#utility.yul\":12378:12391   */\n      mload\n        /* \"#utility.yul\":12369:12391   */\n      swap1\n      pop\n        /* \"#utility.yul\":12400:12430   */\n      tag_660\n        /* \"#utility.yul\":12424:12429   */\n      dup2\n        /* \"#utility.yul\":12400:12430   */\n      tag_499\n      jump\t// in\n    tag_660:\n        /* \"#utility.yul\":12299:12436   */\n      swap3\n      swap2\n      pop\n      pop\n      jump\t// out\n        /* \"#utility.yul\":12442:12787   */\n    tag_318:\n        /* \"#utility.yul\":12509:12515   */\n      0x00\n        /* \"#utility.yul\":12558:12560   */\n      0x20\n        /* \"#utility.yul\":12546:12555   */\n      dup3\n        /* \"#utility.yul\":12537:12544   */\n      dup5\n        /* \"#utility.yul\":12533:12556   */\n      sub\n        /* \"#utility.yul\":12529:12561   */\n      slt\n        /* \"#utility.yul\":12526:12645   */\n      iszero\n      tag_662\n      jumpi\n        /* \"#utility.yul\":12564:12643   */\n      tag_663\n      tag_471\n      jump\t// in\n    tag_663:\n        /* \"#utility.yul\":12526:12645   */\n    tag_662:\n        /* \"#utility.yul\":12684:12685   */\n      0x00\n        /* \"#utility.yul\":12709:12770   */\n      tag_664\n        /* \"#utility.yul\":12762:12769   */\n      dup5\n        /* \"#utility.yul\":12753:12759   */\n      dup3\n        /* \"#utility.yul\":12742:12751   */\n      dup6\n        /* \"#utility.yul\":12738:12760   */\n      add\n        /* \"#utility.yul\":12709:12770   */\n      tag_500\n      jump\t// in\n    tag_664:\n        /* \"#utility.yul\":12699:12770   */\n      swap2\n      pop\n        /* \"#utility.yul\":12655:12780   */\n      pop\n        /* \"#utility.yul\":12442:12787   */\n      swap3\n      swap2\n      pop\n      pop\n      jump\t// out\n        /* \"#utility.yul\":12793:13235   */\n    tag_320:\n        /* \"#utility.yul\":12942:12946   */\n      0x00\n        /* \"#utility.yul\":12980:12982   */\n      0x60\n        /* \"#utility.yul\":12969:12978   */\n      dup3\n        /* \"#utility.yul\":12965:12983   */\n      add\n        /* \"#utility.yul\":12957:12983   */\n      swap1\n      pop\n        /* \"#utility.yul\":12993:13064   */\n      tag_666\n        /* \"#utility.yul\":13061:13062   */\n      0x00\n        /* \"#utility.yul\":13050:13059   */\n      dup4\n        /* \"#utility.yul\":13046:13063   */\n      add\n        /* \"#utility.yul\":13037:13043   */\n      dup7\n        /* \"#utility.yul\":12993:13064   */\n      tag_483\n      jump\t// in\n    tag_666:\n        /* \"#utility.yul\":13074:13146   */\n      tag_667\n        /* \"#utility.yul\":13142:13144   */\n      0x20\n        /* \"#utility.yul\":13131:13140   */\n      dup4\n        /* \"#utility.yul\":13127:13145   */\n      add\n        /* \"#utility.yul\":13118:13124   */\n      dup6\n        /* \"#utility.yul\":13074:13146   */\n      tag_483\n      jump\t// in\n    tag_667:\n        /* \"#utility.yul\":13156:13228   */\n      tag_668\n        /* \"#utility.yul\":13224:13226   */\n      0x40\n        /* \"#utility.yul\":13213:13222   */\n      dup4\n        /* \"#utility.yul\":13209:13227   */\n      add\n        /* \"#utility.yul\":13200:13206   */\n      dup5\n        /* \"#utility.yul\":13156:13228   */\n      tag_480\n      jump\t// in\n    tag_668:\n        /* \"#utility.yul\":12793:13235   */\n      swap5\n      swap4\n      pop\n      pop\n      pop\n      pop\n      jump\t// out\n        /* \"#utility.yul\":13241:13421   */\n    tag_501:\n        /* \"#utility.yul\":13289:13366   */\n      0x4e487b7100000000000000000000000000000000000000000000000000000000\n        /* \"#utility.yul\":13286:13287   */\n      0x00\n        /* \"#utility.yul\":13279:13367   */\n      mstore\n        /* \"#utility.yul\":13386:13390   */\n      0x12\n        /* \"#utility.yul\":13383:13384   */\n      0x04\n        /* \"#utility.yul\":13376:13391   */\n      mstore\n        /* \"#utility.yul\":13410:13414   */\n      0x24\n        /* \"#utility.yul\":13407:13408   */\n      0x00\n        /* \"#utility.yul\":13400:13415   */\n      revert\n        /* \"#utility.yul\":13427:13612   */\n    tag_339:\n        /* \"#utility.yul\":13467:13468   */\n      0x00\n        /* \"#utility.yul\":13484:13504   */\n      tag_671\n        /* \"#utility.yul\":13502:13503   */\n      dup3\n        /* \"#utility.yul\":13484:13504   */\n      tag_477\n      jump\t// in\n    tag_671:\n        /* \"#utility.yul\":13479:13504   */\n      swap2\n      pop\n        /* \"#utility.yul\":13518:13538   */\n      tag_672\n        /* \"#utility.yul\":13536:13537   */\n      dup4\n        /* \"#utility.yul\":13518:13538   */\n      tag_477\n      jump\t// in\n    tag_672:\n        /* \"#utility.yul\":13513:13538   */\n      swap3\n      pop\n        /* \"#utility.yul\":13557:13558   */\n      dup3\n        /* \"#utility.yul\":13547:13582   */\n      tag_673\n      jumpi\n        /* \"#utility.yul\":13562:13580   */\n      tag_674\n      tag_501\n      jump\t// in\n    tag_674:\n        /* \"#utility.yul\":13547:13582   */\n    tag_673:\n        /* \"#utility.yul\":13604:13605   */\n      dup3\n        /* \"#utility.yul\":13601:13602   */\n      dup3\n        /* \"#utility.yul\":13597:13606   */\n      div\n        /* \"#utility.yul\":13592:13606   */\n      swap1\n      pop\n        /* \"#utility.yul\":13427:13612   */\n      swap3\n      swap2\n      pop\n      pop\n      jump\t// out\n        /* \"#utility.yul\":13618:13765   */\n    tag_502:\n        /* \"#utility.yul\":13719:13730   */\n      0x00\n        /* \"#utility.yul\":13756:13759   */\n      dup2\n        /* \"#utility.yul\":13741:13759   */\n      swap1\n      pop\n        /* \"#utility.yul\":13618:13765   */\n      swap3\n      swap2\n      pop\n      pop\n      jump\t// out\n        /* \"#utility.yul\":13771:13885   */\n    tag_503:\n      pop\n      jump\t// out\n        /* \"#utility.yul\":13891:14289   */\n    tag_504:\n        /* \"#utility.yul\":14050:14053   */\n      0x00\n        /* \"#utility.yul\":14071:14154   */\n      tag_678\n        /* \"#utility.yul\":14152:14153   */\n      0x00\n        /* \"#utility.yul\":14147:14150   */\n      dup4\n        /* \"#utility.yul\":14071:14154   */\n      tag_502\n      jump\t// in\n    tag_678:\n        /* \"#utility.yul\":14064:14154   */\n      swap2\n      pop\n        /* \"#utility.yul\":14163:14256   */\n      tag_679\n        /* \"#utility.yul\":14252:14255   */\n      dup3\n        /* \"#utility.yul\":14163:14256   */\n      tag_503\n      jump\t// in\n    tag_679:\n        /* \"#utility.yul\":14281:14282   */\n      0x00\n        /* \"#utility.yul\":14276:14279   */\n      dup3\n        /* \"#utility.yul\":14272:14283   */\n      add\n        /* \"#utility.yul\":14265:14283   */\n      swap1\n      pop\n        /* \"#utility.yul\":13891:14289   */\n      swap2\n      swap1\n      pop\n      jump\t// out\n        /* \"#utility.yul\":14295:14674   */\n    tag_363:\n        /* \"#utility.yul\":14479:14482   */\n      0x00\n        /* \"#utility.yul\":14501:14648   */\n      tag_681\n        /* \"#utility.yul\":14644:14647   */\n      dup3\n        /* \"#utility.yul\":14501:14648   */\n      tag_504\n      jump\t// in\n    tag_681:\n        /* \"#utility.yul\":14494:14648   */\n      swap2\n      pop\n        /* \"#utility.yul\":14665:14668   */\n      dup2\n        /* \"#utility.yul\":14658:14668   */\n      swap1\n      pop\n        /* \"#utility.yul\":14295:14674   */\n      swap2\n      swap1\n      pop\n      jump\t// out\n        /* \"#utility.yul\":14680:14871   */\n    tag_379:\n        /* \"#utility.yul\":14718:14722   */\n      0x00\n        /* \"#utility.yul\":14738:14756   */\n      tag_683\n        /* \"#utility.yul\":14754:14755   */\n      dup3\n        /* \"#utility.yul\":14738:14756   */\n      tag_493\n      jump\t// in\n    tag_683:\n        /* \"#utility.yul\":14733:14756   */\n      swap2\n      pop\n        /* \"#utility.yul\":14770:14788   */\n      tag_684\n        /* \"#utility.yul\":14786:14787   */\n      dup4\n        /* \"#utility.yul\":14770:14788   */\n      tag_493\n      jump\t// in\n    tag_684:\n        /* \"#utility.yul\":14765:14788   */\n      swap3\n      pop\n        /* \"#utility.yul\":14812:14813   */\n      dup3\n        /* \"#utility.yul\":14809:14810   */\n      dup3\n        /* \"#utility.yul\":14805:14814   */\n      sub\n        /* \"#utility.yul\":14797:14814   */\n      swap1\n      pop\n        /* \"#utility.yul\":14836:14840   */\n      0xff\n        /* \"#utility.yul\":14830:14834   */\n      dup2\n        /* \"#utility.yul\":14827:14841   */\n      gt\n        /* \"#utility.yul\":14824:14864   */\n      iszero\n      tag_685\n      jumpi\n        /* \"#utility.yul\":14844:14862   */\n      tag_686\n      tag_484\n      jump\t// in\n    tag_686:\n        /* \"#utility.yul\":14824:14864   */\n    tag_685:\n        /* \"#utility.yul\":14680:14871   */\n      swap3\n      swap2\n      pop\n      pop\n      jump\t// out\n        /* \"#utility.yul\":14877:15158   */\n    tag_381:\n        /* \"#utility.yul\":14935:14940   */\n      0x00\n        /* \"#utility.yul\":14959:14982   */\n      tag_688\n        /* \"#utility.yul\":14977:14981   */\n      dup3\n        /* \"#utility.yul\":14959:14982   */\n      tag_477\n      jump\t// in\n    tag_688:\n        /* \"#utility.yul\":14951:14982   */\n      swap2\n      pop\n        /* \"#utility.yul\":15003:15028   */\n      tag_689\n        /* \"#utility.yul\":15019:15027   */\n      dup4\n        /* \"#utility.yul\":15003:15028   */\n      tag_493\n      jump\t// in\n    tag_689:\n        /* \"#utility.yul\":14991:15028   */\n      swap3\n      pop\n        /* \"#utility.yul\":15047:15151   */\n      tag_690\n        /* \"#utility.yul\":15084:15150   */\n      0xffffffffffffffffffffffffffffffffffffffffffffffffffffffffffffffff\n        /* \"#utility.yul\":15074:15082   */\n      dup5\n        /* \"#utility.yul\":15068:15072   */\n      dup5\n        /* \"#utility.yul\":15047:15151   */\n      tag_498\n      jump\t// in\n    tag_690:\n        /* \"#utility.yul\":15038:15151   */\n      swap1\n      pop\n        /* \"#utility.yul\":14877:15158   */\n      swap3\n      swap2\n      pop\n      pop\n      jump\t// out\n        /* \"#utility.yul\":15164:15333   */\n    tag_505:\n        /* \"#utility.yul\":15248:15259   */\n      0x00\n        /* \"#utility.yul\":15282:15288   */\n      dup3\n        /* \"#utility.yul\":15277:15280   */\n      dup3\n        /* \"#utility.yul\":15270:15289   */\n      mstore\n        /* \"#utility.yul\":15322:15326   */\n      0x20\n        /* \"#utility.yul\":15317:15320   */\n      dup3\n        /* \"#utility.yul\":15313:15327   */\n      add\n        /* \"#utility.yul\":15298:15327   */\n      swap1\n      pop\n        /* \"#utility.yul\":15164:15333   */\n      swap3\n      swap2\n      pop\n      pop\n      jump\t// out\n        /* \"#utility.yul\":15339:15520   */\n    tag_506:\n        /* \"#utility.yul\":15479:15512   */\n      0x5265656e7472616e637947756172643a207265656e7472616e742063616c6c00\n        /* \"#utility.yul\":15475:15476   */\n      0x00\n        /* \"#utility.yul\":15467:15473   */\n      dup3\n        /* \"#utility.yul\":15463:15477   */\n      add\n        /* \"#utility.yul\":15456:15513   */\n      mstore\n        /* \"#utility.yul\":15339:15520   */\n      pop\n      jump\t// out\n        /* \"#utility.yul\":15526:15892   */\n    tag_507:\n        /* \"#utility.yul\":15668:15671   */\n      0x00\n        /* \"#utility.yul\":15689:15756   */\n      tag_694\n        /* \"#utility.yul\":15753:15755   */\n      0x1f\n        /* \"#utility.yul\":15748:15751   */\n      dup4\n        /* \"#utility.yul\":15689:15756   */\n      tag_505\n      jump\t// in\n    tag_694:\n        /* \"#utility.yul\":15682:15756   */\n      swap2\n      pop\n        /* \"#utility.yul\":15765:15858   */\n      tag_695\n        /* \"#utility.yul\":15854:15857   */\n      dup3\n        /* \"#utility.yul\":15765:15858   */\n      tag_506\n      jump\t// in\n    tag_695:\n        /* \"#utility.yul\":15883:15885   */\n      0x20\n        /* \"#utility.yul\":15878:15881   */\n      dup3\n        /* \"#utility.yul\":15874:15886   */\n      add\n        /* \"#utility.yul\":15867:15886   */\n      swap1\n      pop\n        /* \"#utility.yul\":15526:15892   */\n      swap2\n      swap1\n      pop\n      jump\t// out\n        /* \"#utility.yul\":15898:16317   */\n    tag_415:\n        /* \"#utility.yul\":16064:16068   */\n      0x00\n        /* \"#utility.yul\":16102:16104   */\n      0x20\n        /* \"#utility.yul\":16091:16100   */\n      dup3\n        /* \"#utility.yul\":16087:16105   */\n      add\n        /* \"#utility.yul\":16079:16105   */\n      swap1\n      pop\n        /* \"#utility.yul\":16151:16160   */\n      dup2\n        /* \"#utility.yul\":16145:16149   */\n      dup2\n        /* \"#utility.yul\":16141:16161   */\n      sub\n        /* \"#utility.yul\":16137:16138   */\n      0x00\n        /* \"#utility.yul\":16126:16135   */\n      dup4\n        /* \"#utility.yul\":16122:16139   */\n      add\n        /* \"#utility.yul\":16115:16162   */\n      mstore\n        /* \"#utility.yul\":16179:16310   */\n      tag_697\n        /* \"#utility.yul\":16305:16309   */\n      dup2\n        /* \"#utility.yul\":16179:16310   */\n      tag_507\n      jump\t// in\n    tag_697:\n        /* \"#utility.yul\":16171:16310   */\n      swap1\n      pop\n        /* \"#utility.yul\":15898:16317   */\n      swap2\n      swap1\n      pop\n      jump\t// out\n\n    auxdata: 0xa26469706673582212203437f34b814bd92eeca301c75206f84ce354e9658d764335a1c60489779f18e164736f6c634300081e0033\n}\n",
				"bytecode": {
					"linkReferences": {},
					"object": "608060405273eeeeeeeeeeeeeeeeeeeeeeeeeeeeeeeeeeeeeeee60075f6101000a81548173ffffffffffffffffffffffffffffffffffffffff021916908373ffffffffffffffffffffffffffffffffffffffff1602179055506113886008556101f460095534801561006f575f5ffd5b503360015f819055505f73ffffffffffffffffffffffffffffffffffffffff168173ffffffffffffffffffffffffffffffffffffffff16036100e8575f6040517f1e4fbdf70000000000000000000000000000000000000000000000000000000081526004016100df91906101ff565b60405180910390fd5b6100f7816100fd60201b60201c565b50610218565b5f60015f9054906101000a900473ffffffffffffffffffffffffffffffffffffffff1690508160015f6101000a81548173ffffffffffffffffffffffffffffffffffffffff021916908373ffffffffffffffffffffffffffffffffffffffff1602179055508173ffffffffffffffffffffffffffffffffffffffff168173ffffffffffffffffffffffffffffffffffffffff167f8be0079c531659141344cd1fd0a4f28419497f9722a3daafe3b4186f6b6457e060405160405180910390a35050565b5f73ffffffffffffffffffffffffffffffffffffffff82169050919050565b5f6101e9826101c0565b9050919050565b6101f9816101df565b82525050565b5f6020820190506102125f8301846101f0565b92915050565b613790806102255f395ff3fe608060405260043610610169575f3560e01c80637a5f0dc4116100d0578063a37e52e311610089578063bcbaf48711610063578063bcbaf48714610544578063c660d1121461056c578063e1bf0a4b146105a8578063f2fde38b146105d05761016a565b8063a37e52e3146104b5578063a87430ba146104dd578063b8bc9cab1461051c5761016a565b80637a5f0dc4146103a557806380b2edd8146103af5780638da5cb5b146103d75780639776f4a5146104015780639d93d3521461043d5780639dcb511a146104795761016a565b8063427f91a611610122578063427f91a6146102845780634bb55d5c146102c05780634de57d75146102ea5780636d1ea3fa146103145780636f77926b14610350578063715018a61461038f5761016a565b80630f07645a1461016c57806315c926781461019457806316345f18146101bc57806328842d4f146101f85780633e4e1c271461022057806340b1eb101461025c5761016a565b5b005b348015610177575f5ffd5b50610192600480360381019061018d9190612efe565b6105f8565b005b34801561019f575f5ffd5b506101ba60048036038101906101b59190612f3c565b610852565b005b3480156101c7575f5ffd5b506101e260048036038101906101dd9190612f3c565b610bb1565b6040516101ef9190612f76565b60405180910390f35b348015610203575f5ffd5b5061021e60048036038101906102199190612f8f565b610f45565b005b34801561022b575f5ffd5b5061024660048036038101906102419190612f3c565b611010565b6040516102539190612f76565b60405180910390f35b348015610267575f5ffd5b50610282600480360381019061027d9190612fba565b611107565b005b34801561028f575f5ffd5b506102aa60048036038101906102a59190612f3c565b6112cc565b6040516102b79190612f76565b60405180910390f35b3480156102cb575f5ffd5b506102d46112e1565b6040516102e19190612f76565b60405180910390f35b3480156102f5575f5ffd5b506102fe6112ed565b60405161030b9190612f76565b60405180910390f35b34801561031f575f5ffd5b5061033a60048036038101906103359190612f3c565b6112f4565b6040516103479190613012565b60405180910390f35b34801561035b575f5ffd5b5061037660048036038101906103719190612f3c565b611311565b604051610386949392919061303a565b60405180910390f35b34801561039a575f5ffd5b506103a36113b6565b005b6103ad6113c9565b005b3480156103ba575f5ffd5b506103d560048036038101906103d09190612f3c565b6114db565b005b3480156103e2575f5ffd5b506103eb611723565b6040516103f8919061307d565b60405180910390f35b34801561040c575f5ffd5b5061042760048036038101906104229190612f8f565b61174b565b604051610434919061307d565b60405180910390f35b348015610448575f5ffd5b50610463600480360381019061045e9190612f3c565b611786565b6040516104709190613012565b60405180910390f35b348015610484575f5ffd5b5061049f600480360381019061049a9190612f3c565b61184a565b6040516104ac919061307d565b60405180910390f35b3480156104c0575f5ffd5b506104db60048036038101906104d69190612f8f565b61187a565b005b3480156104e8575f5ffd5b5061050360048036038101906104fe9190612f3c565b61195b565b604051610513949392919061303a565b60405180910390f35b348015610527575f5ffd5b50610542600480360381019061053d9190612efe565b6119c5565b005b34801561054f575f5ffd5b5061056a60048036038101906105659190612efe565b611dfd565b005b348015610577575f5ffd5b50610592600480360381019061058d9190612efe565b6122d6565b60405161059f9190612f76565b60405180910390f35b3480156105b3575f5ffd5b506105ce60048036038101906105c99190612f8f565b612351565b005b3480156105db575f5ffd5b506105f660048036038101906105f19190612f3c565b612573565b005b6106006125f7565b815f73ffffffffffffffffffffffffffffffffffffffff168173ffffffffffffffffffffffffffffffffffffffff160361067157806040517f8e4c8aa6000000000000000000000000000000000000000000000000000000008152600401610668919061307d565b60405180910390fd5b815f81036106ab576040517f2c5211c600000000000000000000000000000000000000000000000000000000815260040160405180910390fd5b8360045f8273ffffffffffffffffffffffffffffffffffffffff1673ffffffffffffffffffffffffffffffffffffffff1681526020019081526020015f205f9054906101000a900460ff1661073757806040517f87921f5a00000000000000000000000000000000000000000000000000000000815260040161072e919061307d565b60405180910390fd5b5f61074133612644565b905061074c33612689565b610782576040517fb016be5e00000000000000000000000000000000000000000000000000000000815260040160405180910390fd5b61078c33876126d4565b5084816003015f8282546107a091906130c3565b9250508190555085816002015f6101000a81548173ffffffffffffffffffffffffffffffffffffffff021916908373ffffffffffffffffffffffffffffffffffffffff1602179055506107f48633876128f4565b3373ffffffffffffffffffffffffffffffffffffffff167f5abc9a9c4616711eb03d720e050325118645a3695a5e75b5b10a29e2e217fe038660405161083a9190612f76565b60405180910390a25050505061084e612a86565b5050565b61085a612a8f565b805f73ffffffffffffffffffffffffffffffffffffffff168173ffffffffffffffffffffffffffffffffffffffff16036108cb57806040517f8e4c8aa60000000000000000000000000000000000000000000000000000000081526004016108c2919061307d565b60405180910390fd5b60045f8373ffffffffffffffffffffffffffffffffffffffff1673ffffffffffffffffffffffffffffffffffffffff1681526020019081526020015f205f9054906101000a900460ff1661095657816040517f87921f5a00000000000000000000000000000000000000000000000000000000815260040161094d919061307d565b60405180910390fd5b5f60045f8473ffffffffffffffffffffffffffffffffffffffff1673ffffffffffffffffffffffffffffffffffffffff1681526020019081526020015f205f6101000a81548160ff0219169083151502179055505f60055f8473ffffffffffffffffffffffffffffffffffffffff1673ffffffffffffffffffffffffffffffffffffffff1681526020019081526020015f205490505f60016006805490506109fe91906130f6565b90505f60068281548110610a1557610a14613129565b5b905f5260205f20015f9054906101000a900473ffffffffffffffffffffffffffffffffffffffff169050818314610ae3578060068481548110610a5b57610a5a613129565b5b905f5260205f20015f6101000a81548173ffffffffffffffffffffffffffffffffffffffff021916908373ffffffffffffffffffffffffffffffffffffffff1602179055508260055f8373ffffffffffffffffffffffffffffffffffffffff1673ffffffffffffffffffffffffffffffffffffffff1681526020019081526020015f20819055505b6006805480610af557610af4613156565b5b600190038181905f5260205f20015f6101000a81549073ffffffffffffffffffffffffffffffffffffffff0219169055905560055f8673ffffffffffffffffffffffffffffffffffffffff1673ffffffffffffffffffffffffffffffffffffffff1681526020019081526020015f205f90558473ffffffffffffffffffffffffffffffffffffffff167f45f62f30e7b8439e0da7d8e560fe39d01238091ce9e789e3d12b514edf98acea60405160405180910390a25050505050565b5f815f73ffffffffffffffffffffffffffffffffffffffff168173ffffffffffffffffffffffffffffffffffffffff1603610c2357806040517f8e4c8aa6000000000000000000000000000000000000000000000000000000008152600401610c1a919061307d565b60405180910390fd5b5f60035f8573ffffffffffffffffffffffffffffffffffffffff1673ffffffffffffffffffffffffffffffffffffffff1681526020019081526020015f205f9054906101000a900473ffffffffffffffffffffffffffffffffffffffff1690505f73ffffffffffffffffffffffffffffffffffffffff168173ffffffffffffffffffffffffffffffffffffffff1603610cf357806040517f8e4c8aa6000000000000000000000000000000000000000000000000000000008152600401610cea919061307d565b60405180910390fd5b5f8190505f5f5f5f8473ffffffffffffffffffffffffffffffffffffffff1663feaf968c6040518163ffffffff1660e01b815260040160a060405180830381865afa158015610d44573d5f5f3e3d5ffd5b505050506040513d601f19601f82011682018060405250810190610d689190613209565b9450945050935093505f8313610db557826040517fb4e8ae11000000000000000000000000000000000000000000000000000000008152600401610dac919061328f565b60405180910390fd5b8369ffffffffffffffffffff168169ffffffffffffffffffff161015610e07576040517feb8eec2e00000000000000000000000000000000000000000000000000000000815260040160405180910390fd5b5f821480610e225750610e108242610e1f91906130f6565b10155b15610e6457816040517f3b90dd8b000000000000000000000000000000000000000000000000000000008152600401610e5b9190612f76565b60405180910390fd5b5f8573ffffffffffffffffffffffffffffffffffffffff1663313ce5676040518163ffffffff1660e01b8152600401602060405180830381865afa158015610eae573d5f5f3e3d5ffd5b505050506040513d601f19601f82011682018060405250810190610ed291906132de565b60ff1690506012811115610f12576040517fd25598a000000000000000000000000000000000000000000000000000000000815260040160405180910390fd5b806012610f1f91906130f6565b600a610f2b9190613438565b84610f369190613482565b98505050505050505050919050565b610f4d612a8f565b805f8103610f87576040517f2c5211c600000000000000000000000000000000000000000000000000000000815260040160405180910390fd5b612710821115610fce57816040517f45c57aac000000000000000000000000000000000000000000000000000000008152600401610fc59190612f76565b60405180910390fd5b816009819055507f04a7ca0e55f887a637b560614f621b92b79423e20152fea70bc4be66edaee3d6826040516110049190612f76565b60405180910390a15050565b5f815f73ffffffffffffffffffffffffffffffffffffffff168173ffffffffffffffffffffffffffffffffffffffff160361108257806040517f8e4c8aa6000000000000000000000000000000000000000000000000000000008152600401611079919061307d565b60405180910390fd5b5f8390508073ffffffffffffffffffffffffffffffffffffffff166370a08231306040518263ffffffff1660e01b81526004016110bf919061307d565b602060405180830381865afa1580156110da573d5f5f3e3d5ffd5b505050506040513d601f19601f820116820180604052508101906110fe91906134c3565b92505050919050565b61110f612a8f565b815f73ffffffffffffffffffffffffffffffffffffffff168173ffffffffffffffffffffffffffffffffffffffff160361118057806040517f8e4c8aa6000000000000000000000000000000000000000000000000000000008152600401611177919061307d565b60405180910390fd5b815f73ffffffffffffffffffffffffffffffffffffffff168173ffffffffffffffffffffffffffffffffffffffff16036111f157806040517f8e4c8aa60000000000000000000000000000000000000000000000000000000081526004016111e8919061307d565b60405180910390fd5b8260035f8673ffffffffffffffffffffffffffffffffffffffff1673ffffffffffffffffffffffffffffffffffffffff1681526020019081526020015f205f6101000a81548173ffffffffffffffffffffffffffffffffffffffff021916908373ffffffffffffffffffffffffffffffffffffffff1602179055508273ffffffffffffffffffffffffffffffffffffffff168473ffffffffffffffffffffffffffffffffffffffff167fa8abe0398416476db5b05737cd4da3b3cbde5012d978a6a6c3fd49d32175353660405160405180910390a350505050565b6005602052805f5260405f205f915090505481565b5f600680549050905090565b5f47905090565b6004602052805f5260405f205f915054906101000a900460ff1681565b5f5f5f5f5f60025f8773ffffffffffffffffffffffffffffffffffffffff1673ffffffffffffffffffffffffffffffffffffffff1681526020019081526020015f209050805f015f9054906101000a900473ffffffffffffffffffffffffffffffffffffffff168160010154826002015f9054906101000a900473ffffffffffffffffffffffffffffffffffffffff1683600301549450945094509450509193509193565b6113be612a8f565b6113c75f612b16565b565b5f3403611402576040517fb016be5e00000000000000000000000000000000000000000000000000000000815260040160405180910390fd5b5f61140c33612644565b905034816001015f82825461142191906130c3565b9250508190555060075f9054906101000a900473ffffffffffffffffffffffffffffffffffffffff16815f015f6101000a81548173ffffffffffffffffffffffffffffffffffffffff021916908373ffffffffffffffffffffffffffffffffffffffff1602179055503373ffffffffffffffffffffffffffffffffffffffff167f1c0917c3a343a300b56473c59fa8355d3326f2c73472679a5b4cd5d6e0390c80346040516114d09190612f76565b60405180910390a250565b6114e3612a8f565b805f73ffffffffffffffffffffffffffffffffffffffff168173ffffffffffffffffffffffffffffffffffffffff160361155457806040517f8e4c8aa600000000000000000000000000000000000000000000000000000000815260040161154b919061307d565b60405180910390fd5b60045f8373ffffffffffffffffffffffffffffffffffffffff1673ffffffffffffffffffffffffffffffffffffffff1681526020019081526020015f205f9054906101000a900460ff16156115e057816040517f766420470000000000000000000000000000000000000000000000000000000081526004016115d7919061307d565b60405180910390fd5b600160045f8473ffffffffffffffffffffffffffffffffffffffff1673ffffffffffffffffffffffffffffffffffffffff1681526020019081526020015f205f6101000a81548160ff02191690831515021790555060068054905060055f8473ffffffffffffffffffffffffffffffffffffffff1673ffffffffffffffffffffffffffffffffffffffff1681526020019081526020015f2081905550600682908060018154018082558091505060019003905f5260205f20015f9091909190916101000a81548173ffffffffffffffffffffffffffffffffffffffff021916908373ffffffffffffffffffffffffffffffffffffffff1602179055508173ffffffffffffffffffffffffffffffffffffffff167f026283404367cffc0443317066c3531d3db2306ad6e65aa1bee91dbe98c615a160405160405180910390a25050565b5f60015f9054906101000a900473ffffffffffffffffffffffffffffffffffffffff16905090565b6006818154811061175a575f80fd5b905f5260205f20015f915054906101000a900473ffffffffffffffffffffffffffffffffffffffff1681565b5f815f73ffffffffffffffffffffffffffffffffffffffff168173ffffffffffffffffffffffffffffffffffffffff16036117f857806040517f8e4c8aa60000000000000000000000000000000000000000000000000000000081526004016117ef919061307d565b60405180910390fd5b60045f8473ffffffffffffffffffffffffffffffffffffffff1673ffffffffffffffffffffffffffffffffffffffff1681526020019081526020015f205f9054906101000a900460ff16915050919050565b6003602052805f5260405f205f915054906101000a900473ffffffffffffffffffffffffffffffffffffffff1681565b611882612a8f565b805f81036118bc576040517f2c5211c600000000000000000000000000000000000000000000000000000000815260040160405180910390fd5b5f8214806118cb575061271082115b806118d75750611d4c82115b1561191957816040517f78dc164f0000000000000000000000000000000000000000000000000000000081526004016119109190612f76565b60405180910390fd5b816008819055507fcce25c35b561657fb7cd2ac403c6a4854283d0f4d462e68e0f97d07c348bcff28260405161194f9190612f76565b60405180910390a15050565b6002602052805f5260405f205f91509050805f015f9054906101000a900473ffffffffffffffffffffffffffffffffffffffff1690806001015490806002015f9054906101000a900473ffffffffffffffffffffffffffffffffffffffff16908060030154905084565b815f73ffffffffffffffffffffffffffffffffffffffff168173ffffffffffffffffffffffffffffffffffffffff1603611a3657806040517f8e4c8aa6000000000000000000000000000000000000000000000000000000008152600401611a2d919061307d565b60405180910390fd5b815f8103611a70576040517f2c5211c600000000000000000000000000000000000000000000000000000000815260040160405180910390fd5b8360045f8273ffffffffffffffffffffffffffffffffffffffff1673ffffffffffffffffffffffffffffffffffffffff1681526020019081526020015f205f9054906101000a900460ff16611afc57806040517f87921f5a000000000000000000000000000000000000000000000000000000008152600401611af3919061307d565b60405180910390fd5b5f611b0633612644565b9050611b1133612bd9565b611b47576040517f33cbf2bc00000000000000000000000000000000000000000000000000000000815260040160405180910390fd5b611b513387612c24565b611b9257856040517f6f79c78a000000000000000000000000000000000000000000000000000000008152600401611b89919061307d565b60405180910390fd5b8060030154851115611be1578481600301546040517f99bcd813000000000000000000000000000000000000000000000000000000008152600401611bd89291906134ee565b60405180910390fd5b806002015f9054906101000a900473ffffffffffffffffffffffffffffffffffffffff1673ffffffffffffffffffffffffffffffffffffffff1663095ea7b330876040518363ffffffff1660e01b8152600401611c3f929190613515565b6020604051808303815f875af1158015611c5b573d5f5f3e3d5ffd5b505050506040513d601f19601f82011682018060405250810190611c7f9190613566565b505f816002015f9054906101000a900473ffffffffffffffffffffffffffffffffffffffff1673ffffffffffffffffffffffffffffffffffffffff166323b872dd3330896040518463ffffffff1660e01b8152600401611ce193929190613591565b6020604051808303815f875af1158015611cfd573d5f5f3e3d5ffd5b505050506040513d601f19601f82011682018060405250810190611d219190613566565b905080611d8c57816002015f9054906101000a900473ffffffffffffffffffffffffffffffffffffffff1633876040517fbf182be8000000000000000000000000000000000000000000000000000000008152600401611d8393929190613591565b60405180910390fd5b85826003015f828254611d9f91906130f6565b925050819055503373ffffffffffffffffffffffffffffffffffffffff167fb7efcc12f3d3e74e33995ff303aca806b9428989809e60a4e5a4d465832966e487604051611dec9190612f76565b60405180910390a250505050505050565b815f73ffffffffffffffffffffffffffffffffffffffff168173ffffffffffffffffffffffffffffffffffffffff1603611e6e57806040517f8e4c8aa6000000000000000000000000000000000000000000000000000000008152600401611e65919061307d565b60405180910390fd5b815f8103611ea8576040517f2c5211c600000000000000000000000000000000000000000000000000000000815260040160405180910390fd5b5f611eb285612644565b9050611ebd85612bd9565b611ef3576040517f33cbf2bc00000000000000000000000000000000000000000000000000000000815260040160405180910390fd5b5f612710611d4c8360010154611f099190613482565b611f1391906135f3565b90505f670de0b6b3a7640000611f4b846002015f9054906101000a900473ffffffffffffffffffffffffffffffffffffffff16610bb1565b8460030154611f5a9190613482565b611f6491906135f3565b905081811015611fad5780826040517fd771d8e9000000000000000000000000000000000000000000000000000000008152600401611fa49291906134ee565b60405180910390fd5b826002015f9054906101000a900473ffffffffffffffffffffffffffffffffffffffff1673ffffffffffffffffffffffffffffffffffffffff1663095ea7b330886040518363ffffffff1660e01b815260040161200b929190613515565b6020604051808303815f875af1158015612027573d5f5f3e3d5ffd5b505050506040513d601f19601f8201168201806040525081019061204b9190613566565b505f836002015f9054906101000a900473ffffffffffffffffffffffffffffffffffffffff1673ffffffffffffffffffffffffffffffffffffffff166323b872dd33308a6040518463ffffffff1660e01b81526004016120ad93929190613591565b6020604051808303815f875af11580156120c9573d5f5f3e3d5ffd5b505050506040513d601f19601f820116820180604052508101906120ed9190613566565b90508061215857836002015f9054906101000a900473ffffffffffffffffffffffffffffffffffffffff1633886040517fbf182be800000000000000000000000000000000000000000000000000000000815260040161214f93929190613591565b60405180910390fd5b86846003015f82825461216b91906130f6565b925050819055505f61219e855f015f9054906101000a900473ffffffffffffffffffffffffffffffffffffffff16610bb1565b670de0b6b3a7640000808a6121b39190613482565b6121bd9190613482565b6121c791906135f3565b905084600101548111156121dd57846001015490505b80856001015f8282546121f091906130f6565b925050819055505f3373ffffffffffffffffffffffffffffffffffffffff168260405161221c90613650565b5f6040518083038185875af1925050503d805f8114612256576040519150601f19603f3d011682016040523d82523d5f602084013e61225b565b606091505b50509050806122a5575f33836040517fbf182be800000000000000000000000000000000000000000000000000000000815260040161229c93929190613591565b60405180910390fd5b5f86600301541480156122bb57505f8660010154145b156122ca576122c98a612cbb565b5b50505050505050505050565b5f5f6122e184610bb1565b90505f81036122f3575f91505061234b565b5f6122fd85612d60565b90505f81601261230d9190613664565b600a6123199190613698565b856123249190613482565b9050670de0b6b3a7640000838261233b9190613482565b61234591906135f3565b93505050505b92915050565b6123596125f7565b805f8103612393576040517f2c5211c600000000000000000000000000000000000000000000000000000000815260040160405180910390fd5b5f61239d33612644565b90505f8160030154146123eb5780600301546040517f40a636fb0000000000000000000000000000000000000000000000000000000081526004016123e29190612f76565b60405180910390fd5b806001015483111561243a578060010154836040517f768063db0000000000000000000000000000000000000000000000000000000081526004016124319291906134ee565b60405180910390fd5b5f3373ffffffffffffffffffffffffffffffffffffffff168460405161245f90613650565b5f6040518083038185875af1925050503d805f8114612499576040519150601f19603f3d011682016040523d82523d5f602084013e61249e565b606091505b50509050806124e8575f33856040517fbf182be80000000000000000000000000000000000000000000000000000000081526004016124df93929190613591565b60405180910390fd5b83826001015f8282546124fb91906130f6565b925050819055505f8260010154036125175761251633612cbb565b5b3373ffffffffffffffffffffffffffffffffffffffff167f5b0743acabce0ea09498b3c2598ed444f80ef6513a2029d7d9aaed87064d1edb8560405161255d9190612f76565b60405180910390a2505050612570612a86565b50565b61257b612a8f565b5f73ffffffffffffffffffffffffffffffffffffffff168173ffffffffffffffffffffffffffffffffffffffff16036125eb575f6040517f1e4fbdf70000000000000000000000000000000000000000000000000000000081526004016125e2919061307d565b60405180910390fd5b6125f481612b16565b50565b60025f540361263b576040517f08c379a00000000000000000000000000000000000000000000000000000000081526004016126329061373c565b60405180910390fd5b60025f81905550565b5f60025f8373ffffffffffffffffffffffffffffffffffffffff1673ffffffffffffffffffffffffffffffffffffffff1681526020019081526020015f209050919050565b5f5f60025f8473ffffffffffffffffffffffffffffffffffffffff1673ffffffffffffffffffffffffffffffffffffffff1681526020019081526020015f2060010154119050919050565b5f5f6126df84612644565b90505f81600101540361271e576040517fb016be5e00000000000000000000000000000000000000000000000000000000815260040160405180910390fd5b5f73ffffffffffffffffffffffffffffffffffffffff1660035f8573ffffffffffffffffffffffffffffffffffffffff1673ffffffffffffffffffffffffffffffffffffffff1681526020019081526020015f205f9054906101000a900473ffffffffffffffffffffffffffffffffffffffff1673ffffffffffffffffffffffffffffffffffffffff16036127ea57826040517f6f79c78a0000000000000000000000000000000000000000000000000000000081526004016127e1919061307d565b60405180910390fd5b5f61281b825f015f9054906101000a900473ffffffffffffffffffffffffffffffffffffffff1683600101546122d6565b90505f6127106008548361282f9190613482565b61283991906135f3565b90505f5f90505f8460030154111561287f5761287c846002015f9054906101000a900473ffffffffffffffffffffffffffffffffffffffff1685600301546122d6565b90505b818110612892575f9450505050506128ee565b5f818361289f91906130f6565b90505f81036128b5575f955050505050506128ee565b5f6128bf88610bb1565b90505f81670de0b6b3a7640000846128d79190613482565b6128e191906135f3565b9050809750505050505050505b92915050565b5f8390505f8173ffffffffffffffffffffffffffffffffffffffff166370a08231306040518263ffffffff1660e01b8152600401612932919061307d565b602060405180830381865afa15801561294d573d5f5f3e3d5ffd5b505050506040513d601f19601f8201168201806040525081019061297191906134c3565b9050828110156129ba5780836040517fce9514f90000000000000000000000000000000000000000000000000000000081526004016129b19291906134ee565b60405180910390fd5b5f8273ffffffffffffffffffffffffffffffffffffffff1663a9059cbb86866040518363ffffffff1660e01b81526004016129f6929190613515565b6020604051808303815f875af1158015612a12573d5f5f3e3d5ffd5b505050506040513d601f19601f82011682018060405250810190612a369190613566565b905080612a7e578585856040517fc8776798000000000000000000000000000000000000000000000000000000008152600401612a7593929190613591565b60405180910390fd5b505050505050565b60015f81905550565b612a97612e66565b73ffffffffffffffffffffffffffffffffffffffff16612ab5611723565b73ffffffffffffffffffffffffffffffffffffffff1614612b1457612ad8612e66565b6040517f118cdaa7000000000000000000000000000000000000000000000000000000008152600401612b0b919061307d565b60405180910390fd5b565b5f60015f9054906101000a900473ffffffffffffffffffffffffffffffffffffffff1690508160015f6101000a81548173ffffffffffffffffffffffffffffffffffffffff021916908373ffffffffffffffffffffffffffffffffffffffff1602179055508173ffffffffffffffffffffffffffffffffffffffff168173ffffffffffffffffffffffffffffffffffffffff167f8be0079c531659141344cd1fd0a4f28419497f9722a3daafe3b4186f6b6457e060405160405180910390a35050565b5f5f60025f8473ffffffffffffffffffffffffffffffffffffffff1673ffffffffffffffffffffffffffffffffffffffff1681526020019081526020015f2060030154119050919050565b5f8173ffffffffffffffffffffffffffffffffffffffff1660025f8573ffffffffffffffffffffffffffffffffffffffff1673ffffffffffffffffffffffffffffffffffffffff1681526020019081526020015f206002015f9054906101000a900473ffffffffffffffffffffffffffffffffffffffff1673ffffffffffffffffffffffffffffffffffffffff1614905092915050565b5f612cc582612644565b90505f816002015f6101000a81548173ffffffffffffffffffffffffffffffffffffffff021916908373ffffffffffffffffffffffffffffffffffffffff1602179055505f81600301819055505f815f015f6101000a81548173ffffffffffffffffffffffffffffffffffffffff021916908373ffffffffffffffffffffffffffffffffffffffff1602179055505f81600101819055505050565b5f60075f9054906101000a900473ffffffffffffffffffffffffffffffffffffffff1673ffffffffffffffffffffffffffffffffffffffff168273ffffffffffffffffffffffffffffffffffffffff1603612dbe5760129050612e61565b8173ffffffffffffffffffffffffffffffffffffffff1663313ce5676040518163ffffffff1660e01b8152600401602060405180830381865afa925050508015612e2657506040513d601f19601f82011682018060405250810190612e2391906132de565b60015b612e5c576040517fd25598a000000000000000000000000000000000000000000000000000000000815260040160405180910390fd5b809150505b919050565b5f33905090565b5f5ffd5b5f73ffffffffffffffffffffffffffffffffffffffff82169050919050565b5f612e9a82612e71565b9050919050565b612eaa81612e90565b8114612eb4575f5ffd5b50565b5f81359050612ec581612ea1565b92915050565b5f819050919050565b612edd81612ecb565b8114612ee7575f5ffd5b50565b5f81359050612ef881612ed4565b92915050565b5f5f60408385031215612f1457612f13612e6d565b5b5f612f2185828601612eb7565b9250506020612f3285828601612eea565b9150509250929050565b5f60208284031215612f5157612f50612e6d565b5b5f612f5e84828501612eb7565b91505092915050565b612f7081612ecb565b82525050565b5f602082019050612f895f830184612f67565b92915050565b5f60208284031215612fa457612fa3612e6d565b5b5f612fb184828501612eea565b91505092915050565b5f5f60408385031215612fd057612fcf612e6d565b5b5f612fdd85828601612eb7565b9250506020612fee85828601612eb7565b9150509250929050565b5f8115159050919050565b61300c81612ff8565b82525050565b5f6020820190506130255f830184613003565b92915050565b61303481612e90565b82525050565b5f60808201905061304d5f83018761302b565b61305a6020830186612f67565b613067604083018561302b565b6130746060830184612f67565b95945050505050565b5f6020820190506130905f83018461302b565b92915050565b7f4e487b71000000000000000000000000000000000000000000000000000000005f52601160045260245ffd5b5f6130cd82612ecb565b91506130d883612ecb565b92508282019050808211156130f0576130ef613096565b5b92915050565b5f61310082612ecb565b915061310b83612ecb565b925082820390508181111561312357613122613096565b5b92915050565b7f4e487b71000000000000000000000000000000000000000000000000000000005f52603260045260245ffd5b7f4e487b71000000000000000000000000000000000000000000000000000000005f52603160045260245ffd5b5f69ffffffffffffffffffff82169050919050565b6131a181613183565b81146131ab575f5ffd5b50565b5f815190506131bc81613198565b92915050565b5f819050919050565b6131d4816131c2565b81146131de575f5ffd5b50565b5f815190506131ef816131cb565b92915050565b5f8151905061320381612ed4565b92915050565b5f5f5f5f5f60a0868803121561322257613221612e6d565b5b5f61322f888289016131ae565b9550506020613240888289016131e1565b9450506040613251888289016131f5565b9350506060613262888289016131f5565b9250506080613273888289016131ae565b9150509295509295909350565b613289816131c2565b82525050565b5f6020820190506132a25f830184613280565b92915050565b5f60ff82169050919050565b6132bd816132a8565b81146132c7575f5ffd5b50565b5f815190506132d8816132b4565b92915050565b5f602082840312156132f3576132f2612e6d565b5b5f613300848285016132ca565b91505092915050565b5f8160011c9050919050565b5f5f8291508390505b600185111561335e5780860481111561333a57613339613096565b5b60018516156133495780820291505b808102905061335785613309565b945061331e565b94509492505050565b5f826133765760019050613431565b81613383575f9050613431565b816001811461339957600281146133a3576133d2565b6001915050613431565b60ff8411156133b5576133b4613096565b5b8360020a9150848211156133cc576133cb613096565b5b50613431565b5060208310610133831016604e8410600b84101617156134075782820a90508381111561340257613401613096565b5b613431565b6134148484846001613315565b9250905081840481111561342b5761342a613096565b5b81810290505b9392505050565b5f61344282612ecb565b915061344d83612ecb565b925061347a7fffffffffffffffffffffffffffffffffffffffffffffffffffffffffffffffff8484613367565b905092915050565b5f61348c82612ecb565b915061349783612ecb565b92508282026134a581612ecb565b915082820484148315176134bc576134bb613096565b5b5092915050565b5f602082840312156134d8576134d7612e6d565b5b5f6134e5848285016131f5565b91505092915050565b5f6040820190506135015f830185612f67565b61350e6020830184612f67565b9392505050565b5f6040820190506135285f83018561302b565b6135356020830184612f67565b9392505050565b61354581612ff8565b811461354f575f5ffd5b50565b5f815190506135608161353c565b92915050565b5f6020828403121561357b5761357a612e6d565b5b5f61358884828501613552565b91505092915050565b5f6060820190506135a45f83018661302b565b6135b1602083018561302b565b6135be6040830184612f67565b949350505050565b7f4e487b71000000000000000000000000000000000000000000000000000000005f52601260045260245ffd5b5f6135fd82612ecb565b915061360883612ecb565b925082613618576136176135c6565b5b828204905092915050565b5f81905092915050565b50565b5f61363b5f83613623565b91506136468261362d565b5f82019050919050565b5f61365a82613630565b9150819050919050565b5f61366e826132a8565b9150613679836132a8565b9250828203905060ff81111561369257613691613096565b5b92915050565b5f6136a282612ecb565b91506136ad836132a8565b92506136da7fffffffffffffffffffffffffffffffffffffffffffffffffffffffffffffffff8484613367565b905092915050565b5f82825260208201905092915050565b7f5265656e7472616e637947756172643a207265656e7472616e742063616c6c005f82015250565b5f613726601f836136e2565b9150613731826136f2565b602082019050919050565b5f6020820190508181035f8301526137538161371a565b905091905056fea26469706673582212203437f34b814bd92eeca301c75206f84ce354e9658d764335a1c60489779f18e164736f6c634300081e0033",
					"opcodes": "PUSH1 0x80 PUSH1 0x40 MSTORE PUSH20 0xEEEEEEEEEEEEEEEEEEEEEEEEEEEEEEEEEEEEEEEE PUSH1 0x7 PUSH0 PUSH2 0x100 EXP DUP2 SLOAD DUP2 PUSH20 0xFFFFFFFFFFFFFFFFFFFFFFFFFFFFFFFFFFFFFFFF MUL NOT AND SWAP1 DUP4 PUSH20 0xFFFFFFFFFFFFFFFFFFFFFFFFFFFFFFFFFFFFFFFF AND MUL OR SWAP1 SSTORE POP PUSH2 0x1388 PUSH1 0x8 SSTORE PUSH2 0x1F4 PUSH1 0x9 SSTORE CALLVALUE DUP1 ISZERO PUSH2 0x6F JUMPI PUSH0 PUSH0 REVERT JUMPDEST POP CALLER PUSH1 0x1 PUSH0 DUP2 SWAP1 SSTORE POP PUSH0 PUSH20 0xFFFFFFFFFFFFFFFFFFFFFFFFFFFFFFFFFFFFFFFF AND DUP2 PUSH20 0xFFFFFFFFFFFFFFFFFFFFFFFFFFFFFFFFFFFFFFFF AND SUB PUSH2 0xE8 JUMPI PUSH0 PUSH1 0x40 MLOAD PUSH32 0x1E4FBDF700000000000000000000000000000000000000000000000000000000 DUP2 MSTORE PUSH1 0x4 ADD PUSH2 0xDF SWAP2 SWAP1 PUSH2 0x1FF JUMP JUMPDEST PUSH1 0x40 MLOAD DUP1 SWAP2 SUB SWAP1 REVERT JUMPDEST PUSH2 0xF7 DUP2 PUSH2 0xFD PUSH1 0x20 SHL PUSH1 0x20 SHR JUMP JUMPDEST POP PUSH2 0x218 JUMP JUMPDEST PUSH0 PUSH1 0x1 PUSH0 SWAP1 SLOAD SWAP1 PUSH2 0x100 EXP SWAP1 DIV PUSH20 0xFFFFFFFFFFFFFFFFFFFFFFFFFFFFFFFFFFFFFFFF AND SWAP1 POP DUP2 PUSH1 0x1 PUSH0 PUSH2 0x100 EXP DUP2 SLOAD DUP2 PUSH20 0xFFFFFFFFFFFFFFFFFFFFFFFFFFFFFFFFFFFFFFFF MUL NOT AND SWAP1 DUP4 PUSH20 0xFFFFFFFFFFFFFFFFFFFFFFFFFFFFFFFFFFFFFFFF AND MUL OR SWAP1 SSTORE POP DUP2 PUSH20 0xFFFFFFFFFFFFFFFFFFFFFFFFFFFFFFFFFFFFFFFF AND DUP2 PUSH20 0xFFFFFFFFFFFFFFFFFFFFFFFFFFFFFFFFFFFFFFFF AND PUSH32 0x8BE0079C531659141344CD1FD0A4F28419497F9722A3DAAFE3B4186F6B6457E0 PUSH1 0x40 MLOAD PUSH1 0x40 MLOAD DUP1 SWAP2 SUB SWAP1 LOG3 POP POP JUMP JUMPDEST PUSH0 PUSH20 0xFFFFFFFFFFFFFFFFFFFFFFFFFFFFFFFFFFFFFFFF DUP3 AND SWAP1 POP SWAP2 SWAP1 POP JUMP JUMPDEST PUSH0 PUSH2 0x1E9 DUP3 PUSH2 0x1C0 JUMP JUMPDEST SWAP1 POP SWAP2 SWAP1 POP JUMP JUMPDEST PUSH2 0x1F9 DUP2 PUSH2 0x1DF JUMP JUMPDEST DUP3 MSTORE POP POP JUMP JUMPDEST PUSH0 PUSH1 0x20 DUP3 ADD SWAP1 POP PUSH2 0x212 PUSH0 DUP4 ADD DUP5 PUSH2 0x1F0 JUMP JUMPDEST SWAP3 SWAP2 POP POP JUMP JUMPDEST PUSH2 0x3790 DUP1 PUSH2 0x225 PUSH0 CODECOPY PUSH0 RETURN INVALID PUSH1 0x80 PUSH1 0x40 MSTORE PUSH1 0x4 CALLDATASIZE LT PUSH2 0x169 JUMPI PUSH0 CALLDATALOAD PUSH1 0xE0 SHR DUP1 PUSH4 0x7A5F0DC4 GT PUSH2 0xD0 JUMPI DUP1 PUSH4 0xA37E52E3 GT PUSH2 0x89 JUMPI DUP1 PUSH4 0xBCBAF487 GT PUSH2 0x63 JUMPI DUP1 PUSH4 0xBCBAF487 EQ PUSH2 0x544 JUMPI DUP1 PUSH4 0xC660D112 EQ PUSH2 0x56C JUMPI DUP1 PUSH4 0xE1BF0A4B EQ PUSH2 0x5A8 JUMPI DUP1 PUSH4 0xF2FDE38B EQ PUSH2 0x5D0 JUMPI PUSH2 0x16A JUMP JUMPDEST DUP1 PUSH4 0xA37E52E3 EQ PUSH2 0x4B5 JUMPI DUP1 PUSH4 0xA87430BA EQ PUSH2 0x4DD JUMPI DUP1 PUSH4 0xB8BC9CAB EQ PUSH2 0x51C JUMPI PUSH2 0x16A JUMP JUMPDEST DUP1 PUSH4 0x7A5F0DC4 EQ PUSH2 0x3A5 JUMPI DUP1 PUSH4 0x80B2EDD8 EQ PUSH2 0x3AF JUMPI DUP1 PUSH4 0x8DA5CB5B EQ PUSH2 0x3D7 JUMPI DUP1 PUSH4 0x9776F4A5 EQ PUSH2 0x401 JUMPI DUP1 PUSH4 0x9D93D352 EQ PUSH2 0x43D JUMPI DUP1 PUSH4 0x9DCB511A EQ PUSH2 0x479 JUMPI PUSH2 0x16A JUMP JUMPDEST DUP1 PUSH4 0x427F91A6 GT PUSH2 0x122 JUMPI DUP1 PUSH4 0x427F91A6 EQ PUSH2 0x284 JUMPI DUP1 PUSH4 0x4BB55D5C EQ PUSH2 0x2C0 JUMPI DUP1 PUSH4 0x4DE57D75 EQ PUSH2 0x2EA JUMPI DUP1 PUSH4 0x6D1EA3FA EQ PUSH2 0x314 JUMPI DUP1 PUSH4 0x6F77926B EQ PUSH2 0x350 JUMPI DUP1 PUSH4 0x715018A6 EQ PUSH2 0x38F JUMPI PUSH2 0x16A JUMP JUMPDEST DUP1 PUSH4 0xF07645A EQ PUSH2 0x16C JUMPI DUP1 PUSH4 0x15C92678 EQ PUSH2 0x194 JUMPI DUP1 PUSH4 0x16345F18 EQ PUSH2 0x1BC JUMPI DUP1 PUSH4 0x28842D4F EQ PUSH2 0x1F8 JUMPI DUP1 PUSH4 0x3E4E1C27 EQ PUSH2 0x220 JUMPI DUP1 PUSH4 0x40B1EB10 EQ PUSH2 0x25C JUMPI PUSH2 0x16A JUMP JUMPDEST JUMPDEST STOP JUMPDEST CALLVALUE DUP1 ISZERO PUSH2 0x177 JUMPI PUSH0 PUSH0 REVERT JUMPDEST POP PUSH2 0x192 PUSH1 0x4 DUP1 CALLDATASIZE SUB DUP2 ADD SWAP1 PUSH2 0x18D SWAP2 SWAP1 PUSH2 0x2EFE JUMP JUMPDEST PUSH2 0x5F8 JUMP JUMPDEST STOP JUMPDEST CALLVALUE DUP1 ISZERO PUSH2 0x19F JUMPI PUSH0 PUSH0 REVERT JUMPDEST POP PUSH2 0x1BA PUSH1 0x4 DUP1 CALLDATASIZE SUB DUP2 ADD SWAP1 PUSH2 0x1B5 SWAP2 SWAP1 PUSH2 0x2F3C JUMP JUMPDEST PUSH2 0x852 JUMP JUMPDEST STOP JUMPDEST CALLVALUE DUP1 ISZERO PUSH2 0x1C7 JUMPI PUSH0 PUSH0 REVERT JUMPDEST POP PUSH2 0x1E2 PUSH1 0x4 DUP1 CALLDATASIZE SUB DUP2 ADD SWAP1 PUSH2 0x1DD SWAP2 SWAP1 PUSH2 0x2F3C JUMP JUMPDEST PUSH2 0xBB1 JUMP JUMPDEST PUSH1 0x40 MLOAD PUSH2 0x1EF SWAP2 SWAP1 PUSH2 0x2F76 JUMP JUMPDEST PUSH1 0x40 MLOAD DUP1 SWAP2 SUB SWAP1 RETURN JUMPDEST CALLVALUE DUP1 ISZERO PUSH2 0x203 JUMPI PUSH0 PUSH0 REVERT JUMPDEST POP PUSH2 0x21E PUSH1 0x4 DUP1 CALLDATASIZE SUB DUP2 ADD SWAP1 PUSH2 0x219 SWAP2 SWAP1 PUSH2 0x2F8F JUMP JUMPDEST PUSH2 0xF45 JUMP JUMPDEST STOP JUMPDEST CALLVALUE DUP1 ISZERO PUSH2 0x22B JUMPI PUSH0 PUSH0 REVERT JUMPDEST POP PUSH2 0x246 PUSH1 0x4 DUP1 CALLDATASIZE SUB DUP2 ADD SWAP1 PUSH2 0x241 SWAP2 SWAP1 PUSH2 0x2F3C JUMP JUMPDEST PUSH2 0x1010 JUMP JUMPDEST PUSH1 0x40 MLOAD PUSH2 0x253 SWAP2 SWAP1 PUSH2 0x2F76 JUMP JUMPDEST PUSH1 0x40 MLOAD DUP1 SWAP2 SUB SWAP1 RETURN JUMPDEST CALLVALUE DUP1 ISZERO PUSH2 0x267 JUMPI PUSH0 PUSH0 REVERT JUMPDEST POP PUSH2 0x282 PUSH1 0x4 DUP1 CALLDATASIZE SUB DUP2 ADD SWAP1 PUSH2 0x27D SWAP2 SWAP1 PUSH2 0x2FBA JUMP JUMPDEST PUSH2 0x1107 JUMP JUMPDEST STOP JUMPDEST CALLVALUE DUP1 ISZERO PUSH2 0x28F JUMPI PUSH0 PUSH0 REVERT JUMPDEST POP PUSH2 0x2AA PUSH1 0x4 DUP1 CALLDATASIZE SUB DUP2 ADD SWAP1 PUSH2 0x2A5 SWAP2 SWAP1 PUSH2 0x2F3C JUMP JUMPDEST PUSH2 0x12CC JUMP JUMPDEST PUSH1 0x40 MLOAD PUSH2 0x2B7 SWAP2 SWAP1 PUSH2 0x2F76 JUMP JUMPDEST PUSH1 0x40 MLOAD DUP1 SWAP2 SUB SWAP1 RETURN JUMPDEST CALLVALUE DUP1 ISZERO PUSH2 0x2CB JUMPI PUSH0 PUSH0 REVERT JUMPDEST POP PUSH2 0x2D4 PUSH2 0x12E1 JUMP JUMPDEST PUSH1 0x40 MLOAD PUSH2 0x2E1 SWAP2 SWAP1 PUSH2 0x2F76 JUMP JUMPDEST PUSH1 0x40 MLOAD DUP1 SWAP2 SUB SWAP1 RETURN JUMPDEST CALLVALUE DUP1 ISZERO PUSH2 0x2F5 JUMPI PUSH0 PUSH0 REVERT JUMPDEST POP PUSH2 0x2FE PUSH2 0x12ED JUMP JUMPDEST PUSH1 0x40 MLOAD PUSH2 0x30B SWAP2 SWAP1 PUSH2 0x2F76 JUMP JUMPDEST PUSH1 0x40 MLOAD DUP1 SWAP2 SUB SWAP1 RETURN JUMPDEST CALLVALUE DUP1 ISZERO PUSH2 0x31F JUMPI PUSH0 PUSH0 REVERT JUMPDEST POP PUSH2 0x33A PUSH1 0x4 DUP1 CALLDATASIZE SUB DUP2 ADD SWAP1 PUSH2 0x335 SWAP2 SWAP1 PUSH2 0x2F3C JUMP JUMPDEST PUSH2 0x12F4 JUMP JUMPDEST PUSH1 0x40 MLOAD PUSH2 0x347 SWAP2 SWAP1 PUSH2 0x3012 JUMP JUMPDEST PUSH1 0x40 MLOAD DUP1 SWAP2 SUB SWAP1 RETURN JUMPDEST CALLVALUE DUP1 ISZERO PUSH2 0x35B JUMPI PUSH0 PUSH0 REVERT JUMPDEST POP PUSH2 0x376 PUSH1 0x4 DUP1 CALLDATASIZE SUB DUP2 ADD SWAP1 PUSH2 0x371 SWAP2 SWAP1 PUSH2 0x2F3C JUMP JUMPDEST PUSH2 0x1311 JUMP JUMPDEST PUSH1 0x40 MLOAD PUSH2 0x386 SWAP5 SWAP4 SWAP3 SWAP2 SWAP1 PUSH2 0x303A JUMP JUMPDEST PUSH1 0x40 MLOAD DUP1 SWAP2 SUB SWAP1 RETURN JUMPDEST CALLVALUE DUP1 ISZERO PUSH2 0x39A JUMPI PUSH0 PUSH0 REVERT JUMPDEST POP PUSH2 0x3A3 PUSH2 0x13B6 JUMP JUMPDEST STOP JUMPDEST PUSH2 0x3AD PUSH2 0x13C9 JUMP JUMPDEST STOP JUMPDEST CALLVALUE DUP1 ISZERO PUSH2 0x3BA JUMPI PUSH0 PUSH0 REVERT JUMPDEST POP PUSH2 0x3D5 PUSH1 0x4 DUP1 CALLDATASIZE SUB DUP2 ADD SWAP1 PUSH2 0x3D0 SWAP2 SWAP1 PUSH2 0x2F3C JUMP JUMPDEST PUSH2 0x14DB JUMP JUMPDEST STOP JUMPDEST CALLVALUE DUP1 ISZERO PUSH2 0x3E2 JUMPI PUSH0 PUSH0 REVERT JUMPDEST POP PUSH2 0x3EB PUSH2 0x1723 JUMP JUMPDEST PUSH1 0x40 MLOAD PUSH2 0x3F8 SWAP2 SWAP1 PUSH2 0x307D JUMP JUMPDEST PUSH1 0x40 MLOAD DUP1 SWAP2 SUB SWAP1 RETURN JUMPDEST CALLVALUE DUP1 ISZERO PUSH2 0x40C JUMPI PUSH0 PUSH0 REVERT JUMPDEST POP PUSH2 0x427 PUSH1 0x4 DUP1 CALLDATASIZE SUB DUP2 ADD SWAP1 PUSH2 0x422 SWAP2 SWAP1 PUSH2 0x2F8F JUMP JUMPDEST PUSH2 0x174B JUMP JUMPDEST PUSH1 0x40 MLOAD PUSH2 0x434 SWAP2 SWAP1 PUSH2 0x307D JUMP JUMPDEST PUSH1 0x40 MLOAD DUP1 SWAP2 SUB SWAP1 RETURN JUMPDEST CALLVALUE DUP1 ISZERO PUSH2 0x448 JUMPI PUSH0 PUSH0 REVERT JUMPDEST POP PUSH2 0x463 PUSH1 0x4 DUP1 CALLDATASIZE SUB DUP2 ADD SWAP1 PUSH2 0x45E SWAP2 SWAP1 PUSH2 0x2F3C JUMP JUMPDEST PUSH2 0x1786 JUMP JUMPDEST PUSH1 0x40 MLOAD PUSH2 0x470 SWAP2 SWAP1 PUSH2 0x3012 JUMP JUMPDEST PUSH1 0x40 MLOAD DUP1 SWAP2 SUB SWAP1 RETURN JUMPDEST CALLVALUE DUP1 ISZERO PUSH2 0x484 JUMPI PUSH0 PUSH0 REVERT JUMPDEST POP PUSH2 0x49F PUSH1 0x4 DUP1 CALLDATASIZE SUB DUP2 ADD SWAP1 PUSH2 0x49A SWAP2 SWAP1 PUSH2 0x2F3C JUMP JUMPDEST PUSH2 0x184A JUMP JUMPDEST PUSH1 0x40 MLOAD PUSH2 0x4AC SWAP2 SWAP1 PUSH2 0x307D JUMP JUMPDEST PUSH1 0x40 MLOAD DUP1 SWAP2 SUB SWAP1 RETURN JUMPDEST CALLVALUE DUP1 ISZERO PUSH2 0x4C0 JUMPI PUSH0 PUSH0 REVERT JUMPDEST POP PUSH2 0x4DB PUSH1 0x4 DUP1 CALLDATASIZE SUB DUP2 ADD SWAP1 PUSH2 0x4D6 SWAP2 SWAP1 PUSH2 0x2F8F JUMP JUMPDEST PUSH2 0x187A JUMP JUMPDEST STOP JUMPDEST CALLVALUE DUP1 ISZERO PUSH2 0x4E8 JUMPI PUSH0 PUSH0 REVERT JUMPDEST POP PUSH2 0x503 PUSH1 0x4 DUP1 CALLDATASIZE SUB DUP2 ADD SWAP1 PUSH2 0x4FE SWAP2 SWAP1 PUSH2 0x2F3C JUMP JUMPDEST PUSH2 0x195B JUMP JUMPDEST PUSH1 0x40 MLOAD PUSH2 0x513 SWAP5 SWAP4 SWAP3 SWAP2 SWAP1 PUSH2 0x303A JUMP JUMPDEST PUSH1 0x40 MLOAD DUP1 SWAP2 SUB SWAP1 RETURN JUMPDEST CALLVALUE DUP1 ISZERO PUSH2 0x527 JUMPI PUSH0 PUSH0 REVERT JUMPDEST POP PUSH2 0x542 PUSH1 0x4 DUP1 CALLDATASIZE SUB DUP2 ADD SWAP1 PUSH2 0x53D SWAP2 SWAP1 PUSH2 0x2EFE JUMP JUMPDEST PUSH2 0x19C5 JUMP JUMPDEST STOP JUMPDEST CALLVALUE DUP1 ISZERO PUSH2 0x54F JUMPI PUSH0 PUSH0 REVERT JUMPDEST POP PUSH2 0x56A PUSH1 0x4 DUP1 CALLDATASIZE SUB DUP2 ADD SWAP1 PUSH2 0x565 SWAP2 SWAP1 PUSH2 0x2EFE JUMP JUMPDEST PUSH2 0x1DFD JUMP JUMPDEST STOP JUMPDEST CALLVALUE DUP1 ISZERO PUSH2 0x577 JUMPI PUSH0 PUSH0 REVERT JUMPDEST POP PUSH2 0x592 PUSH1 0x4 DUP1 CALLDATASIZE SUB DUP2 ADD SWAP1 PUSH2 0x58D SWAP2 SWAP1 PUSH2 0x2EFE JUMP JUMPDEST PUSH2 0x22D6 JUMP JUMPDEST PUSH1 0x40 MLOAD PUSH2 0x59F SWAP2 SWAP1 PUSH2 0x2F76 JUMP JUMPDEST PUSH1 0x40 MLOAD DUP1 SWAP2 SUB SWAP1 RETURN JUMPDEST CALLVALUE DUP1 ISZERO PUSH2 0x5B3 JUMPI PUSH0 PUSH0 REVERT JUMPDEST POP PUSH2 0x5CE PUSH1 0x4 DUP1 CALLDATASIZE SUB DUP2 ADD SWAP1 PUSH2 0x5C9 SWAP2 SWAP1 PUSH2 0x2F8F JUMP JUMPDEST PUSH2 0x2351 JUMP JUMPDEST STOP JUMPDEST CALLVALUE DUP1 ISZERO PUSH2 0x5DB JUMPI PUSH0 PUSH0 REVERT JUMPDEST POP PUSH2 0x5F6 PUSH1 0x4 DUP1 CALLDATASIZE SUB DUP2 ADD SWAP1 PUSH2 0x5F1 SWAP2 SWAP1 PUSH2 0x2F3C JUMP JUMPDEST PUSH2 0x2573 JUMP JUMPDEST STOP JUMPDEST PUSH2 0x600 PUSH2 0x25F7 JUMP JUMPDEST DUP2 PUSH0 PUSH20 0xFFFFFFFFFFFFFFFFFFFFFFFFFFFFFFFFFFFFFFFF AND DUP2 PUSH20 0xFFFFFFFFFFFFFFFFFFFFFFFFFFFFFFFFFFFFFFFF AND SUB PUSH2 0x671 JUMPI DUP1 PUSH1 0x40 MLOAD PUSH32 0x8E4C8AA600000000000000000000000000000000000000000000000000000000 DUP2 MSTORE PUSH1 0x4 ADD PUSH2 0x668 SWAP2 SWAP1 PUSH2 0x307D JUMP JUMPDEST PUSH1 0x40 MLOAD DUP1 SWAP2 SUB SWAP1 REVERT JUMPDEST DUP2 PUSH0 DUP2 SUB PUSH2 0x6AB JUMPI PUSH1 0x40 MLOAD PUSH32 0x2C5211C600000000000000000000000000000000000000000000000000000000 DUP2 MSTORE PUSH1 0x4 ADD PUSH1 0x40 MLOAD DUP1 SWAP2 SUB SWAP1 REVERT JUMPDEST DUP4 PUSH1 0x4 PUSH0 DUP3 PUSH20 0xFFFFFFFFFFFFFFFFFFFFFFFFFFFFFFFFFFFFFFFF AND PUSH20 0xFFFFFFFFFFFFFFFFFFFFFFFFFFFFFFFFFFFFFFFF AND DUP2 MSTORE PUSH1 0x20 ADD SWAP1 DUP2 MSTORE PUSH1 0x20 ADD PUSH0 KECCAK256 PUSH0 SWAP1 SLOAD SWAP1 PUSH2 0x100 EXP SWAP1 DIV PUSH1 0xFF AND PUSH2 0x737 JUMPI DUP1 PUSH1 0x40 MLOAD PUSH32 0x87921F5A00000000000000000000000000000000000000000000000000000000 DUP2 MSTORE PUSH1 0x4 ADD PUSH2 0x72E SWAP2 SWAP1 PUSH2 0x307D JUMP JUMPDEST PUSH1 0x40 MLOAD DUP1 SWAP2 SUB SWAP1 REVERT JUMPDEST PUSH0 PUSH2 0x741 CALLER PUSH2 0x2644 JUMP JUMPDEST SWAP1 POP PUSH2 0x74C CALLER PUSH2 0x2689 JUMP JUMPDEST PUSH2 0x782 JUMPI PUSH1 0x40 MLOAD PUSH32 0xB016BE5E00000000000000000000000000000000000000000000000000000000 DUP2 MSTORE PUSH1 0x4 ADD PUSH1 0x40 MLOAD DUP1 SWAP2 SUB SWAP1 REVERT JUMPDEST PUSH2 0x78C CALLER DUP8 PUSH2 0x26D4 JUMP JUMPDEST POP DUP5 DUP2 PUSH1 0x3 ADD PUSH0 DUP3 DUP3 SLOAD PUSH2 0x7A0 SWAP2 SWAP1 PUSH2 0x30C3 JUMP JUMPDEST SWAP3 POP POP DUP2 SWAP1 SSTORE POP DUP6 DUP2 PUSH1 0x2 ADD PUSH0 PUSH2 0x100 EXP DUP2 SLOAD DUP2 PUSH20 0xFFFFFFFFFFFFFFFFFFFFFFFFFFFFFFFFFFFFFFFF MUL NOT AND SWAP1 DUP4 PUSH20 0xFFFFFFFFFFFFFFFFFFFFFFFFFFFFFFFFFFFFFFFF AND MUL OR SWAP1 SSTORE POP PUSH2 0x7F4 DUP7 CALLER DUP8 PUSH2 0x28F4 JUMP JUMPDEST CALLER PUSH20 0xFFFFFFFFFFFFFFFFFFFFFFFFFFFFFFFFFFFFFFFF AND PUSH32 0x5ABC9A9C4616711EB03D720E050325118645A3695A5E75B5B10A29E2E217FE03 DUP7 PUSH1 0x40 MLOAD PUSH2 0x83A SWAP2 SWAP1 PUSH2 0x2F76 JUMP JUMPDEST PUSH1 0x40 MLOAD DUP1 SWAP2 SUB SWAP1 LOG2 POP POP POP POP PUSH2 0x84E PUSH2 0x2A86 JUMP JUMPDEST POP POP JUMP JUMPDEST PUSH2 0x85A PUSH2 0x2A8F JUMP JUMPDEST DUP1 PUSH0 PUSH20 0xFFFFFFFFFFFFFFFFFFFFFFFFFFFFFFFFFFFFFFFF AND DUP2 PUSH20 0xFFFFFFFFFFFFFFFFFFFFFFFFFFFFFFFFFFFFFFFF AND SUB PUSH2 0x8CB JUMPI DUP1 PUSH1 0x40 MLOAD PUSH32 0x8E4C8AA600000000000000000000000000000000000000000000000000000000 DUP2 MSTORE PUSH1 0x4 ADD PUSH2 0x8C2 SWAP2 SWAP1 PUSH2 0x307D JUMP JUMPDEST PUSH1 0x40 MLOAD DUP1 SWAP2 SUB SWAP1 REVERT JUMPDEST PUSH1 0x4 PUSH0 DUP4 PUSH20 0xFFFFFFFFFFFFFFFFFFFFFFFFFFFFFFFFFFFFFFFF AND PUSH20 0xFFFFFFFFFFFFFFFFFFFFFFFFFFFFFFFFFFFFFFFF AND DUP2 MSTORE PUSH1 0x20 ADD SWAP1 DUP2 MSTORE PUSH1 0x20 ADD PUSH0 KECCAK256 PUSH0 SWAP1 SLOAD SWAP1 PUSH2 0x100 EXP SWAP1 DIV PUSH1 0xFF AND PUSH2 0x956 JUMPI DUP2 PUSH1 0x40 MLOAD PUSH32 0x87921F5A00000000000000000000000000000000000000000000000000000000 DUP2 MSTORE PUSH1 0x4 ADD PUSH2 0x94D SWAP2 SWAP1 PUSH2 0x307D JUMP JUMPDEST PUSH1 0x40 MLOAD DUP1 SWAP2 SUB SWAP1 REVERT JUMPDEST PUSH0 PUSH1 0x4 PUSH0 DUP5 PUSH20 0xFFFFFFFFFFFFFFFFFFFFFFFFFFFFFFFFFFFFFFFF AND PUSH20 0xFFFFFFFFFFFFFFFFFFFFFFFFFFFFFFFFFFFFFFFF AND DUP2 MSTORE PUSH1 0x20 ADD SWAP1 DUP2 MSTORE PUSH1 0x20 ADD PUSH0 KECCAK256 PUSH0 PUSH2 0x100 EXP DUP2 SLOAD DUP2 PUSH1 0xFF MUL NOT AND SWAP1 DUP4 ISZERO ISZERO MUL OR SWAP1 SSTORE POP PUSH0 PUSH1 0x5 PUSH0 DUP5 PUSH20 0xFFFFFFFFFFFFFFFFFFFFFFFFFFFFFFFFFFFFFFFF AND PUSH20 0xFFFFFFFFFFFFFFFFFFFFFFFFFFFFFFFFFFFFFFFF AND DUP2 MSTORE PUSH1 0x20 ADD SWAP1 DUP2 MSTORE PUSH1 0x20 ADD PUSH0 KECCAK256 SLOAD SWAP1 POP PUSH0 PUSH1 0x1 PUSH1 0x6 DUP1 SLOAD SWAP1 POP PUSH2 0x9FE SWAP2 SWAP1 PUSH2 0x30F6 JUMP JUMPDEST SWAP1 POP PUSH0 PUSH1 0x6 DUP3 DUP2 SLOAD DUP2 LT PUSH2 0xA15 JUMPI PUSH2 0xA14 PUSH2 0x3129 JUMP JUMPDEST JUMPDEST SWAP1 PUSH0 MSTORE PUSH1 0x20 PUSH0 KECCAK256 ADD PUSH0 SWAP1 SLOAD SWAP1 PUSH2 0x100 EXP SWAP1 DIV PUSH20 0xFFFFFFFFFFFFFFFFFFFFFFFFFFFFFFFFFFFFFFFF AND SWAP1 POP DUP2 DUP4 EQ PUSH2 0xAE3 JUMPI DUP1 PUSH1 0x6 DUP5 DUP2 SLOAD DUP2 LT PUSH2 0xA5B JUMPI PUSH2 0xA5A PUSH2 0x3129 JUMP JUMPDEST JUMPDEST SWAP1 PUSH0 MSTORE PUSH1 0x20 PUSH0 KECCAK256 ADD PUSH0 PUSH2 0x100 EXP DUP2 SLOAD DUP2 PUSH20 0xFFFFFFFFFFFFFFFFFFFFFFFFFFFFFFFFFFFFFFFF MUL NOT AND SWAP1 DUP4 PUSH20 0xFFFFFFFFFFFFFFFFFFFFFFFFFFFFFFFFFFFFFFFF AND MUL OR SWAP1 SSTORE POP DUP3 PUSH1 0x5 PUSH0 DUP4 PUSH20 0xFFFFFFFFFFFFFFFFFFFFFFFFFFFFFFFFFFFFFFFF AND PUSH20 0xFFFFFFFFFFFFFFFFFFFFFFFFFFFFFFFFFFFFFFFF AND DUP2 MSTORE PUSH1 0x20 ADD SWAP1 DUP2 MSTORE PUSH1 0x20 ADD PUSH0 KECCAK256 DUP2 SWAP1 SSTORE POP JUMPDEST PUSH1 0x6 DUP1 SLOAD DUP1 PUSH2 0xAF5 JUMPI PUSH2 0xAF4 PUSH2 0x3156 JUMP JUMPDEST JUMPDEST PUSH1 0x1 SWAP1 SUB DUP2 DUP2 SWAP1 PUSH0 MSTORE PUSH1 0x20 PUSH0 KECCAK256 ADD PUSH0 PUSH2 0x100 EXP DUP2 SLOAD SWAP1 PUSH20 0xFFFFFFFFFFFFFFFFFFFFFFFFFFFFFFFFFFFFFFFF MUL NOT AND SWAP1 SSTORE SWAP1 SSTORE PUSH1 0x5 PUSH0 DUP7 PUSH20 0xFFFFFFFFFFFFFFFFFFFFFFFFFFFFFFFFFFFFFFFF AND PUSH20 0xFFFFFFFFFFFFFFFFFFFFFFFFFFFFFFFFFFFFFFFF AND DUP2 MSTORE PUSH1 0x20 ADD SWAP1 DUP2 MSTORE PUSH1 0x20 ADD PUSH0 KECCAK256 PUSH0 SWAP1 SSTORE DUP5 PUSH20 0xFFFFFFFFFFFFFFFFFFFFFFFFFFFFFFFFFFFFFFFF AND PUSH32 0x45F62F30E7B8439E0DA7D8E560FE39D01238091CE9E789E3D12B514EDF98ACEA PUSH1 0x40 MLOAD PUSH1 0x40 MLOAD DUP1 SWAP2 SUB SWAP1 LOG2 POP POP POP POP POP JUMP JUMPDEST PUSH0 DUP2 PUSH0 PUSH20 0xFFFFFFFFFFFFFFFFFFFFFFFFFFFFFFFFFFFFFFFF AND DUP2 PUSH20 0xFFFFFFFFFFFFFFFFFFFFFFFFFFFFFFFFFFFFFFFF AND SUB PUSH2 0xC23 JUMPI DUP1 PUSH1 0x40 MLOAD PUSH32 0x8E4C8AA600000000000000000000000000000000000000000000000000000000 DUP2 MSTORE PUSH1 0x4 ADD PUSH2 0xC1A SWAP2 SWAP1 PUSH2 0x307D JUMP JUMPDEST PUSH1 0x40 MLOAD DUP1 SWAP2 SUB SWAP1 REVERT JUMPDEST PUSH0 PUSH1 0x3 PUSH0 DUP6 PUSH20 0xFFFFFFFFFFFFFFFFFFFFFFFFFFFFFFFFFFFFFFFF AND PUSH20 0xFFFFFFFFFFFFFFFFFFFFFFFFFFFFFFFFFFFFFFFF AND DUP2 MSTORE PUSH1 0x20 ADD SWAP1 DUP2 MSTORE PUSH1 0x20 ADD PUSH0 KECCAK256 PUSH0 SWAP1 SLOAD SWAP1 PUSH2 0x100 EXP SWAP1 DIV PUSH20 0xFFFFFFFFFFFFFFFFFFFFFFFFFFFFFFFFFFFFFFFF AND SWAP1 POP PUSH0 PUSH20 0xFFFFFFFFFFFFFFFFFFFFFFFFFFFFFFFFFFFFFFFF AND DUP2 PUSH20 0xFFFFFFFFFFFFFFFFFFFFFFFFFFFFFFFFFFFFFFFF AND SUB PUSH2 0xCF3 JUMPI DUP1 PUSH1 0x40 MLOAD PUSH32 0x8E4C8AA600000000000000000000000000000000000000000000000000000000 DUP2 MSTORE PUSH1 0x4 ADD PUSH2 0xCEA SWAP2 SWAP1 PUSH2 0x307D JUMP JUMPDEST PUSH1 0x40 MLOAD DUP1 SWAP2 SUB SWAP1 REVERT JUMPDEST PUSH0 DUP2 SWAP1 POP PUSH0 PUSH0 PUSH0 PUSH0 DUP5 PUSH20 0xFFFFFFFFFFFFFFFFFFFFFFFFFFFFFFFFFFFFFFFF AND PUSH4 0xFEAF968C PUSH1 0x40 MLOAD DUP2 PUSH4 0xFFFFFFFF AND PUSH1 0xE0 SHL DUP2 MSTORE PUSH1 0x4 ADD PUSH1 0xA0 PUSH1 0x40 MLOAD DUP1 DUP4 SUB DUP2 DUP7 GAS STATICCALL ISZERO DUP1 ISZERO PUSH2 0xD44 JUMPI RETURNDATASIZE PUSH0 PUSH0 RETURNDATACOPY RETURNDATASIZE PUSH0 REVERT JUMPDEST POP POP POP POP PUSH1 0x40 MLOAD RETURNDATASIZE PUSH1 0x1F NOT PUSH1 0x1F DUP3 ADD AND DUP3 ADD DUP1 PUSH1 0x40 MSTORE POP DUP2 ADD SWAP1 PUSH2 0xD68 SWAP2 SWAP1 PUSH2 0x3209 JUMP JUMPDEST SWAP5 POP SWAP5 POP POP SWAP4 POP SWAP4 POP PUSH0 DUP4 SGT PUSH2 0xDB5 JUMPI DUP3 PUSH1 0x40 MLOAD PUSH32 0xB4E8AE1100000000000000000000000000000000000000000000000000000000 DUP2 MSTORE PUSH1 0x4 ADD PUSH2 0xDAC SWAP2 SWAP1 PUSH2 0x328F JUMP JUMPDEST PUSH1 0x40 MLOAD DUP1 SWAP2 SUB SWAP1 REVERT JUMPDEST DUP4 PUSH10 0xFFFFFFFFFFFFFFFFFFFF AND DUP2 PUSH10 0xFFFFFFFFFFFFFFFFFFFF AND LT ISZERO PUSH2 0xE07 JUMPI PUSH1 0x40 MLOAD PUSH32 0xEB8EEC2E00000000000000000000000000000000000000000000000000000000 DUP2 MSTORE PUSH1 0x4 ADD PUSH1 0x40 MLOAD DUP1 SWAP2 SUB SWAP1 REVERT JUMPDEST PUSH0 DUP3 EQ DUP1 PUSH2 0xE22 JUMPI POP PUSH2 0xE10 DUP3 TIMESTAMP PUSH2 0xE1F SWAP2 SWAP1 PUSH2 0x30F6 JUMP JUMPDEST LT ISZERO JUMPDEST ISZERO PUSH2 0xE64 JUMPI DUP2 PUSH1 0x40 MLOAD PUSH32 0x3B90DD8B00000000000000000000000000000000000000000000000000000000 DUP2 MSTORE PUSH1 0x4 ADD PUSH2 0xE5B SWAP2 SWAP1 PUSH2 0x2F76 JUMP JUMPDEST PUSH1 0x40 MLOAD DUP1 SWAP2 SUB SWAP1 REVERT JUMPDEST PUSH0 DUP6 PUSH20 0xFFFFFFFFFFFFFFFFFFFFFFFFFFFFFFFFFFFFFFFF AND PUSH4 0x313CE567 PUSH1 0x40 MLOAD DUP2 PUSH4 0xFFFFFFFF AND PUSH1 0xE0 SHL DUP2 MSTORE PUSH1 0x4 ADD PUSH1 0x20 PUSH1 0x40 MLOAD DUP1 DUP4 SUB DUP2 DUP7 GAS STATICCALL ISZERO DUP1 ISZERO PUSH2 0xEAE JUMPI RETURNDATASIZE PUSH0 PUSH0 RETURNDATACOPY RETURNDATASIZE PUSH0 REVERT JUMPDEST POP POP POP POP PUSH1 0x40 MLOAD RETURNDATASIZE PUSH1 0x1F NOT PUSH1 0x1F DUP3 ADD AND DUP3 ADD DUP1 PUSH1 0x40 MSTORE POP DUP2 ADD SWAP1 PUSH2 0xED2 SWAP2 SWAP1 PUSH2 0x32DE JUMP JUMPDEST PUSH1 0xFF AND SWAP1 POP PUSH1 0x12 DUP2 GT ISZERO PUSH2 0xF12 JUMPI PUSH1 0x40 MLOAD PUSH32 0xD25598A000000000000000000000000000000000000000000000000000000000 DUP2 MSTORE PUSH1 0x4 ADD PUSH1 0x40 MLOAD DUP1 SWAP2 SUB SWAP1 REVERT JUMPDEST DUP1 PUSH1 0x12 PUSH2 0xF1F SWAP2 SWAP1 PUSH2 0x30F6 JUMP JUMPDEST PUSH1 0xA PUSH2 0xF2B SWAP2 SWAP1 PUSH2 0x3438 JUMP JUMPDEST DUP5 PUSH2 0xF36 SWAP2 SWAP1 PUSH2 0x3482 JUMP JUMPDEST SWAP9 POP POP POP POP POP POP POP POP POP SWAP2 SWAP1 POP JUMP JUMPDEST PUSH2 0xF4D PUSH2 0x2A8F JUMP JUMPDEST DUP1 PUSH0 DUP2 SUB PUSH2 0xF87 JUMPI PUSH1 0x40 MLOAD PUSH32 0x2C5211C600000000000000000000000000000000000000000000000000000000 DUP2 MSTORE PUSH1 0x4 ADD PUSH1 0x40 MLOAD DUP1 SWAP2 SUB SWAP1 REVERT JUMPDEST PUSH2 0x2710 DUP3 GT ISZERO PUSH2 0xFCE JUMPI DUP2 PUSH1 0x40 MLOAD PUSH32 0x45C57AAC00000000000000000000000000000000000000000000000000000000 DUP2 MSTORE PUSH1 0x4 ADD PUSH2 0xFC5 SWAP2 SWAP1 PUSH2 0x2F76 JUMP JUMPDEST PUSH1 0x40 MLOAD DUP1 SWAP2 SUB SWAP1 REVERT JUMPDEST DUP2 PUSH1 0x9 DUP2 SWAP1 SSTORE POP PUSH32 0x4A7CA0E55F887A637B560614F621B92B79423E20152FEA70BC4BE66EDAEE3D6 DUP3 PUSH1 0x40 MLOAD PUSH2 0x1004 SWAP2 SWAP1 PUSH2 0x2F76 JUMP JUMPDEST PUSH1 0x40 MLOAD DUP1 SWAP2 SUB SWAP1 LOG1 POP POP JUMP JUMPDEST PUSH0 DUP2 PUSH0 PUSH20 0xFFFFFFFFFFFFFFFFFFFFFFFFFFFFFFFFFFFFFFFF AND DUP2 PUSH20 0xFFFFFFFFFFFFFFFFFFFFFFFFFFFFFFFFFFFFFFFF AND SUB PUSH2 0x1082 JUMPI DUP1 PUSH1 0x40 MLOAD PUSH32 0x8E4C8AA600000000000000000000000000000000000000000000000000000000 DUP2 MSTORE PUSH1 0x4 ADD PUSH2 0x1079 SWAP2 SWAP1 PUSH2 0x307D JUMP JUMPDEST PUSH1 0x40 MLOAD DUP1 SWAP2 SUB SWAP1 REVERT JUMPDEST PUSH0 DUP4 SWAP1 POP DUP1 PUSH20 0xFFFFFFFFFFFFFFFFFFFFFFFFFFFFFFFFFFFFFFFF AND PUSH4 0x70A08231 ADDRESS PUSH1 0x40 MLOAD DUP3 PUSH4 0xFFFFFFFF AND PUSH1 0xE0 SHL DUP2 MSTORE PUSH1 0x4 ADD PUSH2 0x10BF SWAP2 SWAP1 PUSH2 0x307D JUMP JUMPDEST PUSH1 0x20 PUSH1 0x40 MLOAD DUP1 DUP4 SUB DUP2 DUP7 GAS STATICCALL ISZERO DUP1 ISZERO PUSH2 0x10DA JUMPI RETURNDATASIZE PUSH0 PUSH0 RETURNDATACOPY RETURNDATASIZE PUSH0 REVERT JUMPDEST POP POP POP POP PUSH1 0x40 MLOAD RETURNDATASIZE PUSH1 0x1F NOT PUSH1 0x1F DUP3 ADD AND DUP3 ADD DUP1 PUSH1 0x40 MSTORE POP DUP2 ADD SWAP1 PUSH2 0x10FE SWAP2 SWAP1 PUSH2 0x34C3 JUMP JUMPDEST SWAP3 POP POP POP SWAP2 SWAP1 POP JUMP JUMPDEST PUSH2 0x110F PUSH2 0x2A8F JUMP JUMPDEST DUP2 PUSH0 PUSH20 0xFFFFFFFFFFFFFFFFFFFFFFFFFFFFFFFFFFFFFFFF AND DUP2 PUSH20 0xFFFFFFFFFFFFFFFFFFFFFFFFFFFFFFFFFFFFFFFF AND SUB PUSH2 0x1180 JUMPI DUP1 PUSH1 0x40 MLOAD PUSH32 0x8E4C8AA600000000000000000000000000000000000000000000000000000000 DUP2 MSTORE PUSH1 0x4 ADD PUSH2 0x1177 SWAP2 SWAP1 PUSH2 0x307D JUMP JUMPDEST PUSH1 0x40 MLOAD DUP1 SWAP2 SUB SWAP1 REVERT JUMPDEST DUP2 PUSH0 PUSH20 0xFFFFFFFFFFFFFFFFFFFFFFFFFFFFFFFFFFFFFFFF AND DUP2 PUSH20 0xFFFFFFFFFFFFFFFFFFFFFFFFFFFFFFFFFFFFFFFF AND SUB PUSH2 0x11F1 JUMPI DUP1 PUSH1 0x40 MLOAD PUSH32 0x8E4C8AA600000000000000000000000000000000000000000000000000000000 DUP2 MSTORE PUSH1 0x4 ADD PUSH2 0x11E8 SWAP2 SWAP1 PUSH2 0x307D JUMP JUMPDEST PUSH1 0x40 MLOAD DUP1 SWAP2 SUB SWAP1 REVERT JUMPDEST DUP3 PUSH1 0x3 PUSH0 DUP7 PUSH20 0xFFFFFFFFFFFFFFFFFFFFFFFFFFFFFFFFFFFFFFFF AND PUSH20 0xFFFFFFFFFFFFFFFFFFFFFFFFFFFFFFFFFFFFFFFF AND DUP2 MSTORE PUSH1 0x20 ADD SWAP1 DUP2 MSTORE PUSH1 0x20 ADD PUSH0 KECCAK256 PUSH0 PUSH2 0x100 EXP DUP2 SLOAD DUP2 PUSH20 0xFFFFFFFFFFFFFFFFFFFFFFFFFFFFFFFFFFFFFFFF MUL NOT AND SWAP1 DUP4 PUSH20 0xFFFFFFFFFFFFFFFFFFFFFFFFFFFFFFFFFFFFFFFF AND MUL OR SWAP1 SSTORE POP DUP3 PUSH20 0xFFFFFFFFFFFFFFFFFFFFFFFFFFFFFFFFFFFFFFFF AND DUP5 PUSH20 0xFFFFFFFFFFFFFFFFFFFFFFFFFFFFFFFFFFFFFFFF AND PUSH32 0xA8ABE0398416476DB5B05737CD4DA3B3CBDE5012D978A6A6C3FD49D321753536 PUSH1 0x40 MLOAD PUSH1 0x40 MLOAD DUP1 SWAP2 SUB SWAP1 LOG3 POP POP POP POP JUMP JUMPDEST PUSH1 0x5 PUSH1 0x20 MSTORE DUP1 PUSH0 MSTORE PUSH1 0x40 PUSH0 KECCAK256 PUSH0 SWAP2 POP SWAP1 POP SLOAD DUP2 JUMP JUMPDEST PUSH0 PUSH1 0x6 DUP1 SLOAD SWAP1 POP SWAP1 POP SWAP1 JUMP JUMPDEST PUSH0 SELFBALANCE SWAP1 POP SWAP1 JUMP JUMPDEST PUSH1 0x4 PUSH1 0x20 MSTORE DUP1 PUSH0 MSTORE PUSH1 0x40 PUSH0 KECCAK256 PUSH0 SWAP2 POP SLOAD SWAP1 PUSH2 0x100 EXP SWAP1 DIV PUSH1 0xFF AND DUP2 JUMP JUMPDEST PUSH0 PUSH0 PUSH0 PUSH0 PUSH0 PUSH1 0x2 PUSH0 DUP8 PUSH20 0xFFFFFFFFFFFFFFFFFFFFFFFFFFFFFFFFFFFFFFFF AND PUSH20 0xFFFFFFFFFFFFFFFFFFFFFFFFFFFFFFFFFFFFFFFF AND DUP2 MSTORE PUSH1 0x20 ADD SWAP1 DUP2 MSTORE PUSH1 0x20 ADD PUSH0 KECCAK256 SWAP1 POP DUP1 PUSH0 ADD PUSH0 SWAP1 SLOAD SWAP1 PUSH2 0x100 EXP SWAP1 DIV PUSH20 0xFFFFFFFFFFFFFFFFFFFFFFFFFFFFFFFFFFFFFFFF AND DUP2 PUSH1 0x1 ADD SLOAD DUP3 PUSH1 0x2 ADD PUSH0 SWAP1 SLOAD SWAP1 PUSH2 0x100 EXP SWAP1 DIV PUSH20 0xFFFFFFFFFFFFFFFFFFFFFFFFFFFFFFFFFFFFFFFF AND DUP4 PUSH1 0x3 ADD SLOAD SWAP5 POP SWAP5 POP SWAP5 POP SWAP5 POP POP SWAP2 SWAP4 POP SWAP2 SWAP4 JUMP JUMPDEST PUSH2 0x13BE PUSH2 0x2A8F JUMP JUMPDEST PUSH2 0x13C7 PUSH0 PUSH2 0x2B16 JUMP JUMPDEST JUMP JUMPDEST PUSH0 CALLVALUE SUB PUSH2 0x1402 JUMPI PUSH1 0x40 MLOAD PUSH32 0xB016BE5E00000000000000000000000000000000000000000000000000000000 DUP2 MSTORE PUSH1 0x4 ADD PUSH1 0x40 MLOAD DUP1 SWAP2 SUB SWAP1 REVERT JUMPDEST PUSH0 PUSH2 0x140C CALLER PUSH2 0x2644 JUMP JUMPDEST SWAP1 POP CALLVALUE DUP2 PUSH1 0x1 ADD PUSH0 DUP3 DUP3 SLOAD PUSH2 0x1421 SWAP2 SWAP1 PUSH2 0x30C3 JUMP JUMPDEST SWAP3 POP POP DUP2 SWAP1 SSTORE POP PUSH1 0x7 PUSH0 SWAP1 SLOAD SWAP1 PUSH2 0x100 EXP SWAP1 DIV PUSH20 0xFFFFFFFFFFFFFFFFFFFFFFFFFFFFFFFFFFFFFFFF AND DUP2 PUSH0 ADD PUSH0 PUSH2 0x100 EXP DUP2 SLOAD DUP2 PUSH20 0xFFFFFFFFFFFFFFFFFFFFFFFFFFFFFFFFFFFFFFFF MUL NOT AND SWAP1 DUP4 PUSH20 0xFFFFFFFFFFFFFFFFFFFFFFFFFFFFFFFFFFFFFFFF AND MUL OR SWAP1 SSTORE POP CALLER PUSH20 0xFFFFFFFFFFFFFFFFFFFFFFFFFFFFFFFFFFFFFFFF AND PUSH32 0x1C0917C3A343A300B56473C59FA8355D3326F2C73472679A5B4CD5D6E0390C80 CALLVALUE PUSH1 0x40 MLOAD PUSH2 0x14D0 SWAP2 SWAP1 PUSH2 0x2F76 JUMP JUMPDEST PUSH1 0x40 MLOAD DUP1 SWAP2 SUB SWAP1 LOG2 POP JUMP JUMPDEST PUSH2 0x14E3 PUSH2 0x2A8F JUMP JUMPDEST DUP1 PUSH0 PUSH20 0xFFFFFFFFFFFFFFFFFFFFFFFFFFFFFFFFFFFFFFFF AND DUP2 PUSH20 0xFFFFFFFFFFFFFFFFFFFFFFFFFFFFFFFFFFFFFFFF AND SUB PUSH2 0x1554 JUMPI DUP1 PUSH1 0x40 MLOAD PUSH32 0x8E4C8AA600000000000000000000000000000000000000000000000000000000 DUP2 MSTORE PUSH1 0x4 ADD PUSH2 0x154B SWAP2 SWAP1 PUSH2 0x307D JUMP JUMPDEST PUSH1 0x40 MLOAD DUP1 SWAP2 SUB SWAP1 REVERT JUMPDEST PUSH1 0x4 PUSH0 DUP4 PUSH20 0xFFFFFFFFFFFFFFFFFFFFFFFFFFFFFFFFFFFFFFFF AND PUSH20 0xFFFFFFFFFFFFFFFFFFFFFFFFFFFFFFFFFFFFFFFF AND DUP2 MSTORE PUSH1 0x20 ADD SWAP1 DUP2 MSTORE PUSH1 0x20 ADD PUSH0 KECCAK256 PUSH0 SWAP1 SLOAD SWAP1 PUSH2 0x100 EXP SWAP1 DIV PUSH1 0xFF AND ISZERO PUSH2 0x15E0 JUMPI DUP2 PUSH1 0x40 MLOAD PUSH32 0x7664204700000000000000000000000000000000000000000000000000000000 DUP2 MSTORE PUSH1 0x4 ADD PUSH2 0x15D7 SWAP2 SWAP1 PUSH2 0x307D JUMP JUMPDEST PUSH1 0x40 MLOAD DUP1 SWAP2 SUB SWAP1 REVERT JUMPDEST PUSH1 0x1 PUSH1 0x4 PUSH0 DUP5 PUSH20 0xFFFFFFFFFFFFFFFFFFFFFFFFFFFFFFFFFFFFFFFF AND PUSH20 0xFFFFFFFFFFFFFFFFFFFFFFFFFFFFFFFFFFFFFFFF AND DUP2 MSTORE PUSH1 0x20 ADD SWAP1 DUP2 MSTORE PUSH1 0x20 ADD PUSH0 KECCAK256 PUSH0 PUSH2 0x100 EXP DUP2 SLOAD DUP2 PUSH1 0xFF MUL NOT AND SWAP1 DUP4 ISZERO ISZERO MUL OR SWAP1 SSTORE POP PUSH1 0x6 DUP1 SLOAD SWAP1 POP PUSH1 0x5 PUSH0 DUP5 PUSH20 0xFFFFFFFFFFFFFFFFFFFFFFFFFFFFFFFFFFFFFFFF AND PUSH20 0xFFFFFFFFFFFFFFFFFFFFFFFFFFFFFFFFFFFFFFFF AND DUP2 MSTORE PUSH1 0x20 ADD SWAP1 DUP2 MSTORE PUSH1 0x20 ADD PUSH0 KECCAK256 DUP2 SWAP1 SSTORE POP PUSH1 0x6 DUP3 SWAP1 DUP1 PUSH1 0x1 DUP2 SLOAD ADD DUP1 DUP3 SSTORE DUP1 SWAP2 POP POP PUSH1 0x1 SWAP1 SUB SWAP1 PUSH0 MSTORE PUSH1 0x20 PUSH0 KECCAK256 ADD PUSH0 SWAP1 SWAP2 SWAP1 SWAP2 SWAP1 SWAP2 PUSH2 0x100 EXP DUP2 SLOAD DUP2 PUSH20 0xFFFFFFFFFFFFFFFFFFFFFFFFFFFFFFFFFFFFFFFF MUL NOT AND SWAP1 DUP4 PUSH20 0xFFFFFFFFFFFFFFFFFFFFFFFFFFFFFFFFFFFFFFFF AND MUL OR SWAP1 SSTORE POP DUP2 PUSH20 0xFFFFFFFFFFFFFFFFFFFFFFFFFFFFFFFFFFFFFFFF AND PUSH32 0x26283404367CFFC0443317066C3531D3DB2306AD6E65AA1BEE91DBE98C615A1 PUSH1 0x40 MLOAD PUSH1 0x40 MLOAD DUP1 SWAP2 SUB SWAP1 LOG2 POP POP JUMP JUMPDEST PUSH0 PUSH1 0x1 PUSH0 SWAP1 SLOAD SWAP1 PUSH2 0x100 EXP SWAP1 DIV PUSH20 0xFFFFFFFFFFFFFFFFFFFFFFFFFFFFFFFFFFFFFFFF AND SWAP1 POP SWAP1 JUMP JUMPDEST PUSH1 0x6 DUP2 DUP2 SLOAD DUP2 LT PUSH2 0x175A JUMPI PUSH0 DUP1 REVERT JUMPDEST SWAP1 PUSH0 MSTORE PUSH1 0x20 PUSH0 KECCAK256 ADD PUSH0 SWAP2 POP SLOAD SWAP1 PUSH2 0x100 EXP SWAP1 DIV PUSH20 0xFFFFFFFFFFFFFFFFFFFFFFFFFFFFFFFFFFFFFFFF AND DUP2 JUMP JUMPDEST PUSH0 DUP2 PUSH0 PUSH20 0xFFFFFFFFFFFFFFFFFFFFFFFFFFFFFFFFFFFFFFFF AND DUP2 PUSH20 0xFFFFFFFFFFFFFFFFFFFFFFFFFFFFFFFFFFFFFFFF AND SUB PUSH2 0x17F8 JUMPI DUP1 PUSH1 0x40 MLOAD PUSH32 0x8E4C8AA600000000000000000000000000000000000000000000000000000000 DUP2 MSTORE PUSH1 0x4 ADD PUSH2 0x17EF SWAP2 SWAP1 PUSH2 0x307D JUMP JUMPDEST PUSH1 0x40 MLOAD DUP1 SWAP2 SUB SWAP1 REVERT JUMPDEST PUSH1 0x4 PUSH0 DUP5 PUSH20 0xFFFFFFFFFFFFFFFFFFFFFFFFFFFFFFFFFFFFFFFF AND PUSH20 0xFFFFFFFFFFFFFFFFFFFFFFFFFFFFFFFFFFFFFFFF AND DUP2 MSTORE PUSH1 0x20 ADD SWAP1 DUP2 MSTORE PUSH1 0x20 ADD PUSH0 KECCAK256 PUSH0 SWAP1 SLOAD SWAP1 PUSH2 0x100 EXP SWAP1 DIV PUSH1 0xFF AND SWAP2 POP POP SWAP2 SWAP1 POP JUMP JUMPDEST PUSH1 0x3 PUSH1 0x20 MSTORE DUP1 PUSH0 MSTORE PUSH1 0x40 PUSH0 KECCAK256 PUSH0 SWAP2 POP SLOAD SWAP1 PUSH2 0x100 EXP SWAP1 DIV PUSH20 0xFFFFFFFFFFFFFFFFFFFFFFFFFFFFFFFFFFFFFFFF AND DUP2 JUMP JUMPDEST PUSH2 0x1882 PUSH2 0x2A8F JUMP JUMPDEST DUP1 PUSH0 DUP2 SUB PUSH2 0x18BC JUMPI PUSH1 0x40 MLOAD PUSH32 0x2C5211C600000000000000000000000000000000000000000000000000000000 DUP2 MSTORE PUSH1 0x4 ADD PUSH1 0x40 MLOAD DUP1 SWAP2 SUB SWAP1 REVERT JUMPDEST PUSH0 DUP3 EQ DUP1 PUSH2 0x18CB JUMPI POP PUSH2 0x2710 DUP3 GT JUMPDEST DUP1 PUSH2 0x18D7 JUMPI POP PUSH2 0x1D4C DUP3 GT JUMPDEST ISZERO PUSH2 0x1919 JUMPI DUP2 PUSH1 0x40 MLOAD PUSH32 0x78DC164F00000000000000000000000000000000000000000000000000000000 DUP2 MSTORE PUSH1 0x4 ADD PUSH2 0x1910 SWAP2 SWAP1 PUSH2 0x2F76 JUMP JUMPDEST PUSH1 0x40 MLOAD DUP1 SWAP2 SUB SWAP1 REVERT JUMPDEST DUP2 PUSH1 0x8 DUP2 SWAP1 SSTORE POP PUSH32 0xCCE25C35B561657FB7CD2AC403C6A4854283D0F4D462E68E0F97D07C348BCFF2 DUP3 PUSH1 0x40 MLOAD PUSH2 0x194F SWAP2 SWAP1 PUSH2 0x2F76 JUMP JUMPDEST PUSH1 0x40 MLOAD DUP1 SWAP2 SUB SWAP1 LOG1 POP POP JUMP JUMPDEST PUSH1 0x2 PUSH1 0x20 MSTORE DUP1 PUSH0 MSTORE PUSH1 0x40 PUSH0 KECCAK256 PUSH0 SWAP2 POP SWAP1 POP DUP1 PUSH0 ADD PUSH0 SWAP1 SLOAD SWAP1 PUSH2 0x100 EXP SWAP1 DIV PUSH20 0xFFFFFFFFFFFFFFFFFFFFFFFFFFFFFFFFFFFFFFFF AND SWAP1 DUP1 PUSH1 0x1 ADD SLOAD SWAP1 DUP1 PUSH1 0x2 ADD PUSH0 SWAP1 SLOAD SWAP1 PUSH2 0x100 EXP SWAP1 DIV PUSH20 0xFFFFFFFFFFFFFFFFFFFFFFFFFFFFFFFFFFFFFFFF AND SWAP1 DUP1 PUSH1 0x3 ADD SLOAD SWAP1 POP DUP5 JUMP JUMPDEST DUP2 PUSH0 PUSH20 0xFFFFFFFFFFFFFFFFFFFFFFFFFFFFFFFFFFFFFFFF AND DUP2 PUSH20 0xFFFFFFFFFFFFFFFFFFFFFFFFFFFFFFFFFFFFFFFF AND SUB PUSH2 0x1A36 JUMPI DUP1 PUSH1 0x40 MLOAD PUSH32 0x8E4C8AA600000000000000000000000000000000000000000000000000000000 DUP2 MSTORE PUSH1 0x4 ADD PUSH2 0x1A2D SWAP2 SWAP1 PUSH2 0x307D JUMP JUMPDEST PUSH1 0x40 MLOAD DUP1 SWAP2 SUB SWAP1 REVERT JUMPDEST DUP2 PUSH0 DUP2 SUB PUSH2 0x1A70 JUMPI PUSH1 0x40 MLOAD PUSH32 0x2C5211C600000000000000000000000000000000000000000000000000000000 DUP2 MSTORE PUSH1 0x4 ADD PUSH1 0x40 MLOAD DUP1 SWAP2 SUB SWAP1 REVERT JUMPDEST DUP4 PUSH1 0x4 PUSH0 DUP3 PUSH20 0xFFFFFFFFFFFFFFFFFFFFFFFFFFFFFFFFFFFFFFFF AND PUSH20 0xFFFFFFFFFFFFFFFFFFFFFFFFFFFFFFFFFFFFFFFF AND DUP2 MSTORE PUSH1 0x20 ADD SWAP1 DUP2 MSTORE PUSH1 0x20 ADD PUSH0 KECCAK256 PUSH0 SWAP1 SLOAD SWAP1 PUSH2 0x100 EXP SWAP1 DIV PUSH1 0xFF AND PUSH2 0x1AFC JUMPI DUP1 PUSH1 0x40 MLOAD PUSH32 0x87921F5A00000000000000000000000000000000000000000000000000000000 DUP2 MSTORE PUSH1 0x4 ADD PUSH2 0x1AF3 SWAP2 SWAP1 PUSH2 0x307D JUMP JUMPDEST PUSH1 0x40 MLOAD DUP1 SWAP2 SUB SWAP1 REVERT JUMPDEST PUSH0 PUSH2 0x1B06 CALLER PUSH2 0x2644 JUMP JUMPDEST SWAP1 POP PUSH2 0x1B11 CALLER PUSH2 0x2BD9 JUMP JUMPDEST PUSH2 0x1B47 JUMPI PUSH1 0x40 MLOAD PUSH32 0x33CBF2BC00000000000000000000000000000000000000000000000000000000 DUP2 MSTORE PUSH1 0x4 ADD PUSH1 0x40 MLOAD DUP1 SWAP2 SUB SWAP1 REVERT JUMPDEST PUSH2 0x1B51 CALLER DUP8 PUSH2 0x2C24 JUMP JUMPDEST PUSH2 0x1B92 JUMPI DUP6 PUSH1 0x40 MLOAD PUSH32 0x6F79C78A00000000000000000000000000000000000000000000000000000000 DUP2 MSTORE PUSH1 0x4 ADD PUSH2 0x1B89 SWAP2 SWAP1 PUSH2 0x307D JUMP JUMPDEST PUSH1 0x40 MLOAD DUP1 SWAP2 SUB SWAP1 REVERT JUMPDEST DUP1 PUSH1 0x3 ADD SLOAD DUP6 GT ISZERO PUSH2 0x1BE1 JUMPI DUP5 DUP2 PUSH1 0x3 ADD SLOAD PUSH1 0x40 MLOAD PUSH32 0x99BCD81300000000000000000000000000000000000000000000000000000000 DUP2 MSTORE PUSH1 0x4 ADD PUSH2 0x1BD8 SWAP3 SWAP2 SWAP1 PUSH2 0x34EE JUMP JUMPDEST PUSH1 0x40 MLOAD DUP1 SWAP2 SUB SWAP1 REVERT JUMPDEST DUP1 PUSH1 0x2 ADD PUSH0 SWAP1 SLOAD SWAP1 PUSH2 0x100 EXP SWAP1 DIV PUSH20 0xFFFFFFFFFFFFFFFFFFFFFFFFFFFFFFFFFFFFFFFF AND PUSH20 0xFFFFFFFFFFFFFFFFFFFFFFFFFFFFFFFFFFFFFFFF AND PUSH4 0x95EA7B3 ADDRESS DUP8 PUSH1 0x40 MLOAD DUP4 PUSH4 0xFFFFFFFF AND PUSH1 0xE0 SHL DUP2 MSTORE PUSH1 0x4 ADD PUSH2 0x1C3F SWAP3 SWAP2 SWAP1 PUSH2 0x3515 JUMP JUMPDEST PUSH1 0x20 PUSH1 0x40 MLOAD DUP1 DUP4 SUB DUP2 PUSH0 DUP8 GAS CALL ISZERO DUP1 ISZERO PUSH2 0x1C5B JUMPI RETURNDATASIZE PUSH0 PUSH0 RETURNDATACOPY RETURNDATASIZE PUSH0 REVERT JUMPDEST POP POP POP POP PUSH1 0x40 MLOAD RETURNDATASIZE PUSH1 0x1F NOT PUSH1 0x1F DUP3 ADD AND DUP3 ADD DUP1 PUSH1 0x40 MSTORE POP DUP2 ADD SWAP1 PUSH2 0x1C7F SWAP2 SWAP1 PUSH2 0x3566 JUMP JUMPDEST POP PUSH0 DUP2 PUSH1 0x2 ADD PUSH0 SWAP1 SLOAD SWAP1 PUSH2 0x100 EXP SWAP1 DIV PUSH20 0xFFFFFFFFFFFFFFFFFFFFFFFFFFFFFFFFFFFFFFFF AND PUSH20 0xFFFFFFFFFFFFFFFFFFFFFFFFFFFFFFFFFFFFFFFF AND PUSH4 0x23B872DD CALLER ADDRESS DUP10 PUSH1 0x40 MLOAD DUP5 PUSH4 0xFFFFFFFF AND PUSH1 0xE0 SHL DUP2 MSTORE PUSH1 0x4 ADD PUSH2 0x1CE1 SWAP4 SWAP3 SWAP2 SWAP1 PUSH2 0x3591 JUMP JUMPDEST PUSH1 0x20 PUSH1 0x40 MLOAD DUP1 DUP4 SUB DUP2 PUSH0 DUP8 GAS CALL ISZERO DUP1 ISZERO PUSH2 0x1CFD JUMPI RETURNDATASIZE PUSH0 PUSH0 RETURNDATACOPY RETURNDATASIZE PUSH0 REVERT JUMPDEST POP POP POP POP PUSH1 0x40 MLOAD RETURNDATASIZE PUSH1 0x1F NOT PUSH1 0x1F DUP3 ADD AND DUP3 ADD DUP1 PUSH1 0x40 MSTORE POP DUP2 ADD SWAP1 PUSH2 0x1D21 SWAP2 SWAP1 PUSH2 0x3566 JUMP JUMPDEST SWAP1 POP DUP1 PUSH2 0x1D8C JUMPI DUP2 PUSH1 0x2 ADD PUSH0 SWAP1 SLOAD SWAP1 PUSH2 0x100 EXP SWAP1 DIV PUSH20 0xFFFFFFFFFFFFFFFFFFFFFFFFFFFFFFFFFFFFFFFF AND CALLER DUP8 PUSH1 0x40 MLOAD PUSH32 0xBF182BE800000000000000000000000000000000000000000000000000000000 DUP2 MSTORE PUSH1 0x4 ADD PUSH2 0x1D83 SWAP4 SWAP3 SWAP2 SWAP1 PUSH2 0x3591 JUMP JUMPDEST PUSH1 0x40 MLOAD DUP1 SWAP2 SUB SWAP1 REVERT JUMPDEST DUP6 DUP3 PUSH1 0x3 ADD PUSH0 DUP3 DUP3 SLOAD PUSH2 0x1D9F SWAP2 SWAP1 PUSH2 0x30F6 JUMP JUMPDEST SWAP3 POP POP DUP2 SWAP1 SSTORE POP CALLER PUSH20 0xFFFFFFFFFFFFFFFFFFFFFFFFFFFFFFFFFFFFFFFF AND PUSH32 0xB7EFCC12F3D3E74E33995FF303ACA806B9428989809E60A4E5A4D465832966E4 DUP8 PUSH1 0x40 MLOAD PUSH2 0x1DEC SWAP2 SWAP1 PUSH2 0x2F76 JUMP JUMPDEST PUSH1 0x40 MLOAD DUP1 SWAP2 SUB SWAP1 LOG2 POP POP POP POP POP POP POP JUMP JUMPDEST DUP2 PUSH0 PUSH20 0xFFFFFFFFFFFFFFFFFFFFFFFFFFFFFFFFFFFFFFFF AND DUP2 PUSH20 0xFFFFFFFFFFFFFFFFFFFFFFFFFFFFFFFFFFFFFFFF AND SUB PUSH2 0x1E6E JUMPI DUP1 PUSH1 0x40 MLOAD PUSH32 0x8E4C8AA600000000000000000000000000000000000000000000000000000000 DUP2 MSTORE PUSH1 0x4 ADD PUSH2 0x1E65 SWAP2 SWAP1 PUSH2 0x307D JUMP JUMPDEST PUSH1 0x40 MLOAD DUP1 SWAP2 SUB SWAP1 REVERT JUMPDEST DUP2 PUSH0 DUP2 SUB PUSH2 0x1EA8 JUMPI PUSH1 0x40 MLOAD PUSH32 0x2C5211C600000000000000000000000000000000000000000000000000000000 DUP2 MSTORE PUSH1 0x4 ADD PUSH1 0x40 MLOAD DUP1 SWAP2 SUB SWAP1 REVERT JUMPDEST PUSH0 PUSH2 0x1EB2 DUP6 PUSH2 0x2644 JUMP JUMPDEST SWAP1 POP PUSH2 0x1EBD DUP6 PUSH2 0x2BD9 JUMP JUMPDEST PUSH2 0x1EF3 JUMPI PUSH1 0x40 MLOAD PUSH32 0x33CBF2BC00000000000000000000000000000000000000000000000000000000 DUP2 MSTORE PUSH1 0x4 ADD PUSH1 0x40 MLOAD DUP1 SWAP2 SUB SWAP1 REVERT JUMPDEST PUSH0 PUSH2 0x2710 PUSH2 0x1D4C DUP4 PUSH1 0x1 ADD SLOAD PUSH2 0x1F09 SWAP2 SWAP1 PUSH2 0x3482 JUMP JUMPDEST PUSH2 0x1F13 SWAP2 SWAP1 PUSH2 0x35F3 JUMP JUMPDEST SWAP1 POP PUSH0 PUSH8 0xDE0B6B3A7640000 PUSH2 0x1F4B DUP5 PUSH1 0x2 ADD PUSH0 SWAP1 SLOAD SWAP1 PUSH2 0x100 EXP SWAP1 DIV PUSH20 0xFFFFFFFFFFFFFFFFFFFFFFFFFFFFFFFFFFFFFFFF AND PUSH2 0xBB1 JUMP JUMPDEST DUP5 PUSH1 0x3 ADD SLOAD PUSH2 0x1F5A SWAP2 SWAP1 PUSH2 0x3482 JUMP JUMPDEST PUSH2 0x1F64 SWAP2 SWAP1 PUSH2 0x35F3 JUMP JUMPDEST SWAP1 POP DUP2 DUP2 LT ISZERO PUSH2 0x1FAD JUMPI DUP1 DUP3 PUSH1 0x40 MLOAD PUSH32 0xD771D8E900000000000000000000000000000000000000000000000000000000 DUP2 MSTORE PUSH1 0x4 ADD PUSH2 0x1FA4 SWAP3 SWAP2 SWAP1 PUSH2 0x34EE JUMP JUMPDEST PUSH1 0x40 MLOAD DUP1 SWAP2 SUB SWAP1 REVERT JUMPDEST DUP3 PUSH1 0x2 ADD PUSH0 SWAP1 SLOAD SWAP1 PUSH2 0x100 EXP SWAP1 DIV PUSH20 0xFFFFFFFFFFFFFFFFFFFFFFFFFFFFFFFFFFFFFFFF AND PUSH20 0xFFFFFFFFFFFFFFFFFFFFFFFFFFFFFFFFFFFFFFFF AND PUSH4 0x95EA7B3 ADDRESS DUP9 PUSH1 0x40 MLOAD DUP4 PUSH4 0xFFFFFFFF AND PUSH1 0xE0 SHL DUP2 MSTORE PUSH1 0x4 ADD PUSH2 0x200B SWAP3 SWAP2 SWAP1 PUSH2 0x3515 JUMP JUMPDEST PUSH1 0x20 PUSH1 0x40 MLOAD DUP1 DUP4 SUB DUP2 PUSH0 DUP8 GAS CALL ISZERO DUP1 ISZERO PUSH2 0x2027 JUMPI RETURNDATASIZE PUSH0 PUSH0 RETURNDATACOPY RETURNDATASIZE PUSH0 REVERT JUMPDEST POP POP POP POP PUSH1 0x40 MLOAD RETURNDATASIZE PUSH1 0x1F NOT PUSH1 0x1F DUP3 ADD AND DUP3 ADD DUP1 PUSH1 0x40 MSTORE POP DUP2 ADD SWAP1 PUSH2 0x204B SWAP2 SWAP1 PUSH2 0x3566 JUMP JUMPDEST POP PUSH0 DUP4 PUSH1 0x2 ADD PUSH0 SWAP1 SLOAD SWAP1 PUSH2 0x100 EXP SWAP1 DIV PUSH20 0xFFFFFFFFFFFFFFFFFFFFFFFFFFFFFFFFFFFFFFFF AND PUSH20 0xFFFFFFFFFFFFFFFFFFFFFFFFFFFFFFFFFFFFFFFF AND PUSH4 0x23B872DD CALLER ADDRESS DUP11 PUSH1 0x40 MLOAD DUP5 PUSH4 0xFFFFFFFF AND PUSH1 0xE0 SHL DUP2 MSTORE PUSH1 0x4 ADD PUSH2 0x20AD SWAP4 SWAP3 SWAP2 SWAP1 PUSH2 0x3591 JUMP JUMPDEST PUSH1 0x20 PUSH1 0x40 MLOAD DUP1 DUP4 SUB DUP2 PUSH0 DUP8 GAS CALL ISZERO DUP1 ISZERO PUSH2 0x20C9 JUMPI RETURNDATASIZE PUSH0 PUSH0 RETURNDATACOPY RETURNDATASIZE PUSH0 REVERT JUMPDEST POP POP POP POP PUSH1 0x40 MLOAD RETURNDATASIZE PUSH1 0x1F NOT PUSH1 0x1F DUP3 ADD AND DUP3 ADD DUP1 PUSH1 0x40 MSTORE POP DUP2 ADD SWAP1 PUSH2 0x20ED SWAP2 SWAP1 PUSH2 0x3566 JUMP JUMPDEST SWAP1 POP DUP1 PUSH2 0x2158 JUMPI DUP4 PUSH1 0x2 ADD PUSH0 SWAP1 SLOAD SWAP1 PUSH2 0x100 EXP SWAP1 DIV PUSH20 0xFFFFFFFFFFFFFFFFFFFFFFFFFFFFFFFFFFFFFFFF AND CALLER DUP9 PUSH1 0x40 MLOAD PUSH32 0xBF182BE800000000000000000000000000000000000000000000000000000000 DUP2 MSTORE PUSH1 0x4 ADD PUSH2 0x214F SWAP4 SWAP3 SWAP2 SWAP1 PUSH2 0x3591 JUMP JUMPDEST PUSH1 0x40 MLOAD DUP1 SWAP2 SUB SWAP1 REVERT JUMPDEST DUP7 DUP5 PUSH1 0x3 ADD PUSH0 DUP3 DUP3 SLOAD PUSH2 0x216B SWAP2 SWAP1 PUSH2 0x30F6 JUMP JUMPDEST SWAP3 POP POP DUP2 SWAP1 SSTORE POP PUSH0 PUSH2 0x219E DUP6 PUSH0 ADD PUSH0 SWAP1 SLOAD SWAP1 PUSH2 0x100 EXP SWAP1 DIV PUSH20 0xFFFFFFFFFFFFFFFFFFFFFFFFFFFFFFFFFFFFFFFF AND PUSH2 0xBB1 JUMP JUMPDEST PUSH8 0xDE0B6B3A7640000 DUP1 DUP11 PUSH2 0x21B3 SWAP2 SWAP1 PUSH2 0x3482 JUMP JUMPDEST PUSH2 0x21BD SWAP2 SWAP1 PUSH2 0x3482 JUMP JUMPDEST PUSH2 0x21C7 SWAP2 SWAP1 PUSH2 0x35F3 JUMP JUMPDEST SWAP1 POP DUP5 PUSH1 0x1 ADD SLOAD DUP2 GT ISZERO PUSH2 0x21DD JUMPI DUP5 PUSH1 0x1 ADD SLOAD SWAP1 POP JUMPDEST DUP1 DUP6 PUSH1 0x1 ADD PUSH0 DUP3 DUP3 SLOAD PUSH2 0x21F0 SWAP2 SWAP1 PUSH2 0x30F6 JUMP JUMPDEST SWAP3 POP POP DUP2 SWAP1 SSTORE POP PUSH0 CALLER PUSH20 0xFFFFFFFFFFFFFFFFFFFFFFFFFFFFFFFFFFFFFFFF AND DUP3 PUSH1 0x40 MLOAD PUSH2 0x221C SWAP1 PUSH2 0x3650 JUMP JUMPDEST PUSH0 PUSH1 0x40 MLOAD DUP1 DUP4 SUB DUP2 DUP6 DUP8 GAS CALL SWAP3 POP POP POP RETURNDATASIZE DUP1 PUSH0 DUP2 EQ PUSH2 0x2256 JUMPI PUSH1 0x40 MLOAD SWAP2 POP PUSH1 0x1F NOT PUSH1 0x3F RETURNDATASIZE ADD AND DUP3 ADD PUSH1 0x40 MSTORE RETURNDATASIZE DUP3 MSTORE RETURNDATASIZE PUSH0 PUSH1 0x20 DUP5 ADD RETURNDATACOPY PUSH2 0x225B JUMP JUMPDEST PUSH1 0x60 SWAP2 POP JUMPDEST POP POP SWAP1 POP DUP1 PUSH2 0x22A5 JUMPI PUSH0 CALLER DUP4 PUSH1 0x40 MLOAD PUSH32 0xBF182BE800000000000000000000000000000000000000000000000000000000 DUP2 MSTORE PUSH1 0x4 ADD PUSH2 0x229C SWAP4 SWAP3 SWAP2 SWAP1 PUSH2 0x3591 JUMP JUMPDEST PUSH1 0x40 MLOAD DUP1 SWAP2 SUB SWAP1 REVERT JUMPDEST PUSH0 DUP7 PUSH1 0x3 ADD SLOAD EQ DUP1 ISZERO PUSH2 0x22BB JUMPI POP PUSH0 DUP7 PUSH1 0x1 ADD SLOAD EQ JUMPDEST ISZERO PUSH2 0x22CA JUMPI PUSH2 0x22C9 DUP11 PUSH2 0x2CBB JUMP JUMPDEST JUMPDEST POP POP POP POP POP POP POP POP POP POP JUMP JUMPDEST PUSH0 PUSH0 PUSH2 0x22E1 DUP5 PUSH2 0xBB1 JUMP JUMPDEST SWAP1 POP PUSH0 DUP2 SUB PUSH2 0x22F3 JUMPI PUSH0 SWAP2 POP POP PUSH2 0x234B JUMP JUMPDEST PUSH0 PUSH2 0x22FD DUP6 PUSH2 0x2D60 JUMP JUMPDEST SWAP1 POP PUSH0 DUP2 PUSH1 0x12 PUSH2 0x230D SWAP2 SWAP1 PUSH2 0x3664 JUMP JUMPDEST PUSH1 0xA PUSH2 0x2319 SWAP2 SWAP1 PUSH2 0x3698 JUMP JUMPDEST DUP6 PUSH2 0x2324 SWAP2 SWAP1 PUSH2 0x3482 JUMP JUMPDEST SWAP1 POP PUSH8 0xDE0B6B3A7640000 DUP4 DUP3 PUSH2 0x233B SWAP2 SWAP1 PUSH2 0x3482 JUMP JUMPDEST PUSH2 0x2345 SWAP2 SWAP1 PUSH2 0x35F3 JUMP JUMPDEST SWAP4 POP POP POP POP JUMPDEST SWAP3 SWAP2 POP POP JUMP JUMPDEST PUSH2 0x2359 PUSH2 0x25F7 JUMP JUMPDEST DUP1 PUSH0 DUP2 SUB PUSH2 0x2393 JUMPI PUSH1 0x40 MLOAD PUSH32 0x2C5211C600000000000000000000000000000000000000000000000000000000 DUP2 MSTORE PUSH1 0x4 ADD PUSH1 0x40 MLOAD DUP1 SWAP2 SUB SWAP1 REVERT JUMPDEST PUSH0 PUSH2 0x239D CALLER PUSH2 0x2644 JUMP JUMPDEST SWAP1 POP PUSH0 DUP2 PUSH1 0x3 ADD SLOAD EQ PUSH2 0x23EB JUMPI DUP1 PUSH1 0x3 ADD SLOAD PUSH1 0x40 MLOAD PUSH32 0x40A636FB00000000000000000000000000000000000000000000000000000000 DUP2 MSTORE PUSH1 0x4 ADD PUSH2 0x23E2 SWAP2 SWAP1 PUSH2 0x2F76 JUMP JUMPDEST PUSH1 0x40 MLOAD DUP1 SWAP2 SUB SWAP1 REVERT JUMPDEST DUP1 PUSH1 0x1 ADD SLOAD DUP4 GT ISZERO PUSH2 0x243A JUMPI DUP1 PUSH1 0x1 ADD SLOAD DUP4 PUSH1 0x40 MLOAD PUSH32 0x768063DB00000000000000000000000000000000000000000000000000000000 DUP2 MSTORE PUSH1 0x4 ADD PUSH2 0x2431 SWAP3 SWAP2 SWAP1 PUSH2 0x34EE JUMP JUMPDEST PUSH1 0x40 MLOAD DUP1 SWAP2 SUB SWAP1 REVERT JUMPDEST PUSH0 CALLER PUSH20 0xFFFFFFFFFFFFFFFFFFFFFFFFFFFFFFFFFFFFFFFF AND DUP5 PUSH1 0x40 MLOAD PUSH2 0x245F SWAP1 PUSH2 0x3650 JUMP JUMPDEST PUSH0 PUSH1 0x40 MLOAD DUP1 DUP4 SUB DUP2 DUP6 DUP8 GAS CALL SWAP3 POP POP POP RETURNDATASIZE DUP1 PUSH0 DUP2 EQ PUSH2 0x2499 JUMPI PUSH1 0x40 MLOAD SWAP2 POP PUSH1 0x1F NOT PUSH1 0x3F RETURNDATASIZE ADD AND DUP3 ADD PUSH1 0x40 MSTORE RETURNDATASIZE DUP3 MSTORE RETURNDATASIZE PUSH0 PUSH1 0x20 DUP5 ADD RETURNDATACOPY PUSH2 0x249E JUMP JUMPDEST PUSH1 0x60 SWAP2 POP JUMPDEST POP POP SWAP1 POP DUP1 PUSH2 0x24E8 JUMPI PUSH0 CALLER DUP6 PUSH1 0x40 MLOAD PUSH32 0xBF182BE800000000000000000000000000000000000000000000000000000000 DUP2 MSTORE PUSH1 0x4 ADD PUSH2 0x24DF SWAP4 SWAP3 SWAP2 SWAP1 PUSH2 0x3591 JUMP JUMPDEST PUSH1 0x40 MLOAD DUP1 SWAP2 SUB SWAP1 REVERT JUMPDEST DUP4 DUP3 PUSH1 0x1 ADD PUSH0 DUP3 DUP3 SLOAD PUSH2 0x24FB SWAP2 SWAP1 PUSH2 0x30F6 JUMP JUMPDEST SWAP3 POP POP DUP2 SWAP1 SSTORE POP PUSH0 DUP3 PUSH1 0x1 ADD SLOAD SUB PUSH2 0x2517 JUMPI PUSH2 0x2516 CALLER PUSH2 0x2CBB JUMP JUMPDEST JUMPDEST CALLER PUSH20 0xFFFFFFFFFFFFFFFFFFFFFFFFFFFFFFFFFFFFFFFF AND PUSH32 0x5B0743ACABCE0EA09498B3C2598ED444F80EF6513A2029D7D9AAED87064D1EDB DUP6 PUSH1 0x40 MLOAD PUSH2 0x255D SWAP2 SWAP1 PUSH2 0x2F76 JUMP JUMPDEST PUSH1 0x40 MLOAD DUP1 SWAP2 SUB SWAP1 LOG2 POP POP POP PUSH2 0x2570 PUSH2 0x2A86 JUMP JUMPDEST POP JUMP JUMPDEST PUSH2 0x257B PUSH2 0x2A8F JUMP JUMPDEST PUSH0 PUSH20 0xFFFFFFFFFFFFFFFFFFFFFFFFFFFFFFFFFFFFFFFF AND DUP2 PUSH20 0xFFFFFFFFFFFFFFFFFFFFFFFFFFFFFFFFFFFFFFFF AND SUB PUSH2 0x25EB JUMPI PUSH0 PUSH1 0x40 MLOAD PUSH32 0x1E4FBDF700000000000000000000000000000000000000000000000000000000 DUP2 MSTORE PUSH1 0x4 ADD PUSH2 0x25E2 SWAP2 SWAP1 PUSH2 0x307D JUMP JUMPDEST PUSH1 0x40 MLOAD DUP1 SWAP2 SUB SWAP1 REVERT JUMPDEST PUSH2 0x25F4 DUP2 PUSH2 0x2B16 JUMP JUMPDEST POP JUMP JUMPDEST PUSH1 0x2 PUSH0 SLOAD SUB PUSH2 0x263B JUMPI PUSH1 0x40 MLOAD PUSH32 0x8C379A000000000000000000000000000000000000000000000000000000000 DUP2 MSTORE PUSH1 0x4 ADD PUSH2 0x2632 SWAP1 PUSH2 0x373C JUMP JUMPDEST PUSH1 0x40 MLOAD DUP1 SWAP2 SUB SWAP1 REVERT JUMPDEST PUSH1 0x2 PUSH0 DUP2 SWAP1 SSTORE POP JUMP JUMPDEST PUSH0 PUSH1 0x2 PUSH0 DUP4 PUSH20 0xFFFFFFFFFFFFFFFFFFFFFFFFFFFFFFFFFFFFFFFF AND PUSH20 0xFFFFFFFFFFFFFFFFFFFFFFFFFFFFFFFFFFFFFFFF AND DUP2 MSTORE PUSH1 0x20 ADD SWAP1 DUP2 MSTORE PUSH1 0x20 ADD PUSH0 KECCAK256 SWAP1 POP SWAP2 SWAP1 POP JUMP JUMPDEST PUSH0 PUSH0 PUSH1 0x2 PUSH0 DUP5 PUSH20 0xFFFFFFFFFFFFFFFFFFFFFFFFFFFFFFFFFFFFFFFF AND PUSH20 0xFFFFFFFFFFFFFFFFFFFFFFFFFFFFFFFFFFFFFFFF AND DUP2 MSTORE PUSH1 0x20 ADD SWAP1 DUP2 MSTORE PUSH1 0x20 ADD PUSH0 KECCAK256 PUSH1 0x1 ADD SLOAD GT SWAP1 POP SWAP2 SWAP1 POP JUMP JUMPDEST PUSH0 PUSH0 PUSH2 0x26DF DUP5 PUSH2 0x2644 JUMP JUMPDEST SWAP1 POP PUSH0 DUP2 PUSH1 0x1 ADD SLOAD SUB PUSH2 0x271E JUMPI PUSH1 0x40 MLOAD PUSH32 0xB016BE5E00000000000000000000000000000000000000000000000000000000 DUP2 MSTORE PUSH1 0x4 ADD PUSH1 0x40 MLOAD DUP1 SWAP2 SUB SWAP1 REVERT JUMPDEST PUSH0 PUSH20 0xFFFFFFFFFFFFFFFFFFFFFFFFFFFFFFFFFFFFFFFF AND PUSH1 0x3 PUSH0 DUP6 PUSH20 0xFFFFFFFFFFFFFFFFFFFFFFFFFFFFFFFFFFFFFFFF AND PUSH20 0xFFFFFFFFFFFFFFFFFFFFFFFFFFFFFFFFFFFFFFFF AND DUP2 MSTORE PUSH1 0x20 ADD SWAP1 DUP2 MSTORE PUSH1 0x20 ADD PUSH0 KECCAK256 PUSH0 SWAP1 SLOAD SWAP1 PUSH2 0x100 EXP SWAP1 DIV PUSH20 0xFFFFFFFFFFFFFFFFFFFFFFFFFFFFFFFFFFFFFFFF AND PUSH20 0xFFFFFFFFFFFFFFFFFFFFFFFFFFFFFFFFFFFFFFFF AND SUB PUSH2 0x27EA JUMPI DUP3 PUSH1 0x40 MLOAD PUSH32 0x6F79C78A00000000000000000000000000000000000000000000000000000000 DUP2 MSTORE PUSH1 0x4 ADD PUSH2 0x27E1 SWAP2 SWAP1 PUSH2 0x307D JUMP JUMPDEST PUSH1 0x40 MLOAD DUP1 SWAP2 SUB SWAP1 REVERT JUMPDEST PUSH0 PUSH2 0x281B DUP3 PUSH0 ADD PUSH0 SWAP1 SLOAD SWAP1 PUSH2 0x100 EXP SWAP1 DIV PUSH20 0xFFFFFFFFFFFFFFFFFFFFFFFFFFFFFFFFFFFFFFFF AND DUP4 PUSH1 0x1 ADD SLOAD PUSH2 0x22D6 JUMP JUMPDEST SWAP1 POP PUSH0 PUSH2 0x2710 PUSH1 0x8 SLOAD DUP4 PUSH2 0x282F SWAP2 SWAP1 PUSH2 0x3482 JUMP JUMPDEST PUSH2 0x2839 SWAP2 SWAP1 PUSH2 0x35F3 JUMP JUMPDEST SWAP1 POP PUSH0 PUSH0 SWAP1 POP PUSH0 DUP5 PUSH1 0x3 ADD SLOAD GT ISZERO PUSH2 0x287F JUMPI PUSH2 0x287C DUP5 PUSH1 0x2 ADD PUSH0 SWAP1 SLOAD SWAP1 PUSH2 0x100 EXP SWAP1 DIV PUSH20 0xFFFFFFFFFFFFFFFFFFFFFFFFFFFFFFFFFFFFFFFF AND DUP6 PUSH1 0x3 ADD SLOAD PUSH2 0x22D6 JUMP JUMPDEST SWAP1 POP JUMPDEST DUP2 DUP2 LT PUSH2 0x2892 JUMPI PUSH0 SWAP5 POP POP POP POP POP PUSH2 0x28EE JUMP JUMPDEST PUSH0 DUP2 DUP4 PUSH2 0x289F SWAP2 SWAP1 PUSH2 0x30F6 JUMP JUMPDEST SWAP1 POP PUSH0 DUP2 SUB PUSH2 0x28B5 JUMPI PUSH0 SWAP6 POP POP POP POP POP POP PUSH2 0x28EE JUMP JUMPDEST PUSH0 PUSH2 0x28BF DUP9 PUSH2 0xBB1 JUMP JUMPDEST SWAP1 POP PUSH0 DUP2 PUSH8 0xDE0B6B3A7640000 DUP5 PUSH2 0x28D7 SWAP2 SWAP1 PUSH2 0x3482 JUMP JUMPDEST PUSH2 0x28E1 SWAP2 SWAP1 PUSH2 0x35F3 JUMP JUMPDEST SWAP1 POP DUP1 SWAP8 POP POP POP POP POP POP POP POP JUMPDEST SWAP3 SWAP2 POP POP JUMP JUMPDEST PUSH0 DUP4 SWAP1 POP PUSH0 DUP2 PUSH20 0xFFFFFFFFFFFFFFFFFFFFFFFFFFFFFFFFFFFFFFFF AND PUSH4 0x70A08231 ADDRESS PUSH1 0x40 MLOAD DUP3 PUSH4 0xFFFFFFFF AND PUSH1 0xE0 SHL DUP2 MSTORE PUSH1 0x4 ADD PUSH2 0x2932 SWAP2 SWAP1 PUSH2 0x307D JUMP JUMPDEST PUSH1 0x20 PUSH1 0x40 MLOAD DUP1 DUP4 SUB DUP2 DUP7 GAS STATICCALL ISZERO DUP1 ISZERO PUSH2 0x294D JUMPI RETURNDATASIZE PUSH0 PUSH0 RETURNDATACOPY RETURNDATASIZE PUSH0 REVERT JUMPDEST POP POP POP POP PUSH1 0x40 MLOAD RETURNDATASIZE PUSH1 0x1F NOT PUSH1 0x1F DUP3 ADD AND DUP3 ADD DUP1 PUSH1 0x40 MSTORE POP DUP2 ADD SWAP1 PUSH2 0x2971 SWAP2 SWAP1 PUSH2 0x34C3 JUMP JUMPDEST SWAP1 POP DUP3 DUP2 LT ISZERO PUSH2 0x29BA JUMPI DUP1 DUP4 PUSH1 0x40 MLOAD PUSH32 0xCE9514F900000000000000000000000000000000000000000000000000000000 DUP2 MSTORE PUSH1 0x4 ADD PUSH2 0x29B1 SWAP3 SWAP2 SWAP1 PUSH2 0x34EE JUMP JUMPDEST PUSH1 0x40 MLOAD DUP1 SWAP2 SUB SWAP1 REVERT JUMPDEST PUSH0 DUP3 PUSH20 0xFFFFFFFFFFFFFFFFFFFFFFFFFFFFFFFFFFFFFFFF AND PUSH4 0xA9059CBB DUP7 DUP7 PUSH1 0x40 MLOAD DUP4 PUSH4 0xFFFFFFFF AND PUSH1 0xE0 SHL DUP2 MSTORE PUSH1 0x4 ADD PUSH2 0x29F6 SWAP3 SWAP2 SWAP1 PUSH2 0x3515 JUMP JUMPDEST PUSH1 0x20 PUSH1 0x40 MLOAD DUP1 DUP4 SUB DUP2 PUSH0 DUP8 GAS CALL ISZERO DUP1 ISZERO PUSH2 0x2A12 JUMPI RETURNDATASIZE PUSH0 PUSH0 RETURNDATACOPY RETURNDATASIZE PUSH0 REVERT JUMPDEST POP POP POP POP PUSH1 0x40 MLOAD RETURNDATASIZE PUSH1 0x1F NOT PUSH1 0x1F DUP3 ADD AND DUP3 ADD DUP1 PUSH1 0x40 MSTORE POP DUP2 ADD SWAP1 PUSH2 0x2A36 SWAP2 SWAP1 PUSH2 0x3566 JUMP JUMPDEST SWAP1 POP DUP1 PUSH2 0x2A7E JUMPI DUP6 DUP6 DUP6 PUSH1 0x40 MLOAD PUSH32 0xC877679800000000000000000000000000000000000000000000000000000000 DUP2 MSTORE PUSH1 0x4 ADD PUSH2 0x2A75 SWAP4 SWAP3 SWAP2 SWAP1 PUSH2 0x3591 JUMP JUMPDEST PUSH1 0x40 MLOAD DUP1 SWAP2 SUB SWAP1 REVERT JUMPDEST POP POP POP POP POP POP JUMP JUMPDEST PUSH1 0x1 PUSH0 DUP2 SWAP1 SSTORE POP JUMP JUMPDEST PUSH2 0x2A97 PUSH2 0x2E66 JUMP JUMPDEST PUSH20 0xFFFFFFFFFFFFFFFFFFFFFFFFFFFFFFFFFFFFFFFF AND PUSH2 0x2AB5 PUSH2 0x1723 JUMP JUMPDEST PUSH20 0xFFFFFFFFFFFFFFFFFFFFFFFFFFFFFFFFFFFFFFFF AND EQ PUSH2 0x2B14 JUMPI PUSH2 0x2AD8 PUSH2 0x2E66 JUMP JUMPDEST PUSH1 0x40 MLOAD PUSH32 0x118CDAA700000000000000000000000000000000000000000000000000000000 DUP2 MSTORE PUSH1 0x4 ADD PUSH2 0x2B0B SWAP2 SWAP1 PUSH2 0x307D JUMP JUMPDEST PUSH1 0x40 MLOAD DUP1 SWAP2 SUB SWAP1 REVERT JUMPDEST JUMP JUMPDEST PUSH0 PUSH1 0x1 PUSH0 SWAP1 SLOAD SWAP1 PUSH2 0x100 EXP SWAP1 DIV PUSH20 0xFFFFFFFFFFFFFFFFFFFFFFFFFFFFFFFFFFFFFFFF AND SWAP1 POP DUP2 PUSH1 0x1 PUSH0 PUSH2 0x100 EXP DUP2 SLOAD DUP2 PUSH20 0xFFFFFFFFFFFFFFFFFFFFFFFFFFFFFFFFFFFFFFFF MUL NOT AND SWAP1 DUP4 PUSH20 0xFFFFFFFFFFFFFFFFFFFFFFFFFFFFFFFFFFFFFFFF AND MUL OR SWAP1 SSTORE POP DUP2 PUSH20 0xFFFFFFFFFFFFFFFFFFFFFFFFFFFFFFFFFFFFFFFF AND DUP2 PUSH20 0xFFFFFFFFFFFFFFFFFFFFFFFFFFFFFFFFFFFFFFFF AND PUSH32 0x8BE0079C531659141344CD1FD0A4F28419497F9722A3DAAFE3B4186F6B6457E0 PUSH1 0x40 MLOAD PUSH1 0x40 MLOAD DUP1 SWAP2 SUB SWAP1 LOG3 POP POP JUMP JUMPDEST PUSH0 PUSH0 PUSH1 0x2 PUSH0 DUP5 PUSH20 0xFFFFFFFFFFFFFFFFFFFFFFFFFFFFFFFFFFFFFFFF AND PUSH20 0xFFFFFFFFFFFFFFFFFFFFFFFFFFFFFFFFFFFFFFFF AND DUP2 MSTORE PUSH1 0x20 ADD SWAP1 DUP2 MSTORE PUSH1 0x20 ADD PUSH0 KECCAK256 PUSH1 0x3 ADD SLOAD GT SWAP1 POP SWAP2 SWAP1 POP JUMP JUMPDEST PUSH0 DUP2 PUSH20 0xFFFFFFFFFFFFFFFFFFFFFFFFFFFFFFFFFFFFFFFF AND PUSH1 0x2 PUSH0 DUP6 PUSH20 0xFFFFFFFFFFFFFFFFFFFFFFFFFFFFFFFFFFFFFFFF AND PUSH20 0xFFFFFFFFFFFFFFFFFFFFFFFFFFFFFFFFFFFFFFFF AND DUP2 MSTORE PUSH1 0x20 ADD SWAP1 DUP2 MSTORE PUSH1 0x20 ADD PUSH0 KECCAK256 PUSH1 0x2 ADD PUSH0 SWAP1 SLOAD SWAP1 PUSH2 0x100 EXP SWAP1 DIV PUSH20 0xFFFFFFFFFFFFFFFFFFFFFFFFFFFFFFFFFFFFFFFF AND PUSH20 0xFFFFFFFFFFFFFFFFFFFFFFFFFFFFFFFFFFFFFFFF AND EQ SWAP1 POP SWAP3 SWAP2 POP POP JUMP JUMPDEST PUSH0 PUSH2 0x2CC5 DUP3 PUSH2 0x2644 JUMP JUMPDEST SWAP1 POP PUSH0 DUP2 PUSH1 0x2 ADD PUSH0 PUSH2 0x100 EXP DUP2 SLOAD DUP2 PUSH20 0xFFFFFFFFFFFFFFFFFFFFFFFFFFFFFFFFFFFFFFFF MUL NOT AND SWAP1 DUP4 PUSH20 0xFFFFFFFFFFFFFFFFFFFFFFFFFFFFFFFFFFFFFFFF AND MUL OR SWAP1 SSTORE POP PUSH0 DUP2 PUSH1 0x3 ADD DUP2 SWAP1 SSTORE POP PUSH0 DUP2 PUSH0 ADD PUSH0 PUSH2 0x100 EXP DUP2 SLOAD DUP2 PUSH20 0xFFFFFFFFFFFFFFFFFFFFFFFFFFFFFFFFFFFFFFFF MUL NOT AND SWAP1 DUP4 PUSH20 0xFFFFFFFFFFFFFFFFFFFFFFFFFFFFFFFFFFFFFFFF AND MUL OR SWAP1 SSTORE POP PUSH0 DUP2 PUSH1 0x1 ADD DUP2 SWAP1 SSTORE POP POP POP JUMP JUMPDEST PUSH0 PUSH1 0x7 PUSH0 SWAP1 SLOAD SWAP1 PUSH2 0x100 EXP SWAP1 DIV PUSH20 0xFFFFFFFFFFFFFFFFFFFFFFFFFFFFFFFFFFFFFFFF AND PUSH20 0xFFFFFFFFFFFFFFFFFFFFFFFFFFFFFFFFFFFFFFFF AND DUP3 PUSH20 0xFFFFFFFFFFFFFFFFFFFFFFFFFFFFFFFFFFFFFFFF AND SUB PUSH2 0x2DBE JUMPI PUSH1 0x12 SWAP1 POP PUSH2 0x2E61 JUMP JUMPDEST DUP2 PUSH20 0xFFFFFFFFFFFFFFFFFFFFFFFFFFFFFFFFFFFFFFFF AND PUSH4 0x313CE567 PUSH1 0x40 MLOAD DUP2 PUSH4 0xFFFFFFFF AND PUSH1 0xE0 SHL DUP2 MSTORE PUSH1 0x4 ADD PUSH1 0x20 PUSH1 0x40 MLOAD DUP1 DUP4 SUB DUP2 DUP7 GAS STATICCALL SWAP3 POP POP POP DUP1 ISZERO PUSH2 0x2E26 JUMPI POP PUSH1 0x40 MLOAD RETURNDATASIZE PUSH1 0x1F NOT PUSH1 0x1F DUP3 ADD AND DUP3 ADD DUP1 PUSH1 0x40 MSTORE POP DUP2 ADD SWAP1 PUSH2 0x2E23 SWAP2 SWAP1 PUSH2 0x32DE JUMP JUMPDEST PUSH1 0x1 JUMPDEST PUSH2 0x2E5C JUMPI PUSH1 0x40 MLOAD PUSH32 0xD25598A000000000000000000000000000000000000000000000000000000000 DUP2 MSTORE PUSH1 0x4 ADD PUSH1 0x40 MLOAD DUP1 SWAP2 SUB SWAP1 REVERT JUMPDEST DUP1 SWAP2 POP POP JUMPDEST SWAP2 SWAP1 POP JUMP JUMPDEST PUSH0 CALLER SWAP1 POP SWAP1 JUMP JUMPDEST PUSH0 PUSH0 REVERT JUMPDEST PUSH0 PUSH20 0xFFFFFFFFFFFFFFFFFFFFFFFFFFFFFFFFFFFFFFFF DUP3 AND SWAP1 POP SWAP2 SWAP1 POP JUMP JUMPDEST PUSH0 PUSH2 0x2E9A DUP3 PUSH2 0x2E71 JUMP JUMPDEST SWAP1 POP SWAP2 SWAP1 POP JUMP JUMPDEST PUSH2 0x2EAA DUP2 PUSH2 0x2E90 JUMP JUMPDEST DUP2 EQ PUSH2 0x2EB4 JUMPI PUSH0 PUSH0 REVERT JUMPDEST POP JUMP JUMPDEST PUSH0 DUP2 CALLDATALOAD SWAP1 POP PUSH2 0x2EC5 DUP2 PUSH2 0x2EA1 JUMP JUMPDEST SWAP3 SWAP2 POP POP JUMP JUMPDEST PUSH0 DUP2 SWAP1 POP SWAP2 SWAP1 POP JUMP JUMPDEST PUSH2 0x2EDD DUP2 PUSH2 0x2ECB JUMP JUMPDEST DUP2 EQ PUSH2 0x2EE7 JUMPI PUSH0 PUSH0 REVERT JUMPDEST POP JUMP JUMPDEST PUSH0 DUP2 CALLDATALOAD SWAP1 POP PUSH2 0x2EF8 DUP2 PUSH2 0x2ED4 JUMP JUMPDEST SWAP3 SWAP2 POP POP JUMP JUMPDEST PUSH0 PUSH0 PUSH1 0x40 DUP4 DUP6 SUB SLT ISZERO PUSH2 0x2F14 JUMPI PUSH2 0x2F13 PUSH2 0x2E6D JUMP JUMPDEST JUMPDEST PUSH0 PUSH2 0x2F21 DUP6 DUP3 DUP7 ADD PUSH2 0x2EB7 JUMP JUMPDEST SWAP3 POP POP PUSH1 0x20 PUSH2 0x2F32 DUP6 DUP3 DUP7 ADD PUSH2 0x2EEA JUMP JUMPDEST SWAP2 POP POP SWAP3 POP SWAP3 SWAP1 POP JUMP JUMPDEST PUSH0 PUSH1 0x20 DUP3 DUP5 SUB SLT ISZERO PUSH2 0x2F51 JUMPI PUSH2 0x2F50 PUSH2 0x2E6D JUMP JUMPDEST JUMPDEST PUSH0 PUSH2 0x2F5E DUP5 DUP3 DUP6 ADD PUSH2 0x2EB7 JUMP JUMPDEST SWAP2 POP POP SWAP3 SWAP2 POP POP JUMP JUMPDEST PUSH2 0x2F70 DUP2 PUSH2 0x2ECB JUMP JUMPDEST DUP3 MSTORE POP POP JUMP JUMPDEST PUSH0 PUSH1 0x20 DUP3 ADD SWAP1 POP PUSH2 0x2F89 PUSH0 DUP4 ADD DUP5 PUSH2 0x2F67 JUMP JUMPDEST SWAP3 SWAP2 POP POP JUMP JUMPDEST PUSH0 PUSH1 0x20 DUP3 DUP5 SUB SLT ISZERO PUSH2 0x2FA4 JUMPI PUSH2 0x2FA3 PUSH2 0x2E6D JUMP JUMPDEST JUMPDEST PUSH0 PUSH2 0x2FB1 DUP5 DUP3 DUP6 ADD PUSH2 0x2EEA JUMP JUMPDEST SWAP2 POP POP SWAP3 SWAP2 POP POP JUMP JUMPDEST PUSH0 PUSH0 PUSH1 0x40 DUP4 DUP6 SUB SLT ISZERO PUSH2 0x2FD0 JUMPI PUSH2 0x2FCF PUSH2 0x2E6D JUMP JUMPDEST JUMPDEST PUSH0 PUSH2 0x2FDD DUP6 DUP3 DUP7 ADD PUSH2 0x2EB7 JUMP JUMPDEST SWAP3 POP POP PUSH1 0x20 PUSH2 0x2FEE DUP6 DUP3 DUP7 ADD PUSH2 0x2EB7 JUMP JUMPDEST SWAP2 POP POP SWAP3 POP SWAP3 SWAP1 POP JUMP JUMPDEST PUSH0 DUP2 ISZERO ISZERO SWAP1 POP SWAP2 SWAP1 POP JUMP JUMPDEST PUSH2 0x300C DUP2 PUSH2 0x2FF8 JUMP JUMPDEST DUP3 MSTORE POP POP JUMP JUMPDEST PUSH0 PUSH1 0x20 DUP3 ADD SWAP1 POP PUSH2 0x3025 PUSH0 DUP4 ADD DUP5 PUSH2 0x3003 JUMP JUMPDEST SWAP3 SWAP2 POP POP JUMP JUMPDEST PUSH2 0x3034 DUP2 PUSH2 0x2E90 JUMP JUMPDEST DUP3 MSTORE POP POP JUMP JUMPDEST PUSH0 PUSH1 0x80 DUP3 ADD SWAP1 POP PUSH2 0x304D PUSH0 DUP4 ADD DUP8 PUSH2 0x302B JUMP JUMPDEST PUSH2 0x305A PUSH1 0x20 DUP4 ADD DUP7 PUSH2 0x2F67 JUMP JUMPDEST PUSH2 0x3067 PUSH1 0x40 DUP4 ADD DUP6 PUSH2 0x302B JUMP JUMPDEST PUSH2 0x3074 PUSH1 0x60 DUP4 ADD DUP5 PUSH2 0x2F67 JUMP JUMPDEST SWAP6 SWAP5 POP POP POP POP POP JUMP JUMPDEST PUSH0 PUSH1 0x20 DUP3 ADD SWAP1 POP PUSH2 0x3090 PUSH0 DUP4 ADD DUP5 PUSH2 0x302B JUMP JUMPDEST SWAP3 SWAP2 POP POP JUMP JUMPDEST PUSH32 0x4E487B7100000000000000000000000000000000000000000000000000000000 PUSH0 MSTORE PUSH1 0x11 PUSH1 0x4 MSTORE PUSH1 0x24 PUSH0 REVERT JUMPDEST PUSH0 PUSH2 0x30CD DUP3 PUSH2 0x2ECB JUMP JUMPDEST SWAP2 POP PUSH2 0x30D8 DUP4 PUSH2 0x2ECB JUMP JUMPDEST SWAP3 POP DUP3 DUP3 ADD SWAP1 POP DUP1 DUP3 GT ISZERO PUSH2 0x30F0 JUMPI PUSH2 0x30EF PUSH2 0x3096 JUMP JUMPDEST JUMPDEST SWAP3 SWAP2 POP POP JUMP JUMPDEST PUSH0 PUSH2 0x3100 DUP3 PUSH2 0x2ECB JUMP JUMPDEST SWAP2 POP PUSH2 0x310B DUP4 PUSH2 0x2ECB JUMP JUMPDEST SWAP3 POP DUP3 DUP3 SUB SWAP1 POP DUP2 DUP2 GT ISZERO PUSH2 0x3123 JUMPI PUSH2 0x3122 PUSH2 0x3096 JUMP JUMPDEST JUMPDEST SWAP3 SWAP2 POP POP JUMP JUMPDEST PUSH32 0x4E487B7100000000000000000000000000000000000000000000000000000000 PUSH0 MSTORE PUSH1 0x32 PUSH1 0x4 MSTORE PUSH1 0x24 PUSH0 REVERT JUMPDEST PUSH32 0x4E487B7100000000000000000000000000000000000000000000000000000000 PUSH0 MSTORE PUSH1 0x31 PUSH1 0x4 MSTORE PUSH1 0x24 PUSH0 REVERT JUMPDEST PUSH0 PUSH10 0xFFFFFFFFFFFFFFFFFFFF DUP3 AND SWAP1 POP SWAP2 SWAP1 POP JUMP JUMPDEST PUSH2 0x31A1 DUP2 PUSH2 0x3183 JUMP JUMPDEST DUP2 EQ PUSH2 0x31AB JUMPI PUSH0 PUSH0 REVERT JUMPDEST POP JUMP JUMPDEST PUSH0 DUP2 MLOAD SWAP1 POP PUSH2 0x31BC DUP2 PUSH2 0x3198 JUMP JUMPDEST SWAP3 SWAP2 POP POP JUMP JUMPDEST PUSH0 DUP2 SWAP1 POP SWAP2 SWAP1 POP JUMP JUMPDEST PUSH2 0x31D4 DUP2 PUSH2 0x31C2 JUMP JUMPDEST DUP2 EQ PUSH2 0x31DE JUMPI PUSH0 PUSH0 REVERT JUMPDEST POP JUMP JUMPDEST PUSH0 DUP2 MLOAD SWAP1 POP PUSH2 0x31EF DUP2 PUSH2 0x31CB JUMP JUMPDEST SWAP3 SWAP2 POP POP JUMP JUMPDEST PUSH0 DUP2 MLOAD SWAP1 POP PUSH2 0x3203 DUP2 PUSH2 0x2ED4 JUMP JUMPDEST SWAP3 SWAP2 POP POP JUMP JUMPDEST PUSH0 PUSH0 PUSH0 PUSH0 PUSH0 PUSH1 0xA0 DUP7 DUP9 SUB SLT ISZERO PUSH2 0x3222 JUMPI PUSH2 0x3221 PUSH2 0x2E6D JUMP JUMPDEST JUMPDEST PUSH0 PUSH2 0x322F DUP9 DUP3 DUP10 ADD PUSH2 0x31AE JUMP JUMPDEST SWAP6 POP POP PUSH1 0x20 PUSH2 0x3240 DUP9 DUP3 DUP10 ADD PUSH2 0x31E1 JUMP JUMPDEST SWAP5 POP POP PUSH1 0x40 PUSH2 0x3251 DUP9 DUP3 DUP10 ADD PUSH2 0x31F5 JUMP JUMPDEST SWAP4 POP POP PUSH1 0x60 PUSH2 0x3262 DUP9 DUP3 DUP10 ADD PUSH2 0x31F5 JUMP JUMPDEST SWAP3 POP POP PUSH1 0x80 PUSH2 0x3273 DUP9 DUP3 DUP10 ADD PUSH2 0x31AE JUMP JUMPDEST SWAP2 POP POP SWAP3 SWAP6 POP SWAP3 SWAP6 SWAP1 SWAP4 POP JUMP JUMPDEST PUSH2 0x3289 DUP2 PUSH2 0x31C2 JUMP JUMPDEST DUP3 MSTORE POP POP JUMP JUMPDEST PUSH0 PUSH1 0x20 DUP3 ADD SWAP1 POP PUSH2 0x32A2 PUSH0 DUP4 ADD DUP5 PUSH2 0x3280 JUMP JUMPDEST SWAP3 SWAP2 POP POP JUMP JUMPDEST PUSH0 PUSH1 0xFF DUP3 AND SWAP1 POP SWAP2 SWAP1 POP JUMP JUMPDEST PUSH2 0x32BD DUP2 PUSH2 0x32A8 JUMP JUMPDEST DUP2 EQ PUSH2 0x32C7 JUMPI PUSH0 PUSH0 REVERT JUMPDEST POP JUMP JUMPDEST PUSH0 DUP2 MLOAD SWAP1 POP PUSH2 0x32D8 DUP2 PUSH2 0x32B4 JUMP JUMPDEST SWAP3 SWAP2 POP POP JUMP JUMPDEST PUSH0 PUSH1 0x20 DUP3 DUP5 SUB SLT ISZERO PUSH2 0x32F3 JUMPI PUSH2 0x32F2 PUSH2 0x2E6D JUMP JUMPDEST JUMPDEST PUSH0 PUSH2 0x3300 DUP5 DUP3 DUP6 ADD PUSH2 0x32CA JUMP JUMPDEST SWAP2 POP POP SWAP3 SWAP2 POP POP JUMP JUMPDEST PUSH0 DUP2 PUSH1 0x1 SHR SWAP1 POP SWAP2 SWAP1 POP JUMP JUMPDEST PUSH0 PUSH0 DUP3 SWAP2 POP DUP4 SWAP1 POP JUMPDEST PUSH1 0x1 DUP6 GT ISZERO PUSH2 0x335E JUMPI DUP1 DUP7 DIV DUP2 GT ISZERO PUSH2 0x333A JUMPI PUSH2 0x3339 PUSH2 0x3096 JUMP JUMPDEST JUMPDEST PUSH1 0x1 DUP6 AND ISZERO PUSH2 0x3349 JUMPI DUP1 DUP3 MUL SWAP2 POP JUMPDEST DUP1 DUP2 MUL SWAP1 POP PUSH2 0x3357 DUP6 PUSH2 0x3309 JUMP JUMPDEST SWAP5 POP PUSH2 0x331E JUMP JUMPDEST SWAP5 POP SWAP5 SWAP3 POP POP POP JUMP JUMPDEST PUSH0 DUP3 PUSH2 0x3376 JUMPI PUSH1 0x1 SWAP1 POP PUSH2 0x3431 JUMP JUMPDEST DUP2 PUSH2 0x3383 JUMPI PUSH0 SWAP1 POP PUSH2 0x3431 JUMP JUMPDEST DUP2 PUSH1 0x1 DUP2 EQ PUSH2 0x3399 JUMPI PUSH1 0x2 DUP2 EQ PUSH2 0x33A3 JUMPI PUSH2 0x33D2 JUMP JUMPDEST PUSH1 0x1 SWAP2 POP POP PUSH2 0x3431 JUMP JUMPDEST PUSH1 0xFF DUP5 GT ISZERO PUSH2 0x33B5 JUMPI PUSH2 0x33B4 PUSH2 0x3096 JUMP JUMPDEST JUMPDEST DUP4 PUSH1 0x2 EXP SWAP2 POP DUP5 DUP3 GT ISZERO PUSH2 0x33CC JUMPI PUSH2 0x33CB PUSH2 0x3096 JUMP JUMPDEST JUMPDEST POP PUSH2 0x3431 JUMP JUMPDEST POP PUSH1 0x20 DUP4 LT PUSH2 0x133 DUP4 LT AND PUSH1 0x4E DUP5 LT PUSH1 0xB DUP5 LT AND OR ISZERO PUSH2 0x3407 JUMPI DUP3 DUP3 EXP SWAP1 POP DUP4 DUP2 GT ISZERO PUSH2 0x3402 JUMPI PUSH2 0x3401 PUSH2 0x3096 JUMP JUMPDEST JUMPDEST PUSH2 0x3431 JUMP JUMPDEST PUSH2 0x3414 DUP5 DUP5 DUP5 PUSH1 0x1 PUSH2 0x3315 JUMP JUMPDEST SWAP3 POP SWAP1 POP DUP2 DUP5 DIV DUP2 GT ISZERO PUSH2 0x342B JUMPI PUSH2 0x342A PUSH2 0x3096 JUMP JUMPDEST JUMPDEST DUP2 DUP2 MUL SWAP1 POP JUMPDEST SWAP4 SWAP3 POP POP POP JUMP JUMPDEST PUSH0 PUSH2 0x3442 DUP3 PUSH2 0x2ECB JUMP JUMPDEST SWAP2 POP PUSH2 0x344D DUP4 PUSH2 0x2ECB JUMP JUMPDEST SWAP3 POP PUSH2 0x347A PUSH32 0xFFFFFFFFFFFFFFFFFFFFFFFFFFFFFFFFFFFFFFFFFFFFFFFFFFFFFFFFFFFFFFFF DUP5 DUP5 PUSH2 0x3367 JUMP JUMPDEST SWAP1 POP SWAP3 SWAP2 POP POP JUMP JUMPDEST PUSH0 PUSH2 0x348C DUP3 PUSH2 0x2ECB JUMP JUMPDEST SWAP2 POP PUSH2 0x3497 DUP4 PUSH2 0x2ECB JUMP JUMPDEST SWAP3 POP DUP3 DUP3 MUL PUSH2 0x34A5 DUP2 PUSH2 0x2ECB JUMP JUMPDEST SWAP2 POP DUP3 DUP3 DIV DUP5 EQ DUP4 ISZERO OR PUSH2 0x34BC JUMPI PUSH2 0x34BB PUSH2 0x3096 JUMP JUMPDEST JUMPDEST POP SWAP3 SWAP2 POP POP JUMP JUMPDEST PUSH0 PUSH1 0x20 DUP3 DUP5 SUB SLT ISZERO PUSH2 0x34D8 JUMPI PUSH2 0x34D7 PUSH2 0x2E6D JUMP JUMPDEST JUMPDEST PUSH0 PUSH2 0x34E5 DUP5 DUP3 DUP6 ADD PUSH2 0x31F5 JUMP JUMPDEST SWAP2 POP POP SWAP3 SWAP2 POP POP JUMP JUMPDEST PUSH0 PUSH1 0x40 DUP3 ADD SWAP1 POP PUSH2 0x3501 PUSH0 DUP4 ADD DUP6 PUSH2 0x2F67 JUMP JUMPDEST PUSH2 0x350E PUSH1 0x20 DUP4 ADD DUP5 PUSH2 0x2F67 JUMP JUMPDEST SWAP4 SWAP3 POP POP POP JUMP JUMPDEST PUSH0 PUSH1 0x40 DUP3 ADD SWAP1 POP PUSH2 0x3528 PUSH0 DUP4 ADD DUP6 PUSH2 0x302B JUMP JUMPDEST PUSH2 0x3535 PUSH1 0x20 DUP4 ADD DUP5 PUSH2 0x2F67 JUMP JUMPDEST SWAP4 SWAP3 POP POP POP JUMP JUMPDEST PUSH2 0x3545 DUP2 PUSH2 0x2FF8 JUMP JUMPDEST DUP2 EQ PUSH2 0x354F JUMPI PUSH0 PUSH0 REVERT JUMPDEST POP JUMP JUMPDEST PUSH0 DUP2 MLOAD SWAP1 POP PUSH2 0x3560 DUP2 PUSH2 0x353C JUMP JUMPDEST SWAP3 SWAP2 POP POP JUMP JUMPDEST PUSH0 PUSH1 0x20 DUP3 DUP5 SUB SLT ISZERO PUSH2 0x357B JUMPI PUSH2 0x357A PUSH2 0x2E6D JUMP JUMPDEST JUMPDEST PUSH0 PUSH2 0x3588 DUP5 DUP3 DUP6 ADD PUSH2 0x3552 JUMP JUMPDEST SWAP2 POP POP SWAP3 SWAP2 POP POP JUMP JUMPDEST PUSH0 PUSH1 0x60 DUP3 ADD SWAP1 POP PUSH2 0x35A4 PUSH0 DUP4 ADD DUP7 PUSH2 0x302B JUMP JUMPDEST PUSH2 0x35B1 PUSH1 0x20 DUP4 ADD DUP6 PUSH2 0x302B JUMP JUMPDEST PUSH2 0x35BE PUSH1 0x40 DUP4 ADD DUP5 PUSH2 0x2F67 JUMP JUMPDEST SWAP5 SWAP4 POP POP POP POP JUMP JUMPDEST PUSH32 0x4E487B7100000000000000000000000000000000000000000000000000000000 PUSH0 MSTORE PUSH1 0x12 PUSH1 0x4 MSTORE PUSH1 0x24 PUSH0 REVERT JUMPDEST PUSH0 PUSH2 0x35FD DUP3 PUSH2 0x2ECB JUMP JUMPDEST SWAP2 POP PUSH2 0x3608 DUP4 PUSH2 0x2ECB JUMP JUMPDEST SWAP3 POP DUP3 PUSH2 0x3618 JUMPI PUSH2 0x3617 PUSH2 0x35C6 JUMP JUMPDEST JUMPDEST DUP3 DUP3 DIV SWAP1 POP SWAP3 SWAP2 POP POP JUMP JUMPDEST PUSH0 DUP2 SWAP1 POP SWAP3 SWAP2 POP POP JUMP JUMPDEST POP JUMP JUMPDEST PUSH0 PUSH2 0x363B PUSH0 DUP4 PUSH2 0x3623 JUMP JUMPDEST SWAP2 POP PUSH2 0x3646 DUP3 PUSH2 0x362D JUMP JUMPDEST PUSH0 DUP3 ADD SWAP1 POP SWAP2 SWAP1 POP JUMP JUMPDEST PUSH0 PUSH2 0x365A DUP3 PUSH2 0x3630 JUMP JUMPDEST SWAP2 POP DUP2 SWAP1 POP SWAP2 SWAP1 POP JUMP JUMPDEST PUSH0 PUSH2 0x366E DUP3 PUSH2 0x32A8 JUMP JUMPDEST SWAP2 POP PUSH2 0x3679 DUP4 PUSH2 0x32A8 JUMP JUMPDEST SWAP3 POP DUP3 DUP3 SUB SWAP1 POP PUSH1 0xFF DUP2 GT ISZERO PUSH2 0x3692 JUMPI PUSH2 0x3691 PUSH2 0x3096 JUMP JUMPDEST JUMPDEST SWAP3 SWAP2 POP POP JUMP JUMPDEST PUSH0 PUSH2 0x36A2 DUP3 PUSH2 0x2ECB JUMP JUMPDEST SWAP2 POP PUSH2 0x36AD DUP4 PUSH2 0x32A8 JUMP JUMPDEST SWAP3 POP PUSH2 0x36DA PUSH32 0xFFFFFFFFFFFFFFFFFFFFFFFFFFFFFFFFFFFFFFFFFFFFFFFFFFFFFFFFFFFFFFFF DUP5 DUP5 PUSH2 0x3367 JUMP JUMPDEST SWAP1 POP SWAP3 SWAP2 POP POP JUMP JUMPDEST PUSH0 DUP3 DUP3 MSTORE PUSH1 0x20 DUP3 ADD SWAP1 POP SWAP3 SWAP2 POP POP JUMP JUMPDEST PUSH32 0x5265656E7472616E637947756172643A207265656E7472616E742063616C6C00 PUSH0 DUP3 ADD MSTORE POP JUMP JUMPDEST PUSH0 PUSH2 0x3726 PUSH1 0x1F DUP4 PUSH2 0x36E2 JUMP JUMPDEST SWAP2 POP PUSH2 0x3731 DUP3 PUSH2 0x36F2 JUMP JUMPDEST PUSH1 0x20 DUP3 ADD SWAP1 POP SWAP2 SWAP1 POP JUMP JUMPDEST PUSH0 PUSH1 0x20 DUP3 ADD SWAP1 POP DUP2 DUP2 SUB PUSH0 DUP4 ADD MSTORE PUSH2 0x3753 DUP2 PUSH2 0x371A JUMP JUMPDEST SWAP1 POP SWAP2 SWAP1 POP JUMP INVALID LOG2 PUSH5 0x6970667358 0x22 SLT KECCAK256 CALLVALUE CALLDATACOPY RETURN 0x4B DUP2 0x4B 0xD9 0x2E EOFCREATE 0xA3 ADD 0xC7 MSTORE MOD EXTCALL 0x4C CALLF 0x54E9 PUSH6 0x8D764335A1C6 DIV DUP10 PUSH24 0x9F18E164736F6C634300081E003300000000000000000000 "
				},
				"gasEstimates": {
					"creation": {
						"codeDepositCost": "2844800",
						"executionCost": "infinite",
						"totalCost": "infinite"
					},
					"external": {
						"": "240",
						"approveToken(address)": "infinite",
						"approvedTokenList(uint256)": "5033",
						"approvedTokens(address)": "2922",
						"borrowAsset(address,uint256)": "infinite",
						"getApprovedTokensCount()": "2485",
						"getContractEthBalance()": "401",
						"getContractsTokenBalance(address)": "infinite",
						"getLatestPrice(address)": "infinite",
						"getUsdValue(address,uint256)": "infinite",
						"getUser(address)": "infinite",
						"isTokenApproved(address)": "infinite",
						"liquidate(address,uint256)": "infinite",
						"owner()": "2582",
						"priceFeeds(address)": "infinite",
						"renounceOwnership()": "infinite",
						"repayAsset(address,uint256)": "infinite",
						"revokeTokenApproval(address)": "infinite",
						"setFeed(address,address)": "infinite",
						"setLiquidationBonus(uint256)": "infinite",
						"setLtv(uint256)": "infinite",
						"stakeEth()": "infinite",
						"tokenIndex(address)": "2825",
						"transferOwnership(address)": "infinite",
						"users(address)": "infinite",
						"withdrawCollateralEth(uint256)": "infinite"
					},
					"internal": {
						"_activePosition(address)": "2232",
						"_borrowableAmount(address,address)": "infinite",
						"_default(address)": "58738",
						"_getTokenDecimals(address)": "infinite",
						"_hasCollateral(address)": "2232",
						"_poolTransfer(address,address,uint256)": "infinite",
						"_repayWithBorrowedAsset(address,address)": "2282",
						"_user(address)": "121"
					}
				},
				"methodIdentifiers": {
					"approveToken(address)": "80b2edd8",
					"approvedTokenList(uint256)": "9776f4a5",
					"approvedTokens(address)": "6d1ea3fa",
					"borrowAsset(address,uint256)": "0f07645a",
					"getApprovedTokensCount()": "4bb55d5c",
					"getContractEthBalance()": "4de57d75",
					"getContractsTokenBalance(address)": "3e4e1c27",
					"getLatestPrice(address)": "16345f18",
					"getUsdValue(address,uint256)": "c660d112",
					"getUser(address)": "6f77926b",
					"isTokenApproved(address)": "9d93d352",
					"liquidate(address,uint256)": "bcbaf487",
					"owner()": "8da5cb5b",
					"priceFeeds(address)": "9dcb511a",
					"renounceOwnership()": "715018a6",
					"repayAsset(address,uint256)": "b8bc9cab",
					"revokeTokenApproval(address)": "15c92678",
					"setFeed(address,address)": "40b1eb10",
					"setLiquidationBonus(uint256)": "28842d4f",
					"setLtv(uint256)": "a37e52e3",
					"stakeEth()": "7a5f0dc4",
					"tokenIndex(address)": "427f91a6",
					"transferOwnership(address)": "f2fde38b",
					"users(address)": "a87430ba",
					"withdrawCollateralEth(uint256)": "e1bf0a4b"
				}
			},
			"storageLayout": {
				"storage": [
					{
						"astId": 204,
						"contract": "src/contracts/MiniLend.sol:MiniLend",
						"label": "_status",
						"offset": 0,
						"slot": "0",
						"type": "t_uint256"
					},
					{
						"astId": 54,
						"contract": "src/contracts/MiniLend.sol:MiniLend",
						"label": "_owner",
						"offset": 0,
						"slot": "1",
						"type": "t_address"
					},
					{
						"astId": 841,
						"contract": "src/contracts/MiniLend.sol:MiniLend",
						"label": "users",
						"offset": 0,
						"slot": "2",
						"type": "t_mapping(t_address,t_struct(User)836_storage)"
					},
					{
						"astId": 845,
						"contract": "src/contracts/MiniLend.sol:MiniLend",
						"label": "priceFeeds",
						"offset": 0,
						"slot": "3",
						"type": "t_mapping(t_address,t_address)"
					},
					{
						"astId": 849,
						"contract": "src/contracts/MiniLend.sol:MiniLend",
						"label": "approvedTokens",
						"offset": 0,
						"slot": "4",
						"type": "t_mapping(t_address,t_bool)"
					},
					{
						"astId": 853,
						"contract": "src/contracts/MiniLend.sol:MiniLend",
						"label": "tokenIndex",
						"offset": 0,
						"slot": "5",
						"type": "t_mapping(t_address,t_uint256)"
					},
					{
						"astId": 856,
						"contract": "src/contracts/MiniLend.sol:MiniLend",
						"label": "approvedTokenList",
						"offset": 0,
						"slot": "6",
						"type": "t_array(t_address)dyn_storage"
					},
					{
						"astId": 859,
						"contract": "src/contracts/MiniLend.sol:MiniLend",
						"label": "ethAddress",
						"offset": 0,
						"slot": "7",
						"type": "t_address"
					},
					{
						"astId": 862,
						"contract": "src/contracts/MiniLend.sol:MiniLend",
						"label": "LTV",
						"offset": 0,
						"slot": "8",
						"type": "t_uint256"
					},
					{
						"astId": 865,
						"contract": "src/contracts/MiniLend.sol:MiniLend",
						"label": "LIQUIDATION_BONUS",
						"offset": 0,
						"slot": "9",
						"type": "t_uint256"
					}
				],
				"types": {
					"t_address": {
						"encoding": "inplace",
						"label": "address",
						"numberOfBytes": "20"
					},
					"t_array(t_address)dyn_storage": {
						"base": "t_address",
						"encoding": "dynamic_array",
						"label": "address[]",
						"numberOfBytes": "32"
					},
					"t_bool": {
						"encoding": "inplace",
						"label": "bool",
						"numberOfBytes": "1"
					},
					"t_mapping(t_address,t_address)": {
						"encoding": "mapping",
						"key": "t_address",
						"label": "mapping(address => address)",
						"numberOfBytes": "32",
						"value": "t_address"
					},
					"t_mapping(t_address,t_bool)": {
						"encoding": "mapping",
						"key": "t_address",
						"label": "mapping(address => bool)",
						"numberOfBytes": "32",
						"value": "t_bool"
					},
					"t_mapping(t_address,t_struct(User)836_storage)": {
						"encoding": "mapping",
						"key": "t_address",
						"label": "mapping(address => struct MiniLend.User)",
						"numberOfBytes": "32",
						"value": "t_struct(User)836_storage"
					},
					"t_mapping(t_address,t_uint256)": {
						"encoding": "mapping",
						"key": "t_address",
						"label": "mapping(address => uint256)",
						"numberOfBytes": "32",
						"value": "t_uint256"
					},
					"t_struct(User)836_storage": {
						"encoding": "inplace",
						"label": "struct MiniLend.User",
						"members": [
							{
								"astId": 829,
								"contract": "src/contracts/MiniLend.sol:MiniLend",
								"label": "stakedAsset",
								"offset": 0,
								"slot": "0",
								"type": "t_address"
							},
							{
								"astId": 831,
								"contract": "src/contracts/MiniLend.sol:MiniLend",
								"label": "stakedAmount",
								"offset": 0,
								"slot": "1",
								"type": "t_uint256"
							},
							{
								"astId": 833,
								"contract": "src/contracts/MiniLend.sol:MiniLend",
								"label": "borrowedAsset",
								"offset": 0,
								"slot": "2",
								"type": "t_address"
							},
							{
								"astId": 835,
								"contract": "src/contracts/MiniLend.sol:MiniLend",
								"label": "borrowedAssetAmount",
								"offset": 0,
								"slot": "3",
								"type": "t_uint256"
							}
						],
						"numberOfBytes": "128"
					},
					"t_uint256": {
						"encoding": "inplace",
						"label": "uint256",
						"numberOfBytes": "32"
					}
				}
			},
			"userdoc": {
				"kind": "user",
				"methods": {
					"borrowAsset(address,uint256)": {
						"notice": "Borrow a supported token from the pool. `amount` is token units (assumed 18-dec)."
					},
					"getUser(address)": {
						"notice": "Returns user info as a memory copy for frontend/UI consumption."
					},
					"repayAsset(address,uint256)": {
						"notice": "Repay borrowed token. amount is token units (18-dec)"
					},
					"stakeEth()": {
						"notice": "Stake ETH as collateral"
					}
				},
				"version": 1
			}
		}
	}
}