{
	"src/contracts/MiniLend.sol": {
		"MiniLend": {
			"abi": [
				{
					"inputs": [
						{
							"internalType": "uint256",
							"name": "bonus",
							"type": "uint256"
						}
					],
					"name": "BadBonus",
					"type": "error"
				},
				{
					"inputs": [
						{
							"internalType": "uint256",
							"name": "ltv",
							"type": "uint256"
						}
					],
					"name": "Badltv",
					"type": "error"
				},
				{
					"inputs": [
						{
							"internalType": "uint256",
							"name": "amount",
							"type": "uint256"
						},
						{
							"internalType": "uint256",
							"name": "availableToBorrow",
							"type": "uint256"
						}
					],
					"name": "BorrowLimitExceeded",
					"type": "error"
				},
				{
					"inputs": [
						{
							"internalType": "uint256",
							"name": "balance",
							"type": "uint256"
						}
					],
					"name": "BorrowedAmountNotFullyRepaid",
					"type": "error"
				},
				{
					"inputs": [],
					"name": "FeedDataNotFinalized",
					"type": "error"
				},
				{
					"inputs": [
						{
							"internalType": "uint256",
							"name": "poolBalance",
							"type": "uint256"
						},
						{
							"internalType": "uint256",
							"name": "requestedAmount",
							"type": "uint256"
						}
					],
					"name": "InsufficientPoolBalance",
					"type": "error"
				},
				{
					"inputs": [
						{
							"internalType": "address",
							"name": "addr",
							"type": "address"
						}
					],
					"name": "InvalidAddress",
					"type": "error"
				},
				{
					"inputs": [],
					"name": "InvalidAmount",
					"type": "error"
				},
				{
					"inputs": [
						{
							"internalType": "address",
							"name": "asset",
							"type": "address"
						}
					],
					"name": "InvalidAsset",
					"type": "error"
				},
				{
					"inputs": [],
					"name": "InvalidCloseFactor",
					"type": "error"
				},
				{
					"inputs": [],
					"name": "InvalidDecimals",
					"type": "error"
				},
				{
					"inputs": [
						{
							"internalType": "int256",
							"name": "price",
							"type": "int256"
						}
					],
					"name": "InvalidPriceData",
					"type": "error"
				},
				{
					"inputs": [],
					"name": "NoActivePosition",
					"type": "error"
				},
				{
					"inputs": [],
					"name": "NoCollateralProvided",
					"type": "error"
				},
				{
					"inputs": [
						{
							"internalType": "uint256",
							"name": "collateralBalance",
							"type": "uint256"
						},
						{
							"internalType": "uint256",
							"name": "userInput",
							"type": "uint256"
						}
					],
					"name": "NotEnoughCollateral",
					"type": "error"
				},
				{
					"inputs": [
						{
							"internalType": "uint256",
							"name": "amountPaid",
							"type": "uint256"
						},
						{
							"internalType": "uint256",
							"name": "expectedAmount",
							"type": "uint256"
						}
					],
					"name": "OverPaymentNotSupported",
					"type": "error"
				},
				{
					"inputs": [
						{
							"internalType": "address",
							"name": "owner",
							"type": "address"
						}
					],
					"name": "OwnableInvalidOwner",
					"type": "error"
				},
				{
					"inputs": [
						{
							"internalType": "address",
							"name": "account",
							"type": "address"
						}
					],
					"name": "OwnableUnauthorizedAccount",
					"type": "error"
				},
				{
					"inputs": [],
					"name": "PositionHealthy",
					"type": "error"
				},
				{
					"inputs": [],
					"name": "ReentrancyGuardReentrantCall",
					"type": "error"
				},
				{
					"inputs": [
						{
							"internalType": "uint256",
							"name": "data",
							"type": "uint256"
						}
					],
					"name": "StalePriceData",
					"type": "error"
				},
				{
					"inputs": [
						{
							"internalType": "address",
							"name": "token",
							"type": "address"
						}
					],
					"name": "TokenAlreadyApproved",
					"type": "error"
				},
				{
					"inputs": [
						{
							"internalType": "address",
							"name": "token",
							"type": "address"
						}
					],
					"name": "TokenNotApproved",
					"type": "error"
				},
				{
					"inputs": [
						{
							"internalType": "address",
							"name": "token",
							"type": "address"
						},
						{
							"internalType": "address",
							"name": "to",
							"type": "address"
						},
						{
							"internalType": "uint256",
							"name": "amount",
							"type": "uint256"
						}
					],
					"name": "TokenTransferFailed",
					"type": "error"
				},
				{
					"inputs": [
						{
							"internalType": "address",
							"name": "token",
							"type": "address"
						},
						{
							"internalType": "address",
							"name": "sender",
							"type": "address"
						},
						{
							"internalType": "uint256",
							"name": "amount",
							"type": "uint256"
						}
					],
					"name": "TransferFailed",
					"type": "error"
				},
				{
					"anonymous": false,
					"inputs": [
						{
							"indexed": false,
							"internalType": "uint256",
							"name": "newBonus",
							"type": "uint256"
						}
					],
					"name": "BonusUpdated",
					"type": "event"
				},
				{
					"anonymous": false,
					"inputs": [
						{
							"indexed": true,
							"internalType": "address",
							"name": "user",
							"type": "address"
						},
						{
							"indexed": false,
							"internalType": "uint256",
							"name": "amount",
							"type": "uint256"
						}
					],
					"name": "ETHCollateralWithdrawn",
					"type": "event"
				},
				{
					"anonymous": false,
					"inputs": [
						{
							"indexed": true,
							"internalType": "address",
							"name": "user",
							"type": "address"
						},
						{
							"indexed": false,
							"internalType": "uint256",
							"name": "ethAmount",
							"type": "uint256"
						}
					],
					"name": "EthStaked",
					"type": "event"
				},
				{
					"anonymous": false,
					"inputs": [
						{
							"indexed": true,
							"internalType": "address",
							"name": "liquidator",
							"type": "address"
						},
						{
							"indexed": true,
							"internalType": "address",
							"name": "borrower",
							"type": "address"
						},
						{
							"indexed": false,
							"internalType": "uint256",
							"name": "repayAmount",
							"type": "uint256"
						},
						{
							"indexed": false,
							"internalType": "uint256",
							"name": "seizedCollateral",
							"type": "uint256"
						}
					],
					"name": "Liquidation",
					"type": "event"
				},
				{
					"anonymous": false,
					"inputs": [
						{
							"indexed": false,
							"internalType": "address",
							"name": "newAddress",
							"type": "address"
						}
					],
					"name": "MockUsdtAddressUpdated",
					"type": "event"
				},
				{
					"anonymous": false,
					"inputs": [
						{
							"indexed": true,
							"internalType": "address",
							"name": "token",
							"type": "address"
						}
					],
					"name": "NewTokenApproved",
					"type": "event"
				},
				{
					"anonymous": false,
					"inputs": [
						{
							"indexed": true,
							"internalType": "address",
							"name": "previousOwner",
							"type": "address"
						},
						{
							"indexed": true,
							"internalType": "address",
							"name": "newOwner",
							"type": "address"
						}
					],
					"name": "OwnershipTransferred",
					"type": "event"
				},
				{
					"anonymous": false,
					"inputs": [
						{
							"indexed": true,
							"internalType": "address",
							"name": "token",
							"type": "address"
						},
						{
							"indexed": true,
							"internalType": "address",
							"name": "feed",
							"type": "address"
						}
					],
					"name": "PriceFeedUpdated",
					"type": "event"
				},
				{
					"anonymous": false,
					"inputs": [
						{
							"indexed": true,
							"internalType": "address",
							"name": "token",
							"type": "address"
						}
					],
					"name": "TokenRevoked",
					"type": "event"
				},
				{
					"anonymous": false,
					"inputs": [
						{
							"indexed": true,
							"internalType": "address",
							"name": "user",
							"type": "address"
						},
						{
							"indexed": false,
							"internalType": "uint256",
							"name": "usdAmount",
							"type": "uint256"
						}
					],
					"name": "USDBorrowed",
					"type": "event"
				},
				{
					"anonymous": false,
					"inputs": [
						{
							"indexed": true,
							"internalType": "address",
							"name": "user",
							"type": "address"
						},
						{
							"indexed": false,
							"internalType": "uint256",
							"name": "usdAmount",
							"type": "uint256"
						}
					],
					"name": "USDRepaid",
					"type": "event"
				},
				{
					"anonymous": false,
					"inputs": [
						{
							"indexed": false,
							"internalType": "uint256",
							"name": "newltv",
							"type": "uint256"
						}
					],
					"name": "ltvUpdated",
					"type": "event"
				},
				{
					"stateMutability": "payable",
					"type": "fallback"
				},
				{
					"inputs": [],
					"name": "ETH_ADDRESS",
					"outputs": [
						{
							"internalType": "address",
							"name": "",
							"type": "address"
						}
					],
					"stateMutability": "view",
					"type": "function"
				},
				{
					"inputs": [
						{
							"internalType": "address",
							"name": "token",
							"type": "address"
						}
					],
					"name": "approveToken",
					"outputs": [],
					"stateMutability": "nonpayable",
					"type": "function"
				},
				{
					"inputs": [
						{
							"internalType": "uint256",
							"name": "",
							"type": "uint256"
						}
					],
					"name": "approvedTokenList",
					"outputs": [
						{
							"internalType": "address",
							"name": "",
							"type": "address"
						}
					],
					"stateMutability": "view",
					"type": "function"
				},
				{
					"inputs": [
						{
							"internalType": "address",
							"name": "",
							"type": "address"
						}
					],
					"name": "approvedTokens",
					"outputs": [
						{
							"internalType": "bool",
							"name": "",
							"type": "bool"
						}
					],
					"stateMutability": "view",
					"type": "function"
				},
				{
					"inputs": [
						{
							"internalType": "address",
							"name": "token",
							"type": "address"
						},
						{
							"internalType": "uint256",
							"name": "amount",
							"type": "uint256"
						}
					],
					"name": "borrowAsset",
					"outputs": [],
					"stateMutability": "nonpayable",
					"type": "function"
				},
				{
					"inputs": [],
					"name": "getApprovedTokensCount",
					"outputs": [
						{
							"internalType": "uint256",
							"name": "",
							"type": "uint256"
						}
					],
					"stateMutability": "view",
					"type": "function"
				},
				{
					"inputs": [],
					"name": "getContractEthBalance",
					"outputs": [
						{
							"internalType": "uint256",
							"name": "",
							"type": "uint256"
						}
					],
					"stateMutability": "view",
					"type": "function"
				},
				{
					"inputs": [
						{
							"internalType": "address",
							"name": "token",
							"type": "address"
						}
					],
					"name": "getContractsTokenBalance",
					"outputs": [
						{
							"internalType": "uint256",
							"name": "",
							"type": "uint256"
						}
					],
					"stateMutability": "view",
					"type": "function"
				},
				{
					"inputs": [
						{
							"internalType": "address",
							"name": "token",
							"type": "address"
						}
					],
					"name": "getLatestPrice",
					"outputs": [
						{
							"internalType": "uint256",
							"name": "",
							"type": "uint256"
						}
					],
					"stateMutability": "view",
					"type": "function"
				},
				{
					"inputs": [
						{
							"internalType": "address",
							"name": "token",
							"type": "address"
						},
						{
							"internalType": "uint256",
							"name": "amount",
							"type": "uint256"
						}
					],
					"name": "getUsdValue",
					"outputs": [
						{
							"internalType": "uint256",
							"name": "usdValue",
							"type": "uint256"
						}
					],
					"stateMutability": "view",
					"type": "function"
				},
				{
					"inputs": [
						{
							"internalType": "address",
							"name": "user",
							"type": "address"
						}
					],
					"name": "getUser",
					"outputs": [
						{
							"internalType": "address",
							"name": "stakedAsset",
							"type": "address"
						},
						{
							"internalType": "uint256",
							"name": "stakedAmount",
							"type": "uint256"
						},
						{
							"internalType": "address",
							"name": "borrowedAsset",
							"type": "address"
						},
						{
							"internalType": "uint256",
							"name": "borrowedAssetAmount",
							"type": "uint256"
						}
					],
					"stateMutability": "view",
					"type": "function"
				},
				{
					"inputs": [
						{
							"internalType": "address",
							"name": "token",
							"type": "address"
						}
					],
					"name": "isTokenApproved",
					"outputs": [
						{
							"internalType": "bool",
							"name": "",
							"type": "bool"
						}
					],
					"stateMutability": "view",
					"type": "function"
				},
				{
					"inputs": [
						{
							"internalType": "address",
							"name": "borrower",
							"type": "address"
						},
						{
							"internalType": "uint256",
							"name": "repayAmount",
							"type": "uint256"
						}
					],
					"name": "liquidate",
					"outputs": [],
					"stateMutability": "nonpayable",
					"type": "function"
				},
				{
					"inputs": [],
					"name": "owner",
					"outputs": [
						{
							"internalType": "address",
							"name": "",
							"type": "address"
						}
					],
					"stateMutability": "view",
					"type": "function"
				},
				{
					"inputs": [
						{
							"internalType": "address",
							"name": "",
							"type": "address"
						}
					],
					"name": "priceFeeds",
					"outputs": [
						{
							"internalType": "address",
							"name": "",
							"type": "address"
						}
					],
					"stateMutability": "view",
					"type": "function"
				},
				{
					"inputs": [],
					"name": "renounceOwnership",
					"outputs": [],
					"stateMutability": "nonpayable",
					"type": "function"
				},
				{
					"inputs": [
						{
							"internalType": "address",
							"name": "token",
							"type": "address"
						},
						{
							"internalType": "uint256",
							"name": "amount",
							"type": "uint256"
						}
					],
					"name": "repayAsset",
					"outputs": [],
					"stateMutability": "nonpayable",
					"type": "function"
				},
				{
					"inputs": [
						{
							"internalType": "address",
							"name": "token",
							"type": "address"
						}
					],
					"name": "revokeTokenApproval",
					"outputs": [],
					"stateMutability": "nonpayable",
					"type": "function"
				},
				{
					"inputs": [
						{
							"internalType": "address",
							"name": "token",
							"type": "address"
						},
						{
							"internalType": "address",
							"name": "feed",
							"type": "address"
						}
					],
					"name": "setFeed",
					"outputs": [],
					"stateMutability": "nonpayable",
					"type": "function"
				},
				{
					"inputs": [
						{
							"internalType": "uint256",
							"name": "_bonus",
							"type": "uint256"
						}
					],
					"name": "setLiquidationBonus",
					"outputs": [],
					"stateMutability": "nonpayable",
					"type": "function"
				},
				{
					"inputs": [
						{
							"internalType": "uint256",
							"name": "_ltv",
							"type": "uint256"
						}
					],
					"name": "setltv",
					"outputs": [],
					"stateMutability": "nonpayable",
					"type": "function"
				},
				{
					"inputs": [],
					"name": "stakeEth",
					"outputs": [],
					"stateMutability": "payable",
					"type": "function"
				},
				{
					"inputs": [
						{
							"internalType": "address",
							"name": "",
							"type": "address"
						}
					],
					"name": "tokenIndex",
					"outputs": [
						{
							"internalType": "uint256",
							"name": "",
							"type": "uint256"
						}
					],
					"stateMutability": "view",
					"type": "function"
				},
				{
					"inputs": [
						{
							"internalType": "address",
							"name": "newOwner",
							"type": "address"
						}
					],
					"name": "transferOwnership",
					"outputs": [],
					"stateMutability": "nonpayable",
					"type": "function"
				},
				{
					"inputs": [
						{
							"internalType": "address",
							"name": "",
							"type": "address"
						}
					],
					"name": "users",
					"outputs": [
						{
							"internalType": "address",
							"name": "stakedAsset",
							"type": "address"
						},
						{
							"internalType": "uint256",
							"name": "stakedAmount",
							"type": "uint256"
						},
						{
							"internalType": "address",
							"name": "borrowedAsset",
							"type": "address"
						},
						{
							"internalType": "uint256",
							"name": "borrowedAssetAmount",
							"type": "uint256"
						}
					],
					"stateMutability": "view",
					"type": "function"
				},
				{
					"inputs": [
						{
							"internalType": "uint256",
							"name": "amount",
							"type": "uint256"
						}
					],
					"name": "withdrawCollateralEth",
					"outputs": [],
					"stateMutability": "nonpayable",
					"type": "function"
				},
				{
					"stateMutability": "payable",
					"type": "receive"
				}
			],
			"devdoc": {
				"errors": {
					"OwnableInvalidOwner(address)": [
						{
							"details": "The owner is not a valid owner account. (eg. `address(0)`)"
						}
					],
					"OwnableUnauthorizedAccount(address)": [
						{
							"details": "The caller account is not authorized to perform an operation."
						}
					],
					"ReentrancyGuardReentrantCall()": [
						{
							"details": "Unauthorized reentrant call."
						}
					]
				},
				"kind": "dev",
				"methods": {
					"getUser(address)": {
						"details": "External callers cannot get storage references, so return memory version."
					},
					"liquidate(address,uint256)": {
						"params": {
							"borrower": "The borrower to liquidate.",
							"repayAmount": "The amount (in borrowed token units, 18-dec assumed) the liquidator will repay on behalf of the borrower. Requirements: - borrower's position must exist and be below the liquidation threshold - repayAmount is capped by closeFactor_BPS of outstanding borrowedAssetAmount - liquidator must `approve` repay token to this contract"
						}
					},
					"owner()": {
						"details": "Returns the address of the current owner."
					},
					"renounceOwnership()": {
						"details": "Leaves the contract without owner. It will not be possible to call `onlyOwner` functions. Can only be called by the current owner. NOTE: Renouncing ownership will leave the contract without an owner, thereby disabling any functionality that is only available to the owner."
					},
					"transferOwnership(address)": {
						"details": "Transfers ownership of the contract to a new account (`newOwner`). Can only be called by the current owner."
					}
				},
				"version": 1
			},
			"evm": {
				"assembly": "    /* \"src/contracts/MiniLend.sol\":440:21055  contract MiniLend is ReentrancyGuard, Ownable(msg.sender) {... */\n  mstore(0x40, 0x80)\n    /* \"src/contracts/MiniLend.sol\":2983:2987  5000 */\n  0x1388\n    /* \"src/contracts/MiniLend.sol\":2961:2987  uint256 private ltv = 5000 */\n  0x06\n  sstore\n    /* \"src/contracts/MiniLend.sol\":3041:3045  5000 */\n  0x1388\n    /* \"src/contracts/MiniLend.sol\":3011:3045  uint256 private closeFactor = 5000 */\n  0x07\n  sstore\n    /* \"src/contracts/MiniLend.sol\":3104:3107  500 */\n  0x01f4\n    /* \"src/contracts/MiniLend.sol\":3069:3107  uint256 private liquidationBonus = 500 */\n  0x08\n  sstore\n    /* \"src/contracts/MiniLend.sol\":440:21055  contract MiniLend is ReentrancyGuard, Ownable(msg.sender) {... */\n  callvalue\n  dup1\n  iszero\n  tag_1\n  jumpi\n  revert(0x00, 0x00)\ntag_1:\n  pop\n    /* \"src/contracts/MiniLend.sol\":486:496  msg.sender */\n  caller\n    /* \"lib/openzeppelin-contracts/contracts/utils/ReentrancyGuard.sol\":2365:2366  1 */\n  0x01\n    /* \"lib/openzeppelin-contracts/contracts/utils/ReentrancyGuard.sol\":2539:2585  _reentrancyGuardStorageSlot().getUint256Slot() */\n  tag_5\n    /* \"lib/openzeppelin-contracts/contracts/utils/ReentrancyGuard.sol\":2539:2568  _reentrancyGuardStorageSlot() */\n  tag_6\n    /* \"lib/openzeppelin-contracts/contracts/utils/ReentrancyGuard.sol\":2539:2566  _reentrancyGuardStorageSlot */\n  shl(0x20, tag_7)\n    /* \"lib/openzeppelin-contracts/contracts/utils/ReentrancyGuard.sol\":2539:2568  _reentrancyGuardStorageSlot() */\n  0x20\n  shr\n  jump\t// in\ntag_6:\n    /* \"lib/openzeppelin-contracts/contracts/utils/ReentrancyGuard.sol\":2539:2583  _reentrancyGuardStorageSlot().getUint256Slot */\n  shl(0x20, tag_8)\n    /* \"lib/openzeppelin-contracts/contracts/utils/ReentrancyGuard.sol\":2539:2585  _reentrancyGuardStorageSlot().getUint256Slot() */\n  0x20\n  shr\n  jump\t// in\ntag_5:\n    /* \"lib/openzeppelin-contracts/contracts/utils/ReentrancyGuard.sol\":2539:2591  _reentrancyGuardStorageSlot().getUint256Slot().value */\n  0x00\n  add\n    /* \"lib/openzeppelin-contracts/contracts/utils/ReentrancyGuard.sol\":2539:2605  _reentrancyGuardStorageSlot().getUint256Slot().value = NOT_ENTERED */\n  dup2\n  swap1\n  sstore\n  pop\n    /* \"lib/openzeppelin-contracts/contracts/access/Ownable.sol\":1297:1298  0 */\n  0x00\n    /* \"lib/openzeppelin-contracts/contracts/access/Ownable.sol\":1273:1299  initialOwner == address(0) */\n  0xffffffffffffffffffffffffffffffffffffffff\n  and\n    /* \"lib/openzeppelin-contracts/contracts/access/Ownable.sol\":1273:1285  initialOwner */\n  dup2\n    /* \"lib/openzeppelin-contracts/contracts/access/Ownable.sol\":1273:1299  initialOwner == address(0) */\n  0xffffffffffffffffffffffffffffffffffffffff\n  and\n  sub\n    /* \"lib/openzeppelin-contracts/contracts/access/Ownable.sol\":1269:1364  if (initialOwner == address(0)) {... */\n  tag_10\n  jumpi\n    /* \"lib/openzeppelin-contracts/contracts/access/Ownable.sol\":1350:1351  0 */\n  0x00\n    /* \"lib/openzeppelin-contracts/contracts/access/Ownable.sol\":1322:1353  OwnableInvalidOwner(address(0)) */\n  mload(0x40)\n  0x1e4fbdf700000000000000000000000000000000000000000000000000000000\n  dup2\n  mstore\n  0x04\n  add\n  tag_11\n  swap2\n  swap1\n  tag_12\n  jump\t// in\ntag_11:\n  mload(0x40)\n  dup1\n  swap2\n  sub\n  swap1\n  revert\n    /* \"lib/openzeppelin-contracts/contracts/access/Ownable.sol\":1269:1364  if (initialOwner == address(0)) {... */\ntag_10:\n    /* \"lib/openzeppelin-contracts/contracts/access/Ownable.sol\":1373:1405  _transferOwnership(initialOwner) */\n  tag_13\n    /* \"lib/openzeppelin-contracts/contracts/access/Ownable.sol\":1392:1404  initialOwner */\n  dup2\n    /* \"lib/openzeppelin-contracts/contracts/access/Ownable.sol\":1373:1391  _transferOwnership */\n  shl(0x20, tag_14)\n    /* \"lib/openzeppelin-contracts/contracts/access/Ownable.sol\":1373:1405  _transferOwnership(initialOwner) */\n  0x20\n  shr\n  jump\t// in\ntag_13:\n    /* \"lib/openzeppelin-contracts/contracts/access/Ownable.sol\":1225:1412  constructor(address initialOwner) {... */\n  pop\n    /* \"src/contracts/MiniLend.sol\":440:21055  contract MiniLend is ReentrancyGuard, Ownable(msg.sender) {... */\n  jump(tag_15)\n    /* \"lib/openzeppelin-contracts/contracts/utils/ReentrancyGuard.sol\":4636:4763  function _reentrancyGuardStorageSlot() internal pure virtual returns (bytes32) {... */\ntag_7:\n    /* \"lib/openzeppelin-contracts/contracts/utils/ReentrancyGuard.sol\":4706:4713  bytes32 */\n  0x00\n    /* \"lib/openzeppelin-contracts/contracts/utils/ReentrancyGuard.sol\":1505:1571  0x9b779b17422d0df92223018b32b4d1fa46e071723d6817e2486d003becc55f00 */\n  0x9b779b17422d0df92223018b32b4d1fa46e071723d6817e2486d003becc55f00\n    /* \"lib/openzeppelin-contracts/contracts/utils/ReentrancyGuard.sol\":4732:4756  REENTRANCY_GUARD_STORAGE */\n  0x00\n  shl\n    /* \"lib/openzeppelin-contracts/contracts/utils/ReentrancyGuard.sol\":4725:4756  return REENTRANCY_GUARD_STORAGE */\n  swap1\n  pop\n    /* \"lib/openzeppelin-contracts/contracts/utils/ReentrancyGuard.sol\":4636:4763  function _reentrancyGuardStorageSlot() internal pure virtual returns (bytes32) {... */\n  swap1\n  jump\t// out\n    /* \"lib/openzeppelin-contracts/contracts/utils/StorageSlot.sol\":2679:2842  function getUint256Slot(bytes32 slot) internal pure returns (Uint256Slot storage r) {... */\ntag_8:\n    /* \"lib/openzeppelin-contracts/contracts/utils/StorageSlot.sol\":2740:2761  Uint256Slot storage r */\n  0x00\n    /* \"lib/openzeppelin-contracts/contracts/utils/StorageSlot.sol\":2822:2826  slot */\n  dup2\n    /* \"lib/openzeppelin-contracts/contracts/utils/StorageSlot.sol\":2812:2826  r.slot := slot */\n  swap1\n  pop\n    /* \"lib/openzeppelin-contracts/contracts/utils/StorageSlot.sol\":2679:2842  function getUint256Slot(bytes32 slot) internal pure returns (Uint256Slot storage r) {... */\n  swap2\n  swap1\n  pop\n  jump\t// out\n    /* \"lib/openzeppelin-contracts/contracts/access/Ownable.sol\":2912:3099  function _transferOwnership(address newOwner) internal virtual {... */\ntag_14:\n    /* \"lib/openzeppelin-contracts/contracts/access/Ownable.sol\":2985:3001  address oldOwner */\n  0x00\n    /* \"lib/openzeppelin-contracts/contracts/access/Ownable.sol\":3004:3010  _owner */\n  0x00\n  0x00\n  swap1\n  sload\n  swap1\n  0x0100\n  exp\n  swap1\n  div\n  0xffffffffffffffffffffffffffffffffffffffff\n  and\n    /* \"lib/openzeppelin-contracts/contracts/access/Ownable.sol\":2985:3010  address oldOwner = _owner */\n  swap1\n  pop\n    /* \"lib/openzeppelin-contracts/contracts/access/Ownable.sol\":3029:3037  newOwner */\n  dup2\n    /* \"lib/openzeppelin-contracts/contracts/access/Ownable.sol\":3020:3026  _owner */\n  0x00\n  0x00\n    /* \"lib/openzeppelin-contracts/contracts/access/Ownable.sol\":3020:3037  _owner = newOwner */\n  0x0100\n  exp\n  dup2\n  sload\n  dup2\n  0xffffffffffffffffffffffffffffffffffffffff\n  mul\n  not\n  and\n  swap1\n  dup4\n  0xffffffffffffffffffffffffffffffffffffffff\n  and\n  mul\n  or\n  swap1\n  sstore\n  pop\n    /* \"lib/openzeppelin-contracts/contracts/access/Ownable.sol\":3083:3091  newOwner */\n  dup2\n    /* \"lib/openzeppelin-contracts/contracts/access/Ownable.sol\":3052:3092  OwnershipTransferred(oldOwner, newOwner) */\n  0xffffffffffffffffffffffffffffffffffffffff\n  and\n    /* \"lib/openzeppelin-contracts/contracts/access/Ownable.sol\":3073:3081  oldOwner */\n  dup2\n    /* \"lib/openzeppelin-contracts/contracts/access/Ownable.sol\":3052:3092  OwnershipTransferred(oldOwner, newOwner) */\n  0xffffffffffffffffffffffffffffffffffffffff\n  and\n  0x8be0079c531659141344cd1fd0a4f28419497f9722a3daafe3b4186f6b6457e0\n  mload(0x40)\n  mload(0x40)\n  dup1\n  swap2\n  sub\n  swap1\n  log3\n    /* \"lib/openzeppelin-contracts/contracts/access/Ownable.sol\":2975:3099  {... */\n  pop\n    /* \"lib/openzeppelin-contracts/contracts/access/Ownable.sol\":2912:3099  function _transferOwnership(address newOwner) internal virtual {... */\n  pop\n  jump\t// out\n    /* \"#utility.yul\":7:133   */\ntag_19:\n    /* \"#utility.yul\":44:51   */\n  0x00\n    /* \"#utility.yul\":84:126   */\n  0xffffffffffffffffffffffffffffffffffffffff\n    /* \"#utility.yul\":77:82   */\n  dup3\n    /* \"#utility.yul\":73:127   */\n  and\n    /* \"#utility.yul\":62:127   */\n  swap1\n  pop\n    /* \"#utility.yul\":7:133   */\n  swap2\n  swap1\n  pop\n  jump\t// out\n    /* \"#utility.yul\":139:235   */\ntag_20:\n    /* \"#utility.yul\":176:183   */\n  0x00\n    /* \"#utility.yul\":205:229   */\n  tag_25\n    /* \"#utility.yul\":223:228   */\n  dup3\n    /* \"#utility.yul\":205:229   */\n  tag_19\n  jump\t// in\ntag_25:\n    /* \"#utility.yul\":194:229   */\n  swap1\n  pop\n    /* \"#utility.yul\":139:235   */\n  swap2\n  swap1\n  pop\n  jump\t// out\n    /* \"#utility.yul\":241:359   */\ntag_21:\n    /* \"#utility.yul\":328:352   */\n  tag_27\n    /* \"#utility.yul\":346:351   */\n  dup2\n    /* \"#utility.yul\":328:352   */\n  tag_20\n  jump\t// in\ntag_27:\n    /* \"#utility.yul\":323:326   */\n  dup3\n    /* \"#utility.yul\":316:353   */\n  mstore\n    /* \"#utility.yul\":241:359   */\n  pop\n  pop\n  jump\t// out\n    /* \"#utility.yul\":365:587   */\ntag_12:\n    /* \"#utility.yul\":458:462   */\n  0x00\n    /* \"#utility.yul\":496:498   */\n  0x20\n    /* \"#utility.yul\":485:494   */\n  dup3\n    /* \"#utility.yul\":481:499   */\n  add\n    /* \"#utility.yul\":473:499   */\n  swap1\n  pop\n    /* \"#utility.yul\":509:580   */\n  tag_29\n    /* \"#utility.yul\":577:578   */\n  0x00\n    /* \"#utility.yul\":566:575   */\n  dup4\n    /* \"#utility.yul\":562:579   */\n  add\n    /* \"#utility.yul\":553:559   */\n  dup5\n    /* \"#utility.yul\":509:580   */\n  tag_21\n  jump\t// in\ntag_29:\n    /* \"#utility.yul\":365:587   */\n  swap3\n  swap2\n  pop\n  pop\n  jump\t// out\n    /* \"src/contracts/MiniLend.sol\":440:21055  contract MiniLend is ReentrancyGuard, Ownable(msg.sender) {... */\ntag_15:\n  dataSize(sub_0)\n  dup1\n  dataOffset(sub_0)\n  0x00\n  codecopy\n  0x00\n  return\nstop\n\nsub_0: assembly {\n        /* \"src/contracts/MiniLend.sol\":440:21055  contract MiniLend is ReentrancyGuard, Ownable(msg.sender) {... */\n      mstore(0x40, 0x80)\n      jumpi(tag_1, lt(calldatasize, 0x04))\n      shr(0xe0, calldataload(0x00))\n      dup1\n      0x80b2edd8\n      gt\n      tag_29\n      jumpi\n      dup1\n      0xa734f06e\n      gt\n      tag_30\n      jumpi\n      dup1\n      0xbcbaf487\n      gt\n      tag_31\n      jumpi\n      dup1\n      0xbcbaf487\n      eq\n      tag_25\n      jumpi\n      dup1\n      0xc660d112\n      eq\n      tag_26\n      jumpi\n      dup1\n      0xe1bf0a4b\n      eq\n      tag_27\n      jumpi\n      dup1\n      0xf2fde38b\n      eq\n      tag_28\n      jumpi\n      jump(tag_2)\n    tag_31:\n      dup1\n      0xa734f06e\n      eq\n      tag_22\n      jumpi\n      dup1\n      0xa87430ba\n      eq\n      tag_23\n      jumpi\n      dup1\n      0xb8bc9cab\n      eq\n      tag_24\n      jumpi\n      jump(tag_2)\n    tag_30:\n      dup1\n      0x80b2edd8\n      eq\n      tag_16\n      jumpi\n      dup1\n      0x88d595db\n      eq\n      tag_17\n      jumpi\n      dup1\n      0x8da5cb5b\n      eq\n      tag_18\n      jumpi\n      dup1\n      0x9776f4a5\n      eq\n      tag_19\n      jumpi\n      dup1\n      0x9d93d352\n      eq\n      tag_20\n      jumpi\n      dup1\n      0x9dcb511a\n      eq\n      tag_21\n      jumpi\n      jump(tag_2)\n    tag_29:\n      dup1\n      0x427f91a6\n      gt\n      tag_32\n      jumpi\n      dup1\n      0x6d1ea3fa\n      gt\n      tag_33\n      jumpi\n      dup1\n      0x6d1ea3fa\n      eq\n      tag_12\n      jumpi\n      dup1\n      0x6f77926b\n      eq\n      tag_13\n      jumpi\n      dup1\n      0x715018a6\n      eq\n      tag_14\n      jumpi\n      dup1\n      0x7a5f0dc4\n      eq\n      tag_15\n      jumpi\n      jump(tag_2)\n    tag_33:\n      dup1\n      0x427f91a6\n      eq\n      tag_9\n      jumpi\n      dup1\n      0x4bb55d5c\n      eq\n      tag_10\n      jumpi\n      dup1\n      0x4de57d75\n      eq\n      tag_11\n      jumpi\n      jump(tag_2)\n    tag_32:\n      dup1\n      0x0f07645a\n      eq\n      tag_3\n      jumpi\n      dup1\n      0x15c92678\n      eq\n      tag_4\n      jumpi\n      dup1\n      0x16345f18\n      eq\n      tag_5\n      jumpi\n      dup1\n      0x28842d4f\n      eq\n      tag_6\n      jumpi\n      dup1\n      0x3e4e1c27\n      eq\n      tag_7\n      jumpi\n      dup1\n      0x40b1eb10\n      eq\n      tag_8\n      jumpi\n      jump(tag_2)\n    tag_1:\n    tag_2:\n      stop\n        /* \"src/contracts/MiniLend.sol\":9745:10527  function borrowAsset(... */\n    tag_3:\n      callvalue\n      dup1\n      iszero\n      tag_38\n      jumpi\n      revert(0x00, 0x00)\n    tag_38:\n      pop\n      tag_39\n      0x04\n      dup1\n      calldatasize\n      sub\n      dup2\n      add\n      swap1\n      tag_40\n      swap2\n      swap1\n      tag_41\n      jump\t// in\n    tag_40:\n      tag_42\n      jump\t// in\n    tag_39:\n      stop\n        /* \"src/contracts/MiniLend.sol\":5214:5922  function revokeTokenApproval(... */\n    tag_4:\n      callvalue\n      dup1\n      iszero\n      tag_43\n      jumpi\n      revert(0x00, 0x00)\n    tag_43:\n      pop\n      tag_44\n      0x04\n      dup1\n      calldatasize\n      sub\n      dup2\n      add\n      swap1\n      tag_45\n      swap2\n      swap1\n      tag_46\n      jump\t// in\n    tag_45:\n      tag_47\n      jump\t// in\n    tag_44:\n      stop\n        /* \"src/contracts/MiniLend.sol\":6184:7289  function getLatestPrice(... */\n    tag_5:\n      callvalue\n      dup1\n      iszero\n      tag_48\n      jumpi\n      revert(0x00, 0x00)\n    tag_48:\n      pop\n      tag_49\n      0x04\n      dup1\n      calldatasize\n      sub\n      dup2\n      add\n      swap1\n      tag_50\n      swap2\n      swap1\n      tag_46\n      jump\t// in\n    tag_50:\n      tag_51\n      jump\t// in\n    tag_49:\n      mload(0x40)\n      tag_52\n      swap2\n      swap1\n      tag_53\n      jump\t// in\n    tag_52:\n      mload(0x40)\n      dup1\n      swap2\n      sub\n      swap1\n      return\n        /* \"src/contracts/MiniLend.sol\":4621:4861  function setLiquidationBonus(... */\n    tag_6:\n      callvalue\n      dup1\n      iszero\n      tag_54\n      jumpi\n      revert(0x00, 0x00)\n    tag_54:\n      pop\n      tag_55\n      0x04\n      dup1\n      calldatasize\n      sub\n      dup2\n      add\n      swap1\n      tag_56\n      swap2\n      swap1\n      tag_57\n      jump\t// in\n    tag_56:\n      tag_58\n      jump\t// in\n    tag_55:\n      stop\n        /* \"src/contracts/MiniLend.sol\":8063:8268  function getContractsTokenBalance(... */\n    tag_7:\n      callvalue\n      dup1\n      iszero\n      tag_59\n      jumpi\n      revert(0x00, 0x00)\n    tag_59:\n      pop\n      tag_60\n      0x04\n      dup1\n      calldatasize\n      sub\n      dup2\n      add\n      swap1\n      tag_61\n      swap2\n      swap1\n      tag_46\n      jump\t// in\n    tag_61:\n      tag_62\n      jump\t// in\n    tag_60:\n      mload(0x40)\n      tag_63\n      swap2\n      swap1\n      tag_53\n      jump\t// in\n    tag_63:\n      mload(0x40)\n      dup1\n      swap2\n      sub\n      swap1\n      return\n        /* \"src/contracts/MiniLend.sol\":4153:4368  function setFeed(... */\n    tag_8:\n      callvalue\n      dup1\n      iszero\n      tag_64\n      jumpi\n      revert(0x00, 0x00)\n    tag_64:\n      pop\n      tag_65\n      0x04\n      dup1\n      calldatasize\n      sub\n      dup2\n      add\n      swap1\n      tag_66\n      swap2\n      swap1\n      tag_67\n      jump\t// in\n    tag_66:\n      tag_68\n      jump\t// in\n    tag_65:\n      stop\n        /* \"src/contracts/MiniLend.sol\":2839:2884  mapping(address => uint256) public tokenIndex */\n    tag_9:\n      callvalue\n      dup1\n      iszero\n      tag_69\n      jumpi\n      revert(0x00, 0x00)\n    tag_69:\n      pop\n      tag_70\n      0x04\n      dup1\n      calldatasize\n      sub\n      dup2\n      add\n      swap1\n      tag_71\n      swap2\n      swap1\n      tag_46\n      jump\t// in\n    tag_71:\n      tag_72\n      jump\t// in\n    tag_70:\n      mload(0x40)\n      tag_73\n      swap2\n      swap1\n      tag_53\n      jump\t// in\n    tag_73:\n      mload(0x40)\n      dup1\n      swap2\n      sub\n      swap1\n      return\n        /* \"src/contracts/MiniLend.sol\":9159:9273  function getApprovedTokensCount() external view returns (uint256) {... */\n    tag_10:\n      callvalue\n      dup1\n      iszero\n      tag_74\n      jumpi\n      revert(0x00, 0x00)\n    tag_74:\n      pop\n      tag_75\n      tag_76\n      jump\t// in\n    tag_75:\n      mload(0x40)\n      tag_77\n      swap2\n      swap1\n      tag_53\n      jump\t// in\n    tag_77:\n      mload(0x40)\n      dup1\n      swap2\n      sub\n      swap1\n      return\n        /* \"src/contracts/MiniLend.sol\":8887:8997  function getContractEthBalance() external view returns (uint256) {... */\n    tag_11:\n      callvalue\n      dup1\n      iszero\n      tag_78\n      jumpi\n      revert(0x00, 0x00)\n    tag_78:\n      pop\n      tag_79\n      tag_80\n      jump\t// in\n    tag_79:\n      mload(0x40)\n      tag_81\n      swap2\n      swap1\n      tag_53\n      jump\t// in\n    tag_81:\n      mload(0x40)\n      dup1\n      swap2\n      sub\n      swap1\n      return\n        /* \"src/contracts/MiniLend.sol\":2787:2833  mapping(address => bool) public approvedTokens */\n    tag_12:\n      callvalue\n      dup1\n      iszero\n      tag_82\n      jumpi\n      revert(0x00, 0x00)\n    tag_82:\n      pop\n      tag_83\n      0x04\n      dup1\n      calldatasize\n      sub\n      dup2\n      add\n      swap1\n      tag_84\n      swap2\n      swap1\n      tag_46\n      jump\t// in\n    tag_84:\n      tag_85\n      jump\t// in\n    tag_83:\n      mload(0x40)\n      tag_86\n      swap2\n      swap1\n      tag_87\n      jump\t// in\n    tag_86:\n      mload(0x40)\n      dup1\n      swap2\n      sub\n      swap1\n      return\n        /* \"src/contracts/MiniLend.sol\":8441:8881  function getUser(... */\n    tag_13:\n      callvalue\n      dup1\n      iszero\n      tag_88\n      jumpi\n      revert(0x00, 0x00)\n    tag_88:\n      pop\n      tag_89\n      0x04\n      dup1\n      calldatasize\n      sub\n      dup2\n      add\n      swap1\n      tag_90\n      swap2\n      swap1\n      tag_46\n      jump\t// in\n    tag_90:\n      tag_91\n      jump\t// in\n    tag_89:\n      mload(0x40)\n      tag_92\n      swap5\n      swap4\n      swap3\n      swap2\n      swap1\n      tag_93\n      jump\t// in\n    tag_92:\n      mload(0x40)\n      dup1\n      swap2\n      sub\n      swap1\n      return\n        /* \"lib/openzeppelin-contracts/contracts/access/Ownable.sol\":2293:2394  function renounceOwnership() public virtual onlyOwner {... */\n    tag_14:\n      callvalue\n      dup1\n      iszero\n      tag_94\n      jumpi\n      revert(0x00, 0x00)\n    tag_94:\n      pop\n      tag_95\n      tag_96\n      jump\t// in\n    tag_95:\n      stop\n        /* \"src/contracts/MiniLend.sol\":9366:9641  function stakeEth() public payable {... */\n    tag_15:\n      tag_97\n      tag_98\n      jump\t// in\n    tag_97:\n      stop\n        /* \"src/contracts/MiniLend.sol\":4867:5208  function approveToken(... */\n    tag_16:\n      callvalue\n      dup1\n      iszero\n      tag_99\n      jumpi\n      revert(0x00, 0x00)\n    tag_99:\n      pop\n      tag_100\n      0x04\n      dup1\n      calldatasize\n      sub\n      dup2\n      add\n      swap1\n      tag_101\n      swap2\n      swap1\n      tag_46\n      jump\t// in\n    tag_101:\n      tag_102\n      jump\t// in\n    tag_100:\n      stop\n        /* \"src/contracts/MiniLend.sol\":4374:4615  function setltv(uint256 _ltv) external onlyOwner nonZeroAmount(_ltv) {... */\n    tag_17:\n      callvalue\n      dup1\n      iszero\n      tag_103\n      jumpi\n      revert(0x00, 0x00)\n    tag_103:\n      pop\n      tag_104\n      0x04\n      dup1\n      calldatasize\n      sub\n      dup2\n      add\n      swap1\n      tag_105\n      swap2\n      swap1\n      tag_57\n      jump\t// in\n    tag_105:\n      tag_106\n      jump\t// in\n    tag_104:\n      stop\n        /* \"lib/openzeppelin-contracts/contracts/access/Ownable.sol\":1638:1723  function owner() public view virtual returns (address) {... */\n    tag_18:\n      callvalue\n      dup1\n      iszero\n      tag_107\n      jumpi\n      revert(0x00, 0x00)\n    tag_107:\n      pop\n      tag_108\n      tag_109\n      jump\t// in\n    tag_108:\n      mload(0x40)\n      tag_110\n      swap2\n      swap1\n      tag_111\n      jump\t// in\n    tag_110:\n      mload(0x40)\n      dup1\n      swap2\n      sub\n      swap1\n      return\n        /* \"src/contracts/MiniLend.sol\":2920:2954  address[] public approvedTokenList */\n    tag_19:\n      callvalue\n      dup1\n      iszero\n      tag_112\n      jumpi\n      revert(0x00, 0x00)\n    tag_112:\n      pop\n      tag_113\n      0x04\n      dup1\n      calldatasize\n      sub\n      dup2\n      add\n      swap1\n      tag_114\n      swap2\n      swap1\n      tag_57\n      jump\t// in\n    tag_114:\n      tag_115\n      jump\t// in\n    tag_113:\n      mload(0x40)\n      tag_116\n      swap2\n      swap1\n      tag_111\n      jump\t// in\n    tag_116:\n      mload(0x40)\n      dup1\n      swap2\n      sub\n      swap1\n      return\n        /* \"src/contracts/MiniLend.sol\":9003:9153  function isTokenApproved(... */\n    tag_20:\n      callvalue\n      dup1\n      iszero\n      tag_117\n      jumpi\n      revert(0x00, 0x00)\n    tag_117:\n      pop\n      tag_118\n      0x04\n      dup1\n      calldatasize\n      sub\n      dup2\n      add\n      swap1\n      tag_119\n      swap2\n      swap1\n      tag_46\n      jump\t// in\n    tag_119:\n      tag_120\n      jump\t// in\n    tag_118:\n      mload(0x40)\n      tag_121\n      swap2\n      swap1\n      tag_87\n      jump\t// in\n    tag_121:\n      mload(0x40)\n      dup1\n      swap2\n      sub\n      swap1\n      return\n        /* \"src/contracts/MiniLend.sol\":2689:2734  mapping(address => address) public priceFeeds */\n    tag_21:\n      callvalue\n      dup1\n      iszero\n      tag_122\n      jumpi\n      revert(0x00, 0x00)\n    tag_122:\n      pop\n      tag_123\n      0x04\n      dup1\n      calldatasize\n      sub\n      dup2\n      add\n      swap1\n      tag_124\n      swap2\n      swap1\n      tag_46\n      jump\t// in\n    tag_124:\n      tag_125\n      jump\t// in\n    tag_123:\n      mload(0x40)\n      tag_126\n      swap2\n      swap1\n      tag_111\n      jump\t// in\n    tag_126:\n      mload(0x40)\n      dup1\n      swap2\n      sub\n      swap1\n      return\n        /* \"src/contracts/MiniLend.sol\":3314:3402  address public constant ETH_ADDRESS =... */\n    tag_22:\n      callvalue\n      dup1\n      iszero\n      tag_127\n      jumpi\n      revert(0x00, 0x00)\n    tag_127:\n      pop\n      tag_128\n      tag_129\n      jump\t// in\n    tag_128:\n      mload(0x40)\n      tag_130\n      swap2\n      swap1\n      tag_111\n      jump\t// in\n    tag_130:\n      mload(0x40)\n      dup1\n      swap2\n      sub\n      swap1\n      return\n        /* \"src/contracts/MiniLend.sol\":2646:2683  mapping(address => User) public users */\n    tag_23:\n      callvalue\n      dup1\n      iszero\n      tag_131\n      jumpi\n      revert(0x00, 0x00)\n    tag_131:\n      pop\n      tag_132\n      0x04\n      dup1\n      calldatasize\n      sub\n      dup2\n      add\n      swap1\n      tag_133\n      swap2\n      swap1\n      tag_46\n      jump\t// in\n    tag_133:\n      tag_134\n      jump\t// in\n    tag_132:\n      mload(0x40)\n      tag_135\n      swap5\n      swap4\n      swap3\n      swap2\n      swap1\n      tag_93\n      jump\t// in\n    tag_135:\n      mload(0x40)\n      dup1\n      swap2\n      sub\n      swap1\n      return\n        /* \"src/contracts/MiniLend.sol\":10602:11611  function repayAsset(... */\n    tag_24:\n      callvalue\n      dup1\n      iszero\n      tag_136\n      jumpi\n      revert(0x00, 0x00)\n    tag_136:\n      pop\n      tag_137\n      0x04\n      dup1\n      calldatasize\n      sub\n      dup2\n      add\n      swap1\n      tag_138\n      swap2\n      swap1\n      tag_41\n      jump\t// in\n    tag_138:\n      tag_139\n      jump\t// in\n    tag_137:\n      stop\n        /* \"src/contracts/MiniLend.sol\":13073:17999  function liquidate(... */\n    tag_25:\n      callvalue\n      dup1\n      iszero\n      tag_140\n      jumpi\n      revert(0x00, 0x00)\n    tag_140:\n      pop\n      tag_141\n      0x04\n      dup1\n      calldatasize\n      sub\n      dup2\n      add\n      swap1\n      tag_142\n      swap2\n      swap1\n      tag_41\n      jump\t// in\n    tag_142:\n      tag_143\n      jump\t// in\n    tag_141:\n      stop\n        /* \"src/contracts/MiniLend.sol\":7295:8057  function getUsdValue(... */\n    tag_26:\n      callvalue\n      dup1\n      iszero\n      tag_144\n      jumpi\n      revert(0x00, 0x00)\n    tag_144:\n      pop\n      tag_145\n      0x04\n      dup1\n      calldatasize\n      sub\n      dup2\n      add\n      swap1\n      tag_146\n      swap2\n      swap1\n      tag_41\n      jump\t// in\n    tag_146:\n      tag_147\n      jump\t// in\n    tag_145:\n      mload(0x40)\n      tag_148\n      swap2\n      swap1\n      tag_53\n      jump\t// in\n    tag_148:\n      mload(0x40)\n      dup1\n      swap2\n      sub\n      swap1\n      return\n        /* \"src/contracts/MiniLend.sol\":11692:12571  function withdrawCollateralEth(... */\n    tag_27:\n      callvalue\n      dup1\n      iszero\n      tag_149\n      jumpi\n      revert(0x00, 0x00)\n    tag_149:\n      pop\n      tag_150\n      0x04\n      dup1\n      calldatasize\n      sub\n      dup2\n      add\n      swap1\n      tag_151\n      swap2\n      swap1\n      tag_57\n      jump\t// in\n    tag_151:\n      tag_152\n      jump\t// in\n    tag_150:\n      stop\n        /* \"lib/openzeppelin-contracts/contracts/access/Ownable.sol\":2543:2758  function transferOwnership(address newOwner) public virtual onlyOwner {... */\n    tag_28:\n      callvalue\n      dup1\n      iszero\n      tag_153\n      jumpi\n      revert(0x00, 0x00)\n    tag_153:\n      pop\n      tag_154\n      0x04\n      dup1\n      calldatasize\n      sub\n      dup2\n      add\n      swap1\n      tag_155\n      swap2\n      swap1\n      tag_46\n      jump\t// in\n    tag_155:\n      tag_156\n      jump\t// in\n    tag_154:\n      stop\n        /* \"src/contracts/MiniLend.sol\":9745:10527  function borrowAsset(... */\n    tag_42:\n        /* \"lib/openzeppelin-contracts/contracts/utils/ReentrancyGuard.sol\":3023:3044  _nonReentrantBefore() */\n      tag_158\n        /* \"lib/openzeppelin-contracts/contracts/utils/ReentrancyGuard.sol\":3023:3042  _nonReentrantBefore */\n      tag_159\n        /* \"lib/openzeppelin-contracts/contracts/utils/ReentrancyGuard.sol\":3023:3044  _nonReentrantBefore() */\n      jump\t// in\n    tag_158:\n        /* \"src/contracts/MiniLend.sol\":9880:9885  token */\n      dup2\n        /* \"src/contracts/MiniLend.sol\":3683:3684  0 */\n      0x00\n        /* \"src/contracts/MiniLend.sol\":3667:3685  addr == address(0) */\n      0xffffffffffffffffffffffffffffffffffffffff\n      and\n        /* \"src/contracts/MiniLend.sol\":3667:3671  addr */\n      dup2\n        /* \"src/contracts/MiniLend.sol\":3667:3685  addr == address(0) */\n      0xffffffffffffffffffffffffffffffffffffffff\n      and\n      sub\n        /* \"src/contracts/MiniLend.sol\":3663:3714  if (addr == address(0)) revert InvalidAddress(addr) */\n      tag_161\n      jumpi\n        /* \"src/contracts/MiniLend.sol\":3709:3713  addr */\n      dup1\n        /* \"src/contracts/MiniLend.sol\":3694:3714  InvalidAddress(addr) */\n      mload(0x40)\n      0x8e4c8aa600000000000000000000000000000000000000000000000000000000\n      dup2\n      mstore\n      0x04\n      add\n      tag_162\n      swap2\n      swap1\n      tag_111\n      jump\t// in\n    tag_162:\n      mload(0x40)\n      dup1\n      swap2\n      sub\n      swap1\n      revert\n        /* \"src/contracts/MiniLend.sol\":3663:3714  if (addr == address(0)) revert InvalidAddress(addr) */\n    tag_161:\n        /* \"src/contracts/MiniLend.sol\":9909:9915  amount */\n      dup2\n        /* \"src/contracts/MiniLend.sol\":3801:3802  0 */\n      0x00\n        /* \"src/contracts/MiniLend.sol\":3791:3797  amount */\n      dup2\n        /* \"src/contracts/MiniLend.sol\":3791:3802  amount == 0 */\n      sub\n        /* \"src/contracts/MiniLend.sol\":3787:3826  if (amount == 0) revert InvalidAmount() */\n      tag_164\n      jumpi\n        /* \"src/contracts/MiniLend.sol\":3811:3826  InvalidAmount() */\n      mload(0x40)\n      0x2c5211c600000000000000000000000000000000000000000000000000000000\n      dup2\n      mstore\n      0x04\n      add\n      mload(0x40)\n      dup1\n      swap2\n      sub\n      swap1\n      revert\n        /* \"src/contracts/MiniLend.sol\":3787:3826  if (amount == 0) revert InvalidAmount() */\n    tag_164:\n        /* \"src/contracts/MiniLend.sol\":9943:9948  token */\n      dup4\n        /* \"src/contracts/MiniLend.sol\":3538:3552  approvedTokens */\n      0x03\n        /* \"src/contracts/MiniLend.sol\":3538:3559  approvedTokens[token] */\n      0x00\n        /* \"src/contracts/MiniLend.sol\":3553:3558  token */\n      dup3\n        /* \"src/contracts/MiniLend.sol\":3538:3559  approvedTokens[token] */\n      0xffffffffffffffffffffffffffffffffffffffff\n      and\n      0xffffffffffffffffffffffffffffffffffffffff\n      and\n      dup2\n      mstore\n      0x20\n      add\n      swap1\n      dup2\n      mstore\n      0x20\n      add\n      0x00\n      keccak256\n      0x00\n      swap1\n      sload\n      swap1\n      0x0100\n      exp\n      swap1\n      div\n      0xff\n      and\n        /* \"src/contracts/MiniLend.sol\":3533:3591  if (!approvedTokens[token]) revert TokenNotApproved(token) */\n      tag_166\n      jumpi\n        /* \"src/contracts/MiniLend.sol\":3585:3590  token */\n      dup1\n        /* \"src/contracts/MiniLend.sol\":3568:3591  TokenNotApproved(token) */\n      mload(0x40)\n      0x87921f5a00000000000000000000000000000000000000000000000000000000\n      dup2\n      mstore\n      0x04\n      add\n      tag_167\n      swap2\n      swap1\n      tag_111\n      jump\t// in\n    tag_167:\n      mload(0x40)\n      dup1\n      swap2\n      sub\n      swap1\n      revert\n        /* \"src/contracts/MiniLend.sol\":3533:3591  if (!approvedTokens[token]) revert TokenNotApproved(token) */\n    tag_166:\n        /* \"src/contracts/MiniLend.sol\":9964:9981  User storage user */\n      0x00\n        /* \"src/contracts/MiniLend.sol\":9984:10001  _user(msg.sender) */\n      tag_169\n        /* \"src/contracts/MiniLend.sol\":9990:10000  msg.sender */\n      caller\n        /* \"src/contracts/MiniLend.sol\":9984:9989  _user */\n      tag_170\n        /* \"src/contracts/MiniLend.sol\":9984:10001  _user(msg.sender) */\n      jump\t// in\n    tag_169:\n        /* \"src/contracts/MiniLend.sol\":9964:10001  User storage user = _user(msg.sender) */\n      swap1\n      pop\n        /* \"src/contracts/MiniLend.sol\":10017:10043  _hasCollateral(msg.sender) */\n      tag_171\n        /* \"src/contracts/MiniLend.sol\":10032:10042  msg.sender */\n      caller\n        /* \"src/contracts/MiniLend.sol\":10017:10031  _hasCollateral */\n      tag_172\n        /* \"src/contracts/MiniLend.sol\":10017:10043  _hasCollateral(msg.sender) */\n      jump\t// in\n    tag_171:\n        /* \"src/contracts/MiniLend.sol\":10012:10074  if (!_hasCollateral(msg.sender)) revert NoCollateralProvided() */\n      tag_173\n      jumpi\n        /* \"src/contracts/MiniLend.sol\":10052:10074  NoCollateralProvided() */\n      mload(0x40)\n      0xb016be5e00000000000000000000000000000000000000000000000000000000\n      dup2\n      mstore\n      0x04\n      add\n      mload(0x40)\n      dup1\n      swap2\n      sub\n      swap1\n      revert\n        /* \"src/contracts/MiniLend.sol\":10012:10074  if (!_hasCollateral(msg.sender)) revert NoCollateralProvided() */\n    tag_173:\n        /* \"src/contracts/MiniLend.sol\":10156:10173  uint256 available */\n      0x00\n        /* \"src/contracts/MiniLend.sol\":10176:10212  _borrowableAmount(msg.sender, token) */\n      tag_174\n        /* \"src/contracts/MiniLend.sol\":10194:10204  msg.sender */\n      caller\n        /* \"src/contracts/MiniLend.sol\":10206:10211  token */\n      dup9\n        /* \"src/contracts/MiniLend.sol\":10176:10193  _borrowableAmount */\n      tag_175\n        /* \"src/contracts/MiniLend.sol\":10176:10212  _borrowableAmount(msg.sender, token) */\n      jump\t// in\n    tag_174:\n        /* \"src/contracts/MiniLend.sol\":10156:10212  uint256 available = _borrowableAmount(msg.sender, token) */\n      swap1\n      pop\n        /* \"src/contracts/MiniLend.sol\":10235:10244  available */\n      dup1\n        /* \"src/contracts/MiniLend.sol\":10226:10232  amount */\n      dup7\n        /* \"src/contracts/MiniLend.sol\":10226:10244  amount > available */\n      gt\n        /* \"src/contracts/MiniLend.sol\":10222:10291  if (amount > available) revert BorrowLimitExceeded(amount, available) */\n      iszero\n      tag_176\n      jumpi\n        /* \"src/contracts/MiniLend.sol\":10273:10279  amount */\n      dup6\n        /* \"src/contracts/MiniLend.sol\":10281:10290  available */\n      dup2\n        /* \"src/contracts/MiniLend.sol\":10253:10291  BorrowLimitExceeded(amount, available) */\n      mload(0x40)\n      0xd771d8e900000000000000000000000000000000000000000000000000000000\n      dup2\n      mstore\n      0x04\n      add\n      tag_177\n      swap3\n      swap2\n      swap1\n      tag_178\n      jump\t// in\n    tag_177:\n      mload(0x40)\n      dup1\n      swap2\n      sub\n      swap1\n      revert\n        /* \"src/contracts/MiniLend.sol\":10222:10291  if (amount > available) revert BorrowLimitExceeded(amount, available) */\n    tag_176:\n        /* \"src/contracts/MiniLend.sol\":10354:10360  amount */\n      dup6\n        /* \"src/contracts/MiniLend.sol\":10326:10330  user */\n      dup3\n        /* \"src/contracts/MiniLend.sol\":10326:10350  user.borrowedAssetAmount */\n      0x03\n      add\n      0x00\n        /* \"src/contracts/MiniLend.sol\":10326:10360  user.borrowedAssetAmount += amount */\n      dup3\n      dup3\n      sload\n      tag_179\n      swap2\n      swap1\n      tag_180\n      jump\t// in\n    tag_179:\n      swap3\n      pop\n      pop\n      dup2\n      swap1\n      sstore\n      pop\n        /* \"src/contracts/MiniLend.sol\":10391:10396  token */\n      dup7\n        /* \"src/contracts/MiniLend.sol\":10370:10374  user */\n      dup3\n        /* \"src/contracts/MiniLend.sol\":10370:10388  user.borrowedAsset */\n      0x02\n      add\n      0x00\n        /* \"src/contracts/MiniLend.sol\":10370:10396  user.borrowedAsset = token */\n      0x0100\n      exp\n      dup2\n      sload\n      dup2\n      0xffffffffffffffffffffffffffffffffffffffff\n      mul\n      not\n      and\n      swap1\n      dup4\n      0xffffffffffffffffffffffffffffffffffffffff\n      and\n      mul\n      or\n      swap1\n      sstore\n      pop\n        /* \"src/contracts/MiniLend.sol\":10433:10473  _poolTransfer(token, msg.sender, amount) */\n      tag_181\n        /* \"src/contracts/MiniLend.sol\":10447:10452  token */\n      dup8\n        /* \"src/contracts/MiniLend.sol\":10454:10464  msg.sender */\n      caller\n        /* \"src/contracts/MiniLend.sol\":10466:10472  amount */\n      dup9\n        /* \"src/contracts/MiniLend.sol\":10433:10446  _poolTransfer */\n      tag_182\n        /* \"src/contracts/MiniLend.sol\":10433:10473  _poolTransfer(token, msg.sender, amount) */\n      jump\t// in\n    tag_181:\n        /* \"src/contracts/MiniLend.sol\":10501:10511  msg.sender */\n      caller\n        /* \"src/contracts/MiniLend.sol\":10489:10520  USDBorrowed(msg.sender, amount) */\n      0xffffffffffffffffffffffffffffffffffffffff\n      and\n      0x5abc9a9c4616711eb03d720e050325118645a3695a5e75b5b10a29e2e217fe03\n        /* \"src/contracts/MiniLend.sol\":10513:10519  amount */\n      dup8\n        /* \"src/contracts/MiniLend.sol\":10489:10520  USDBorrowed(msg.sender, amount) */\n      mload(0x40)\n      tag_183\n      swap2\n      swap1\n      tag_53\n      jump\t// in\n    tag_183:\n      mload(0x40)\n      dup1\n      swap2\n      sub\n      swap1\n      log2\n        /* \"src/contracts/MiniLend.sol\":9954:10527  {... */\n      pop\n      pop\n        /* \"src/contracts/MiniLend.sol\":3836:3837  _ */\n      pop\n        /* \"src/contracts/MiniLend.sol\":3724:3725  _ */\n      pop\n        /* \"lib/openzeppelin-contracts/contracts/utils/ReentrancyGuard.sol\":3054:3055  _ */\n      pop\n        /* \"lib/openzeppelin-contracts/contracts/utils/ReentrancyGuard.sol\":3065:3085  _nonReentrantAfter() */\n      tag_184\n        /* \"lib/openzeppelin-contracts/contracts/utils/ReentrancyGuard.sol\":3065:3083  _nonReentrantAfter */\n      tag_185\n        /* \"lib/openzeppelin-contracts/contracts/utils/ReentrancyGuard.sol\":3065:3085  _nonReentrantAfter() */\n      jump\t// in\n    tag_184:\n        /* \"src/contracts/MiniLend.sol\":9745:10527  function borrowAsset(... */\n      pop\n      pop\n      jump\t// out\n        /* \"src/contracts/MiniLend.sol\":5214:5922  function revokeTokenApproval(... */\n    tag_47:\n        /* \"lib/openzeppelin-contracts/contracts/access/Ownable.sol\":1531:1544  _checkOwner() */\n      tag_187\n        /* \"lib/openzeppelin-contracts/contracts/access/Ownable.sol\":1531:1542  _checkOwner */\n      tag_188\n        /* \"lib/openzeppelin-contracts/contracts/access/Ownable.sol\":1531:1544  _checkOwner() */\n      jump\t// in\n    tag_187:\n        /* \"src/contracts/MiniLend.sol\":5306:5311  token */\n      dup1\n        /* \"src/contracts/MiniLend.sol\":3683:3684  0 */\n      0x00\n        /* \"src/contracts/MiniLend.sol\":3667:3685  addr == address(0) */\n      0xffffffffffffffffffffffffffffffffffffffff\n      and\n        /* \"src/contracts/MiniLend.sol\":3667:3671  addr */\n      dup2\n        /* \"src/contracts/MiniLend.sol\":3667:3685  addr == address(0) */\n      0xffffffffffffffffffffffffffffffffffffffff\n      and\n      sub\n        /* \"src/contracts/MiniLend.sol\":3663:3714  if (addr == address(0)) revert InvalidAddress(addr) */\n      tag_190\n      jumpi\n        /* \"src/contracts/MiniLend.sol\":3709:3713  addr */\n      dup1\n        /* \"src/contracts/MiniLend.sol\":3694:3714  InvalidAddress(addr) */\n      mload(0x40)\n      0x8e4c8aa600000000000000000000000000000000000000000000000000000000\n      dup2\n      mstore\n      0x04\n      add\n      tag_191\n      swap2\n      swap1\n      tag_111\n      jump\t// in\n    tag_191:\n      mload(0x40)\n      dup1\n      swap2\n      sub\n      swap1\n      revert\n        /* \"src/contracts/MiniLend.sol\":3663:3714  if (addr == address(0)) revert InvalidAddress(addr) */\n    tag_190:\n        /* \"src/contracts/MiniLend.sol\":5328:5342  approvedTokens */\n      0x03\n        /* \"src/contracts/MiniLend.sol\":5328:5349  approvedTokens[token] */\n      0x00\n        /* \"src/contracts/MiniLend.sol\":5343:5348  token */\n      dup4\n        /* \"src/contracts/MiniLend.sol\":5328:5349  approvedTokens[token] */\n      0xffffffffffffffffffffffffffffffffffffffff\n      and\n      0xffffffffffffffffffffffffffffffffffffffff\n      and\n      dup2\n      mstore\n      0x20\n      add\n      swap1\n      dup2\n      mstore\n      0x20\n      add\n      0x00\n      keccak256\n      0x00\n      swap1\n      sload\n      swap1\n      0x0100\n      exp\n      swap1\n      div\n      0xff\n      and\n        /* \"src/contracts/MiniLend.sol\":5323:5381  if (!approvedTokens[token]) revert TokenNotApproved(token) */\n      tag_193\n      jumpi\n        /* \"src/contracts/MiniLend.sol\":5375:5380  token */\n      dup2\n        /* \"src/contracts/MiniLend.sol\":5358:5381  TokenNotApproved(token) */\n      mload(0x40)\n      0x87921f5a00000000000000000000000000000000000000000000000000000000\n      dup2\n      mstore\n      0x04\n      add\n      tag_194\n      swap2\n      swap1\n      tag_111\n      jump\t// in\n    tag_194:\n      mload(0x40)\n      dup1\n      swap2\n      sub\n      swap1\n      revert\n        /* \"src/contracts/MiniLend.sol\":5323:5381  if (!approvedTokens[token]) revert TokenNotApproved(token) */\n    tag_193:\n        /* \"src/contracts/MiniLend.sol\":5416:5421  false */\n      0x00\n        /* \"src/contracts/MiniLend.sol\":5392:5406  approvedTokens */\n      0x03\n        /* \"src/contracts/MiniLend.sol\":5392:5413  approvedTokens[token] */\n      0x00\n        /* \"src/contracts/MiniLend.sol\":5407:5412  token */\n      dup5\n        /* \"src/contracts/MiniLend.sol\":5392:5413  approvedTokens[token] */\n      0xffffffffffffffffffffffffffffffffffffffff\n      and\n      0xffffffffffffffffffffffffffffffffffffffff\n      and\n      dup2\n      mstore\n      0x20\n      add\n      swap1\n      dup2\n      mstore\n      0x20\n      add\n      0x00\n      keccak256\n      0x00\n        /* \"src/contracts/MiniLend.sol\":5392:5421  approvedTokens[token] = false */\n      0x0100\n      exp\n      dup2\n      sload\n      dup2\n      0xff\n      mul\n      not\n      and\n      swap1\n      dup4\n      iszero\n      iszero\n      mul\n      or\n      swap1\n      sstore\n      pop\n        /* \"src/contracts/MiniLend.sol\":5473:5486  uint256 index */\n      0x00\n        /* \"src/contracts/MiniLend.sol\":5489:5499  tokenIndex */\n      0x04\n        /* \"src/contracts/MiniLend.sol\":5489:5506  tokenIndex[token] */\n      0x00\n        /* \"src/contracts/MiniLend.sol\":5500:5505  token */\n      dup5\n        /* \"src/contracts/MiniLend.sol\":5489:5506  tokenIndex[token] */\n      0xffffffffffffffffffffffffffffffffffffffff\n      and\n      0xffffffffffffffffffffffffffffffffffffffff\n      and\n      dup2\n      mstore\n      0x20\n      add\n      swap1\n      dup2\n      mstore\n      0x20\n      add\n      0x00\n      keccak256\n      sload\n        /* \"src/contracts/MiniLend.sol\":5473:5506  uint256 index = tokenIndex[token] */\n      swap1\n      pop\n        /* \"src/contracts/MiniLend.sol\":5516:5533  uint256 lastIndex */\n      0x00\n        /* \"src/contracts/MiniLend.sol\":5563:5564  1 */\n      0x01\n        /* \"src/contracts/MiniLend.sol\":5536:5553  approvedTokenList */\n      0x05\n        /* \"src/contracts/MiniLend.sol\":5536:5560  approvedTokenList.length */\n      dup1\n      sload\n      swap1\n      pop\n        /* \"src/contracts/MiniLend.sol\":5536:5564  approvedTokenList.length - 1 */\n      tag_195\n      swap2\n      swap1\n      tag_196\n      jump\t// in\n    tag_195:\n        /* \"src/contracts/MiniLend.sol\":5516:5564  uint256 lastIndex = approvedTokenList.length - 1 */\n      swap1\n      pop\n        /* \"src/contracts/MiniLend.sol\":5574:5591  address lastToken */\n      0x00\n        /* \"src/contracts/MiniLend.sol\":5594:5611  approvedTokenList */\n      0x05\n        /* \"src/contracts/MiniLend.sol\":5612:5621  lastIndex */\n      dup3\n        /* \"src/contracts/MiniLend.sol\":5594:5622  approvedTokenList[lastIndex] */\n      dup2\n      sload\n      dup2\n      lt\n      tag_197\n      jumpi\n      tag_198\n      tag_199\n      jump\t// in\n    tag_198:\n    tag_197:\n      swap1\n      0x00\n      mstore\n      keccak256(0x00, 0x20)\n      add\n      0x00\n      swap1\n      sload\n      swap1\n      0x0100\n      exp\n      swap1\n      div\n      0xffffffffffffffffffffffffffffffffffffffff\n      and\n        /* \"src/contracts/MiniLend.sol\":5574:5622  address lastToken = approvedTokenList[lastIndex] */\n      swap1\n      pop\n        /* \"src/contracts/MiniLend.sol\":5646:5655  lastIndex */\n      dup2\n        /* \"src/contracts/MiniLend.sol\":5637:5642  index */\n      dup4\n        /* \"src/contracts/MiniLend.sol\":5637:5655  index != lastIndex */\n      eq\n        /* \"src/contracts/MiniLend.sol\":5633:5814  if (index != lastIndex) {... */\n      tag_201\n      jumpi\n        /* \"src/contracts/MiniLend.sol\":5751:5760  lastToken */\n      dup1\n        /* \"src/contracts/MiniLend.sol\":5724:5741  approvedTokenList */\n      0x05\n        /* \"src/contracts/MiniLend.sol\":5742:5747  index */\n      dup5\n        /* \"src/contracts/MiniLend.sol\":5724:5748  approvedTokenList[index] */\n      dup2\n      sload\n      dup2\n      lt\n      tag_202\n      jumpi\n      tag_203\n      tag_199\n      jump\t// in\n    tag_203:\n    tag_202:\n      swap1\n      0x00\n      mstore\n      keccak256(0x00, 0x20)\n      add\n      0x00\n        /* \"src/contracts/MiniLend.sol\":5724:5760  approvedTokenList[index] = lastToken */\n      0x0100\n      exp\n      dup2\n      sload\n      dup2\n      0xffffffffffffffffffffffffffffffffffffffff\n      mul\n      not\n      and\n      swap1\n      dup4\n      0xffffffffffffffffffffffffffffffffffffffff\n      and\n      mul\n      or\n      swap1\n      sstore\n      pop\n        /* \"src/contracts/MiniLend.sol\":5798:5803  index */\n      dup3\n        /* \"src/contracts/MiniLend.sol\":5774:5784  tokenIndex */\n      0x04\n        /* \"src/contracts/MiniLend.sol\":5774:5795  tokenIndex[lastToken] */\n      0x00\n        /* \"src/contracts/MiniLend.sol\":5785:5794  lastToken */\n      dup4\n        /* \"src/contracts/MiniLend.sol\":5774:5795  tokenIndex[lastToken] */\n      0xffffffffffffffffffffffffffffffffffffffff\n      and\n      0xffffffffffffffffffffffffffffffffffffffff\n      and\n      dup2\n      mstore\n      0x20\n      add\n      swap1\n      dup2\n      mstore\n      0x20\n      add\n      0x00\n      keccak256\n        /* \"src/contracts/MiniLend.sol\":5774:5803  tokenIndex[lastToken] = index */\n      dup2\n      swap1\n      sstore\n      pop\n        /* \"src/contracts/MiniLend.sol\":5633:5814  if (index != lastIndex) {... */\n    tag_201:\n        /* \"src/contracts/MiniLend.sol\":5824:5841  approvedTokenList */\n      0x05\n        /* \"src/contracts/MiniLend.sol\":5824:5847  approvedTokenList.pop() */\n      dup1\n      sload\n      dup1\n      tag_205\n      jumpi\n      tag_206\n      tag_207\n      jump\t// in\n    tag_206:\n    tag_205:\n      0x01\n      swap1\n      sub\n      dup2\n      dup2\n      swap1\n      0x00\n      mstore\n      keccak256(0x00, 0x20)\n      add\n      exp(0x0100, 0x00)\n      dup2\n      sload\n      swap1\n      0xffffffffffffffffffffffffffffffffffffffff\n      mul\n      not\n      and\n      swap1\n      sstore\n      swap1\n      sstore\n        /* \"src/contracts/MiniLend.sol\":5864:5874  tokenIndex */\n      0x04\n        /* \"src/contracts/MiniLend.sol\":5864:5881  tokenIndex[token] */\n      0x00\n        /* \"src/contracts/MiniLend.sol\":5875:5880  token */\n      dup7\n        /* \"src/contracts/MiniLend.sol\":5864:5881  tokenIndex[token] */\n      0xffffffffffffffffffffffffffffffffffffffff\n      and\n      0xffffffffffffffffffffffffffffffffffffffff\n      and\n      dup2\n      mstore\n      0x20\n      add\n      swap1\n      dup2\n      mstore\n      0x20\n      add\n      0x00\n      keccak256\n        /* \"src/contracts/MiniLend.sol\":5857:5881  delete tokenIndex[token] */\n      0x00\n      swap1\n      sstore\n        /* \"src/contracts/MiniLend.sol\":5909:5914  token */\n      dup5\n        /* \"src/contracts/MiniLend.sol\":5896:5915  TokenRevoked(token) */\n      0xffffffffffffffffffffffffffffffffffffffff\n      and\n      0x45f62f30e7b8439e0da7d8e560fe39d01238091ce9e789e3d12b514edf98acea\n      mload(0x40)\n      mload(0x40)\n      dup1\n      swap2\n      sub\n      swap1\n      log2\n        /* \"src/contracts/MiniLend.sol\":5313:5922  {... */\n      pop\n      pop\n      pop\n        /* \"lib/openzeppelin-contracts/contracts/access/Ownable.sol\":1554:1555  _ */\n      pop\n        /* \"src/contracts/MiniLend.sol\":5214:5922  function revokeTokenApproval(... */\n      pop\n      jump\t// out\n        /* \"src/contracts/MiniLend.sol\":6184:7289  function getLatestPrice(... */\n    tag_51:\n        /* \"src/contracts/MiniLend.sol\":6280:6287  uint256 */\n      0x00\n        /* \"src/contracts/MiniLend.sol\":6264:6269  token */\n      dup2\n        /* \"src/contracts/MiniLend.sol\":3683:3684  0 */\n      0x00\n        /* \"src/contracts/MiniLend.sol\":3667:3685  addr == address(0) */\n      0xffffffffffffffffffffffffffffffffffffffff\n      and\n        /* \"src/contracts/MiniLend.sol\":3667:3671  addr */\n      dup2\n        /* \"src/contracts/MiniLend.sol\":3667:3685  addr == address(0) */\n      0xffffffffffffffffffffffffffffffffffffffff\n      and\n      sub\n        /* \"src/contracts/MiniLend.sol\":3663:3714  if (addr == address(0)) revert InvalidAddress(addr) */\n      tag_210\n      jumpi\n        /* \"src/contracts/MiniLend.sol\":3709:3713  addr */\n      dup1\n        /* \"src/contracts/MiniLend.sol\":3694:3714  InvalidAddress(addr) */\n      mload(0x40)\n      0x8e4c8aa600000000000000000000000000000000000000000000000000000000\n      dup2\n      mstore\n      0x04\n      add\n      tag_211\n      swap2\n      swap1\n      tag_111\n      jump\t// in\n    tag_211:\n      mload(0x40)\n      dup1\n      swap2\n      sub\n      swap1\n      revert\n        /* \"src/contracts/MiniLend.sol\":3663:3714  if (addr == address(0)) revert InvalidAddress(addr) */\n    tag_210:\n        /* \"src/contracts/MiniLend.sol\":6299:6318  address feedAddress */\n      0x00\n        /* \"src/contracts/MiniLend.sol\":6321:6331  priceFeeds */\n      0x02\n        /* \"src/contracts/MiniLend.sol\":6321:6338  priceFeeds[token] */\n      0x00\n        /* \"src/contracts/MiniLend.sol\":6332:6337  token */\n      dup6\n        /* \"src/contracts/MiniLend.sol\":6321:6338  priceFeeds[token] */\n      0xffffffffffffffffffffffffffffffffffffffff\n      and\n      0xffffffffffffffffffffffffffffffffffffffff\n      and\n      dup2\n      mstore\n      0x20\n      add\n      swap1\n      dup2\n      mstore\n      0x20\n      add\n      0x00\n      keccak256\n      0x00\n      swap1\n      sload\n      swap1\n      0x0100\n      exp\n      swap1\n      div\n      0xffffffffffffffffffffffffffffffffffffffff\n      and\n        /* \"src/contracts/MiniLend.sol\":6299:6338  address feedAddress = priceFeeds[token] */\n      swap1\n      pop\n        /* \"src/contracts/MiniLend.sol\":6375:6376  0 */\n      0x00\n        /* \"src/contracts/MiniLend.sol\":6352:6377  feedAddress == address(0) */\n      0xffffffffffffffffffffffffffffffffffffffff\n      and\n        /* \"src/contracts/MiniLend.sol\":6352:6363  feedAddress */\n      dup2\n        /* \"src/contracts/MiniLend.sol\":6352:6377  feedAddress == address(0) */\n      0xffffffffffffffffffffffffffffffffffffffff\n      and\n      sub\n        /* \"src/contracts/MiniLend.sol\":6348:6413  if (feedAddress == address(0)) revert InvalidAddress(feedAddress) */\n      tag_213\n      jumpi\n        /* \"src/contracts/MiniLend.sol\":6401:6412  feedAddress */\n      dup1\n        /* \"src/contracts/MiniLend.sol\":6386:6413  InvalidAddress(feedAddress) */\n      mload(0x40)\n      0x8e4c8aa600000000000000000000000000000000000000000000000000000000\n      dup2\n      mstore\n      0x04\n      add\n      tag_214\n      swap2\n      swap1\n      tag_111\n      jump\t// in\n    tag_214:\n      mload(0x40)\n      dup1\n      swap2\n      sub\n      swap1\n      revert\n        /* \"src/contracts/MiniLend.sol\":6348:6413  if (feedAddress == address(0)) revert InvalidAddress(feedAddress) */\n    tag_213:\n        /* \"src/contracts/MiniLend.sol\":6424:6450  AggregatorV3Interface feed */\n      0x00\n        /* \"src/contracts/MiniLend.sol\":6475:6486  feedAddress */\n      dup2\n        /* \"src/contracts/MiniLend.sol\":6424:6487  AggregatorV3Interface feed = AggregatorV3Interface(feedAddress) */\n      swap1\n      pop\n        /* \"src/contracts/MiniLend.sol\":6511:6525  uint80 roundId */\n      0x00\n        /* \"src/contracts/MiniLend.sol\":6539:6551  int256 price */\n      0x00\n        /* \"src/contracts/MiniLend.sol\":6579:6596  uint256 updatedAt */\n      0x00\n        /* \"src/contracts/MiniLend.sol\":6610:6632  uint80 answeredInRound */\n      0x00\n        /* \"src/contracts/MiniLend.sol\":6645:6649  feed */\n      dup5\n        /* \"src/contracts/MiniLend.sol\":6645:6665  feed.latestRoundData */\n      0xffffffffffffffffffffffffffffffffffffffff\n      and\n      0xfeaf968c\n        /* \"src/contracts/MiniLend.sol\":6645:6667  feed.latestRoundData() */\n      mload(0x40)\n      dup2\n      0xffffffff\n      and\n      0xe0\n      shl\n      dup2\n      mstore\n      0x04\n      add\n      0xa0\n      mload(0x40)\n      dup1\n      dup4\n      sub\n      dup2\n      dup7\n      gas\n      staticcall\n      iszero\n      dup1\n      iszero\n      tag_216\n      jumpi\n      returndatacopy(0x00, 0x00, returndatasize)\n      revert(0x00, returndatasize)\n    tag_216:\n      pop\n      pop\n      pop\n      pop\n      mload(0x40)\n      returndatasize\n      not(0x1f)\n      0x1f\n      dup3\n      add\n      and\n      dup3\n      add\n      dup1\n      0x40\n      mstore\n      pop\n      dup2\n      add\n      swap1\n      tag_217\n      swap2\n      swap1\n      tag_218\n      jump\t// in\n    tag_217:\n        /* \"src/contracts/MiniLend.sol\":6497:6667  (... */\n      swap5\n      pop\n      swap5\n      pop\n      pop\n      swap4\n      pop\n      swap4\n      pop\n        /* \"src/contracts/MiniLend.sol\":6718:6719  0 */\n      0x00\n        /* \"src/contracts/MiniLend.sol\":6709:6714  price */\n      dup4\n        /* \"src/contracts/MiniLend.sol\":6709:6719  price <= 0 */\n      sgt\n        /* \"src/contracts/MiniLend.sol\":6705:6751  if (price <= 0) revert InvalidPriceData(price) */\n      tag_219\n      jumpi\n        /* \"src/contracts/MiniLend.sol\":6745:6750  price */\n      dup3\n        /* \"src/contracts/MiniLend.sol\":6728:6751  InvalidPriceData(price) */\n      mload(0x40)\n      0xb4e8ae1100000000000000000000000000000000000000000000000000000000\n      dup2\n      mstore\n      0x04\n      add\n      tag_220\n      swap2\n      swap1\n      tag_221\n      jump\t// in\n    tag_220:\n      mload(0x40)\n      dup1\n      swap2\n      sub\n      swap1\n      revert\n        /* \"src/contracts/MiniLend.sol\":6705:6751  if (price <= 0) revert InvalidPriceData(price) */\n    tag_219:\n        /* \"src/contracts/MiniLend.sol\":6783:6790  roundId */\n      dup4\n        /* \"src/contracts/MiniLend.sol\":6765:6790  answeredInRound < roundId */\n      0xffffffffffffffffffff\n      and\n        /* \"src/contracts/MiniLend.sol\":6765:6780  answeredInRound */\n      dup2\n        /* \"src/contracts/MiniLend.sol\":6765:6790  answeredInRound < roundId */\n      0xffffffffffffffffffff\n      and\n      lt\n        /* \"src/contracts/MiniLend.sol\":6761:6821  if (answeredInRound < roundId) revert FeedDataNotFinalized() */\n      iszero\n      tag_222\n      jumpi\n        /* \"src/contracts/MiniLend.sol\":6799:6821  FeedDataNotFinalized() */\n      mload(0x40)\n      0xeb8eec2e00000000000000000000000000000000000000000000000000000000\n      dup2\n      mstore\n      0x04\n      add\n      mload(0x40)\n      dup1\n      swap2\n      sub\n      swap1\n      revert\n        /* \"src/contracts/MiniLend.sol\":6761:6821  if (answeredInRound < roundId) revert FeedDataNotFinalized() */\n    tag_222:\n        /* \"src/contracts/MiniLend.sol\":6862:6863  0 */\n      0x00\n        /* \"src/contracts/MiniLend.sol\":6849:6858  updatedAt */\n      dup3\n        /* \"src/contracts/MiniLend.sol\":6849:6863  updatedAt == 0 */\n      eq\n        /* \"src/contracts/MiniLend.sol\":6849:6916  updatedAt == 0 || (block.timestamp - uint256(updatedAt)) >= 1 hours */\n      dup1\n      tag_223\n      jumpi\n      pop\n        /* \"src/contracts/MiniLend.sol\":6909:6916  1 hours */\n      0x0e10\n        /* \"src/contracts/MiniLend.sol\":6894:6903  updatedAt */\n      dup3\n        /* \"src/contracts/MiniLend.sol\":6868:6883  block.timestamp */\n      timestamp\n        /* \"src/contracts/MiniLend.sol\":6868:6904  block.timestamp - uint256(updatedAt) */\n      tag_224\n      swap2\n      swap1\n      tag_196\n      jump\t// in\n    tag_224:\n        /* \"src/contracts/MiniLend.sol\":6867:6916  (block.timestamp - uint256(updatedAt)) >= 1 hours */\n      lt\n      iszero\n        /* \"src/contracts/MiniLend.sol\":6849:6916  updatedAt == 0 || (block.timestamp - uint256(updatedAt)) >= 1 hours */\n    tag_223:\n        /* \"src/contracts/MiniLend.sol\":6832:6993  if (... */\n      iszero\n      tag_225\n      jumpi\n        /* \"src/contracts/MiniLend.sol\":6971:6980  updatedAt */\n      dup2\n        /* \"src/contracts/MiniLend.sol\":6948:6982  StalePriceData(uint256(updatedAt)) */\n      mload(0x40)\n      0x3b90dd8b00000000000000000000000000000000000000000000000000000000\n      dup2\n      mstore\n      0x04\n      add\n      tag_226\n      swap2\n      swap1\n      tag_53\n      jump\t// in\n    tag_226:\n      mload(0x40)\n      dup1\n      swap2\n      sub\n      swap1\n      revert\n        /* \"src/contracts/MiniLend.sol\":6832:6993  if (... */\n    tag_225:\n        /* \"src/contracts/MiniLend.sol\":7003:7017  uint8 decimals */\n      0x00\n        /* \"src/contracts/MiniLend.sol\":7020:7024  feed */\n      dup6\n        /* \"src/contracts/MiniLend.sol\":7020:7033  feed.decimals */\n      0xffffffffffffffffffffffffffffffffffffffff\n      and\n      0x313ce567\n        /* \"src/contracts/MiniLend.sol\":7020:7035  feed.decimals() */\n      mload(0x40)\n      dup2\n      0xffffffff\n      and\n      0xe0\n      shl\n      dup2\n      mstore\n      0x04\n      add\n      0x20\n      mload(0x40)\n      dup1\n      dup4\n      sub\n      dup2\n      dup7\n      gas\n      staticcall\n      iszero\n      dup1\n      iszero\n      tag_228\n      jumpi\n      returndatacopy(0x00, 0x00, returndatasize)\n      revert(0x00, returndatasize)\n    tag_228:\n      pop\n      pop\n      pop\n      pop\n      mload(0x40)\n      returndatasize\n      not(0x1f)\n      0x1f\n      dup3\n      add\n      and\n      dup3\n      add\n      dup1\n      0x40\n      mstore\n      pop\n      dup2\n      add\n      swap1\n      tag_229\n      swap2\n      swap1\n      tag_230\n      jump\t// in\n    tag_229:\n        /* \"src/contracts/MiniLend.sol\":7003:7035  uint8 decimals = feed.decimals() */\n      swap1\n      pop\n        /* \"src/contracts/MiniLend.sol\":7060:7062  18 */\n      0x12\n        /* \"src/contracts/MiniLend.sol\":7049:7057  decimals */\n      dup2\n        /* \"src/contracts/MiniLend.sol\":7049:7062  decimals > 18 */\n      0xff\n      and\n      gt\n        /* \"src/contracts/MiniLend.sol\":7045:7088  if (decimals > 18) revert InvalidDecimals() */\n      iszero\n      tag_231\n      jumpi\n        /* \"src/contracts/MiniLend.sol\":7071:7088  InvalidDecimals() */\n      mload(0x40)\n      0xd25598a000000000000000000000000000000000000000000000000000000000\n      dup2\n      mstore\n      0x04\n      add\n      mload(0x40)\n      dup1\n      swap2\n      sub\n      swap1\n      revert\n        /* \"src/contracts/MiniLend.sol\":7045:7088  if (decimals > 18) revert InvalidDecimals() */\n    tag_231:\n        /* \"src/contracts/MiniLend.sol\":7273:7281  decimals */\n      dup1\n        /* \"src/contracts/MiniLend.sol\":7268:7270  18 */\n      0x12\n        /* \"src/contracts/MiniLend.sol\":7268:7281  18 - decimals */\n      tag_232\n      swap2\n      swap1\n      tag_233\n      jump\t// in\n    tag_232:\n        /* \"src/contracts/MiniLend.sol\":7261:7263  10 */\n      0x0a\n        /* \"src/contracts/MiniLend.sol\":7261:7282  10 ** (18 - decimals) */\n      tag_234\n      swap2\n      swap1\n      tag_235\n      jump\t// in\n    tag_234:\n        /* \"src/contracts/MiniLend.sol\":7252:7257  price */\n      dup5\n        /* \"src/contracts/MiniLend.sol\":7244:7282  uint256(price) * 10 ** (18 - decimals) */\n      tag_236\n      swap2\n      swap1\n      tag_237\n      jump\t// in\n    tag_236:\n        /* \"src/contracts/MiniLend.sol\":7237:7282  return uint256(price) * 10 ** (18 - decimals) */\n      swap9\n      pop\n      pop\n      pop\n      pop\n      pop\n      pop\n      pop\n      pop\n        /* \"src/contracts/MiniLend.sol\":6184:7289  function getLatestPrice(... */\n      pop\n      swap2\n      swap1\n      pop\n      jump\t// out\n        /* \"src/contracts/MiniLend.sol\":4621:4861  function setLiquidationBonus(... */\n    tag_58:\n        /* \"lib/openzeppelin-contracts/contracts/access/Ownable.sol\":1531:1544  _checkOwner() */\n      tag_239\n        /* \"lib/openzeppelin-contracts/contracts/access/Ownable.sol\":1531:1542  _checkOwner */\n      tag_188\n        /* \"lib/openzeppelin-contracts/contracts/access/Ownable.sol\":1531:1544  _checkOwner() */\n      jump\t// in\n    tag_239:\n        /* \"src/contracts/MiniLend.sol\":4713:4719  _bonus */\n      dup1\n        /* \"src/contracts/MiniLend.sol\":3801:3802  0 */\n      0x00\n        /* \"src/contracts/MiniLend.sol\":3791:3797  amount */\n      dup2\n        /* \"src/contracts/MiniLend.sol\":3791:3802  amount == 0 */\n      sub\n        /* \"src/contracts/MiniLend.sol\":3787:3826  if (amount == 0) revert InvalidAmount() */\n      tag_241\n      jumpi\n        /* \"src/contracts/MiniLend.sol\":3811:3826  InvalidAmount() */\n      mload(0x40)\n      0x2c5211c600000000000000000000000000000000000000000000000000000000\n      dup2\n      mstore\n      0x04\n      add\n      mload(0x40)\n      dup1\n      swap2\n      sub\n      swap1\n      revert\n        /* \"src/contracts/MiniLend.sol\":3787:3826  if (amount == 0) revert InvalidAmount() */\n    tag_241:\n        /* \"src/contracts/MiniLend.sol\":3213:3218  10000 */\n      0x2710\n        /* \"src/contracts/MiniLend.sol\":4735:4741  _bonus */\n      dup3\n        /* \"src/contracts/MiniLend.sol\":4735:4759  _bonus > PCT_DENOMINATOR */\n      gt\n        /* \"src/contracts/MiniLend.sol\":4731:4784  if (_bonus > PCT_DENOMINATOR) revert BadBonus(_bonus) */\n      iszero\n      tag_243\n      jumpi\n        /* \"src/contracts/MiniLend.sol\":4777:4783  _bonus */\n      dup2\n        /* \"src/contracts/MiniLend.sol\":4768:4784  BadBonus(_bonus) */\n      mload(0x40)\n      0x45c57aac00000000000000000000000000000000000000000000000000000000\n      dup2\n      mstore\n      0x04\n      add\n      tag_244\n      swap2\n      swap1\n      tag_53\n      jump\t// in\n    tag_244:\n      mload(0x40)\n      dup1\n      swap2\n      sub\n      swap1\n      revert\n        /* \"src/contracts/MiniLend.sol\":4731:4784  if (_bonus > PCT_DENOMINATOR) revert BadBonus(_bonus) */\n    tag_243:\n        /* \"src/contracts/MiniLend.sol\":4813:4819  _bonus */\n      dup2\n        /* \"src/contracts/MiniLend.sol\":4794:4810  liquidationBonus */\n      0x08\n        /* \"src/contracts/MiniLend.sol\":4794:4819  liquidationBonus = _bonus */\n      dup2\n      swap1\n      sstore\n      pop\n        /* \"src/contracts/MiniLend.sol\":4834:4854  BonusUpdated(_bonus) */\n      0x04a7ca0e55f887a637b560614f621b92b79423e20152fea70bc4be66edaee3d6\n        /* \"src/contracts/MiniLend.sol\":4847:4853  _bonus */\n      dup3\n        /* \"src/contracts/MiniLend.sol\":4834:4854  BonusUpdated(_bonus) */\n      mload(0x40)\n      tag_245\n      swap2\n      swap1\n      tag_53\n      jump\t// in\n    tag_245:\n      mload(0x40)\n      dup1\n      swap2\n      sub\n      swap1\n      log1\n        /* \"lib/openzeppelin-contracts/contracts/access/Ownable.sol\":1554:1555  _ */\n      pop\n        /* \"src/contracts/MiniLend.sol\":4621:4861  function setLiquidationBonus(... */\n      pop\n      jump\t// out\n        /* \"src/contracts/MiniLend.sol\":8063:8268  function getContractsTokenBalance(... */\n    tag_62:\n        /* \"src/contracts/MiniLend.sol\":8171:8178  uint256 */\n      0x00\n        /* \"src/contracts/MiniLend.sol\":8155:8160  token */\n      dup2\n        /* \"src/contracts/MiniLend.sol\":3683:3684  0 */\n      0x00\n        /* \"src/contracts/MiniLend.sol\":3667:3685  addr == address(0) */\n      0xffffffffffffffffffffffffffffffffffffffff\n      and\n        /* \"src/contracts/MiniLend.sol\":3667:3671  addr */\n      dup2\n        /* \"src/contracts/MiniLend.sol\":3667:3685  addr == address(0) */\n      0xffffffffffffffffffffffffffffffffffffffff\n      and\n      sub\n        /* \"src/contracts/MiniLend.sol\":3663:3714  if (addr == address(0)) revert InvalidAddress(addr) */\n      tag_247\n      jumpi\n        /* \"src/contracts/MiniLend.sol\":3709:3713  addr */\n      dup1\n        /* \"src/contracts/MiniLend.sol\":3694:3714  InvalidAddress(addr) */\n      mload(0x40)\n      0x8e4c8aa600000000000000000000000000000000000000000000000000000000\n      dup2\n      mstore\n      0x04\n      add\n      tag_248\n      swap2\n      swap1\n      tag_111\n      jump\t// in\n    tag_248:\n      mload(0x40)\n      dup1\n      swap2\n      sub\n      swap1\n      revert\n        /* \"src/contracts/MiniLend.sol\":3663:3714  if (addr == address(0)) revert InvalidAddress(addr) */\n    tag_247:\n        /* \"src/contracts/MiniLend.sol\":8190:8200  IERC20 erc */\n      0x00\n        /* \"src/contracts/MiniLend.sol\":8210:8215  token */\n      dup4\n        /* \"src/contracts/MiniLend.sol\":8190:8216  IERC20 erc = IERC20(token) */\n      swap1\n      pop\n        /* \"src/contracts/MiniLend.sol\":8233:8236  erc */\n      dup1\n        /* \"src/contracts/MiniLend.sol\":8233:8246  erc.balanceOf */\n      0xffffffffffffffffffffffffffffffffffffffff\n      and\n      0x70a08231\n        /* \"src/contracts/MiniLend.sol\":8255:8259  this */\n      address\n        /* \"src/contracts/MiniLend.sol\":8233:8261  erc.balanceOf(address(this)) */\n      mload(0x40)\n      dup3\n      0xffffffff\n      and\n      0xe0\n      shl\n      dup2\n      mstore\n      0x04\n      add\n      tag_250\n      swap2\n      swap1\n      tag_111\n      jump\t// in\n    tag_250:\n      0x20\n      mload(0x40)\n      dup1\n      dup4\n      sub\n      dup2\n      dup7\n      gas\n      staticcall\n      iszero\n      dup1\n      iszero\n      tag_252\n      jumpi\n      returndatacopy(0x00, 0x00, returndatasize)\n      revert(0x00, returndatasize)\n    tag_252:\n      pop\n      pop\n      pop\n      pop\n      mload(0x40)\n      returndatasize\n      not(0x1f)\n      0x1f\n      dup3\n      add\n      and\n      dup3\n      add\n      dup1\n      0x40\n      mstore\n      pop\n      dup2\n      add\n      swap1\n      tag_253\n      swap2\n      swap1\n      tag_254\n      jump\t// in\n    tag_253:\n        /* \"src/contracts/MiniLend.sol\":8226:8261  return erc.balanceOf(address(this)) */\n      swap3\n      pop\n      pop\n        /* \"src/contracts/MiniLend.sol\":8063:8268  function getContractsTokenBalance(... */\n      pop\n      swap2\n      swap1\n      pop\n      jump\t// out\n        /* \"src/contracts/MiniLend.sol\":4153:4368  function setFeed(... */\n    tag_68:\n        /* \"lib/openzeppelin-contracts/contracts/access/Ownable.sol\":1531:1544  _checkOwner() */\n      tag_256\n        /* \"lib/openzeppelin-contracts/contracts/access/Ownable.sol\":1531:1542  _checkOwner */\n      tag_188\n        /* \"lib/openzeppelin-contracts/contracts/access/Ownable.sol\":1531:1544  _checkOwner() */\n      jump\t// in\n    tag_256:\n        /* \"src/contracts/MiniLend.sol\":4255:4260  token */\n      dup2\n        /* \"src/contracts/MiniLend.sol\":3683:3684  0 */\n      0x00\n        /* \"src/contracts/MiniLend.sol\":3667:3685  addr == address(0) */\n      0xffffffffffffffffffffffffffffffffffffffff\n      and\n        /* \"src/contracts/MiniLend.sol\":3667:3671  addr */\n      dup2\n        /* \"src/contracts/MiniLend.sol\":3667:3685  addr == address(0) */\n      0xffffffffffffffffffffffffffffffffffffffff\n      and\n      sub\n        /* \"src/contracts/MiniLend.sol\":3663:3714  if (addr == address(0)) revert InvalidAddress(addr) */\n      tag_258\n      jumpi\n        /* \"src/contracts/MiniLend.sol\":3709:3713  addr */\n      dup1\n        /* \"src/contracts/MiniLend.sol\":3694:3714  InvalidAddress(addr) */\n      mload(0x40)\n      0x8e4c8aa600000000000000000000000000000000000000000000000000000000\n      dup2\n      mstore\n      0x04\n      add\n      tag_259\n      swap2\n      swap1\n      tag_111\n      jump\t// in\n    tag_259:\n      mload(0x40)\n      dup1\n      swap2\n      sub\n      swap1\n      revert\n        /* \"src/contracts/MiniLend.sol\":3663:3714  if (addr == address(0)) revert InvalidAddress(addr) */\n    tag_258:\n        /* \"src/contracts/MiniLend.sol\":4277:4281  feed */\n      dup2\n        /* \"src/contracts/MiniLend.sol\":3683:3684  0 */\n      0x00\n        /* \"src/contracts/MiniLend.sol\":3667:3685  addr == address(0) */\n      0xffffffffffffffffffffffffffffffffffffffff\n      and\n        /* \"src/contracts/MiniLend.sol\":3667:3671  addr */\n      dup2\n        /* \"src/contracts/MiniLend.sol\":3667:3685  addr == address(0) */\n      0xffffffffffffffffffffffffffffffffffffffff\n      and\n      sub\n        /* \"src/contracts/MiniLend.sol\":3663:3714  if (addr == address(0)) revert InvalidAddress(addr) */\n      tag_261\n      jumpi\n        /* \"src/contracts/MiniLend.sol\":3709:3713  addr */\n      dup1\n        /* \"src/contracts/MiniLend.sol\":3694:3714  InvalidAddress(addr) */\n      mload(0x40)\n      0x8e4c8aa600000000000000000000000000000000000000000000000000000000\n      dup2\n      mstore\n      0x04\n      add\n      tag_262\n      swap2\n      swap1\n      tag_111\n      jump\t// in\n    tag_262:\n      mload(0x40)\n      dup1\n      swap2\n      sub\n      swap1\n      revert\n        /* \"src/contracts/MiniLend.sol\":3663:3714  if (addr == address(0)) revert InvalidAddress(addr) */\n    tag_261:\n        /* \"src/contracts/MiniLend.sol\":4313:4317  feed */\n      dup3\n        /* \"src/contracts/MiniLend.sol\":4293:4303  priceFeeds */\n      0x02\n        /* \"src/contracts/MiniLend.sol\":4293:4310  priceFeeds[token] */\n      0x00\n        /* \"src/contracts/MiniLend.sol\":4304:4309  token */\n      dup7\n        /* \"src/contracts/MiniLend.sol\":4293:4310  priceFeeds[token] */\n      0xffffffffffffffffffffffffffffffffffffffff\n      and\n      0xffffffffffffffffffffffffffffffffffffffff\n      and\n      dup2\n      mstore\n      0x20\n      add\n      swap1\n      dup2\n      mstore\n      0x20\n      add\n      0x00\n      keccak256\n      0x00\n        /* \"src/contracts/MiniLend.sol\":4293:4317  priceFeeds[token] = feed */\n      0x0100\n      exp\n      dup2\n      sload\n      dup2\n      0xffffffffffffffffffffffffffffffffffffffff\n      mul\n      not\n      and\n      swap1\n      dup4\n      0xffffffffffffffffffffffffffffffffffffffff\n      and\n      mul\n      or\n      swap1\n      sstore\n      pop\n        /* \"src/contracts/MiniLend.sol\":4356:4360  feed */\n      dup3\n        /* \"src/contracts/MiniLend.sol\":4332:4361  PriceFeedUpdated(token, feed) */\n      0xffffffffffffffffffffffffffffffffffffffff\n      and\n        /* \"src/contracts/MiniLend.sol\":4349:4354  token */\n      dup5\n        /* \"src/contracts/MiniLend.sol\":4332:4361  PriceFeedUpdated(token, feed) */\n      0xffffffffffffffffffffffffffffffffffffffff\n      and\n      0xa8abe0398416476db5b05737cd4da3b3cbde5012d978a6a6c3fd49d321753536\n      mload(0x40)\n      mload(0x40)\n      dup1\n      swap2\n      sub\n      swap1\n      log3\n        /* \"src/contracts/MiniLend.sol\":3724:3725  _ */\n      pop\n        /* \"lib/openzeppelin-contracts/contracts/access/Ownable.sol\":1554:1555  _ */\n      pop\n        /* \"src/contracts/MiniLend.sol\":4153:4368  function setFeed(... */\n      pop\n      pop\n      jump\t// out\n        /* \"src/contracts/MiniLend.sol\":2839:2884  mapping(address => uint256) public tokenIndex */\n    tag_72:\n      mstore(0x20, 0x04)\n      dup1\n      0x00\n      mstore\n      keccak256(0x00, 0x40)\n      0x00\n      swap2\n      pop\n      swap1\n      pop\n      sload\n      dup2\n      jump\t// out\n        /* \"src/contracts/MiniLend.sol\":9159:9273  function getApprovedTokensCount() external view returns (uint256) {... */\n    tag_76:\n        /* \"src/contracts/MiniLend.sol\":9216:9223  uint256 */\n      0x00\n        /* \"src/contracts/MiniLend.sol\":9242:9259  approvedTokenList */\n      0x05\n        /* \"src/contracts/MiniLend.sol\":9242:9266  approvedTokenList.length */\n      dup1\n      sload\n      swap1\n      pop\n        /* \"src/contracts/MiniLend.sol\":9235:9266  return approvedTokenList.length */\n      swap1\n      pop\n        /* \"src/contracts/MiniLend.sol\":9159:9273  function getApprovedTokensCount() external view returns (uint256) {... */\n      swap1\n      jump\t// out\n        /* \"src/contracts/MiniLend.sol\":8887:8997  function getContractEthBalance() external view returns (uint256) {... */\n    tag_80:\n        /* \"src/contracts/MiniLend.sol\":8943:8950  uint256 */\n      0x00\n        /* \"src/contracts/MiniLend.sol\":8969:8990  address(this).balance */\n      selfbalance\n        /* \"src/contracts/MiniLend.sol\":8962:8990  return address(this).balance */\n      swap1\n      pop\n        /* \"src/contracts/MiniLend.sol\":8887:8997  function getContractEthBalance() external view returns (uint256) {... */\n      swap1\n      jump\t// out\n        /* \"src/contracts/MiniLend.sol\":2787:2833  mapping(address => bool) public approvedTokens */\n    tag_85:\n      mstore(0x20, 0x03)\n      dup1\n      0x00\n      mstore\n      keccak256(0x00, 0x40)\n      0x00\n      swap2\n      pop\n      sload\n      swap1\n      0x0100\n      exp\n      swap1\n      div\n      0xff\n      and\n      dup2\n      jump\t// out\n        /* \"src/contracts/MiniLend.sol\":8441:8881  function getUser(... */\n    tag_91:\n        /* \"src/contracts/MiniLend.sol\":8546:8565  address stakedAsset */\n      0x00\n        /* \"src/contracts/MiniLend.sol\":8579:8599  uint256 stakedAmount */\n      0x00\n        /* \"src/contracts/MiniLend.sol\":8613:8634  address borrowedAsset */\n      0x00\n        /* \"src/contracts/MiniLend.sol\":8648:8675  uint256 borrowedAssetAmount */\n      0x00\n        /* \"src/contracts/MiniLend.sol\":8700:8714  User storage u */\n      0x00\n        /* \"src/contracts/MiniLend.sol\":8717:8722  users */\n      0x01\n        /* \"src/contracts/MiniLend.sol\":8717:8728  users[user] */\n      0x00\n        /* \"src/contracts/MiniLend.sol\":8723:8727  user */\n      dup8\n        /* \"src/contracts/MiniLend.sol\":8717:8728  users[user] */\n      0xffffffffffffffffffffffffffffffffffffffff\n      and\n      0xffffffffffffffffffffffffffffffffffffffff\n      and\n      dup2\n      mstore\n      0x20\n      add\n      swap1\n      dup2\n      mstore\n      0x20\n      add\n      0x00\n      keccak256\n        /* \"src/contracts/MiniLend.sol\":8700:8728  User storage u = users[user] */\n      swap1\n      pop\n        /* \"src/contracts/MiniLend.sol\":8759:8760  u */\n      dup1\n        /* \"src/contracts/MiniLend.sol\":8759:8772  u.stakedAsset */\n      0x00\n      add\n      0x00\n      swap1\n      sload\n      swap1\n      0x0100\n      exp\n      swap1\n      div\n      0xffffffffffffffffffffffffffffffffffffffff\n      and\n        /* \"src/contracts/MiniLend.sol\":8786:8787  u */\n      dup2\n        /* \"src/contracts/MiniLend.sol\":8786:8800  u.stakedAmount */\n      0x01\n      add\n      sload\n        /* \"src/contracts/MiniLend.sol\":8814:8815  u */\n      dup3\n        /* \"src/contracts/MiniLend.sol\":8814:8829  u.borrowedAsset */\n      0x02\n      add\n      0x00\n      swap1\n      sload\n      swap1\n      0x0100\n      exp\n      swap1\n      div\n      0xffffffffffffffffffffffffffffffffffffffff\n      and\n        /* \"src/contracts/MiniLend.sol\":8843:8844  u */\n      dup4\n        /* \"src/contracts/MiniLend.sol\":8843:8864  u.borrowedAssetAmount */\n      0x03\n      add\n      sload\n        /* \"src/contracts/MiniLend.sol\":8738:8874  return (... */\n      swap5\n      pop\n      swap5\n      pop\n      swap5\n      pop\n      swap5\n      pop\n      pop\n        /* \"src/contracts/MiniLend.sol\":8441:8881  function getUser(... */\n      swap2\n      swap4\n      pop\n      swap2\n      swap4\n      jump\t// out\n        /* \"lib/openzeppelin-contracts/contracts/access/Ownable.sol\":2293:2394  function renounceOwnership() public virtual onlyOwner {... */\n    tag_96:\n        /* \"lib/openzeppelin-contracts/contracts/access/Ownable.sol\":1531:1544  _checkOwner() */\n      tag_268\n        /* \"lib/openzeppelin-contracts/contracts/access/Ownable.sol\":1531:1542  _checkOwner */\n      tag_188\n        /* \"lib/openzeppelin-contracts/contracts/access/Ownable.sol\":1531:1544  _checkOwner() */\n      jump\t// in\n    tag_268:\n        /* \"lib/openzeppelin-contracts/contracts/access/Ownable.sol\":2357:2387  _transferOwnership(address(0)) */\n      tag_270\n        /* \"lib/openzeppelin-contracts/contracts/access/Ownable.sol\":2384:2385  0 */\n      0x00\n        /* \"lib/openzeppelin-contracts/contracts/access/Ownable.sol\":2357:2375  _transferOwnership */\n      tag_271\n        /* \"lib/openzeppelin-contracts/contracts/access/Ownable.sol\":2357:2387  _transferOwnership(address(0)) */\n      jump\t// in\n    tag_270:\n        /* \"lib/openzeppelin-contracts/contracts/access/Ownable.sol\":2293:2394  function renounceOwnership() public virtual onlyOwner {... */\n      jump\t// out\n        /* \"src/contracts/MiniLend.sol\":9366:9641  function stakeEth() public payable {... */\n    tag_98:\n        /* \"src/contracts/MiniLend.sol\":9428:9429  0 */\n      0x00\n        /* \"src/contracts/MiniLend.sol\":9415:9424  msg.value */\n      callvalue\n        /* \"src/contracts/MiniLend.sol\":9415:9429  msg.value == 0 */\n      sub\n        /* \"src/contracts/MiniLend.sol\":9411:9460  if (msg.value == 0) revert NoCollateralProvided() */\n      tag_273\n      jumpi\n        /* \"src/contracts/MiniLend.sol\":9438:9460  NoCollateralProvided() */\n      mload(0x40)\n      0xb016be5e00000000000000000000000000000000000000000000000000000000\n      dup2\n      mstore\n      0x04\n      add\n      mload(0x40)\n      dup1\n      swap2\n      sub\n      swap1\n      revert\n        /* \"src/contracts/MiniLend.sol\":9411:9460  if (msg.value == 0) revert NoCollateralProvided() */\n    tag_273:\n        /* \"src/contracts/MiniLend.sol\":9470:9487  User storage user */\n      0x00\n        /* \"src/contracts/MiniLend.sol\":9490:9507  _user(msg.sender) */\n      tag_274\n        /* \"src/contracts/MiniLend.sol\":9496:9506  msg.sender */\n      caller\n        /* \"src/contracts/MiniLend.sol\":9490:9495  _user */\n      tag_170\n        /* \"src/contracts/MiniLend.sol\":9490:9507  _user(msg.sender) */\n      jump\t// in\n    tag_274:\n        /* \"src/contracts/MiniLend.sol\":9470:9507  User storage user = _user(msg.sender) */\n      swap1\n      pop\n        /* \"src/contracts/MiniLend.sol\":9538:9547  msg.value */\n      callvalue\n        /* \"src/contracts/MiniLend.sol\":9517:9521  user */\n      dup2\n        /* \"src/contracts/MiniLend.sol\":9517:9534  user.stakedAmount */\n      0x01\n      add\n      0x00\n        /* \"src/contracts/MiniLend.sol\":9517:9547  user.stakedAmount += msg.value */\n      dup3\n      dup3\n      sload\n      tag_275\n      swap2\n      swap1\n      tag_180\n      jump\t// in\n    tag_275:\n      swap3\n      pop\n      pop\n      dup2\n      swap1\n      sstore\n      pop\n        /* \"src/contracts/MiniLend.sol\":3360:3402  0xEeeeeEeeeEeEeeEeEeEeeEEEeeeeEeeeeeeeEEeE */\n      0xeeeeeeeeeeeeeeeeeeeeeeeeeeeeeeeeeeeeeeee\n        /* \"src/contracts/MiniLend.sol\":9557:9561  user */\n      dup2\n        /* \"src/contracts/MiniLend.sol\":9557:9573  user.stakedAsset */\n      0x00\n      add\n      0x00\n        /* \"src/contracts/MiniLend.sol\":9557:9587  user.stakedAsset = ETH_ADDRESS */\n      0x0100\n      exp\n      dup2\n      sload\n      dup2\n      0xffffffffffffffffffffffffffffffffffffffff\n      mul\n      not\n      and\n      swap1\n      dup4\n      0xffffffffffffffffffffffffffffffffffffffff\n      and\n      mul\n      or\n      swap1\n      sstore\n      pop\n        /* \"src/contracts/MiniLend.sol\":9612:9622  msg.sender */\n      caller\n        /* \"src/contracts/MiniLend.sol\":9602:9634  EthStaked(msg.sender, msg.value) */\n      0xffffffffffffffffffffffffffffffffffffffff\n      and\n      0x1c0917c3a343a300b56473c59fa8355d3326f2c73472679a5b4cd5d6e0390c80\n        /* \"src/contracts/MiniLend.sol\":9624:9633  msg.value */\n      callvalue\n        /* \"src/contracts/MiniLend.sol\":9602:9634  EthStaked(msg.sender, msg.value) */\n      mload(0x40)\n      tag_276\n      swap2\n      swap1\n      tag_53\n      jump\t// in\n    tag_276:\n      mload(0x40)\n      dup1\n      swap2\n      sub\n      swap1\n      log2\n        /* \"src/contracts/MiniLend.sol\":9401:9641  {... */\n      pop\n        /* \"src/contracts/MiniLend.sol\":9366:9641  function stakeEth() public payable {... */\n      jump\t// out\n        /* \"src/contracts/MiniLend.sol\":4867:5208  function approveToken(... */\n    tag_102:\n        /* \"lib/openzeppelin-contracts/contracts/access/Ownable.sol\":1531:1544  _checkOwner() */\n      tag_278\n        /* \"lib/openzeppelin-contracts/contracts/access/Ownable.sol\":1531:1542  _checkOwner */\n      tag_188\n        /* \"lib/openzeppelin-contracts/contracts/access/Ownable.sol\":1531:1544  _checkOwner() */\n      jump\t// in\n    tag_278:\n        /* \"src/contracts/MiniLend.sol\":4952:4957  token */\n      dup1\n        /* \"src/contracts/MiniLend.sol\":3683:3684  0 */\n      0x00\n        /* \"src/contracts/MiniLend.sol\":3667:3685  addr == address(0) */\n      0xffffffffffffffffffffffffffffffffffffffff\n      and\n        /* \"src/contracts/MiniLend.sol\":3667:3671  addr */\n      dup2\n        /* \"src/contracts/MiniLend.sol\":3667:3685  addr == address(0) */\n      0xffffffffffffffffffffffffffffffffffffffff\n      and\n      sub\n        /* \"src/contracts/MiniLend.sol\":3663:3714  if (addr == address(0)) revert InvalidAddress(addr) */\n      tag_280\n      jumpi\n        /* \"src/contracts/MiniLend.sol\":3709:3713  addr */\n      dup1\n        /* \"src/contracts/MiniLend.sol\":3694:3714  InvalidAddress(addr) */\n      mload(0x40)\n      0x8e4c8aa600000000000000000000000000000000000000000000000000000000\n      dup2\n      mstore\n      0x04\n      add\n      tag_281\n      swap2\n      swap1\n      tag_111\n      jump\t// in\n    tag_281:\n      mload(0x40)\n      dup1\n      swap2\n      sub\n      swap1\n      revert\n        /* \"src/contracts/MiniLend.sol\":3663:3714  if (addr == address(0)) revert InvalidAddress(addr) */\n    tag_280:\n        /* \"src/contracts/MiniLend.sol\":4973:4987  approvedTokens */\n      0x03\n        /* \"src/contracts/MiniLend.sol\":4973:4994  approvedTokens[token] */\n      0x00\n        /* \"src/contracts/MiniLend.sol\":4988:4993  token */\n      dup4\n        /* \"src/contracts/MiniLend.sol\":4973:4994  approvedTokens[token] */\n      0xffffffffffffffffffffffffffffffffffffffff\n      and\n      0xffffffffffffffffffffffffffffffffffffffff\n      and\n      dup2\n      mstore\n      0x20\n      add\n      swap1\n      dup2\n      mstore\n      0x20\n      add\n      0x00\n      keccak256\n      0x00\n      swap1\n      sload\n      swap1\n      0x0100\n      exp\n      swap1\n      div\n      0xff\n      and\n        /* \"src/contracts/MiniLend.sol\":4969:5030  if (approvedTokens[token]) revert TokenAlreadyApproved(token) */\n      iszero\n      tag_283\n      jumpi\n        /* \"src/contracts/MiniLend.sol\":5024:5029  token */\n      dup2\n        /* \"src/contracts/MiniLend.sol\":5003:5030  TokenAlreadyApproved(token) */\n      mload(0x40)\n      0x7664204700000000000000000000000000000000000000000000000000000000\n      dup2\n      mstore\n      0x04\n      add\n      tag_284\n      swap2\n      swap1\n      tag_111\n      jump\t// in\n    tag_284:\n      mload(0x40)\n      dup1\n      swap2\n      sub\n      swap1\n      revert\n        /* \"src/contracts/MiniLend.sol\":4969:5030  if (approvedTokens[token]) revert TokenAlreadyApproved(token) */\n    tag_283:\n        /* \"src/contracts/MiniLend.sol\":5065:5069  true */\n      0x01\n        /* \"src/contracts/MiniLend.sol\":5041:5055  approvedTokens */\n      0x03\n        /* \"src/contracts/MiniLend.sol\":5041:5062  approvedTokens[token] */\n      0x00\n        /* \"src/contracts/MiniLend.sol\":5056:5061  token */\n      dup5\n        /* \"src/contracts/MiniLend.sol\":5041:5062  approvedTokens[token] */\n      0xffffffffffffffffffffffffffffffffffffffff\n      and\n      0xffffffffffffffffffffffffffffffffffffffff\n      and\n      dup2\n      mstore\n      0x20\n      add\n      swap1\n      dup2\n      mstore\n      0x20\n      add\n      0x00\n      keccak256\n      0x00\n        /* \"src/contracts/MiniLend.sol\":5041:5069  approvedTokens[token] = true */\n      0x0100\n      exp\n      dup2\n      sload\n      dup2\n      0xff\n      mul\n      not\n      and\n      swap1\n      dup4\n      iszero\n      iszero\n      mul\n      or\n      swap1\n      sstore\n      pop\n        /* \"src/contracts/MiniLend.sol\":5099:5116  approvedTokenList */\n      0x05\n        /* \"src/contracts/MiniLend.sol\":5099:5123  approvedTokenList.length */\n      dup1\n      sload\n      swap1\n      pop\n        /* \"src/contracts/MiniLend.sol\":5079:5089  tokenIndex */\n      0x04\n        /* \"src/contracts/MiniLend.sol\":5079:5096  tokenIndex[token] */\n      0x00\n        /* \"src/contracts/MiniLend.sol\":5090:5095  token */\n      dup5\n        /* \"src/contracts/MiniLend.sol\":5079:5096  tokenIndex[token] */\n      0xffffffffffffffffffffffffffffffffffffffff\n      and\n      0xffffffffffffffffffffffffffffffffffffffff\n      and\n      dup2\n      mstore\n      0x20\n      add\n      swap1\n      dup2\n      mstore\n      0x20\n      add\n      0x00\n      keccak256\n        /* \"src/contracts/MiniLend.sol\":5079:5123  tokenIndex[token] = approvedTokenList.length */\n      dup2\n      swap1\n      sstore\n      pop\n        /* \"src/contracts/MiniLend.sol\":5133:5150  approvedTokenList */\n      0x05\n        /* \"src/contracts/MiniLend.sol\":5156:5161  token */\n      dup3\n        /* \"src/contracts/MiniLend.sol\":5133:5162  approvedTokenList.push(token) */\n      swap1\n      dup1\n      0x01\n      dup2\n      sload\n      add\n      dup1\n      dup3\n      sstore\n      dup1\n      swap2\n      pop\n      pop\n      0x01\n      swap1\n      sub\n      swap1\n      0x00\n      mstore\n      keccak256(0x00, 0x20)\n      add\n      0x00\n      swap1\n      swap2\n      swap1\n      swap2\n      swap1\n      swap2\n      0x0100\n      exp\n      dup2\n      sload\n      dup2\n      0xffffffffffffffffffffffffffffffffffffffff\n      mul\n      not\n      and\n      swap1\n      dup4\n      0xffffffffffffffffffffffffffffffffffffffff\n      and\n      mul\n      or\n      swap1\n      sstore\n      pop\n        /* \"src/contracts/MiniLend.sol\":5195:5200  token */\n      dup2\n        /* \"src/contracts/MiniLend.sol\":5178:5201  NewTokenApproved(token) */\n      0xffffffffffffffffffffffffffffffffffffffff\n      and\n      0x026283404367cffc0443317066c3531d3db2306ad6e65aa1bee91dbe98c615a1\n      mload(0x40)\n      mload(0x40)\n      dup1\n      swap2\n      sub\n      swap1\n      log2\n        /* \"lib/openzeppelin-contracts/contracts/access/Ownable.sol\":1554:1555  _ */\n      pop\n        /* \"src/contracts/MiniLend.sol\":4867:5208  function approveToken(... */\n      pop\n      jump\t// out\n        /* \"src/contracts/MiniLend.sol\":4374:4615  function setltv(uint256 _ltv) external onlyOwner nonZeroAmount(_ltv) {... */\n    tag_106:\n        /* \"lib/openzeppelin-contracts/contracts/access/Ownable.sol\":1531:1544  _checkOwner() */\n      tag_287\n        /* \"lib/openzeppelin-contracts/contracts/access/Ownable.sol\":1531:1542  _checkOwner */\n      tag_188\n        /* \"lib/openzeppelin-contracts/contracts/access/Ownable.sol\":1531:1544  _checkOwner() */\n      jump\t// in\n    tag_287:\n        /* \"src/contracts/MiniLend.sol\":4437:4441  _ltv */\n      dup1\n        /* \"src/contracts/MiniLend.sol\":3801:3802  0 */\n      0x00\n        /* \"src/contracts/MiniLend.sol\":3791:3797  amount */\n      dup2\n        /* \"src/contracts/MiniLend.sol\":3791:3802  amount == 0 */\n      sub\n        /* \"src/contracts/MiniLend.sol\":3787:3826  if (amount == 0) revert InvalidAmount() */\n      tag_289\n      jumpi\n        /* \"src/contracts/MiniLend.sol\":3811:3826  InvalidAmount() */\n      mload(0x40)\n      0x2c5211c600000000000000000000000000000000000000000000000000000000\n      dup2\n      mstore\n      0x04\n      add\n      mload(0x40)\n      dup1\n      swap2\n      sub\n      swap1\n      revert\n        /* \"src/contracts/MiniLend.sol\":3787:3826  if (amount == 0) revert InvalidAmount() */\n    tag_289:\n        /* \"src/contracts/MiniLend.sol\":4465:4466  0 */\n      0x00\n        /* \"src/contracts/MiniLend.sol\":4457:4461  _ltv */\n      dup3\n        /* \"src/contracts/MiniLend.sol\":4457:4466  _ltv == 0 */\n      eq\n        /* \"src/contracts/MiniLend.sol\":4457:4492  _ltv == 0 || _ltv > PCT_DENOMINATOR */\n      dup1\n      tag_291\n      jumpi\n      pop\n        /* \"src/contracts/MiniLend.sol\":3213:3218  10000 */\n      0x2710\n        /* \"src/contracts/MiniLend.sol\":4470:4474  _ltv */\n      dup3\n        /* \"src/contracts/MiniLend.sol\":4470:4492  _ltv > PCT_DENOMINATOR */\n      gt\n        /* \"src/contracts/MiniLend.sol\":4457:4492  _ltv == 0 || _ltv > PCT_DENOMINATOR */\n    tag_291:\n        /* \"src/contracts/MiniLend.sol\":4457:4524  _ltv == 0 || _ltv > PCT_DENOMINATOR || _ltv > LIQUIDATION_THRESHOLD */\n      dup1\n      tag_292\n      jumpi\n      pop\n        /* \"src/contracts/MiniLend.sol\":3304:3308  7500 */\n      0x1d4c\n        /* \"src/contracts/MiniLend.sol\":4496:4500  _ltv */\n      dup3\n        /* \"src/contracts/MiniLend.sol\":4496:4524  _ltv > LIQUIDATION_THRESHOLD */\n      gt\n        /* \"src/contracts/MiniLend.sol\":4457:4524  _ltv == 0 || _ltv > PCT_DENOMINATOR || _ltv > LIQUIDATION_THRESHOLD */\n    tag_292:\n        /* \"src/contracts/MiniLend.sol\":4453:4557  if (_ltv == 0 || _ltv > PCT_DENOMINATOR || _ltv > LIQUIDATION_THRESHOLD)... */\n      iszero\n      tag_293\n      jumpi\n        /* \"src/contracts/MiniLend.sol\":4552:4556  _ltv */\n      dup2\n        /* \"src/contracts/MiniLend.sol\":4545:4557  Badltv(_ltv) */\n      mload(0x40)\n      0xa072825500000000000000000000000000000000000000000000000000000000\n      dup2\n      mstore\n      0x04\n      add\n      tag_294\n      swap2\n      swap1\n      tag_53\n      jump\t// in\n    tag_294:\n      mload(0x40)\n      dup1\n      swap2\n      sub\n      swap1\n      revert\n        /* \"src/contracts/MiniLend.sol\":4453:4557  if (_ltv == 0 || _ltv > PCT_DENOMINATOR || _ltv > LIQUIDATION_THRESHOLD)... */\n    tag_293:\n        /* \"src/contracts/MiniLend.sol\":4573:4577  _ltv */\n      dup2\n        /* \"src/contracts/MiniLend.sol\":4567:4570  ltv */\n      0x06\n        /* \"src/contracts/MiniLend.sol\":4567:4577  ltv = _ltv */\n      dup2\n      swap1\n      sstore\n      pop\n        /* \"src/contracts/MiniLend.sol\":4592:4608  ltvUpdated(_ltv) */\n      0xb1af578d18aef46afafbd25487a95eff1077a6e04c89e71b82093b998b3a7e4b\n        /* \"src/contracts/MiniLend.sol\":4603:4607  _ltv */\n      dup3\n        /* \"src/contracts/MiniLend.sol\":4592:4608  ltvUpdated(_ltv) */\n      mload(0x40)\n      tag_295\n      swap2\n      swap1\n      tag_53\n      jump\t// in\n    tag_295:\n      mload(0x40)\n      dup1\n      swap2\n      sub\n      swap1\n      log1\n        /* \"lib/openzeppelin-contracts/contracts/access/Ownable.sol\":1554:1555  _ */\n      pop\n        /* \"src/contracts/MiniLend.sol\":4374:4615  function setltv(uint256 _ltv) external onlyOwner nonZeroAmount(_ltv) {... */\n      pop\n      jump\t// out\n        /* \"lib/openzeppelin-contracts/contracts/access/Ownable.sol\":1638:1723  function owner() public view virtual returns (address) {... */\n    tag_109:\n        /* \"lib/openzeppelin-contracts/contracts/access/Ownable.sol\":1684:1691  address */\n      0x00\n        /* \"lib/openzeppelin-contracts/contracts/access/Ownable.sol\":1710:1716  _owner */\n      0x00\n      0x00\n      swap1\n      sload\n      swap1\n      0x0100\n      exp\n      swap1\n      div\n      0xffffffffffffffffffffffffffffffffffffffff\n      and\n        /* \"lib/openzeppelin-contracts/contracts/access/Ownable.sol\":1703:1716  return _owner */\n      swap1\n      pop\n        /* \"lib/openzeppelin-contracts/contracts/access/Ownable.sol\":1638:1723  function owner() public view virtual returns (address) {... */\n      swap1\n      jump\t// out\n        /* \"src/contracts/MiniLend.sol\":2920:2954  address[] public approvedTokenList */\n    tag_115:\n      0x05\n      dup2\n      dup2\n      sload\n      dup2\n      lt\n      tag_297\n      jumpi\n      0x00\n      dup1\n      revert\n    tag_297:\n      swap1\n      0x00\n      mstore\n      keccak256(0x00, 0x20)\n      add\n      0x00\n      swap2\n      pop\n      sload\n      swap1\n      0x0100\n      exp\n      swap1\n      div\n      0xffffffffffffffffffffffffffffffffffffffff\n      and\n      dup2\n      jump\t// out\n        /* \"src/contracts/MiniLend.sol\":9003:9153  function isTokenApproved(... */\n    tag_120:\n        /* \"src/contracts/MiniLend.sol\":9102:9106  bool */\n      0x00\n        /* \"src/contracts/MiniLend.sol\":9086:9091  token */\n      dup2\n        /* \"src/contracts/MiniLend.sol\":3683:3684  0 */\n      0x00\n        /* \"src/contracts/MiniLend.sol\":3667:3685  addr == address(0) */\n      0xffffffffffffffffffffffffffffffffffffffff\n      and\n        /* \"src/contracts/MiniLend.sol\":3667:3671  addr */\n      dup2\n        /* \"src/contracts/MiniLend.sol\":3667:3685  addr == address(0) */\n      0xffffffffffffffffffffffffffffffffffffffff\n      and\n      sub\n        /* \"src/contracts/MiniLend.sol\":3663:3714  if (addr == address(0)) revert InvalidAddress(addr) */\n      tag_300\n      jumpi\n        /* \"src/contracts/MiniLend.sol\":3709:3713  addr */\n      dup1\n        /* \"src/contracts/MiniLend.sol\":3694:3714  InvalidAddress(addr) */\n      mload(0x40)\n      0x8e4c8aa600000000000000000000000000000000000000000000000000000000\n      dup2\n      mstore\n      0x04\n      add\n      tag_301\n      swap2\n      swap1\n      tag_111\n      jump\t// in\n    tag_301:\n      mload(0x40)\n      dup1\n      swap2\n      sub\n      swap1\n      revert\n        /* \"src/contracts/MiniLend.sol\":3663:3714  if (addr == address(0)) revert InvalidAddress(addr) */\n    tag_300:\n        /* \"src/contracts/MiniLend.sol\":9125:9139  approvedTokens */\n      0x03\n        /* \"src/contracts/MiniLend.sol\":9125:9146  approvedTokens[token] */\n      0x00\n        /* \"src/contracts/MiniLend.sol\":9140:9145  token */\n      dup5\n        /* \"src/contracts/MiniLend.sol\":9125:9146  approvedTokens[token] */\n      0xffffffffffffffffffffffffffffffffffffffff\n      and\n      0xffffffffffffffffffffffffffffffffffffffff\n      and\n      dup2\n      mstore\n      0x20\n      add\n      swap1\n      dup2\n      mstore\n      0x20\n      add\n      0x00\n      keccak256\n      0x00\n      swap1\n      sload\n      swap1\n      0x0100\n      exp\n      swap1\n      div\n      0xff\n      and\n        /* \"src/contracts/MiniLend.sol\":9118:9146  return approvedTokens[token] */\n      swap2\n      pop\n        /* \"src/contracts/MiniLend.sol\":9003:9153  function isTokenApproved(... */\n      pop\n      swap2\n      swap1\n      pop\n      jump\t// out\n        /* \"src/contracts/MiniLend.sol\":2689:2734  mapping(address => address) public priceFeeds */\n    tag_125:\n      mstore(0x20, 0x02)\n      dup1\n      0x00\n      mstore\n      keccak256(0x00, 0x40)\n      0x00\n      swap2\n      pop\n      sload\n      swap1\n      0x0100\n      exp\n      swap1\n      div\n      0xffffffffffffffffffffffffffffffffffffffff\n      and\n      dup2\n      jump\t// out\n        /* \"src/contracts/MiniLend.sol\":3314:3402  address public constant ETH_ADDRESS =... */\n    tag_129:\n        /* \"src/contracts/MiniLend.sol\":3360:3402  0xEeeeeEeeeEeEeeEeEeEeeEEEeeeeEeeeeeeeEEeE */\n      0xeeeeeeeeeeeeeeeeeeeeeeeeeeeeeeeeeeeeeeee\n        /* \"src/contracts/MiniLend.sol\":3314:3402  address public constant ETH_ADDRESS =... */\n      dup2\n      jump\t// out\n        /* \"src/contracts/MiniLend.sol\":2646:2683  mapping(address => User) public users */\n    tag_134:\n      mstore(0x20, 0x01)\n      dup1\n      0x00\n      mstore\n      keccak256(0x00, 0x40)\n      0x00\n      swap2\n      pop\n      swap1\n      pop\n      dup1\n      0x00\n      add\n      0x00\n      swap1\n      sload\n      swap1\n      0x0100\n      exp\n      swap1\n      div\n      0xffffffffffffffffffffffffffffffffffffffff\n      and\n      swap1\n      dup1\n      0x01\n      add\n      sload\n      swap1\n      dup1\n      0x02\n      add\n      0x00\n      swap1\n      sload\n      swap1\n      0x0100\n      exp\n      swap1\n      div\n      0xffffffffffffffffffffffffffffffffffffffff\n      and\n      swap1\n      dup1\n      0x03\n      add\n      sload\n      swap1\n      pop\n      dup5\n      jump\t// out\n        /* \"src/contracts/MiniLend.sol\":10602:11611  function repayAsset(... */\n    tag_139:\n        /* \"src/contracts/MiniLend.sol\":10713:10718  token */\n      dup2\n        /* \"src/contracts/MiniLend.sol\":3683:3684  0 */\n      0x00\n        /* \"src/contracts/MiniLend.sol\":3667:3685  addr == address(0) */\n      0xffffffffffffffffffffffffffffffffffffffff\n      and\n        /* \"src/contracts/MiniLend.sol\":3667:3671  addr */\n      dup2\n        /* \"src/contracts/MiniLend.sol\":3667:3685  addr == address(0) */\n      0xffffffffffffffffffffffffffffffffffffffff\n      and\n      sub\n        /* \"src/contracts/MiniLend.sol\":3663:3714  if (addr == address(0)) revert InvalidAddress(addr) */\n      tag_304\n      jumpi\n        /* \"src/contracts/MiniLend.sol\":3709:3713  addr */\n      dup1\n        /* \"src/contracts/MiniLend.sol\":3694:3714  InvalidAddress(addr) */\n      mload(0x40)\n      0x8e4c8aa600000000000000000000000000000000000000000000000000000000\n      dup2\n      mstore\n      0x04\n      add\n      tag_305\n      swap2\n      swap1\n      tag_111\n      jump\t// in\n    tag_305:\n      mload(0x40)\n      dup1\n      swap2\n      sub\n      swap1\n      revert\n        /* \"src/contracts/MiniLend.sol\":3663:3714  if (addr == address(0)) revert InvalidAddress(addr) */\n    tag_304:\n        /* \"src/contracts/MiniLend.sol\":10742:10748  amount */\n      dup2\n        /* \"src/contracts/MiniLend.sol\":3801:3802  0 */\n      0x00\n        /* \"src/contracts/MiniLend.sol\":3791:3797  amount */\n      dup2\n        /* \"src/contracts/MiniLend.sol\":3791:3802  amount == 0 */\n      sub\n        /* \"src/contracts/MiniLend.sol\":3787:3826  if (amount == 0) revert InvalidAmount() */\n      tag_307\n      jumpi\n        /* \"src/contracts/MiniLend.sol\":3811:3826  InvalidAmount() */\n      mload(0x40)\n      0x2c5211c600000000000000000000000000000000000000000000000000000000\n      dup2\n      mstore\n      0x04\n      add\n      mload(0x40)\n      dup1\n      swap2\n      sub\n      swap1\n      revert\n        /* \"src/contracts/MiniLend.sol\":3787:3826  if (amount == 0) revert InvalidAmount() */\n    tag_307:\n        /* \"src/contracts/MiniLend.sol\":10776:10781  token */\n      dup4\n        /* \"src/contracts/MiniLend.sol\":3538:3552  approvedTokens */\n      0x03\n        /* \"src/contracts/MiniLend.sol\":3538:3559  approvedTokens[token] */\n      0x00\n        /* \"src/contracts/MiniLend.sol\":3553:3558  token */\n      dup3\n        /* \"src/contracts/MiniLend.sol\":3538:3559  approvedTokens[token] */\n      0xffffffffffffffffffffffffffffffffffffffff\n      and\n      0xffffffffffffffffffffffffffffffffffffffff\n      and\n      dup2\n      mstore\n      0x20\n      add\n      swap1\n      dup2\n      mstore\n      0x20\n      add\n      0x00\n      keccak256\n      0x00\n      swap1\n      sload\n      swap1\n      0x0100\n      exp\n      swap1\n      div\n      0xff\n      and\n        /* \"src/contracts/MiniLend.sol\":3533:3591  if (!approvedTokens[token]) revert TokenNotApproved(token) */\n      tag_309\n      jumpi\n        /* \"src/contracts/MiniLend.sol\":3585:3590  token */\n      dup1\n        /* \"src/contracts/MiniLend.sol\":3568:3591  TokenNotApproved(token) */\n      mload(0x40)\n      0x87921f5a00000000000000000000000000000000000000000000000000000000\n      dup2\n      mstore\n      0x04\n      add\n      tag_310\n      swap2\n      swap1\n      tag_111\n      jump\t// in\n    tag_310:\n      mload(0x40)\n      dup1\n      swap2\n      sub\n      swap1\n      revert\n        /* \"src/contracts/MiniLend.sol\":3533:3591  if (!approvedTokens[token]) revert TokenNotApproved(token) */\n    tag_309:\n        /* \"src/contracts/MiniLend.sol\":10797:10814  User storage user */\n      0x00\n        /* \"src/contracts/MiniLend.sol\":10817:10834  _user(msg.sender) */\n      tag_312\n        /* \"src/contracts/MiniLend.sol\":10823:10833  msg.sender */\n      caller\n        /* \"src/contracts/MiniLend.sol\":10817:10822  _user */\n      tag_170\n        /* \"src/contracts/MiniLend.sol\":10817:10834  _user(msg.sender) */\n      jump\t// in\n    tag_312:\n        /* \"src/contracts/MiniLend.sol\":10797:10834  User storage user = _user(msg.sender) */\n      swap1\n      pop\n        /* \"src/contracts/MiniLend.sol\":10849:10876  _activePosition(msg.sender) */\n      tag_313\n        /* \"src/contracts/MiniLend.sol\":10865:10875  msg.sender */\n      caller\n        /* \"src/contracts/MiniLend.sol\":10849:10864  _activePosition */\n      tag_314\n        /* \"src/contracts/MiniLend.sol\":10849:10876  _activePosition(msg.sender) */\n      jump\t// in\n    tag_313:\n        /* \"src/contracts/MiniLend.sol\":10844:10903  if (!_activePosition(msg.sender)) revert NoActivePosition() */\n      tag_315\n      jumpi\n        /* \"src/contracts/MiniLend.sol\":10885:10903  NoActivePosition() */\n      mload(0x40)\n      0x33cbf2bc00000000000000000000000000000000000000000000000000000000\n      dup2\n      mstore\n      0x04\n      add\n      mload(0x40)\n      dup1\n      swap2\n      sub\n      swap1\n      revert\n        /* \"src/contracts/MiniLend.sol\":10844:10903  if (!_activePosition(msg.sender)) revert NoActivePosition() */\n    tag_315:\n        /* \"src/contracts/MiniLend.sol\":10918:10960  _repayWithBorrowedAsset(msg.sender, token) */\n      tag_316\n        /* \"src/contracts/MiniLend.sol\":10942:10952  msg.sender */\n      caller\n        /* \"src/contracts/MiniLend.sol\":10954:10959  token */\n      dup8\n        /* \"src/contracts/MiniLend.sol\":10918:10941  _repayWithBorrowedAsset */\n      tag_317\n        /* \"src/contracts/MiniLend.sol\":10918:10960  _repayWithBorrowedAsset(msg.sender, token) */\n      jump\t// in\n    tag_316:\n        /* \"src/contracts/MiniLend.sol\":10913:11000  if (!_repayWithBorrowedAsset(msg.sender, token))... */\n      tag_318\n      jumpi\n        /* \"src/contracts/MiniLend.sol\":10994:10999  token */\n      dup6\n        /* \"src/contracts/MiniLend.sol\":10981:11000  InvalidAsset(token) */\n      mload(0x40)\n      0x6f79c78a00000000000000000000000000000000000000000000000000000000\n      dup2\n      mstore\n      0x04\n      add\n      tag_319\n      swap2\n      swap1\n      tag_111\n      jump\t// in\n    tag_319:\n      mload(0x40)\n      dup1\n      swap2\n      sub\n      swap1\n      revert\n        /* \"src/contracts/MiniLend.sol\":10913:11000  if (!_repayWithBorrowedAsset(msg.sender, token))... */\n    tag_318:\n        /* \"src/contracts/MiniLend.sol\":11024:11028  user */\n      dup1\n        /* \"src/contracts/MiniLend.sol\":11024:11048  user.borrowedAssetAmount */\n      0x03\n      add\n      sload\n        /* \"src/contracts/MiniLend.sol\":11015:11021  amount */\n      dup6\n        /* \"src/contracts/MiniLend.sol\":11015:11048  amount > user.borrowedAssetAmount */\n      gt\n        /* \"src/contracts/MiniLend.sol\":11011:11126  if (amount > user.borrowedAssetAmount)... */\n      iszero\n      tag_320\n      jumpi\n        /* \"src/contracts/MiniLend.sol\":11093:11099  amount */\n      dup5\n        /* \"src/contracts/MiniLend.sol\":11101:11105  user */\n      dup2\n        /* \"src/contracts/MiniLend.sol\":11101:11125  user.borrowedAssetAmount */\n      0x03\n      add\n      sload\n        /* \"src/contracts/MiniLend.sol\":11069:11126  OverPaymentNotSupported(amount, user.borrowedAssetAmount) */\n      mload(0x40)\n      0x99bcd81300000000000000000000000000000000000000000000000000000000\n      dup2\n      mstore\n      0x04\n      add\n      tag_321\n      swap3\n      swap2\n      swap1\n      tag_178\n      jump\t// in\n    tag_321:\n      mload(0x40)\n      dup1\n      swap2\n      sub\n      swap1\n      revert\n        /* \"src/contracts/MiniLend.sol\":11011:11126  if (amount > user.borrowedAssetAmount)... */\n    tag_320:\n        /* \"src/contracts/MiniLend.sol\":11188:11192  user */\n      dup1\n        /* \"src/contracts/MiniLend.sol\":11188:11206  user.borrowedAsset */\n      0x02\n      add\n      0x00\n      swap1\n      sload\n      swap1\n      0x0100\n      exp\n      swap1\n      div\n      0xffffffffffffffffffffffffffffffffffffffff\n      and\n        /* \"src/contracts/MiniLend.sol\":11181:11220  IERC20(user.borrowedAsset).transferFrom */\n      0xffffffffffffffffffffffffffffffffffffffff\n      and\n      0x23b872dd\n        /* \"src/contracts/MiniLend.sol\":11238:11248  msg.sender */\n      caller\n        /* \"src/contracts/MiniLend.sol\":11274:11278  this */\n      address\n        /* \"src/contracts/MiniLend.sol\":11297:11303  amount */\n      dup9\n        /* \"src/contracts/MiniLend.sol\":11181:11317  IERC20(user.borrowedAsset).transferFrom(... */\n      mload(0x40)\n      dup5\n      0xffffffff\n      and\n      0xe0\n      shl\n      dup2\n      mstore\n      0x04\n      add\n      tag_322\n      swap4\n      swap3\n      swap2\n      swap1\n      tag_323\n      jump\t// in\n    tag_322:\n      0x20\n      mload(0x40)\n      dup1\n      dup4\n      sub\n      dup2\n      0x00\n      dup8\n      gas\n      call\n      iszero\n      dup1\n      iszero\n      tag_325\n      jumpi\n      returndatacopy(0x00, 0x00, returndatasize)\n      revert(0x00, returndatasize)\n    tag_325:\n      pop\n      pop\n      pop\n      pop\n      mload(0x40)\n      returndatasize\n      not(0x1f)\n      0x1f\n      dup3\n      add\n      and\n      dup3\n      add\n      dup1\n      0x40\n      mstore\n      pop\n      dup2\n      add\n      swap1\n      tag_326\n      swap2\n      swap1\n      tag_327\n      jump\t// in\n    tag_326:\n        /* \"src/contracts/MiniLend.sol\":11163:11389  if (... */\n      tag_328\n      jumpi\n        /* \"src/contracts/MiniLend.sol\":11350:11354  user */\n      dup1\n        /* \"src/contracts/MiniLend.sol\":11350:11368  user.borrowedAsset */\n      0x02\n      add\n      0x00\n      swap1\n      sload\n      swap1\n      0x0100\n      exp\n      swap1\n      div\n      0xffffffffffffffffffffffffffffffffffffffff\n      and\n        /* \"src/contracts/MiniLend.sol\":11370:11380  msg.sender */\n      caller\n        /* \"src/contracts/MiniLend.sol\":11382:11388  amount */\n      dup7\n        /* \"src/contracts/MiniLend.sol\":11335:11389  TransferFailed(user.borrowedAsset, msg.sender, amount) */\n      mload(0x40)\n      0xbf182be800000000000000000000000000000000000000000000000000000000\n      dup2\n      mstore\n      0x04\n      add\n      tag_329\n      swap4\n      swap3\n      swap2\n      swap1\n      tag_323\n      jump\t// in\n    tag_329:\n      mload(0x40)\n      dup1\n      swap2\n      sub\n      swap1\n      revert\n        /* \"src/contracts/MiniLend.sol\":11163:11389  if (... */\n    tag_328:\n        /* \"src/contracts/MiniLend.sol\":11452:11458  amount */\n      dup5\n        /* \"src/contracts/MiniLend.sol\":11424:11428  user */\n      dup2\n        /* \"src/contracts/MiniLend.sol\":11424:11448  user.borrowedAssetAmount */\n      0x03\n      add\n      0x00\n        /* \"src/contracts/MiniLend.sol\":11424:11458  user.borrowedAssetAmount -= amount */\n      dup3\n      dup3\n      sload\n      tag_330\n      swap2\n      swap1\n      tag_196\n      jump\t// in\n    tag_330:\n      swap3\n      pop\n      pop\n      dup2\n      swap1\n      sstore\n      pop\n        /* \"src/contracts/MiniLend.sol\":11501:11502  0 */\n      0x00\n        /* \"src/contracts/MiniLend.sol\":11473:11477  user */\n      dup2\n        /* \"src/contracts/MiniLend.sol\":11473:11497  user.borrowedAssetAmount */\n      0x03\n      add\n      sload\n        /* \"src/contracts/MiniLend.sol\":11473:11502  user.borrowedAssetAmount == 0 */\n      sub\n        /* \"src/contracts/MiniLend.sol\":11469:11560  if (user.borrowedAssetAmount == 0) {... */\n      tag_331\n      jumpi\n        /* \"src/contracts/MiniLend.sol\":11547:11548  0 */\n      0x00\n        /* \"src/contracts/MiniLend.sol\":11518:11522  user */\n      dup2\n        /* \"src/contracts/MiniLend.sol\":11518:11536  user.borrowedAsset */\n      0x02\n      add\n      0x00\n        /* \"src/contracts/MiniLend.sol\":11518:11549  user.borrowedAsset = address(0) */\n      0x0100\n      exp\n      dup2\n      sload\n      dup2\n      0xffffffffffffffffffffffffffffffffffffffff\n      mul\n      not\n      and\n      swap1\n      dup4\n      0xffffffffffffffffffffffffffffffffffffffff\n      and\n      mul\n      or\n      swap1\n      sstore\n      pop\n        /* \"src/contracts/MiniLend.sol\":11469:11560  if (user.borrowedAssetAmount == 0) {... */\n    tag_331:\n        /* \"src/contracts/MiniLend.sol\":11585:11595  msg.sender */\n      caller\n        /* \"src/contracts/MiniLend.sol\":11575:11604  USDRepaid(msg.sender, amount) */\n      0xffffffffffffffffffffffffffffffffffffffff\n      and\n      0xb7efcc12f3d3e74e33995ff303aca806b9428989809e60a4e5a4d465832966e4\n        /* \"src/contracts/MiniLend.sol\":11597:11603  amount */\n      dup7\n        /* \"src/contracts/MiniLend.sol\":11575:11604  USDRepaid(msg.sender, amount) */\n      mload(0x40)\n      tag_332\n      swap2\n      swap1\n      tag_53\n      jump\t// in\n    tag_332:\n      mload(0x40)\n      dup1\n      swap2\n      sub\n      swap1\n      log2\n        /* \"src/contracts/MiniLend.sol\":10787:11611  {... */\n      pop\n        /* \"src/contracts/MiniLend.sol\":3836:3837  _ */\n      pop\n        /* \"src/contracts/MiniLend.sol\":3724:3725  _ */\n      pop\n        /* \"src/contracts/MiniLend.sol\":10602:11611  function repayAsset(... */\n      pop\n      pop\n      pop\n      jump\t// out\n        /* \"src/contracts/MiniLend.sol\":13073:17999  function liquidate(... */\n    tag_143:\n        /* \"lib/openzeppelin-contracts/contracts/utils/ReentrancyGuard.sol\":3023:3044  _nonReentrantBefore() */\n      tag_334\n        /* \"lib/openzeppelin-contracts/contracts/utils/ReentrancyGuard.sol\":3023:3042  _nonReentrantBefore */\n      tag_159\n        /* \"lib/openzeppelin-contracts/contracts/utils/ReentrancyGuard.sol\":3023:3044  _nonReentrantBefore() */\n      jump\t// in\n    tag_334:\n        /* \"src/contracts/MiniLend.sol\":13214:13222  borrower */\n      dup2\n        /* \"src/contracts/MiniLend.sol\":3683:3684  0 */\n      0x00\n        /* \"src/contracts/MiniLend.sol\":3667:3685  addr == address(0) */\n      0xffffffffffffffffffffffffffffffffffffffff\n      and\n        /* \"src/contracts/MiniLend.sol\":3667:3671  addr */\n      dup2\n        /* \"src/contracts/MiniLend.sol\":3667:3685  addr == address(0) */\n      0xffffffffffffffffffffffffffffffffffffffff\n      and\n      sub\n        /* \"src/contracts/MiniLend.sol\":3663:3714  if (addr == address(0)) revert InvalidAddress(addr) */\n      tag_336\n      jumpi\n        /* \"src/contracts/MiniLend.sol\":3709:3713  addr */\n      dup1\n        /* \"src/contracts/MiniLend.sol\":3694:3714  InvalidAddress(addr) */\n      mload(0x40)\n      0x8e4c8aa600000000000000000000000000000000000000000000000000000000\n      dup2\n      mstore\n      0x04\n      add\n      tag_337\n      swap2\n      swap1\n      tag_111\n      jump\t// in\n    tag_337:\n      mload(0x40)\n      dup1\n      swap2\n      sub\n      swap1\n      revert\n        /* \"src/contracts/MiniLend.sol\":3663:3714  if (addr == address(0)) revert InvalidAddress(addr) */\n    tag_336:\n        /* \"src/contracts/MiniLend.sol\":13246:13257  repayAmount */\n      dup2\n        /* \"src/contracts/MiniLend.sol\":3801:3802  0 */\n      0x00\n        /* \"src/contracts/MiniLend.sol\":3791:3797  amount */\n      dup2\n        /* \"src/contracts/MiniLend.sol\":3791:3802  amount == 0 */\n      sub\n        /* \"src/contracts/MiniLend.sol\":3787:3826  if (amount == 0) revert InvalidAmount() */\n      tag_339\n      jumpi\n        /* \"src/contracts/MiniLend.sol\":3811:3826  InvalidAmount() */\n      mload(0x40)\n      0x2c5211c600000000000000000000000000000000000000000000000000000000\n      dup2\n      mstore\n      0x04\n      add\n      mload(0x40)\n      dup1\n      swap2\n      sub\n      swap1\n      revert\n        /* \"src/contracts/MiniLend.sol\":3787:3826  if (amount == 0) revert InvalidAmount() */\n    tag_339:\n        /* \"src/contracts/MiniLend.sol\":13273:13290  User storage user */\n      0x00\n        /* \"src/contracts/MiniLend.sol\":13293:13308  _user(borrower) */\n      tag_341\n        /* \"src/contracts/MiniLend.sol\":13299:13307  borrower */\n      dup6\n        /* \"src/contracts/MiniLend.sol\":13293:13298  _user */\n      tag_170\n        /* \"src/contracts/MiniLend.sol\":13293:13308  _user(borrower) */\n      jump\t// in\n    tag_341:\n        /* \"src/contracts/MiniLend.sol\":13273:13308  User storage user = _user(borrower) */\n      swap1\n      pop\n        /* \"src/contracts/MiniLend.sol\":13323:13348  _activePosition(borrower) */\n      tag_342\n        /* \"src/contracts/MiniLend.sol\":13339:13347  borrower */\n      dup6\n        /* \"src/contracts/MiniLend.sol\":13323:13338  _activePosition */\n      tag_314\n        /* \"src/contracts/MiniLend.sol\":13323:13348  _activePosition(borrower) */\n      jump\t// in\n    tag_342:\n        /* \"src/contracts/MiniLend.sol\":13318:13375  if (!_activePosition(borrower)) revert NoActivePosition() */\n      tag_343\n      jumpi\n        /* \"src/contracts/MiniLend.sol\":13357:13375  NoActivePosition() */\n      mload(0x40)\n      0x33cbf2bc00000000000000000000000000000000000000000000000000000000\n      dup2\n      mstore\n      0x04\n      add\n      mload(0x40)\n      dup1\n      swap2\n      sub\n      swap1\n      revert\n        /* \"src/contracts/MiniLend.sol\":13318:13375  if (!_activePosition(borrower)) revert NoActivePosition() */\n    tag_343:\n        /* \"src/contracts/MiniLend.sol\":13532:13558  uint256 collateralUsdValue */\n      0x00\n        /* \"src/contracts/MiniLend.sol\":13561:13643  getUsdValue(... */\n      tag_344\n        /* \"src/contracts/MiniLend.sol\":13586:13590  user */\n      dup3\n        /* \"src/contracts/MiniLend.sol\":13586:13602  user.stakedAsset */\n      0x00\n      add\n      0x00\n      swap1\n      sload\n      swap1\n      0x0100\n      exp\n      swap1\n      div\n      0xffffffffffffffffffffffffffffffffffffffff\n      and\n        /* \"src/contracts/MiniLend.sol\":13616:13620  user */\n      dup4\n        /* \"src/contracts/MiniLend.sol\":13616:13633  user.stakedAmount */\n      0x01\n      add\n      sload\n        /* \"src/contracts/MiniLend.sol\":13561:13572  getUsdValue */\n      tag_147\n        /* \"src/contracts/MiniLend.sol\":13561:13643  getUsdValue(... */\n      jump\t// in\n    tag_344:\n        /* \"src/contracts/MiniLend.sol\":13532:13643  uint256 collateralUsdValue = getUsdValue(... */\n      swap1\n      pop\n        /* \"src/contracts/MiniLend.sol\":13653:13672  uint256 borrowedUsd */\n      0x00\n        /* \"src/contracts/MiniLend.sol\":13675:13766  getUsdValue(... */\n      tag_345\n        /* \"src/contracts/MiniLend.sol\":13700:13704  user */\n      dup4\n        /* \"src/contracts/MiniLend.sol\":13700:13718  user.borrowedAsset */\n      0x02\n      add\n      0x00\n      swap1\n      sload\n      swap1\n      0x0100\n      exp\n      swap1\n      div\n      0xffffffffffffffffffffffffffffffffffffffff\n      and\n        /* \"src/contracts/MiniLend.sol\":13732:13736  user */\n      dup5\n        /* \"src/contracts/MiniLend.sol\":13732:13756  user.borrowedAssetAmount */\n      0x03\n      add\n      sload\n        /* \"src/contracts/MiniLend.sol\":13675:13686  getUsdValue */\n      tag_147\n        /* \"src/contracts/MiniLend.sol\":13675:13766  getUsdValue(... */\n      jump\t// in\n    tag_345:\n        /* \"src/contracts/MiniLend.sol\":13653:13766  uint256 borrowedUsd = getUsdValue(... */\n      swap1\n      pop\n        /* \"src/contracts/MiniLend.sol\":13951:13971  uint256 thresholdUsd */\n      0x00\n        /* \"src/contracts/MiniLend.sol\":13974:14077  collateralUsdValue.mulDivDown(... */\n      tag_346\n        /* \"src/contracts/MiniLend.sol\":3304:3308  7500 */\n      0x1d4c\n        /* \"src/contracts/MiniLend.sol\":3213:3218  10000 */\n      0x2710\n        /* \"src/contracts/MiniLend.sol\":13974:13992  collateralUsdValue */\n      dup6\n        /* \"src/contracts/MiniLend.sol\":13974:14003  collateralUsdValue.mulDivDown */\n      tag_347\n      swap1\n        /* \"src/contracts/MiniLend.sol\":13974:14077  collateralUsdValue.mulDivDown(... */\n      swap3\n      swap2\n      swap1\n      0xffffffff\n      and\n      jump\t// in\n    tag_346:\n        /* \"src/contracts/MiniLend.sol\":13951:14077  uint256 thresholdUsd = collateralUsdValue.mulDivDown(... */\n      swap1\n      pop\n        /* \"src/contracts/MiniLend.sol\":14107:14119  thresholdUsd */\n      dup1\n        /* \"src/contracts/MiniLend.sol\":14092:14103  borrowedUsd */\n      dup3\n        /* \"src/contracts/MiniLend.sol\":14092:14119  borrowedUsd <= thresholdUsd */\n      gt\n        /* \"src/contracts/MiniLend.sol\":14088:14145  if (borrowedUsd <= thresholdUsd) revert PositionHealthy() */\n      tag_348\n      jumpi\n        /* \"src/contracts/MiniLend.sol\":14128:14145  PositionHealthy() */\n      mload(0x40)\n      0x21e660fc00000000000000000000000000000000000000000000000000000000\n      dup2\n      mstore\n      0x04\n      add\n      mload(0x40)\n      dup1\n      swap2\n      sub\n      swap1\n      revert\n        /* \"src/contracts/MiniLend.sol\":14088:14145  if (borrowedUsd <= thresholdUsd) revert PositionHealthy() */\n    tag_348:\n        /* \"src/contracts/MiniLend.sol\":14378:14379  0 */\n      0x00\n        /* \"src/contracts/MiniLend.sol\":14363:14374  closeFactor */\n      sload(0x07)\n        /* \"src/contracts/MiniLend.sol\":14363:14379  closeFactor == 0 */\n      eq\n        /* \"src/contracts/MiniLend.sol\":14363:14412  closeFactor == 0 || closeFactor > PCT_DENOMINATOR */\n      dup1\n      tag_349\n      jumpi\n      pop\n        /* \"src/contracts/MiniLend.sol\":3213:3218  10000 */\n      0x2710\n        /* \"src/contracts/MiniLend.sol\":14383:14394  closeFactor */\n      sload(0x07)\n        /* \"src/contracts/MiniLend.sol\":14383:14412  closeFactor > PCT_DENOMINATOR */\n      gt\n        /* \"src/contracts/MiniLend.sol\":14363:14412  closeFactor == 0 || closeFactor > PCT_DENOMINATOR */\n    tag_349:\n        /* \"src/contracts/MiniLend.sol\":14359:14453  if (closeFactor == 0 || closeFactor > PCT_DENOMINATOR)... */\n      iszero\n      tag_350\n      jumpi\n        /* \"src/contracts/MiniLend.sol\":14433:14453  InvalidCloseFactor() */\n      mload(0x40)\n      0xee0bdbdf00000000000000000000000000000000000000000000000000000000\n      dup2\n      mstore\n      0x04\n      add\n      mload(0x40)\n      dup1\n      swap2\n      sub\n      swap1\n      revert\n        /* \"src/contracts/MiniLend.sol\":14359:14453  if (closeFactor == 0 || closeFactor > PCT_DENOMINATOR)... */\n    tag_350:\n        /* \"src/contracts/MiniLend.sol\":14572:14595  uint256 maxRepayAllowed */\n      0x00\n        /* \"src/contracts/MiniLend.sol\":14598:14697  user.borrowedAssetAmount.mulDivDown(... */\n      tag_351\n        /* \"src/contracts/MiniLend.sol\":14647:14658  closeFactor */\n      sload(0x07)\n        /* \"src/contracts/MiniLend.sol\":3213:3218  10000 */\n      0x2710\n        /* \"src/contracts/MiniLend.sol\":14598:14602  user */\n      dup8\n        /* \"src/contracts/MiniLend.sol\":14598:14622  user.borrowedAssetAmount */\n      0x03\n      add\n      sload\n        /* \"src/contracts/MiniLend.sol\":14598:14633  user.borrowedAssetAmount.mulDivDown */\n      tag_347\n      swap1\n        /* \"src/contracts/MiniLend.sol\":14598:14697  user.borrowedAssetAmount.mulDivDown(... */\n      swap3\n      swap2\n      swap1\n      0xffffffff\n      and\n      jump\t// in\n    tag_351:\n        /* \"src/contracts/MiniLend.sol\":14572:14697  uint256 maxRepayAllowed = user.borrowedAssetAmount.mulDivDown(... */\n      swap1\n      pop\n        /* \"src/contracts/MiniLend.sol\":14708:14727  uint256 actualRepay */\n      0x00\n        /* \"src/contracts/MiniLend.sol\":14744:14759  maxRepayAllowed */\n      dup2\n        /* \"src/contracts/MiniLend.sol\":14730:14741  repayAmount */\n      dup10\n        /* \"src/contracts/MiniLend.sol\":14730:14759  repayAmount > maxRepayAllowed */\n      gt\n        /* \"src/contracts/MiniLend.sol\":14730:14815  repayAmount > maxRepayAllowed... */\n      tag_352\n      jumpi\n        /* \"src/contracts/MiniLend.sol\":14804:14815  repayAmount */\n      dup9\n        /* \"src/contracts/MiniLend.sol\":14730:14815  repayAmount > maxRepayAllowed... */\n      jump(tag_353)\n    tag_352:\n        /* \"src/contracts/MiniLend.sol\":14774:14789  maxRepayAllowed */\n      dup2\n        /* \"src/contracts/MiniLend.sol\":14730:14815  repayAmount > maxRepayAllowed... */\n    tag_353:\n        /* \"src/contracts/MiniLend.sol\":14708:14815  uint256 actualRepay = repayAmount > maxRepayAllowed... */\n      swap1\n      pop\n        /* \"src/contracts/MiniLend.sol\":14874:14895  uint256 repayUsdValue */\n      0x00\n        /* \"src/contracts/MiniLend.sol\":14898:14942  getUsdValue(user.borrowedAsset, actualRepay) */\n      tag_354\n        /* \"src/contracts/MiniLend.sol\":14910:14914  user */\n      dup8\n        /* \"src/contracts/MiniLend.sol\":14910:14928  user.borrowedAsset */\n      0x02\n      add\n      0x00\n      swap1\n      sload\n      swap1\n      0x0100\n      exp\n      swap1\n      div\n      0xffffffffffffffffffffffffffffffffffffffff\n      and\n        /* \"src/contracts/MiniLend.sol\":14930:14941  actualRepay */\n      dup4\n        /* \"src/contracts/MiniLend.sol\":14898:14909  getUsdValue */\n      tag_147\n        /* \"src/contracts/MiniLend.sol\":14898:14942  getUsdValue(user.borrowedAsset, actualRepay) */\n      jump\t// in\n    tag_354:\n        /* \"src/contracts/MiniLend.sol\":14874:14942  uint256 repayUsdValue = getUsdValue(user.borrowedAsset, actualRepay) */\n      swap1\n      pop\n        /* \"src/contracts/MiniLend.sol\":15128:15147  uint256 seizableUsd */\n      0x00\n        /* \"src/contracts/MiniLend.sol\":15150:15261  repayUsdValue.mulDivDown(... */\n      tag_355\n        /* \"src/contracts/MiniLend.sol\":15206:15222  liquidationBonus */\n      sload(0x08)\n        /* \"src/contracts/MiniLend.sol\":3213:3218  10000 */\n      0x2710\n        /* \"src/contracts/MiniLend.sol\":15188:15222  PCT_DENOMINATOR + liquidationBonus */\n      tag_356\n      swap2\n      swap1\n      tag_180\n      jump\t// in\n    tag_356:\n        /* \"src/contracts/MiniLend.sol\":3213:3218  10000 */\n      0x2710\n        /* \"src/contracts/MiniLend.sol\":15150:15163  repayUsdValue */\n      dup5\n        /* \"src/contracts/MiniLend.sol\":15150:15174  repayUsdValue.mulDivDown */\n      tag_347\n      swap1\n        /* \"src/contracts/MiniLend.sol\":15150:15261  repayUsdValue.mulDivDown(... */\n      swap3\n      swap2\n      swap1\n      0xffffffff\n      and\n      jump\t// in\n    tag_355:\n        /* \"src/contracts/MiniLend.sol\":15128:15261  uint256 seizableUsd = repayUsdValue.mulDivDown(... */\n      swap1\n      pop\n        /* \"src/contracts/MiniLend.sol\":15430:15453  uint256 collateralPrice */\n      0x00\n        /* \"src/contracts/MiniLend.sol\":15456:15488  getLatestPrice(user.stakedAsset) */\n      tag_357\n        /* \"src/contracts/MiniLend.sol\":15471:15475  user */\n      dup10\n        /* \"src/contracts/MiniLend.sol\":15471:15487  user.stakedAsset */\n      0x00\n      add\n      0x00\n      swap1\n      sload\n      swap1\n      0x0100\n      exp\n      swap1\n      div\n      0xffffffffffffffffffffffffffffffffffffffff\n      and\n        /* \"src/contracts/MiniLend.sol\":15456:15470  getLatestPrice */\n      tag_51\n        /* \"src/contracts/MiniLend.sol\":15456:15488  getLatestPrice(user.stakedAsset) */\n      jump\t// in\n    tag_357:\n        /* \"src/contracts/MiniLend.sol\":15430:15488  uint256 collateralPrice = getLatestPrice(user.stakedAsset) */\n      swap1\n      pop\n        /* \"src/contracts/MiniLend.sol\":15715:15737  uint256 seizableAmount */\n      0x00\n        /* \"src/contracts/MiniLend.sol\":15740:15784  seizableUsd.mulDivDown(WAD, collateralPrice) */\n      tag_358\n        /* \"src/contracts/MiniLend.sol\":3160:3164  1e18 */\n      0x0de0b6b3a7640000\n        /* \"src/contracts/MiniLend.sol\":15768:15783  collateralPrice */\n      dup4\n        /* \"src/contracts/MiniLend.sol\":15740:15751  seizableUsd */\n      dup6\n        /* \"src/contracts/MiniLend.sol\":15740:15762  seizableUsd.mulDivDown */\n      tag_347\n      swap1\n        /* \"src/contracts/MiniLend.sol\":15740:15784  seizableUsd.mulDivDown(WAD, collateralPrice) */\n      swap3\n      swap2\n      swap1\n      0xffffffff\n      and\n      jump\t// in\n    tag_358:\n        /* \"src/contracts/MiniLend.sol\":15715:15784  uint256 seizableAmount = seizableUsd.mulDivDown(WAD, collateralPrice) */\n      swap1\n      pop\n        /* \"src/contracts/MiniLend.sol\":15879:15883  user */\n      dup10\n        /* \"src/contracts/MiniLend.sol\":15879:15896  user.stakedAmount */\n      0x01\n      add\n      sload\n        /* \"src/contracts/MiniLend.sol\":15862:15876  seizableAmount */\n      dup2\n        /* \"src/contracts/MiniLend.sol\":15862:15896  seizableAmount > user.stakedAmount */\n      gt\n        /* \"src/contracts/MiniLend.sol\":15858:15957  if (seizableAmount > user.stakedAmount) {... */\n      iszero\n      tag_359\n      jumpi\n        /* \"src/contracts/MiniLend.sol\":15929:15933  user */\n      dup10\n        /* \"src/contracts/MiniLend.sol\":15929:15946  user.stakedAmount */\n      0x01\n      add\n      sload\n        /* \"src/contracts/MiniLend.sol\":15912:15946  seizableAmount = user.stakedAmount */\n      swap1\n      pop\n        /* \"src/contracts/MiniLend.sol\":15858:15957  if (seizableAmount > user.stakedAmount) {... */\n    tag_359:\n        /* \"src/contracts/MiniLend.sol\":16157:16161  user */\n      dup10\n        /* \"src/contracts/MiniLend.sol\":16157:16175  user.borrowedAsset */\n      0x02\n      add\n      0x00\n      swap1\n      sload\n      swap1\n      0x0100\n      exp\n      swap1\n      div\n      0xffffffffffffffffffffffffffffffffffffffff\n      and\n        /* \"src/contracts/MiniLend.sol\":16150:16189  IERC20(user.borrowedAsset).transferFrom */\n      0xffffffffffffffffffffffffffffffffffffffff\n      and\n      0x23b872dd\n        /* \"src/contracts/MiniLend.sol\":16207:16217  msg.sender */\n      caller\n        /* \"src/contracts/MiniLend.sol\":16243:16247  this */\n      address\n        /* \"src/contracts/MiniLend.sol\":16266:16277  actualRepay */\n      dup9\n        /* \"src/contracts/MiniLend.sol\":16150:16291  IERC20(user.borrowedAsset).transferFrom(... */\n      mload(0x40)\n      dup5\n      0xffffffff\n      and\n      0xe0\n      shl\n      dup2\n      mstore\n      0x04\n      add\n      tag_360\n      swap4\n      swap3\n      swap2\n      swap1\n      tag_323\n      jump\t// in\n    tag_360:\n      0x20\n      mload(0x40)\n      dup1\n      dup4\n      sub\n      dup2\n      0x00\n      dup8\n      gas\n      call\n      iszero\n      dup1\n      iszero\n      tag_362\n      jumpi\n      returndatacopy(0x00, 0x00, returndatasize)\n      revert(0x00, returndatasize)\n    tag_362:\n      pop\n      pop\n      pop\n      pop\n      mload(0x40)\n      returndatasize\n      not(0x1f)\n      0x1f\n      dup3\n      add\n      and\n      dup3\n      add\n      dup1\n      0x40\n      mstore\n      pop\n      dup2\n      add\n      swap1\n      tag_363\n      swap2\n      swap1\n      tag_327\n      jump\t// in\n    tag_363:\n        /* \"src/contracts/MiniLend.sol\":16132:16368  if (... */\n      tag_364\n      jumpi\n        /* \"src/contracts/MiniLend.sol\":16324:16328  user */\n      dup10\n        /* \"src/contracts/MiniLend.sol\":16324:16342  user.borrowedAsset */\n      0x02\n      add\n      0x00\n      swap1\n      sload\n      swap1\n      0x0100\n      exp\n      swap1\n      div\n      0xffffffffffffffffffffffffffffffffffffffff\n      and\n        /* \"src/contracts/MiniLend.sol\":16344:16354  msg.sender */\n      caller\n        /* \"src/contracts/MiniLend.sol\":16356:16367  actualRepay */\n      dup7\n        /* \"src/contracts/MiniLend.sol\":16309:16368  TransferFailed(user.borrowedAsset, msg.sender, actualRepay) */\n      mload(0x40)\n      0xbf182be800000000000000000000000000000000000000000000000000000000\n      dup2\n      mstore\n      0x04\n      add\n      tag_365\n      swap4\n      swap3\n      swap2\n      swap1\n      tag_323\n      jump\t// in\n    tag_365:\n      mload(0x40)\n      dup1\n      swap2\n      sub\n      swap1\n      revert\n        /* \"src/contracts/MiniLend.sol\":16132:16368  if (... */\n    tag_364:\n        /* \"src/contracts/MiniLend.sol\":16548:16552  user */\n      dup10\n        /* \"src/contracts/MiniLend.sol\":16548:16572  user.borrowedAssetAmount */\n      0x03\n      add\n      sload\n        /* \"src/contracts/MiniLend.sol\":16533:16544  actualRepay */\n      dup6\n        /* \"src/contracts/MiniLend.sol\":16533:16572  actualRepay >= user.borrowedAssetAmount */\n      lt\n        /* \"src/contracts/MiniLend.sol\":16529:16791  if (actualRepay >= user.borrowedAssetAmount) {... */\n      tag_366\n      jumpi\n        /* \"src/contracts/MiniLend.sol\":16697:16698  0 */\n      0x00\n        /* \"src/contracts/MiniLend.sol\":16670:16674  user */\n      dup11\n        /* \"src/contracts/MiniLend.sol\":16670:16694  user.borrowedAssetAmount */\n      0x03\n      add\n        /* \"src/contracts/MiniLend.sol\":16670:16698  user.borrowedAssetAmount = 0 */\n      dup2\n      swap1\n      sstore\n      pop\n        /* \"src/contracts/MiniLend.sol\":16778:16779  0 */\n      0x00\n        /* \"src/contracts/MiniLend.sol\":16749:16753  user */\n      dup11\n        /* \"src/contracts/MiniLend.sol\":16749:16767  user.borrowedAsset */\n      0x02\n      add\n      0x00\n        /* \"src/contracts/MiniLend.sol\":16749:16780  user.borrowedAsset = address(0) */\n      0x0100\n      exp\n      dup2\n      sload\n      dup2\n      0xffffffffffffffffffffffffffffffffffffffff\n      mul\n      not\n      and\n      swap1\n      dup4\n      0xffffffffffffffffffffffffffffffffffffffff\n      and\n      mul\n      or\n      swap1\n      sstore\n      pop\n        /* \"src/contracts/MiniLend.sol\":16529:16791  if (actualRepay >= user.borrowedAssetAmount) {... */\n    tag_366:\n        /* \"src/contracts/MiniLend.sol\":16829:16840  actualRepay */\n      dup5\n        /* \"src/contracts/MiniLend.sol\":16801:16805  user */\n      dup11\n        /* \"src/contracts/MiniLend.sol\":16801:16825  user.borrowedAssetAmount */\n      0x03\n      add\n      0x00\n        /* \"src/contracts/MiniLend.sol\":16801:16840  user.borrowedAssetAmount -= actualRepay */\n      dup3\n      dup3\n      sload\n      tag_367\n      swap2\n      swap1\n      tag_196\n      jump\t// in\n    tag_367:\n      swap3\n      pop\n      pop\n      dup2\n      swap1\n      sstore\n      pop\n        /* \"src/contracts/MiniLend.sol\":3360:3402  0xEeeeeEeeeEeEeeEeEeEeeEEEeeeeEeeeeeeeEEeE */\n      0xeeeeeeeeeeeeeeeeeeeeeeeeeeeeeeeeeeeeeeee\n        /* \"src/contracts/MiniLend.sol\":16936:16967  user.stakedAsset == ETH_ADDRESS */\n      0xffffffffffffffffffffffffffffffffffffffff\n      and\n        /* \"src/contracts/MiniLend.sol\":16936:16940  user */\n      dup11\n        /* \"src/contracts/MiniLend.sol\":16936:16952  user.stakedAsset */\n      0x00\n      add\n      0x00\n      swap1\n      sload\n      swap1\n      0x0100\n      exp\n      swap1\n      div\n      0xffffffffffffffffffffffffffffffffffffffff\n      and\n        /* \"src/contracts/MiniLend.sol\":16936:16967  user.stakedAsset == ETH_ADDRESS */\n      0xffffffffffffffffffffffffffffffffffffffff\n      and\n      sub\n        /* \"src/contracts/MiniLend.sol\":16932:17252  if (user.stakedAsset == ETH_ADDRESS) {... */\n      tag_368\n      jumpi\n        /* \"src/contracts/MiniLend.sol\":17072:17081  bool sent */\n      0x00\n        /* \"src/contracts/MiniLend.sol\":17095:17105  msg.sender */\n      caller\n        /* \"src/contracts/MiniLend.sol\":17087:17111  payable(msg.sender).call */\n      0xffffffffffffffffffffffffffffffffffffffff\n      and\n        /* \"src/contracts/MiniLend.sol\":17119:17133  seizableAmount */\n      dup3\n        /* \"src/contracts/MiniLend.sol\":17087:17138  payable(msg.sender).call{value: seizableAmount}(\"\") */\n      mload(0x40)\n      tag_369\n      swap1\n      tag_370\n      jump\t// in\n    tag_369:\n      0x00\n      mload(0x40)\n      dup1\n      dup4\n      sub\n      dup2\n      dup6\n      dup8\n      gas\n      call\n      swap3\n      pop\n      pop\n      pop\n      returndatasize\n      dup1\n      0x00\n      dup2\n      eq\n      tag_373\n      jumpi\n      mload(0x40)\n      swap2\n      pop\n      and(add(returndatasize, 0x3f), not(0x1f))\n      dup3\n      add\n      0x40\n      mstore\n      returndatasize\n      dup3\n      mstore\n      returndatasize\n      0x00\n      0x20\n      dup5\n      add\n      returndatacopy\n      jump(tag_372)\n    tag_373:\n      0x60\n      swap2\n      pop\n    tag_372:\n      pop\n        /* \"src/contracts/MiniLend.sol\":17071:17138  (bool sent, ) = payable(msg.sender).call{value: seizableAmount}(\"\") */\n      pop\n      swap1\n      pop\n        /* \"src/contracts/MiniLend.sol\":17157:17161  sent */\n      dup1\n        /* \"src/contracts/MiniLend.sol\":17152:17241  if (!sent)... */\n      tag_374\n      jumpi\n        /* \"src/contracts/MiniLend.sol\":3360:3402  0xEeeeeEeeeEeEeeEeEeEeeEEEeeeeEeeeeeeeEEeE */\n      0xeeeeeeeeeeeeeeeeeeeeeeeeeeeeeeeeeeeeeeee\n        /* \"src/contracts/MiniLend.sol\":17214:17224  msg.sender */\n      caller\n        /* \"src/contracts/MiniLend.sol\":17226:17240  seizableAmount */\n      dup4\n        /* \"src/contracts/MiniLend.sol\":17186:17241  TransferFailed(ETH_ADDRESS, msg.sender, seizableAmount) */\n      mload(0x40)\n      0xbf182be800000000000000000000000000000000000000000000000000000000\n      dup2\n      mstore\n      0x04\n      add\n      tag_375\n      swap4\n      swap3\n      swap2\n      swap1\n      tag_323\n      jump\t// in\n    tag_375:\n      mload(0x40)\n      dup1\n      swap2\n      sub\n      swap1\n      revert\n        /* \"src/contracts/MiniLend.sol\":17152:17241  if (!sent)... */\n    tag_374:\n        /* \"src/contracts/MiniLend.sol\":16969:17252  {... */\n      pop\n        /* \"src/contracts/MiniLend.sol\":16932:17252  if (user.stakedAsset == ETH_ADDRESS) {... */\n    tag_368:\n        /* \"src/contracts/MiniLend.sol\":17312:17326  seizableAmount */\n      dup1\n        /* \"src/contracts/MiniLend.sol\":17291:17295  user */\n      dup11\n        /* \"src/contracts/MiniLend.sol\":17291:17308  user.stakedAmount */\n      0x01\n      add\n      0x00\n        /* \"src/contracts/MiniLend.sol\":17291:17326  user.stakedAmount -= seizableAmount */\n      dup3\n      dup3\n      sload\n      tag_376\n      swap2\n      swap1\n      tag_196\n      jump\t// in\n    tag_376:\n      swap3\n      pop\n      pop\n      dup2\n      swap1\n      sstore\n      pop\n        /* \"src/contracts/MiniLend.sol\":17362:17363  0 */\n      0x00\n        /* \"src/contracts/MiniLend.sol\":17341:17345  user */\n      dup11\n        /* \"src/contracts/MiniLend.sol\":17341:17358  user.stakedAmount */\n      0x01\n      add\n      sload\n        /* \"src/contracts/MiniLend.sol\":17341:17363  user.stakedAmount == 0 */\n      sub\n        /* \"src/contracts/MiniLend.sol\":17337:17408  if (user.stakedAmount == 0) {... */\n      tag_377\n      jumpi\n        /* \"src/contracts/MiniLend.sol\":17379:17397  _default(borrower) */\n      tag_378\n        /* \"src/contracts/MiniLend.sol\":17388:17396  borrower */\n      dup15\n        /* \"src/contracts/MiniLend.sol\":17379:17387  _default */\n      tag_379\n        /* \"src/contracts/MiniLend.sol\":17379:17397  _default(borrower) */\n      jump\t// in\n    tag_378:\n        /* \"src/contracts/MiniLend.sol\":17337:17408  if (user.stakedAmount == 0) {... */\n    tag_377:\n        /* \"src/contracts/MiniLend.sol\":17954:17962  borrower */\n      dup14\n        /* \"src/contracts/MiniLend.sol\":17930:17992  Liquidation(msg.sender, borrower, actualRepay, seizableAmount) */\n      0xffffffffffffffffffffffffffffffffffffffff\n      and\n        /* \"src/contracts/MiniLend.sol\":17942:17952  msg.sender */\n      caller\n        /* \"src/contracts/MiniLend.sol\":17930:17992  Liquidation(msg.sender, borrower, actualRepay, seizableAmount) */\n      0xffffffffffffffffffffffffffffffffffffffff\n      and\n      0x4ecae3269f800df64b16cb9f6f8b0b507018888521d1cff0841823e44bc0b00d\n        /* \"src/contracts/MiniLend.sol\":17964:17975  actualRepay */\n      dup8\n        /* \"src/contracts/MiniLend.sol\":17977:17991  seizableAmount */\n      dup5\n        /* \"src/contracts/MiniLend.sol\":17930:17992  Liquidation(msg.sender, borrower, actualRepay, seizableAmount) */\n      mload(0x40)\n      tag_380\n      swap3\n      swap2\n      swap1\n      tag_178\n      jump\t// in\n    tag_380:\n      mload(0x40)\n      dup1\n      swap2\n      sub\n      swap1\n      log3\n        /* \"src/contracts/MiniLend.sol\":13263:17999  {... */\n      pop\n      pop\n      pop\n      pop\n      pop\n      pop\n      pop\n      pop\n      pop\n      pop\n        /* \"src/contracts/MiniLend.sol\":3724:3725  _ */\n      pop\n        /* \"lib/openzeppelin-contracts/contracts/utils/ReentrancyGuard.sol\":3054:3055  _ */\n      pop\n        /* \"lib/openzeppelin-contracts/contracts/utils/ReentrancyGuard.sol\":3065:3085  _nonReentrantAfter() */\n      tag_381\n        /* \"lib/openzeppelin-contracts/contracts/utils/ReentrancyGuard.sol\":3065:3083  _nonReentrantAfter */\n      tag_185\n        /* \"lib/openzeppelin-contracts/contracts/utils/ReentrancyGuard.sol\":3065:3085  _nonReentrantAfter() */\n      jump\t// in\n    tag_381:\n        /* \"src/contracts/MiniLend.sol\":13073:17999  function liquidate(... */\n      pop\n      pop\n      jump\t// out\n        /* \"src/contracts/MiniLend.sol\":7295:8057  function getUsdValue(... */\n    tag_147:\n        /* \"src/contracts/MiniLend.sol\":7390:7406  uint256 usdValue */\n      0x00\n        /* \"src/contracts/MiniLend.sol\":7484:7497  uint256 price */\n      0x00\n        /* \"src/contracts/MiniLend.sol\":7508:7529  getLatestPrice(token) */\n      tag_383\n        /* \"src/contracts/MiniLend.sol\":7523:7528  token */\n      dup5\n        /* \"src/contracts/MiniLend.sol\":7508:7522  getLatestPrice */\n      tag_51\n        /* \"src/contracts/MiniLend.sol\":7508:7529  getLatestPrice(token) */\n      jump\t// in\n    tag_383:\n        /* \"src/contracts/MiniLend.sol\":7484:7530  uint256 price = uint256(getLatestPrice(token)) */\n      swap1\n      pop\n        /* \"src/contracts/MiniLend.sol\":7568:7569  0 */\n      0x00\n        /* \"src/contracts/MiniLend.sol\":7559:7564  price */\n      dup2\n        /* \"src/contracts/MiniLend.sol\":7559:7569  price == 0 */\n      sub\n        /* \"src/contracts/MiniLend.sol\":7555:7579  if (price == 0) return 0 */\n      tag_384\n      jumpi\n        /* \"src/contracts/MiniLend.sol\":7578:7579  0 */\n      0x00\n        /* \"src/contracts/MiniLend.sol\":7571:7579  return 0 */\n      swap2\n      pop\n      pop\n      jump(tag_382)\n        /* \"src/contracts/MiniLend.sol\":7555:7579  if (price == 0) return 0 */\n    tag_384:\n        /* \"src/contracts/MiniLend.sol\":7620:7634  uint8 decimals */\n      0x00\n        /* \"src/contracts/MiniLend.sol\":3360:3402  0xEeeeeEeeeEeEeeEeEeEeeEEEeeeeEeeeeeeeEEeE */\n      0xeeeeeeeeeeeeeeeeeeeeeeeeeeeeeeeeeeeeeeee\n        /* \"src/contracts/MiniLend.sol\":7637:7657  token == ETH_ADDRESS */\n      0xffffffffffffffffffffffffffffffffffffffff\n      and\n        /* \"src/contracts/MiniLend.sol\":7637:7642  token */\n      dup6\n        /* \"src/contracts/MiniLend.sol\":7637:7657  token == ETH_ADDRESS */\n      0xffffffffffffffffffffffffffffffffffffffff\n      and\n      eq\n        /* \"src/contracts/MiniLend.sol\":7637:7721  token == ETH_ADDRESS... */\n      tag_385\n      jumpi\n        /* \"src/contracts/MiniLend.sol\":7704:7709  token */\n      dup5\n        /* \"src/contracts/MiniLend.sol\":7689:7719  IERC20Metadata(token).decimals */\n      0xffffffffffffffffffffffffffffffffffffffff\n      and\n      0x313ce567\n        /* \"src/contracts/MiniLend.sol\":7689:7721  IERC20Metadata(token).decimals() */\n      mload(0x40)\n      dup2\n      0xffffffff\n      and\n      0xe0\n      shl\n      dup2\n      mstore\n      0x04\n      add\n      0x20\n      mload(0x40)\n      dup1\n      dup4\n      sub\n      dup2\n      dup7\n      gas\n      staticcall\n      iszero\n      dup1\n      iszero\n      tag_387\n      jumpi\n      returndatacopy(0x00, 0x00, returndatasize)\n      revert(0x00, returndatasize)\n    tag_387:\n      pop\n      pop\n      pop\n      pop\n      mload(0x40)\n      returndatasize\n      not(0x1f)\n      0x1f\n      dup3\n      add\n      and\n      dup3\n      add\n      dup1\n      0x40\n      mstore\n      pop\n      dup2\n      add\n      swap1\n      tag_388\n      swap2\n      swap1\n      tag_230\n      jump\t// in\n    tag_388:\n        /* \"src/contracts/MiniLend.sol\":7637:7721  token == ETH_ADDRESS... */\n      jump(tag_389)\n    tag_385:\n        /* \"src/contracts/MiniLend.sol\":7672:7674  18 */\n      0x12\n        /* \"src/contracts/MiniLend.sol\":7637:7721  token == ETH_ADDRESS... */\n    tag_389:\n        /* \"src/contracts/MiniLend.sol\":7620:7721  uint8 decimals = token == ETH_ADDRESS... */\n      swap1\n      pop\n        /* \"src/contracts/MiniLend.sol\":7747:7749  18 */\n      0x12\n        /* \"src/contracts/MiniLend.sol\":7736:7744  decimals */\n      dup2\n        /* \"src/contracts/MiniLend.sol\":7736:7749  decimals > 18 */\n      0xff\n      and\n      gt\n        /* \"src/contracts/MiniLend.sol\":7732:7775  if (decimals > 18) revert InvalidDecimals() */\n      iszero\n      tag_390\n      jumpi\n        /* \"src/contracts/MiniLend.sol\":7758:7775  InvalidDecimals() */\n      mload(0x40)\n      0xd25598a000000000000000000000000000000000000000000000000000000000\n      dup2\n      mstore\n      0x04\n      add\n      mload(0x40)\n      dup1\n      swap2\n      sub\n      swap1\n      revert\n        /* \"src/contracts/MiniLend.sol\":7732:7775  if (decimals > 18) revert InvalidDecimals() */\n    tag_390:\n        /* \"src/contracts/MiniLend.sol\":7835:7853  uint256 normalized */\n      0x00\n        /* \"src/contracts/MiniLend.sol\":7878:7886  decimals */\n      dup2\n        /* \"src/contracts/MiniLend.sol\":7873:7875  18 */\n      0x12\n        /* \"src/contracts/MiniLend.sol\":7873:7886  18 - decimals */\n      tag_391\n      swap2\n      swap1\n      tag_233\n      jump\t// in\n    tag_391:\n        /* \"src/contracts/MiniLend.sol\":7866:7868  10 */\n      0x0a\n        /* \"src/contracts/MiniLend.sol\":7866:7887  10 ** (18 - decimals) */\n      tag_392\n      swap2\n      swap1\n      tag_235\n      jump\t// in\n    tag_392:\n        /* \"src/contracts/MiniLend.sol\":7856:7862  amount */\n      dup6\n        /* \"src/contracts/MiniLend.sol\":7856:7888  amount * (10 ** (18 - decimals)) */\n      tag_393\n      swap2\n      swap1\n      tag_237\n      jump\t// in\n    tag_393:\n        /* \"src/contracts/MiniLend.sol\":7835:7888  uint256 normalized = amount * (10 ** (18 - decimals)) */\n      swap1\n      pop\n        /* \"src/contracts/MiniLend.sol\":8017:8050  normalized.mulDivDown(price, WAD) */\n      tag_394\n        /* \"src/contracts/MiniLend.sol\":8039:8044  price */\n      dup4\n        /* \"src/contracts/MiniLend.sol\":3160:3164  1e18 */\n      0x0de0b6b3a7640000\n        /* \"src/contracts/MiniLend.sol\":8017:8027  normalized */\n      dup4\n        /* \"src/contracts/MiniLend.sol\":8017:8038  normalized.mulDivDown */\n      tag_347\n      swap1\n        /* \"src/contracts/MiniLend.sol\":8017:8050  normalized.mulDivDown(price, WAD) */\n      swap3\n      swap2\n      swap1\n      0xffffffff\n      and\n      jump\t// in\n    tag_394:\n        /* \"src/contracts/MiniLend.sol\":8010:8050  return normalized.mulDivDown(price, WAD) */\n      swap4\n      pop\n      pop\n      pop\n      pop\n        /* \"src/contracts/MiniLend.sol\":7295:8057  function getUsdValue(... */\n    tag_382:\n      swap3\n      swap2\n      pop\n      pop\n      jump\t// out\n        /* \"src/contracts/MiniLend.sol\":11692:12571  function withdrawCollateralEth(... */\n    tag_152:\n        /* \"lib/openzeppelin-contracts/contracts/utils/ReentrancyGuard.sol\":3023:3044  _nonReentrantBefore() */\n      tag_396\n        /* \"lib/openzeppelin-contracts/contracts/utils/ReentrancyGuard.sol\":3023:3042  _nonReentrantBefore */\n      tag_159\n        /* \"lib/openzeppelin-contracts/contracts/utils/ReentrancyGuard.sol\":3023:3044  _nonReentrantBefore() */\n      jump\t// in\n    tag_396:\n        /* \"src/contracts/MiniLend.sol\":11787:11793  amount */\n      dup1\n        /* \"src/contracts/MiniLend.sol\":3801:3802  0 */\n      0x00\n        /* \"src/contracts/MiniLend.sol\":3791:3797  amount */\n      dup2\n        /* \"src/contracts/MiniLend.sol\":3791:3802  amount == 0 */\n      sub\n        /* \"src/contracts/MiniLend.sol\":3787:3826  if (amount == 0) revert InvalidAmount() */\n      tag_398\n      jumpi\n        /* \"src/contracts/MiniLend.sol\":3811:3826  InvalidAmount() */\n      mload(0x40)\n      0x2c5211c600000000000000000000000000000000000000000000000000000000\n      dup2\n      mstore\n      0x04\n      add\n      mload(0x40)\n      dup1\n      swap2\n      sub\n      swap1\n      revert\n        /* \"src/contracts/MiniLend.sol\":3787:3826  if (amount == 0) revert InvalidAmount() */\n    tag_398:\n        /* \"src/contracts/MiniLend.sol\":11805:11822  User storage user */\n      0x00\n        /* \"src/contracts/MiniLend.sol\":11825:11842  _user(msg.sender) */\n      tag_400\n        /* \"src/contracts/MiniLend.sol\":11831:11841  msg.sender */\n      caller\n        /* \"src/contracts/MiniLend.sol\":11825:11830  _user */\n      tag_170\n        /* \"src/contracts/MiniLend.sol\":11825:11842  _user(msg.sender) */\n      jump\t// in\n    tag_400:\n        /* \"src/contracts/MiniLend.sol\":11805:11842  User storage user = _user(msg.sender) */\n      swap1\n      pop\n        /* \"src/contracts/MiniLend.sol\":11884:11885  0 */\n      0x00\n        /* \"src/contracts/MiniLend.sol\":11856:11860  user */\n      dup2\n        /* \"src/contracts/MiniLend.sol\":11856:11880  user.borrowedAssetAmount */\n      0x03\n      add\n      sload\n        /* \"src/contracts/MiniLend.sol\":11856:11885  user.borrowedAssetAmount != 0 */\n      eq\n        /* \"src/contracts/MiniLend.sol\":11852:11960  if (user.borrowedAssetAmount != 0)... */\n      tag_401\n      jumpi\n        /* \"src/contracts/MiniLend.sol\":11935:11939  user */\n      dup1\n        /* \"src/contracts/MiniLend.sol\":11935:11959  user.borrowedAssetAmount */\n      0x03\n      add\n      sload\n        /* \"src/contracts/MiniLend.sol\":11906:11960  BorrowedAmountNotFullyRepaid(user.borrowedAssetAmount) */\n      mload(0x40)\n      0x40a636fb00000000000000000000000000000000000000000000000000000000\n      dup2\n      mstore\n      0x04\n      add\n      tag_402\n      swap2\n      swap1\n      tag_53\n      jump\t// in\n    tag_402:\n      mload(0x40)\n      dup1\n      swap2\n      sub\n      swap1\n      revert\n        /* \"src/contracts/MiniLend.sol\":11852:11960  if (user.borrowedAssetAmount != 0)... */\n    tag_401:\n        /* \"src/contracts/MiniLend.sol\":11983:11987  user */\n      dup1\n        /* \"src/contracts/MiniLend.sol\":11983:12000  user.stakedAmount */\n      0x01\n      add\n      sload\n        /* \"src/contracts/MiniLend.sol\":11974:11980  amount */\n      dup4\n        /* \"src/contracts/MiniLend.sol\":11974:12000  amount > user.stakedAmount */\n      gt\n        /* \"src/contracts/MiniLend.sol\":11970:12067  if (amount > user.stakedAmount)... */\n      iszero\n      tag_403\n      jumpi\n        /* \"src/contracts/MiniLend.sol\":12041:12045  user */\n      dup1\n        /* \"src/contracts/MiniLend.sol\":12041:12058  user.stakedAmount */\n      0x01\n      add\n      sload\n        /* \"src/contracts/MiniLend.sol\":12060:12066  amount */\n      dup4\n        /* \"src/contracts/MiniLend.sol\":12021:12067  NotEnoughCollateral(user.stakedAmount, amount) */\n      mload(0x40)\n      0x768063db00000000000000000000000000000000000000000000000000000000\n      dup2\n      mstore\n      0x04\n      add\n      tag_404\n      swap3\n      swap2\n      swap1\n      tag_178\n      jump\t// in\n    tag_404:\n      mload(0x40)\n      dup1\n      swap2\n      sub\n      swap1\n      revert\n        /* \"src/contracts/MiniLend.sol\":11970:12067  if (amount > user.stakedAmount)... */\n    tag_403:\n        /* \"src/contracts/MiniLend.sol\":12130:12136  amount */\n      dup3\n        /* \"src/contracts/MiniLend.sol\":12106:12127  address(this).balance */\n      selfbalance\n        /* \"src/contracts/MiniLend.sol\":12106:12136  address(this).balance < amount */\n      lt\n        /* \"src/contracts/MiniLend.sol\":12102:12211  if (address(this).balance < amount)... */\n      iszero\n      tag_405\n      jumpi\n        /* \"src/contracts/MiniLend.sol\":12181:12202  address(this).balance */\n      selfbalance\n        /* \"src/contracts/MiniLend.sol\":12204:12210  amount */\n      dup4\n        /* \"src/contracts/MiniLend.sol\":12157:12211  InsufficientPoolBalance(address(this).balance, amount) */\n      mload(0x40)\n      0xce9514f900000000000000000000000000000000000000000000000000000000\n      dup2\n      mstore\n      0x04\n      add\n      tag_406\n      swap3\n      swap2\n      swap1\n      tag_178\n      jump\t// in\n    tag_406:\n      mload(0x40)\n      dup1\n      swap2\n      sub\n      swap1\n      revert\n        /* \"src/contracts/MiniLend.sol\":12102:12211  if (address(this).balance < amount)... */\n    tag_405:\n        /* \"src/contracts/MiniLend.sol\":12223:12235  bool success */\n      0x00\n        /* \"src/contracts/MiniLend.sol\":12249:12259  msg.sender */\n      caller\n        /* \"src/contracts/MiniLend.sol\":12241:12265  address(msg.sender).call */\n      0xffffffffffffffffffffffffffffffffffffffff\n      and\n        /* \"src/contracts/MiniLend.sol\":12273:12279  amount */\n      dup5\n        /* \"src/contracts/MiniLend.sol\":12241:12284  address(msg.sender).call{value: amount}(\"\") */\n      mload(0x40)\n      tag_407\n      swap1\n      tag_370\n      jump\t// in\n    tag_407:\n      0x00\n      mload(0x40)\n      dup1\n      dup4\n      sub\n      dup2\n      dup6\n      dup8\n      gas\n      call\n      swap3\n      pop\n      pop\n      pop\n      returndatasize\n      dup1\n      0x00\n      dup2\n      eq\n      tag_410\n      jumpi\n      mload(0x40)\n      swap2\n      pop\n      and(add(returndatasize, 0x3f), not(0x1f))\n      dup3\n      add\n      0x40\n      mstore\n      returndatasize\n      dup3\n      mstore\n      returndatasize\n      0x00\n      0x20\n      dup5\n      add\n      returndatacopy\n      jump(tag_409)\n    tag_410:\n      0x60\n      swap2\n      pop\n    tag_409:\n      pop\n        /* \"src/contracts/MiniLend.sol\":12222:12284  (bool success, ) = address(msg.sender).call{value: amount}(\"\") */\n      pop\n      swap1\n      pop\n        /* \"src/contracts/MiniLend.sol\":12299:12306  success */\n      dup1\n        /* \"src/contracts/MiniLend.sol\":12294:12361  if (!success) revert TransferFailed(address(0), msg.sender, amount) */\n      tag_411\n      jumpi\n        /* \"src/contracts/MiniLend.sol\":12338:12339  0 */\n      0x00\n        /* \"src/contracts/MiniLend.sol\":12342:12352  msg.sender */\n      caller\n        /* \"src/contracts/MiniLend.sol\":12354:12360  amount */\n      dup6\n        /* \"src/contracts/MiniLend.sol\":12315:12361  TransferFailed(address(0), msg.sender, amount) */\n      mload(0x40)\n      0xbf182be800000000000000000000000000000000000000000000000000000000\n      dup2\n      mstore\n      0x04\n      add\n      tag_412\n      swap4\n      swap3\n      swap2\n      swap1\n      tag_323\n      jump\t// in\n    tag_412:\n      mload(0x40)\n      dup1\n      swap2\n      sub\n      swap1\n      revert\n        /* \"src/contracts/MiniLend.sol\":12294:12361  if (!success) revert TransferFailed(address(0), msg.sender, amount) */\n    tag_411:\n        /* \"src/contracts/MiniLend.sol\":12417:12423  amount */\n      dup4\n        /* \"src/contracts/MiniLend.sol\":12396:12400  user */\n      dup3\n        /* \"src/contracts/MiniLend.sol\":12396:12413  user.stakedAmount */\n      0x01\n      add\n      0x00\n        /* \"src/contracts/MiniLend.sol\":12396:12423  user.stakedAmount -= amount */\n      dup3\n      dup3\n      sload\n      tag_413\n      swap2\n      swap1\n      tag_196\n      jump\t// in\n    tag_413:\n      swap3\n      pop\n      pop\n      dup2\n      swap1\n      sstore\n      pop\n        /* \"src/contracts/MiniLend.sol\":12459:12460  0 */\n      0x00\n        /* \"src/contracts/MiniLend.sol\":12438:12442  user */\n      dup3\n        /* \"src/contracts/MiniLend.sol\":12438:12455  user.stakedAmount */\n      0x01\n      add\n      sload\n        /* \"src/contracts/MiniLend.sol\":12438:12460  user.stakedAmount == 0 */\n      sub\n        /* \"src/contracts/MiniLend.sol\":12434:12507  if (user.stakedAmount == 0) {... */\n      tag_414\n      jumpi\n        /* \"src/contracts/MiniLend.sol\":12476:12496  _default(msg.sender) */\n      tag_415\n        /* \"src/contracts/MiniLend.sol\":12485:12495  msg.sender */\n      caller\n        /* \"src/contracts/MiniLend.sol\":12476:12484  _default */\n      tag_379\n        /* \"src/contracts/MiniLend.sol\":12476:12496  _default(msg.sender) */\n      jump\t// in\n    tag_415:\n        /* \"src/contracts/MiniLend.sol\":12434:12507  if (user.stakedAmount == 0) {... */\n    tag_414:\n        /* \"src/contracts/MiniLend.sol\":12545:12555  msg.sender */\n      caller\n        /* \"src/contracts/MiniLend.sol\":12522:12564  ETHCollateralWithdrawn(msg.sender, amount) */\n      0xffffffffffffffffffffffffffffffffffffffff\n      and\n      0x5b0743acabce0ea09498b3c2598ed444f80ef6513a2029d7d9aaed87064d1edb\n        /* \"src/contracts/MiniLend.sol\":12557:12563  amount */\n      dup6\n        /* \"src/contracts/MiniLend.sol\":12522:12564  ETHCollateralWithdrawn(msg.sender, amount) */\n      mload(0x40)\n      tag_416\n      swap2\n      swap1\n      tag_53\n      jump\t// in\n    tag_416:\n      mload(0x40)\n      dup1\n      swap2\n      sub\n      swap1\n      log2\n        /* \"src/contracts/MiniLend.sol\":11795:12571  {... */\n      pop\n      pop\n        /* \"lib/openzeppelin-contracts/contracts/utils/ReentrancyGuard.sol\":3054:3055  _ */\n      pop\n        /* \"lib/openzeppelin-contracts/contracts/utils/ReentrancyGuard.sol\":3065:3085  _nonReentrantAfter() */\n      tag_417\n        /* \"lib/openzeppelin-contracts/contracts/utils/ReentrancyGuard.sol\":3065:3083  _nonReentrantAfter */\n      tag_185\n        /* \"lib/openzeppelin-contracts/contracts/utils/ReentrancyGuard.sol\":3065:3085  _nonReentrantAfter() */\n      jump\t// in\n    tag_417:\n        /* \"src/contracts/MiniLend.sol\":11692:12571  function withdrawCollateralEth(... */\n      pop\n      jump\t// out\n        /* \"lib/openzeppelin-contracts/contracts/access/Ownable.sol\":2543:2758  function transferOwnership(address newOwner) public virtual onlyOwner {... */\n    tag_156:\n        /* \"lib/openzeppelin-contracts/contracts/access/Ownable.sol\":1531:1544  _checkOwner() */\n      tag_419\n        /* \"lib/openzeppelin-contracts/contracts/access/Ownable.sol\":1531:1542  _checkOwner */\n      tag_188\n        /* \"lib/openzeppelin-contracts/contracts/access/Ownable.sol\":1531:1544  _checkOwner() */\n      jump\t// in\n    tag_419:\n        /* \"lib/openzeppelin-contracts/contracts/access/Ownable.sol\":2647:2648  0 */\n      0x00\n        /* \"lib/openzeppelin-contracts/contracts/access/Ownable.sol\":2627:2649  newOwner == address(0) */\n      0xffffffffffffffffffffffffffffffffffffffff\n      and\n        /* \"lib/openzeppelin-contracts/contracts/access/Ownable.sol\":2627:2635  newOwner */\n      dup2\n        /* \"lib/openzeppelin-contracts/contracts/access/Ownable.sol\":2627:2649  newOwner == address(0) */\n      0xffffffffffffffffffffffffffffffffffffffff\n      and\n      sub\n        /* \"lib/openzeppelin-contracts/contracts/access/Ownable.sol\":2623:2714  if (newOwner == address(0)) {... */\n      tag_421\n      jumpi\n        /* \"lib/openzeppelin-contracts/contracts/access/Ownable.sol\":2700:2701  0 */\n      0x00\n        /* \"lib/openzeppelin-contracts/contracts/access/Ownable.sol\":2672:2703  OwnableInvalidOwner(address(0)) */\n      mload(0x40)\n      0x1e4fbdf700000000000000000000000000000000000000000000000000000000\n      dup2\n      mstore\n      0x04\n      add\n      tag_422\n      swap2\n      swap1\n      tag_111\n      jump\t// in\n    tag_422:\n      mload(0x40)\n      dup1\n      swap2\n      sub\n      swap1\n      revert\n        /* \"lib/openzeppelin-contracts/contracts/access/Ownable.sol\":2623:2714  if (newOwner == address(0)) {... */\n    tag_421:\n        /* \"lib/openzeppelin-contracts/contracts/access/Ownable.sol\":2723:2751  _transferOwnership(newOwner) */\n      tag_423\n        /* \"lib/openzeppelin-contracts/contracts/access/Ownable.sol\":2742:2750  newOwner */\n      dup2\n        /* \"lib/openzeppelin-contracts/contracts/access/Ownable.sol\":2723:2741  _transferOwnership */\n      tag_271\n        /* \"lib/openzeppelin-contracts/contracts/access/Ownable.sol\":2723:2751  _transferOwnership(newOwner) */\n      jump\t// in\n    tag_423:\n        /* \"lib/openzeppelin-contracts/contracts/access/Ownable.sol\":2543:2758  function transferOwnership(address newOwner) public virtual onlyOwner {... */\n      pop\n      jump\t// out\n        /* \"lib/openzeppelin-contracts/contracts/utils/ReentrancyGuard.sol\":3749:4041  function _nonReentrantBefore() private {... */\n    tag_159:\n        /* \"lib/openzeppelin-contracts/contracts/utils/ReentrancyGuard.sol\":3872:3897  _nonReentrantBeforeView() */\n      tag_425\n        /* \"lib/openzeppelin-contracts/contracts/utils/ReentrancyGuard.sol\":3872:3895  _nonReentrantBeforeView */\n      tag_426\n        /* \"lib/openzeppelin-contracts/contracts/utils/ReentrancyGuard.sol\":3872:3897  _nonReentrantBeforeView() */\n      jump\t// in\n    tag_425:\n        /* \"lib/openzeppelin-contracts/contracts/utils/ReentrancyGuard.sol\":2407:2408  2 */\n      0x02\n        /* \"lib/openzeppelin-contracts/contracts/utils/ReentrancyGuard.sol\":3972:4018  _reentrancyGuardStorageSlot().getUint256Slot() */\n      tag_427\n        /* \"lib/openzeppelin-contracts/contracts/utils/ReentrancyGuard.sol\":3972:4001  _reentrancyGuardStorageSlot() */\n      tag_428\n        /* \"lib/openzeppelin-contracts/contracts/utils/ReentrancyGuard.sol\":3972:3999  _reentrancyGuardStorageSlot */\n      tag_429\n        /* \"lib/openzeppelin-contracts/contracts/utils/ReentrancyGuard.sol\":3972:4001  _reentrancyGuardStorageSlot() */\n      jump\t// in\n    tag_428:\n        /* \"lib/openzeppelin-contracts/contracts/utils/ReentrancyGuard.sol\":3972:4016  _reentrancyGuardStorageSlot().getUint256Slot */\n      tag_430\n        /* \"lib/openzeppelin-contracts/contracts/utils/ReentrancyGuard.sol\":3972:4018  _reentrancyGuardStorageSlot().getUint256Slot() */\n      jump\t// in\n    tag_427:\n        /* \"lib/openzeppelin-contracts/contracts/utils/ReentrancyGuard.sol\":3972:4024  _reentrancyGuardStorageSlot().getUint256Slot().value */\n      0x00\n      add\n        /* \"lib/openzeppelin-contracts/contracts/utils/ReentrancyGuard.sol\":3972:4034  _reentrancyGuardStorageSlot().getUint256Slot().value = ENTERED */\n      dup2\n      swap1\n      sstore\n      pop\n        /* \"lib/openzeppelin-contracts/contracts/utils/ReentrancyGuard.sol\":3749:4041  function _nonReentrantBefore() private {... */\n      jump\t// out\n        /* \"src/contracts/MiniLend.sol\":18065:18166  function _user(address user) internal view returns (User storage) {... */\n    tag_170:\n        /* \"src/contracts/MiniLend.sol\":18117:18129  User storage */\n      0x00\n        /* \"src/contracts/MiniLend.sol\":18148:18153  users */\n      0x01\n        /* \"src/contracts/MiniLend.sol\":18148:18159  users[user] */\n      0x00\n        /* \"src/contracts/MiniLend.sol\":18154:18158  user */\n      dup4\n        /* \"src/contracts/MiniLend.sol\":18148:18159  users[user] */\n      0xffffffffffffffffffffffffffffffffffffffff\n      and\n      0xffffffffffffffffffffffffffffffffffffffff\n      and\n      dup2\n      mstore\n      0x20\n      add\n      swap1\n      dup2\n      mstore\n      0x20\n      add\n      0x00\n      keccak256\n        /* \"src/contracts/MiniLend.sol\":18141:18159  return users[user] */\n      swap1\n      pop\n        /* \"src/contracts/MiniLend.sol\":18065:18166  function _user(address user) internal view returns (User storage) {... */\n      swap2\n      swap1\n      pop\n      jump\t// out\n        /* \"src/contracts/MiniLend.sol\":18172:18291  function _hasCollateral(address user) internal view returns (bool) {... */\n    tag_172:\n        /* \"src/contracts/MiniLend.sol\":18233:18237  bool */\n      0x00\n        /* \"src/contracts/MiniLend.sol\":18283:18284  0 */\n      0x00\n        /* \"src/contracts/MiniLend.sol\":18256:18261  users */\n      0x01\n        /* \"src/contracts/MiniLend.sol\":18256:18267  users[user] */\n      0x00\n        /* \"src/contracts/MiniLend.sol\":18262:18266  user */\n      dup5\n        /* \"src/contracts/MiniLend.sol\":18256:18267  users[user] */\n      0xffffffffffffffffffffffffffffffffffffffff\n      and\n      0xffffffffffffffffffffffffffffffffffffffff\n      and\n      dup2\n      mstore\n      0x20\n      add\n      swap1\n      dup2\n      mstore\n      0x20\n      add\n      0x00\n      keccak256\n        /* \"src/contracts/MiniLend.sol\":18256:18280  users[user].stakedAmount */\n      0x01\n      add\n      sload\n        /* \"src/contracts/MiniLend.sol\":18256:18284  users[user].stakedAmount > 0 */\n      gt\n        /* \"src/contracts/MiniLend.sol\":18249:18284  return users[user].stakedAmount > 0 */\n      swap1\n      pop\n        /* \"src/contracts/MiniLend.sol\":18172:18291  function _hasCollateral(address user) internal view returns (bool) {... */\n      swap2\n      swap1\n      pop\n      jump\t// out\n        /* \"src/contracts/MiniLend.sol\":19542:21053  function _borrowableAmount(... */\n    tag_175:\n        /* \"src/contracts/MiniLend.sol\":19643:19650  uint256 */\n      0x00\n        /* \"src/contracts/MiniLend.sol\":19662:19676  User storage u */\n      0x00\n        /* \"src/contracts/MiniLend.sol\":19679:19690  _user(user) */\n      tag_434\n        /* \"src/contracts/MiniLend.sol\":19685:19689  user */\n      dup5\n        /* \"src/contracts/MiniLend.sol\":19679:19684  _user */\n      tag_170\n        /* \"src/contracts/MiniLend.sol\":19679:19690  _user(user) */\n      jump\t// in\n    tag_434:\n        /* \"src/contracts/MiniLend.sol\":19662:19690  User storage u = _user(user) */\n      swap1\n      pop\n        /* \"src/contracts/MiniLend.sol\":19743:19763  _hasCollateral(user) */\n      tag_435\n        /* \"src/contracts/MiniLend.sol\":19758:19762  user */\n      dup5\n        /* \"src/contracts/MiniLend.sol\":19743:19757  _hasCollateral */\n      tag_172\n        /* \"src/contracts/MiniLend.sol\":19743:19763  _hasCollateral(user) */\n      jump\t// in\n    tag_435:\n        /* \"src/contracts/MiniLend.sol\":19738:19773  if (!_hasCollateral(user)) return 0 */\n      tag_436\n      jumpi\n        /* \"src/contracts/MiniLend.sol\":19772:19773  0 */\n      0x00\n        /* \"src/contracts/MiniLend.sol\":19765:19773  return 0 */\n      swap2\n      pop\n      pop\n      jump(tag_433)\n        /* \"src/contracts/MiniLend.sol\":19738:19773  if (!_hasCollateral(user)) return 0 */\n    tag_436:\n        /* \"src/contracts/MiniLend.sol\":19866:19867  0 */\n      0x00\n        /* \"src/contracts/MiniLend.sol\":19837:19868  priceFeeds[token] == address(0) */\n      0xffffffffffffffffffffffffffffffffffffffff\n      and\n        /* \"src/contracts/MiniLend.sol\":19837:19847  priceFeeds */\n      0x02\n        /* \"src/contracts/MiniLend.sol\":19837:19854  priceFeeds[token] */\n      0x00\n        /* \"src/contracts/MiniLend.sol\":19848:19853  token */\n      dup6\n        /* \"src/contracts/MiniLend.sol\":19837:19854  priceFeeds[token] */\n      0xffffffffffffffffffffffffffffffffffffffff\n      and\n      0xffffffffffffffffffffffffffffffffffffffff\n      and\n      dup2\n      mstore\n      0x20\n      add\n      swap1\n      dup2\n      mstore\n      0x20\n      add\n      0x00\n      keccak256\n      0x00\n      swap1\n      sload\n      swap1\n      0x0100\n      exp\n      swap1\n      div\n      0xffffffffffffffffffffffffffffffffffffffff\n      and\n        /* \"src/contracts/MiniLend.sol\":19837:19868  priceFeeds[token] == address(0) */\n      0xffffffffffffffffffffffffffffffffffffffff\n      and\n      sub\n        /* \"src/contracts/MiniLend.sol\":19833:19921  if (priceFeeds[token] == address(0)) {... */\n      tag_437\n      jumpi\n        /* \"src/contracts/MiniLend.sol\":19904:19909  token */\n      dup3\n        /* \"src/contracts/MiniLend.sol\":19891:19910  InvalidAsset(token) */\n      mload(0x40)\n      0x6f79c78a00000000000000000000000000000000000000000000000000000000\n      dup2\n      mstore\n      0x04\n      add\n      tag_438\n      swap2\n      swap1\n      tag_111\n      jump\t// in\n    tag_438:\n      mload(0x40)\n      dup1\n      swap2\n      sub\n      swap1\n      revert\n        /* \"src/contracts/MiniLend.sol\":19833:19921  if (priceFeeds[token] == address(0)) {... */\n    tag_437:\n        /* \"src/contracts/MiniLend.sol\":19973:19994  uint256 assetUsdValue */\n      0x00\n        /* \"src/contracts/MiniLend.sol\":19997:20039  getUsdValue(u.stakedAsset, u.stakedAmount) */\n      tag_439\n        /* \"src/contracts/MiniLend.sol\":20009:20010  u */\n      dup3\n        /* \"src/contracts/MiniLend.sol\":20009:20022  u.stakedAsset */\n      0x00\n      add\n      0x00\n      swap1\n      sload\n      swap1\n      0x0100\n      exp\n      swap1\n      div\n      0xffffffffffffffffffffffffffffffffffffffff\n      and\n        /* \"src/contracts/MiniLend.sol\":20024:20025  u */\n      dup4\n        /* \"src/contracts/MiniLend.sol\":20024:20038  u.stakedAmount */\n      0x01\n      add\n      sload\n        /* \"src/contracts/MiniLend.sol\":19997:20008  getUsdValue */\n      tag_147\n        /* \"src/contracts/MiniLend.sol\":19997:20039  getUsdValue(u.stakedAsset, u.stakedAmount) */\n      jump\t// in\n    tag_439:\n        /* \"src/contracts/MiniLend.sol\":19973:20039  uint256 assetUsdValue = getUsdValue(u.stakedAsset, u.stakedAmount) */\n      swap1\n      pop\n        /* \"src/contracts/MiniLend.sol\":20100:20122  uint256 borrowingPower */\n      0x00\n        /* \"src/contracts/MiniLend.sol\":20125:20171  assetUsdValue.mulDivDown(ltv, PCT_DENOMINATOR) */\n      tag_440\n        /* \"src/contracts/MiniLend.sol\":20150:20153  ltv */\n      sload(0x06)\n        /* \"src/contracts/MiniLend.sol\":3213:3218  10000 */\n      0x2710\n        /* \"src/contracts/MiniLend.sol\":20125:20138  assetUsdValue */\n      dup5\n        /* \"src/contracts/MiniLend.sol\":20125:20149  assetUsdValue.mulDivDown */\n      tag_347\n      swap1\n        /* \"src/contracts/MiniLend.sol\":20125:20171  assetUsdValue.mulDivDown(ltv, PCT_DENOMINATOR) */\n      swap3\n      swap2\n      swap1\n      0xffffffff\n      and\n      jump\t// in\n    tag_440:\n        /* \"src/contracts/MiniLend.sol\":20100:20171  uint256 borrowingPower = assetUsdValue.mulDivDown(ltv, PCT_DENOMINATOR) */\n      swap1\n      pop\n        /* \"src/contracts/MiniLend.sol\":20238:20257  uint256 borrowedUsd */\n      0x00\n        /* \"src/contracts/MiniLend.sol\":20285:20286  0 */\n      0x00\n        /* \"src/contracts/MiniLend.sol\":20260:20261  u */\n      dup5\n        /* \"src/contracts/MiniLend.sol\":20260:20281  u.borrowedAssetAmount */\n      0x03\n      add\n      sload\n        /* \"src/contracts/MiniLend.sol\":20260:20286  u.borrowedAssetAmount == 0 */\n      eq\n        /* \"src/contracts/MiniLend.sol\":20260:20368  u.borrowedAssetAmount == 0... */\n      tag_441\n      jumpi\n        /* \"src/contracts/MiniLend.sol\":20317:20368  getUsdValue(u.borrowedAsset, u.borrowedAssetAmount) */\n      tag_442\n        /* \"src/contracts/MiniLend.sol\":20329:20330  u */\n      dup5\n        /* \"src/contracts/MiniLend.sol\":20329:20344  u.borrowedAsset */\n      0x02\n      add\n      0x00\n      swap1\n      sload\n      swap1\n      0x0100\n      exp\n      swap1\n      div\n      0xffffffffffffffffffffffffffffffffffffffff\n      and\n        /* \"src/contracts/MiniLend.sol\":20346:20347  u */\n      dup6\n        /* \"src/contracts/MiniLend.sol\":20346:20367  u.borrowedAssetAmount */\n      0x03\n      add\n      sload\n        /* \"src/contracts/MiniLend.sol\":20317:20328  getUsdValue */\n      tag_147\n        /* \"src/contracts/MiniLend.sol\":20317:20368  getUsdValue(u.borrowedAsset, u.borrowedAssetAmount) */\n      jump\t// in\n    tag_442:\n        /* \"src/contracts/MiniLend.sol\":20260:20368  u.borrowedAssetAmount == 0... */\n      jump(tag_443)\n    tag_441:\n        /* \"src/contracts/MiniLend.sol\":20301:20302  0 */\n      0x00\n        /* \"src/contracts/MiniLend.sol\":20260:20368  u.borrowedAssetAmount == 0... */\n    tag_443:\n        /* \"src/contracts/MiniLend.sol\":20238:20368  uint256 borrowedUsd = u.borrowedAssetAmount == 0... */\n      swap1\n      pop\n        /* \"src/contracts/MiniLend.sol\":20461:20475  borrowingPower */\n      dup2\n        /* \"src/contracts/MiniLend.sol\":20446:20457  borrowedUsd */\n      dup2\n        /* \"src/contracts/MiniLend.sol\":20446:20475  borrowedUsd >= borrowingPower */\n      lt\n        /* \"src/contracts/MiniLend.sol\":20442:20546  if (borrowedUsd >= borrowingPower) {... */\n      tag_444\n      jumpi\n        /* \"src/contracts/MiniLend.sol\":20498:20499  0 */\n      0x00\n        /* \"src/contracts/MiniLend.sol\":20491:20499  return 0 */\n      swap5\n      pop\n      pop\n      pop\n      pop\n      pop\n      jump(tag_433)\n        /* \"src/contracts/MiniLend.sol\":20442:20546  if (borrowedUsd >= borrowingPower) {... */\n    tag_444:\n        /* \"src/contracts/MiniLend.sol\":20594:20624  uint256 availableToBorrowInUsd */\n      0x00\n        /* \"src/contracts/MiniLend.sol\":20644:20655  borrowedUsd */\n      dup2\n        /* \"src/contracts/MiniLend.sol\":20627:20641  borrowingPower */\n      dup4\n        /* \"src/contracts/MiniLend.sol\":20627:20655  borrowingPower - borrowedUsd */\n      tag_445\n      swap2\n      swap1\n      tag_196\n      jump\t// in\n    tag_445:\n        /* \"src/contracts/MiniLend.sol\":20594:20655  uint256 availableToBorrowInUsd = borrowingPower - borrowedUsd */\n      swap1\n      pop\n        /* \"src/contracts/MiniLend.sol\":20695:20696  0 */\n      0x00\n        /* \"src/contracts/MiniLend.sol\":20669:20691  availableToBorrowInUsd */\n      dup2\n        /* \"src/contracts/MiniLend.sol\":20669:20696  availableToBorrowInUsd == 0 */\n      sub\n        /* \"src/contracts/MiniLend.sol\":20665:20731  if (availableToBorrowInUsd == 0) {... */\n      tag_446\n      jumpi\n        /* \"src/contracts/MiniLend.sol\":20719:20720  0 */\n      0x00\n        /* \"src/contracts/MiniLend.sol\":20712:20720  return 0 */\n      swap6\n      pop\n      pop\n      pop\n      pop\n      pop\n      pop\n      jump(tag_433)\n        /* \"src/contracts/MiniLend.sol\":20665:20731  if (availableToBorrowInUsd == 0) {... */\n    tag_446:\n        /* \"src/contracts/MiniLend.sol\":20799:20817  uint256 tokenPrice */\n      0x00\n        /* \"src/contracts/MiniLend.sol\":20820:20841  getLatestPrice(token) */\n      tag_447\n        /* \"src/contracts/MiniLend.sol\":20835:20840  token */\n      dup9\n        /* \"src/contracts/MiniLend.sol\":20820:20834  getLatestPrice */\n      tag_51\n        /* \"src/contracts/MiniLend.sol\":20820:20841  getLatestPrice(token) */\n      jump\t// in\n    tag_447:\n        /* \"src/contracts/MiniLend.sol\":20799:20841  uint256 tokenPrice = getLatestPrice(token) */\n      swap1\n      pop\n        /* \"src/contracts/MiniLend.sol\":20996:21046  availableToBorrowInUsd.mulDivDown(WAD, tokenPrice) */\n      tag_448\n        /* \"src/contracts/MiniLend.sol\":3160:3164  1e18 */\n      0x0de0b6b3a7640000\n        /* \"src/contracts/MiniLend.sol\":21035:21045  tokenPrice */\n      dup3\n        /* \"src/contracts/MiniLend.sol\":20996:21018  availableToBorrowInUsd */\n      dup5\n        /* \"src/contracts/MiniLend.sol\":20996:21029  availableToBorrowInUsd.mulDivDown */\n      tag_347\n      swap1\n        /* \"src/contracts/MiniLend.sol\":20996:21046  availableToBorrowInUsd.mulDivDown(WAD, tokenPrice) */\n      swap3\n      swap2\n      swap1\n      0xffffffff\n      and\n      jump\t// in\n    tag_448:\n        /* \"src/contracts/MiniLend.sol\":20989:21046  return availableToBorrowInUsd.mulDivDown(WAD, tokenPrice) */\n      swap7\n      pop\n      pop\n      pop\n      pop\n      pop\n      pop\n      pop\n        /* \"src/contracts/MiniLend.sol\":19542:21053  function _borrowableAmount(... */\n    tag_433:\n      swap3\n      swap2\n      pop\n      pop\n      jump\t// out\n        /* \"src/contracts/MiniLend.sol\":19159:19536  function _poolTransfer(address token, address to, uint256 amount) internal {... */\n    tag_182:\n        /* \"src/contracts/MiniLend.sol\":19244:19254  IERC20 erc */\n      0x00\n        /* \"src/contracts/MiniLend.sol\":19264:19269  token */\n      dup4\n        /* \"src/contracts/MiniLend.sol\":19244:19270  IERC20 erc = IERC20(token) */\n      swap1\n      pop\n        /* \"src/contracts/MiniLend.sol\":19280:19295  uint256 balance */\n      0x00\n        /* \"src/contracts/MiniLend.sol\":19298:19301  erc */\n      dup2\n        /* \"src/contracts/MiniLend.sol\":19298:19311  erc.balanceOf */\n      0xffffffffffffffffffffffffffffffffffffffff\n      and\n      0x70a08231\n        /* \"src/contracts/MiniLend.sol\":19320:19324  this */\n      address\n        /* \"src/contracts/MiniLend.sol\":19298:19326  erc.balanceOf(address(this)) */\n      mload(0x40)\n      dup3\n      0xffffffff\n      and\n      0xe0\n      shl\n      dup2\n      mstore\n      0x04\n      add\n      tag_450\n      swap2\n      swap1\n      tag_111\n      jump\t// in\n    tag_450:\n      0x20\n      mload(0x40)\n      dup1\n      dup4\n      sub\n      dup2\n      dup7\n      gas\n      staticcall\n      iszero\n      dup1\n      iszero\n      tag_452\n      jumpi\n      returndatacopy(0x00, 0x00, returndatasize)\n      revert(0x00, returndatasize)\n    tag_452:\n      pop\n      pop\n      pop\n      pop\n      mload(0x40)\n      returndatasize\n      not(0x1f)\n      0x1f\n      dup3\n      add\n      and\n      dup3\n      add\n      dup1\n      0x40\n      mstore\n      pop\n      dup2\n      add\n      swap1\n      tag_453\n      swap2\n      swap1\n      tag_254\n      jump\t// in\n    tag_453:\n        /* \"src/contracts/MiniLend.sol\":19280:19326  uint256 balance = erc.balanceOf(address(this)) */\n      swap1\n      pop\n        /* \"src/contracts/MiniLend.sol\":19351:19357  amount */\n      dup3\n        /* \"src/contracts/MiniLend.sol\":19341:19348  balance */\n      dup2\n        /* \"src/contracts/MiniLend.sol\":19341:19357  balance < amount */\n      lt\n        /* \"src/contracts/MiniLend.sol\":19337:19431  if (balance < amount) {... */\n      iszero\n      tag_454\n      jumpi\n        /* \"src/contracts/MiniLend.sol\":19404:19411  balance */\n      dup1\n        /* \"src/contracts/MiniLend.sol\":19413:19419  amount */\n      dup4\n        /* \"src/contracts/MiniLend.sol\":19380:19420  InsufficientPoolBalance(balance, amount) */\n      mload(0x40)\n      0xce9514f900000000000000000000000000000000000000000000000000000000\n      dup2\n      mstore\n      0x04\n      add\n      tag_455\n      swap3\n      swap2\n      swap1\n      tag_178\n      jump\t// in\n    tag_455:\n      mload(0x40)\n      dup1\n      swap2\n      sub\n      swap1\n      revert\n        /* \"src/contracts/MiniLend.sol\":19337:19431  if (balance < amount) {... */\n    tag_454:\n        /* \"src/contracts/MiniLend.sol\":19446:19449  erc */\n      dup2\n        /* \"src/contracts/MiniLend.sol\":19446:19458  erc.transfer */\n      0xffffffffffffffffffffffffffffffffffffffff\n      and\n      0xa9059cbb\n        /* \"src/contracts/MiniLend.sol\":19459:19461  to */\n      dup6\n        /* \"src/contracts/MiniLend.sol\":19463:19469  amount */\n      dup6\n        /* \"src/contracts/MiniLend.sol\":19446:19470  erc.transfer(to, amount) */\n      mload(0x40)\n      dup4\n      0xffffffff\n      and\n      0xe0\n      shl\n      dup2\n      mstore\n      0x04\n      add\n      tag_456\n      swap3\n      swap2\n      swap1\n      tag_457\n      jump\t// in\n    tag_456:\n      0x20\n      mload(0x40)\n      dup1\n      dup4\n      sub\n      dup2\n      0x00\n      dup8\n      gas\n      call\n      iszero\n      dup1\n      iszero\n      tag_459\n      jumpi\n      returndatacopy(0x00, 0x00, returndatasize)\n      revert(0x00, returndatasize)\n    tag_459:\n      pop\n      pop\n      pop\n      pop\n      mload(0x40)\n      returndatasize\n      not(0x1f)\n      0x1f\n      dup3\n      add\n      and\n      dup3\n      add\n      dup1\n      0x40\n      mstore\n      pop\n      dup2\n      add\n      swap1\n      tag_460\n      swap2\n      swap1\n      tag_327\n      jump\t// in\n    tag_460:\n        /* \"src/contracts/MiniLend.sol\":19441:19529  if (!erc.transfer(to, amount))... */\n      tag_461\n      jumpi\n        /* \"src/contracts/MiniLend.sol\":19511:19516  token */\n      dup5\n        /* \"src/contracts/MiniLend.sol\":19518:19520  to */\n      dup5\n        /* \"src/contracts/MiniLend.sol\":19522:19528  amount */\n      dup5\n        /* \"src/contracts/MiniLend.sol\":19491:19529  TokenTransferFailed(token, to, amount) */\n      mload(0x40)\n      0xc877679800000000000000000000000000000000000000000000000000000000\n      dup2\n      mstore\n      0x04\n      add\n      tag_462\n      swap4\n      swap3\n      swap2\n      swap1\n      tag_323\n      jump\t// in\n    tag_462:\n      mload(0x40)\n      dup1\n      swap2\n      sub\n      swap1\n      revert\n        /* \"src/contracts/MiniLend.sol\":19441:19529  if (!erc.transfer(to, amount))... */\n    tag_461:\n        /* \"src/contracts/MiniLend.sol\":19234:19536  {... */\n      pop\n      pop\n        /* \"src/contracts/MiniLend.sol\":19159:19536  function _poolTransfer(address token, address to, uint256 amount) internal {... */\n      pop\n      pop\n      pop\n      jump\t// out\n        /* \"lib/openzeppelin-contracts/contracts/utils/ReentrancyGuard.sol\":4047:4300  function _nonReentrantAfter() private {... */\n    tag_185:\n        /* \"lib/openzeppelin-contracts/contracts/utils/ReentrancyGuard.sol\":2365:2366  1 */\n      0x01\n        /* \"lib/openzeppelin-contracts/contracts/utils/ReentrancyGuard.sol\":4227:4273  _reentrancyGuardStorageSlot().getUint256Slot() */\n      tag_464\n        /* \"lib/openzeppelin-contracts/contracts/utils/ReentrancyGuard.sol\":4227:4256  _reentrancyGuardStorageSlot() */\n      tag_465\n        /* \"lib/openzeppelin-contracts/contracts/utils/ReentrancyGuard.sol\":4227:4254  _reentrancyGuardStorageSlot */\n      tag_429\n        /* \"lib/openzeppelin-contracts/contracts/utils/ReentrancyGuard.sol\":4227:4256  _reentrancyGuardStorageSlot() */\n      jump\t// in\n    tag_465:\n        /* \"lib/openzeppelin-contracts/contracts/utils/ReentrancyGuard.sol\":4227:4271  _reentrancyGuardStorageSlot().getUint256Slot */\n      tag_430\n        /* \"lib/openzeppelin-contracts/contracts/utils/ReentrancyGuard.sol\":4227:4273  _reentrancyGuardStorageSlot().getUint256Slot() */\n      jump\t// in\n    tag_464:\n        /* \"lib/openzeppelin-contracts/contracts/utils/ReentrancyGuard.sol\":4227:4279  _reentrancyGuardStorageSlot().getUint256Slot().value */\n      0x00\n      add\n        /* \"lib/openzeppelin-contracts/contracts/utils/ReentrancyGuard.sol\":4227:4293  _reentrancyGuardStorageSlot().getUint256Slot().value = NOT_ENTERED */\n      dup2\n      swap1\n      sstore\n      pop\n        /* \"lib/openzeppelin-contracts/contracts/utils/ReentrancyGuard.sol\":4047:4300  function _nonReentrantAfter() private {... */\n      jump\t// out\n        /* \"lib/openzeppelin-contracts/contracts/access/Ownable.sol\":1796:1958  function _checkOwner() internal view virtual {... */\n    tag_188:\n        /* \"lib/openzeppelin-contracts/contracts/access/Ownable.sol\":1866:1878  _msgSender() */\n      tag_467\n        /* \"lib/openzeppelin-contracts/contracts/access/Ownable.sol\":1866:1876  _msgSender */\n      tag_468\n        /* \"lib/openzeppelin-contracts/contracts/access/Ownable.sol\":1866:1878  _msgSender() */\n      jump\t// in\n    tag_467:\n        /* \"lib/openzeppelin-contracts/contracts/access/Ownable.sol\":1855:1878  owner() != _msgSender() */\n      0xffffffffffffffffffffffffffffffffffffffff\n      and\n        /* \"lib/openzeppelin-contracts/contracts/access/Ownable.sol\":1855:1862  owner() */\n      tag_469\n        /* \"lib/openzeppelin-contracts/contracts/access/Ownable.sol\":1855:1860  owner */\n      tag_109\n        /* \"lib/openzeppelin-contracts/contracts/access/Ownable.sol\":1855:1862  owner() */\n      jump\t// in\n    tag_469:\n        /* \"lib/openzeppelin-contracts/contracts/access/Ownable.sol\":1855:1878  owner() != _msgSender() */\n      0xffffffffffffffffffffffffffffffffffffffff\n      and\n      eq\n        /* \"lib/openzeppelin-contracts/contracts/access/Ownable.sol\":1851:1952  if (owner() != _msgSender()) {... */\n      tag_470\n      jumpi\n        /* \"lib/openzeppelin-contracts/contracts/access/Ownable.sol\":1928:1940  _msgSender() */\n      tag_471\n        /* \"lib/openzeppelin-contracts/contracts/access/Ownable.sol\":1928:1938  _msgSender */\n      tag_468\n        /* \"lib/openzeppelin-contracts/contracts/access/Ownable.sol\":1928:1940  _msgSender() */\n      jump\t// in\n    tag_471:\n        /* \"lib/openzeppelin-contracts/contracts/access/Ownable.sol\":1901:1941  OwnableUnauthorizedAccount(_msgSender()) */\n      mload(0x40)\n      0x118cdaa700000000000000000000000000000000000000000000000000000000\n      dup2\n      mstore\n      0x04\n      add\n      tag_472\n      swap2\n      swap1\n      tag_111\n      jump\t// in\n    tag_472:\n      mload(0x40)\n      dup1\n      swap2\n      sub\n      swap1\n      revert\n        /* \"lib/openzeppelin-contracts/contracts/access/Ownable.sol\":1851:1952  if (owner() != _msgSender()) {... */\n    tag_470:\n        /* \"lib/openzeppelin-contracts/contracts/access/Ownable.sol\":1796:1958  function _checkOwner() internal view virtual {... */\n      jump\t// out\n        /* \"lib/openzeppelin-contracts/contracts/access/Ownable.sol\":2912:3099  function _transferOwnership(address newOwner) internal virtual {... */\n    tag_271:\n        /* \"lib/openzeppelin-contracts/contracts/access/Ownable.sol\":2985:3001  address oldOwner */\n      0x00\n        /* \"lib/openzeppelin-contracts/contracts/access/Ownable.sol\":3004:3010  _owner */\n      0x00\n      0x00\n      swap1\n      sload\n      swap1\n      0x0100\n      exp\n      swap1\n      div\n      0xffffffffffffffffffffffffffffffffffffffff\n      and\n        /* \"lib/openzeppelin-contracts/contracts/access/Ownable.sol\":2985:3010  address oldOwner = _owner */\n      swap1\n      pop\n        /* \"lib/openzeppelin-contracts/contracts/access/Ownable.sol\":3029:3037  newOwner */\n      dup2\n        /* \"lib/openzeppelin-contracts/contracts/access/Ownable.sol\":3020:3026  _owner */\n      0x00\n      0x00\n        /* \"lib/openzeppelin-contracts/contracts/access/Ownable.sol\":3020:3037  _owner = newOwner */\n      0x0100\n      exp\n      dup2\n      sload\n      dup2\n      0xffffffffffffffffffffffffffffffffffffffff\n      mul\n      not\n      and\n      swap1\n      dup4\n      0xffffffffffffffffffffffffffffffffffffffff\n      and\n      mul\n      or\n      swap1\n      sstore\n      pop\n        /* \"lib/openzeppelin-contracts/contracts/access/Ownable.sol\":3083:3091  newOwner */\n      dup2\n        /* \"lib/openzeppelin-contracts/contracts/access/Ownable.sol\":3052:3092  OwnershipTransferred(oldOwner, newOwner) */\n      0xffffffffffffffffffffffffffffffffffffffff\n      and\n        /* \"lib/openzeppelin-contracts/contracts/access/Ownable.sol\":3073:3081  oldOwner */\n      dup2\n        /* \"lib/openzeppelin-contracts/contracts/access/Ownable.sol\":3052:3092  OwnershipTransferred(oldOwner, newOwner) */\n      0xffffffffffffffffffffffffffffffffffffffff\n      and\n      0x8be0079c531659141344cd1fd0a4f28419497f9722a3daafe3b4186f6b6457e0\n      mload(0x40)\n      mload(0x40)\n      dup1\n      swap2\n      sub\n      swap1\n      log3\n        /* \"lib/openzeppelin-contracts/contracts/access/Ownable.sol\":2975:3099  {... */\n      pop\n        /* \"lib/openzeppelin-contracts/contracts/access/Ownable.sol\":2912:3099  function _transferOwnership(address newOwner) internal virtual {... */\n      pop\n      jump\t// out\n        /* \"src/contracts/MiniLend.sol\":18297:18424  function _activePosition(address user) internal view returns (bool) {... */\n    tag_314:\n        /* \"src/contracts/MiniLend.sol\":18359:18363  bool */\n      0x00\n        /* \"src/contracts/MiniLend.sol\":18416:18417  0 */\n      0x00\n        /* \"src/contracts/MiniLend.sol\":18382:18387  users */\n      0x01\n        /* \"src/contracts/MiniLend.sol\":18382:18393  users[user] */\n      0x00\n        /* \"src/contracts/MiniLend.sol\":18388:18392  user */\n      dup5\n        /* \"src/contracts/MiniLend.sol\":18382:18393  users[user] */\n      0xffffffffffffffffffffffffffffffffffffffff\n      and\n      0xffffffffffffffffffffffffffffffffffffffff\n      and\n      dup2\n      mstore\n      0x20\n      add\n      swap1\n      dup2\n      mstore\n      0x20\n      add\n      0x00\n      keccak256\n        /* \"src/contracts/MiniLend.sol\":18382:18413  users[user].borrowedAssetAmount */\n      0x03\n      add\n      sload\n        /* \"src/contracts/MiniLend.sol\":18382:18417  users[user].borrowedAssetAmount > 0 */\n      gt\n        /* \"src/contracts/MiniLend.sol\":18375:18417  return users[user].borrowedAssetAmount > 0 */\n      swap1\n      pop\n        /* \"src/contracts/MiniLend.sol\":18297:18424  function _activePosition(address user) internal view returns (bool) {... */\n      swap2\n      swap1\n      pop\n      jump\t// out\n        /* \"src/contracts/MiniLend.sol\":18430:18603  function _repayWithBorrowedAsset(... */\n    tag_317:\n        /* \"src/contracts/MiniLend.sol\":18537:18541  bool */\n      0x00\n        /* \"src/contracts/MiniLend.sol\":18590:18595  token */\n      dup2\n        /* \"src/contracts/MiniLend.sol\":18561:18595  users[user].borrowedAsset == token */\n      0xffffffffffffffffffffffffffffffffffffffff\n      and\n        /* \"src/contracts/MiniLend.sol\":18561:18566  users */\n      0x01\n        /* \"src/contracts/MiniLend.sol\":18561:18572  users[user] */\n      0x00\n        /* \"src/contracts/MiniLend.sol\":18567:18571  user */\n      dup6\n        /* \"src/contracts/MiniLend.sol\":18561:18572  users[user] */\n      0xffffffffffffffffffffffffffffffffffffffff\n      and\n      0xffffffffffffffffffffffffffffffffffffffff\n      and\n      dup2\n      mstore\n      0x20\n      add\n      swap1\n      dup2\n      mstore\n      0x20\n      add\n      0x00\n      keccak256\n        /* \"src/contracts/MiniLend.sol\":18561:18586  users[user].borrowedAsset */\n      0x02\n      add\n      0x00\n      swap1\n      sload\n      swap1\n      0x0100\n      exp\n      swap1\n      div\n      0xffffffffffffffffffffffffffffffffffffffff\n      and\n        /* \"src/contracts/MiniLend.sol\":18561:18595  users[user].borrowedAsset == token */\n      0xffffffffffffffffffffffffffffffffffffffff\n      and\n      eq\n        /* \"src/contracts/MiniLend.sol\":18553:18596  return (users[user].borrowedAsset == token) */\n      swap1\n      pop\n        /* \"src/contracts/MiniLend.sol\":18430:18603  function _repayWithBorrowedAsset(... */\n      swap3\n      swap2\n      pop\n      pop\n      jump\t// out\n        /* \"lib/solmate/src/utils/FixedPointMathLib.sol\":1564:2090  function mulDivDown(... */\n    tag_347:\n        /* \"lib/solmate/src/utils/FixedPointMathLib.sol\":1680:1689  uint256 z */\n      0x00\n        /* \"lib/solmate/src/utils/FixedPointMathLib.sol\":1928:1929  y */\n      dup3\n        /* \"lib/solmate/src/utils/FixedPointMathLib.sol\":1915:1926  MAX_UINT256 */\n      0xffffffffffffffffffffffffffffffffffffffffffffffffffffffffffffffff\n        /* \"lib/solmate/src/utils/FixedPointMathLib.sol\":1911:1930  div(MAX_UINT256, y) */\n      div\n        /* \"lib/solmate/src/utils/FixedPointMathLib.sol\":1908:1909  x */\n      dup5\n        /* \"lib/solmate/src/utils/FixedPointMathLib.sol\":1905:1931  gt(x, div(MAX_UINT256, y)) */\n      gt\n        /* \"lib/solmate/src/utils/FixedPointMathLib.sol\":1902:1903  y */\n      dup4\n        /* \"lib/solmate/src/utils/FixedPointMathLib.sol\":1898:1932  mul(y, gt(x, div(MAX_UINT256, y))) */\n      mul\n        /* \"lib/solmate/src/utils/FixedPointMathLib.sol\":1891:1933  iszero(mul(y, gt(x, div(MAX_UINT256, y)))) */\n      iszero\n        /* \"lib/solmate/src/utils/FixedPointMathLib.sol\":1878:1889  denominator */\n      dup3\n        /* \"lib/solmate/src/utils/FixedPointMathLib.sol\":1874:1934  mul(denominator, iszero(mul(y, gt(x, div(MAX_UINT256, y))))) */\n      mul\n        /* \"lib/solmate/src/utils/FixedPointMathLib.sol\":1864:1980  if iszero(mul(denominator, iszero(mul(y, gt(x, div(MAX_UINT256, y)))))) {... */\n      tag_477\n      jumpi\n        /* \"lib/solmate/src/utils/FixedPointMathLib.sol\":1964:1965  0 */\n      0x00\n        /* \"lib/solmate/src/utils/FixedPointMathLib.sol\":1961:1962  0 */\n      0x00\n        /* \"lib/solmate/src/utils/FixedPointMathLib.sol\":1954:1966  revert(0, 0) */\n      revert\n        /* \"lib/solmate/src/utils/FixedPointMathLib.sol\":1864:1980  if iszero(mul(denominator, iszero(mul(y, gt(x, div(MAX_UINT256, y)))))) {... */\n    tag_477:\n        /* \"lib/solmate/src/utils/FixedPointMathLib.sol\":2062:2073  denominator */\n      dup2\n        /* \"lib/solmate/src/utils/FixedPointMathLib.sol\":2058:2059  y */\n      dup4\n        /* \"lib/solmate/src/utils/FixedPointMathLib.sol\":2055:2056  x */\n      dup6\n        /* \"lib/solmate/src/utils/FixedPointMathLib.sol\":2051:2060  mul(x, y) */\n      mul\n        /* \"lib/solmate/src/utils/FixedPointMathLib.sol\":2047:2074  div(mul(x, y), denominator) */\n      div\n        /* \"lib/solmate/src/utils/FixedPointMathLib.sol\":2042:2074  z := div(mul(x, y), denominator) */\n      swap1\n      pop\n        /* \"lib/solmate/src/utils/FixedPointMathLib.sol\":1564:2090  function mulDivDown(... */\n      swap4\n      swap3\n      pop\n      pop\n      pop\n      jump\t// out\n        /* \"src/contracts/MiniLend.sol\":18609:18832  function _default(address user) internal {... */\n    tag_379:\n        /* \"src/contracts/MiniLend.sol\":18660:18674  User storage u */\n      0x00\n        /* \"src/contracts/MiniLend.sol\":18677:18688  _user(user) */\n      tag_479\n        /* \"src/contracts/MiniLend.sol\":18683:18687  user */\n      dup3\n        /* \"src/contracts/MiniLend.sol\":18677:18682  _user */\n      tag_170\n        /* \"src/contracts/MiniLend.sol\":18677:18688  _user(user) */\n      jump\t// in\n    tag_479:\n        /* \"src/contracts/MiniLend.sol\":18660:18688  User storage u = _user(user) */\n      swap1\n      pop\n        /* \"src/contracts/MiniLend.sol\":18724:18725  0 */\n      0x00\n        /* \"src/contracts/MiniLend.sol\":18698:18699  u */\n      dup2\n        /* \"src/contracts/MiniLend.sol\":18698:18713  u.borrowedAsset */\n      0x02\n      add\n      0x00\n        /* \"src/contracts/MiniLend.sol\":18698:18726  u.borrowedAsset = address(0) */\n      0x0100\n      exp\n      dup2\n      sload\n      dup2\n      0xffffffffffffffffffffffffffffffffffffffff\n      mul\n      not\n      and\n      swap1\n      dup4\n      0xffffffffffffffffffffffffffffffffffffffff\n      and\n      mul\n      or\n      swap1\n      sstore\n      pop\n        /* \"src/contracts/MiniLend.sol\":18760:18761  0 */\n      0x00\n        /* \"src/contracts/MiniLend.sol\":18736:18737  u */\n      dup2\n        /* \"src/contracts/MiniLend.sol\":18736:18757  u.borrowedAssetAmount */\n      0x03\n      add\n        /* \"src/contracts/MiniLend.sol\":18736:18761  u.borrowedAssetAmount = 0 */\n      dup2\n      swap1\n      sstore\n      pop\n        /* \"src/contracts/MiniLend.sol\":18795:18796  0 */\n      0x00\n        /* \"src/contracts/MiniLend.sol\":18771:18772  u */\n      dup2\n        /* \"src/contracts/MiniLend.sol\":18771:18784  u.stakedAsset */\n      0x00\n      add\n      0x00\n        /* \"src/contracts/MiniLend.sol\":18771:18797  u.stakedAsset = address(0) */\n      0x0100\n      exp\n      dup2\n      sload\n      dup2\n      0xffffffffffffffffffffffffffffffffffffffff\n      mul\n      not\n      and\n      swap1\n      dup4\n      0xffffffffffffffffffffffffffffffffffffffff\n      and\n      mul\n      or\n      swap1\n      sstore\n      pop\n        /* \"src/contracts/MiniLend.sol\":18824:18825  0 */\n      0x00\n        /* \"src/contracts/MiniLend.sol\":18807:18808  u */\n      dup2\n        /* \"src/contracts/MiniLend.sol\":18807:18821  u.stakedAmount */\n      0x01\n      add\n        /* \"src/contracts/MiniLend.sol\":18807:18825  u.stakedAmount = 0 */\n      dup2\n      swap1\n      sstore\n      pop\n        /* \"src/contracts/MiniLend.sol\":18650:18832  {... */\n      pop\n        /* \"src/contracts/MiniLend.sol\":18609:18832  function _default(address user) internal {... */\n      pop\n      jump\t// out\n        /* \"lib/openzeppelin-contracts/contracts/utils/ReentrancyGuard.sol\":3586:3743  function _nonReentrantBeforeView() private view {... */\n    tag_426:\n        /* \"lib/openzeppelin-contracts/contracts/utils/ReentrancyGuard.sol\":3648:3673  _reentrancyGuardEntered() */\n      tag_481\n        /* \"lib/openzeppelin-contracts/contracts/utils/ReentrancyGuard.sol\":3648:3671  _reentrancyGuardEntered */\n      tag_482\n        /* \"lib/openzeppelin-contracts/contracts/utils/ReentrancyGuard.sol\":3648:3673  _reentrancyGuardEntered() */\n      jump\t// in\n    tag_481:\n        /* \"lib/openzeppelin-contracts/contracts/utils/ReentrancyGuard.sol\":3644:3737  if (_reentrancyGuardEntered()) {... */\n      iszero\n      tag_483\n      jumpi\n        /* \"lib/openzeppelin-contracts/contracts/utils/ReentrancyGuard.sol\":3696:3726  ReentrancyGuardReentrantCall() */\n      mload(0x40)\n      0x3ee5aeb500000000000000000000000000000000000000000000000000000000\n      dup2\n      mstore\n      0x04\n      add\n      mload(0x40)\n      dup1\n      swap2\n      sub\n      swap1\n      revert\n        /* \"lib/openzeppelin-contracts/contracts/utils/ReentrancyGuard.sol\":3644:3737  if (_reentrancyGuardEntered()) {... */\n    tag_483:\n        /* \"lib/openzeppelin-contracts/contracts/utils/ReentrancyGuard.sol\":3586:3743  function _nonReentrantBeforeView() private view {... */\n      jump\t// out\n        /* \"lib/openzeppelin-contracts/contracts/utils/ReentrancyGuard.sol\":4636:4763  function _reentrancyGuardStorageSlot() internal pure virtual returns (bytes32) {... */\n    tag_429:\n        /* \"lib/openzeppelin-contracts/contracts/utils/ReentrancyGuard.sol\":4706:4713  bytes32 */\n      0x00\n        /* \"lib/openzeppelin-contracts/contracts/utils/ReentrancyGuard.sol\":1505:1571  0x9b779b17422d0df92223018b32b4d1fa46e071723d6817e2486d003becc55f00 */\n      0x9b779b17422d0df92223018b32b4d1fa46e071723d6817e2486d003becc55f00\n        /* \"lib/openzeppelin-contracts/contracts/utils/ReentrancyGuard.sol\":4732:4756  REENTRANCY_GUARD_STORAGE */\n      0x00\n      shl\n        /* \"lib/openzeppelin-contracts/contracts/utils/ReentrancyGuard.sol\":4725:4756  return REENTRANCY_GUARD_STORAGE */\n      swap1\n      pop\n        /* \"lib/openzeppelin-contracts/contracts/utils/ReentrancyGuard.sol\":4636:4763  function _reentrancyGuardStorageSlot() internal pure virtual returns (bytes32) {... */\n      swap1\n      jump\t// out\n        /* \"lib/openzeppelin-contracts/contracts/utils/StorageSlot.sol\":2679:2842  function getUint256Slot(bytes32 slot) internal pure returns (Uint256Slot storage r) {... */\n    tag_430:\n        /* \"lib/openzeppelin-contracts/contracts/utils/StorageSlot.sol\":2740:2761  Uint256Slot storage r */\n      0x00\n        /* \"lib/openzeppelin-contracts/contracts/utils/StorageSlot.sol\":2822:2826  slot */\n      dup2\n        /* \"lib/openzeppelin-contracts/contracts/utils/StorageSlot.sol\":2812:2826  r.slot := slot */\n      swap1\n      pop\n        /* \"lib/openzeppelin-contracts/contracts/utils/StorageSlot.sol\":2679:2842  function getUint256Slot(bytes32 slot) internal pure returns (Uint256Slot storage r) {... */\n      swap2\n      swap1\n      pop\n      jump\t// out\n        /* \"lib/openzeppelin-contracts/contracts/utils/Context.sol\":656:752  function _msgSender() internal view virtual returns (address) {... */\n    tag_468:\n        /* \"lib/openzeppelin-contracts/contracts/utils/Context.sol\":709:716  address */\n      0x00\n        /* \"lib/openzeppelin-contracts/contracts/utils/Context.sol\":735:745  msg.sender */\n      caller\n        /* \"lib/openzeppelin-contracts/contracts/utils/Context.sol\":728:745  return msg.sender */\n      swap1\n      pop\n        /* \"lib/openzeppelin-contracts/contracts/utils/Context.sol\":656:752  function _msgSender() internal view virtual returns (address) {... */\n      swap1\n      jump\t// out\n        /* \"lib/openzeppelin-contracts/contracts/utils/ReentrancyGuard.sol\":4479:4630  function _reentrancyGuardEntered() internal view returns (bool) {... */\n    tag_482:\n        /* \"lib/openzeppelin-contracts/contracts/utils/ReentrancyGuard.sol\":4537:4541  bool */\n      0x00\n        /* \"lib/openzeppelin-contracts/contracts/utils/ReentrancyGuard.sol\":2407:2408  2 */\n      0x02\n        /* \"lib/openzeppelin-contracts/contracts/utils/ReentrancyGuard.sol\":4560:4606  _reentrancyGuardStorageSlot().getUint256Slot() */\n      tag_488\n        /* \"lib/openzeppelin-contracts/contracts/utils/ReentrancyGuard.sol\":4560:4589  _reentrancyGuardStorageSlot() */\n      tag_489\n        /* \"lib/openzeppelin-contracts/contracts/utils/ReentrancyGuard.sol\":4560:4587  _reentrancyGuardStorageSlot */\n      tag_429\n        /* \"lib/openzeppelin-contracts/contracts/utils/ReentrancyGuard.sol\":4560:4589  _reentrancyGuardStorageSlot() */\n      jump\t// in\n    tag_489:\n        /* \"lib/openzeppelin-contracts/contracts/utils/ReentrancyGuard.sol\":4560:4604  _reentrancyGuardStorageSlot().getUint256Slot */\n      tag_430\n        /* \"lib/openzeppelin-contracts/contracts/utils/ReentrancyGuard.sol\":4560:4606  _reentrancyGuardStorageSlot().getUint256Slot() */\n      jump\t// in\n    tag_488:\n        /* \"lib/openzeppelin-contracts/contracts/utils/ReentrancyGuard.sol\":4560:4612  _reentrancyGuardStorageSlot().getUint256Slot().value */\n      0x00\n      add\n      sload\n        /* \"lib/openzeppelin-contracts/contracts/utils/ReentrancyGuard.sol\":4560:4623  _reentrancyGuardStorageSlot().getUint256Slot().value == ENTERED */\n      eq\n        /* \"lib/openzeppelin-contracts/contracts/utils/ReentrancyGuard.sol\":4553:4623  return _reentrancyGuardStorageSlot().getUint256Slot().value == ENTERED */\n      swap1\n      pop\n        /* \"lib/openzeppelin-contracts/contracts/utils/ReentrancyGuard.sol\":4479:4630  function _reentrancyGuardEntered() internal view returns (bool) {... */\n      swap1\n      jump\t// out\n        /* \"#utility.yul\":88:205   */\n    tag_491:\n        /* \"#utility.yul\":197:198   */\n      0x00\n        /* \"#utility.yul\":194:195   */\n      0x00\n        /* \"#utility.yul\":187:199   */\n      revert\n        /* \"#utility.yul\":334:460   */\n    tag_493:\n        /* \"#utility.yul\":371:378   */\n      0x00\n        /* \"#utility.yul\":411:453   */\n      0xffffffffffffffffffffffffffffffffffffffff\n        /* \"#utility.yul\":404:409   */\n      dup3\n        /* \"#utility.yul\":400:454   */\n      and\n        /* \"#utility.yul\":389:454   */\n      swap1\n      pop\n        /* \"#utility.yul\":334:460   */\n      swap2\n      swap1\n      pop\n      jump\t// out\n        /* \"#utility.yul\":466:562   */\n    tag_494:\n        /* \"#utility.yul\":503:510   */\n      0x00\n        /* \"#utility.yul\":532:556   */\n      tag_530\n        /* \"#utility.yul\":550:555   */\n      dup3\n        /* \"#utility.yul\":532:556   */\n      tag_493\n      jump\t// in\n    tag_530:\n        /* \"#utility.yul\":521:556   */\n      swap1\n      pop\n        /* \"#utility.yul\":466:562   */\n      swap2\n      swap1\n      pop\n      jump\t// out\n        /* \"#utility.yul\":568:690   */\n    tag_495:\n        /* \"#utility.yul\":641:665   */\n      tag_532\n        /* \"#utility.yul\":659:664   */\n      dup2\n        /* \"#utility.yul\":641:665   */\n      tag_494\n      jump\t// in\n    tag_532:\n        /* \"#utility.yul\":634:639   */\n      dup2\n        /* \"#utility.yul\":631:666   */\n      eq\n        /* \"#utility.yul\":621:684   */\n      tag_533\n      jumpi\n        /* \"#utility.yul\":680:681   */\n      0x00\n        /* \"#utility.yul\":677:678   */\n      0x00\n        /* \"#utility.yul\":670:682   */\n      revert\n        /* \"#utility.yul\":621:684   */\n    tag_533:\n        /* \"#utility.yul\":568:690   */\n      pop\n      jump\t// out\n        /* \"#utility.yul\":696:835   */\n    tag_496:\n        /* \"#utility.yul\":742:747   */\n      0x00\n        /* \"#utility.yul\":780:786   */\n      dup2\n        /* \"#utility.yul\":767:787   */\n      calldataload\n        /* \"#utility.yul\":758:787   */\n      swap1\n      pop\n        /* \"#utility.yul\":796:829   */\n      tag_535\n        /* \"#utility.yul\":823:828   */\n      dup2\n        /* \"#utility.yul\":796:829   */\n      tag_495\n      jump\t// in\n    tag_535:\n        /* \"#utility.yul\":696:835   */\n      swap3\n      swap2\n      pop\n      pop\n      jump\t// out\n        /* \"#utility.yul\":841:918   */\n    tag_497:\n        /* \"#utility.yul\":878:885   */\n      0x00\n        /* \"#utility.yul\":907:912   */\n      dup2\n        /* \"#utility.yul\":896:912   */\n      swap1\n      pop\n        /* \"#utility.yul\":841:918   */\n      swap2\n      swap1\n      pop\n      jump\t// out\n        /* \"#utility.yul\":924:1046   */\n    tag_498:\n        /* \"#utility.yul\":997:1021   */\n      tag_538\n        /* \"#utility.yul\":1015:1020   */\n      dup2\n        /* \"#utility.yul\":997:1021   */\n      tag_497\n      jump\t// in\n    tag_538:\n        /* \"#utility.yul\":990:995   */\n      dup2\n        /* \"#utility.yul\":987:1022   */\n      eq\n        /* \"#utility.yul\":977:1040   */\n      tag_539\n      jumpi\n        /* \"#utility.yul\":1036:1037   */\n      0x00\n        /* \"#utility.yul\":1033:1034   */\n      0x00\n        /* \"#utility.yul\":1026:1038   */\n      revert\n        /* \"#utility.yul\":977:1040   */\n    tag_539:\n        /* \"#utility.yul\":924:1046   */\n      pop\n      jump\t// out\n        /* \"#utility.yul\":1052:1191   */\n    tag_499:\n        /* \"#utility.yul\":1098:1103   */\n      0x00\n        /* \"#utility.yul\":1136:1142   */\n      dup2\n        /* \"#utility.yul\":1123:1143   */\n      calldataload\n        /* \"#utility.yul\":1114:1143   */\n      swap1\n      pop\n        /* \"#utility.yul\":1152:1185   */\n      tag_541\n        /* \"#utility.yul\":1179:1184   */\n      dup2\n        /* \"#utility.yul\":1152:1185   */\n      tag_498\n      jump\t// in\n    tag_541:\n        /* \"#utility.yul\":1052:1191   */\n      swap3\n      swap2\n      pop\n      pop\n      jump\t// out\n        /* \"#utility.yul\":1197:1671   */\n    tag_41:\n        /* \"#utility.yul\":1265:1271   */\n      0x00\n        /* \"#utility.yul\":1273:1279   */\n      0x00\n        /* \"#utility.yul\":1322:1324   */\n      0x40\n        /* \"#utility.yul\":1310:1319   */\n      dup4\n        /* \"#utility.yul\":1301:1308   */\n      dup6\n        /* \"#utility.yul\":1297:1320   */\n      sub\n        /* \"#utility.yul\":1293:1325   */\n      slt\n        /* \"#utility.yul\":1290:1409   */\n      iszero\n      tag_543\n      jumpi\n        /* \"#utility.yul\":1328:1407   */\n      tag_544\n      tag_491\n      jump\t// in\n    tag_544:\n        /* \"#utility.yul\":1290:1409   */\n    tag_543:\n        /* \"#utility.yul\":1448:1449   */\n      0x00\n        /* \"#utility.yul\":1473:1526   */\n      tag_545\n        /* \"#utility.yul\":1518:1525   */\n      dup6\n        /* \"#utility.yul\":1509:1515   */\n      dup3\n        /* \"#utility.yul\":1498:1507   */\n      dup7\n        /* \"#utility.yul\":1494:1516   */\n      add\n        /* \"#utility.yul\":1473:1526   */\n      tag_496\n      jump\t// in\n    tag_545:\n        /* \"#utility.yul\":1463:1526   */\n      swap3\n      pop\n        /* \"#utility.yul\":1419:1536   */\n      pop\n        /* \"#utility.yul\":1575:1577   */\n      0x20\n        /* \"#utility.yul\":1601:1654   */\n      tag_546\n        /* \"#utility.yul\":1646:1653   */\n      dup6\n        /* \"#utility.yul\":1637:1643   */\n      dup3\n        /* \"#utility.yul\":1626:1635   */\n      dup7\n        /* \"#utility.yul\":1622:1644   */\n      add\n        /* \"#utility.yul\":1601:1654   */\n      tag_499\n      jump\t// in\n    tag_546:\n        /* \"#utility.yul\":1591:1654   */\n      swap2\n      pop\n        /* \"#utility.yul\":1546:1664   */\n      pop\n        /* \"#utility.yul\":1197:1671   */\n      swap3\n      pop\n      swap3\n      swap1\n      pop\n      jump\t// out\n        /* \"#utility.yul\":1677:2006   */\n    tag_46:\n        /* \"#utility.yul\":1736:1742   */\n      0x00\n        /* \"#utility.yul\":1785:1787   */\n      0x20\n        /* \"#utility.yul\":1773:1782   */\n      dup3\n        /* \"#utility.yul\":1764:1771   */\n      dup5\n        /* \"#utility.yul\":1760:1783   */\n      sub\n        /* \"#utility.yul\":1756:1788   */\n      slt\n        /* \"#utility.yul\":1753:1872   */\n      iszero\n      tag_548\n      jumpi\n        /* \"#utility.yul\":1791:1870   */\n      tag_549\n      tag_491\n      jump\t// in\n    tag_549:\n        /* \"#utility.yul\":1753:1872   */\n    tag_548:\n        /* \"#utility.yul\":1911:1912   */\n      0x00\n        /* \"#utility.yul\":1936:1989   */\n      tag_550\n        /* \"#utility.yul\":1981:1988   */\n      dup5\n        /* \"#utility.yul\":1972:1978   */\n      dup3\n        /* \"#utility.yul\":1961:1970   */\n      dup6\n        /* \"#utility.yul\":1957:1979   */\n      add\n        /* \"#utility.yul\":1936:1989   */\n      tag_496\n      jump\t// in\n    tag_550:\n        /* \"#utility.yul\":1926:1989   */\n      swap2\n      pop\n        /* \"#utility.yul\":1882:1999   */\n      pop\n        /* \"#utility.yul\":1677:2006   */\n      swap3\n      swap2\n      pop\n      pop\n      jump\t// out\n        /* \"#utility.yul\":2012:2130   */\n    tag_500:\n        /* \"#utility.yul\":2099:2123   */\n      tag_552\n        /* \"#utility.yul\":2117:2122   */\n      dup2\n        /* \"#utility.yul\":2099:2123   */\n      tag_497\n      jump\t// in\n    tag_552:\n        /* \"#utility.yul\":2094:2097   */\n      dup3\n        /* \"#utility.yul\":2087:2124   */\n      mstore\n        /* \"#utility.yul\":2012:2130   */\n      pop\n      pop\n      jump\t// out\n        /* \"#utility.yul\":2136:2358   */\n    tag_53:\n        /* \"#utility.yul\":2229:2233   */\n      0x00\n        /* \"#utility.yul\":2267:2269   */\n      0x20\n        /* \"#utility.yul\":2256:2265   */\n      dup3\n        /* \"#utility.yul\":2252:2270   */\n      add\n        /* \"#utility.yul\":2244:2270   */\n      swap1\n      pop\n        /* \"#utility.yul\":2280:2351   */\n      tag_554\n        /* \"#utility.yul\":2348:2349   */\n      0x00\n        /* \"#utility.yul\":2337:2346   */\n      dup4\n        /* \"#utility.yul\":2333:2350   */\n      add\n        /* \"#utility.yul\":2324:2330   */\n      dup5\n        /* \"#utility.yul\":2280:2351   */\n      tag_500\n      jump\t// in\n    tag_554:\n        /* \"#utility.yul\":2136:2358   */\n      swap3\n      swap2\n      pop\n      pop\n      jump\t// out\n        /* \"#utility.yul\":2364:2693   */\n    tag_57:\n        /* \"#utility.yul\":2423:2429   */\n      0x00\n        /* \"#utility.yul\":2472:2474   */\n      0x20\n        /* \"#utility.yul\":2460:2469   */\n      dup3\n        /* \"#utility.yul\":2451:2458   */\n      dup5\n        /* \"#utility.yul\":2447:2470   */\n      sub\n        /* \"#utility.yul\":2443:2475   */\n      slt\n        /* \"#utility.yul\":2440:2559   */\n      iszero\n      tag_556\n      jumpi\n        /* \"#utility.yul\":2478:2557   */\n      tag_557\n      tag_491\n      jump\t// in\n    tag_557:\n        /* \"#utility.yul\":2440:2559   */\n    tag_556:\n        /* \"#utility.yul\":2598:2599   */\n      0x00\n        /* \"#utility.yul\":2623:2676   */\n      tag_558\n        /* \"#utility.yul\":2668:2675   */\n      dup5\n        /* \"#utility.yul\":2659:2665   */\n      dup3\n        /* \"#utility.yul\":2648:2657   */\n      dup6\n        /* \"#utility.yul\":2644:2666   */\n      add\n        /* \"#utility.yul\":2623:2676   */\n      tag_499\n      jump\t// in\n    tag_558:\n        /* \"#utility.yul\":2613:2676   */\n      swap2\n      pop\n        /* \"#utility.yul\":2569:2686   */\n      pop\n        /* \"#utility.yul\":2364:2693   */\n      swap3\n      swap2\n      pop\n      pop\n      jump\t// out\n        /* \"#utility.yul\":2699:3173   */\n    tag_67:\n        /* \"#utility.yul\":2767:2773   */\n      0x00\n        /* \"#utility.yul\":2775:2781   */\n      0x00\n        /* \"#utility.yul\":2824:2826   */\n      0x40\n        /* \"#utility.yul\":2812:2821   */\n      dup4\n        /* \"#utility.yul\":2803:2810   */\n      dup6\n        /* \"#utility.yul\":2799:2822   */\n      sub\n        /* \"#utility.yul\":2795:2827   */\n      slt\n        /* \"#utility.yul\":2792:2911   */\n      iszero\n      tag_560\n      jumpi\n        /* \"#utility.yul\":2830:2909   */\n      tag_561\n      tag_491\n      jump\t// in\n    tag_561:\n        /* \"#utility.yul\":2792:2911   */\n    tag_560:\n        /* \"#utility.yul\":2950:2951   */\n      0x00\n        /* \"#utility.yul\":2975:3028   */\n      tag_562\n        /* \"#utility.yul\":3020:3027   */\n      dup6\n        /* \"#utility.yul\":3011:3017   */\n      dup3\n        /* \"#utility.yul\":3000:3009   */\n      dup7\n        /* \"#utility.yul\":2996:3018   */\n      add\n        /* \"#utility.yul\":2975:3028   */\n      tag_496\n      jump\t// in\n    tag_562:\n        /* \"#utility.yul\":2965:3028   */\n      swap3\n      pop\n        /* \"#utility.yul\":2921:3038   */\n      pop\n        /* \"#utility.yul\":3077:3079   */\n      0x20\n        /* \"#utility.yul\":3103:3156   */\n      tag_563\n        /* \"#utility.yul\":3148:3155   */\n      dup6\n        /* \"#utility.yul\":3139:3145   */\n      dup3\n        /* \"#utility.yul\":3128:3137   */\n      dup7\n        /* \"#utility.yul\":3124:3146   */\n      add\n        /* \"#utility.yul\":3103:3156   */\n      tag_496\n      jump\t// in\n    tag_563:\n        /* \"#utility.yul\":3093:3156   */\n      swap2\n      pop\n        /* \"#utility.yul\":3048:3166   */\n      pop\n        /* \"#utility.yul\":2699:3173   */\n      swap3\n      pop\n      swap3\n      swap1\n      pop\n      jump\t// out\n        /* \"#utility.yul\":3179:3269   */\n    tag_501:\n        /* \"#utility.yul\":3213:3220   */\n      0x00\n        /* \"#utility.yul\":3256:3261   */\n      dup2\n        /* \"#utility.yul\":3249:3262   */\n      iszero\n        /* \"#utility.yul\":3242:3263   */\n      iszero\n        /* \"#utility.yul\":3231:3263   */\n      swap1\n      pop\n        /* \"#utility.yul\":3179:3269   */\n      swap2\n      swap1\n      pop\n      jump\t// out\n        /* \"#utility.yul\":3275:3384   */\n    tag_502:\n        /* \"#utility.yul\":3356:3377   */\n      tag_566\n        /* \"#utility.yul\":3371:3376   */\n      dup2\n        /* \"#utility.yul\":3356:3377   */\n      tag_501\n      jump\t// in\n    tag_566:\n        /* \"#utility.yul\":3351:3354   */\n      dup3\n        /* \"#utility.yul\":3344:3378   */\n      mstore\n        /* \"#utility.yul\":3275:3384   */\n      pop\n      pop\n      jump\t// out\n        /* \"#utility.yul\":3390:3600   */\n    tag_87:\n        /* \"#utility.yul\":3477:3481   */\n      0x00\n        /* \"#utility.yul\":3515:3517   */\n      0x20\n        /* \"#utility.yul\":3504:3513   */\n      dup3\n        /* \"#utility.yul\":3500:3518   */\n      add\n        /* \"#utility.yul\":3492:3518   */\n      swap1\n      pop\n        /* \"#utility.yul\":3528:3593   */\n      tag_568\n        /* \"#utility.yul\":3590:3591   */\n      0x00\n        /* \"#utility.yul\":3579:3588   */\n      dup4\n        /* \"#utility.yul\":3575:3592   */\n      add\n        /* \"#utility.yul\":3566:3572   */\n      dup5\n        /* \"#utility.yul\":3528:3593   */\n      tag_502\n      jump\t// in\n    tag_568:\n        /* \"#utility.yul\":3390:3600   */\n      swap3\n      swap2\n      pop\n      pop\n      jump\t// out\n        /* \"#utility.yul\":3606:3724   */\n    tag_503:\n        /* \"#utility.yul\":3693:3717   */\n      tag_570\n        /* \"#utility.yul\":3711:3716   */\n      dup2\n        /* \"#utility.yul\":3693:3717   */\n      tag_494\n      jump\t// in\n    tag_570:\n        /* \"#utility.yul\":3688:3691   */\n      dup3\n        /* \"#utility.yul\":3681:3718   */\n      mstore\n        /* \"#utility.yul\":3606:3724   */\n      pop\n      pop\n      jump\t// out\n        /* \"#utility.yul\":3730:4283   */\n    tag_93:\n        /* \"#utility.yul\":3907:3911   */\n      0x00\n        /* \"#utility.yul\":3945:3948   */\n      0x80\n        /* \"#utility.yul\":3934:3943   */\n      dup3\n        /* \"#utility.yul\":3930:3949   */\n      add\n        /* \"#utility.yul\":3922:3949   */\n      swap1\n      pop\n        /* \"#utility.yul\":3959:4030   */\n      tag_572\n        /* \"#utility.yul\":4027:4028   */\n      0x00\n        /* \"#utility.yul\":4016:4025   */\n      dup4\n        /* \"#utility.yul\":4012:4029   */\n      add\n        /* \"#utility.yul\":4003:4009   */\n      dup8\n        /* \"#utility.yul\":3959:4030   */\n      tag_503\n      jump\t// in\n    tag_572:\n        /* \"#utility.yul\":4040:4112   */\n      tag_573\n        /* \"#utility.yul\":4108:4110   */\n      0x20\n        /* \"#utility.yul\":4097:4106   */\n      dup4\n        /* \"#utility.yul\":4093:4111   */\n      add\n        /* \"#utility.yul\":4084:4090   */\n      dup7\n        /* \"#utility.yul\":4040:4112   */\n      tag_500\n      jump\t// in\n    tag_573:\n        /* \"#utility.yul\":4122:4194   */\n      tag_574\n        /* \"#utility.yul\":4190:4192   */\n      0x40\n        /* \"#utility.yul\":4179:4188   */\n      dup4\n        /* \"#utility.yul\":4175:4193   */\n      add\n        /* \"#utility.yul\":4166:4172   */\n      dup6\n        /* \"#utility.yul\":4122:4194   */\n      tag_503\n      jump\t// in\n    tag_574:\n        /* \"#utility.yul\":4204:4276   */\n      tag_575\n        /* \"#utility.yul\":4272:4274   */\n      0x60\n        /* \"#utility.yul\":4261:4270   */\n      dup4\n        /* \"#utility.yul\":4257:4275   */\n      add\n        /* \"#utility.yul\":4248:4254   */\n      dup5\n        /* \"#utility.yul\":4204:4276   */\n      tag_500\n      jump\t// in\n    tag_575:\n        /* \"#utility.yul\":3730:4283   */\n      swap6\n      swap5\n      pop\n      pop\n      pop\n      pop\n      pop\n      jump\t// out\n        /* \"#utility.yul\":4289:4511   */\n    tag_111:\n        /* \"#utility.yul\":4382:4386   */\n      0x00\n        /* \"#utility.yul\":4420:4422   */\n      0x20\n        /* \"#utility.yul\":4409:4418   */\n      dup3\n        /* \"#utility.yul\":4405:4423   */\n      add\n        /* \"#utility.yul\":4397:4423   */\n      swap1\n      pop\n        /* \"#utility.yul\":4433:4504   */\n      tag_577\n        /* \"#utility.yul\":4501:4502   */\n      0x00\n        /* \"#utility.yul\":4490:4499   */\n      dup4\n        /* \"#utility.yul\":4486:4503   */\n      add\n        /* \"#utility.yul\":4477:4483   */\n      dup5\n        /* \"#utility.yul\":4433:4504   */\n      tag_503\n      jump\t// in\n    tag_577:\n        /* \"#utility.yul\":4289:4511   */\n      swap3\n      swap2\n      pop\n      pop\n      jump\t// out\n        /* \"#utility.yul\":4517:4849   */\n    tag_178:\n        /* \"#utility.yul\":4638:4642   */\n      0x00\n        /* \"#utility.yul\":4676:4678   */\n      0x40\n        /* \"#utility.yul\":4665:4674   */\n      dup3\n        /* \"#utility.yul\":4661:4679   */\n      add\n        /* \"#utility.yul\":4653:4679   */\n      swap1\n      pop\n        /* \"#utility.yul\":4689:4760   */\n      tag_579\n        /* \"#utility.yul\":4757:4758   */\n      0x00\n        /* \"#utility.yul\":4746:4755   */\n      dup4\n        /* \"#utility.yul\":4742:4759   */\n      add\n        /* \"#utility.yul\":4733:4739   */\n      dup6\n        /* \"#utility.yul\":4689:4760   */\n      tag_500\n      jump\t// in\n    tag_579:\n        /* \"#utility.yul\":4770:4842   */\n      tag_580\n        /* \"#utility.yul\":4838:4840   */\n      0x20\n        /* \"#utility.yul\":4827:4836   */\n      dup4\n        /* \"#utility.yul\":4823:4841   */\n      add\n        /* \"#utility.yul\":4814:4820   */\n      dup5\n        /* \"#utility.yul\":4770:4842   */\n      tag_500\n      jump\t// in\n    tag_580:\n        /* \"#utility.yul\":4517:4849   */\n      swap4\n      swap3\n      pop\n      pop\n      pop\n      jump\t// out\n        /* \"#utility.yul\":4855:5035   */\n    tag_504:\n        /* \"#utility.yul\":4903:4980   */\n      0x4e487b7100000000000000000000000000000000000000000000000000000000\n        /* \"#utility.yul\":4900:4901   */\n      0x00\n        /* \"#utility.yul\":4893:4981   */\n      mstore\n        /* \"#utility.yul\":5000:5004   */\n      0x11\n        /* \"#utility.yul\":4997:4998   */\n      0x04\n        /* \"#utility.yul\":4990:5005   */\n      mstore\n        /* \"#utility.yul\":5024:5028   */\n      0x24\n        /* \"#utility.yul\":5021:5022   */\n      0x00\n        /* \"#utility.yul\":5014:5029   */\n      revert\n        /* \"#utility.yul\":5041:5232   */\n    tag_180:\n        /* \"#utility.yul\":5081:5084   */\n      0x00\n        /* \"#utility.yul\":5100:5120   */\n      tag_583\n        /* \"#utility.yul\":5118:5119   */\n      dup3\n        /* \"#utility.yul\":5100:5120   */\n      tag_497\n      jump\t// in\n    tag_583:\n        /* \"#utility.yul\":5095:5120   */\n      swap2\n      pop\n        /* \"#utility.yul\":5134:5154   */\n      tag_584\n        /* \"#utility.yul\":5152:5153   */\n      dup4\n        /* \"#utility.yul\":5134:5154   */\n      tag_497\n      jump\t// in\n    tag_584:\n        /* \"#utility.yul\":5129:5154   */\n      swap3\n      pop\n        /* \"#utility.yul\":5177:5178   */\n      dup3\n        /* \"#utility.yul\":5174:5175   */\n      dup3\n        /* \"#utility.yul\":5170:5179   */\n      add\n        /* \"#utility.yul\":5163:5179   */\n      swap1\n      pop\n        /* \"#utility.yul\":5198:5201   */\n      dup1\n        /* \"#utility.yul\":5195:5196   */\n      dup3\n        /* \"#utility.yul\":5192:5202   */\n      gt\n        /* \"#utility.yul\":5189:5225   */\n      iszero\n      tag_585\n      jumpi\n        /* \"#utility.yul\":5205:5223   */\n      tag_586\n      tag_504\n      jump\t// in\n    tag_586:\n        /* \"#utility.yul\":5189:5225   */\n    tag_585:\n        /* \"#utility.yul\":5041:5232   */\n      swap3\n      swap2\n      pop\n      pop\n      jump\t// out\n        /* \"#utility.yul\":5238:5432   */\n    tag_196:\n        /* \"#utility.yul\":5278:5282   */\n      0x00\n        /* \"#utility.yul\":5298:5318   */\n      tag_588\n        /* \"#utility.yul\":5316:5317   */\n      dup3\n        /* \"#utility.yul\":5298:5318   */\n      tag_497\n      jump\t// in\n    tag_588:\n        /* \"#utility.yul\":5293:5318   */\n      swap2\n      pop\n        /* \"#utility.yul\":5332:5352   */\n      tag_589\n        /* \"#utility.yul\":5350:5351   */\n      dup4\n        /* \"#utility.yul\":5332:5352   */\n      tag_497\n      jump\t// in\n    tag_589:\n        /* \"#utility.yul\":5327:5352   */\n      swap3\n      pop\n        /* \"#utility.yul\":5376:5377   */\n      dup3\n        /* \"#utility.yul\":5373:5374   */\n      dup3\n        /* \"#utility.yul\":5369:5378   */\n      sub\n        /* \"#utility.yul\":5361:5378   */\n      swap1\n      pop\n        /* \"#utility.yul\":5400:5401   */\n      dup2\n        /* \"#utility.yul\":5394:5398   */\n      dup2\n        /* \"#utility.yul\":5391:5402   */\n      gt\n        /* \"#utility.yul\":5388:5425   */\n      iszero\n      tag_590\n      jumpi\n        /* \"#utility.yul\":5405:5423   */\n      tag_591\n      tag_504\n      jump\t// in\n    tag_591:\n        /* \"#utility.yul\":5388:5425   */\n    tag_590:\n        /* \"#utility.yul\":5238:5432   */\n      swap3\n      swap2\n      pop\n      pop\n      jump\t// out\n        /* \"#utility.yul\":5438:5618   */\n    tag_199:\n        /* \"#utility.yul\":5486:5563   */\n      0x4e487b7100000000000000000000000000000000000000000000000000000000\n        /* \"#utility.yul\":5483:5484   */\n      0x00\n        /* \"#utility.yul\":5476:5564   */\n      mstore\n        /* \"#utility.yul\":5583:5587   */\n      0x32\n        /* \"#utility.yul\":5580:5581   */\n      0x04\n        /* \"#utility.yul\":5573:5588   */\n      mstore\n        /* \"#utility.yul\":5607:5611   */\n      0x24\n        /* \"#utility.yul\":5604:5605   */\n      0x00\n        /* \"#utility.yul\":5597:5612   */\n      revert\n        /* \"#utility.yul\":5624:5804   */\n    tag_207:\n        /* \"#utility.yul\":5672:5749   */\n      0x4e487b7100000000000000000000000000000000000000000000000000000000\n        /* \"#utility.yul\":5669:5670   */\n      0x00\n        /* \"#utility.yul\":5662:5750   */\n      mstore\n        /* \"#utility.yul\":5769:5773   */\n      0x31\n        /* \"#utility.yul\":5766:5767   */\n      0x04\n        /* \"#utility.yul\":5759:5774   */\n      mstore\n        /* \"#utility.yul\":5793:5797   */\n      0x24\n        /* \"#utility.yul\":5790:5791   */\n      0x00\n        /* \"#utility.yul\":5783:5798   */\n      revert\n        /* \"#utility.yul\":5810:5915   */\n    tag_505:\n        /* \"#utility.yul\":5846:5853   */\n      0x00\n        /* \"#utility.yul\":5886:5908   */\n      0xffffffffffffffffffff\n        /* \"#utility.yul\":5879:5884   */\n      dup3\n        /* \"#utility.yul\":5875:5909   */\n      and\n        /* \"#utility.yul\":5864:5909   */\n      swap1\n      pop\n        /* \"#utility.yul\":5810:5915   */\n      swap2\n      swap1\n      pop\n      jump\t// out\n        /* \"#utility.yul\":5921:6041   */\n    tag_506:\n        /* \"#utility.yul\":5993:6016   */\n      tag_596\n        /* \"#utility.yul\":6010:6015   */\n      dup2\n        /* \"#utility.yul\":5993:6016   */\n      tag_505\n      jump\t// in\n    tag_596:\n        /* \"#utility.yul\":5986:5991   */\n      dup2\n        /* \"#utility.yul\":5983:6017   */\n      eq\n        /* \"#utility.yul\":5973:6035   */\n      tag_597\n      jumpi\n        /* \"#utility.yul\":6031:6032   */\n      0x00\n        /* \"#utility.yul\":6028:6029   */\n      0x00\n        /* \"#utility.yul\":6021:6033   */\n      revert\n        /* \"#utility.yul\":5973:6035   */\n    tag_597:\n        /* \"#utility.yul\":5921:6041   */\n      pop\n      jump\t// out\n        /* \"#utility.yul\":6047:6188   */\n    tag_507:\n        /* \"#utility.yul\":6103:6108   */\n      0x00\n        /* \"#utility.yul\":6134:6140   */\n      dup2\n        /* \"#utility.yul\":6128:6141   */\n      mload\n        /* \"#utility.yul\":6119:6141   */\n      swap1\n      pop\n        /* \"#utility.yul\":6150:6182   */\n      tag_599\n        /* \"#utility.yul\":6176:6181   */\n      dup2\n        /* \"#utility.yul\":6150:6182   */\n      tag_506\n      jump\t// in\n    tag_599:\n        /* \"#utility.yul\":6047:6188   */\n      swap3\n      swap2\n      pop\n      pop\n      jump\t// out\n        /* \"#utility.yul\":6194:6270   */\n    tag_508:\n        /* \"#utility.yul\":6230:6237   */\n      0x00\n        /* \"#utility.yul\":6259:6264   */\n      dup2\n        /* \"#utility.yul\":6248:6264   */\n      swap1\n      pop\n        /* \"#utility.yul\":6194:6270   */\n      swap2\n      swap1\n      pop\n      jump\t// out\n        /* \"#utility.yul\":6276:6396   */\n    tag_509:\n        /* \"#utility.yul\":6348:6371   */\n      tag_602\n        /* \"#utility.yul\":6365:6370   */\n      dup2\n        /* \"#utility.yul\":6348:6371   */\n      tag_508\n      jump\t// in\n    tag_602:\n        /* \"#utility.yul\":6341:6346   */\n      dup2\n        /* \"#utility.yul\":6338:6372   */\n      eq\n        /* \"#utility.yul\":6328:6390   */\n      tag_603\n      jumpi\n        /* \"#utility.yul\":6386:6387   */\n      0x00\n        /* \"#utility.yul\":6383:6384   */\n      0x00\n        /* \"#utility.yul\":6376:6388   */\n      revert\n        /* \"#utility.yul\":6328:6390   */\n    tag_603:\n        /* \"#utility.yul\":6276:6396   */\n      pop\n      jump\t// out\n        /* \"#utility.yul\":6402:6543   */\n    tag_510:\n        /* \"#utility.yul\":6458:6463   */\n      0x00\n        /* \"#utility.yul\":6489:6495   */\n      dup2\n        /* \"#utility.yul\":6483:6496   */\n      mload\n        /* \"#utility.yul\":6474:6496   */\n      swap1\n      pop\n        /* \"#utility.yul\":6505:6537   */\n      tag_605\n        /* \"#utility.yul\":6531:6536   */\n      dup2\n        /* \"#utility.yul\":6505:6537   */\n      tag_509\n      jump\t// in\n    tag_605:\n        /* \"#utility.yul\":6402:6543   */\n      swap3\n      swap2\n      pop\n      pop\n      jump\t// out\n        /* \"#utility.yul\":6549:6692   */\n    tag_511:\n        /* \"#utility.yul\":6606:6611   */\n      0x00\n        /* \"#utility.yul\":6637:6643   */\n      dup2\n        /* \"#utility.yul\":6631:6644   */\n      mload\n        /* \"#utility.yul\":6622:6644   */\n      swap1\n      pop\n        /* \"#utility.yul\":6653:6686   */\n      tag_607\n        /* \"#utility.yul\":6680:6685   */\n      dup2\n        /* \"#utility.yul\":6653:6686   */\n      tag_498\n      jump\t// in\n    tag_607:\n        /* \"#utility.yul\":6549:6692   */\n      swap3\n      swap2\n      pop\n      pop\n      jump\t// out\n        /* \"#utility.yul\":6698:7669   */\n    tag_218:\n        /* \"#utility.yul\":6801:6807   */\n      0x00\n        /* \"#utility.yul\":6809:6815   */\n      0x00\n        /* \"#utility.yul\":6817:6823   */\n      0x00\n        /* \"#utility.yul\":6825:6831   */\n      0x00\n        /* \"#utility.yul\":6833:6839   */\n      0x00\n        /* \"#utility.yul\":6882:6885   */\n      0xa0\n        /* \"#utility.yul\":6870:6879   */\n      dup7\n        /* \"#utility.yul\":6861:6868   */\n      dup9\n        /* \"#utility.yul\":6857:6880   */\n      sub\n        /* \"#utility.yul\":6853:6886   */\n      slt\n        /* \"#utility.yul\":6850:6970   */\n      iszero\n      tag_609\n      jumpi\n        /* \"#utility.yul\":6889:6968   */\n      tag_610\n      tag_491\n      jump\t// in\n    tag_610:\n        /* \"#utility.yul\":6850:6970   */\n    tag_609:\n        /* \"#utility.yul\":7009:7010   */\n      0x00\n        /* \"#utility.yul\":7034:7097   */\n      tag_611\n        /* \"#utility.yul\":7089:7096   */\n      dup9\n        /* \"#utility.yul\":7080:7086   */\n      dup3\n        /* \"#utility.yul\":7069:7078   */\n      dup10\n        /* \"#utility.yul\":7065:7087   */\n      add\n        /* \"#utility.yul\":7034:7097   */\n      tag_507\n      jump\t// in\n    tag_611:\n        /* \"#utility.yul\":7024:7097   */\n      swap6\n      pop\n        /* \"#utility.yul\":6980:7107   */\n      pop\n        /* \"#utility.yul\":7146:7148   */\n      0x20\n        /* \"#utility.yul\":7172:7235   */\n      tag_612\n        /* \"#utility.yul\":7227:7234   */\n      dup9\n        /* \"#utility.yul\":7218:7224   */\n      dup3\n        /* \"#utility.yul\":7207:7216   */\n      dup10\n        /* \"#utility.yul\":7203:7225   */\n      add\n        /* \"#utility.yul\":7172:7235   */\n      tag_510\n      jump\t// in\n    tag_612:\n        /* \"#utility.yul\":7162:7235   */\n      swap5\n      pop\n        /* \"#utility.yul\":7117:7245   */\n      pop\n        /* \"#utility.yul\":7284:7286   */\n      0x40\n        /* \"#utility.yul\":7310:7374   */\n      tag_613\n        /* \"#utility.yul\":7366:7373   */\n      dup9\n        /* \"#utility.yul\":7357:7363   */\n      dup3\n        /* \"#utility.yul\":7346:7355   */\n      dup10\n        /* \"#utility.yul\":7342:7364   */\n      add\n        /* \"#utility.yul\":7310:7374   */\n      tag_511\n      jump\t// in\n    tag_613:\n        /* \"#utility.yul\":7300:7374   */\n      swap4\n      pop\n        /* \"#utility.yul\":7255:7384   */\n      pop\n        /* \"#utility.yul\":7423:7425   */\n      0x60\n        /* \"#utility.yul\":7449:7513   */\n      tag_614\n        /* \"#utility.yul\":7505:7512   */\n      dup9\n        /* \"#utility.yul\":7496:7502   */\n      dup3\n        /* \"#utility.yul\":7485:7494   */\n      dup10\n        /* \"#utility.yul\":7481:7503   */\n      add\n        /* \"#utility.yul\":7449:7513   */\n      tag_511\n      jump\t// in\n    tag_614:\n        /* \"#utility.yul\":7439:7513   */\n      swap3\n      pop\n        /* \"#utility.yul\":7394:7523   */\n      pop\n        /* \"#utility.yul\":7562:7565   */\n      0x80\n        /* \"#utility.yul\":7589:7652   */\n      tag_615\n        /* \"#utility.yul\":7644:7651   */\n      dup9\n        /* \"#utility.yul\":7635:7641   */\n      dup3\n        /* \"#utility.yul\":7624:7633   */\n      dup10\n        /* \"#utility.yul\":7620:7642   */\n      add\n        /* \"#utility.yul\":7589:7652   */\n      tag_507\n      jump\t// in\n    tag_615:\n        /* \"#utility.yul\":7579:7652   */\n      swap2\n      pop\n        /* \"#utility.yul\":7533:7662   */\n      pop\n        /* \"#utility.yul\":6698:7669   */\n      swap3\n      swap6\n      pop\n      swap3\n      swap6\n      swap1\n      swap4\n      pop\n      jump\t// out\n        /* \"#utility.yul\":7675:7790   */\n    tag_512:\n        /* \"#utility.yul\":7760:7783   */\n      tag_617\n        /* \"#utility.yul\":7777:7782   */\n      dup2\n        /* \"#utility.yul\":7760:7783   */\n      tag_508\n      jump\t// in\n    tag_617:\n        /* \"#utility.yul\":7755:7758   */\n      dup3\n        /* \"#utility.yul\":7748:7784   */\n      mstore\n        /* \"#utility.yul\":7675:7790   */\n      pop\n      pop\n      jump\t// out\n        /* \"#utility.yul\":7796:8014   */\n    tag_221:\n        /* \"#utility.yul\":7887:7891   */\n      0x00\n        /* \"#utility.yul\":7925:7927   */\n      0x20\n        /* \"#utility.yul\":7914:7923   */\n      dup3\n        /* \"#utility.yul\":7910:7928   */\n      add\n        /* \"#utility.yul\":7902:7928   */\n      swap1\n      pop\n        /* \"#utility.yul\":7938:8007   */\n      tag_619\n        /* \"#utility.yul\":8004:8005   */\n      0x00\n        /* \"#utility.yul\":7993:8002   */\n      dup4\n        /* \"#utility.yul\":7989:8006   */\n      add\n        /* \"#utility.yul\":7980:7986   */\n      dup5\n        /* \"#utility.yul\":7938:8007   */\n      tag_512\n      jump\t// in\n    tag_619:\n        /* \"#utility.yul\":7796:8014   */\n      swap3\n      swap2\n      pop\n      pop\n      jump\t// out\n        /* \"#utility.yul\":8020:8106   */\n    tag_513:\n        /* \"#utility.yul\":8055:8062   */\n      0x00\n        /* \"#utility.yul\":8095:8099   */\n      0xff\n        /* \"#utility.yul\":8088:8093   */\n      dup3\n        /* \"#utility.yul\":8084:8100   */\n      and\n        /* \"#utility.yul\":8073:8100   */\n      swap1\n      pop\n        /* \"#utility.yul\":8020:8106   */\n      swap2\n      swap1\n      pop\n      jump\t// out\n        /* \"#utility.yul\":8112:8230   */\n    tag_514:\n        /* \"#utility.yul\":8183:8205   */\n      tag_622\n        /* \"#utility.yul\":8199:8204   */\n      dup2\n        /* \"#utility.yul\":8183:8205   */\n      tag_513\n      jump\t// in\n    tag_622:\n        /* \"#utility.yul\":8176:8181   */\n      dup2\n        /* \"#utility.yul\":8173:8206   */\n      eq\n        /* \"#utility.yul\":8163:8224   */\n      tag_623\n      jumpi\n        /* \"#utility.yul\":8220:8221   */\n      0x00\n        /* \"#utility.yul\":8217:8218   */\n      0x00\n        /* \"#utility.yul\":8210:8222   */\n      revert\n        /* \"#utility.yul\":8163:8224   */\n    tag_623:\n        /* \"#utility.yul\":8112:8230   */\n      pop\n      jump\t// out\n        /* \"#utility.yul\":8236:8375   */\n    tag_515:\n        /* \"#utility.yul\":8291:8296   */\n      0x00\n        /* \"#utility.yul\":8322:8328   */\n      dup2\n        /* \"#utility.yul\":8316:8329   */\n      mload\n        /* \"#utility.yul\":8307:8329   */\n      swap1\n      pop\n        /* \"#utility.yul\":8338:8369   */\n      tag_625\n        /* \"#utility.yul\":8363:8368   */\n      dup2\n        /* \"#utility.yul\":8338:8369   */\n      tag_514\n      jump\t// in\n    tag_625:\n        /* \"#utility.yul\":8236:8375   */\n      swap3\n      swap2\n      pop\n      pop\n      jump\t// out\n        /* \"#utility.yul\":8381:8728   */\n    tag_230:\n        /* \"#utility.yul\":8449:8455   */\n      0x00\n        /* \"#utility.yul\":8498:8500   */\n      0x20\n        /* \"#utility.yul\":8486:8495   */\n      dup3\n        /* \"#utility.yul\":8477:8484   */\n      dup5\n        /* \"#utility.yul\":8473:8496   */\n      sub\n        /* \"#utility.yul\":8469:8501   */\n      slt\n        /* \"#utility.yul\":8466:8585   */\n      iszero\n      tag_627\n      jumpi\n        /* \"#utility.yul\":8504:8583   */\n      tag_628\n      tag_491\n      jump\t// in\n    tag_628:\n        /* \"#utility.yul\":8466:8585   */\n    tag_627:\n        /* \"#utility.yul\":8624:8625   */\n      0x00\n        /* \"#utility.yul\":8649:8711   */\n      tag_629\n        /* \"#utility.yul\":8703:8710   */\n      dup5\n        /* \"#utility.yul\":8694:8700   */\n      dup3\n        /* \"#utility.yul\":8683:8692   */\n      dup6\n        /* \"#utility.yul\":8679:8701   */\n      add\n        /* \"#utility.yul\":8649:8711   */\n      tag_515\n      jump\t// in\n    tag_629:\n        /* \"#utility.yul\":8639:8711   */\n      swap2\n      pop\n        /* \"#utility.yul\":8595:8721   */\n      pop\n        /* \"#utility.yul\":8381:8728   */\n      swap3\n      swap2\n      pop\n      pop\n      jump\t// out\n        /* \"#utility.yul\":8734:8925   */\n    tag_233:\n        /* \"#utility.yul\":8772:8776   */\n      0x00\n        /* \"#utility.yul\":8792:8810   */\n      tag_631\n        /* \"#utility.yul\":8808:8809   */\n      dup3\n        /* \"#utility.yul\":8792:8810   */\n      tag_513\n      jump\t// in\n    tag_631:\n        /* \"#utility.yul\":8787:8810   */\n      swap2\n      pop\n        /* \"#utility.yul\":8824:8842   */\n      tag_632\n        /* \"#utility.yul\":8840:8841   */\n      dup4\n        /* \"#utility.yul\":8824:8842   */\n      tag_513\n      jump\t// in\n    tag_632:\n        /* \"#utility.yul\":8819:8842   */\n      swap3\n      pop\n        /* \"#utility.yul\":8866:8867   */\n      dup3\n        /* \"#utility.yul\":8863:8864   */\n      dup3\n        /* \"#utility.yul\":8859:8868   */\n      sub\n        /* \"#utility.yul\":8851:8868   */\n      swap1\n      pop\n        /* \"#utility.yul\":8890:8894   */\n      0xff\n        /* \"#utility.yul\":8884:8888   */\n      dup2\n        /* \"#utility.yul\":8881:8895   */\n      gt\n        /* \"#utility.yul\":8878:8918   */\n      iszero\n      tag_633\n      jumpi\n        /* \"#utility.yul\":8898:8916   */\n      tag_634\n      tag_504\n      jump\t// in\n    tag_634:\n        /* \"#utility.yul\":8878:8918   */\n    tag_633:\n        /* \"#utility.yul\":8734:8925   */\n      swap3\n      swap2\n      pop\n      pop\n      jump\t// out\n        /* \"#utility.yul\":8931:9033   */\n    tag_516:\n        /* \"#utility.yul\":8973:8981   */\n      0x00\n        /* \"#utility.yul\":9020:9025   */\n      dup2\n        /* \"#utility.yul\":9017:9018   */\n      0x01\n        /* \"#utility.yul\":9013:9026   */\n      shr\n        /* \"#utility.yul\":8992:9026   */\n      swap1\n      pop\n        /* \"#utility.yul\":8931:9033   */\n      swap2\n      swap1\n      pop\n      jump\t// out\n        /* \"#utility.yul\":9039:9887   */\n    tag_517:\n        /* \"#utility.yul\":9100:9105   */\n      0x00\n        /* \"#utility.yul\":9107:9111   */\n      0x00\n        /* \"#utility.yul\":9131:9137   */\n      dup3\n        /* \"#utility.yul\":9122:9137   */\n      swap2\n      pop\n        /* \"#utility.yul\":9155:9160   */\n      dup4\n        /* \"#utility.yul\":9146:9160   */\n      swap1\n      pop\n        /* \"#utility.yul\":9169:9881   */\n    tag_637:\n        /* \"#utility.yul\":9190:9191   */\n      0x01\n        /* \"#utility.yul\":9180:9188   */\n      dup6\n        /* \"#utility.yul\":9177:9192   */\n      gt\n        /* \"#utility.yul\":9169:9881   */\n      iszero\n      tag_639\n      jumpi\n        /* \"#utility.yul\":9285:9289   */\n      dup1\n        /* \"#utility.yul\":9280:9283   */\n      dup7\n        /* \"#utility.yul\":9276:9290   */\n      div\n        /* \"#utility.yul\":9270:9274   */\n      dup2\n        /* \"#utility.yul\":9267:9291   */\n      gt\n        /* \"#utility.yul\":9264:9314   */\n      iszero\n      tag_640\n      jumpi\n        /* \"#utility.yul\":9294:9312   */\n      tag_641\n      tag_504\n      jump\t// in\n    tag_641:\n        /* \"#utility.yul\":9264:9314   */\n    tag_640:\n        /* \"#utility.yul\":9344:9345   */\n      0x01\n        /* \"#utility.yul\":9334:9342   */\n      dup6\n        /* \"#utility.yul\":9330:9346   */\n      and\n        /* \"#utility.yul\":9327:9778   */\n      iszero\n      tag_642\n      jumpi\n        /* \"#utility.yul\":9759:9763   */\n      dup1\n        /* \"#utility.yul\":9752:9757   */\n      dup3\n        /* \"#utility.yul\":9748:9764   */\n      mul\n        /* \"#utility.yul\":9739:9764   */\n      swap2\n      pop\n        /* \"#utility.yul\":9327:9778   */\n    tag_642:\n        /* \"#utility.yul\":9809:9813   */\n      dup1\n        /* \"#utility.yul\":9803:9807   */\n      dup2\n        /* \"#utility.yul\":9799:9814   */\n      mul\n        /* \"#utility.yul\":9791:9814   */\n      swap1\n      pop\n        /* \"#utility.yul\":9839:9871   */\n      tag_643\n        /* \"#utility.yul\":9862:9870   */\n      dup6\n        /* \"#utility.yul\":9839:9871   */\n      tag_516\n      jump\t// in\n    tag_643:\n        /* \"#utility.yul\":9827:9871   */\n      swap5\n      pop\n        /* \"#utility.yul\":9169:9881   */\n      jump(tag_637)\n    tag_639:\n        /* \"#utility.yul\":9039:9887   */\n      swap5\n      pop\n      swap5\n      swap3\n      pop\n      pop\n      pop\n      jump\t// out\n        /* \"#utility.yul\":9893:10966   */\n    tag_518:\n        /* \"#utility.yul\":9947:9952   */\n      0x00\n        /* \"#utility.yul\":10138:10146   */\n      dup3\n        /* \"#utility.yul\":10128:10168   */\n      tag_645\n      jumpi\n        /* \"#utility.yul\":10159:10160   */\n      0x01\n        /* \"#utility.yul\":10150:10160   */\n      swap1\n      pop\n        /* \"#utility.yul\":10161:10166   */\n      jump(tag_644)\n        /* \"#utility.yul\":10128:10168   */\n    tag_645:\n        /* \"#utility.yul\":10187:10191   */\n      dup2\n        /* \"#utility.yul\":10177:10213   */\n      tag_646\n      jumpi\n        /* \"#utility.yul\":10204:10205   */\n      0x00\n        /* \"#utility.yul\":10195:10205   */\n      swap1\n      pop\n        /* \"#utility.yul\":10206:10211   */\n      jump(tag_644)\n        /* \"#utility.yul\":10177:10213   */\n    tag_646:\n        /* \"#utility.yul\":10273:10277   */\n      dup2\n        /* \"#utility.yul\":10321:10322   */\n      0x01\n        /* \"#utility.yul\":10316:10343   */\n      dup2\n      eq\n      tag_648\n      jumpi\n        /* \"#utility.yul\":10357:10358   */\n      0x02\n        /* \"#utility.yul\":10352:10543   */\n      dup2\n      eq\n      tag_649\n      jumpi\n        /* \"#utility.yul\":10266:10543   */\n      jump(tag_647)\n        /* \"#utility.yul\":10316:10343   */\n    tag_648:\n        /* \"#utility.yul\":10334:10335   */\n      0x01\n        /* \"#utility.yul\":10325:10335   */\n      swap2\n      pop\n        /* \"#utility.yul\":10336:10341   */\n      pop\n      jump(tag_644)\n        /* \"#utility.yul\":10352:10543   */\n    tag_649:\n        /* \"#utility.yul\":10397:10400   */\n      0xff\n        /* \"#utility.yul\":10387:10395   */\n      dup5\n        /* \"#utility.yul\":10384:10401   */\n      gt\n        /* \"#utility.yul\":10381:10424   */\n      iszero\n      tag_650\n      jumpi\n        /* \"#utility.yul\":10404:10422   */\n      tag_651\n      tag_504\n      jump\t// in\n    tag_651:\n        /* \"#utility.yul\":10381:10424   */\n    tag_650:\n        /* \"#utility.yul\":10453:10461   */\n      dup4\n        /* \"#utility.yul\":10450:10451   */\n      0x02\n        /* \"#utility.yul\":10446:10462   */\n      exp\n        /* \"#utility.yul\":10437:10462   */\n      swap2\n      pop\n        /* \"#utility.yul\":10488:10491   */\n      dup5\n        /* \"#utility.yul\":10481:10486   */\n      dup3\n        /* \"#utility.yul\":10478:10492   */\n      gt\n        /* \"#utility.yul\":10475:10515   */\n      iszero\n      tag_652\n      jumpi\n        /* \"#utility.yul\":10495:10513   */\n      tag_653\n      tag_504\n      jump\t// in\n    tag_653:\n        /* \"#utility.yul\":10475:10515   */\n    tag_652:\n        /* \"#utility.yul\":10528:10533   */\n      pop\n      jump(tag_644)\n        /* \"#utility.yul\":10266:10543   */\n    tag_647:\n      pop\n        /* \"#utility.yul\":10652:10654   */\n      0x20\n        /* \"#utility.yul\":10642:10650   */\n      dup4\n        /* \"#utility.yul\":10639:10655   */\n      lt\n        /* \"#utility.yul\":10633:10636   */\n      0x0133\n        /* \"#utility.yul\":10627:10631   */\n      dup4\n        /* \"#utility.yul\":10624:10637   */\n      lt\n        /* \"#utility.yul\":10620:10656   */\n      and\n        /* \"#utility.yul\":10602:10604   */\n      0x4e\n        /* \"#utility.yul\":10592:10600   */\n      dup5\n        /* \"#utility.yul\":10589:10605   */\n      lt\n        /* \"#utility.yul\":10584:10586   */\n      0x0b\n        /* \"#utility.yul\":10578:10582   */\n      dup5\n        /* \"#utility.yul\":10575:10587   */\n      lt\n        /* \"#utility.yul\":10571:10606   */\n      and\n        /* \"#utility.yul\":10555:10666   */\n      or\n        /* \"#utility.yul\":10552:10798   */\n      iszero\n      tag_654\n      jumpi\n        /* \"#utility.yul\":10708:10716   */\n      dup3\n        /* \"#utility.yul\":10702:10706   */\n      dup3\n        /* \"#utility.yul\":10698:10717   */\n      exp\n        /* \"#utility.yul\":10689:10717   */\n      swap1\n      pop\n        /* \"#utility.yul\":10743:10746   */\n      dup4\n        /* \"#utility.yul\":10736:10741   */\n      dup2\n        /* \"#utility.yul\":10733:10747   */\n      gt\n        /* \"#utility.yul\":10730:10770   */\n      iszero\n      tag_655\n      jumpi\n        /* \"#utility.yul\":10750:10768   */\n      tag_656\n      tag_504\n      jump\t// in\n    tag_656:\n        /* \"#utility.yul\":10730:10770   */\n    tag_655:\n        /* \"#utility.yul\":10783:10788   */\n      jump(tag_644)\n        /* \"#utility.yul\":10552:10798   */\n    tag_654:\n        /* \"#utility.yul\":10823:10865   */\n      tag_657\n        /* \"#utility.yul\":10861:10864   */\n      dup5\n        /* \"#utility.yul\":10851:10859   */\n      dup5\n        /* \"#utility.yul\":10845:10849   */\n      dup5\n        /* \"#utility.yul\":10842:10843   */\n      0x01\n        /* \"#utility.yul\":10823:10865   */\n      tag_517\n      jump\t// in\n    tag_657:\n        /* \"#utility.yul\":10808:10865   */\n      swap3\n      pop\n      swap1\n      pop\n        /* \"#utility.yul\":10897:10901   */\n      dup2\n        /* \"#utility.yul\":10892:10895   */\n      dup5\n        /* \"#utility.yul\":10888:10902   */\n      div\n        /* \"#utility.yul\":10881:10886   */\n      dup2\n        /* \"#utility.yul\":10878:10903   */\n      gt\n        /* \"#utility.yul\":10875:10926   */\n      iszero\n      tag_658\n      jumpi\n        /* \"#utility.yul\":10906:10924   */\n      tag_659\n      tag_504\n      jump\t// in\n    tag_659:\n        /* \"#utility.yul\":10875:10926   */\n    tag_658:\n        /* \"#utility.yul\":10955:10959   */\n      dup2\n        /* \"#utility.yul\":10948:10953   */\n      dup2\n        /* \"#utility.yul\":10944:10960   */\n      mul\n        /* \"#utility.yul\":10935:10960   */\n      swap1\n      pop\n        /* \"#utility.yul\":9893:10966   */\n    tag_644:\n      swap4\n      swap3\n      pop\n      pop\n      pop\n      jump\t// out\n        /* \"#utility.yul\":10972:11253   */\n    tag_235:\n        /* \"#utility.yul\":11030:11035   */\n      0x00\n        /* \"#utility.yul\":11054:11077   */\n      tag_661\n        /* \"#utility.yul\":11072:11076   */\n      dup3\n        /* \"#utility.yul\":11054:11077   */\n      tag_497\n      jump\t// in\n    tag_661:\n        /* \"#utility.yul\":11046:11077   */\n      swap2\n      pop\n        /* \"#utility.yul\":11098:11123   */\n      tag_662\n        /* \"#utility.yul\":11114:11122   */\n      dup4\n        /* \"#utility.yul\":11098:11123   */\n      tag_513\n      jump\t// in\n    tag_662:\n        /* \"#utility.yul\":11086:11123   */\n      swap3\n      pop\n        /* \"#utility.yul\":11142:11246   */\n      tag_663\n        /* \"#utility.yul\":11179:11245   */\n      0xffffffffffffffffffffffffffffffffffffffffffffffffffffffffffffffff\n        /* \"#utility.yul\":11169:11177   */\n      dup5\n        /* \"#utility.yul\":11163:11167   */\n      dup5\n        /* \"#utility.yul\":11142:11246   */\n      tag_518\n      jump\t// in\n    tag_663:\n        /* \"#utility.yul\":11133:11246   */\n      swap1\n      pop\n        /* \"#utility.yul\":10972:11253   */\n      swap3\n      swap2\n      pop\n      pop\n      jump\t// out\n        /* \"#utility.yul\":11259:11669   */\n    tag_237:\n        /* \"#utility.yul\":11299:11306   */\n      0x00\n        /* \"#utility.yul\":11322:11342   */\n      tag_665\n        /* \"#utility.yul\":11340:11341   */\n      dup3\n        /* \"#utility.yul\":11322:11342   */\n      tag_497\n      jump\t// in\n    tag_665:\n        /* \"#utility.yul\":11317:11342   */\n      swap2\n      pop\n        /* \"#utility.yul\":11356:11376   */\n      tag_666\n        /* \"#utility.yul\":11374:11375   */\n      dup4\n        /* \"#utility.yul\":11356:11376   */\n      tag_497\n      jump\t// in\n    tag_666:\n        /* \"#utility.yul\":11351:11376   */\n      swap3\n      pop\n        /* \"#utility.yul\":11411:11412   */\n      dup3\n        /* \"#utility.yul\":11408:11409   */\n      dup3\n        /* \"#utility.yul\":11404:11413   */\n      mul\n        /* \"#utility.yul\":11433:11463   */\n      tag_667\n        /* \"#utility.yul\":11451:11462   */\n      dup2\n        /* \"#utility.yul\":11433:11463   */\n      tag_497\n      jump\t// in\n    tag_667:\n        /* \"#utility.yul\":11422:11463   */\n      swap2\n      pop\n        /* \"#utility.yul\":11612:11613   */\n      dup3\n        /* \"#utility.yul\":11603:11610   */\n      dup3\n        /* \"#utility.yul\":11599:11614   */\n      div\n        /* \"#utility.yul\":11596:11597   */\n      dup5\n        /* \"#utility.yul\":11593:11615   */\n      eq\n        /* \"#utility.yul\":11573:11574   */\n      dup4\n        /* \"#utility.yul\":11566:11575   */\n      iszero\n        /* \"#utility.yul\":11546:11629   */\n      or\n        /* \"#utility.yul\":11523:11662   */\n      tag_668\n      jumpi\n        /* \"#utility.yul\":11642:11660   */\n      tag_669\n      tag_504\n      jump\t// in\n    tag_669:\n        /* \"#utility.yul\":11523:11662   */\n    tag_668:\n        /* \"#utility.yul\":11307:11669   */\n      pop\n        /* \"#utility.yul\":11259:11669   */\n      swap3\n      swap2\n      pop\n      pop\n      jump\t// out\n        /* \"#utility.yul\":11675:12026   */\n    tag_254:\n        /* \"#utility.yul\":11745:11751   */\n      0x00\n        /* \"#utility.yul\":11794:11796   */\n      0x20\n        /* \"#utility.yul\":11782:11791   */\n      dup3\n        /* \"#utility.yul\":11773:11780   */\n      dup5\n        /* \"#utility.yul\":11769:11792   */\n      sub\n        /* \"#utility.yul\":11765:11797   */\n      slt\n        /* \"#utility.yul\":11762:11881   */\n      iszero\n      tag_671\n      jumpi\n        /* \"#utility.yul\":11800:11879   */\n      tag_672\n      tag_491\n      jump\t// in\n    tag_672:\n        /* \"#utility.yul\":11762:11881   */\n    tag_671:\n        /* \"#utility.yul\":11920:11921   */\n      0x00\n        /* \"#utility.yul\":11945:12009   */\n      tag_673\n        /* \"#utility.yul\":12001:12008   */\n      dup5\n        /* \"#utility.yul\":11992:11998   */\n      dup3\n        /* \"#utility.yul\":11981:11990   */\n      dup6\n        /* \"#utility.yul\":11977:11999   */\n      add\n        /* \"#utility.yul\":11945:12009   */\n      tag_511\n      jump\t// in\n    tag_673:\n        /* \"#utility.yul\":11935:12009   */\n      swap2\n      pop\n        /* \"#utility.yul\":11891:12019   */\n      pop\n        /* \"#utility.yul\":11675:12026   */\n      swap3\n      swap2\n      pop\n      pop\n      jump\t// out\n        /* \"#utility.yul\":12032:12474   */\n    tag_323:\n        /* \"#utility.yul\":12181:12185   */\n      0x00\n        /* \"#utility.yul\":12219:12221   */\n      0x60\n        /* \"#utility.yul\":12208:12217   */\n      dup3\n        /* \"#utility.yul\":12204:12222   */\n      add\n        /* \"#utility.yul\":12196:12222   */\n      swap1\n      pop\n        /* \"#utility.yul\":12232:12303   */\n      tag_675\n        /* \"#utility.yul\":12300:12301   */\n      0x00\n        /* \"#utility.yul\":12289:12298   */\n      dup4\n        /* \"#utility.yul\":12285:12302   */\n      add\n        /* \"#utility.yul\":12276:12282   */\n      dup7\n        /* \"#utility.yul\":12232:12303   */\n      tag_503\n      jump\t// in\n    tag_675:\n        /* \"#utility.yul\":12313:12385   */\n      tag_676\n        /* \"#utility.yul\":12381:12383   */\n      0x20\n        /* \"#utility.yul\":12370:12379   */\n      dup4\n        /* \"#utility.yul\":12366:12384   */\n      add\n        /* \"#utility.yul\":12357:12363   */\n      dup6\n        /* \"#utility.yul\":12313:12385   */\n      tag_503\n      jump\t// in\n    tag_676:\n        /* \"#utility.yul\":12395:12467   */\n      tag_677\n        /* \"#utility.yul\":12463:12465   */\n      0x40\n        /* \"#utility.yul\":12452:12461   */\n      dup4\n        /* \"#utility.yul\":12448:12466   */\n      add\n        /* \"#utility.yul\":12439:12445   */\n      dup5\n        /* \"#utility.yul\":12395:12467   */\n      tag_500\n      jump\t// in\n    tag_677:\n        /* \"#utility.yul\":12032:12474   */\n      swap5\n      swap4\n      pop\n      pop\n      pop\n      pop\n      jump\t// out\n        /* \"#utility.yul\":12480:12596   */\n    tag_519:\n        /* \"#utility.yul\":12550:12571   */\n      tag_679\n        /* \"#utility.yul\":12565:12570   */\n      dup2\n        /* \"#utility.yul\":12550:12571   */\n      tag_501\n      jump\t// in\n    tag_679:\n        /* \"#utility.yul\":12543:12548   */\n      dup2\n        /* \"#utility.yul\":12540:12572   */\n      eq\n        /* \"#utility.yul\":12530:12590   */\n      tag_680\n      jumpi\n        /* \"#utility.yul\":12586:12587   */\n      0x00\n        /* \"#utility.yul\":12583:12584   */\n      0x00\n        /* \"#utility.yul\":12576:12588   */\n      revert\n        /* \"#utility.yul\":12530:12590   */\n    tag_680:\n        /* \"#utility.yul\":12480:12596   */\n      pop\n      jump\t// out\n        /* \"#utility.yul\":12602:12739   */\n    tag_520:\n        /* \"#utility.yul\":12656:12661   */\n      0x00\n        /* \"#utility.yul\":12687:12693   */\n      dup2\n        /* \"#utility.yul\":12681:12694   */\n      mload\n        /* \"#utility.yul\":12672:12694   */\n      swap1\n      pop\n        /* \"#utility.yul\":12703:12733   */\n      tag_682\n        /* \"#utility.yul\":12727:12732   */\n      dup2\n        /* \"#utility.yul\":12703:12733   */\n      tag_519\n      jump\t// in\n    tag_682:\n        /* \"#utility.yul\":12602:12739   */\n      swap3\n      swap2\n      pop\n      pop\n      jump\t// out\n        /* \"#utility.yul\":12745:13090   */\n    tag_327:\n        /* \"#utility.yul\":12812:12818   */\n      0x00\n        /* \"#utility.yul\":12861:12863   */\n      0x20\n        /* \"#utility.yul\":12849:12858   */\n      dup3\n        /* \"#utility.yul\":12840:12847   */\n      dup5\n        /* \"#utility.yul\":12836:12859   */\n      sub\n        /* \"#utility.yul\":12832:12864   */\n      slt\n        /* \"#utility.yul\":12829:12948   */\n      iszero\n      tag_684\n      jumpi\n        /* \"#utility.yul\":12867:12946   */\n      tag_685\n      tag_491\n      jump\t// in\n    tag_685:\n        /* \"#utility.yul\":12829:12948   */\n    tag_684:\n        /* \"#utility.yul\":12987:12988   */\n      0x00\n        /* \"#utility.yul\":13012:13073   */\n      tag_686\n        /* \"#utility.yul\":13065:13072   */\n      dup5\n        /* \"#utility.yul\":13056:13062   */\n      dup3\n        /* \"#utility.yul\":13045:13054   */\n      dup6\n        /* \"#utility.yul\":13041:13063   */\n      add\n        /* \"#utility.yul\":13012:13073   */\n      tag_520\n      jump\t// in\n    tag_686:\n        /* \"#utility.yul\":13002:13073   */\n      swap2\n      pop\n        /* \"#utility.yul\":12958:13083   */\n      pop\n        /* \"#utility.yul\":12745:13090   */\n      swap3\n      swap2\n      pop\n      pop\n      jump\t// out\n        /* \"#utility.yul\":13096:13243   */\n    tag_521:\n        /* \"#utility.yul\":13197:13208   */\n      0x00\n        /* \"#utility.yul\":13234:13237   */\n      dup2\n        /* \"#utility.yul\":13219:13237   */\n      swap1\n      pop\n        /* \"#utility.yul\":13096:13243   */\n      swap3\n      swap2\n      pop\n      pop\n      jump\t// out\n        /* \"#utility.yul\":13249:13363   */\n    tag_522:\n      pop\n      jump\t// out\n        /* \"#utility.yul\":13369:13767   */\n    tag_523:\n        /* \"#utility.yul\":13528:13531   */\n      0x00\n        /* \"#utility.yul\":13549:13632   */\n      tag_690\n        /* \"#utility.yul\":13630:13631   */\n      0x00\n        /* \"#utility.yul\":13625:13628   */\n      dup4\n        /* \"#utility.yul\":13549:13632   */\n      tag_521\n      jump\t// in\n    tag_690:\n        /* \"#utility.yul\":13542:13632   */\n      swap2\n      pop\n        /* \"#utility.yul\":13641:13734   */\n      tag_691\n        /* \"#utility.yul\":13730:13733   */\n      dup3\n        /* \"#utility.yul\":13641:13734   */\n      tag_522\n      jump\t// in\n    tag_691:\n        /* \"#utility.yul\":13759:13760   */\n      0x00\n        /* \"#utility.yul\":13754:13757   */\n      dup3\n        /* \"#utility.yul\":13750:13761   */\n      add\n        /* \"#utility.yul\":13743:13761   */\n      swap1\n      pop\n        /* \"#utility.yul\":13369:13767   */\n      swap2\n      swap1\n      pop\n      jump\t// out\n        /* \"#utility.yul\":13773:14152   */\n    tag_370:\n        /* \"#utility.yul\":13957:13960   */\n      0x00\n        /* \"#utility.yul\":13979:14126   */\n      tag_693\n        /* \"#utility.yul\":14122:14125   */\n      dup3\n        /* \"#utility.yul\":13979:14126   */\n      tag_523\n      jump\t// in\n    tag_693:\n        /* \"#utility.yul\":13972:14126   */\n      swap2\n      pop\n        /* \"#utility.yul\":14143:14146   */\n      dup2\n        /* \"#utility.yul\":14136:14146   */\n      swap1\n      pop\n        /* \"#utility.yul\":13773:14152   */\n      swap2\n      swap1\n      pop\n      jump\t// out\n        /* \"#utility.yul\":14158:14490   */\n    tag_457:\n        /* \"#utility.yul\":14279:14283   */\n      0x00\n        /* \"#utility.yul\":14317:14319   */\n      0x40\n        /* \"#utility.yul\":14306:14315   */\n      dup3\n        /* \"#utility.yul\":14302:14320   */\n      add\n        /* \"#utility.yul\":14294:14320   */\n      swap1\n      pop\n        /* \"#utility.yul\":14330:14401   */\n      tag_695\n        /* \"#utility.yul\":14398:14399   */\n      0x00\n        /* \"#utility.yul\":14387:14396   */\n      dup4\n        /* \"#utility.yul\":14383:14400   */\n      add\n        /* \"#utility.yul\":14374:14380   */\n      dup6\n        /* \"#utility.yul\":14330:14401   */\n      tag_503\n      jump\t// in\n    tag_695:\n        /* \"#utility.yul\":14411:14483   */\n      tag_696\n        /* \"#utility.yul\":14479:14481   */\n      0x20\n        /* \"#utility.yul\":14468:14477   */\n      dup4\n        /* \"#utility.yul\":14464:14482   */\n      add\n        /* \"#utility.yul\":14455:14461   */\n      dup5\n        /* \"#utility.yul\":14411:14483   */\n      tag_500\n      jump\t// in\n    tag_696:\n        /* \"#utility.yul\":14158:14490   */\n      swap4\n      swap3\n      pop\n      pop\n      pop\n      jump\t// out\n\n    auxdata: 0xa26469706673582212208cf4448c2e47bddcc7fa75c1609f14de5754f72251322e146fb51708e06d108b64736f6c634300081e0033\n}\n",
				"bytecode": {
					"linkReferences": {},
					"object": "60806040526113886006556113886007556101f4600855348015610021575f5ffd5b503360016100416100366100cc60201b60201c565b6100f560201b60201c565b5f01819055505f73ffffffffffffffffffffffffffffffffffffffff168173ffffffffffffffffffffffffffffffffffffffff16036100b7575f6040517f1e4fbdf70000000000000000000000000000000000000000000000000000000081526004016100ae91906101fe565b60405180910390fd5b6100c6816100fe60201b60201c565b50610217565b5f7f9b779b17422d0df92223018b32b4d1fa46e071723d6817e2486d003becc55f005f1b905090565b5f819050919050565b5f5f5f9054906101000a900473ffffffffffffffffffffffffffffffffffffffff169050815f5f6101000a81548173ffffffffffffffffffffffffffffffffffffffff021916908373ffffffffffffffffffffffffffffffffffffffff1602179055508173ffffffffffffffffffffffffffffffffffffffff168173ffffffffffffffffffffffffffffffffffffffff167f8be0079c531659141344cd1fd0a4f28419497f9722a3daafe3b4186f6b6457e060405160405180910390a35050565b5f73ffffffffffffffffffffffffffffffffffffffff82169050919050565b5f6101e8826101bf565b9050919050565b6101f8816101de565b82525050565b5f6020820190506102115f8301846101ef565b92915050565b6138d1806102245f395ff3fe608060405260043610610184575f3560e01c806380b2edd8116100d0578063a734f06e11610089578063bcbaf48711610063578063bcbaf48714610589578063c660d112146105b1578063e1bf0a4b146105ed578063f2fde38b1461061557610185565b8063a734f06e146104f8578063a87430ba14610522578063b8bc9cab1461056157610185565b806380b2edd8146103ca57806388d595db146103f25780638da5cb5b1461041a5780639776f4a5146104445780639d93d352146104805780639dcb511a146104bc57610185565b8063427f91a61161013d5780636d1ea3fa116101175780636d1ea3fa1461032f5780636f77926b1461036b578063715018a6146103aa5780637a5f0dc4146103c057610185565b8063427f91a61461029f5780634bb55d5c146102db5780634de57d751461030557610185565b80630f07645a1461018757806315c92678146101af57806316345f18146101d757806328842d4f146102135780633e4e1c271461023b57806340b1eb101461027757610185565b5b005b348015610192575f5ffd5b506101ad60048036038101906101a8919061315e565b61063d565b005b3480156101ba575f5ffd5b506101d560048036038101906101d0919061319c565b6108e1565b005b3480156101e2575f5ffd5b506101fd60048036038101906101f8919061319c565b610c40565b60405161020a91906131d6565b60405180910390f35b34801561021e575f5ffd5b50610239600480360381019061023491906131ef565b610fd4565b005b348015610246575f5ffd5b50610261600480360381019061025c919061319c565b61109f565b60405161026e91906131d6565b60405180910390f35b348015610282575f5ffd5b5061029d6004803603810190610298919061321a565b611196565b005b3480156102aa575f5ffd5b506102c560048036038101906102c0919061319c565b61135b565b6040516102d291906131d6565b60405180910390f35b3480156102e6575f5ffd5b506102ef611370565b6040516102fc91906131d6565b60405180910390f35b348015610310575f5ffd5b5061031961137c565b60405161032691906131d6565b60405180910390f35b34801561033a575f5ffd5b506103556004803603810190610350919061319c565b611383565b6040516103629190613272565b60405180910390f35b348015610376575f5ffd5b50610391600480360381019061038c919061319c565b6113a0565b6040516103a1949392919061329a565b60405180910390f35b3480156103b5575f5ffd5b506103be611445565b005b6103c8611458565b005b3480156103d5575f5ffd5b506103f060048036038101906103eb919061319c565b61155d565b005b3480156103fd575f5ffd5b50610418600480360381019061041391906131ef565b6117a5565b005b348015610425575f5ffd5b5061042e611886565b60405161043b91906132dd565b60405180910390f35b34801561044f575f5ffd5b5061046a600480360381019061046591906131ef565b6118ad565b60405161047791906132dd565b60405180910390f35b34801561048b575f5ffd5b506104a660048036038101906104a1919061319c565b6118e8565b6040516104b39190613272565b60405180910390f35b3480156104c7575f5ffd5b506104e260048036038101906104dd919061319c565b6119ac565b6040516104ef91906132dd565b60405180910390f35b348015610503575f5ffd5b5061050c6119dc565b60405161051991906132dd565b60405180910390f35b34801561052d575f5ffd5b506105486004803603810190610543919061319c565b6119f4565b604051610558949392919061329a565b60405180910390f35b34801561056c575f5ffd5b506105876004803603810190610582919061315e565b611a5e565b005b348015610594575f5ffd5b506105af60048036038101906105aa919061315e565b611e40565b005b3480156105bc575f5ffd5b506105d760048036038101906105d2919061315e565b612485565b6040516105e491906131d6565b60405180910390f35b3480156105f8575f5ffd5b50610613600480360381019061060e91906131ef565b6125ef565b005b348015610620575f5ffd5b5061063b6004803603810190610636919061319c565b612858565b005b6106456128dc565b815f73ffffffffffffffffffffffffffffffffffffffff168173ffffffffffffffffffffffffffffffffffffffff16036106b657806040517f8e4c8aa60000000000000000000000000000000000000000000000000000000081526004016106ad91906132dd565b60405180910390fd5b815f81036106f0576040517f2c5211c600000000000000000000000000000000000000000000000000000000815260040160405180910390fd5b8360035f8273ffffffffffffffffffffffffffffffffffffffff1673ffffffffffffffffffffffffffffffffffffffff1681526020019081526020015f205f9054906101000a900460ff1661077c57806040517f87921f5a00000000000000000000000000000000000000000000000000000000815260040161077391906132dd565b60405180910390fd5b5f610786336128fe565b905061079133612943565b6107c7576040517fb016be5e00000000000000000000000000000000000000000000000000000000815260040160405180910390fd5b5f6107d2338861298e565b90508086111561081b5785816040517fd771d8e90000000000000000000000000000000000000000000000000000000081526004016108129291906132f6565b60405180910390fd5b85826003015f82825461082e919061334a565b9250508190555086826002015f6101000a81548173ffffffffffffffffffffffffffffffffffffffff021916908373ffffffffffffffffffffffffffffffffffffffff160217905550610882873388612b80565b3373ffffffffffffffffffffffffffffffffffffffff167f5abc9a9c4616711eb03d720e050325118645a3695a5e75b5b10a29e2e217fe03876040516108c891906131d6565b60405180910390a250505050506108dd612d0d565b5050565b6108e9612d27565b805f73ffffffffffffffffffffffffffffffffffffffff168173ffffffffffffffffffffffffffffffffffffffff160361095a57806040517f8e4c8aa600000000000000000000000000000000000000000000000000000000815260040161095191906132dd565b60405180910390fd5b60035f8373ffffffffffffffffffffffffffffffffffffffff1673ffffffffffffffffffffffffffffffffffffffff1681526020019081526020015f205f9054906101000a900460ff166109e557816040517f87921f5a0000000000000000000000000000000000000000000000000000000081526004016109dc91906132dd565b60405180910390fd5b5f60035f8473ffffffffffffffffffffffffffffffffffffffff1673ffffffffffffffffffffffffffffffffffffffff1681526020019081526020015f205f6101000a81548160ff0219169083151502179055505f60045f8473ffffffffffffffffffffffffffffffffffffffff1673ffffffffffffffffffffffffffffffffffffffff1681526020019081526020015f205490505f6001600580549050610a8d919061337d565b90505f60058281548110610aa457610aa36133b0565b5b905f5260205f20015f9054906101000a900473ffffffffffffffffffffffffffffffffffffffff169050818314610b72578060058481548110610aea57610ae96133b0565b5b905f5260205f20015f6101000a81548173ffffffffffffffffffffffffffffffffffffffff021916908373ffffffffffffffffffffffffffffffffffffffff1602179055508260045f8373ffffffffffffffffffffffffffffffffffffffff1673ffffffffffffffffffffffffffffffffffffffff1681526020019081526020015f20819055505b6005805480610b8457610b836133dd565b5b600190038181905f5260205f20015f6101000a81549073ffffffffffffffffffffffffffffffffffffffff0219169055905560045f8673ffffffffffffffffffffffffffffffffffffffff1673ffffffffffffffffffffffffffffffffffffffff1681526020019081526020015f205f90558473ffffffffffffffffffffffffffffffffffffffff167f45f62f30e7b8439e0da7d8e560fe39d01238091ce9e789e3d12b514edf98acea60405160405180910390a25050505050565b5f815f73ffffffffffffffffffffffffffffffffffffffff168173ffffffffffffffffffffffffffffffffffffffff1603610cb257806040517f8e4c8aa6000000000000000000000000000000000000000000000000000000008152600401610ca991906132dd565b60405180910390fd5b5f60025f8573ffffffffffffffffffffffffffffffffffffffff1673ffffffffffffffffffffffffffffffffffffffff1681526020019081526020015f205f9054906101000a900473ffffffffffffffffffffffffffffffffffffffff1690505f73ffffffffffffffffffffffffffffffffffffffff168173ffffffffffffffffffffffffffffffffffffffff1603610d8257806040517f8e4c8aa6000000000000000000000000000000000000000000000000000000008152600401610d7991906132dd565b60405180910390fd5b5f8190505f5f5f5f8473ffffffffffffffffffffffffffffffffffffffff1663feaf968c6040518163ffffffff1660e01b815260040160a060405180830381865afa158015610dd3573d5f5f3e3d5ffd5b505050506040513d601f19601f82011682018060405250810190610df79190613490565b9450945050935093505f8313610e4457826040517fb4e8ae11000000000000000000000000000000000000000000000000000000008152600401610e3b9190613516565b60405180910390fd5b8369ffffffffffffffffffff168169ffffffffffffffffffff161015610e96576040517feb8eec2e00000000000000000000000000000000000000000000000000000000815260040160405180910390fd5b5f821480610eb15750610e108242610eae919061337d565b10155b15610ef357816040517f3b90dd8b000000000000000000000000000000000000000000000000000000008152600401610eea91906131d6565b60405180910390fd5b5f8573ffffffffffffffffffffffffffffffffffffffff1663313ce5676040518163ffffffff1660e01b8152600401602060405180830381865afa158015610f3d573d5f5f3e3d5ffd5b505050506040513d601f19601f82011682018060405250810190610f619190613565565b905060128160ff161115610fa1576040517fd25598a000000000000000000000000000000000000000000000000000000000815260040160405180910390fd5b806012610fae9190613590565b600a610fba91906136f3565b84610fc5919061373d565b98505050505050505050919050565b610fdc612d27565b805f8103611016576040517f2c5211c600000000000000000000000000000000000000000000000000000000815260040160405180910390fd5b61271082111561105d57816040517f45c57aac00000000000000000000000000000000000000000000000000000000815260040161105491906131d6565b60405180910390fd5b816008819055507f04a7ca0e55f887a637b560614f621b92b79423e20152fea70bc4be66edaee3d68260405161109391906131d6565b60405180910390a15050565b5f815f73ffffffffffffffffffffffffffffffffffffffff168173ffffffffffffffffffffffffffffffffffffffff160361111157806040517f8e4c8aa600000000000000000000000000000000000000000000000000000000815260040161110891906132dd565b60405180910390fd5b5f8390508073ffffffffffffffffffffffffffffffffffffffff166370a08231306040518263ffffffff1660e01b815260040161114e91906132dd565b602060405180830381865afa158015611169573d5f5f3e3d5ffd5b505050506040513d601f19601f8201168201806040525081019061118d919061377e565b92505050919050565b61119e612d27565b815f73ffffffffffffffffffffffffffffffffffffffff168173ffffffffffffffffffffffffffffffffffffffff160361120f57806040517f8e4c8aa600000000000000000000000000000000000000000000000000000000815260040161120691906132dd565b60405180910390fd5b815f73ffffffffffffffffffffffffffffffffffffffff168173ffffffffffffffffffffffffffffffffffffffff160361128057806040517f8e4c8aa600000000000000000000000000000000000000000000000000000000815260040161127791906132dd565b60405180910390fd5b8260025f8673ffffffffffffffffffffffffffffffffffffffff1673ffffffffffffffffffffffffffffffffffffffff1681526020019081526020015f205f6101000a81548173ffffffffffffffffffffffffffffffffffffffff021916908373ffffffffffffffffffffffffffffffffffffffff1602179055508273ffffffffffffffffffffffffffffffffffffffff168473ffffffffffffffffffffffffffffffffffffffff167fa8abe0398416476db5b05737cd4da3b3cbde5012d978a6a6c3fd49d32175353660405160405180910390a350505050565b6004602052805f5260405f205f915090505481565b5f600580549050905090565b5f47905090565b6003602052805f5260405f205f915054906101000a900460ff1681565b5f5f5f5f5f60015f8773ffffffffffffffffffffffffffffffffffffffff1673ffffffffffffffffffffffffffffffffffffffff1681526020019081526020015f209050805f015f9054906101000a900473ffffffffffffffffffffffffffffffffffffffff168160010154826002015f9054906101000a900473ffffffffffffffffffffffffffffffffffffffff1683600301549450945094509450509193509193565b61144d612d27565b6114565f612dae565b565b5f3403611491576040517fb016be5e00000000000000000000000000000000000000000000000000000000815260040160405180910390fd5b5f61149b336128fe565b905034816001015f8282546114b0919061334a565b9250508190555073eeeeeeeeeeeeeeeeeeeeeeeeeeeeeeeeeeeeeeee815f015f6101000a81548173ffffffffffffffffffffffffffffffffffffffff021916908373ffffffffffffffffffffffffffffffffffffffff1602179055503373ffffffffffffffffffffffffffffffffffffffff167f1c0917c3a343a300b56473c59fa8355d3326f2c73472679a5b4cd5d6e0390c803460405161155291906131d6565b60405180910390a250565b611565612d27565b805f73ffffffffffffffffffffffffffffffffffffffff168173ffffffffffffffffffffffffffffffffffffffff16036115d657806040517f8e4c8aa60000000000000000000000000000000000000000000000000000000081526004016115cd91906132dd565b60405180910390fd5b60035f8373ffffffffffffffffffffffffffffffffffffffff1673ffffffffffffffffffffffffffffffffffffffff1681526020019081526020015f205f9054906101000a900460ff161561166257816040517f7664204700000000000000000000000000000000000000000000000000000000815260040161165991906132dd565b60405180910390fd5b600160035f8473ffffffffffffffffffffffffffffffffffffffff1673ffffffffffffffffffffffffffffffffffffffff1681526020019081526020015f205f6101000a81548160ff02191690831515021790555060058054905060045f8473ffffffffffffffffffffffffffffffffffffffff1673ffffffffffffffffffffffffffffffffffffffff1681526020019081526020015f2081905550600582908060018154018082558091505060019003905f5260205f20015f9091909190916101000a81548173ffffffffffffffffffffffffffffffffffffffff021916908373ffffffffffffffffffffffffffffffffffffffff1602179055508173ffffffffffffffffffffffffffffffffffffffff167f026283404367cffc0443317066c3531d3db2306ad6e65aa1bee91dbe98c615a160405160405180910390a25050565b6117ad612d27565b805f81036117e7576040517f2c5211c600000000000000000000000000000000000000000000000000000000815260040160405180910390fd5b5f8214806117f6575061271082115b806118025750611d4c82115b1561184457816040517fa072825500000000000000000000000000000000000000000000000000000000815260040161183b91906131d6565b60405180910390fd5b816006819055507fb1af578d18aef46afafbd25487a95eff1077a6e04c89e71b82093b998b3a7e4b8260405161187a91906131d6565b60405180910390a15050565b5f5f5f9054906101000a900473ffffffffffffffffffffffffffffffffffffffff16905090565b600581815481106118bc575f80fd5b905f5260205f20015f915054906101000a900473ffffffffffffffffffffffffffffffffffffffff1681565b5f815f73ffffffffffffffffffffffffffffffffffffffff168173ffffffffffffffffffffffffffffffffffffffff160361195a57806040517f8e4c8aa600000000000000000000000000000000000000000000000000000000815260040161195191906132dd565b60405180910390fd5b60035f8473ffffffffffffffffffffffffffffffffffffffff1673ffffffffffffffffffffffffffffffffffffffff1681526020019081526020015f205f9054906101000a900460ff16915050919050565b6002602052805f5260405f205f915054906101000a900473ffffffffffffffffffffffffffffffffffffffff1681565b73eeeeeeeeeeeeeeeeeeeeeeeeeeeeeeeeeeeeeeee81565b6001602052805f5260405f205f91509050805f015f9054906101000a900473ffffffffffffffffffffffffffffffffffffffff1690806001015490806002015f9054906101000a900473ffffffffffffffffffffffffffffffffffffffff16908060030154905084565b815f73ffffffffffffffffffffffffffffffffffffffff168173ffffffffffffffffffffffffffffffffffffffff1603611acf57806040517f8e4c8aa6000000000000000000000000000000000000000000000000000000008152600401611ac691906132dd565b60405180910390fd5b815f8103611b09576040517f2c5211c600000000000000000000000000000000000000000000000000000000815260040160405180910390fd5b8360035f8273ffffffffffffffffffffffffffffffffffffffff1673ffffffffffffffffffffffffffffffffffffffff1681526020019081526020015f205f9054906101000a900460ff16611b9557806040517f87921f5a000000000000000000000000000000000000000000000000000000008152600401611b8c91906132dd565b60405180910390fd5b5f611b9f336128fe565b9050611baa33612e6f565b611be0576040517f33cbf2bc00000000000000000000000000000000000000000000000000000000815260040160405180910390fd5b611bea3387612eba565b611c2b57856040517f6f79c78a000000000000000000000000000000000000000000000000000000008152600401611c2291906132dd565b60405180910390fd5b8060030154851115611c7a578481600301546040517f99bcd813000000000000000000000000000000000000000000000000000000008152600401611c719291906132f6565b60405180910390fd5b806002015f9054906101000a900473ffffffffffffffffffffffffffffffffffffffff1673ffffffffffffffffffffffffffffffffffffffff166323b872dd3330886040518463ffffffff1660e01b8152600401611cda939291906137a9565b6020604051808303815f875af1158015611cf6573d5f5f3e3d5ffd5b505050506040513d601f19601f82011682018060405250810190611d1a9190613808565b611d8257806002015f9054906101000a900473ffffffffffffffffffffffffffffffffffffffff1633866040517fbf182be8000000000000000000000000000000000000000000000000000000008152600401611d79939291906137a9565b60405180910390fd5b84816003015f828254611d95919061337d565b925050819055505f816003015403611dea575f816002015f6101000a81548173ffffffffffffffffffffffffffffffffffffffff021916908373ffffffffffffffffffffffffffffffffffffffff1602179055505b3373ffffffffffffffffffffffffffffffffffffffff167fb7efcc12f3d3e74e33995ff303aca806b9428989809e60a4e5a4d465832966e486604051611e3091906131d6565b60405180910390a2505050505050565b611e486128dc565b815f73ffffffffffffffffffffffffffffffffffffffff168173ffffffffffffffffffffffffffffffffffffffff1603611eb957806040517f8e4c8aa6000000000000000000000000000000000000000000000000000000008152600401611eb091906132dd565b60405180910390fd5b815f8103611ef3576040517f2c5211c600000000000000000000000000000000000000000000000000000000815260040160405180910390fd5b5f611efd856128fe565b9050611f0885612e6f565b611f3e576040517f33cbf2bc00000000000000000000000000000000000000000000000000000000815260040160405180910390fd5b5f611f6f825f015f9054906101000a900473ffffffffffffffffffffffffffffffffffffffff168360010154612485565b90505f611fa3836002015f9054906101000a900473ffffffffffffffffffffffffffffffffffffffff168460030154612485565b90505f611fbf611d4c61271085612f519092919063ffffffff16565b9050808211611ffa576040517f21e660fc00000000000000000000000000000000000000000000000000000000815260040160405180910390fd5b5f600754148061200d5750612710600754115b15612044576040517fee0bdbdf00000000000000000000000000000000000000000000000000000000815260040160405180910390fd5b5f6120626007546127108760030154612f519092919063ffffffff16565b90505f8189116120725788612074565b815b90505f6120a4876002015f9054906101000a900473ffffffffffffffffffffffffffffffffffffffff1683612485565b90505f6120cd6008546127106120ba919061334a565b61271084612f519092919063ffffffff16565b90505f6120fb895f015f9054906101000a900473ffffffffffffffffffffffffffffffffffffffff16610c40565b90505f61211b670de0b6b3a76400008385612f519092919063ffffffff16565b9050896001015481111561213157896001015490505b896002015f9054906101000a900473ffffffffffffffffffffffffffffffffffffffff1673ffffffffffffffffffffffffffffffffffffffff166323b872dd3330886040518463ffffffff1660e01b8152600401612191939291906137a9565b6020604051808303815f875af11580156121ad573d5f5f3e3d5ffd5b505050506040513d601f19601f820116820180604052508101906121d19190613808565b61223957896002015f9054906101000a900473ffffffffffffffffffffffffffffffffffffffff1633866040517fbf182be8000000000000000000000000000000000000000000000000000000008152600401612230939291906137a9565b60405180910390fd5b89600301548510612290575f8a600301819055505f8a6002015f6101000a81548173ffffffffffffffffffffffffffffffffffffffff021916908373ffffffffffffffffffffffffffffffffffffffff1602179055505b848a6003015f8282546122a3919061337d565b9250508190555073eeeeeeeeeeeeeeeeeeeeeeeeeeeeeeeeeeeeeeee73ffffffffffffffffffffffffffffffffffffffff168a5f015f9054906101000a900473ffffffffffffffffffffffffffffffffffffffff1673ffffffffffffffffffffffffffffffffffffffff16036123d7575f3373ffffffffffffffffffffffffffffffffffffffff168260405161233890613860565b5f6040518083038185875af1925050503d805f8114612372576040519150601f19603f3d011682016040523d82523d5f602084013e612377565b606091505b50509050806123d55773eeeeeeeeeeeeeeeeeeeeeeeeeeeeeeeeeeeeeeee33836040517fbf182be80000000000000000000000000000000000000000000000000000000081526004016123cc939291906137a9565b60405180910390fd5b505b808a6001015f8282546123ea919061337d565b925050819055505f8a6001015403612406576124058e612f92565b5b8d73ffffffffffffffffffffffffffffffffffffffff163373ffffffffffffffffffffffffffffffffffffffff167f4ecae3269f800df64b16cb9f6f8b0b507018888521d1cff0841823e44bc0b00d87846040516124659291906132f6565b60405180910390a3505050505050505050505050612481612d0d565b5050565b5f5f61249084610c40565b90505f81036124a2575f9150506125e9565b5f73eeeeeeeeeeeeeeeeeeeeeeeeeeeeeeeeeeeeeeee73ffffffffffffffffffffffffffffffffffffffff168573ffffffffffffffffffffffffffffffffffffffff161461255c578473ffffffffffffffffffffffffffffffffffffffff1663313ce5676040518163ffffffff1660e01b8152600401602060405180830381865afa158015612533573d5f5f3e3d5ffd5b505050506040513d601f19601f820116820180604052508101906125579190613565565b61255f565b60125b905060128160ff16111561259f576040517fd25598a000000000000000000000000000000000000000000000000000000000815260040160405180910390fd5b5f8160126125ad9190613590565b600a6125b991906136f3565b856125c4919061373d565b90506125e383670de0b6b3a764000083612f519092919063ffffffff16565b93505050505b92915050565b6125f76128dc565b805f8103612631576040517f2c5211c600000000000000000000000000000000000000000000000000000000815260040160405180910390fd5b5f61263b336128fe565b90505f8160030154146126895780600301546040517f40a636fb00000000000000000000000000000000000000000000000000000000815260040161268091906131d6565b60405180910390fd5b80600101548311156126d8578060010154836040517f768063db0000000000000000000000000000000000000000000000000000000081526004016126cf9291906132f6565b60405180910390fd5b8247101561271f5747836040517fce9514f90000000000000000000000000000000000000000000000000000000081526004016127169291906132f6565b60405180910390fd5b5f3373ffffffffffffffffffffffffffffffffffffffff168460405161274490613860565b5f6040518083038185875af1925050503d805f811461277e576040519150601f19603f3d011682016040523d82523d5f602084013e612783565b606091505b50509050806127cd575f33856040517fbf182be80000000000000000000000000000000000000000000000000000000081526004016127c4939291906137a9565b60405180910390fd5b83826001015f8282546127e0919061337d565b925050819055505f8260010154036127fc576127fb33612f92565b5b3373ffffffffffffffffffffffffffffffffffffffff167f5b0743acabce0ea09498b3c2598ed444f80ef6513a2029d7d9aaed87064d1edb8560405161284291906131d6565b60405180910390a2505050612855612d0d565b50565b612860612d27565b5f73ffffffffffffffffffffffffffffffffffffffff168173ffffffffffffffffffffffffffffffffffffffff16036128d0575f6040517f1e4fbdf70000000000000000000000000000000000000000000000000000000081526004016128c791906132dd565b60405180910390fd5b6128d981612dae565b50565b6128e4613037565b60026128f66128f1613078565b6130a1565b5f0181905550565b5f60015f8373ffffffffffffffffffffffffffffffffffffffff1673ffffffffffffffffffffffffffffffffffffffff1681526020019081526020015f209050919050565b5f5f60015f8473ffffffffffffffffffffffffffffffffffffffff1673ffffffffffffffffffffffffffffffffffffffff1681526020019081526020015f2060010154119050919050565b5f5f612999846128fe565b90506129a484612943565b6129b1575f915050612b7a565b5f73ffffffffffffffffffffffffffffffffffffffff1660025f8573ffffffffffffffffffffffffffffffffffffffff1673ffffffffffffffffffffffffffffffffffffffff1681526020019081526020015f205f9054906101000a900473ffffffffffffffffffffffffffffffffffffffff1673ffffffffffffffffffffffffffffffffffffffff1603612a7d57826040517f6f79c78a000000000000000000000000000000000000000000000000000000008152600401612a7491906132dd565b60405180910390fd5b5f612aae825f015f9054906101000a900473ffffffffffffffffffffffffffffffffffffffff168360010154612485565b90505f612aca60065461271084612f519092919063ffffffff16565b90505f5f846003015414612b0e57612b09846002015f9054906101000a900473ffffffffffffffffffffffffffffffffffffffff168560030154612485565b612b10565b5f5b9050818110612b25575f945050505050612b7a565b5f8183612b32919061337d565b90505f8103612b48575f95505050505050612b7a565b5f612b5288610c40565b9050612b71670de0b6b3a76400008284612f519092919063ffffffff16565b96505050505050505b92915050565b5f8390505f8173ffffffffffffffffffffffffffffffffffffffff166370a08231306040518263ffffffff1660e01b8152600401612bbe91906132dd565b602060405180830381865afa158015612bd9573d5f5f3e3d5ffd5b505050506040513d601f19601f82011682018060405250810190612bfd919061377e565b905082811015612c465780836040517fce9514f9000000000000000000000000000000000000000000000000000000008152600401612c3d9291906132f6565b60405180910390fd5b8173ffffffffffffffffffffffffffffffffffffffff1663a9059cbb85856040518363ffffffff1660e01b8152600401612c81929190613874565b6020604051808303815f875af1158015612c9d573d5f5f3e3d5ffd5b505050506040513d601f19601f82011682018060405250810190612cc19190613808565b612d06578484846040517fc8776798000000000000000000000000000000000000000000000000000000008152600401612cfd939291906137a9565b60405180910390fd5b5050505050565b6001612d1f612d1a613078565b6130a1565b5f0181905550565b612d2f6130aa565b73ffffffffffffffffffffffffffffffffffffffff16612d4d611886565b73ffffffffffffffffffffffffffffffffffffffff1614612dac57612d706130aa565b6040517f118cdaa7000000000000000000000000000000000000000000000000000000008152600401612da391906132dd565b60405180910390fd5b565b5f5f5f9054906101000a900473ffffffffffffffffffffffffffffffffffffffff169050815f5f6101000a81548173ffffffffffffffffffffffffffffffffffffffff021916908373ffffffffffffffffffffffffffffffffffffffff1602179055508173ffffffffffffffffffffffffffffffffffffffff168173ffffffffffffffffffffffffffffffffffffffff167f8be0079c531659141344cd1fd0a4f28419497f9722a3daafe3b4186f6b6457e060405160405180910390a35050565b5f5f60015f8473ffffffffffffffffffffffffffffffffffffffff1673ffffffffffffffffffffffffffffffffffffffff1681526020019081526020015f2060030154119050919050565b5f8173ffffffffffffffffffffffffffffffffffffffff1660015f8573ffffffffffffffffffffffffffffffffffffffff1673ffffffffffffffffffffffffffffffffffffffff1681526020019081526020015f206002015f9054906101000a900473ffffffffffffffffffffffffffffffffffffffff1673ffffffffffffffffffffffffffffffffffffffff1614905092915050565b5f827fffffffffffffffffffffffffffffffffffffffffffffffffffffffffffffffff0484118302158202612f84575f5ffd5b818385020490509392505050565b5f612f9c826128fe565b90505f816002015f6101000a81548173ffffffffffffffffffffffffffffffffffffffff021916908373ffffffffffffffffffffffffffffffffffffffff1602179055505f81600301819055505f815f015f6101000a81548173ffffffffffffffffffffffffffffffffffffffff021916908373ffffffffffffffffffffffffffffffffffffffff1602179055505f81600101819055505050565b61303f6130b1565b15613076576040517f3ee5aeb500000000000000000000000000000000000000000000000000000000815260040160405180910390fd5b565b5f7f9b779b17422d0df92223018b32b4d1fa46e071723d6817e2486d003becc55f005f1b905090565b5f819050919050565b5f33905090565b5f60026130c46130bf613078565b6130a1565b5f015414905090565b5f5ffd5b5f73ffffffffffffffffffffffffffffffffffffffff82169050919050565b5f6130fa826130d1565b9050919050565b61310a816130f0565b8114613114575f5ffd5b50565b5f8135905061312581613101565b92915050565b5f819050919050565b61313d8161312b565b8114613147575f5ffd5b50565b5f8135905061315881613134565b92915050565b5f5f60408385031215613174576131736130cd565b5b5f61318185828601613117565b92505060206131928582860161314a565b9150509250929050565b5f602082840312156131b1576131b06130cd565b5b5f6131be84828501613117565b91505092915050565b6131d08161312b565b82525050565b5f6020820190506131e95f8301846131c7565b92915050565b5f60208284031215613204576132036130cd565b5b5f6132118482850161314a565b91505092915050565b5f5f604083850312156132305761322f6130cd565b5b5f61323d85828601613117565b925050602061324e85828601613117565b9150509250929050565b5f8115159050919050565b61326c81613258565b82525050565b5f6020820190506132855f830184613263565b92915050565b613294816130f0565b82525050565b5f6080820190506132ad5f83018761328b565b6132ba60208301866131c7565b6132c7604083018561328b565b6132d460608301846131c7565b95945050505050565b5f6020820190506132f05f83018461328b565b92915050565b5f6040820190506133095f8301856131c7565b61331660208301846131c7565b9392505050565b7f4e487b71000000000000000000000000000000000000000000000000000000005f52601160045260245ffd5b5f6133548261312b565b915061335f8361312b565b92508282019050808211156133775761337661331d565b5b92915050565b5f6133878261312b565b91506133928361312b565b92508282039050818111156133aa576133a961331d565b5b92915050565b7f4e487b71000000000000000000000000000000000000000000000000000000005f52603260045260245ffd5b7f4e487b71000000000000000000000000000000000000000000000000000000005f52603160045260245ffd5b5f69ffffffffffffffffffff82169050919050565b6134288161340a565b8114613432575f5ffd5b50565b5f815190506134438161341f565b92915050565b5f819050919050565b61345b81613449565b8114613465575f5ffd5b50565b5f8151905061347681613452565b92915050565b5f8151905061348a81613134565b92915050565b5f5f5f5f5f60a086880312156134a9576134a86130cd565b5b5f6134b688828901613435565b95505060206134c788828901613468565b94505060406134d88882890161347c565b93505060606134e98882890161347c565b92505060806134fa88828901613435565b9150509295509295909350565b61351081613449565b82525050565b5f6020820190506135295f830184613507565b92915050565b5f60ff82169050919050565b6135448161352f565b811461354e575f5ffd5b50565b5f8151905061355f8161353b565b92915050565b5f6020828403121561357a576135796130cd565b5b5f61358784828501613551565b91505092915050565b5f61359a8261352f565b91506135a58361352f565b9250828203905060ff8111156135be576135bd61331d565b5b92915050565b5f8160011c9050919050565b5f5f8291508390505b6001851115613619578086048111156135f5576135f461331d565b5b60018516156136045780820291505b8081029050613612856135c4565b94506135d9565b94509492505050565b5f8261363157600190506136ec565b8161363e575f90506136ec565b8160018114613654576002811461365e5761368d565b60019150506136ec565b60ff8411156136705761366f61331d565b5b8360020a9150848211156136875761368661331d565b5b506136ec565b5060208310610133831016604e8410600b84101617156136c25782820a9050838111156136bd576136bc61331d565b5b6136ec565b6136cf84848460016135d0565b925090508184048111156136e6576136e561331d565b5b81810290505b9392505050565b5f6136fd8261312b565b91506137088361352f565b92506137357fffffffffffffffffffffffffffffffffffffffffffffffffffffffffffffffff8484613622565b905092915050565b5f6137478261312b565b91506137528361312b565b92508282026137608161312b565b915082820484148315176137775761377661331d565b5b5092915050565b5f60208284031215613793576137926130cd565b5b5f6137a08482850161347c565b91505092915050565b5f6060820190506137bc5f83018661328b565b6137c9602083018561328b565b6137d660408301846131c7565b949350505050565b6137e781613258565b81146137f1575f5ffd5b50565b5f81519050613802816137de565b92915050565b5f6020828403121561381d5761381c6130cd565b5b5f61382a848285016137f4565b91505092915050565b5f81905092915050565b50565b5f61384b5f83613833565b91506138568261383d565b5f82019050919050565b5f61386a82613840565b9150819050919050565b5f6040820190506138875f83018561328b565b61389460208301846131c7565b939250505056fea26469706673582212208cf4448c2e47bddcc7fa75c1609f14de5754f72251322e146fb51708e06d108b64736f6c634300081e0033",
					"opcodes": "PUSH1 0x80 PUSH1 0x40 MSTORE PUSH2 0x1388 PUSH1 0x6 SSTORE PUSH2 0x1388 PUSH1 0x7 SSTORE PUSH2 0x1F4 PUSH1 0x8 SSTORE CALLVALUE DUP1 ISZERO PUSH2 0x21 JUMPI PUSH0 PUSH0 REVERT JUMPDEST POP CALLER PUSH1 0x1 PUSH2 0x41 PUSH2 0x36 PUSH2 0xCC PUSH1 0x20 SHL PUSH1 0x20 SHR JUMP JUMPDEST PUSH2 0xF5 PUSH1 0x20 SHL PUSH1 0x20 SHR JUMP JUMPDEST PUSH0 ADD DUP2 SWAP1 SSTORE POP PUSH0 PUSH20 0xFFFFFFFFFFFFFFFFFFFFFFFFFFFFFFFFFFFFFFFF AND DUP2 PUSH20 0xFFFFFFFFFFFFFFFFFFFFFFFFFFFFFFFFFFFFFFFF AND SUB PUSH2 0xB7 JUMPI PUSH0 PUSH1 0x40 MLOAD PUSH32 0x1E4FBDF700000000000000000000000000000000000000000000000000000000 DUP2 MSTORE PUSH1 0x4 ADD PUSH2 0xAE SWAP2 SWAP1 PUSH2 0x1FE JUMP JUMPDEST PUSH1 0x40 MLOAD DUP1 SWAP2 SUB SWAP1 REVERT JUMPDEST PUSH2 0xC6 DUP2 PUSH2 0xFE PUSH1 0x20 SHL PUSH1 0x20 SHR JUMP JUMPDEST POP PUSH2 0x217 JUMP JUMPDEST PUSH0 PUSH32 0x9B779B17422D0DF92223018B32B4D1FA46E071723D6817E2486D003BECC55F00 PUSH0 SHL SWAP1 POP SWAP1 JUMP JUMPDEST PUSH0 DUP2 SWAP1 POP SWAP2 SWAP1 POP JUMP JUMPDEST PUSH0 PUSH0 PUSH0 SWAP1 SLOAD SWAP1 PUSH2 0x100 EXP SWAP1 DIV PUSH20 0xFFFFFFFFFFFFFFFFFFFFFFFFFFFFFFFFFFFFFFFF AND SWAP1 POP DUP2 PUSH0 PUSH0 PUSH2 0x100 EXP DUP2 SLOAD DUP2 PUSH20 0xFFFFFFFFFFFFFFFFFFFFFFFFFFFFFFFFFFFFFFFF MUL NOT AND SWAP1 DUP4 PUSH20 0xFFFFFFFFFFFFFFFFFFFFFFFFFFFFFFFFFFFFFFFF AND MUL OR SWAP1 SSTORE POP DUP2 PUSH20 0xFFFFFFFFFFFFFFFFFFFFFFFFFFFFFFFFFFFFFFFF AND DUP2 PUSH20 0xFFFFFFFFFFFFFFFFFFFFFFFFFFFFFFFFFFFFFFFF AND PUSH32 0x8BE0079C531659141344CD1FD0A4F28419497F9722A3DAAFE3B4186F6B6457E0 PUSH1 0x40 MLOAD PUSH1 0x40 MLOAD DUP1 SWAP2 SUB SWAP1 LOG3 POP POP JUMP JUMPDEST PUSH0 PUSH20 0xFFFFFFFFFFFFFFFFFFFFFFFFFFFFFFFFFFFFFFFF DUP3 AND SWAP1 POP SWAP2 SWAP1 POP JUMP JUMPDEST PUSH0 PUSH2 0x1E8 DUP3 PUSH2 0x1BF JUMP JUMPDEST SWAP1 POP SWAP2 SWAP1 POP JUMP JUMPDEST PUSH2 0x1F8 DUP2 PUSH2 0x1DE JUMP JUMPDEST DUP3 MSTORE POP POP JUMP JUMPDEST PUSH0 PUSH1 0x20 DUP3 ADD SWAP1 POP PUSH2 0x211 PUSH0 DUP4 ADD DUP5 PUSH2 0x1EF JUMP JUMPDEST SWAP3 SWAP2 POP POP JUMP JUMPDEST PUSH2 0x38D1 DUP1 PUSH2 0x224 PUSH0 CODECOPY PUSH0 RETURN INVALID PUSH1 0x80 PUSH1 0x40 MSTORE PUSH1 0x4 CALLDATASIZE LT PUSH2 0x184 JUMPI PUSH0 CALLDATALOAD PUSH1 0xE0 SHR DUP1 PUSH4 0x80B2EDD8 GT PUSH2 0xD0 JUMPI DUP1 PUSH4 0xA734F06E GT PUSH2 0x89 JUMPI DUP1 PUSH4 0xBCBAF487 GT PUSH2 0x63 JUMPI DUP1 PUSH4 0xBCBAF487 EQ PUSH2 0x589 JUMPI DUP1 PUSH4 0xC660D112 EQ PUSH2 0x5B1 JUMPI DUP1 PUSH4 0xE1BF0A4B EQ PUSH2 0x5ED JUMPI DUP1 PUSH4 0xF2FDE38B EQ PUSH2 0x615 JUMPI PUSH2 0x185 JUMP JUMPDEST DUP1 PUSH4 0xA734F06E EQ PUSH2 0x4F8 JUMPI DUP1 PUSH4 0xA87430BA EQ PUSH2 0x522 JUMPI DUP1 PUSH4 0xB8BC9CAB EQ PUSH2 0x561 JUMPI PUSH2 0x185 JUMP JUMPDEST DUP1 PUSH4 0x80B2EDD8 EQ PUSH2 0x3CA JUMPI DUP1 PUSH4 0x88D595DB EQ PUSH2 0x3F2 JUMPI DUP1 PUSH4 0x8DA5CB5B EQ PUSH2 0x41A JUMPI DUP1 PUSH4 0x9776F4A5 EQ PUSH2 0x444 JUMPI DUP1 PUSH4 0x9D93D352 EQ PUSH2 0x480 JUMPI DUP1 PUSH4 0x9DCB511A EQ PUSH2 0x4BC JUMPI PUSH2 0x185 JUMP JUMPDEST DUP1 PUSH4 0x427F91A6 GT PUSH2 0x13D JUMPI DUP1 PUSH4 0x6D1EA3FA GT PUSH2 0x117 JUMPI DUP1 PUSH4 0x6D1EA3FA EQ PUSH2 0x32F JUMPI DUP1 PUSH4 0x6F77926B EQ PUSH2 0x36B JUMPI DUP1 PUSH4 0x715018A6 EQ PUSH2 0x3AA JUMPI DUP1 PUSH4 0x7A5F0DC4 EQ PUSH2 0x3C0 JUMPI PUSH2 0x185 JUMP JUMPDEST DUP1 PUSH4 0x427F91A6 EQ PUSH2 0x29F JUMPI DUP1 PUSH4 0x4BB55D5C EQ PUSH2 0x2DB JUMPI DUP1 PUSH4 0x4DE57D75 EQ PUSH2 0x305 JUMPI PUSH2 0x185 JUMP JUMPDEST DUP1 PUSH4 0xF07645A EQ PUSH2 0x187 JUMPI DUP1 PUSH4 0x15C92678 EQ PUSH2 0x1AF JUMPI DUP1 PUSH4 0x16345F18 EQ PUSH2 0x1D7 JUMPI DUP1 PUSH4 0x28842D4F EQ PUSH2 0x213 JUMPI DUP1 PUSH4 0x3E4E1C27 EQ PUSH2 0x23B JUMPI DUP1 PUSH4 0x40B1EB10 EQ PUSH2 0x277 JUMPI PUSH2 0x185 JUMP JUMPDEST JUMPDEST STOP JUMPDEST CALLVALUE DUP1 ISZERO PUSH2 0x192 JUMPI PUSH0 PUSH0 REVERT JUMPDEST POP PUSH2 0x1AD PUSH1 0x4 DUP1 CALLDATASIZE SUB DUP2 ADD SWAP1 PUSH2 0x1A8 SWAP2 SWAP1 PUSH2 0x315E JUMP JUMPDEST PUSH2 0x63D JUMP JUMPDEST STOP JUMPDEST CALLVALUE DUP1 ISZERO PUSH2 0x1BA JUMPI PUSH0 PUSH0 REVERT JUMPDEST POP PUSH2 0x1D5 PUSH1 0x4 DUP1 CALLDATASIZE SUB DUP2 ADD SWAP1 PUSH2 0x1D0 SWAP2 SWAP1 PUSH2 0x319C JUMP JUMPDEST PUSH2 0x8E1 JUMP JUMPDEST STOP JUMPDEST CALLVALUE DUP1 ISZERO PUSH2 0x1E2 JUMPI PUSH0 PUSH0 REVERT JUMPDEST POP PUSH2 0x1FD PUSH1 0x4 DUP1 CALLDATASIZE SUB DUP2 ADD SWAP1 PUSH2 0x1F8 SWAP2 SWAP1 PUSH2 0x319C JUMP JUMPDEST PUSH2 0xC40 JUMP JUMPDEST PUSH1 0x40 MLOAD PUSH2 0x20A SWAP2 SWAP1 PUSH2 0x31D6 JUMP JUMPDEST PUSH1 0x40 MLOAD DUP1 SWAP2 SUB SWAP1 RETURN JUMPDEST CALLVALUE DUP1 ISZERO PUSH2 0x21E JUMPI PUSH0 PUSH0 REVERT JUMPDEST POP PUSH2 0x239 PUSH1 0x4 DUP1 CALLDATASIZE SUB DUP2 ADD SWAP1 PUSH2 0x234 SWAP2 SWAP1 PUSH2 0x31EF JUMP JUMPDEST PUSH2 0xFD4 JUMP JUMPDEST STOP JUMPDEST CALLVALUE DUP1 ISZERO PUSH2 0x246 JUMPI PUSH0 PUSH0 REVERT JUMPDEST POP PUSH2 0x261 PUSH1 0x4 DUP1 CALLDATASIZE SUB DUP2 ADD SWAP1 PUSH2 0x25C SWAP2 SWAP1 PUSH2 0x319C JUMP JUMPDEST PUSH2 0x109F JUMP JUMPDEST PUSH1 0x40 MLOAD PUSH2 0x26E SWAP2 SWAP1 PUSH2 0x31D6 JUMP JUMPDEST PUSH1 0x40 MLOAD DUP1 SWAP2 SUB SWAP1 RETURN JUMPDEST CALLVALUE DUP1 ISZERO PUSH2 0x282 JUMPI PUSH0 PUSH0 REVERT JUMPDEST POP PUSH2 0x29D PUSH1 0x4 DUP1 CALLDATASIZE SUB DUP2 ADD SWAP1 PUSH2 0x298 SWAP2 SWAP1 PUSH2 0x321A JUMP JUMPDEST PUSH2 0x1196 JUMP JUMPDEST STOP JUMPDEST CALLVALUE DUP1 ISZERO PUSH2 0x2AA JUMPI PUSH0 PUSH0 REVERT JUMPDEST POP PUSH2 0x2C5 PUSH1 0x4 DUP1 CALLDATASIZE SUB DUP2 ADD SWAP1 PUSH2 0x2C0 SWAP2 SWAP1 PUSH2 0x319C JUMP JUMPDEST PUSH2 0x135B JUMP JUMPDEST PUSH1 0x40 MLOAD PUSH2 0x2D2 SWAP2 SWAP1 PUSH2 0x31D6 JUMP JUMPDEST PUSH1 0x40 MLOAD DUP1 SWAP2 SUB SWAP1 RETURN JUMPDEST CALLVALUE DUP1 ISZERO PUSH2 0x2E6 JUMPI PUSH0 PUSH0 REVERT JUMPDEST POP PUSH2 0x2EF PUSH2 0x1370 JUMP JUMPDEST PUSH1 0x40 MLOAD PUSH2 0x2FC SWAP2 SWAP1 PUSH2 0x31D6 JUMP JUMPDEST PUSH1 0x40 MLOAD DUP1 SWAP2 SUB SWAP1 RETURN JUMPDEST CALLVALUE DUP1 ISZERO PUSH2 0x310 JUMPI PUSH0 PUSH0 REVERT JUMPDEST POP PUSH2 0x319 PUSH2 0x137C JUMP JUMPDEST PUSH1 0x40 MLOAD PUSH2 0x326 SWAP2 SWAP1 PUSH2 0x31D6 JUMP JUMPDEST PUSH1 0x40 MLOAD DUP1 SWAP2 SUB SWAP1 RETURN JUMPDEST CALLVALUE DUP1 ISZERO PUSH2 0x33A JUMPI PUSH0 PUSH0 REVERT JUMPDEST POP PUSH2 0x355 PUSH1 0x4 DUP1 CALLDATASIZE SUB DUP2 ADD SWAP1 PUSH2 0x350 SWAP2 SWAP1 PUSH2 0x319C JUMP JUMPDEST PUSH2 0x1383 JUMP JUMPDEST PUSH1 0x40 MLOAD PUSH2 0x362 SWAP2 SWAP1 PUSH2 0x3272 JUMP JUMPDEST PUSH1 0x40 MLOAD DUP1 SWAP2 SUB SWAP1 RETURN JUMPDEST CALLVALUE DUP1 ISZERO PUSH2 0x376 JUMPI PUSH0 PUSH0 REVERT JUMPDEST POP PUSH2 0x391 PUSH1 0x4 DUP1 CALLDATASIZE SUB DUP2 ADD SWAP1 PUSH2 0x38C SWAP2 SWAP1 PUSH2 0x319C JUMP JUMPDEST PUSH2 0x13A0 JUMP JUMPDEST PUSH1 0x40 MLOAD PUSH2 0x3A1 SWAP5 SWAP4 SWAP3 SWAP2 SWAP1 PUSH2 0x329A JUMP JUMPDEST PUSH1 0x40 MLOAD DUP1 SWAP2 SUB SWAP1 RETURN JUMPDEST CALLVALUE DUP1 ISZERO PUSH2 0x3B5 JUMPI PUSH0 PUSH0 REVERT JUMPDEST POP PUSH2 0x3BE PUSH2 0x1445 JUMP JUMPDEST STOP JUMPDEST PUSH2 0x3C8 PUSH2 0x1458 JUMP JUMPDEST STOP JUMPDEST CALLVALUE DUP1 ISZERO PUSH2 0x3D5 JUMPI PUSH0 PUSH0 REVERT JUMPDEST POP PUSH2 0x3F0 PUSH1 0x4 DUP1 CALLDATASIZE SUB DUP2 ADD SWAP1 PUSH2 0x3EB SWAP2 SWAP1 PUSH2 0x319C JUMP JUMPDEST PUSH2 0x155D JUMP JUMPDEST STOP JUMPDEST CALLVALUE DUP1 ISZERO PUSH2 0x3FD JUMPI PUSH0 PUSH0 REVERT JUMPDEST POP PUSH2 0x418 PUSH1 0x4 DUP1 CALLDATASIZE SUB DUP2 ADD SWAP1 PUSH2 0x413 SWAP2 SWAP1 PUSH2 0x31EF JUMP JUMPDEST PUSH2 0x17A5 JUMP JUMPDEST STOP JUMPDEST CALLVALUE DUP1 ISZERO PUSH2 0x425 JUMPI PUSH0 PUSH0 REVERT JUMPDEST POP PUSH2 0x42E PUSH2 0x1886 JUMP JUMPDEST PUSH1 0x40 MLOAD PUSH2 0x43B SWAP2 SWAP1 PUSH2 0x32DD JUMP JUMPDEST PUSH1 0x40 MLOAD DUP1 SWAP2 SUB SWAP1 RETURN JUMPDEST CALLVALUE DUP1 ISZERO PUSH2 0x44F JUMPI PUSH0 PUSH0 REVERT JUMPDEST POP PUSH2 0x46A PUSH1 0x4 DUP1 CALLDATASIZE SUB DUP2 ADD SWAP1 PUSH2 0x465 SWAP2 SWAP1 PUSH2 0x31EF JUMP JUMPDEST PUSH2 0x18AD JUMP JUMPDEST PUSH1 0x40 MLOAD PUSH2 0x477 SWAP2 SWAP1 PUSH2 0x32DD JUMP JUMPDEST PUSH1 0x40 MLOAD DUP1 SWAP2 SUB SWAP1 RETURN JUMPDEST CALLVALUE DUP1 ISZERO PUSH2 0x48B JUMPI PUSH0 PUSH0 REVERT JUMPDEST POP PUSH2 0x4A6 PUSH1 0x4 DUP1 CALLDATASIZE SUB DUP2 ADD SWAP1 PUSH2 0x4A1 SWAP2 SWAP1 PUSH2 0x319C JUMP JUMPDEST PUSH2 0x18E8 JUMP JUMPDEST PUSH1 0x40 MLOAD PUSH2 0x4B3 SWAP2 SWAP1 PUSH2 0x3272 JUMP JUMPDEST PUSH1 0x40 MLOAD DUP1 SWAP2 SUB SWAP1 RETURN JUMPDEST CALLVALUE DUP1 ISZERO PUSH2 0x4C7 JUMPI PUSH0 PUSH0 REVERT JUMPDEST POP PUSH2 0x4E2 PUSH1 0x4 DUP1 CALLDATASIZE SUB DUP2 ADD SWAP1 PUSH2 0x4DD SWAP2 SWAP1 PUSH2 0x319C JUMP JUMPDEST PUSH2 0x19AC JUMP JUMPDEST PUSH1 0x40 MLOAD PUSH2 0x4EF SWAP2 SWAP1 PUSH2 0x32DD JUMP JUMPDEST PUSH1 0x40 MLOAD DUP1 SWAP2 SUB SWAP1 RETURN JUMPDEST CALLVALUE DUP1 ISZERO PUSH2 0x503 JUMPI PUSH0 PUSH0 REVERT JUMPDEST POP PUSH2 0x50C PUSH2 0x19DC JUMP JUMPDEST PUSH1 0x40 MLOAD PUSH2 0x519 SWAP2 SWAP1 PUSH2 0x32DD JUMP JUMPDEST PUSH1 0x40 MLOAD DUP1 SWAP2 SUB SWAP1 RETURN JUMPDEST CALLVALUE DUP1 ISZERO PUSH2 0x52D JUMPI PUSH0 PUSH0 REVERT JUMPDEST POP PUSH2 0x548 PUSH1 0x4 DUP1 CALLDATASIZE SUB DUP2 ADD SWAP1 PUSH2 0x543 SWAP2 SWAP1 PUSH2 0x319C JUMP JUMPDEST PUSH2 0x19F4 JUMP JUMPDEST PUSH1 0x40 MLOAD PUSH2 0x558 SWAP5 SWAP4 SWAP3 SWAP2 SWAP1 PUSH2 0x329A JUMP JUMPDEST PUSH1 0x40 MLOAD DUP1 SWAP2 SUB SWAP1 RETURN JUMPDEST CALLVALUE DUP1 ISZERO PUSH2 0x56C JUMPI PUSH0 PUSH0 REVERT JUMPDEST POP PUSH2 0x587 PUSH1 0x4 DUP1 CALLDATASIZE SUB DUP2 ADD SWAP1 PUSH2 0x582 SWAP2 SWAP1 PUSH2 0x315E JUMP JUMPDEST PUSH2 0x1A5E JUMP JUMPDEST STOP JUMPDEST CALLVALUE DUP1 ISZERO PUSH2 0x594 JUMPI PUSH0 PUSH0 REVERT JUMPDEST POP PUSH2 0x5AF PUSH1 0x4 DUP1 CALLDATASIZE SUB DUP2 ADD SWAP1 PUSH2 0x5AA SWAP2 SWAP1 PUSH2 0x315E JUMP JUMPDEST PUSH2 0x1E40 JUMP JUMPDEST STOP JUMPDEST CALLVALUE DUP1 ISZERO PUSH2 0x5BC JUMPI PUSH0 PUSH0 REVERT JUMPDEST POP PUSH2 0x5D7 PUSH1 0x4 DUP1 CALLDATASIZE SUB DUP2 ADD SWAP1 PUSH2 0x5D2 SWAP2 SWAP1 PUSH2 0x315E JUMP JUMPDEST PUSH2 0x2485 JUMP JUMPDEST PUSH1 0x40 MLOAD PUSH2 0x5E4 SWAP2 SWAP1 PUSH2 0x31D6 JUMP JUMPDEST PUSH1 0x40 MLOAD DUP1 SWAP2 SUB SWAP1 RETURN JUMPDEST CALLVALUE DUP1 ISZERO PUSH2 0x5F8 JUMPI PUSH0 PUSH0 REVERT JUMPDEST POP PUSH2 0x613 PUSH1 0x4 DUP1 CALLDATASIZE SUB DUP2 ADD SWAP1 PUSH2 0x60E SWAP2 SWAP1 PUSH2 0x31EF JUMP JUMPDEST PUSH2 0x25EF JUMP JUMPDEST STOP JUMPDEST CALLVALUE DUP1 ISZERO PUSH2 0x620 JUMPI PUSH0 PUSH0 REVERT JUMPDEST POP PUSH2 0x63B PUSH1 0x4 DUP1 CALLDATASIZE SUB DUP2 ADD SWAP1 PUSH2 0x636 SWAP2 SWAP1 PUSH2 0x319C JUMP JUMPDEST PUSH2 0x2858 JUMP JUMPDEST STOP JUMPDEST PUSH2 0x645 PUSH2 0x28DC JUMP JUMPDEST DUP2 PUSH0 PUSH20 0xFFFFFFFFFFFFFFFFFFFFFFFFFFFFFFFFFFFFFFFF AND DUP2 PUSH20 0xFFFFFFFFFFFFFFFFFFFFFFFFFFFFFFFFFFFFFFFF AND SUB PUSH2 0x6B6 JUMPI DUP1 PUSH1 0x40 MLOAD PUSH32 0x8E4C8AA600000000000000000000000000000000000000000000000000000000 DUP2 MSTORE PUSH1 0x4 ADD PUSH2 0x6AD SWAP2 SWAP1 PUSH2 0x32DD JUMP JUMPDEST PUSH1 0x40 MLOAD DUP1 SWAP2 SUB SWAP1 REVERT JUMPDEST DUP2 PUSH0 DUP2 SUB PUSH2 0x6F0 JUMPI PUSH1 0x40 MLOAD PUSH32 0x2C5211C600000000000000000000000000000000000000000000000000000000 DUP2 MSTORE PUSH1 0x4 ADD PUSH1 0x40 MLOAD DUP1 SWAP2 SUB SWAP1 REVERT JUMPDEST DUP4 PUSH1 0x3 PUSH0 DUP3 PUSH20 0xFFFFFFFFFFFFFFFFFFFFFFFFFFFFFFFFFFFFFFFF AND PUSH20 0xFFFFFFFFFFFFFFFFFFFFFFFFFFFFFFFFFFFFFFFF AND DUP2 MSTORE PUSH1 0x20 ADD SWAP1 DUP2 MSTORE PUSH1 0x20 ADD PUSH0 KECCAK256 PUSH0 SWAP1 SLOAD SWAP1 PUSH2 0x100 EXP SWAP1 DIV PUSH1 0xFF AND PUSH2 0x77C JUMPI DUP1 PUSH1 0x40 MLOAD PUSH32 0x87921F5A00000000000000000000000000000000000000000000000000000000 DUP2 MSTORE PUSH1 0x4 ADD PUSH2 0x773 SWAP2 SWAP1 PUSH2 0x32DD JUMP JUMPDEST PUSH1 0x40 MLOAD DUP1 SWAP2 SUB SWAP1 REVERT JUMPDEST PUSH0 PUSH2 0x786 CALLER PUSH2 0x28FE JUMP JUMPDEST SWAP1 POP PUSH2 0x791 CALLER PUSH2 0x2943 JUMP JUMPDEST PUSH2 0x7C7 JUMPI PUSH1 0x40 MLOAD PUSH32 0xB016BE5E00000000000000000000000000000000000000000000000000000000 DUP2 MSTORE PUSH1 0x4 ADD PUSH1 0x40 MLOAD DUP1 SWAP2 SUB SWAP1 REVERT JUMPDEST PUSH0 PUSH2 0x7D2 CALLER DUP9 PUSH2 0x298E JUMP JUMPDEST SWAP1 POP DUP1 DUP7 GT ISZERO PUSH2 0x81B JUMPI DUP6 DUP2 PUSH1 0x40 MLOAD PUSH32 0xD771D8E900000000000000000000000000000000000000000000000000000000 DUP2 MSTORE PUSH1 0x4 ADD PUSH2 0x812 SWAP3 SWAP2 SWAP1 PUSH2 0x32F6 JUMP JUMPDEST PUSH1 0x40 MLOAD DUP1 SWAP2 SUB SWAP1 REVERT JUMPDEST DUP6 DUP3 PUSH1 0x3 ADD PUSH0 DUP3 DUP3 SLOAD PUSH2 0x82E SWAP2 SWAP1 PUSH2 0x334A JUMP JUMPDEST SWAP3 POP POP DUP2 SWAP1 SSTORE POP DUP7 DUP3 PUSH1 0x2 ADD PUSH0 PUSH2 0x100 EXP DUP2 SLOAD DUP2 PUSH20 0xFFFFFFFFFFFFFFFFFFFFFFFFFFFFFFFFFFFFFFFF MUL NOT AND SWAP1 DUP4 PUSH20 0xFFFFFFFFFFFFFFFFFFFFFFFFFFFFFFFFFFFFFFFF AND MUL OR SWAP1 SSTORE POP PUSH2 0x882 DUP8 CALLER DUP9 PUSH2 0x2B80 JUMP JUMPDEST CALLER PUSH20 0xFFFFFFFFFFFFFFFFFFFFFFFFFFFFFFFFFFFFFFFF AND PUSH32 0x5ABC9A9C4616711EB03D720E050325118645A3695A5E75B5B10A29E2E217FE03 DUP8 PUSH1 0x40 MLOAD PUSH2 0x8C8 SWAP2 SWAP1 PUSH2 0x31D6 JUMP JUMPDEST PUSH1 0x40 MLOAD DUP1 SWAP2 SUB SWAP1 LOG2 POP POP POP POP POP PUSH2 0x8DD PUSH2 0x2D0D JUMP JUMPDEST POP POP JUMP JUMPDEST PUSH2 0x8E9 PUSH2 0x2D27 JUMP JUMPDEST DUP1 PUSH0 PUSH20 0xFFFFFFFFFFFFFFFFFFFFFFFFFFFFFFFFFFFFFFFF AND DUP2 PUSH20 0xFFFFFFFFFFFFFFFFFFFFFFFFFFFFFFFFFFFFFFFF AND SUB PUSH2 0x95A JUMPI DUP1 PUSH1 0x40 MLOAD PUSH32 0x8E4C8AA600000000000000000000000000000000000000000000000000000000 DUP2 MSTORE PUSH1 0x4 ADD PUSH2 0x951 SWAP2 SWAP1 PUSH2 0x32DD JUMP JUMPDEST PUSH1 0x40 MLOAD DUP1 SWAP2 SUB SWAP1 REVERT JUMPDEST PUSH1 0x3 PUSH0 DUP4 PUSH20 0xFFFFFFFFFFFFFFFFFFFFFFFFFFFFFFFFFFFFFFFF AND PUSH20 0xFFFFFFFFFFFFFFFFFFFFFFFFFFFFFFFFFFFFFFFF AND DUP2 MSTORE PUSH1 0x20 ADD SWAP1 DUP2 MSTORE PUSH1 0x20 ADD PUSH0 KECCAK256 PUSH0 SWAP1 SLOAD SWAP1 PUSH2 0x100 EXP SWAP1 DIV PUSH1 0xFF AND PUSH2 0x9E5 JUMPI DUP2 PUSH1 0x40 MLOAD PUSH32 0x87921F5A00000000000000000000000000000000000000000000000000000000 DUP2 MSTORE PUSH1 0x4 ADD PUSH2 0x9DC SWAP2 SWAP1 PUSH2 0x32DD JUMP JUMPDEST PUSH1 0x40 MLOAD DUP1 SWAP2 SUB SWAP1 REVERT JUMPDEST PUSH0 PUSH1 0x3 PUSH0 DUP5 PUSH20 0xFFFFFFFFFFFFFFFFFFFFFFFFFFFFFFFFFFFFFFFF AND PUSH20 0xFFFFFFFFFFFFFFFFFFFFFFFFFFFFFFFFFFFFFFFF AND DUP2 MSTORE PUSH1 0x20 ADD SWAP1 DUP2 MSTORE PUSH1 0x20 ADD PUSH0 KECCAK256 PUSH0 PUSH2 0x100 EXP DUP2 SLOAD DUP2 PUSH1 0xFF MUL NOT AND SWAP1 DUP4 ISZERO ISZERO MUL OR SWAP1 SSTORE POP PUSH0 PUSH1 0x4 PUSH0 DUP5 PUSH20 0xFFFFFFFFFFFFFFFFFFFFFFFFFFFFFFFFFFFFFFFF AND PUSH20 0xFFFFFFFFFFFFFFFFFFFFFFFFFFFFFFFFFFFFFFFF AND DUP2 MSTORE PUSH1 0x20 ADD SWAP1 DUP2 MSTORE PUSH1 0x20 ADD PUSH0 KECCAK256 SLOAD SWAP1 POP PUSH0 PUSH1 0x1 PUSH1 0x5 DUP1 SLOAD SWAP1 POP PUSH2 0xA8D SWAP2 SWAP1 PUSH2 0x337D JUMP JUMPDEST SWAP1 POP PUSH0 PUSH1 0x5 DUP3 DUP2 SLOAD DUP2 LT PUSH2 0xAA4 JUMPI PUSH2 0xAA3 PUSH2 0x33B0 JUMP JUMPDEST JUMPDEST SWAP1 PUSH0 MSTORE PUSH1 0x20 PUSH0 KECCAK256 ADD PUSH0 SWAP1 SLOAD SWAP1 PUSH2 0x100 EXP SWAP1 DIV PUSH20 0xFFFFFFFFFFFFFFFFFFFFFFFFFFFFFFFFFFFFFFFF AND SWAP1 POP DUP2 DUP4 EQ PUSH2 0xB72 JUMPI DUP1 PUSH1 0x5 DUP5 DUP2 SLOAD DUP2 LT PUSH2 0xAEA JUMPI PUSH2 0xAE9 PUSH2 0x33B0 JUMP JUMPDEST JUMPDEST SWAP1 PUSH0 MSTORE PUSH1 0x20 PUSH0 KECCAK256 ADD PUSH0 PUSH2 0x100 EXP DUP2 SLOAD DUP2 PUSH20 0xFFFFFFFFFFFFFFFFFFFFFFFFFFFFFFFFFFFFFFFF MUL NOT AND SWAP1 DUP4 PUSH20 0xFFFFFFFFFFFFFFFFFFFFFFFFFFFFFFFFFFFFFFFF AND MUL OR SWAP1 SSTORE POP DUP3 PUSH1 0x4 PUSH0 DUP4 PUSH20 0xFFFFFFFFFFFFFFFFFFFFFFFFFFFFFFFFFFFFFFFF AND PUSH20 0xFFFFFFFFFFFFFFFFFFFFFFFFFFFFFFFFFFFFFFFF AND DUP2 MSTORE PUSH1 0x20 ADD SWAP1 DUP2 MSTORE PUSH1 0x20 ADD PUSH0 KECCAK256 DUP2 SWAP1 SSTORE POP JUMPDEST PUSH1 0x5 DUP1 SLOAD DUP1 PUSH2 0xB84 JUMPI PUSH2 0xB83 PUSH2 0x33DD JUMP JUMPDEST JUMPDEST PUSH1 0x1 SWAP1 SUB DUP2 DUP2 SWAP1 PUSH0 MSTORE PUSH1 0x20 PUSH0 KECCAK256 ADD PUSH0 PUSH2 0x100 EXP DUP2 SLOAD SWAP1 PUSH20 0xFFFFFFFFFFFFFFFFFFFFFFFFFFFFFFFFFFFFFFFF MUL NOT AND SWAP1 SSTORE SWAP1 SSTORE PUSH1 0x4 PUSH0 DUP7 PUSH20 0xFFFFFFFFFFFFFFFFFFFFFFFFFFFFFFFFFFFFFFFF AND PUSH20 0xFFFFFFFFFFFFFFFFFFFFFFFFFFFFFFFFFFFFFFFF AND DUP2 MSTORE PUSH1 0x20 ADD SWAP1 DUP2 MSTORE PUSH1 0x20 ADD PUSH0 KECCAK256 PUSH0 SWAP1 SSTORE DUP5 PUSH20 0xFFFFFFFFFFFFFFFFFFFFFFFFFFFFFFFFFFFFFFFF AND PUSH32 0x45F62F30E7B8439E0DA7D8E560FE39D01238091CE9E789E3D12B514EDF98ACEA PUSH1 0x40 MLOAD PUSH1 0x40 MLOAD DUP1 SWAP2 SUB SWAP1 LOG2 POP POP POP POP POP JUMP JUMPDEST PUSH0 DUP2 PUSH0 PUSH20 0xFFFFFFFFFFFFFFFFFFFFFFFFFFFFFFFFFFFFFFFF AND DUP2 PUSH20 0xFFFFFFFFFFFFFFFFFFFFFFFFFFFFFFFFFFFFFFFF AND SUB PUSH2 0xCB2 JUMPI DUP1 PUSH1 0x40 MLOAD PUSH32 0x8E4C8AA600000000000000000000000000000000000000000000000000000000 DUP2 MSTORE PUSH1 0x4 ADD PUSH2 0xCA9 SWAP2 SWAP1 PUSH2 0x32DD JUMP JUMPDEST PUSH1 0x40 MLOAD DUP1 SWAP2 SUB SWAP1 REVERT JUMPDEST PUSH0 PUSH1 0x2 PUSH0 DUP6 PUSH20 0xFFFFFFFFFFFFFFFFFFFFFFFFFFFFFFFFFFFFFFFF AND PUSH20 0xFFFFFFFFFFFFFFFFFFFFFFFFFFFFFFFFFFFFFFFF AND DUP2 MSTORE PUSH1 0x20 ADD SWAP1 DUP2 MSTORE PUSH1 0x20 ADD PUSH0 KECCAK256 PUSH0 SWAP1 SLOAD SWAP1 PUSH2 0x100 EXP SWAP1 DIV PUSH20 0xFFFFFFFFFFFFFFFFFFFFFFFFFFFFFFFFFFFFFFFF AND SWAP1 POP PUSH0 PUSH20 0xFFFFFFFFFFFFFFFFFFFFFFFFFFFFFFFFFFFFFFFF AND DUP2 PUSH20 0xFFFFFFFFFFFFFFFFFFFFFFFFFFFFFFFFFFFFFFFF AND SUB PUSH2 0xD82 JUMPI DUP1 PUSH1 0x40 MLOAD PUSH32 0x8E4C8AA600000000000000000000000000000000000000000000000000000000 DUP2 MSTORE PUSH1 0x4 ADD PUSH2 0xD79 SWAP2 SWAP1 PUSH2 0x32DD JUMP JUMPDEST PUSH1 0x40 MLOAD DUP1 SWAP2 SUB SWAP1 REVERT JUMPDEST PUSH0 DUP2 SWAP1 POP PUSH0 PUSH0 PUSH0 PUSH0 DUP5 PUSH20 0xFFFFFFFFFFFFFFFFFFFFFFFFFFFFFFFFFFFFFFFF AND PUSH4 0xFEAF968C PUSH1 0x40 MLOAD DUP2 PUSH4 0xFFFFFFFF AND PUSH1 0xE0 SHL DUP2 MSTORE PUSH1 0x4 ADD PUSH1 0xA0 PUSH1 0x40 MLOAD DUP1 DUP4 SUB DUP2 DUP7 GAS STATICCALL ISZERO DUP1 ISZERO PUSH2 0xDD3 JUMPI RETURNDATASIZE PUSH0 PUSH0 RETURNDATACOPY RETURNDATASIZE PUSH0 REVERT JUMPDEST POP POP POP POP PUSH1 0x40 MLOAD RETURNDATASIZE PUSH1 0x1F NOT PUSH1 0x1F DUP3 ADD AND DUP3 ADD DUP1 PUSH1 0x40 MSTORE POP DUP2 ADD SWAP1 PUSH2 0xDF7 SWAP2 SWAP1 PUSH2 0x3490 JUMP JUMPDEST SWAP5 POP SWAP5 POP POP SWAP4 POP SWAP4 POP PUSH0 DUP4 SGT PUSH2 0xE44 JUMPI DUP3 PUSH1 0x40 MLOAD PUSH32 0xB4E8AE1100000000000000000000000000000000000000000000000000000000 DUP2 MSTORE PUSH1 0x4 ADD PUSH2 0xE3B SWAP2 SWAP1 PUSH2 0x3516 JUMP JUMPDEST PUSH1 0x40 MLOAD DUP1 SWAP2 SUB SWAP1 REVERT JUMPDEST DUP4 PUSH10 0xFFFFFFFFFFFFFFFFFFFF AND DUP2 PUSH10 0xFFFFFFFFFFFFFFFFFFFF AND LT ISZERO PUSH2 0xE96 JUMPI PUSH1 0x40 MLOAD PUSH32 0xEB8EEC2E00000000000000000000000000000000000000000000000000000000 DUP2 MSTORE PUSH1 0x4 ADD PUSH1 0x40 MLOAD DUP1 SWAP2 SUB SWAP1 REVERT JUMPDEST PUSH0 DUP3 EQ DUP1 PUSH2 0xEB1 JUMPI POP PUSH2 0xE10 DUP3 TIMESTAMP PUSH2 0xEAE SWAP2 SWAP1 PUSH2 0x337D JUMP JUMPDEST LT ISZERO JUMPDEST ISZERO PUSH2 0xEF3 JUMPI DUP2 PUSH1 0x40 MLOAD PUSH32 0x3B90DD8B00000000000000000000000000000000000000000000000000000000 DUP2 MSTORE PUSH1 0x4 ADD PUSH2 0xEEA SWAP2 SWAP1 PUSH2 0x31D6 JUMP JUMPDEST PUSH1 0x40 MLOAD DUP1 SWAP2 SUB SWAP1 REVERT JUMPDEST PUSH0 DUP6 PUSH20 0xFFFFFFFFFFFFFFFFFFFFFFFFFFFFFFFFFFFFFFFF AND PUSH4 0x313CE567 PUSH1 0x40 MLOAD DUP2 PUSH4 0xFFFFFFFF AND PUSH1 0xE0 SHL DUP2 MSTORE PUSH1 0x4 ADD PUSH1 0x20 PUSH1 0x40 MLOAD DUP1 DUP4 SUB DUP2 DUP7 GAS STATICCALL ISZERO DUP1 ISZERO PUSH2 0xF3D JUMPI RETURNDATASIZE PUSH0 PUSH0 RETURNDATACOPY RETURNDATASIZE PUSH0 REVERT JUMPDEST POP POP POP POP PUSH1 0x40 MLOAD RETURNDATASIZE PUSH1 0x1F NOT PUSH1 0x1F DUP3 ADD AND DUP3 ADD DUP1 PUSH1 0x40 MSTORE POP DUP2 ADD SWAP1 PUSH2 0xF61 SWAP2 SWAP1 PUSH2 0x3565 JUMP JUMPDEST SWAP1 POP PUSH1 0x12 DUP2 PUSH1 0xFF AND GT ISZERO PUSH2 0xFA1 JUMPI PUSH1 0x40 MLOAD PUSH32 0xD25598A000000000000000000000000000000000000000000000000000000000 DUP2 MSTORE PUSH1 0x4 ADD PUSH1 0x40 MLOAD DUP1 SWAP2 SUB SWAP1 REVERT JUMPDEST DUP1 PUSH1 0x12 PUSH2 0xFAE SWAP2 SWAP1 PUSH2 0x3590 JUMP JUMPDEST PUSH1 0xA PUSH2 0xFBA SWAP2 SWAP1 PUSH2 0x36F3 JUMP JUMPDEST DUP5 PUSH2 0xFC5 SWAP2 SWAP1 PUSH2 0x373D JUMP JUMPDEST SWAP9 POP POP POP POP POP POP POP POP POP SWAP2 SWAP1 POP JUMP JUMPDEST PUSH2 0xFDC PUSH2 0x2D27 JUMP JUMPDEST DUP1 PUSH0 DUP2 SUB PUSH2 0x1016 JUMPI PUSH1 0x40 MLOAD PUSH32 0x2C5211C600000000000000000000000000000000000000000000000000000000 DUP2 MSTORE PUSH1 0x4 ADD PUSH1 0x40 MLOAD DUP1 SWAP2 SUB SWAP1 REVERT JUMPDEST PUSH2 0x2710 DUP3 GT ISZERO PUSH2 0x105D JUMPI DUP2 PUSH1 0x40 MLOAD PUSH32 0x45C57AAC00000000000000000000000000000000000000000000000000000000 DUP2 MSTORE PUSH1 0x4 ADD PUSH2 0x1054 SWAP2 SWAP1 PUSH2 0x31D6 JUMP JUMPDEST PUSH1 0x40 MLOAD DUP1 SWAP2 SUB SWAP1 REVERT JUMPDEST DUP2 PUSH1 0x8 DUP2 SWAP1 SSTORE POP PUSH32 0x4A7CA0E55F887A637B560614F621B92B79423E20152FEA70BC4BE66EDAEE3D6 DUP3 PUSH1 0x40 MLOAD PUSH2 0x1093 SWAP2 SWAP1 PUSH2 0x31D6 JUMP JUMPDEST PUSH1 0x40 MLOAD DUP1 SWAP2 SUB SWAP1 LOG1 POP POP JUMP JUMPDEST PUSH0 DUP2 PUSH0 PUSH20 0xFFFFFFFFFFFFFFFFFFFFFFFFFFFFFFFFFFFFFFFF AND DUP2 PUSH20 0xFFFFFFFFFFFFFFFFFFFFFFFFFFFFFFFFFFFFFFFF AND SUB PUSH2 0x1111 JUMPI DUP1 PUSH1 0x40 MLOAD PUSH32 0x8E4C8AA600000000000000000000000000000000000000000000000000000000 DUP2 MSTORE PUSH1 0x4 ADD PUSH2 0x1108 SWAP2 SWAP1 PUSH2 0x32DD JUMP JUMPDEST PUSH1 0x40 MLOAD DUP1 SWAP2 SUB SWAP1 REVERT JUMPDEST PUSH0 DUP4 SWAP1 POP DUP1 PUSH20 0xFFFFFFFFFFFFFFFFFFFFFFFFFFFFFFFFFFFFFFFF AND PUSH4 0x70A08231 ADDRESS PUSH1 0x40 MLOAD DUP3 PUSH4 0xFFFFFFFF AND PUSH1 0xE0 SHL DUP2 MSTORE PUSH1 0x4 ADD PUSH2 0x114E SWAP2 SWAP1 PUSH2 0x32DD JUMP JUMPDEST PUSH1 0x20 PUSH1 0x40 MLOAD DUP1 DUP4 SUB DUP2 DUP7 GAS STATICCALL ISZERO DUP1 ISZERO PUSH2 0x1169 JUMPI RETURNDATASIZE PUSH0 PUSH0 RETURNDATACOPY RETURNDATASIZE PUSH0 REVERT JUMPDEST POP POP POP POP PUSH1 0x40 MLOAD RETURNDATASIZE PUSH1 0x1F NOT PUSH1 0x1F DUP3 ADD AND DUP3 ADD DUP1 PUSH1 0x40 MSTORE POP DUP2 ADD SWAP1 PUSH2 0x118D SWAP2 SWAP1 PUSH2 0x377E JUMP JUMPDEST SWAP3 POP POP POP SWAP2 SWAP1 POP JUMP JUMPDEST PUSH2 0x119E PUSH2 0x2D27 JUMP JUMPDEST DUP2 PUSH0 PUSH20 0xFFFFFFFFFFFFFFFFFFFFFFFFFFFFFFFFFFFFFFFF AND DUP2 PUSH20 0xFFFFFFFFFFFFFFFFFFFFFFFFFFFFFFFFFFFFFFFF AND SUB PUSH2 0x120F JUMPI DUP1 PUSH1 0x40 MLOAD PUSH32 0x8E4C8AA600000000000000000000000000000000000000000000000000000000 DUP2 MSTORE PUSH1 0x4 ADD PUSH2 0x1206 SWAP2 SWAP1 PUSH2 0x32DD JUMP JUMPDEST PUSH1 0x40 MLOAD DUP1 SWAP2 SUB SWAP1 REVERT JUMPDEST DUP2 PUSH0 PUSH20 0xFFFFFFFFFFFFFFFFFFFFFFFFFFFFFFFFFFFFFFFF AND DUP2 PUSH20 0xFFFFFFFFFFFFFFFFFFFFFFFFFFFFFFFFFFFFFFFF AND SUB PUSH2 0x1280 JUMPI DUP1 PUSH1 0x40 MLOAD PUSH32 0x8E4C8AA600000000000000000000000000000000000000000000000000000000 DUP2 MSTORE PUSH1 0x4 ADD PUSH2 0x1277 SWAP2 SWAP1 PUSH2 0x32DD JUMP JUMPDEST PUSH1 0x40 MLOAD DUP1 SWAP2 SUB SWAP1 REVERT JUMPDEST DUP3 PUSH1 0x2 PUSH0 DUP7 PUSH20 0xFFFFFFFFFFFFFFFFFFFFFFFFFFFFFFFFFFFFFFFF AND PUSH20 0xFFFFFFFFFFFFFFFFFFFFFFFFFFFFFFFFFFFFFFFF AND DUP2 MSTORE PUSH1 0x20 ADD SWAP1 DUP2 MSTORE PUSH1 0x20 ADD PUSH0 KECCAK256 PUSH0 PUSH2 0x100 EXP DUP2 SLOAD DUP2 PUSH20 0xFFFFFFFFFFFFFFFFFFFFFFFFFFFFFFFFFFFFFFFF MUL NOT AND SWAP1 DUP4 PUSH20 0xFFFFFFFFFFFFFFFFFFFFFFFFFFFFFFFFFFFFFFFF AND MUL OR SWAP1 SSTORE POP DUP3 PUSH20 0xFFFFFFFFFFFFFFFFFFFFFFFFFFFFFFFFFFFFFFFF AND DUP5 PUSH20 0xFFFFFFFFFFFFFFFFFFFFFFFFFFFFFFFFFFFFFFFF AND PUSH32 0xA8ABE0398416476DB5B05737CD4DA3B3CBDE5012D978A6A6C3FD49D321753536 PUSH1 0x40 MLOAD PUSH1 0x40 MLOAD DUP1 SWAP2 SUB SWAP1 LOG3 POP POP POP POP JUMP JUMPDEST PUSH1 0x4 PUSH1 0x20 MSTORE DUP1 PUSH0 MSTORE PUSH1 0x40 PUSH0 KECCAK256 PUSH0 SWAP2 POP SWAP1 POP SLOAD DUP2 JUMP JUMPDEST PUSH0 PUSH1 0x5 DUP1 SLOAD SWAP1 POP SWAP1 POP SWAP1 JUMP JUMPDEST PUSH0 SELFBALANCE SWAP1 POP SWAP1 JUMP JUMPDEST PUSH1 0x3 PUSH1 0x20 MSTORE DUP1 PUSH0 MSTORE PUSH1 0x40 PUSH0 KECCAK256 PUSH0 SWAP2 POP SLOAD SWAP1 PUSH2 0x100 EXP SWAP1 DIV PUSH1 0xFF AND DUP2 JUMP JUMPDEST PUSH0 PUSH0 PUSH0 PUSH0 PUSH0 PUSH1 0x1 PUSH0 DUP8 PUSH20 0xFFFFFFFFFFFFFFFFFFFFFFFFFFFFFFFFFFFFFFFF AND PUSH20 0xFFFFFFFFFFFFFFFFFFFFFFFFFFFFFFFFFFFFFFFF AND DUP2 MSTORE PUSH1 0x20 ADD SWAP1 DUP2 MSTORE PUSH1 0x20 ADD PUSH0 KECCAK256 SWAP1 POP DUP1 PUSH0 ADD PUSH0 SWAP1 SLOAD SWAP1 PUSH2 0x100 EXP SWAP1 DIV PUSH20 0xFFFFFFFFFFFFFFFFFFFFFFFFFFFFFFFFFFFFFFFF AND DUP2 PUSH1 0x1 ADD SLOAD DUP3 PUSH1 0x2 ADD PUSH0 SWAP1 SLOAD SWAP1 PUSH2 0x100 EXP SWAP1 DIV PUSH20 0xFFFFFFFFFFFFFFFFFFFFFFFFFFFFFFFFFFFFFFFF AND DUP4 PUSH1 0x3 ADD SLOAD SWAP5 POP SWAP5 POP SWAP5 POP SWAP5 POP POP SWAP2 SWAP4 POP SWAP2 SWAP4 JUMP JUMPDEST PUSH2 0x144D PUSH2 0x2D27 JUMP JUMPDEST PUSH2 0x1456 PUSH0 PUSH2 0x2DAE JUMP JUMPDEST JUMP JUMPDEST PUSH0 CALLVALUE SUB PUSH2 0x1491 JUMPI PUSH1 0x40 MLOAD PUSH32 0xB016BE5E00000000000000000000000000000000000000000000000000000000 DUP2 MSTORE PUSH1 0x4 ADD PUSH1 0x40 MLOAD DUP1 SWAP2 SUB SWAP1 REVERT JUMPDEST PUSH0 PUSH2 0x149B CALLER PUSH2 0x28FE JUMP JUMPDEST SWAP1 POP CALLVALUE DUP2 PUSH1 0x1 ADD PUSH0 DUP3 DUP3 SLOAD PUSH2 0x14B0 SWAP2 SWAP1 PUSH2 0x334A JUMP JUMPDEST SWAP3 POP POP DUP2 SWAP1 SSTORE POP PUSH20 0xEEEEEEEEEEEEEEEEEEEEEEEEEEEEEEEEEEEEEEEE DUP2 PUSH0 ADD PUSH0 PUSH2 0x100 EXP DUP2 SLOAD DUP2 PUSH20 0xFFFFFFFFFFFFFFFFFFFFFFFFFFFFFFFFFFFFFFFF MUL NOT AND SWAP1 DUP4 PUSH20 0xFFFFFFFFFFFFFFFFFFFFFFFFFFFFFFFFFFFFFFFF AND MUL OR SWAP1 SSTORE POP CALLER PUSH20 0xFFFFFFFFFFFFFFFFFFFFFFFFFFFFFFFFFFFFFFFF AND PUSH32 0x1C0917C3A343A300B56473C59FA8355D3326F2C73472679A5B4CD5D6E0390C80 CALLVALUE PUSH1 0x40 MLOAD PUSH2 0x1552 SWAP2 SWAP1 PUSH2 0x31D6 JUMP JUMPDEST PUSH1 0x40 MLOAD DUP1 SWAP2 SUB SWAP1 LOG2 POP JUMP JUMPDEST PUSH2 0x1565 PUSH2 0x2D27 JUMP JUMPDEST DUP1 PUSH0 PUSH20 0xFFFFFFFFFFFFFFFFFFFFFFFFFFFFFFFFFFFFFFFF AND DUP2 PUSH20 0xFFFFFFFFFFFFFFFFFFFFFFFFFFFFFFFFFFFFFFFF AND SUB PUSH2 0x15D6 JUMPI DUP1 PUSH1 0x40 MLOAD PUSH32 0x8E4C8AA600000000000000000000000000000000000000000000000000000000 DUP2 MSTORE PUSH1 0x4 ADD PUSH2 0x15CD SWAP2 SWAP1 PUSH2 0x32DD JUMP JUMPDEST PUSH1 0x40 MLOAD DUP1 SWAP2 SUB SWAP1 REVERT JUMPDEST PUSH1 0x3 PUSH0 DUP4 PUSH20 0xFFFFFFFFFFFFFFFFFFFFFFFFFFFFFFFFFFFFFFFF AND PUSH20 0xFFFFFFFFFFFFFFFFFFFFFFFFFFFFFFFFFFFFFFFF AND DUP2 MSTORE PUSH1 0x20 ADD SWAP1 DUP2 MSTORE PUSH1 0x20 ADD PUSH0 KECCAK256 PUSH0 SWAP1 SLOAD SWAP1 PUSH2 0x100 EXP SWAP1 DIV PUSH1 0xFF AND ISZERO PUSH2 0x1662 JUMPI DUP2 PUSH1 0x40 MLOAD PUSH32 0x7664204700000000000000000000000000000000000000000000000000000000 DUP2 MSTORE PUSH1 0x4 ADD PUSH2 0x1659 SWAP2 SWAP1 PUSH2 0x32DD JUMP JUMPDEST PUSH1 0x40 MLOAD DUP1 SWAP2 SUB SWAP1 REVERT JUMPDEST PUSH1 0x1 PUSH1 0x3 PUSH0 DUP5 PUSH20 0xFFFFFFFFFFFFFFFFFFFFFFFFFFFFFFFFFFFFFFFF AND PUSH20 0xFFFFFFFFFFFFFFFFFFFFFFFFFFFFFFFFFFFFFFFF AND DUP2 MSTORE PUSH1 0x20 ADD SWAP1 DUP2 MSTORE PUSH1 0x20 ADD PUSH0 KECCAK256 PUSH0 PUSH2 0x100 EXP DUP2 SLOAD DUP2 PUSH1 0xFF MUL NOT AND SWAP1 DUP4 ISZERO ISZERO MUL OR SWAP1 SSTORE POP PUSH1 0x5 DUP1 SLOAD SWAP1 POP PUSH1 0x4 PUSH0 DUP5 PUSH20 0xFFFFFFFFFFFFFFFFFFFFFFFFFFFFFFFFFFFFFFFF AND PUSH20 0xFFFFFFFFFFFFFFFFFFFFFFFFFFFFFFFFFFFFFFFF AND DUP2 MSTORE PUSH1 0x20 ADD SWAP1 DUP2 MSTORE PUSH1 0x20 ADD PUSH0 KECCAK256 DUP2 SWAP1 SSTORE POP PUSH1 0x5 DUP3 SWAP1 DUP1 PUSH1 0x1 DUP2 SLOAD ADD DUP1 DUP3 SSTORE DUP1 SWAP2 POP POP PUSH1 0x1 SWAP1 SUB SWAP1 PUSH0 MSTORE PUSH1 0x20 PUSH0 KECCAK256 ADD PUSH0 SWAP1 SWAP2 SWAP1 SWAP2 SWAP1 SWAP2 PUSH2 0x100 EXP DUP2 SLOAD DUP2 PUSH20 0xFFFFFFFFFFFFFFFFFFFFFFFFFFFFFFFFFFFFFFFF MUL NOT AND SWAP1 DUP4 PUSH20 0xFFFFFFFFFFFFFFFFFFFFFFFFFFFFFFFFFFFFFFFF AND MUL OR SWAP1 SSTORE POP DUP2 PUSH20 0xFFFFFFFFFFFFFFFFFFFFFFFFFFFFFFFFFFFFFFFF AND PUSH32 0x26283404367CFFC0443317066C3531D3DB2306AD6E65AA1BEE91DBE98C615A1 PUSH1 0x40 MLOAD PUSH1 0x40 MLOAD DUP1 SWAP2 SUB SWAP1 LOG2 POP POP JUMP JUMPDEST PUSH2 0x17AD PUSH2 0x2D27 JUMP JUMPDEST DUP1 PUSH0 DUP2 SUB PUSH2 0x17E7 JUMPI PUSH1 0x40 MLOAD PUSH32 0x2C5211C600000000000000000000000000000000000000000000000000000000 DUP2 MSTORE PUSH1 0x4 ADD PUSH1 0x40 MLOAD DUP1 SWAP2 SUB SWAP1 REVERT JUMPDEST PUSH0 DUP3 EQ DUP1 PUSH2 0x17F6 JUMPI POP PUSH2 0x2710 DUP3 GT JUMPDEST DUP1 PUSH2 0x1802 JUMPI POP PUSH2 0x1D4C DUP3 GT JUMPDEST ISZERO PUSH2 0x1844 JUMPI DUP2 PUSH1 0x40 MLOAD PUSH32 0xA072825500000000000000000000000000000000000000000000000000000000 DUP2 MSTORE PUSH1 0x4 ADD PUSH2 0x183B SWAP2 SWAP1 PUSH2 0x31D6 JUMP JUMPDEST PUSH1 0x40 MLOAD DUP1 SWAP2 SUB SWAP1 REVERT JUMPDEST DUP2 PUSH1 0x6 DUP2 SWAP1 SSTORE POP PUSH32 0xB1AF578D18AEF46AFAFBD25487A95EFF1077A6E04C89E71B82093B998B3A7E4B DUP3 PUSH1 0x40 MLOAD PUSH2 0x187A SWAP2 SWAP1 PUSH2 0x31D6 JUMP JUMPDEST PUSH1 0x40 MLOAD DUP1 SWAP2 SUB SWAP1 LOG1 POP POP JUMP JUMPDEST PUSH0 PUSH0 PUSH0 SWAP1 SLOAD SWAP1 PUSH2 0x100 EXP SWAP1 DIV PUSH20 0xFFFFFFFFFFFFFFFFFFFFFFFFFFFFFFFFFFFFFFFF AND SWAP1 POP SWAP1 JUMP JUMPDEST PUSH1 0x5 DUP2 DUP2 SLOAD DUP2 LT PUSH2 0x18BC JUMPI PUSH0 DUP1 REVERT JUMPDEST SWAP1 PUSH0 MSTORE PUSH1 0x20 PUSH0 KECCAK256 ADD PUSH0 SWAP2 POP SLOAD SWAP1 PUSH2 0x100 EXP SWAP1 DIV PUSH20 0xFFFFFFFFFFFFFFFFFFFFFFFFFFFFFFFFFFFFFFFF AND DUP2 JUMP JUMPDEST PUSH0 DUP2 PUSH0 PUSH20 0xFFFFFFFFFFFFFFFFFFFFFFFFFFFFFFFFFFFFFFFF AND DUP2 PUSH20 0xFFFFFFFFFFFFFFFFFFFFFFFFFFFFFFFFFFFFFFFF AND SUB PUSH2 0x195A JUMPI DUP1 PUSH1 0x40 MLOAD PUSH32 0x8E4C8AA600000000000000000000000000000000000000000000000000000000 DUP2 MSTORE PUSH1 0x4 ADD PUSH2 0x1951 SWAP2 SWAP1 PUSH2 0x32DD JUMP JUMPDEST PUSH1 0x40 MLOAD DUP1 SWAP2 SUB SWAP1 REVERT JUMPDEST PUSH1 0x3 PUSH0 DUP5 PUSH20 0xFFFFFFFFFFFFFFFFFFFFFFFFFFFFFFFFFFFFFFFF AND PUSH20 0xFFFFFFFFFFFFFFFFFFFFFFFFFFFFFFFFFFFFFFFF AND DUP2 MSTORE PUSH1 0x20 ADD SWAP1 DUP2 MSTORE PUSH1 0x20 ADD PUSH0 KECCAK256 PUSH0 SWAP1 SLOAD SWAP1 PUSH2 0x100 EXP SWAP1 DIV PUSH1 0xFF AND SWAP2 POP POP SWAP2 SWAP1 POP JUMP JUMPDEST PUSH1 0x2 PUSH1 0x20 MSTORE DUP1 PUSH0 MSTORE PUSH1 0x40 PUSH0 KECCAK256 PUSH0 SWAP2 POP SLOAD SWAP1 PUSH2 0x100 EXP SWAP1 DIV PUSH20 0xFFFFFFFFFFFFFFFFFFFFFFFFFFFFFFFFFFFFFFFF AND DUP2 JUMP JUMPDEST PUSH20 0xEEEEEEEEEEEEEEEEEEEEEEEEEEEEEEEEEEEEEEEE DUP2 JUMP JUMPDEST PUSH1 0x1 PUSH1 0x20 MSTORE DUP1 PUSH0 MSTORE PUSH1 0x40 PUSH0 KECCAK256 PUSH0 SWAP2 POP SWAP1 POP DUP1 PUSH0 ADD PUSH0 SWAP1 SLOAD SWAP1 PUSH2 0x100 EXP SWAP1 DIV PUSH20 0xFFFFFFFFFFFFFFFFFFFFFFFFFFFFFFFFFFFFFFFF AND SWAP1 DUP1 PUSH1 0x1 ADD SLOAD SWAP1 DUP1 PUSH1 0x2 ADD PUSH0 SWAP1 SLOAD SWAP1 PUSH2 0x100 EXP SWAP1 DIV PUSH20 0xFFFFFFFFFFFFFFFFFFFFFFFFFFFFFFFFFFFFFFFF AND SWAP1 DUP1 PUSH1 0x3 ADD SLOAD SWAP1 POP DUP5 JUMP JUMPDEST DUP2 PUSH0 PUSH20 0xFFFFFFFFFFFFFFFFFFFFFFFFFFFFFFFFFFFFFFFF AND DUP2 PUSH20 0xFFFFFFFFFFFFFFFFFFFFFFFFFFFFFFFFFFFFFFFF AND SUB PUSH2 0x1ACF JUMPI DUP1 PUSH1 0x40 MLOAD PUSH32 0x8E4C8AA600000000000000000000000000000000000000000000000000000000 DUP2 MSTORE PUSH1 0x4 ADD PUSH2 0x1AC6 SWAP2 SWAP1 PUSH2 0x32DD JUMP JUMPDEST PUSH1 0x40 MLOAD DUP1 SWAP2 SUB SWAP1 REVERT JUMPDEST DUP2 PUSH0 DUP2 SUB PUSH2 0x1B09 JUMPI PUSH1 0x40 MLOAD PUSH32 0x2C5211C600000000000000000000000000000000000000000000000000000000 DUP2 MSTORE PUSH1 0x4 ADD PUSH1 0x40 MLOAD DUP1 SWAP2 SUB SWAP1 REVERT JUMPDEST DUP4 PUSH1 0x3 PUSH0 DUP3 PUSH20 0xFFFFFFFFFFFFFFFFFFFFFFFFFFFFFFFFFFFFFFFF AND PUSH20 0xFFFFFFFFFFFFFFFFFFFFFFFFFFFFFFFFFFFFFFFF AND DUP2 MSTORE PUSH1 0x20 ADD SWAP1 DUP2 MSTORE PUSH1 0x20 ADD PUSH0 KECCAK256 PUSH0 SWAP1 SLOAD SWAP1 PUSH2 0x100 EXP SWAP1 DIV PUSH1 0xFF AND PUSH2 0x1B95 JUMPI DUP1 PUSH1 0x40 MLOAD PUSH32 0x87921F5A00000000000000000000000000000000000000000000000000000000 DUP2 MSTORE PUSH1 0x4 ADD PUSH2 0x1B8C SWAP2 SWAP1 PUSH2 0x32DD JUMP JUMPDEST PUSH1 0x40 MLOAD DUP1 SWAP2 SUB SWAP1 REVERT JUMPDEST PUSH0 PUSH2 0x1B9F CALLER PUSH2 0x28FE JUMP JUMPDEST SWAP1 POP PUSH2 0x1BAA CALLER PUSH2 0x2E6F JUMP JUMPDEST PUSH2 0x1BE0 JUMPI PUSH1 0x40 MLOAD PUSH32 0x33CBF2BC00000000000000000000000000000000000000000000000000000000 DUP2 MSTORE PUSH1 0x4 ADD PUSH1 0x40 MLOAD DUP1 SWAP2 SUB SWAP1 REVERT JUMPDEST PUSH2 0x1BEA CALLER DUP8 PUSH2 0x2EBA JUMP JUMPDEST PUSH2 0x1C2B JUMPI DUP6 PUSH1 0x40 MLOAD PUSH32 0x6F79C78A00000000000000000000000000000000000000000000000000000000 DUP2 MSTORE PUSH1 0x4 ADD PUSH2 0x1C22 SWAP2 SWAP1 PUSH2 0x32DD JUMP JUMPDEST PUSH1 0x40 MLOAD DUP1 SWAP2 SUB SWAP1 REVERT JUMPDEST DUP1 PUSH1 0x3 ADD SLOAD DUP6 GT ISZERO PUSH2 0x1C7A JUMPI DUP5 DUP2 PUSH1 0x3 ADD SLOAD PUSH1 0x40 MLOAD PUSH32 0x99BCD81300000000000000000000000000000000000000000000000000000000 DUP2 MSTORE PUSH1 0x4 ADD PUSH2 0x1C71 SWAP3 SWAP2 SWAP1 PUSH2 0x32F6 JUMP JUMPDEST PUSH1 0x40 MLOAD DUP1 SWAP2 SUB SWAP1 REVERT JUMPDEST DUP1 PUSH1 0x2 ADD PUSH0 SWAP1 SLOAD SWAP1 PUSH2 0x100 EXP SWAP1 DIV PUSH20 0xFFFFFFFFFFFFFFFFFFFFFFFFFFFFFFFFFFFFFFFF AND PUSH20 0xFFFFFFFFFFFFFFFFFFFFFFFFFFFFFFFFFFFFFFFF AND PUSH4 0x23B872DD CALLER ADDRESS DUP9 PUSH1 0x40 MLOAD DUP5 PUSH4 0xFFFFFFFF AND PUSH1 0xE0 SHL DUP2 MSTORE PUSH1 0x4 ADD PUSH2 0x1CDA SWAP4 SWAP3 SWAP2 SWAP1 PUSH2 0x37A9 JUMP JUMPDEST PUSH1 0x20 PUSH1 0x40 MLOAD DUP1 DUP4 SUB DUP2 PUSH0 DUP8 GAS CALL ISZERO DUP1 ISZERO PUSH2 0x1CF6 JUMPI RETURNDATASIZE PUSH0 PUSH0 RETURNDATACOPY RETURNDATASIZE PUSH0 REVERT JUMPDEST POP POP POP POP PUSH1 0x40 MLOAD RETURNDATASIZE PUSH1 0x1F NOT PUSH1 0x1F DUP3 ADD AND DUP3 ADD DUP1 PUSH1 0x40 MSTORE POP DUP2 ADD SWAP1 PUSH2 0x1D1A SWAP2 SWAP1 PUSH2 0x3808 JUMP JUMPDEST PUSH2 0x1D82 JUMPI DUP1 PUSH1 0x2 ADD PUSH0 SWAP1 SLOAD SWAP1 PUSH2 0x100 EXP SWAP1 DIV PUSH20 0xFFFFFFFFFFFFFFFFFFFFFFFFFFFFFFFFFFFFFFFF AND CALLER DUP7 PUSH1 0x40 MLOAD PUSH32 0xBF182BE800000000000000000000000000000000000000000000000000000000 DUP2 MSTORE PUSH1 0x4 ADD PUSH2 0x1D79 SWAP4 SWAP3 SWAP2 SWAP1 PUSH2 0x37A9 JUMP JUMPDEST PUSH1 0x40 MLOAD DUP1 SWAP2 SUB SWAP1 REVERT JUMPDEST DUP5 DUP2 PUSH1 0x3 ADD PUSH0 DUP3 DUP3 SLOAD PUSH2 0x1D95 SWAP2 SWAP1 PUSH2 0x337D JUMP JUMPDEST SWAP3 POP POP DUP2 SWAP1 SSTORE POP PUSH0 DUP2 PUSH1 0x3 ADD SLOAD SUB PUSH2 0x1DEA JUMPI PUSH0 DUP2 PUSH1 0x2 ADD PUSH0 PUSH2 0x100 EXP DUP2 SLOAD DUP2 PUSH20 0xFFFFFFFFFFFFFFFFFFFFFFFFFFFFFFFFFFFFFFFF MUL NOT AND SWAP1 DUP4 PUSH20 0xFFFFFFFFFFFFFFFFFFFFFFFFFFFFFFFFFFFFFFFF AND MUL OR SWAP1 SSTORE POP JUMPDEST CALLER PUSH20 0xFFFFFFFFFFFFFFFFFFFFFFFFFFFFFFFFFFFFFFFF AND PUSH32 0xB7EFCC12F3D3E74E33995FF303ACA806B9428989809E60A4E5A4D465832966E4 DUP7 PUSH1 0x40 MLOAD PUSH2 0x1E30 SWAP2 SWAP1 PUSH2 0x31D6 JUMP JUMPDEST PUSH1 0x40 MLOAD DUP1 SWAP2 SUB SWAP1 LOG2 POP POP POP POP POP POP JUMP JUMPDEST PUSH2 0x1E48 PUSH2 0x28DC JUMP JUMPDEST DUP2 PUSH0 PUSH20 0xFFFFFFFFFFFFFFFFFFFFFFFFFFFFFFFFFFFFFFFF AND DUP2 PUSH20 0xFFFFFFFFFFFFFFFFFFFFFFFFFFFFFFFFFFFFFFFF AND SUB PUSH2 0x1EB9 JUMPI DUP1 PUSH1 0x40 MLOAD PUSH32 0x8E4C8AA600000000000000000000000000000000000000000000000000000000 DUP2 MSTORE PUSH1 0x4 ADD PUSH2 0x1EB0 SWAP2 SWAP1 PUSH2 0x32DD JUMP JUMPDEST PUSH1 0x40 MLOAD DUP1 SWAP2 SUB SWAP1 REVERT JUMPDEST DUP2 PUSH0 DUP2 SUB PUSH2 0x1EF3 JUMPI PUSH1 0x40 MLOAD PUSH32 0x2C5211C600000000000000000000000000000000000000000000000000000000 DUP2 MSTORE PUSH1 0x4 ADD PUSH1 0x40 MLOAD DUP1 SWAP2 SUB SWAP1 REVERT JUMPDEST PUSH0 PUSH2 0x1EFD DUP6 PUSH2 0x28FE JUMP JUMPDEST SWAP1 POP PUSH2 0x1F08 DUP6 PUSH2 0x2E6F JUMP JUMPDEST PUSH2 0x1F3E JUMPI PUSH1 0x40 MLOAD PUSH32 0x33CBF2BC00000000000000000000000000000000000000000000000000000000 DUP2 MSTORE PUSH1 0x4 ADD PUSH1 0x40 MLOAD DUP1 SWAP2 SUB SWAP1 REVERT JUMPDEST PUSH0 PUSH2 0x1F6F DUP3 PUSH0 ADD PUSH0 SWAP1 SLOAD SWAP1 PUSH2 0x100 EXP SWAP1 DIV PUSH20 0xFFFFFFFFFFFFFFFFFFFFFFFFFFFFFFFFFFFFFFFF AND DUP4 PUSH1 0x1 ADD SLOAD PUSH2 0x2485 JUMP JUMPDEST SWAP1 POP PUSH0 PUSH2 0x1FA3 DUP4 PUSH1 0x2 ADD PUSH0 SWAP1 SLOAD SWAP1 PUSH2 0x100 EXP SWAP1 DIV PUSH20 0xFFFFFFFFFFFFFFFFFFFFFFFFFFFFFFFFFFFFFFFF AND DUP5 PUSH1 0x3 ADD SLOAD PUSH2 0x2485 JUMP JUMPDEST SWAP1 POP PUSH0 PUSH2 0x1FBF PUSH2 0x1D4C PUSH2 0x2710 DUP6 PUSH2 0x2F51 SWAP1 SWAP3 SWAP2 SWAP1 PUSH4 0xFFFFFFFF AND JUMP JUMPDEST SWAP1 POP DUP1 DUP3 GT PUSH2 0x1FFA JUMPI PUSH1 0x40 MLOAD PUSH32 0x21E660FC00000000000000000000000000000000000000000000000000000000 DUP2 MSTORE PUSH1 0x4 ADD PUSH1 0x40 MLOAD DUP1 SWAP2 SUB SWAP1 REVERT JUMPDEST PUSH0 PUSH1 0x7 SLOAD EQ DUP1 PUSH2 0x200D JUMPI POP PUSH2 0x2710 PUSH1 0x7 SLOAD GT JUMPDEST ISZERO PUSH2 0x2044 JUMPI PUSH1 0x40 MLOAD PUSH32 0xEE0BDBDF00000000000000000000000000000000000000000000000000000000 DUP2 MSTORE PUSH1 0x4 ADD PUSH1 0x40 MLOAD DUP1 SWAP2 SUB SWAP1 REVERT JUMPDEST PUSH0 PUSH2 0x2062 PUSH1 0x7 SLOAD PUSH2 0x2710 DUP8 PUSH1 0x3 ADD SLOAD PUSH2 0x2F51 SWAP1 SWAP3 SWAP2 SWAP1 PUSH4 0xFFFFFFFF AND JUMP JUMPDEST SWAP1 POP PUSH0 DUP2 DUP10 GT PUSH2 0x2072 JUMPI DUP9 PUSH2 0x2074 JUMP JUMPDEST DUP2 JUMPDEST SWAP1 POP PUSH0 PUSH2 0x20A4 DUP8 PUSH1 0x2 ADD PUSH0 SWAP1 SLOAD SWAP1 PUSH2 0x100 EXP SWAP1 DIV PUSH20 0xFFFFFFFFFFFFFFFFFFFFFFFFFFFFFFFFFFFFFFFF AND DUP4 PUSH2 0x2485 JUMP JUMPDEST SWAP1 POP PUSH0 PUSH2 0x20CD PUSH1 0x8 SLOAD PUSH2 0x2710 PUSH2 0x20BA SWAP2 SWAP1 PUSH2 0x334A JUMP JUMPDEST PUSH2 0x2710 DUP5 PUSH2 0x2F51 SWAP1 SWAP3 SWAP2 SWAP1 PUSH4 0xFFFFFFFF AND JUMP JUMPDEST SWAP1 POP PUSH0 PUSH2 0x20FB DUP10 PUSH0 ADD PUSH0 SWAP1 SLOAD SWAP1 PUSH2 0x100 EXP SWAP1 DIV PUSH20 0xFFFFFFFFFFFFFFFFFFFFFFFFFFFFFFFFFFFFFFFF AND PUSH2 0xC40 JUMP JUMPDEST SWAP1 POP PUSH0 PUSH2 0x211B PUSH8 0xDE0B6B3A7640000 DUP4 DUP6 PUSH2 0x2F51 SWAP1 SWAP3 SWAP2 SWAP1 PUSH4 0xFFFFFFFF AND JUMP JUMPDEST SWAP1 POP DUP10 PUSH1 0x1 ADD SLOAD DUP2 GT ISZERO PUSH2 0x2131 JUMPI DUP10 PUSH1 0x1 ADD SLOAD SWAP1 POP JUMPDEST DUP10 PUSH1 0x2 ADD PUSH0 SWAP1 SLOAD SWAP1 PUSH2 0x100 EXP SWAP1 DIV PUSH20 0xFFFFFFFFFFFFFFFFFFFFFFFFFFFFFFFFFFFFFFFF AND PUSH20 0xFFFFFFFFFFFFFFFFFFFFFFFFFFFFFFFFFFFFFFFF AND PUSH4 0x23B872DD CALLER ADDRESS DUP9 PUSH1 0x40 MLOAD DUP5 PUSH4 0xFFFFFFFF AND PUSH1 0xE0 SHL DUP2 MSTORE PUSH1 0x4 ADD PUSH2 0x2191 SWAP4 SWAP3 SWAP2 SWAP1 PUSH2 0x37A9 JUMP JUMPDEST PUSH1 0x20 PUSH1 0x40 MLOAD DUP1 DUP4 SUB DUP2 PUSH0 DUP8 GAS CALL ISZERO DUP1 ISZERO PUSH2 0x21AD JUMPI RETURNDATASIZE PUSH0 PUSH0 RETURNDATACOPY RETURNDATASIZE PUSH0 REVERT JUMPDEST POP POP POP POP PUSH1 0x40 MLOAD RETURNDATASIZE PUSH1 0x1F NOT PUSH1 0x1F DUP3 ADD AND DUP3 ADD DUP1 PUSH1 0x40 MSTORE POP DUP2 ADD SWAP1 PUSH2 0x21D1 SWAP2 SWAP1 PUSH2 0x3808 JUMP JUMPDEST PUSH2 0x2239 JUMPI DUP10 PUSH1 0x2 ADD PUSH0 SWAP1 SLOAD SWAP1 PUSH2 0x100 EXP SWAP1 DIV PUSH20 0xFFFFFFFFFFFFFFFFFFFFFFFFFFFFFFFFFFFFFFFF AND CALLER DUP7 PUSH1 0x40 MLOAD PUSH32 0xBF182BE800000000000000000000000000000000000000000000000000000000 DUP2 MSTORE PUSH1 0x4 ADD PUSH2 0x2230 SWAP4 SWAP3 SWAP2 SWAP1 PUSH2 0x37A9 JUMP JUMPDEST PUSH1 0x40 MLOAD DUP1 SWAP2 SUB SWAP1 REVERT JUMPDEST DUP10 PUSH1 0x3 ADD SLOAD DUP6 LT PUSH2 0x2290 JUMPI PUSH0 DUP11 PUSH1 0x3 ADD DUP2 SWAP1 SSTORE POP PUSH0 DUP11 PUSH1 0x2 ADD PUSH0 PUSH2 0x100 EXP DUP2 SLOAD DUP2 PUSH20 0xFFFFFFFFFFFFFFFFFFFFFFFFFFFFFFFFFFFFFFFF MUL NOT AND SWAP1 DUP4 PUSH20 0xFFFFFFFFFFFFFFFFFFFFFFFFFFFFFFFFFFFFFFFF AND MUL OR SWAP1 SSTORE POP JUMPDEST DUP5 DUP11 PUSH1 0x3 ADD PUSH0 DUP3 DUP3 SLOAD PUSH2 0x22A3 SWAP2 SWAP1 PUSH2 0x337D JUMP JUMPDEST SWAP3 POP POP DUP2 SWAP1 SSTORE POP PUSH20 0xEEEEEEEEEEEEEEEEEEEEEEEEEEEEEEEEEEEEEEEE PUSH20 0xFFFFFFFFFFFFFFFFFFFFFFFFFFFFFFFFFFFFFFFF AND DUP11 PUSH0 ADD PUSH0 SWAP1 SLOAD SWAP1 PUSH2 0x100 EXP SWAP1 DIV PUSH20 0xFFFFFFFFFFFFFFFFFFFFFFFFFFFFFFFFFFFFFFFF AND PUSH20 0xFFFFFFFFFFFFFFFFFFFFFFFFFFFFFFFFFFFFFFFF AND SUB PUSH2 0x23D7 JUMPI PUSH0 CALLER PUSH20 0xFFFFFFFFFFFFFFFFFFFFFFFFFFFFFFFFFFFFFFFF AND DUP3 PUSH1 0x40 MLOAD PUSH2 0x2338 SWAP1 PUSH2 0x3860 JUMP JUMPDEST PUSH0 PUSH1 0x40 MLOAD DUP1 DUP4 SUB DUP2 DUP6 DUP8 GAS CALL SWAP3 POP POP POP RETURNDATASIZE DUP1 PUSH0 DUP2 EQ PUSH2 0x2372 JUMPI PUSH1 0x40 MLOAD SWAP2 POP PUSH1 0x1F NOT PUSH1 0x3F RETURNDATASIZE ADD AND DUP3 ADD PUSH1 0x40 MSTORE RETURNDATASIZE DUP3 MSTORE RETURNDATASIZE PUSH0 PUSH1 0x20 DUP5 ADD RETURNDATACOPY PUSH2 0x2377 JUMP JUMPDEST PUSH1 0x60 SWAP2 POP JUMPDEST POP POP SWAP1 POP DUP1 PUSH2 0x23D5 JUMPI PUSH20 0xEEEEEEEEEEEEEEEEEEEEEEEEEEEEEEEEEEEEEEEE CALLER DUP4 PUSH1 0x40 MLOAD PUSH32 0xBF182BE800000000000000000000000000000000000000000000000000000000 DUP2 MSTORE PUSH1 0x4 ADD PUSH2 0x23CC SWAP4 SWAP3 SWAP2 SWAP1 PUSH2 0x37A9 JUMP JUMPDEST PUSH1 0x40 MLOAD DUP1 SWAP2 SUB SWAP1 REVERT JUMPDEST POP JUMPDEST DUP1 DUP11 PUSH1 0x1 ADD PUSH0 DUP3 DUP3 SLOAD PUSH2 0x23EA SWAP2 SWAP1 PUSH2 0x337D JUMP JUMPDEST SWAP3 POP POP DUP2 SWAP1 SSTORE POP PUSH0 DUP11 PUSH1 0x1 ADD SLOAD SUB PUSH2 0x2406 JUMPI PUSH2 0x2405 DUP15 PUSH2 0x2F92 JUMP JUMPDEST JUMPDEST DUP14 PUSH20 0xFFFFFFFFFFFFFFFFFFFFFFFFFFFFFFFFFFFFFFFF AND CALLER PUSH20 0xFFFFFFFFFFFFFFFFFFFFFFFFFFFFFFFFFFFFFFFF AND PUSH32 0x4ECAE3269F800DF64B16CB9F6F8B0B507018888521D1CFF0841823E44BC0B00D DUP8 DUP5 PUSH1 0x40 MLOAD PUSH2 0x2465 SWAP3 SWAP2 SWAP1 PUSH2 0x32F6 JUMP JUMPDEST PUSH1 0x40 MLOAD DUP1 SWAP2 SUB SWAP1 LOG3 POP POP POP POP POP POP POP POP POP POP POP POP PUSH2 0x2481 PUSH2 0x2D0D JUMP JUMPDEST POP POP JUMP JUMPDEST PUSH0 PUSH0 PUSH2 0x2490 DUP5 PUSH2 0xC40 JUMP JUMPDEST SWAP1 POP PUSH0 DUP2 SUB PUSH2 0x24A2 JUMPI PUSH0 SWAP2 POP POP PUSH2 0x25E9 JUMP JUMPDEST PUSH0 PUSH20 0xEEEEEEEEEEEEEEEEEEEEEEEEEEEEEEEEEEEEEEEE PUSH20 0xFFFFFFFFFFFFFFFFFFFFFFFFFFFFFFFFFFFFFFFF AND DUP6 PUSH20 0xFFFFFFFFFFFFFFFFFFFFFFFFFFFFFFFFFFFFFFFF AND EQ PUSH2 0x255C JUMPI DUP5 PUSH20 0xFFFFFFFFFFFFFFFFFFFFFFFFFFFFFFFFFFFFFFFF AND PUSH4 0x313CE567 PUSH1 0x40 MLOAD DUP2 PUSH4 0xFFFFFFFF AND PUSH1 0xE0 SHL DUP2 MSTORE PUSH1 0x4 ADD PUSH1 0x20 PUSH1 0x40 MLOAD DUP1 DUP4 SUB DUP2 DUP7 GAS STATICCALL ISZERO DUP1 ISZERO PUSH2 0x2533 JUMPI RETURNDATASIZE PUSH0 PUSH0 RETURNDATACOPY RETURNDATASIZE PUSH0 REVERT JUMPDEST POP POP POP POP PUSH1 0x40 MLOAD RETURNDATASIZE PUSH1 0x1F NOT PUSH1 0x1F DUP3 ADD AND DUP3 ADD DUP1 PUSH1 0x40 MSTORE POP DUP2 ADD SWAP1 PUSH2 0x2557 SWAP2 SWAP1 PUSH2 0x3565 JUMP JUMPDEST PUSH2 0x255F JUMP JUMPDEST PUSH1 0x12 JUMPDEST SWAP1 POP PUSH1 0x12 DUP2 PUSH1 0xFF AND GT ISZERO PUSH2 0x259F JUMPI PUSH1 0x40 MLOAD PUSH32 0xD25598A000000000000000000000000000000000000000000000000000000000 DUP2 MSTORE PUSH1 0x4 ADD PUSH1 0x40 MLOAD DUP1 SWAP2 SUB SWAP1 REVERT JUMPDEST PUSH0 DUP2 PUSH1 0x12 PUSH2 0x25AD SWAP2 SWAP1 PUSH2 0x3590 JUMP JUMPDEST PUSH1 0xA PUSH2 0x25B9 SWAP2 SWAP1 PUSH2 0x36F3 JUMP JUMPDEST DUP6 PUSH2 0x25C4 SWAP2 SWAP1 PUSH2 0x373D JUMP JUMPDEST SWAP1 POP PUSH2 0x25E3 DUP4 PUSH8 0xDE0B6B3A7640000 DUP4 PUSH2 0x2F51 SWAP1 SWAP3 SWAP2 SWAP1 PUSH4 0xFFFFFFFF AND JUMP JUMPDEST SWAP4 POP POP POP POP JUMPDEST SWAP3 SWAP2 POP POP JUMP JUMPDEST PUSH2 0x25F7 PUSH2 0x28DC JUMP JUMPDEST DUP1 PUSH0 DUP2 SUB PUSH2 0x2631 JUMPI PUSH1 0x40 MLOAD PUSH32 0x2C5211C600000000000000000000000000000000000000000000000000000000 DUP2 MSTORE PUSH1 0x4 ADD PUSH1 0x40 MLOAD DUP1 SWAP2 SUB SWAP1 REVERT JUMPDEST PUSH0 PUSH2 0x263B CALLER PUSH2 0x28FE JUMP JUMPDEST SWAP1 POP PUSH0 DUP2 PUSH1 0x3 ADD SLOAD EQ PUSH2 0x2689 JUMPI DUP1 PUSH1 0x3 ADD SLOAD PUSH1 0x40 MLOAD PUSH32 0x40A636FB00000000000000000000000000000000000000000000000000000000 DUP2 MSTORE PUSH1 0x4 ADD PUSH2 0x2680 SWAP2 SWAP1 PUSH2 0x31D6 JUMP JUMPDEST PUSH1 0x40 MLOAD DUP1 SWAP2 SUB SWAP1 REVERT JUMPDEST DUP1 PUSH1 0x1 ADD SLOAD DUP4 GT ISZERO PUSH2 0x26D8 JUMPI DUP1 PUSH1 0x1 ADD SLOAD DUP4 PUSH1 0x40 MLOAD PUSH32 0x768063DB00000000000000000000000000000000000000000000000000000000 DUP2 MSTORE PUSH1 0x4 ADD PUSH2 0x26CF SWAP3 SWAP2 SWAP1 PUSH2 0x32F6 JUMP JUMPDEST PUSH1 0x40 MLOAD DUP1 SWAP2 SUB SWAP1 REVERT JUMPDEST DUP3 SELFBALANCE LT ISZERO PUSH2 0x271F JUMPI SELFBALANCE DUP4 PUSH1 0x40 MLOAD PUSH32 0xCE9514F900000000000000000000000000000000000000000000000000000000 DUP2 MSTORE PUSH1 0x4 ADD PUSH2 0x2716 SWAP3 SWAP2 SWAP1 PUSH2 0x32F6 JUMP JUMPDEST PUSH1 0x40 MLOAD DUP1 SWAP2 SUB SWAP1 REVERT JUMPDEST PUSH0 CALLER PUSH20 0xFFFFFFFFFFFFFFFFFFFFFFFFFFFFFFFFFFFFFFFF AND DUP5 PUSH1 0x40 MLOAD PUSH2 0x2744 SWAP1 PUSH2 0x3860 JUMP JUMPDEST PUSH0 PUSH1 0x40 MLOAD DUP1 DUP4 SUB DUP2 DUP6 DUP8 GAS CALL SWAP3 POP POP POP RETURNDATASIZE DUP1 PUSH0 DUP2 EQ PUSH2 0x277E JUMPI PUSH1 0x40 MLOAD SWAP2 POP PUSH1 0x1F NOT PUSH1 0x3F RETURNDATASIZE ADD AND DUP3 ADD PUSH1 0x40 MSTORE RETURNDATASIZE DUP3 MSTORE RETURNDATASIZE PUSH0 PUSH1 0x20 DUP5 ADD RETURNDATACOPY PUSH2 0x2783 JUMP JUMPDEST PUSH1 0x60 SWAP2 POP JUMPDEST POP POP SWAP1 POP DUP1 PUSH2 0x27CD JUMPI PUSH0 CALLER DUP6 PUSH1 0x40 MLOAD PUSH32 0xBF182BE800000000000000000000000000000000000000000000000000000000 DUP2 MSTORE PUSH1 0x4 ADD PUSH2 0x27C4 SWAP4 SWAP3 SWAP2 SWAP1 PUSH2 0x37A9 JUMP JUMPDEST PUSH1 0x40 MLOAD DUP1 SWAP2 SUB SWAP1 REVERT JUMPDEST DUP4 DUP3 PUSH1 0x1 ADD PUSH0 DUP3 DUP3 SLOAD PUSH2 0x27E0 SWAP2 SWAP1 PUSH2 0x337D JUMP JUMPDEST SWAP3 POP POP DUP2 SWAP1 SSTORE POP PUSH0 DUP3 PUSH1 0x1 ADD SLOAD SUB PUSH2 0x27FC JUMPI PUSH2 0x27FB CALLER PUSH2 0x2F92 JUMP JUMPDEST JUMPDEST CALLER PUSH20 0xFFFFFFFFFFFFFFFFFFFFFFFFFFFFFFFFFFFFFFFF AND PUSH32 0x5B0743ACABCE0EA09498B3C2598ED444F80EF6513A2029D7D9AAED87064D1EDB DUP6 PUSH1 0x40 MLOAD PUSH2 0x2842 SWAP2 SWAP1 PUSH2 0x31D6 JUMP JUMPDEST PUSH1 0x40 MLOAD DUP1 SWAP2 SUB SWAP1 LOG2 POP POP POP PUSH2 0x2855 PUSH2 0x2D0D JUMP JUMPDEST POP JUMP JUMPDEST PUSH2 0x2860 PUSH2 0x2D27 JUMP JUMPDEST PUSH0 PUSH20 0xFFFFFFFFFFFFFFFFFFFFFFFFFFFFFFFFFFFFFFFF AND DUP2 PUSH20 0xFFFFFFFFFFFFFFFFFFFFFFFFFFFFFFFFFFFFFFFF AND SUB PUSH2 0x28D0 JUMPI PUSH0 PUSH1 0x40 MLOAD PUSH32 0x1E4FBDF700000000000000000000000000000000000000000000000000000000 DUP2 MSTORE PUSH1 0x4 ADD PUSH2 0x28C7 SWAP2 SWAP1 PUSH2 0x32DD JUMP JUMPDEST PUSH1 0x40 MLOAD DUP1 SWAP2 SUB SWAP1 REVERT JUMPDEST PUSH2 0x28D9 DUP2 PUSH2 0x2DAE JUMP JUMPDEST POP JUMP JUMPDEST PUSH2 0x28E4 PUSH2 0x3037 JUMP JUMPDEST PUSH1 0x2 PUSH2 0x28F6 PUSH2 0x28F1 PUSH2 0x3078 JUMP JUMPDEST PUSH2 0x30A1 JUMP JUMPDEST PUSH0 ADD DUP2 SWAP1 SSTORE POP JUMP JUMPDEST PUSH0 PUSH1 0x1 PUSH0 DUP4 PUSH20 0xFFFFFFFFFFFFFFFFFFFFFFFFFFFFFFFFFFFFFFFF AND PUSH20 0xFFFFFFFFFFFFFFFFFFFFFFFFFFFFFFFFFFFFFFFF AND DUP2 MSTORE PUSH1 0x20 ADD SWAP1 DUP2 MSTORE PUSH1 0x20 ADD PUSH0 KECCAK256 SWAP1 POP SWAP2 SWAP1 POP JUMP JUMPDEST PUSH0 PUSH0 PUSH1 0x1 PUSH0 DUP5 PUSH20 0xFFFFFFFFFFFFFFFFFFFFFFFFFFFFFFFFFFFFFFFF AND PUSH20 0xFFFFFFFFFFFFFFFFFFFFFFFFFFFFFFFFFFFFFFFF AND DUP2 MSTORE PUSH1 0x20 ADD SWAP1 DUP2 MSTORE PUSH1 0x20 ADD PUSH0 KECCAK256 PUSH1 0x1 ADD SLOAD GT SWAP1 POP SWAP2 SWAP1 POP JUMP JUMPDEST PUSH0 PUSH0 PUSH2 0x2999 DUP5 PUSH2 0x28FE JUMP JUMPDEST SWAP1 POP PUSH2 0x29A4 DUP5 PUSH2 0x2943 JUMP JUMPDEST PUSH2 0x29B1 JUMPI PUSH0 SWAP2 POP POP PUSH2 0x2B7A JUMP JUMPDEST PUSH0 PUSH20 0xFFFFFFFFFFFFFFFFFFFFFFFFFFFFFFFFFFFFFFFF AND PUSH1 0x2 PUSH0 DUP6 PUSH20 0xFFFFFFFFFFFFFFFFFFFFFFFFFFFFFFFFFFFFFFFF AND PUSH20 0xFFFFFFFFFFFFFFFFFFFFFFFFFFFFFFFFFFFFFFFF AND DUP2 MSTORE PUSH1 0x20 ADD SWAP1 DUP2 MSTORE PUSH1 0x20 ADD PUSH0 KECCAK256 PUSH0 SWAP1 SLOAD SWAP1 PUSH2 0x100 EXP SWAP1 DIV PUSH20 0xFFFFFFFFFFFFFFFFFFFFFFFFFFFFFFFFFFFFFFFF AND PUSH20 0xFFFFFFFFFFFFFFFFFFFFFFFFFFFFFFFFFFFFFFFF AND SUB PUSH2 0x2A7D JUMPI DUP3 PUSH1 0x40 MLOAD PUSH32 0x6F79C78A00000000000000000000000000000000000000000000000000000000 DUP2 MSTORE PUSH1 0x4 ADD PUSH2 0x2A74 SWAP2 SWAP1 PUSH2 0x32DD JUMP JUMPDEST PUSH1 0x40 MLOAD DUP1 SWAP2 SUB SWAP1 REVERT JUMPDEST PUSH0 PUSH2 0x2AAE DUP3 PUSH0 ADD PUSH0 SWAP1 SLOAD SWAP1 PUSH2 0x100 EXP SWAP1 DIV PUSH20 0xFFFFFFFFFFFFFFFFFFFFFFFFFFFFFFFFFFFFFFFF AND DUP4 PUSH1 0x1 ADD SLOAD PUSH2 0x2485 JUMP JUMPDEST SWAP1 POP PUSH0 PUSH2 0x2ACA PUSH1 0x6 SLOAD PUSH2 0x2710 DUP5 PUSH2 0x2F51 SWAP1 SWAP3 SWAP2 SWAP1 PUSH4 0xFFFFFFFF AND JUMP JUMPDEST SWAP1 POP PUSH0 PUSH0 DUP5 PUSH1 0x3 ADD SLOAD EQ PUSH2 0x2B0E JUMPI PUSH2 0x2B09 DUP5 PUSH1 0x2 ADD PUSH0 SWAP1 SLOAD SWAP1 PUSH2 0x100 EXP SWAP1 DIV PUSH20 0xFFFFFFFFFFFFFFFFFFFFFFFFFFFFFFFFFFFFFFFF AND DUP6 PUSH1 0x3 ADD SLOAD PUSH2 0x2485 JUMP JUMPDEST PUSH2 0x2B10 JUMP JUMPDEST PUSH0 JUMPDEST SWAP1 POP DUP2 DUP2 LT PUSH2 0x2B25 JUMPI PUSH0 SWAP5 POP POP POP POP POP PUSH2 0x2B7A JUMP JUMPDEST PUSH0 DUP2 DUP4 PUSH2 0x2B32 SWAP2 SWAP1 PUSH2 0x337D JUMP JUMPDEST SWAP1 POP PUSH0 DUP2 SUB PUSH2 0x2B48 JUMPI PUSH0 SWAP6 POP POP POP POP POP POP PUSH2 0x2B7A JUMP JUMPDEST PUSH0 PUSH2 0x2B52 DUP9 PUSH2 0xC40 JUMP JUMPDEST SWAP1 POP PUSH2 0x2B71 PUSH8 0xDE0B6B3A7640000 DUP3 DUP5 PUSH2 0x2F51 SWAP1 SWAP3 SWAP2 SWAP1 PUSH4 0xFFFFFFFF AND JUMP JUMPDEST SWAP7 POP POP POP POP POP POP POP JUMPDEST SWAP3 SWAP2 POP POP JUMP JUMPDEST PUSH0 DUP4 SWAP1 POP PUSH0 DUP2 PUSH20 0xFFFFFFFFFFFFFFFFFFFFFFFFFFFFFFFFFFFFFFFF AND PUSH4 0x70A08231 ADDRESS PUSH1 0x40 MLOAD DUP3 PUSH4 0xFFFFFFFF AND PUSH1 0xE0 SHL DUP2 MSTORE PUSH1 0x4 ADD PUSH2 0x2BBE SWAP2 SWAP1 PUSH2 0x32DD JUMP JUMPDEST PUSH1 0x20 PUSH1 0x40 MLOAD DUP1 DUP4 SUB DUP2 DUP7 GAS STATICCALL ISZERO DUP1 ISZERO PUSH2 0x2BD9 JUMPI RETURNDATASIZE PUSH0 PUSH0 RETURNDATACOPY RETURNDATASIZE PUSH0 REVERT JUMPDEST POP POP POP POP PUSH1 0x40 MLOAD RETURNDATASIZE PUSH1 0x1F NOT PUSH1 0x1F DUP3 ADD AND DUP3 ADD DUP1 PUSH1 0x40 MSTORE POP DUP2 ADD SWAP1 PUSH2 0x2BFD SWAP2 SWAP1 PUSH2 0x377E JUMP JUMPDEST SWAP1 POP DUP3 DUP2 LT ISZERO PUSH2 0x2C46 JUMPI DUP1 DUP4 PUSH1 0x40 MLOAD PUSH32 0xCE9514F900000000000000000000000000000000000000000000000000000000 DUP2 MSTORE PUSH1 0x4 ADD PUSH2 0x2C3D SWAP3 SWAP2 SWAP1 PUSH2 0x32F6 JUMP JUMPDEST PUSH1 0x40 MLOAD DUP1 SWAP2 SUB SWAP1 REVERT JUMPDEST DUP2 PUSH20 0xFFFFFFFFFFFFFFFFFFFFFFFFFFFFFFFFFFFFFFFF AND PUSH4 0xA9059CBB DUP6 DUP6 PUSH1 0x40 MLOAD DUP4 PUSH4 0xFFFFFFFF AND PUSH1 0xE0 SHL DUP2 MSTORE PUSH1 0x4 ADD PUSH2 0x2C81 SWAP3 SWAP2 SWAP1 PUSH2 0x3874 JUMP JUMPDEST PUSH1 0x20 PUSH1 0x40 MLOAD DUP1 DUP4 SUB DUP2 PUSH0 DUP8 GAS CALL ISZERO DUP1 ISZERO PUSH2 0x2C9D JUMPI RETURNDATASIZE PUSH0 PUSH0 RETURNDATACOPY RETURNDATASIZE PUSH0 REVERT JUMPDEST POP POP POP POP PUSH1 0x40 MLOAD RETURNDATASIZE PUSH1 0x1F NOT PUSH1 0x1F DUP3 ADD AND DUP3 ADD DUP1 PUSH1 0x40 MSTORE POP DUP2 ADD SWAP1 PUSH2 0x2CC1 SWAP2 SWAP1 PUSH2 0x3808 JUMP JUMPDEST PUSH2 0x2D06 JUMPI DUP5 DUP5 DUP5 PUSH1 0x40 MLOAD PUSH32 0xC877679800000000000000000000000000000000000000000000000000000000 DUP2 MSTORE PUSH1 0x4 ADD PUSH2 0x2CFD SWAP4 SWAP3 SWAP2 SWAP1 PUSH2 0x37A9 JUMP JUMPDEST PUSH1 0x40 MLOAD DUP1 SWAP2 SUB SWAP1 REVERT JUMPDEST POP POP POP POP POP JUMP JUMPDEST PUSH1 0x1 PUSH2 0x2D1F PUSH2 0x2D1A PUSH2 0x3078 JUMP JUMPDEST PUSH2 0x30A1 JUMP JUMPDEST PUSH0 ADD DUP2 SWAP1 SSTORE POP JUMP JUMPDEST PUSH2 0x2D2F PUSH2 0x30AA JUMP JUMPDEST PUSH20 0xFFFFFFFFFFFFFFFFFFFFFFFFFFFFFFFFFFFFFFFF AND PUSH2 0x2D4D PUSH2 0x1886 JUMP JUMPDEST PUSH20 0xFFFFFFFFFFFFFFFFFFFFFFFFFFFFFFFFFFFFFFFF AND EQ PUSH2 0x2DAC JUMPI PUSH2 0x2D70 PUSH2 0x30AA JUMP JUMPDEST PUSH1 0x40 MLOAD PUSH32 0x118CDAA700000000000000000000000000000000000000000000000000000000 DUP2 MSTORE PUSH1 0x4 ADD PUSH2 0x2DA3 SWAP2 SWAP1 PUSH2 0x32DD JUMP JUMPDEST PUSH1 0x40 MLOAD DUP1 SWAP2 SUB SWAP1 REVERT JUMPDEST JUMP JUMPDEST PUSH0 PUSH0 PUSH0 SWAP1 SLOAD SWAP1 PUSH2 0x100 EXP SWAP1 DIV PUSH20 0xFFFFFFFFFFFFFFFFFFFFFFFFFFFFFFFFFFFFFFFF AND SWAP1 POP DUP2 PUSH0 PUSH0 PUSH2 0x100 EXP DUP2 SLOAD DUP2 PUSH20 0xFFFFFFFFFFFFFFFFFFFFFFFFFFFFFFFFFFFFFFFF MUL NOT AND SWAP1 DUP4 PUSH20 0xFFFFFFFFFFFFFFFFFFFFFFFFFFFFFFFFFFFFFFFF AND MUL OR SWAP1 SSTORE POP DUP2 PUSH20 0xFFFFFFFFFFFFFFFFFFFFFFFFFFFFFFFFFFFFFFFF AND DUP2 PUSH20 0xFFFFFFFFFFFFFFFFFFFFFFFFFFFFFFFFFFFFFFFF AND PUSH32 0x8BE0079C531659141344CD1FD0A4F28419497F9722A3DAAFE3B4186F6B6457E0 PUSH1 0x40 MLOAD PUSH1 0x40 MLOAD DUP1 SWAP2 SUB SWAP1 LOG3 POP POP JUMP JUMPDEST PUSH0 PUSH0 PUSH1 0x1 PUSH0 DUP5 PUSH20 0xFFFFFFFFFFFFFFFFFFFFFFFFFFFFFFFFFFFFFFFF AND PUSH20 0xFFFFFFFFFFFFFFFFFFFFFFFFFFFFFFFFFFFFFFFF AND DUP2 MSTORE PUSH1 0x20 ADD SWAP1 DUP2 MSTORE PUSH1 0x20 ADD PUSH0 KECCAK256 PUSH1 0x3 ADD SLOAD GT SWAP1 POP SWAP2 SWAP1 POP JUMP JUMPDEST PUSH0 DUP2 PUSH20 0xFFFFFFFFFFFFFFFFFFFFFFFFFFFFFFFFFFFFFFFF AND PUSH1 0x1 PUSH0 DUP6 PUSH20 0xFFFFFFFFFFFFFFFFFFFFFFFFFFFFFFFFFFFFFFFF AND PUSH20 0xFFFFFFFFFFFFFFFFFFFFFFFFFFFFFFFFFFFFFFFF AND DUP2 MSTORE PUSH1 0x20 ADD SWAP1 DUP2 MSTORE PUSH1 0x20 ADD PUSH0 KECCAK256 PUSH1 0x2 ADD PUSH0 SWAP1 SLOAD SWAP1 PUSH2 0x100 EXP SWAP1 DIV PUSH20 0xFFFFFFFFFFFFFFFFFFFFFFFFFFFFFFFFFFFFFFFF AND PUSH20 0xFFFFFFFFFFFFFFFFFFFFFFFFFFFFFFFFFFFFFFFF AND EQ SWAP1 POP SWAP3 SWAP2 POP POP JUMP JUMPDEST PUSH0 DUP3 PUSH32 0xFFFFFFFFFFFFFFFFFFFFFFFFFFFFFFFFFFFFFFFFFFFFFFFFFFFFFFFFFFFFFFFF DIV DUP5 GT DUP4 MUL ISZERO DUP3 MUL PUSH2 0x2F84 JUMPI PUSH0 PUSH0 REVERT JUMPDEST DUP2 DUP4 DUP6 MUL DIV SWAP1 POP SWAP4 SWAP3 POP POP POP JUMP JUMPDEST PUSH0 PUSH2 0x2F9C DUP3 PUSH2 0x28FE JUMP JUMPDEST SWAP1 POP PUSH0 DUP2 PUSH1 0x2 ADD PUSH0 PUSH2 0x100 EXP DUP2 SLOAD DUP2 PUSH20 0xFFFFFFFFFFFFFFFFFFFFFFFFFFFFFFFFFFFFFFFF MUL NOT AND SWAP1 DUP4 PUSH20 0xFFFFFFFFFFFFFFFFFFFFFFFFFFFFFFFFFFFFFFFF AND MUL OR SWAP1 SSTORE POP PUSH0 DUP2 PUSH1 0x3 ADD DUP2 SWAP1 SSTORE POP PUSH0 DUP2 PUSH0 ADD PUSH0 PUSH2 0x100 EXP DUP2 SLOAD DUP2 PUSH20 0xFFFFFFFFFFFFFFFFFFFFFFFFFFFFFFFFFFFFFFFF MUL NOT AND SWAP1 DUP4 PUSH20 0xFFFFFFFFFFFFFFFFFFFFFFFFFFFFFFFFFFFFFFFF AND MUL OR SWAP1 SSTORE POP PUSH0 DUP2 PUSH1 0x1 ADD DUP2 SWAP1 SSTORE POP POP POP JUMP JUMPDEST PUSH2 0x303F PUSH2 0x30B1 JUMP JUMPDEST ISZERO PUSH2 0x3076 JUMPI PUSH1 0x40 MLOAD PUSH32 0x3EE5AEB500000000000000000000000000000000000000000000000000000000 DUP2 MSTORE PUSH1 0x4 ADD PUSH1 0x40 MLOAD DUP1 SWAP2 SUB SWAP1 REVERT JUMPDEST JUMP JUMPDEST PUSH0 PUSH32 0x9B779B17422D0DF92223018B32B4D1FA46E071723D6817E2486D003BECC55F00 PUSH0 SHL SWAP1 POP SWAP1 JUMP JUMPDEST PUSH0 DUP2 SWAP1 POP SWAP2 SWAP1 POP JUMP JUMPDEST PUSH0 CALLER SWAP1 POP SWAP1 JUMP JUMPDEST PUSH0 PUSH1 0x2 PUSH2 0x30C4 PUSH2 0x30BF PUSH2 0x3078 JUMP JUMPDEST PUSH2 0x30A1 JUMP JUMPDEST PUSH0 ADD SLOAD EQ SWAP1 POP SWAP1 JUMP JUMPDEST PUSH0 PUSH0 REVERT JUMPDEST PUSH0 PUSH20 0xFFFFFFFFFFFFFFFFFFFFFFFFFFFFFFFFFFFFFFFF DUP3 AND SWAP1 POP SWAP2 SWAP1 POP JUMP JUMPDEST PUSH0 PUSH2 0x30FA DUP3 PUSH2 0x30D1 JUMP JUMPDEST SWAP1 POP SWAP2 SWAP1 POP JUMP JUMPDEST PUSH2 0x310A DUP2 PUSH2 0x30F0 JUMP JUMPDEST DUP2 EQ PUSH2 0x3114 JUMPI PUSH0 PUSH0 REVERT JUMPDEST POP JUMP JUMPDEST PUSH0 DUP2 CALLDATALOAD SWAP1 POP PUSH2 0x3125 DUP2 PUSH2 0x3101 JUMP JUMPDEST SWAP3 SWAP2 POP POP JUMP JUMPDEST PUSH0 DUP2 SWAP1 POP SWAP2 SWAP1 POP JUMP JUMPDEST PUSH2 0x313D DUP2 PUSH2 0x312B JUMP JUMPDEST DUP2 EQ PUSH2 0x3147 JUMPI PUSH0 PUSH0 REVERT JUMPDEST POP JUMP JUMPDEST PUSH0 DUP2 CALLDATALOAD SWAP1 POP PUSH2 0x3158 DUP2 PUSH2 0x3134 JUMP JUMPDEST SWAP3 SWAP2 POP POP JUMP JUMPDEST PUSH0 PUSH0 PUSH1 0x40 DUP4 DUP6 SUB SLT ISZERO PUSH2 0x3174 JUMPI PUSH2 0x3173 PUSH2 0x30CD JUMP JUMPDEST JUMPDEST PUSH0 PUSH2 0x3181 DUP6 DUP3 DUP7 ADD PUSH2 0x3117 JUMP JUMPDEST SWAP3 POP POP PUSH1 0x20 PUSH2 0x3192 DUP6 DUP3 DUP7 ADD PUSH2 0x314A JUMP JUMPDEST SWAP2 POP POP SWAP3 POP SWAP3 SWAP1 POP JUMP JUMPDEST PUSH0 PUSH1 0x20 DUP3 DUP5 SUB SLT ISZERO PUSH2 0x31B1 JUMPI PUSH2 0x31B0 PUSH2 0x30CD JUMP JUMPDEST JUMPDEST PUSH0 PUSH2 0x31BE DUP5 DUP3 DUP6 ADD PUSH2 0x3117 JUMP JUMPDEST SWAP2 POP POP SWAP3 SWAP2 POP POP JUMP JUMPDEST PUSH2 0x31D0 DUP2 PUSH2 0x312B JUMP JUMPDEST DUP3 MSTORE POP POP JUMP JUMPDEST PUSH0 PUSH1 0x20 DUP3 ADD SWAP1 POP PUSH2 0x31E9 PUSH0 DUP4 ADD DUP5 PUSH2 0x31C7 JUMP JUMPDEST SWAP3 SWAP2 POP POP JUMP JUMPDEST PUSH0 PUSH1 0x20 DUP3 DUP5 SUB SLT ISZERO PUSH2 0x3204 JUMPI PUSH2 0x3203 PUSH2 0x30CD JUMP JUMPDEST JUMPDEST PUSH0 PUSH2 0x3211 DUP5 DUP3 DUP6 ADD PUSH2 0x314A JUMP JUMPDEST SWAP2 POP POP SWAP3 SWAP2 POP POP JUMP JUMPDEST PUSH0 PUSH0 PUSH1 0x40 DUP4 DUP6 SUB SLT ISZERO PUSH2 0x3230 JUMPI PUSH2 0x322F PUSH2 0x30CD JUMP JUMPDEST JUMPDEST PUSH0 PUSH2 0x323D DUP6 DUP3 DUP7 ADD PUSH2 0x3117 JUMP JUMPDEST SWAP3 POP POP PUSH1 0x20 PUSH2 0x324E DUP6 DUP3 DUP7 ADD PUSH2 0x3117 JUMP JUMPDEST SWAP2 POP POP SWAP3 POP SWAP3 SWAP1 POP JUMP JUMPDEST PUSH0 DUP2 ISZERO ISZERO SWAP1 POP SWAP2 SWAP1 POP JUMP JUMPDEST PUSH2 0x326C DUP2 PUSH2 0x3258 JUMP JUMPDEST DUP3 MSTORE POP POP JUMP JUMPDEST PUSH0 PUSH1 0x20 DUP3 ADD SWAP1 POP PUSH2 0x3285 PUSH0 DUP4 ADD DUP5 PUSH2 0x3263 JUMP JUMPDEST SWAP3 SWAP2 POP POP JUMP JUMPDEST PUSH2 0x3294 DUP2 PUSH2 0x30F0 JUMP JUMPDEST DUP3 MSTORE POP POP JUMP JUMPDEST PUSH0 PUSH1 0x80 DUP3 ADD SWAP1 POP PUSH2 0x32AD PUSH0 DUP4 ADD DUP8 PUSH2 0x328B JUMP JUMPDEST PUSH2 0x32BA PUSH1 0x20 DUP4 ADD DUP7 PUSH2 0x31C7 JUMP JUMPDEST PUSH2 0x32C7 PUSH1 0x40 DUP4 ADD DUP6 PUSH2 0x328B JUMP JUMPDEST PUSH2 0x32D4 PUSH1 0x60 DUP4 ADD DUP5 PUSH2 0x31C7 JUMP JUMPDEST SWAP6 SWAP5 POP POP POP POP POP JUMP JUMPDEST PUSH0 PUSH1 0x20 DUP3 ADD SWAP1 POP PUSH2 0x32F0 PUSH0 DUP4 ADD DUP5 PUSH2 0x328B JUMP JUMPDEST SWAP3 SWAP2 POP POP JUMP JUMPDEST PUSH0 PUSH1 0x40 DUP3 ADD SWAP1 POP PUSH2 0x3309 PUSH0 DUP4 ADD DUP6 PUSH2 0x31C7 JUMP JUMPDEST PUSH2 0x3316 PUSH1 0x20 DUP4 ADD DUP5 PUSH2 0x31C7 JUMP JUMPDEST SWAP4 SWAP3 POP POP POP JUMP JUMPDEST PUSH32 0x4E487B7100000000000000000000000000000000000000000000000000000000 PUSH0 MSTORE PUSH1 0x11 PUSH1 0x4 MSTORE PUSH1 0x24 PUSH0 REVERT JUMPDEST PUSH0 PUSH2 0x3354 DUP3 PUSH2 0x312B JUMP JUMPDEST SWAP2 POP PUSH2 0x335F DUP4 PUSH2 0x312B JUMP JUMPDEST SWAP3 POP DUP3 DUP3 ADD SWAP1 POP DUP1 DUP3 GT ISZERO PUSH2 0x3377 JUMPI PUSH2 0x3376 PUSH2 0x331D JUMP JUMPDEST JUMPDEST SWAP3 SWAP2 POP POP JUMP JUMPDEST PUSH0 PUSH2 0x3387 DUP3 PUSH2 0x312B JUMP JUMPDEST SWAP2 POP PUSH2 0x3392 DUP4 PUSH2 0x312B JUMP JUMPDEST SWAP3 POP DUP3 DUP3 SUB SWAP1 POP DUP2 DUP2 GT ISZERO PUSH2 0x33AA JUMPI PUSH2 0x33A9 PUSH2 0x331D JUMP JUMPDEST JUMPDEST SWAP3 SWAP2 POP POP JUMP JUMPDEST PUSH32 0x4E487B7100000000000000000000000000000000000000000000000000000000 PUSH0 MSTORE PUSH1 0x32 PUSH1 0x4 MSTORE PUSH1 0x24 PUSH0 REVERT JUMPDEST PUSH32 0x4E487B7100000000000000000000000000000000000000000000000000000000 PUSH0 MSTORE PUSH1 0x31 PUSH1 0x4 MSTORE PUSH1 0x24 PUSH0 REVERT JUMPDEST PUSH0 PUSH10 0xFFFFFFFFFFFFFFFFFFFF DUP3 AND SWAP1 POP SWAP2 SWAP1 POP JUMP JUMPDEST PUSH2 0x3428 DUP2 PUSH2 0x340A JUMP JUMPDEST DUP2 EQ PUSH2 0x3432 JUMPI PUSH0 PUSH0 REVERT JUMPDEST POP JUMP JUMPDEST PUSH0 DUP2 MLOAD SWAP1 POP PUSH2 0x3443 DUP2 PUSH2 0x341F JUMP JUMPDEST SWAP3 SWAP2 POP POP JUMP JUMPDEST PUSH0 DUP2 SWAP1 POP SWAP2 SWAP1 POP JUMP JUMPDEST PUSH2 0x345B DUP2 PUSH2 0x3449 JUMP JUMPDEST DUP2 EQ PUSH2 0x3465 JUMPI PUSH0 PUSH0 REVERT JUMPDEST POP JUMP JUMPDEST PUSH0 DUP2 MLOAD SWAP1 POP PUSH2 0x3476 DUP2 PUSH2 0x3452 JUMP JUMPDEST SWAP3 SWAP2 POP POP JUMP JUMPDEST PUSH0 DUP2 MLOAD SWAP1 POP PUSH2 0x348A DUP2 PUSH2 0x3134 JUMP JUMPDEST SWAP3 SWAP2 POP POP JUMP JUMPDEST PUSH0 PUSH0 PUSH0 PUSH0 PUSH0 PUSH1 0xA0 DUP7 DUP9 SUB SLT ISZERO PUSH2 0x34A9 JUMPI PUSH2 0x34A8 PUSH2 0x30CD JUMP JUMPDEST JUMPDEST PUSH0 PUSH2 0x34B6 DUP9 DUP3 DUP10 ADD PUSH2 0x3435 JUMP JUMPDEST SWAP6 POP POP PUSH1 0x20 PUSH2 0x34C7 DUP9 DUP3 DUP10 ADD PUSH2 0x3468 JUMP JUMPDEST SWAP5 POP POP PUSH1 0x40 PUSH2 0x34D8 DUP9 DUP3 DUP10 ADD PUSH2 0x347C JUMP JUMPDEST SWAP4 POP POP PUSH1 0x60 PUSH2 0x34E9 DUP9 DUP3 DUP10 ADD PUSH2 0x347C JUMP JUMPDEST SWAP3 POP POP PUSH1 0x80 PUSH2 0x34FA DUP9 DUP3 DUP10 ADD PUSH2 0x3435 JUMP JUMPDEST SWAP2 POP POP SWAP3 SWAP6 POP SWAP3 SWAP6 SWAP1 SWAP4 POP JUMP JUMPDEST PUSH2 0x3510 DUP2 PUSH2 0x3449 JUMP JUMPDEST DUP3 MSTORE POP POP JUMP JUMPDEST PUSH0 PUSH1 0x20 DUP3 ADD SWAP1 POP PUSH2 0x3529 PUSH0 DUP4 ADD DUP5 PUSH2 0x3507 JUMP JUMPDEST SWAP3 SWAP2 POP POP JUMP JUMPDEST PUSH0 PUSH1 0xFF DUP3 AND SWAP1 POP SWAP2 SWAP1 POP JUMP JUMPDEST PUSH2 0x3544 DUP2 PUSH2 0x352F JUMP JUMPDEST DUP2 EQ PUSH2 0x354E JUMPI PUSH0 PUSH0 REVERT JUMPDEST POP JUMP JUMPDEST PUSH0 DUP2 MLOAD SWAP1 POP PUSH2 0x355F DUP2 PUSH2 0x353B JUMP JUMPDEST SWAP3 SWAP2 POP POP JUMP JUMPDEST PUSH0 PUSH1 0x20 DUP3 DUP5 SUB SLT ISZERO PUSH2 0x357A JUMPI PUSH2 0x3579 PUSH2 0x30CD JUMP JUMPDEST JUMPDEST PUSH0 PUSH2 0x3587 DUP5 DUP3 DUP6 ADD PUSH2 0x3551 JUMP JUMPDEST SWAP2 POP POP SWAP3 SWAP2 POP POP JUMP JUMPDEST PUSH0 PUSH2 0x359A DUP3 PUSH2 0x352F JUMP JUMPDEST SWAP2 POP PUSH2 0x35A5 DUP4 PUSH2 0x352F JUMP JUMPDEST SWAP3 POP DUP3 DUP3 SUB SWAP1 POP PUSH1 0xFF DUP2 GT ISZERO PUSH2 0x35BE JUMPI PUSH2 0x35BD PUSH2 0x331D JUMP JUMPDEST JUMPDEST SWAP3 SWAP2 POP POP JUMP JUMPDEST PUSH0 DUP2 PUSH1 0x1 SHR SWAP1 POP SWAP2 SWAP1 POP JUMP JUMPDEST PUSH0 PUSH0 DUP3 SWAP2 POP DUP4 SWAP1 POP JUMPDEST PUSH1 0x1 DUP6 GT ISZERO PUSH2 0x3619 JUMPI DUP1 DUP7 DIV DUP2 GT ISZERO PUSH2 0x35F5 JUMPI PUSH2 0x35F4 PUSH2 0x331D JUMP JUMPDEST JUMPDEST PUSH1 0x1 DUP6 AND ISZERO PUSH2 0x3604 JUMPI DUP1 DUP3 MUL SWAP2 POP JUMPDEST DUP1 DUP2 MUL SWAP1 POP PUSH2 0x3612 DUP6 PUSH2 0x35C4 JUMP JUMPDEST SWAP5 POP PUSH2 0x35D9 JUMP JUMPDEST SWAP5 POP SWAP5 SWAP3 POP POP POP JUMP JUMPDEST PUSH0 DUP3 PUSH2 0x3631 JUMPI PUSH1 0x1 SWAP1 POP PUSH2 0x36EC JUMP JUMPDEST DUP2 PUSH2 0x363E JUMPI PUSH0 SWAP1 POP PUSH2 0x36EC JUMP JUMPDEST DUP2 PUSH1 0x1 DUP2 EQ PUSH2 0x3654 JUMPI PUSH1 0x2 DUP2 EQ PUSH2 0x365E JUMPI PUSH2 0x368D JUMP JUMPDEST PUSH1 0x1 SWAP2 POP POP PUSH2 0x36EC JUMP JUMPDEST PUSH1 0xFF DUP5 GT ISZERO PUSH2 0x3670 JUMPI PUSH2 0x366F PUSH2 0x331D JUMP JUMPDEST JUMPDEST DUP4 PUSH1 0x2 EXP SWAP2 POP DUP5 DUP3 GT ISZERO PUSH2 0x3687 JUMPI PUSH2 0x3686 PUSH2 0x331D JUMP JUMPDEST JUMPDEST POP PUSH2 0x36EC JUMP JUMPDEST POP PUSH1 0x20 DUP4 LT PUSH2 0x133 DUP4 LT AND PUSH1 0x4E DUP5 LT PUSH1 0xB DUP5 LT AND OR ISZERO PUSH2 0x36C2 JUMPI DUP3 DUP3 EXP SWAP1 POP DUP4 DUP2 GT ISZERO PUSH2 0x36BD JUMPI PUSH2 0x36BC PUSH2 0x331D JUMP JUMPDEST JUMPDEST PUSH2 0x36EC JUMP JUMPDEST PUSH2 0x36CF DUP5 DUP5 DUP5 PUSH1 0x1 PUSH2 0x35D0 JUMP JUMPDEST SWAP3 POP SWAP1 POP DUP2 DUP5 DIV DUP2 GT ISZERO PUSH2 0x36E6 JUMPI PUSH2 0x36E5 PUSH2 0x331D JUMP JUMPDEST JUMPDEST DUP2 DUP2 MUL SWAP1 POP JUMPDEST SWAP4 SWAP3 POP POP POP JUMP JUMPDEST PUSH0 PUSH2 0x36FD DUP3 PUSH2 0x312B JUMP JUMPDEST SWAP2 POP PUSH2 0x3708 DUP4 PUSH2 0x352F JUMP JUMPDEST SWAP3 POP PUSH2 0x3735 PUSH32 0xFFFFFFFFFFFFFFFFFFFFFFFFFFFFFFFFFFFFFFFFFFFFFFFFFFFFFFFFFFFFFFFF DUP5 DUP5 PUSH2 0x3622 JUMP JUMPDEST SWAP1 POP SWAP3 SWAP2 POP POP JUMP JUMPDEST PUSH0 PUSH2 0x3747 DUP3 PUSH2 0x312B JUMP JUMPDEST SWAP2 POP PUSH2 0x3752 DUP4 PUSH2 0x312B JUMP JUMPDEST SWAP3 POP DUP3 DUP3 MUL PUSH2 0x3760 DUP2 PUSH2 0x312B JUMP JUMPDEST SWAP2 POP DUP3 DUP3 DIV DUP5 EQ DUP4 ISZERO OR PUSH2 0x3777 JUMPI PUSH2 0x3776 PUSH2 0x331D JUMP JUMPDEST JUMPDEST POP SWAP3 SWAP2 POP POP JUMP JUMPDEST PUSH0 PUSH1 0x20 DUP3 DUP5 SUB SLT ISZERO PUSH2 0x3793 JUMPI PUSH2 0x3792 PUSH2 0x30CD JUMP JUMPDEST JUMPDEST PUSH0 PUSH2 0x37A0 DUP5 DUP3 DUP6 ADD PUSH2 0x347C JUMP JUMPDEST SWAP2 POP POP SWAP3 SWAP2 POP POP JUMP JUMPDEST PUSH0 PUSH1 0x60 DUP3 ADD SWAP1 POP PUSH2 0x37BC PUSH0 DUP4 ADD DUP7 PUSH2 0x328B JUMP JUMPDEST PUSH2 0x37C9 PUSH1 0x20 DUP4 ADD DUP6 PUSH2 0x328B JUMP JUMPDEST PUSH2 0x37D6 PUSH1 0x40 DUP4 ADD DUP5 PUSH2 0x31C7 JUMP JUMPDEST SWAP5 SWAP4 POP POP POP POP JUMP JUMPDEST PUSH2 0x37E7 DUP2 PUSH2 0x3258 JUMP JUMPDEST DUP2 EQ PUSH2 0x37F1 JUMPI PUSH0 PUSH0 REVERT JUMPDEST POP JUMP JUMPDEST PUSH0 DUP2 MLOAD SWAP1 POP PUSH2 0x3802 DUP2 PUSH2 0x37DE JUMP JUMPDEST SWAP3 SWAP2 POP POP JUMP JUMPDEST PUSH0 PUSH1 0x20 DUP3 DUP5 SUB SLT ISZERO PUSH2 0x381D JUMPI PUSH2 0x381C PUSH2 0x30CD JUMP JUMPDEST JUMPDEST PUSH0 PUSH2 0x382A DUP5 DUP3 DUP6 ADD PUSH2 0x37F4 JUMP JUMPDEST SWAP2 POP POP SWAP3 SWAP2 POP POP JUMP JUMPDEST PUSH0 DUP2 SWAP1 POP SWAP3 SWAP2 POP POP JUMP JUMPDEST POP JUMP JUMPDEST PUSH0 PUSH2 0x384B PUSH0 DUP4 PUSH2 0x3833 JUMP JUMPDEST SWAP2 POP PUSH2 0x3856 DUP3 PUSH2 0x383D JUMP JUMPDEST PUSH0 DUP3 ADD SWAP1 POP SWAP2 SWAP1 POP JUMP JUMPDEST PUSH0 PUSH2 0x386A DUP3 PUSH2 0x3840 JUMP JUMPDEST SWAP2 POP DUP2 SWAP1 POP SWAP2 SWAP1 POP JUMP JUMPDEST PUSH0 PUSH1 0x40 DUP3 ADD SWAP1 POP PUSH2 0x3887 PUSH0 DUP4 ADD DUP6 PUSH2 0x328B JUMP JUMPDEST PUSH2 0x3894 PUSH1 0x20 DUP4 ADD DUP5 PUSH2 0x31C7 JUMP JUMPDEST SWAP4 SWAP3 POP POP POP JUMP INVALID LOG2 PUSH5 0x6970667358 0x22 SLT KECCAK256 DUP13 DELEGATECALL PREVRANDAO DUP13 0x2E SELFBALANCE 0xBD 0xDC 0xC7 STATICCALL PUSH22 0xC1609F14DE5754F72251322E146FB51708E06D108B64 PUSH20 0x6F6C634300081E00330000000000000000000000 "
				},
				"gasEstimates": {
					"creation": {
						"codeDepositCost": "2909000",
						"executionCost": "infinite",
						"totalCost": "infinite"
					},
					"external": {
						"": "240",
						"ETH_ADDRESS()": "418",
						"approveToken(address)": "infinite",
						"approvedTokenList(uint256)": "5033",
						"approvedTokens(address)": "2878",
						"borrowAsset(address,uint256)": "infinite",
						"getApprovedTokensCount()": "2508",
						"getContractEthBalance()": "424",
						"getContractsTokenBalance(address)": "infinite",
						"getLatestPrice(address)": "infinite",
						"getUsdValue(address,uint256)": "infinite",
						"getUser(address)": "infinite",
						"isTokenApproved(address)": "infinite",
						"liquidate(address,uint256)": "infinite",
						"owner()": "2581",
						"priceFeeds(address)": "infinite",
						"renounceOwnership()": "infinite",
						"repayAsset(address,uint256)": "infinite",
						"revokeTokenApproval(address)": "infinite",
						"setFeed(address,address)": "infinite",
						"setLiquidationBonus(uint256)": "infinite",
						"setltv(uint256)": "infinite",
						"stakeEth()": "infinite",
						"tokenIndex(address)": "2848",
						"transferOwnership(address)": "infinite",
						"users(address)": "infinite",
						"withdrawCollateralEth(uint256)": "infinite"
					},
					"internal": {
						"_activePosition(address)": "2232",
						"_borrowableAmount(address,address)": "infinite",
						"_default(address)": "58738",
						"_getTokenDecimals(address)": "infinite",
						"_hasCollateral(address)": "2232",
						"_poolTransfer(address,address,uint256)": "infinite",
						"_repayWithBorrowedAsset(address,address)": "2282",
						"_user(address)": "121"
					}
				},
				"methodIdentifiers": {
					"ETH_ADDRESS()": "a734f06e",
					"approveToken(address)": "80b2edd8",
					"approvedTokenList(uint256)": "9776f4a5",
					"approvedTokens(address)": "6d1ea3fa",
					"borrowAsset(address,uint256)": "0f07645a",
					"getApprovedTokensCount()": "4bb55d5c",
					"getContractEthBalance()": "4de57d75",
					"getContractsTokenBalance(address)": "3e4e1c27",
					"getLatestPrice(address)": "16345f18",
					"getUsdValue(address,uint256)": "c660d112",
					"getUser(address)": "6f77926b",
					"isTokenApproved(address)": "9d93d352",
					"liquidate(address,uint256)": "bcbaf487",
					"owner()": "8da5cb5b",
					"priceFeeds(address)": "9dcb511a",
					"renounceOwnership()": "715018a6",
					"repayAsset(address,uint256)": "b8bc9cab",
					"revokeTokenApproval(address)": "15c92678",
					"setFeed(address,address)": "40b1eb10",
					"setLiquidationBonus(uint256)": "28842d4f",
					"setltv(uint256)": "88d595db",
					"stakeEth()": "7a5f0dc4",
					"tokenIndex(address)": "427f91a6",
					"transferOwnership(address)": "f2fde38b",
					"users(address)": "a87430ba",
					"withdrawCollateralEth(uint256)": "e1bf0a4b"
				}
			},
			"storageLayout": {
				"storage": [
					{
						"astId": 8,
						"contract": "src/contracts/MiniLend.sol:MiniLend",
						"label": "_owner",
						"offset": 0,
						"slot": "0",
						"type": "t_address"
					},
					{
						"astId": 904,
						"contract": "src/contracts/MiniLend.sol:MiniLend",
						"label": "users",
						"offset": 0,
						"slot": "1",
						"type": "t_mapping(t_address,t_struct(User)899_storage)"
					},
					{
						"astId": 908,
						"contract": "src/contracts/MiniLend.sol:MiniLend",
						"label": "priceFeeds",
						"offset": 0,
						"slot": "2",
						"type": "t_mapping(t_address,t_address)"
					},
					{
						"astId": 912,
						"contract": "src/contracts/MiniLend.sol:MiniLend",
						"label": "approvedTokens",
						"offset": 0,
						"slot": "3",
						"type": "t_mapping(t_address,t_bool)"
					},
					{
						"astId": 916,
						"contract": "src/contracts/MiniLend.sol:MiniLend",
						"label": "tokenIndex",
						"offset": 0,
						"slot": "4",
						"type": "t_mapping(t_address,t_uint256)"
					},
					{
						"astId": 919,
						"contract": "src/contracts/MiniLend.sol:MiniLend",
						"label": "approvedTokenList",
						"offset": 0,
						"slot": "5",
						"type": "t_array(t_address)dyn_storage"
					},
					{
						"astId": 922,
						"contract": "src/contracts/MiniLend.sol:MiniLend",
						"label": "ltv",
						"offset": 0,
						"slot": "6",
						"type": "t_uint256"
					},
					{
						"astId": 925,
						"contract": "src/contracts/MiniLend.sol:MiniLend",
						"label": "closeFactor",
						"offset": 0,
						"slot": "7",
						"type": "t_uint256"
					},
					{
						"astId": 928,
						"contract": "src/contracts/MiniLend.sol:MiniLend",
						"label": "liquidationBonus",
						"offset": 0,
						"slot": "8",
						"type": "t_uint256"
					}
				],
				"types": {
					"t_address": {
						"encoding": "inplace",
						"label": "address",
						"numberOfBytes": "20"
					},
					"t_array(t_address)dyn_storage": {
						"base": "t_address",
						"encoding": "dynamic_array",
						"label": "address[]",
						"numberOfBytes": "32"
					},
					"t_bool": {
						"encoding": "inplace",
						"label": "bool",
						"numberOfBytes": "1"
					},
					"t_mapping(t_address,t_address)": {
						"encoding": "mapping",
						"key": "t_address",
						"label": "mapping(address => address)",
						"numberOfBytes": "32",
						"value": "t_address"
					},
					"t_mapping(t_address,t_bool)": {
						"encoding": "mapping",
						"key": "t_address",
						"label": "mapping(address => bool)",
						"numberOfBytes": "32",
						"value": "t_bool"
					},
					"t_mapping(t_address,t_struct(User)899_storage)": {
						"encoding": "mapping",
						"key": "t_address",
						"label": "mapping(address => struct MiniLend.User)",
						"numberOfBytes": "32",
						"value": "t_struct(User)899_storage"
					},
					"t_mapping(t_address,t_uint256)": {
						"encoding": "mapping",
						"key": "t_address",
						"label": "mapping(address => uint256)",
						"numberOfBytes": "32",
						"value": "t_uint256"
					},
					"t_struct(User)899_storage": {
						"encoding": "inplace",
						"label": "struct MiniLend.User",
						"members": [
							{
								"astId": 892,
								"contract": "src/contracts/MiniLend.sol:MiniLend",
								"label": "stakedAsset",
								"offset": 0,
								"slot": "0",
								"type": "t_address"
							},
							{
								"astId": 894,
								"contract": "src/contracts/MiniLend.sol:MiniLend",
								"label": "stakedAmount",
								"offset": 0,
								"slot": "1",
								"type": "t_uint256"
							},
							{
								"astId": 896,
								"contract": "src/contracts/MiniLend.sol:MiniLend",
								"label": "borrowedAsset",
								"offset": 0,
								"slot": "2",
								"type": "t_address"
							},
							{
								"astId": 898,
								"contract": "src/contracts/MiniLend.sol:MiniLend",
								"label": "borrowedAssetAmount",
								"offset": 0,
								"slot": "3",
								"type": "t_uint256"
							}
						],
						"numberOfBytes": "128"
					},
					"t_uint256": {
						"encoding": "inplace",
						"label": "uint256",
						"numberOfBytes": "32"
					}
				}
			},
			"userdoc": {
				"kind": "user",
				"methods": {
					"borrowAsset(address,uint256)": {
						"notice": "Borrow a supported token from the pool. `amount` is token units (assumed 18-dec)."
					},
					"getUser(address)": {
						"notice": "Returns user info as a memory copy for frontend/UI consumption."
					},
					"liquidate(address,uint256)": {
						"notice": "Liquidate an undercollateralized position."
					},
					"repayAsset(address,uint256)": {
						"notice": "Repay borrowed token. amount is token units (18-dec)"
					},
					"stakeEth()": {
						"notice": "Stake ETH as collateral"
					}
				},
				"version": 1
			}
		}
	}
}