{
	"data": {
		"bytecode": {
			"linkReferences": {},
			"object": "608060405273eeeeeeeeeeeeeeeeeeeeeeeeeeeeeeeeeeeeeeee60075f6101000a81548173ffffffffffffffffffffffffffffffffffffffff021916908373ffffffffffffffffffffffffffffffffffffffff1602179055506113886008556101f460095534801561006f575f5ffd5b503360015f819055505f73ffffffffffffffffffffffffffffffffffffffff168173ffffffffffffffffffffffffffffffffffffffff16036100e8575f6040517f1e4fbdf70000000000000000000000000000000000000000000000000000000081526004016100df91906101ff565b60405180910390fd5b6100f7816100fd60201b60201c565b50610218565b5f60015f9054906101000a900473ffffffffffffffffffffffffffffffffffffffff1690508160015f6101000a81548173ffffffffffffffffffffffffffffffffffffffff021916908373ffffffffffffffffffffffffffffffffffffffff1602179055508173ffffffffffffffffffffffffffffffffffffffff168173ffffffffffffffffffffffffffffffffffffffff167f8be0079c531659141344cd1fd0a4f28419497f9722a3daafe3b4186f6b6457e060405160405180910390a35050565b5f73ffffffffffffffffffffffffffffffffffffffff82169050919050565b5f6101e9826101c0565b9050919050565b6101f9816101df565b82525050565b5f6020820190506102125f8301846101f0565b92915050565b613790806102255f395ff3fe608060405260043610610169575f3560e01c80637a5f0dc4116100d0578063a37e52e311610089578063bcbaf48711610063578063bcbaf48714610544578063c660d1121461056c578063e1bf0a4b146105a8578063f2fde38b146105d05761016a565b8063a37e52e3146104b5578063a87430ba146104dd578063b8bc9cab1461051c5761016a565b80637a5f0dc4146103a557806380b2edd8146103af5780638da5cb5b146103d75780639776f4a5146104015780639d93d3521461043d5780639dcb511a146104795761016a565b8063427f91a611610122578063427f91a6146102845780634bb55d5c146102c05780634de57d75146102ea5780636d1ea3fa146103145780636f77926b14610350578063715018a61461038f5761016a565b80630f07645a1461016c57806315c926781461019457806316345f18146101bc57806328842d4f146101f85780633e4e1c271461022057806340b1eb101461025c5761016a565b5b005b348015610177575f5ffd5b50610192600480360381019061018d9190612efe565b6105f8565b005b34801561019f575f5ffd5b506101ba60048036038101906101b59190612f3c565b610852565b005b3480156101c7575f5ffd5b506101e260048036038101906101dd9190612f3c565b610bb1565b6040516101ef9190612f76565b60405180910390f35b348015610203575f5ffd5b5061021e60048036038101906102199190612f8f565b610f45565b005b34801561022b575f5ffd5b5061024660048036038101906102419190612f3c565b611010565b6040516102539190612f76565b60405180910390f35b348015610267575f5ffd5b50610282600480360381019061027d9190612fba565b611107565b005b34801561028f575f5ffd5b506102aa60048036038101906102a59190612f3c565b6112cc565b6040516102b79190612f76565b60405180910390f35b3480156102cb575f5ffd5b506102d46112e1565b6040516102e19190612f76565b60405180910390f35b3480156102f5575f5ffd5b506102fe6112ed565b60405161030b9190612f76565b60405180910390f35b34801561031f575f5ffd5b5061033a60048036038101906103359190612f3c565b6112f4565b6040516103479190613012565b60405180910390f35b34801561035b575f5ffd5b5061037660048036038101906103719190612f3c565b611311565b604051610386949392919061303a565b60405180910390f35b34801561039a575f5ffd5b506103a36113b6565b005b6103ad6113c9565b005b3480156103ba575f5ffd5b506103d560048036038101906103d09190612f3c565b6114db565b005b3480156103e2575f5ffd5b506103eb611723565b6040516103f8919061307d565b60405180910390f35b34801561040c575f5ffd5b5061042760048036038101906104229190612f8f565b61174b565b604051610434919061307d565b60405180910390f35b348015610448575f5ffd5b50610463600480360381019061045e9190612f3c565b611786565b6040516104709190613012565b60405180910390f35b348015610484575f5ffd5b5061049f600480360381019061049a9190612f3c565b61184a565b6040516104ac919061307d565b60405180910390f35b3480156104c0575f5ffd5b506104db60048036038101906104d69190612f8f565b61187a565b005b3480156104e8575f5ffd5b5061050360048036038101906104fe9190612f3c565b61195b565b604051610513949392919061303a565b60405180910390f35b348015610527575f5ffd5b50610542600480360381019061053d9190612efe565b6119c5565b005b34801561054f575f5ffd5b5061056a60048036038101906105659190612efe565b611dfd565b005b348015610577575f5ffd5b50610592600480360381019061058d9190612efe565b6122d6565b60405161059f9190612f76565b60405180910390f35b3480156105b3575f5ffd5b506105ce60048036038101906105c99190612f8f565b612351565b005b3480156105db575f5ffd5b506105f660048036038101906105f19190612f3c565b612573565b005b6106006125f7565b815f73ffffffffffffffffffffffffffffffffffffffff168173ffffffffffffffffffffffffffffffffffffffff160361067157806040517f8e4c8aa6000000000000000000000000000000000000000000000000000000008152600401610668919061307d565b60405180910390fd5b815f81036106ab576040517f2c5211c600000000000000000000000000000000000000000000000000000000815260040160405180910390fd5b8360045f8273ffffffffffffffffffffffffffffffffffffffff1673ffffffffffffffffffffffffffffffffffffffff1681526020019081526020015f205f9054906101000a900460ff1661073757806040517f87921f5a00000000000000000000000000000000000000000000000000000000815260040161072e919061307d565b60405180910390fd5b5f61074133612644565b905061074c33612689565b610782576040517fb016be5e00000000000000000000000000000000000000000000000000000000815260040160405180910390fd5b61078c33876126d4565b5084816003015f8282546107a091906130c3565b9250508190555085816002015f6101000a81548173ffffffffffffffffffffffffffffffffffffffff021916908373ffffffffffffffffffffffffffffffffffffffff1602179055506107f48633876128f4565b3373ffffffffffffffffffffffffffffffffffffffff167f5abc9a9c4616711eb03d720e050325118645a3695a5e75b5b10a29e2e217fe038660405161083a9190612f76565b60405180910390a25050505061084e612a86565b5050565b61085a612a8f565b805f73ffffffffffffffffffffffffffffffffffffffff168173ffffffffffffffffffffffffffffffffffffffff16036108cb57806040517f8e4c8aa60000000000000000000000000000000000000000000000000000000081526004016108c2919061307d565b60405180910390fd5b60045f8373ffffffffffffffffffffffffffffffffffffffff1673ffffffffffffffffffffffffffffffffffffffff1681526020019081526020015f205f9054906101000a900460ff1661095657816040517f87921f5a00000000000000000000000000000000000000000000000000000000815260040161094d919061307d565b60405180910390fd5b5f60045f8473ffffffffffffffffffffffffffffffffffffffff1673ffffffffffffffffffffffffffffffffffffffff1681526020019081526020015f205f6101000a81548160ff0219169083151502179055505f60055f8473ffffffffffffffffffffffffffffffffffffffff1673ffffffffffffffffffffffffffffffffffffffff1681526020019081526020015f205490505f60016006805490506109fe91906130f6565b90505f60068281548110610a1557610a14613129565b5b905f5260205f20015f9054906101000a900473ffffffffffffffffffffffffffffffffffffffff169050818314610ae3578060068481548110610a5b57610a5a613129565b5b905f5260205f20015f6101000a81548173ffffffffffffffffffffffffffffffffffffffff021916908373ffffffffffffffffffffffffffffffffffffffff1602179055508260055f8373ffffffffffffffffffffffffffffffffffffffff1673ffffffffffffffffffffffffffffffffffffffff1681526020019081526020015f20819055505b6006805480610af557610af4613156565b5b600190038181905f5260205f20015f6101000a81549073ffffffffffffffffffffffffffffffffffffffff0219169055905560055f8673ffffffffffffffffffffffffffffffffffffffff1673ffffffffffffffffffffffffffffffffffffffff1681526020019081526020015f205f90558473ffffffffffffffffffffffffffffffffffffffff167f45f62f30e7b8439e0da7d8e560fe39d01238091ce9e789e3d12b514edf98acea60405160405180910390a25050505050565b5f815f73ffffffffffffffffffffffffffffffffffffffff168173ffffffffffffffffffffffffffffffffffffffff1603610c2357806040517f8e4c8aa6000000000000000000000000000000000000000000000000000000008152600401610c1a919061307d565b60405180910390fd5b5f60035f8573ffffffffffffffffffffffffffffffffffffffff1673ffffffffffffffffffffffffffffffffffffffff1681526020019081526020015f205f9054906101000a900473ffffffffffffffffffffffffffffffffffffffff1690505f73ffffffffffffffffffffffffffffffffffffffff168173ffffffffffffffffffffffffffffffffffffffff1603610cf357806040517f8e4c8aa6000000000000000000000000000000000000000000000000000000008152600401610cea919061307d565b60405180910390fd5b5f8190505f5f5f5f8473ffffffffffffffffffffffffffffffffffffffff1663feaf968c6040518163ffffffff1660e01b815260040160a060405180830381865afa158015610d44573d5f5f3e3d5ffd5b505050506040513d601f19601f82011682018060405250810190610d689190613209565b9450945050935093505f8313610db557826040517fb4e8ae11000000000000000000000000000000000000000000000000000000008152600401610dac919061328f565b60405180910390fd5b8369ffffffffffffffffffff168169ffffffffffffffffffff161015610e07576040517feb8eec2e00000000000000000000000000000000000000000000000000000000815260040160405180910390fd5b5f821480610e225750610e108242610e1f91906130f6565b10155b15610e6457816040517f3b90dd8b000000000000000000000000000000000000000000000000000000008152600401610e5b9190612f76565b60405180910390fd5b5f8573ffffffffffffffffffffffffffffffffffffffff1663313ce5676040518163ffffffff1660e01b8152600401602060405180830381865afa158015610eae573d5f5f3e3d5ffd5b505050506040513d601f19601f82011682018060405250810190610ed291906132de565b60ff1690506012811115610f12576040517fd25598a000000000000000000000000000000000000000000000000000000000815260040160405180910390fd5b806012610f1f91906130f6565b600a610f2b9190613438565b84610f369190613482565b98505050505050505050919050565b610f4d612a8f565b805f8103610f87576040517f2c5211c600000000000000000000000000000000000000000000000000000000815260040160405180910390fd5b612710821115610fce57816040517f45c57aac000000000000000000000000000000000000000000000000000000008152600401610fc59190612f76565b60405180910390fd5b816009819055507f04a7ca0e55f887a637b560614f621b92b79423e20152fea70bc4be66edaee3d6826040516110049190612f76565b60405180910390a15050565b5f815f73ffffffffffffffffffffffffffffffffffffffff168173ffffffffffffffffffffffffffffffffffffffff160361108257806040517f8e4c8aa6000000000000000000000000000000000000000000000000000000008152600401611079919061307d565b60405180910390fd5b5f8390508073ffffffffffffffffffffffffffffffffffffffff166370a08231306040518263ffffffff1660e01b81526004016110bf919061307d565b602060405180830381865afa1580156110da573d5f5f3e3d5ffd5b505050506040513d601f19601f820116820180604052508101906110fe91906134c3565b92505050919050565b61110f612a8f565b815f73ffffffffffffffffffffffffffffffffffffffff168173ffffffffffffffffffffffffffffffffffffffff160361118057806040517f8e4c8aa6000000000000000000000000000000000000000000000000000000008152600401611177919061307d565b60405180910390fd5b815f73ffffffffffffffffffffffffffffffffffffffff168173ffffffffffffffffffffffffffffffffffffffff16036111f157806040517f8e4c8aa60000000000000000000000000000000000000000000000000000000081526004016111e8919061307d565b60405180910390fd5b8260035f8673ffffffffffffffffffffffffffffffffffffffff1673ffffffffffffffffffffffffffffffffffffffff1681526020019081526020015f205f6101000a81548173ffffffffffffffffffffffffffffffffffffffff021916908373ffffffffffffffffffffffffffffffffffffffff1602179055508273ffffffffffffffffffffffffffffffffffffffff168473ffffffffffffffffffffffffffffffffffffffff167fa8abe0398416476db5b05737cd4da3b3cbde5012d978a6a6c3fd49d32175353660405160405180910390a350505050565b6005602052805f5260405f205f915090505481565b5f600680549050905090565b5f47905090565b6004602052805f5260405f205f915054906101000a900460ff1681565b5f5f5f5f5f60025f8773ffffffffffffffffffffffffffffffffffffffff1673ffffffffffffffffffffffffffffffffffffffff1681526020019081526020015f209050805f015f9054906101000a900473ffffffffffffffffffffffffffffffffffffffff168160010154826002015f9054906101000a900473ffffffffffffffffffffffffffffffffffffffff1683600301549450945094509450509193509193565b6113be612a8f565b6113c75f612b16565b565b5f3403611402576040517fb016be5e00000000000000000000000000000000000000000000000000000000815260040160405180910390fd5b5f61140c33612644565b905034816001015f82825461142191906130c3565b9250508190555060075f9054906101000a900473ffffffffffffffffffffffffffffffffffffffff16815f015f6101000a81548173ffffffffffffffffffffffffffffffffffffffff021916908373ffffffffffffffffffffffffffffffffffffffff1602179055503373ffffffffffffffffffffffffffffffffffffffff167f1c0917c3a343a300b56473c59fa8355d3326f2c73472679a5b4cd5d6e0390c80346040516114d09190612f76565b60405180910390a250565b6114e3612a8f565b805f73ffffffffffffffffffffffffffffffffffffffff168173ffffffffffffffffffffffffffffffffffffffff160361155457806040517f8e4c8aa600000000000000000000000000000000000000000000000000000000815260040161154b919061307d565b60405180910390fd5b60045f8373ffffffffffffffffffffffffffffffffffffffff1673ffffffffffffffffffffffffffffffffffffffff1681526020019081526020015f205f9054906101000a900460ff16156115e057816040517f766420470000000000000000000000000000000000000000000000000000000081526004016115d7919061307d565b60405180910390fd5b600160045f8473ffffffffffffffffffffffffffffffffffffffff1673ffffffffffffffffffffffffffffffffffffffff1681526020019081526020015f205f6101000a81548160ff02191690831515021790555060068054905060055f8473ffffffffffffffffffffffffffffffffffffffff1673ffffffffffffffffffffffffffffffffffffffff1681526020019081526020015f2081905550600682908060018154018082558091505060019003905f5260205f20015f9091909190916101000a81548173ffffffffffffffffffffffffffffffffffffffff021916908373ffffffffffffffffffffffffffffffffffffffff1602179055508173ffffffffffffffffffffffffffffffffffffffff167f026283404367cffc0443317066c3531d3db2306ad6e65aa1bee91dbe98c615a160405160405180910390a25050565b5f60015f9054906101000a900473ffffffffffffffffffffffffffffffffffffffff16905090565b6006818154811061175a575f80fd5b905f5260205f20015f915054906101000a900473ffffffffffffffffffffffffffffffffffffffff1681565b5f815f73ffffffffffffffffffffffffffffffffffffffff168173ffffffffffffffffffffffffffffffffffffffff16036117f857806040517f8e4c8aa60000000000000000000000000000000000000000000000000000000081526004016117ef919061307d565b60405180910390fd5b60045f8473ffffffffffffffffffffffffffffffffffffffff1673ffffffffffffffffffffffffffffffffffffffff1681526020019081526020015f205f9054906101000a900460ff16915050919050565b6003602052805f5260405f205f915054906101000a900473ffffffffffffffffffffffffffffffffffffffff1681565b611882612a8f565b805f81036118bc576040517f2c5211c600000000000000000000000000000000000000000000000000000000815260040160405180910390fd5b5f8214806118cb575061271082115b806118d75750611d4c82115b1561191957816040517f78dc164f0000000000000000000000000000000000000000000000000000000081526004016119109190612f76565b60405180910390fd5b816008819055507fcce25c35b561657fb7cd2ac403c6a4854283d0f4d462e68e0f97d07c348bcff28260405161194f9190612f76565b60405180910390a15050565b6002602052805f5260405f205f91509050805f015f9054906101000a900473ffffffffffffffffffffffffffffffffffffffff1690806001015490806002015f9054906101000a900473ffffffffffffffffffffffffffffffffffffffff16908060030154905084565b815f73ffffffffffffffffffffffffffffffffffffffff168173ffffffffffffffffffffffffffffffffffffffff1603611a3657806040517f8e4c8aa6000000000000000000000000000000000000000000000000000000008152600401611a2d919061307d565b60405180910390fd5b815f8103611a70576040517f2c5211c600000000000000000000000000000000000000000000000000000000815260040160405180910390fd5b8360045f8273ffffffffffffffffffffffffffffffffffffffff1673ffffffffffffffffffffffffffffffffffffffff1681526020019081526020015f205f9054906101000a900460ff16611afc57806040517f87921f5a000000000000000000000000000000000000000000000000000000008152600401611af3919061307d565b60405180910390fd5b5f611b0633612644565b9050611b1133612bd9565b611b47576040517f33cbf2bc00000000000000000000000000000000000000000000000000000000815260040160405180910390fd5b611b513387612c24565b611b9257856040517f6f79c78a000000000000000000000000000000000000000000000000000000008152600401611b89919061307d565b60405180910390fd5b8060030154851115611be1578481600301546040517f99bcd813000000000000000000000000000000000000000000000000000000008152600401611bd89291906134ee565b60405180910390fd5b806002015f9054906101000a900473ffffffffffffffffffffffffffffffffffffffff1673ffffffffffffffffffffffffffffffffffffffff1663095ea7b330876040518363ffffffff1660e01b8152600401611c3f929190613515565b6020604051808303815f875af1158015611c5b573d5f5f3e3d5ffd5b505050506040513d601f19601f82011682018060405250810190611c7f9190613566565b505f816002015f9054906101000a900473ffffffffffffffffffffffffffffffffffffffff1673ffffffffffffffffffffffffffffffffffffffff166323b872dd3330896040518463ffffffff1660e01b8152600401611ce193929190613591565b6020604051808303815f875af1158015611cfd573d5f5f3e3d5ffd5b505050506040513d601f19601f82011682018060405250810190611d219190613566565b905080611d8c57816002015f9054906101000a900473ffffffffffffffffffffffffffffffffffffffff1633876040517fbf182be8000000000000000000000000000000000000000000000000000000008152600401611d8393929190613591565b60405180910390fd5b85826003015f828254611d9f91906130f6565b925050819055503373ffffffffffffffffffffffffffffffffffffffff167fb7efcc12f3d3e74e33995ff303aca806b9428989809e60a4e5a4d465832966e487604051611dec9190612f76565b60405180910390a250505050505050565b815f73ffffffffffffffffffffffffffffffffffffffff168173ffffffffffffffffffffffffffffffffffffffff1603611e6e57806040517f8e4c8aa6000000000000000000000000000000000000000000000000000000008152600401611e65919061307d565b60405180910390fd5b815f8103611ea8576040517f2c5211c600000000000000000000000000000000000000000000000000000000815260040160405180910390fd5b5f611eb285612644565b9050611ebd85612bd9565b611ef3576040517f33cbf2bc00000000000000000000000000000000000000000000000000000000815260040160405180910390fd5b5f612710611d4c8360010154611f099190613482565b611f1391906135f3565b90505f670de0b6b3a7640000611f4b846002015f9054906101000a900473ffffffffffffffffffffffffffffffffffffffff16610bb1565b8460030154611f5a9190613482565b611f6491906135f3565b905081811015611fad5780826040517fd771d8e9000000000000000000000000000000000000000000000000000000008152600401611fa49291906134ee565b60405180910390fd5b826002015f9054906101000a900473ffffffffffffffffffffffffffffffffffffffff1673ffffffffffffffffffffffffffffffffffffffff1663095ea7b330886040518363ffffffff1660e01b815260040161200b929190613515565b6020604051808303815f875af1158015612027573d5f5f3e3d5ffd5b505050506040513d601f19601f8201168201806040525081019061204b9190613566565b505f836002015f9054906101000a900473ffffffffffffffffffffffffffffffffffffffff1673ffffffffffffffffffffffffffffffffffffffff166323b872dd33308a6040518463ffffffff1660e01b81526004016120ad93929190613591565b6020604051808303815f875af11580156120c9573d5f5f3e3d5ffd5b505050506040513d601f19601f820116820180604052508101906120ed9190613566565b90508061215857836002015f9054906101000a900473ffffffffffffffffffffffffffffffffffffffff1633886040517fbf182be800000000000000000000000000000000000000000000000000000000815260040161214f93929190613591565b60405180910390fd5b86846003015f82825461216b91906130f6565b925050819055505f61219e855f015f9054906101000a900473ffffffffffffffffffffffffffffffffffffffff16610bb1565b670de0b6b3a7640000808a6121b39190613482565b6121bd9190613482565b6121c791906135f3565b905084600101548111156121dd57846001015490505b80856001015f8282546121f091906130f6565b925050819055505f3373ffffffffffffffffffffffffffffffffffffffff168260405161221c90613650565b5f6040518083038185875af1925050503d805f8114612256576040519150601f19603f3d011682016040523d82523d5f602084013e61225b565b606091505b50509050806122a5575f33836040517fbf182be800000000000000000000000000000000000000000000000000000000815260040161229c93929190613591565b60405180910390fd5b5f86600301541480156122bb57505f8660010154145b156122ca576122c98a612cbb565b5b50505050505050505050565b5f5f6122e184610bb1565b90505f81036122f3575f91505061234b565b5f6122fd85612d60565b90505f81601261230d9190613664565b600a6123199190613698565b856123249190613482565b9050670de0b6b3a7640000838261233b9190613482565b61234591906135f3565b93505050505b92915050565b6123596125f7565b805f8103612393576040517f2c5211c600000000000000000000000000000000000000000000000000000000815260040160405180910390fd5b5f61239d33612644565b90505f8160030154146123eb5780600301546040517f40a636fb0000000000000000000000000000000000000000000000000000000081526004016123e29190612f76565b60405180910390fd5b806001015483111561243a578060010154836040517f768063db0000000000000000000000000000000000000000000000000000000081526004016124319291906134ee565b60405180910390fd5b5f3373ffffffffffffffffffffffffffffffffffffffff168460405161245f90613650565b5f6040518083038185875af1925050503d805f8114612499576040519150601f19603f3d011682016040523d82523d5f602084013e61249e565b606091505b50509050806124e8575f33856040517fbf182be80000000000000000000000000000000000000000000000000000000081526004016124df93929190613591565b60405180910390fd5b83826001015f8282546124fb91906130f6565b925050819055505f8260010154036125175761251633612cbb565b5b3373ffffffffffffffffffffffffffffffffffffffff167f5b0743acabce0ea09498b3c2598ed444f80ef6513a2029d7d9aaed87064d1edb8560405161255d9190612f76565b60405180910390a2505050612570612a86565b50565b61257b612a8f565b5f73ffffffffffffffffffffffffffffffffffffffff168173ffffffffffffffffffffffffffffffffffffffff16036125eb575f6040517f1e4fbdf70000000000000000000000000000000000000000000000000000000081526004016125e2919061307d565b60405180910390fd5b6125f481612b16565b50565b60025f540361263b576040517f08c379a00000000000000000000000000000000000000000000000000000000081526004016126329061373c565b60405180910390fd5b60025f81905550565b5f60025f8373ffffffffffffffffffffffffffffffffffffffff1673ffffffffffffffffffffffffffffffffffffffff1681526020019081526020015f209050919050565b5f5f60025f8473ffffffffffffffffffffffffffffffffffffffff1673ffffffffffffffffffffffffffffffffffffffff1681526020019081526020015f2060010154119050919050565b5f5f6126df84612644565b90505f81600101540361271e576040517fb016be5e00000000000000000000000000000000000000000000000000000000815260040160405180910390fd5b5f73ffffffffffffffffffffffffffffffffffffffff1660035f8573ffffffffffffffffffffffffffffffffffffffff1673ffffffffffffffffffffffffffffffffffffffff1681526020019081526020015f205f9054906101000a900473ffffffffffffffffffffffffffffffffffffffff1673ffffffffffffffffffffffffffffffffffffffff16036127ea57826040517f6f79c78a0000000000000000000000000000000000000000000000000000000081526004016127e1919061307d565b60405180910390fd5b5f61281b825f015f9054906101000a900473ffffffffffffffffffffffffffffffffffffffff1683600101546122d6565b90505f6127106008548361282f9190613482565b61283991906135f3565b90505f5f90505f8460030154111561287f5761287c846002015f9054906101000a900473ffffffffffffffffffffffffffffffffffffffff1685600301546122d6565b90505b818110612892575f9450505050506128ee565b5f818361289f91906130f6565b90505f81036128b5575f955050505050506128ee565b5f6128bf88610bb1565b90505f81670de0b6b3a7640000846128d79190613482565b6128e191906135f3565b9050809750505050505050505b92915050565b5f8390505f8173ffffffffffffffffffffffffffffffffffffffff166370a08231306040518263ffffffff1660e01b8152600401612932919061307d565b602060405180830381865afa15801561294d573d5f5f3e3d5ffd5b505050506040513d601f19601f8201168201806040525081019061297191906134c3565b9050828110156129ba5780836040517fce9514f90000000000000000000000000000000000000000000000000000000081526004016129b19291906134ee565b60405180910390fd5b5f8273ffffffffffffffffffffffffffffffffffffffff1663a9059cbb86866040518363ffffffff1660e01b81526004016129f6929190613515565b6020604051808303815f875af1158015612a12573d5f5f3e3d5ffd5b505050506040513d601f19601f82011682018060405250810190612a369190613566565b905080612a7e578585856040517fc8776798000000000000000000000000000000000000000000000000000000008152600401612a7593929190613591565b60405180910390fd5b505050505050565b60015f81905550565b612a97612e66565b73ffffffffffffffffffffffffffffffffffffffff16612ab5611723565b73ffffffffffffffffffffffffffffffffffffffff1614612b1457612ad8612e66565b6040517f118cdaa7000000000000000000000000000000000000000000000000000000008152600401612b0b919061307d565b60405180910390fd5b565b5f60015f9054906101000a900473ffffffffffffffffffffffffffffffffffffffff1690508160015f6101000a81548173ffffffffffffffffffffffffffffffffffffffff021916908373ffffffffffffffffffffffffffffffffffffffff1602179055508173ffffffffffffffffffffffffffffffffffffffff168173ffffffffffffffffffffffffffffffffffffffff167f8be0079c531659141344cd1fd0a4f28419497f9722a3daafe3b4186f6b6457e060405160405180910390a35050565b5f5f60025f8473ffffffffffffffffffffffffffffffffffffffff1673ffffffffffffffffffffffffffffffffffffffff1681526020019081526020015f2060030154119050919050565b5f8173ffffffffffffffffffffffffffffffffffffffff1660025f8573ffffffffffffffffffffffffffffffffffffffff1673ffffffffffffffffffffffffffffffffffffffff1681526020019081526020015f206002015f9054906101000a900473ffffffffffffffffffffffffffffffffffffffff1673ffffffffffffffffffffffffffffffffffffffff1614905092915050565b5f612cc582612644565b90505f816002015f6101000a81548173ffffffffffffffffffffffffffffffffffffffff021916908373ffffffffffffffffffffffffffffffffffffffff1602179055505f81600301819055505f815f015f6101000a81548173ffffffffffffffffffffffffffffffffffffffff021916908373ffffffffffffffffffffffffffffffffffffffff1602179055505f81600101819055505050565b5f60075f9054906101000a900473ffffffffffffffffffffffffffffffffffffffff1673ffffffffffffffffffffffffffffffffffffffff168273ffffffffffffffffffffffffffffffffffffffff1603612dbe5760129050612e61565b8173ffffffffffffffffffffffffffffffffffffffff1663313ce5676040518163ffffffff1660e01b8152600401602060405180830381865afa925050508015612e2657506040513d601f19601f82011682018060405250810190612e2391906132de565b60015b612e5c576040517fd25598a000000000000000000000000000000000000000000000000000000000815260040160405180910390fd5b809150505b919050565b5f33905090565b5f5ffd5b5f73ffffffffffffffffffffffffffffffffffffffff82169050919050565b5f612e9a82612e71565b9050919050565b612eaa81612e90565b8114612eb4575f5ffd5b50565b5f81359050612ec581612ea1565b92915050565b5f819050919050565b612edd81612ecb565b8114612ee7575f5ffd5b50565b5f81359050612ef881612ed4565b92915050565b5f5f60408385031215612f1457612f13612e6d565b5b5f612f2185828601612eb7565b9250506020612f3285828601612eea565b9150509250929050565b5f60208284031215612f5157612f50612e6d565b5b5f612f5e84828501612eb7565b91505092915050565b612f7081612ecb565b82525050565b5f602082019050612f895f830184612f67565b92915050565b5f60208284031215612fa457612fa3612e6d565b5b5f612fb184828501612eea565b91505092915050565b5f5f60408385031215612fd057612fcf612e6d565b5b5f612fdd85828601612eb7565b9250506020612fee85828601612eb7565b9150509250929050565b5f8115159050919050565b61300c81612ff8565b82525050565b5f6020820190506130255f830184613003565b92915050565b61303481612e90565b82525050565b5f60808201905061304d5f83018761302b565b61305a6020830186612f67565b613067604083018561302b565b6130746060830184612f67565b95945050505050565b5f6020820190506130905f83018461302b565b92915050565b7f4e487b71000000000000000000000000000000000000000000000000000000005f52601160045260245ffd5b5f6130cd82612ecb565b91506130d883612ecb565b92508282019050808211156130f0576130ef613096565b5b92915050565b5f61310082612ecb565b915061310b83612ecb565b925082820390508181111561312357613122613096565b5b92915050565b7f4e487b71000000000000000000000000000000000000000000000000000000005f52603260045260245ffd5b7f4e487b71000000000000000000000000000000000000000000000000000000005f52603160045260245ffd5b5f69ffffffffffffffffffff82169050919050565b6131a181613183565b81146131ab575f5ffd5b50565b5f815190506131bc81613198565b92915050565b5f819050919050565b6131d4816131c2565b81146131de575f5ffd5b50565b5f815190506131ef816131cb565b92915050565b5f8151905061320381612ed4565b92915050565b5f5f5f5f5f60a0868803121561322257613221612e6d565b5b5f61322f888289016131ae565b9550506020613240888289016131e1565b9450506040613251888289016131f5565b9350506060613262888289016131f5565b9250506080613273888289016131ae565b9150509295509295909350565b613289816131c2565b82525050565b5f6020820190506132a25f830184613280565b92915050565b5f60ff82169050919050565b6132bd816132a8565b81146132c7575f5ffd5b50565b5f815190506132d8816132b4565b92915050565b5f602082840312156132f3576132f2612e6d565b5b5f613300848285016132ca565b91505092915050565b5f8160011c9050919050565b5f5f8291508390505b600185111561335e5780860481111561333a57613339613096565b5b60018516156133495780820291505b808102905061335785613309565b945061331e565b94509492505050565b5f826133765760019050613431565b81613383575f9050613431565b816001811461339957600281146133a3576133d2565b6001915050613431565b60ff8411156133b5576133b4613096565b5b8360020a9150848211156133cc576133cb613096565b5b50613431565b5060208310610133831016604e8410600b84101617156134075782820a90508381111561340257613401613096565b5b613431565b6134148484846001613315565b9250905081840481111561342b5761342a613096565b5b81810290505b9392505050565b5f61344282612ecb565b915061344d83612ecb565b925061347a7fffffffffffffffffffffffffffffffffffffffffffffffffffffffffffffffff8484613367565b905092915050565b5f61348c82612ecb565b915061349783612ecb565b92508282026134a581612ecb565b915082820484148315176134bc576134bb613096565b5b5092915050565b5f602082840312156134d8576134d7612e6d565b5b5f6134e5848285016131f5565b91505092915050565b5f6040820190506135015f830185612f67565b61350e6020830184612f67565b9392505050565b5f6040820190506135285f83018561302b565b6135356020830184612f67565b9392505050565b61354581612ff8565b811461354f575f5ffd5b50565b5f815190506135608161353c565b92915050565b5f6020828403121561357b5761357a612e6d565b5b5f61358884828501613552565b91505092915050565b5f6060820190506135a45f83018661302b565b6135b1602083018561302b565b6135be6040830184612f67565b949350505050565b7f4e487b71000000000000000000000000000000000000000000000000000000005f52601260045260245ffd5b5f6135fd82612ecb565b915061360883612ecb565b925082613618576136176135c6565b5b828204905092915050565b5f81905092915050565b50565b5f61363b5f83613623565b91506136468261362d565b5f82019050919050565b5f61365a82613630565b9150819050919050565b5f61366e826132a8565b9150613679836132a8565b9250828203905060ff81111561369257613691613096565b5b92915050565b5f6136a282612ecb565b91506136ad836132a8565b92506136da7fffffffffffffffffffffffffffffffffffffffffffffffffffffffffffffffff8484613367565b905092915050565b5f82825260208201905092915050565b7f5265656e7472616e637947756172643a207265656e7472616e742063616c6c005f82015250565b5f613726601f836136e2565b9150613731826136f2565b602082019050919050565b5f6020820190508181035f8301526137538161371a565b905091905056fea26469706673582212203437f34b814bd92eeca301c75206f84ce354e9658d764335a1c60489779f18e164736f6c634300081e0033",
			"opcodes": "PUSH1 0x80 PUSH1 0x40 MSTORE PUSH20 0xEEEEEEEEEEEEEEEEEEEEEEEEEEEEEEEEEEEEEEEE PUSH1 0x7 PUSH0 PUSH2 0x100 EXP DUP2 SLOAD DUP2 PUSH20 0xFFFFFFFFFFFFFFFFFFFFFFFFFFFFFFFFFFFFFFFF MUL NOT AND SWAP1 DUP4 PUSH20 0xFFFFFFFFFFFFFFFFFFFFFFFFFFFFFFFFFFFFFFFF AND MUL OR SWAP1 SSTORE POP PUSH2 0x1388 PUSH1 0x8 SSTORE PUSH2 0x1F4 PUSH1 0x9 SSTORE CALLVALUE DUP1 ISZERO PUSH2 0x6F JUMPI PUSH0 PUSH0 REVERT JUMPDEST POP CALLER PUSH1 0x1 PUSH0 DUP2 SWAP1 SSTORE POP PUSH0 PUSH20 0xFFFFFFFFFFFFFFFFFFFFFFFFFFFFFFFFFFFFFFFF AND DUP2 PUSH20 0xFFFFFFFFFFFFFFFFFFFFFFFFFFFFFFFFFFFFFFFF AND SUB PUSH2 0xE8 JUMPI PUSH0 PUSH1 0x40 MLOAD PUSH32 0x1E4FBDF700000000000000000000000000000000000000000000000000000000 DUP2 MSTORE PUSH1 0x4 ADD PUSH2 0xDF SWAP2 SWAP1 PUSH2 0x1FF JUMP JUMPDEST PUSH1 0x40 MLOAD DUP1 SWAP2 SUB SWAP1 REVERT JUMPDEST PUSH2 0xF7 DUP2 PUSH2 0xFD PUSH1 0x20 SHL PUSH1 0x20 SHR JUMP JUMPDEST POP PUSH2 0x218 JUMP JUMPDEST PUSH0 PUSH1 0x1 PUSH0 SWAP1 SLOAD SWAP1 PUSH2 0x100 EXP SWAP1 DIV PUSH20 0xFFFFFFFFFFFFFFFFFFFFFFFFFFFFFFFFFFFFFFFF AND SWAP1 POP DUP2 PUSH1 0x1 PUSH0 PUSH2 0x100 EXP DUP2 SLOAD DUP2 PUSH20 0xFFFFFFFFFFFFFFFFFFFFFFFFFFFFFFFFFFFFFFFF MUL NOT AND SWAP1 DUP4 PUSH20 0xFFFFFFFFFFFFFFFFFFFFFFFFFFFFFFFFFFFFFFFF AND MUL OR SWAP1 SSTORE POP DUP2 PUSH20 0xFFFFFFFFFFFFFFFFFFFFFFFFFFFFFFFFFFFFFFFF AND DUP2 PUSH20 0xFFFFFFFFFFFFFFFFFFFFFFFFFFFFFFFFFFFFFFFF AND PUSH32 0x8BE0079C531659141344CD1FD0A4F28419497F9722A3DAAFE3B4186F6B6457E0 PUSH1 0x40 MLOAD PUSH1 0x40 MLOAD DUP1 SWAP2 SUB SWAP1 LOG3 POP POP JUMP JUMPDEST PUSH0 PUSH20 0xFFFFFFFFFFFFFFFFFFFFFFFFFFFFFFFFFFFFFFFF DUP3 AND SWAP1 POP SWAP2 SWAP1 POP JUMP JUMPDEST PUSH0 PUSH2 0x1E9 DUP3 PUSH2 0x1C0 JUMP JUMPDEST SWAP1 POP SWAP2 SWAP1 POP JUMP JUMPDEST PUSH2 0x1F9 DUP2 PUSH2 0x1DF JUMP JUMPDEST DUP3 MSTORE POP POP JUMP JUMPDEST PUSH0 PUSH1 0x20 DUP3 ADD SWAP1 POP PUSH2 0x212 PUSH0 DUP4 ADD DUP5 PUSH2 0x1F0 JUMP JUMPDEST SWAP3 SWAP2 POP POP JUMP JUMPDEST PUSH2 0x3790 DUP1 PUSH2 0x225 PUSH0 CODECOPY PUSH0 RETURN INVALID PUSH1 0x80 PUSH1 0x40 MSTORE PUSH1 0x4 CALLDATASIZE LT PUSH2 0x169 JUMPI PUSH0 CALLDATALOAD PUSH1 0xE0 SHR DUP1 PUSH4 0x7A5F0DC4 GT PUSH2 0xD0 JUMPI DUP1 PUSH4 0xA37E52E3 GT PUSH2 0x89 JUMPI DUP1 PUSH4 0xBCBAF487 GT PUSH2 0x63 JUMPI DUP1 PUSH4 0xBCBAF487 EQ PUSH2 0x544 JUMPI DUP1 PUSH4 0xC660D112 EQ PUSH2 0x56C JUMPI DUP1 PUSH4 0xE1BF0A4B EQ PUSH2 0x5A8 JUMPI DUP1 PUSH4 0xF2FDE38B EQ PUSH2 0x5D0 JUMPI PUSH2 0x16A JUMP JUMPDEST DUP1 PUSH4 0xA37E52E3 EQ PUSH2 0x4B5 JUMPI DUP1 PUSH4 0xA87430BA EQ PUSH2 0x4DD JUMPI DUP1 PUSH4 0xB8BC9CAB EQ PUSH2 0x51C JUMPI PUSH2 0x16A JUMP JUMPDEST DUP1 PUSH4 0x7A5F0DC4 EQ PUSH2 0x3A5 JUMPI DUP1 PUSH4 0x80B2EDD8 EQ PUSH2 0x3AF JUMPI DUP1 PUSH4 0x8DA5CB5B EQ PUSH2 0x3D7 JUMPI DUP1 PUSH4 0x9776F4A5 EQ PUSH2 0x401 JUMPI DUP1 PUSH4 0x9D93D352 EQ PUSH2 0x43D JUMPI DUP1 PUSH4 0x9DCB511A EQ PUSH2 0x479 JUMPI PUSH2 0x16A JUMP JUMPDEST DUP1 PUSH4 0x427F91A6 GT PUSH2 0x122 JUMPI DUP1 PUSH4 0x427F91A6 EQ PUSH2 0x284 JUMPI DUP1 PUSH4 0x4BB55D5C EQ PUSH2 0x2C0 JUMPI DUP1 PUSH4 0x4DE57D75 EQ PUSH2 0x2EA JUMPI DUP1 PUSH4 0x6D1EA3FA EQ PUSH2 0x314 JUMPI DUP1 PUSH4 0x6F77926B EQ PUSH2 0x350 JUMPI DUP1 PUSH4 0x715018A6 EQ PUSH2 0x38F JUMPI PUSH2 0x16A JUMP JUMPDEST DUP1 PUSH4 0xF07645A EQ PUSH2 0x16C JUMPI DUP1 PUSH4 0x15C92678 EQ PUSH2 0x194 JUMPI DUP1 PUSH4 0x16345F18 EQ PUSH2 0x1BC JUMPI DUP1 PUSH4 0x28842D4F EQ PUSH2 0x1F8 JUMPI DUP1 PUSH4 0x3E4E1C27 EQ PUSH2 0x220 JUMPI DUP1 PUSH4 0x40B1EB10 EQ PUSH2 0x25C JUMPI PUSH2 0x16A JUMP JUMPDEST JUMPDEST STOP JUMPDEST CALLVALUE DUP1 ISZERO PUSH2 0x177 JUMPI PUSH0 PUSH0 REVERT JUMPDEST POP PUSH2 0x192 PUSH1 0x4 DUP1 CALLDATASIZE SUB DUP2 ADD SWAP1 PUSH2 0x18D SWAP2 SWAP1 PUSH2 0x2EFE JUMP JUMPDEST PUSH2 0x5F8 JUMP JUMPDEST STOP JUMPDEST CALLVALUE DUP1 ISZERO PUSH2 0x19F JUMPI PUSH0 PUSH0 REVERT JUMPDEST POP PUSH2 0x1BA PUSH1 0x4 DUP1 CALLDATASIZE SUB DUP2 ADD SWAP1 PUSH2 0x1B5 SWAP2 SWAP1 PUSH2 0x2F3C JUMP JUMPDEST PUSH2 0x852 JUMP JUMPDEST STOP JUMPDEST CALLVALUE DUP1 ISZERO PUSH2 0x1C7 JUMPI PUSH0 PUSH0 REVERT JUMPDEST POP PUSH2 0x1E2 PUSH1 0x4 DUP1 CALLDATASIZE SUB DUP2 ADD SWAP1 PUSH2 0x1DD SWAP2 SWAP1 PUSH2 0x2F3C JUMP JUMPDEST PUSH2 0xBB1 JUMP JUMPDEST PUSH1 0x40 MLOAD PUSH2 0x1EF SWAP2 SWAP1 PUSH2 0x2F76 JUMP JUMPDEST PUSH1 0x40 MLOAD DUP1 SWAP2 SUB SWAP1 RETURN JUMPDEST CALLVALUE DUP1 ISZERO PUSH2 0x203 JUMPI PUSH0 PUSH0 REVERT JUMPDEST POP PUSH2 0x21E PUSH1 0x4 DUP1 CALLDATASIZE SUB DUP2 ADD SWAP1 PUSH2 0x219 SWAP2 SWAP1 PUSH2 0x2F8F JUMP JUMPDEST PUSH2 0xF45 JUMP JUMPDEST STOP JUMPDEST CALLVALUE DUP1 ISZERO PUSH2 0x22B JUMPI PUSH0 PUSH0 REVERT JUMPDEST POP PUSH2 0x246 PUSH1 0x4 DUP1 CALLDATASIZE SUB DUP2 ADD SWAP1 PUSH2 0x241 SWAP2 SWAP1 PUSH2 0x2F3C JUMP JUMPDEST PUSH2 0x1010 JUMP JUMPDEST PUSH1 0x40 MLOAD PUSH2 0x253 SWAP2 SWAP1 PUSH2 0x2F76 JUMP JUMPDEST PUSH1 0x40 MLOAD DUP1 SWAP2 SUB SWAP1 RETURN JUMPDEST CALLVALUE DUP1 ISZERO PUSH2 0x267 JUMPI PUSH0 PUSH0 REVERT JUMPDEST POP PUSH2 0x282 PUSH1 0x4 DUP1 CALLDATASIZE SUB DUP2 ADD SWAP1 PUSH2 0x27D SWAP2 SWAP1 PUSH2 0x2FBA JUMP JUMPDEST PUSH2 0x1107 JUMP JUMPDEST STOP JUMPDEST CALLVALUE DUP1 ISZERO PUSH2 0x28F JUMPI PUSH0 PUSH0 REVERT JUMPDEST POP PUSH2 0x2AA PUSH1 0x4 DUP1 CALLDATASIZE SUB DUP2 ADD SWAP1 PUSH2 0x2A5 SWAP2 SWAP1 PUSH2 0x2F3C JUMP JUMPDEST PUSH2 0x12CC JUMP JUMPDEST PUSH1 0x40 MLOAD PUSH2 0x2B7 SWAP2 SWAP1 PUSH2 0x2F76 JUMP JUMPDEST PUSH1 0x40 MLOAD DUP1 SWAP2 SUB SWAP1 RETURN JUMPDEST CALLVALUE DUP1 ISZERO PUSH2 0x2CB JUMPI PUSH0 PUSH0 REVERT JUMPDEST POP PUSH2 0x2D4 PUSH2 0x12E1 JUMP JUMPDEST PUSH1 0x40 MLOAD PUSH2 0x2E1 SWAP2 SWAP1 PUSH2 0x2F76 JUMP JUMPDEST PUSH1 0x40 MLOAD DUP1 SWAP2 SUB SWAP1 RETURN JUMPDEST CALLVALUE DUP1 ISZERO PUSH2 0x2F5 JUMPI PUSH0 PUSH0 REVERT JUMPDEST POP PUSH2 0x2FE PUSH2 0x12ED JUMP JUMPDEST PUSH1 0x40 MLOAD PUSH2 0x30B SWAP2 SWAP1 PUSH2 0x2F76 JUMP JUMPDEST PUSH1 0x40 MLOAD DUP1 SWAP2 SUB SWAP1 RETURN JUMPDEST CALLVALUE DUP1 ISZERO PUSH2 0x31F JUMPI PUSH0 PUSH0 REVERT JUMPDEST POP PUSH2 0x33A PUSH1 0x4 DUP1 CALLDATASIZE SUB DUP2 ADD SWAP1 PUSH2 0x335 SWAP2 SWAP1 PUSH2 0x2F3C JUMP JUMPDEST PUSH2 0x12F4 JUMP JUMPDEST PUSH1 0x40 MLOAD PUSH2 0x347 SWAP2 SWAP1 PUSH2 0x3012 JUMP JUMPDEST PUSH1 0x40 MLOAD DUP1 SWAP2 SUB SWAP1 RETURN JUMPDEST CALLVALUE DUP1 ISZERO PUSH2 0x35B JUMPI PUSH0 PUSH0 REVERT JUMPDEST POP PUSH2 0x376 PUSH1 0x4 DUP1 CALLDATASIZE SUB DUP2 ADD SWAP1 PUSH2 0x371 SWAP2 SWAP1 PUSH2 0x2F3C JUMP JUMPDEST PUSH2 0x1311 JUMP JUMPDEST PUSH1 0x40 MLOAD PUSH2 0x386 SWAP5 SWAP4 SWAP3 SWAP2 SWAP1 PUSH2 0x303A JUMP JUMPDEST PUSH1 0x40 MLOAD DUP1 SWAP2 SUB SWAP1 RETURN JUMPDEST CALLVALUE DUP1 ISZERO PUSH2 0x39A JUMPI PUSH0 PUSH0 REVERT JUMPDEST POP PUSH2 0x3A3 PUSH2 0x13B6 JUMP JUMPDEST STOP JUMPDEST PUSH2 0x3AD PUSH2 0x13C9 JUMP JUMPDEST STOP JUMPDEST CALLVALUE DUP1 ISZERO PUSH2 0x3BA JUMPI PUSH0 PUSH0 REVERT JUMPDEST POP PUSH2 0x3D5 PUSH1 0x4 DUP1 CALLDATASIZE SUB DUP2 ADD SWAP1 PUSH2 0x3D0 SWAP2 SWAP1 PUSH2 0x2F3C JUMP JUMPDEST PUSH2 0x14DB JUMP JUMPDEST STOP JUMPDEST CALLVALUE DUP1 ISZERO PUSH2 0x3E2 JUMPI PUSH0 PUSH0 REVERT JUMPDEST POP PUSH2 0x3EB PUSH2 0x1723 JUMP JUMPDEST PUSH1 0x40 MLOAD PUSH2 0x3F8 SWAP2 SWAP1 PUSH2 0x307D JUMP JUMPDEST PUSH1 0x40 MLOAD DUP1 SWAP2 SUB SWAP1 RETURN JUMPDEST CALLVALUE DUP1 ISZERO PUSH2 0x40C JUMPI PUSH0 PUSH0 REVERT JUMPDEST POP PUSH2 0x427 PUSH1 0x4 DUP1 CALLDATASIZE SUB DUP2 ADD SWAP1 PUSH2 0x422 SWAP2 SWAP1 PUSH2 0x2F8F JUMP JUMPDEST PUSH2 0x174B JUMP JUMPDEST PUSH1 0x40 MLOAD PUSH2 0x434 SWAP2 SWAP1 PUSH2 0x307D JUMP JUMPDEST PUSH1 0x40 MLOAD DUP1 SWAP2 SUB SWAP1 RETURN JUMPDEST CALLVALUE DUP1 ISZERO PUSH2 0x448 JUMPI PUSH0 PUSH0 REVERT JUMPDEST POP PUSH2 0x463 PUSH1 0x4 DUP1 CALLDATASIZE SUB DUP2 ADD SWAP1 PUSH2 0x45E SWAP2 SWAP1 PUSH2 0x2F3C JUMP JUMPDEST PUSH2 0x1786 JUMP JUMPDEST PUSH1 0x40 MLOAD PUSH2 0x470 SWAP2 SWAP1 PUSH2 0x3012 JUMP JUMPDEST PUSH1 0x40 MLOAD DUP1 SWAP2 SUB SWAP1 RETURN JUMPDEST CALLVALUE DUP1 ISZERO PUSH2 0x484 JUMPI PUSH0 PUSH0 REVERT JUMPDEST POP PUSH2 0x49F PUSH1 0x4 DUP1 CALLDATASIZE SUB DUP2 ADD SWAP1 PUSH2 0x49A SWAP2 SWAP1 PUSH2 0x2F3C JUMP JUMPDEST PUSH2 0x184A JUMP JUMPDEST PUSH1 0x40 MLOAD PUSH2 0x4AC SWAP2 SWAP1 PUSH2 0x307D JUMP JUMPDEST PUSH1 0x40 MLOAD DUP1 SWAP2 SUB SWAP1 RETURN JUMPDEST CALLVALUE DUP1 ISZERO PUSH2 0x4C0 JUMPI PUSH0 PUSH0 REVERT JUMPDEST POP PUSH2 0x4DB PUSH1 0x4 DUP1 CALLDATASIZE SUB DUP2 ADD SWAP1 PUSH2 0x4D6 SWAP2 SWAP1 PUSH2 0x2F8F JUMP JUMPDEST PUSH2 0x187A JUMP JUMPDEST STOP JUMPDEST CALLVALUE DUP1 ISZERO PUSH2 0x4E8 JUMPI PUSH0 PUSH0 REVERT JUMPDEST POP PUSH2 0x503 PUSH1 0x4 DUP1 CALLDATASIZE SUB DUP2 ADD SWAP1 PUSH2 0x4FE SWAP2 SWAP1 PUSH2 0x2F3C JUMP JUMPDEST PUSH2 0x195B JUMP JUMPDEST PUSH1 0x40 MLOAD PUSH2 0x513 SWAP5 SWAP4 SWAP3 SWAP2 SWAP1 PUSH2 0x303A JUMP JUMPDEST PUSH1 0x40 MLOAD DUP1 SWAP2 SUB SWAP1 RETURN JUMPDEST CALLVALUE DUP1 ISZERO PUSH2 0x527 JUMPI PUSH0 PUSH0 REVERT JUMPDEST POP PUSH2 0x542 PUSH1 0x4 DUP1 CALLDATASIZE SUB DUP2 ADD SWAP1 PUSH2 0x53D SWAP2 SWAP1 PUSH2 0x2EFE JUMP JUMPDEST PUSH2 0x19C5 JUMP JUMPDEST STOP JUMPDEST CALLVALUE DUP1 ISZERO PUSH2 0x54F JUMPI PUSH0 PUSH0 REVERT JUMPDEST POP PUSH2 0x56A PUSH1 0x4 DUP1 CALLDATASIZE SUB DUP2 ADD SWAP1 PUSH2 0x565 SWAP2 SWAP1 PUSH2 0x2EFE JUMP JUMPDEST PUSH2 0x1DFD JUMP JUMPDEST STOP JUMPDEST CALLVALUE DUP1 ISZERO PUSH2 0x577 JUMPI PUSH0 PUSH0 REVERT JUMPDEST POP PUSH2 0x592 PUSH1 0x4 DUP1 CALLDATASIZE SUB DUP2 ADD SWAP1 PUSH2 0x58D SWAP2 SWAP1 PUSH2 0x2EFE JUMP JUMPDEST PUSH2 0x22D6 JUMP JUMPDEST PUSH1 0x40 MLOAD PUSH2 0x59F SWAP2 SWAP1 PUSH2 0x2F76 JUMP JUMPDEST PUSH1 0x40 MLOAD DUP1 SWAP2 SUB SWAP1 RETURN JUMPDEST CALLVALUE DUP1 ISZERO PUSH2 0x5B3 JUMPI PUSH0 PUSH0 REVERT JUMPDEST POP PUSH2 0x5CE PUSH1 0x4 DUP1 CALLDATASIZE SUB DUP2 ADD SWAP1 PUSH2 0x5C9 SWAP2 SWAP1 PUSH2 0x2F8F JUMP JUMPDEST PUSH2 0x2351 JUMP JUMPDEST STOP JUMPDEST CALLVALUE DUP1 ISZERO PUSH2 0x5DB JUMPI PUSH0 PUSH0 REVERT JUMPDEST POP PUSH2 0x5F6 PUSH1 0x4 DUP1 CALLDATASIZE SUB DUP2 ADD SWAP1 PUSH2 0x5F1 SWAP2 SWAP1 PUSH2 0x2F3C JUMP JUMPDEST PUSH2 0x2573 JUMP JUMPDEST STOP JUMPDEST PUSH2 0x600 PUSH2 0x25F7 JUMP JUMPDEST DUP2 PUSH0 PUSH20 0xFFFFFFFFFFFFFFFFFFFFFFFFFFFFFFFFFFFFFFFF AND DUP2 PUSH20 0xFFFFFFFFFFFFFFFFFFFFFFFFFFFFFFFFFFFFFFFF AND SUB PUSH2 0x671 JUMPI DUP1 PUSH1 0x40 MLOAD PUSH32 0x8E4C8AA600000000000000000000000000000000000000000000000000000000 DUP2 MSTORE PUSH1 0x4 ADD PUSH2 0x668 SWAP2 SWAP1 PUSH2 0x307D JUMP JUMPDEST PUSH1 0x40 MLOAD DUP1 SWAP2 SUB SWAP1 REVERT JUMPDEST DUP2 PUSH0 DUP2 SUB PUSH2 0x6AB JUMPI PUSH1 0x40 MLOAD PUSH32 0x2C5211C600000000000000000000000000000000000000000000000000000000 DUP2 MSTORE PUSH1 0x4 ADD PUSH1 0x40 MLOAD DUP1 SWAP2 SUB SWAP1 REVERT JUMPDEST DUP4 PUSH1 0x4 PUSH0 DUP3 PUSH20 0xFFFFFFFFFFFFFFFFFFFFFFFFFFFFFFFFFFFFFFFF AND PUSH20 0xFFFFFFFFFFFFFFFFFFFFFFFFFFFFFFFFFFFFFFFF AND DUP2 MSTORE PUSH1 0x20 ADD SWAP1 DUP2 MSTORE PUSH1 0x20 ADD PUSH0 KECCAK256 PUSH0 SWAP1 SLOAD SWAP1 PUSH2 0x100 EXP SWAP1 DIV PUSH1 0xFF AND PUSH2 0x737 JUMPI DUP1 PUSH1 0x40 MLOAD PUSH32 0x87921F5A00000000000000000000000000000000000000000000000000000000 DUP2 MSTORE PUSH1 0x4 ADD PUSH2 0x72E SWAP2 SWAP1 PUSH2 0x307D JUMP JUMPDEST PUSH1 0x40 MLOAD DUP1 SWAP2 SUB SWAP1 REVERT JUMPDEST PUSH0 PUSH2 0x741 CALLER PUSH2 0x2644 JUMP JUMPDEST SWAP1 POP PUSH2 0x74C CALLER PUSH2 0x2689 JUMP JUMPDEST PUSH2 0x782 JUMPI PUSH1 0x40 MLOAD PUSH32 0xB016BE5E00000000000000000000000000000000000000000000000000000000 DUP2 MSTORE PUSH1 0x4 ADD PUSH1 0x40 MLOAD DUP1 SWAP2 SUB SWAP1 REVERT JUMPDEST PUSH2 0x78C CALLER DUP8 PUSH2 0x26D4 JUMP JUMPDEST POP DUP5 DUP2 PUSH1 0x3 ADD PUSH0 DUP3 DUP3 SLOAD PUSH2 0x7A0 SWAP2 SWAP1 PUSH2 0x30C3 JUMP JUMPDEST SWAP3 POP POP DUP2 SWAP1 SSTORE POP DUP6 DUP2 PUSH1 0x2 ADD PUSH0 PUSH2 0x100 EXP DUP2 SLOAD DUP2 PUSH20 0xFFFFFFFFFFFFFFFFFFFFFFFFFFFFFFFFFFFFFFFF MUL NOT AND SWAP1 DUP4 PUSH20 0xFFFFFFFFFFFFFFFFFFFFFFFFFFFFFFFFFFFFFFFF AND MUL OR SWAP1 SSTORE POP PUSH2 0x7F4 DUP7 CALLER DUP8 PUSH2 0x28F4 JUMP JUMPDEST CALLER PUSH20 0xFFFFFFFFFFFFFFFFFFFFFFFFFFFFFFFFFFFFFFFF AND PUSH32 0x5ABC9A9C4616711EB03D720E050325118645A3695A5E75B5B10A29E2E217FE03 DUP7 PUSH1 0x40 MLOAD PUSH2 0x83A SWAP2 SWAP1 PUSH2 0x2F76 JUMP JUMPDEST PUSH1 0x40 MLOAD DUP1 SWAP2 SUB SWAP1 LOG2 POP POP POP POP PUSH2 0x84E PUSH2 0x2A86 JUMP JUMPDEST POP POP JUMP JUMPDEST PUSH2 0x85A PUSH2 0x2A8F JUMP JUMPDEST DUP1 PUSH0 PUSH20 0xFFFFFFFFFFFFFFFFFFFFFFFFFFFFFFFFFFFFFFFF AND DUP2 PUSH20 0xFFFFFFFFFFFFFFFFFFFFFFFFFFFFFFFFFFFFFFFF AND SUB PUSH2 0x8CB JUMPI DUP1 PUSH1 0x40 MLOAD PUSH32 0x8E4C8AA600000000000000000000000000000000000000000000000000000000 DUP2 MSTORE PUSH1 0x4 ADD PUSH2 0x8C2 SWAP2 SWAP1 PUSH2 0x307D JUMP JUMPDEST PUSH1 0x40 MLOAD DUP1 SWAP2 SUB SWAP1 REVERT JUMPDEST PUSH1 0x4 PUSH0 DUP4 PUSH20 0xFFFFFFFFFFFFFFFFFFFFFFFFFFFFFFFFFFFFFFFF AND PUSH20 0xFFFFFFFFFFFFFFFFFFFFFFFFFFFFFFFFFFFFFFFF AND DUP2 MSTORE PUSH1 0x20 ADD SWAP1 DUP2 MSTORE PUSH1 0x20 ADD PUSH0 KECCAK256 PUSH0 SWAP1 SLOAD SWAP1 PUSH2 0x100 EXP SWAP1 DIV PUSH1 0xFF AND PUSH2 0x956 JUMPI DUP2 PUSH1 0x40 MLOAD PUSH32 0x87921F5A00000000000000000000000000000000000000000000000000000000 DUP2 MSTORE PUSH1 0x4 ADD PUSH2 0x94D SWAP2 SWAP1 PUSH2 0x307D JUMP JUMPDEST PUSH1 0x40 MLOAD DUP1 SWAP2 SUB SWAP1 REVERT JUMPDEST PUSH0 PUSH1 0x4 PUSH0 DUP5 PUSH20 0xFFFFFFFFFFFFFFFFFFFFFFFFFFFFFFFFFFFFFFFF AND PUSH20 0xFFFFFFFFFFFFFFFFFFFFFFFFFFFFFFFFFFFFFFFF AND DUP2 MSTORE PUSH1 0x20 ADD SWAP1 DUP2 MSTORE PUSH1 0x20 ADD PUSH0 KECCAK256 PUSH0 PUSH2 0x100 EXP DUP2 SLOAD DUP2 PUSH1 0xFF MUL NOT AND SWAP1 DUP4 ISZERO ISZERO MUL OR SWAP1 SSTORE POP PUSH0 PUSH1 0x5 PUSH0 DUP5 PUSH20 0xFFFFFFFFFFFFFFFFFFFFFFFFFFFFFFFFFFFFFFFF AND PUSH20 0xFFFFFFFFFFFFFFFFFFFFFFFFFFFFFFFFFFFFFFFF AND DUP2 MSTORE PUSH1 0x20 ADD SWAP1 DUP2 MSTORE PUSH1 0x20 ADD PUSH0 KECCAK256 SLOAD SWAP1 POP PUSH0 PUSH1 0x1 PUSH1 0x6 DUP1 SLOAD SWAP1 POP PUSH2 0x9FE SWAP2 SWAP1 PUSH2 0x30F6 JUMP JUMPDEST SWAP1 POP PUSH0 PUSH1 0x6 DUP3 DUP2 SLOAD DUP2 LT PUSH2 0xA15 JUMPI PUSH2 0xA14 PUSH2 0x3129 JUMP JUMPDEST JUMPDEST SWAP1 PUSH0 MSTORE PUSH1 0x20 PUSH0 KECCAK256 ADD PUSH0 SWAP1 SLOAD SWAP1 PUSH2 0x100 EXP SWAP1 DIV PUSH20 0xFFFFFFFFFFFFFFFFFFFFFFFFFFFFFFFFFFFFFFFF AND SWAP1 POP DUP2 DUP4 EQ PUSH2 0xAE3 JUMPI DUP1 PUSH1 0x6 DUP5 DUP2 SLOAD DUP2 LT PUSH2 0xA5B JUMPI PUSH2 0xA5A PUSH2 0x3129 JUMP JUMPDEST JUMPDEST SWAP1 PUSH0 MSTORE PUSH1 0x20 PUSH0 KECCAK256 ADD PUSH0 PUSH2 0x100 EXP DUP2 SLOAD DUP2 PUSH20 0xFFFFFFFFFFFFFFFFFFFFFFFFFFFFFFFFFFFFFFFF MUL NOT AND SWAP1 DUP4 PUSH20 0xFFFFFFFFFFFFFFFFFFFFFFFFFFFFFFFFFFFFFFFF AND MUL OR SWAP1 SSTORE POP DUP3 PUSH1 0x5 PUSH0 DUP4 PUSH20 0xFFFFFFFFFFFFFFFFFFFFFFFFFFFFFFFFFFFFFFFF AND PUSH20 0xFFFFFFFFFFFFFFFFFFFFFFFFFFFFFFFFFFFFFFFF AND DUP2 MSTORE PUSH1 0x20 ADD SWAP1 DUP2 MSTORE PUSH1 0x20 ADD PUSH0 KECCAK256 DUP2 SWAP1 SSTORE POP JUMPDEST PUSH1 0x6 DUP1 SLOAD DUP1 PUSH2 0xAF5 JUMPI PUSH2 0xAF4 PUSH2 0x3156 JUMP JUMPDEST JUMPDEST PUSH1 0x1 SWAP1 SUB DUP2 DUP2 SWAP1 PUSH0 MSTORE PUSH1 0x20 PUSH0 KECCAK256 ADD PUSH0 PUSH2 0x100 EXP DUP2 SLOAD SWAP1 PUSH20 0xFFFFFFFFFFFFFFFFFFFFFFFFFFFFFFFFFFFFFFFF MUL NOT AND SWAP1 SSTORE SWAP1 SSTORE PUSH1 0x5 PUSH0 DUP7 PUSH20 0xFFFFFFFFFFFFFFFFFFFFFFFFFFFFFFFFFFFFFFFF AND PUSH20 0xFFFFFFFFFFFFFFFFFFFFFFFFFFFFFFFFFFFFFFFF AND DUP2 MSTORE PUSH1 0x20 ADD SWAP1 DUP2 MSTORE PUSH1 0x20 ADD PUSH0 KECCAK256 PUSH0 SWAP1 SSTORE DUP5 PUSH20 0xFFFFFFFFFFFFFFFFFFFFFFFFFFFFFFFFFFFFFFFF AND PUSH32 0x45F62F30E7B8439E0DA7D8E560FE39D01238091CE9E789E3D12B514EDF98ACEA PUSH1 0x40 MLOAD PUSH1 0x40 MLOAD DUP1 SWAP2 SUB SWAP1 LOG2 POP POP POP POP POP JUMP JUMPDEST PUSH0 DUP2 PUSH0 PUSH20 0xFFFFFFFFFFFFFFFFFFFFFFFFFFFFFFFFFFFFFFFF AND DUP2 PUSH20 0xFFFFFFFFFFFFFFFFFFFFFFFFFFFFFFFFFFFFFFFF AND SUB PUSH2 0xC23 JUMPI DUP1 PUSH1 0x40 MLOAD PUSH32 0x8E4C8AA600000000000000000000000000000000000000000000000000000000 DUP2 MSTORE PUSH1 0x4 ADD PUSH2 0xC1A SWAP2 SWAP1 PUSH2 0x307D JUMP JUMPDEST PUSH1 0x40 MLOAD DUP1 SWAP2 SUB SWAP1 REVERT JUMPDEST PUSH0 PUSH1 0x3 PUSH0 DUP6 PUSH20 0xFFFFFFFFFFFFFFFFFFFFFFFFFFFFFFFFFFFFFFFF AND PUSH20 0xFFFFFFFFFFFFFFFFFFFFFFFFFFFFFFFFFFFFFFFF AND DUP2 MSTORE PUSH1 0x20 ADD SWAP1 DUP2 MSTORE PUSH1 0x20 ADD PUSH0 KECCAK256 PUSH0 SWAP1 SLOAD SWAP1 PUSH2 0x100 EXP SWAP1 DIV PUSH20 0xFFFFFFFFFFFFFFFFFFFFFFFFFFFFFFFFFFFFFFFF AND SWAP1 POP PUSH0 PUSH20 0xFFFFFFFFFFFFFFFFFFFFFFFFFFFFFFFFFFFFFFFF AND DUP2 PUSH20 0xFFFFFFFFFFFFFFFFFFFFFFFFFFFFFFFFFFFFFFFF AND SUB PUSH2 0xCF3 JUMPI DUP1 PUSH1 0x40 MLOAD PUSH32 0x8E4C8AA600000000000000000000000000000000000000000000000000000000 DUP2 MSTORE PUSH1 0x4 ADD PUSH2 0xCEA SWAP2 SWAP1 PUSH2 0x307D JUMP JUMPDEST PUSH1 0x40 MLOAD DUP1 SWAP2 SUB SWAP1 REVERT JUMPDEST PUSH0 DUP2 SWAP1 POP PUSH0 PUSH0 PUSH0 PUSH0 DUP5 PUSH20 0xFFFFFFFFFFFFFFFFFFFFFFFFFFFFFFFFFFFFFFFF AND PUSH4 0xFEAF968C PUSH1 0x40 MLOAD DUP2 PUSH4 0xFFFFFFFF AND PUSH1 0xE0 SHL DUP2 MSTORE PUSH1 0x4 ADD PUSH1 0xA0 PUSH1 0x40 MLOAD DUP1 DUP4 SUB DUP2 DUP7 GAS STATICCALL ISZERO DUP1 ISZERO PUSH2 0xD44 JUMPI RETURNDATASIZE PUSH0 PUSH0 RETURNDATACOPY RETURNDATASIZE PUSH0 REVERT JUMPDEST POP POP POP POP PUSH1 0x40 MLOAD RETURNDATASIZE PUSH1 0x1F NOT PUSH1 0x1F DUP3 ADD AND DUP3 ADD DUP1 PUSH1 0x40 MSTORE POP DUP2 ADD SWAP1 PUSH2 0xD68 SWAP2 SWAP1 PUSH2 0x3209 JUMP JUMPDEST SWAP5 POP SWAP5 POP POP SWAP4 POP SWAP4 POP PUSH0 DUP4 SGT PUSH2 0xDB5 JUMPI DUP3 PUSH1 0x40 MLOAD PUSH32 0xB4E8AE1100000000000000000000000000000000000000000000000000000000 DUP2 MSTORE PUSH1 0x4 ADD PUSH2 0xDAC SWAP2 SWAP1 PUSH2 0x328F JUMP JUMPDEST PUSH1 0x40 MLOAD DUP1 SWAP2 SUB SWAP1 REVERT JUMPDEST DUP4 PUSH10 0xFFFFFFFFFFFFFFFFFFFF AND DUP2 PUSH10 0xFFFFFFFFFFFFFFFFFFFF AND LT ISZERO PUSH2 0xE07 JUMPI PUSH1 0x40 MLOAD PUSH32 0xEB8EEC2E00000000000000000000000000000000000000000000000000000000 DUP2 MSTORE PUSH1 0x4 ADD PUSH1 0x40 MLOAD DUP1 SWAP2 SUB SWAP1 REVERT JUMPDEST PUSH0 DUP3 EQ DUP1 PUSH2 0xE22 JUMPI POP PUSH2 0xE10 DUP3 TIMESTAMP PUSH2 0xE1F SWAP2 SWAP1 PUSH2 0x30F6 JUMP JUMPDEST LT ISZERO JUMPDEST ISZERO PUSH2 0xE64 JUMPI DUP2 PUSH1 0x40 MLOAD PUSH32 0x3B90DD8B00000000000000000000000000000000000000000000000000000000 DUP2 MSTORE PUSH1 0x4 ADD PUSH2 0xE5B SWAP2 SWAP1 PUSH2 0x2F76 JUMP JUMPDEST PUSH1 0x40 MLOAD DUP1 SWAP2 SUB SWAP1 REVERT JUMPDEST PUSH0 DUP6 PUSH20 0xFFFFFFFFFFFFFFFFFFFFFFFFFFFFFFFFFFFFFFFF AND PUSH4 0x313CE567 PUSH1 0x40 MLOAD DUP2 PUSH4 0xFFFFFFFF AND PUSH1 0xE0 SHL DUP2 MSTORE PUSH1 0x4 ADD PUSH1 0x20 PUSH1 0x40 MLOAD DUP1 DUP4 SUB DUP2 DUP7 GAS STATICCALL ISZERO DUP1 ISZERO PUSH2 0xEAE JUMPI RETURNDATASIZE PUSH0 PUSH0 RETURNDATACOPY RETURNDATASIZE PUSH0 REVERT JUMPDEST POP POP POP POP PUSH1 0x40 MLOAD RETURNDATASIZE PUSH1 0x1F NOT PUSH1 0x1F DUP3 ADD AND DUP3 ADD DUP1 PUSH1 0x40 MSTORE POP DUP2 ADD SWAP1 PUSH2 0xED2 SWAP2 SWAP1 PUSH2 0x32DE JUMP JUMPDEST PUSH1 0xFF AND SWAP1 POP PUSH1 0x12 DUP2 GT ISZERO PUSH2 0xF12 JUMPI PUSH1 0x40 MLOAD PUSH32 0xD25598A000000000000000000000000000000000000000000000000000000000 DUP2 MSTORE PUSH1 0x4 ADD PUSH1 0x40 MLOAD DUP1 SWAP2 SUB SWAP1 REVERT JUMPDEST DUP1 PUSH1 0x12 PUSH2 0xF1F SWAP2 SWAP1 PUSH2 0x30F6 JUMP JUMPDEST PUSH1 0xA PUSH2 0xF2B SWAP2 SWAP1 PUSH2 0x3438 JUMP JUMPDEST DUP5 PUSH2 0xF36 SWAP2 SWAP1 PUSH2 0x3482 JUMP JUMPDEST SWAP9 POP POP POP POP POP POP POP POP POP SWAP2 SWAP1 POP JUMP JUMPDEST PUSH2 0xF4D PUSH2 0x2A8F JUMP JUMPDEST DUP1 PUSH0 DUP2 SUB PUSH2 0xF87 JUMPI PUSH1 0x40 MLOAD PUSH32 0x2C5211C600000000000000000000000000000000000000000000000000000000 DUP2 MSTORE PUSH1 0x4 ADD PUSH1 0x40 MLOAD DUP1 SWAP2 SUB SWAP1 REVERT JUMPDEST PUSH2 0x2710 DUP3 GT ISZERO PUSH2 0xFCE JUMPI DUP2 PUSH1 0x40 MLOAD PUSH32 0x45C57AAC00000000000000000000000000000000000000000000000000000000 DUP2 MSTORE PUSH1 0x4 ADD PUSH2 0xFC5 SWAP2 SWAP1 PUSH2 0x2F76 JUMP JUMPDEST PUSH1 0x40 MLOAD DUP1 SWAP2 SUB SWAP1 REVERT JUMPDEST DUP2 PUSH1 0x9 DUP2 SWAP1 SSTORE POP PUSH32 0x4A7CA0E55F887A637B560614F621B92B79423E20152FEA70BC4BE66EDAEE3D6 DUP3 PUSH1 0x40 MLOAD PUSH2 0x1004 SWAP2 SWAP1 PUSH2 0x2F76 JUMP JUMPDEST PUSH1 0x40 MLOAD DUP1 SWAP2 SUB SWAP1 LOG1 POP POP JUMP JUMPDEST PUSH0 DUP2 PUSH0 PUSH20 0xFFFFFFFFFFFFFFFFFFFFFFFFFFFFFFFFFFFFFFFF AND DUP2 PUSH20 0xFFFFFFFFFFFFFFFFFFFFFFFFFFFFFFFFFFFFFFFF AND SUB PUSH2 0x1082 JUMPI DUP1 PUSH1 0x40 MLOAD PUSH32 0x8E4C8AA600000000000000000000000000000000000000000000000000000000 DUP2 MSTORE PUSH1 0x4 ADD PUSH2 0x1079 SWAP2 SWAP1 PUSH2 0x307D JUMP JUMPDEST PUSH1 0x40 MLOAD DUP1 SWAP2 SUB SWAP1 REVERT JUMPDEST PUSH0 DUP4 SWAP1 POP DUP1 PUSH20 0xFFFFFFFFFFFFFFFFFFFFFFFFFFFFFFFFFFFFFFFF AND PUSH4 0x70A08231 ADDRESS PUSH1 0x40 MLOAD DUP3 PUSH4 0xFFFFFFFF AND PUSH1 0xE0 SHL DUP2 MSTORE PUSH1 0x4 ADD PUSH2 0x10BF SWAP2 SWAP1 PUSH2 0x307D JUMP JUMPDEST PUSH1 0x20 PUSH1 0x40 MLOAD DUP1 DUP4 SUB DUP2 DUP7 GAS STATICCALL ISZERO DUP1 ISZERO PUSH2 0x10DA JUMPI RETURNDATASIZE PUSH0 PUSH0 RETURNDATACOPY RETURNDATASIZE PUSH0 REVERT JUMPDEST POP POP POP POP PUSH1 0x40 MLOAD RETURNDATASIZE PUSH1 0x1F NOT PUSH1 0x1F DUP3 ADD AND DUP3 ADD DUP1 PUSH1 0x40 MSTORE POP DUP2 ADD SWAP1 PUSH2 0x10FE SWAP2 SWAP1 PUSH2 0x34C3 JUMP JUMPDEST SWAP3 POP POP POP SWAP2 SWAP1 POP JUMP JUMPDEST PUSH2 0x110F PUSH2 0x2A8F JUMP JUMPDEST DUP2 PUSH0 PUSH20 0xFFFFFFFFFFFFFFFFFFFFFFFFFFFFFFFFFFFFFFFF AND DUP2 PUSH20 0xFFFFFFFFFFFFFFFFFFFFFFFFFFFFFFFFFFFFFFFF AND SUB PUSH2 0x1180 JUMPI DUP1 PUSH1 0x40 MLOAD PUSH32 0x8E4C8AA600000000000000000000000000000000000000000000000000000000 DUP2 MSTORE PUSH1 0x4 ADD PUSH2 0x1177 SWAP2 SWAP1 PUSH2 0x307D JUMP JUMPDEST PUSH1 0x40 MLOAD DUP1 SWAP2 SUB SWAP1 REVERT JUMPDEST DUP2 PUSH0 PUSH20 0xFFFFFFFFFFFFFFFFFFFFFFFFFFFFFFFFFFFFFFFF AND DUP2 PUSH20 0xFFFFFFFFFFFFFFFFFFFFFFFFFFFFFFFFFFFFFFFF AND SUB PUSH2 0x11F1 JUMPI DUP1 PUSH1 0x40 MLOAD PUSH32 0x8E4C8AA600000000000000000000000000000000000000000000000000000000 DUP2 MSTORE PUSH1 0x4 ADD PUSH2 0x11E8 SWAP2 SWAP1 PUSH2 0x307D JUMP JUMPDEST PUSH1 0x40 MLOAD DUP1 SWAP2 SUB SWAP1 REVERT JUMPDEST DUP3 PUSH1 0x3 PUSH0 DUP7 PUSH20 0xFFFFFFFFFFFFFFFFFFFFFFFFFFFFFFFFFFFFFFFF AND PUSH20 0xFFFFFFFFFFFFFFFFFFFFFFFFFFFFFFFFFFFFFFFF AND DUP2 MSTORE PUSH1 0x20 ADD SWAP1 DUP2 MSTORE PUSH1 0x20 ADD PUSH0 KECCAK256 PUSH0 PUSH2 0x100 EXP DUP2 SLOAD DUP2 PUSH20 0xFFFFFFFFFFFFFFFFFFFFFFFFFFFFFFFFFFFFFFFF MUL NOT AND SWAP1 DUP4 PUSH20 0xFFFFFFFFFFFFFFFFFFFFFFFFFFFFFFFFFFFFFFFF AND MUL OR SWAP1 SSTORE POP DUP3 PUSH20 0xFFFFFFFFFFFFFFFFFFFFFFFFFFFFFFFFFFFFFFFF AND DUP5 PUSH20 0xFFFFFFFFFFFFFFFFFFFFFFFFFFFFFFFFFFFFFFFF AND PUSH32 0xA8ABE0398416476DB5B05737CD4DA3B3CBDE5012D978A6A6C3FD49D321753536 PUSH1 0x40 MLOAD PUSH1 0x40 MLOAD DUP1 SWAP2 SUB SWAP1 LOG3 POP POP POP POP JUMP JUMPDEST PUSH1 0x5 PUSH1 0x20 MSTORE DUP1 PUSH0 MSTORE PUSH1 0x40 PUSH0 KECCAK256 PUSH0 SWAP2 POP SWAP1 POP SLOAD DUP2 JUMP JUMPDEST PUSH0 PUSH1 0x6 DUP1 SLOAD SWAP1 POP SWAP1 POP SWAP1 JUMP JUMPDEST PUSH0 SELFBALANCE SWAP1 POP SWAP1 JUMP JUMPDEST PUSH1 0x4 PUSH1 0x20 MSTORE DUP1 PUSH0 MSTORE PUSH1 0x40 PUSH0 KECCAK256 PUSH0 SWAP2 POP SLOAD SWAP1 PUSH2 0x100 EXP SWAP1 DIV PUSH1 0xFF AND DUP2 JUMP JUMPDEST PUSH0 PUSH0 PUSH0 PUSH0 PUSH0 PUSH1 0x2 PUSH0 DUP8 PUSH20 0xFFFFFFFFFFFFFFFFFFFFFFFFFFFFFFFFFFFFFFFF AND PUSH20 0xFFFFFFFFFFFFFFFFFFFFFFFFFFFFFFFFFFFFFFFF AND DUP2 MSTORE PUSH1 0x20 ADD SWAP1 DUP2 MSTORE PUSH1 0x20 ADD PUSH0 KECCAK256 SWAP1 POP DUP1 PUSH0 ADD PUSH0 SWAP1 SLOAD SWAP1 PUSH2 0x100 EXP SWAP1 DIV PUSH20 0xFFFFFFFFFFFFFFFFFFFFFFFFFFFFFFFFFFFFFFFF AND DUP2 PUSH1 0x1 ADD SLOAD DUP3 PUSH1 0x2 ADD PUSH0 SWAP1 SLOAD SWAP1 PUSH2 0x100 EXP SWAP1 DIV PUSH20 0xFFFFFFFFFFFFFFFFFFFFFFFFFFFFFFFFFFFFFFFF AND DUP4 PUSH1 0x3 ADD SLOAD SWAP5 POP SWAP5 POP SWAP5 POP SWAP5 POP POP SWAP2 SWAP4 POP SWAP2 SWAP4 JUMP JUMPDEST PUSH2 0x13BE PUSH2 0x2A8F JUMP JUMPDEST PUSH2 0x13C7 PUSH0 PUSH2 0x2B16 JUMP JUMPDEST JUMP JUMPDEST PUSH0 CALLVALUE SUB PUSH2 0x1402 JUMPI PUSH1 0x40 MLOAD PUSH32 0xB016BE5E00000000000000000000000000000000000000000000000000000000 DUP2 MSTORE PUSH1 0x4 ADD PUSH1 0x40 MLOAD DUP1 SWAP2 SUB SWAP1 REVERT JUMPDEST PUSH0 PUSH2 0x140C CALLER PUSH2 0x2644 JUMP JUMPDEST SWAP1 POP CALLVALUE DUP2 PUSH1 0x1 ADD PUSH0 DUP3 DUP3 SLOAD PUSH2 0x1421 SWAP2 SWAP1 PUSH2 0x30C3 JUMP JUMPDEST SWAP3 POP POP DUP2 SWAP1 SSTORE POP PUSH1 0x7 PUSH0 SWAP1 SLOAD SWAP1 PUSH2 0x100 EXP SWAP1 DIV PUSH20 0xFFFFFFFFFFFFFFFFFFFFFFFFFFFFFFFFFFFFFFFF AND DUP2 PUSH0 ADD PUSH0 PUSH2 0x100 EXP DUP2 SLOAD DUP2 PUSH20 0xFFFFFFFFFFFFFFFFFFFFFFFFFFFFFFFFFFFFFFFF MUL NOT AND SWAP1 DUP4 PUSH20 0xFFFFFFFFFFFFFFFFFFFFFFFFFFFFFFFFFFFFFFFF AND MUL OR SWAP1 SSTORE POP CALLER PUSH20 0xFFFFFFFFFFFFFFFFFFFFFFFFFFFFFFFFFFFFFFFF AND PUSH32 0x1C0917C3A343A300B56473C59FA8355D3326F2C73472679A5B4CD5D6E0390C80 CALLVALUE PUSH1 0x40 MLOAD PUSH2 0x14D0 SWAP2 SWAP1 PUSH2 0x2F76 JUMP JUMPDEST PUSH1 0x40 MLOAD DUP1 SWAP2 SUB SWAP1 LOG2 POP JUMP JUMPDEST PUSH2 0x14E3 PUSH2 0x2A8F JUMP JUMPDEST DUP1 PUSH0 PUSH20 0xFFFFFFFFFFFFFFFFFFFFFFFFFFFFFFFFFFFFFFFF AND DUP2 PUSH20 0xFFFFFFFFFFFFFFFFFFFFFFFFFFFFFFFFFFFFFFFF AND SUB PUSH2 0x1554 JUMPI DUP1 PUSH1 0x40 MLOAD PUSH32 0x8E4C8AA600000000000000000000000000000000000000000000000000000000 DUP2 MSTORE PUSH1 0x4 ADD PUSH2 0x154B SWAP2 SWAP1 PUSH2 0x307D JUMP JUMPDEST PUSH1 0x40 MLOAD DUP1 SWAP2 SUB SWAP1 REVERT JUMPDEST PUSH1 0x4 PUSH0 DUP4 PUSH20 0xFFFFFFFFFFFFFFFFFFFFFFFFFFFFFFFFFFFFFFFF AND PUSH20 0xFFFFFFFFFFFFFFFFFFFFFFFFFFFFFFFFFFFFFFFF AND DUP2 MSTORE PUSH1 0x20 ADD SWAP1 DUP2 MSTORE PUSH1 0x20 ADD PUSH0 KECCAK256 PUSH0 SWAP1 SLOAD SWAP1 PUSH2 0x100 EXP SWAP1 DIV PUSH1 0xFF AND ISZERO PUSH2 0x15E0 JUMPI DUP2 PUSH1 0x40 MLOAD PUSH32 0x7664204700000000000000000000000000000000000000000000000000000000 DUP2 MSTORE PUSH1 0x4 ADD PUSH2 0x15D7 SWAP2 SWAP1 PUSH2 0x307D JUMP JUMPDEST PUSH1 0x40 MLOAD DUP1 SWAP2 SUB SWAP1 REVERT JUMPDEST PUSH1 0x1 PUSH1 0x4 PUSH0 DUP5 PUSH20 0xFFFFFFFFFFFFFFFFFFFFFFFFFFFFFFFFFFFFFFFF AND PUSH20 0xFFFFFFFFFFFFFFFFFFFFFFFFFFFFFFFFFFFFFFFF AND DUP2 MSTORE PUSH1 0x20 ADD SWAP1 DUP2 MSTORE PUSH1 0x20 ADD PUSH0 KECCAK256 PUSH0 PUSH2 0x100 EXP DUP2 SLOAD DUP2 PUSH1 0xFF MUL NOT AND SWAP1 DUP4 ISZERO ISZERO MUL OR SWAP1 SSTORE POP PUSH1 0x6 DUP1 SLOAD SWAP1 POP PUSH1 0x5 PUSH0 DUP5 PUSH20 0xFFFFFFFFFFFFFFFFFFFFFFFFFFFFFFFFFFFFFFFF AND PUSH20 0xFFFFFFFFFFFFFFFFFFFFFFFFFFFFFFFFFFFFFFFF AND DUP2 MSTORE PUSH1 0x20 ADD SWAP1 DUP2 MSTORE PUSH1 0x20 ADD PUSH0 KECCAK256 DUP2 SWAP1 SSTORE POP PUSH1 0x6 DUP3 SWAP1 DUP1 PUSH1 0x1 DUP2 SLOAD ADD DUP1 DUP3 SSTORE DUP1 SWAP2 POP POP PUSH1 0x1 SWAP1 SUB SWAP1 PUSH0 MSTORE PUSH1 0x20 PUSH0 KECCAK256 ADD PUSH0 SWAP1 SWAP2 SWAP1 SWAP2 SWAP1 SWAP2 PUSH2 0x100 EXP DUP2 SLOAD DUP2 PUSH20 0xFFFFFFFFFFFFFFFFFFFFFFFFFFFFFFFFFFFFFFFF MUL NOT AND SWAP1 DUP4 PUSH20 0xFFFFFFFFFFFFFFFFFFFFFFFFFFFFFFFFFFFFFFFF AND MUL OR SWAP1 SSTORE POP DUP2 PUSH20 0xFFFFFFFFFFFFFFFFFFFFFFFFFFFFFFFFFFFFFFFF AND PUSH32 0x26283404367CFFC0443317066C3531D3DB2306AD6E65AA1BEE91DBE98C615A1 PUSH1 0x40 MLOAD PUSH1 0x40 MLOAD DUP1 SWAP2 SUB SWAP1 LOG2 POP POP JUMP JUMPDEST PUSH0 PUSH1 0x1 PUSH0 SWAP1 SLOAD SWAP1 PUSH2 0x100 EXP SWAP1 DIV PUSH20 0xFFFFFFFFFFFFFFFFFFFFFFFFFFFFFFFFFFFFFFFF AND SWAP1 POP SWAP1 JUMP JUMPDEST PUSH1 0x6 DUP2 DUP2 SLOAD DUP2 LT PUSH2 0x175A JUMPI PUSH0 DUP1 REVERT JUMPDEST SWAP1 PUSH0 MSTORE PUSH1 0x20 PUSH0 KECCAK256 ADD PUSH0 SWAP2 POP SLOAD SWAP1 PUSH2 0x100 EXP SWAP1 DIV PUSH20 0xFFFFFFFFFFFFFFFFFFFFFFFFFFFFFFFFFFFFFFFF AND DUP2 JUMP JUMPDEST PUSH0 DUP2 PUSH0 PUSH20 0xFFFFFFFFFFFFFFFFFFFFFFFFFFFFFFFFFFFFFFFF AND DUP2 PUSH20 0xFFFFFFFFFFFFFFFFFFFFFFFFFFFFFFFFFFFFFFFF AND SUB PUSH2 0x17F8 JUMPI DUP1 PUSH1 0x40 MLOAD PUSH32 0x8E4C8AA600000000000000000000000000000000000000000000000000000000 DUP2 MSTORE PUSH1 0x4 ADD PUSH2 0x17EF SWAP2 SWAP1 PUSH2 0x307D JUMP JUMPDEST PUSH1 0x40 MLOAD DUP1 SWAP2 SUB SWAP1 REVERT JUMPDEST PUSH1 0x4 PUSH0 DUP5 PUSH20 0xFFFFFFFFFFFFFFFFFFFFFFFFFFFFFFFFFFFFFFFF AND PUSH20 0xFFFFFFFFFFFFFFFFFFFFFFFFFFFFFFFFFFFFFFFF AND DUP2 MSTORE PUSH1 0x20 ADD SWAP1 DUP2 MSTORE PUSH1 0x20 ADD PUSH0 KECCAK256 PUSH0 SWAP1 SLOAD SWAP1 PUSH2 0x100 EXP SWAP1 DIV PUSH1 0xFF AND SWAP2 POP POP SWAP2 SWAP1 POP JUMP JUMPDEST PUSH1 0x3 PUSH1 0x20 MSTORE DUP1 PUSH0 MSTORE PUSH1 0x40 PUSH0 KECCAK256 PUSH0 SWAP2 POP SLOAD SWAP1 PUSH2 0x100 EXP SWAP1 DIV PUSH20 0xFFFFFFFFFFFFFFFFFFFFFFFFFFFFFFFFFFFFFFFF AND DUP2 JUMP JUMPDEST PUSH2 0x1882 PUSH2 0x2A8F JUMP JUMPDEST DUP1 PUSH0 DUP2 SUB PUSH2 0x18BC JUMPI PUSH1 0x40 MLOAD PUSH32 0x2C5211C600000000000000000000000000000000000000000000000000000000 DUP2 MSTORE PUSH1 0x4 ADD PUSH1 0x40 MLOAD DUP1 SWAP2 SUB SWAP1 REVERT JUMPDEST PUSH0 DUP3 EQ DUP1 PUSH2 0x18CB JUMPI POP PUSH2 0x2710 DUP3 GT JUMPDEST DUP1 PUSH2 0x18D7 JUMPI POP PUSH2 0x1D4C DUP3 GT JUMPDEST ISZERO PUSH2 0x1919 JUMPI DUP2 PUSH1 0x40 MLOAD PUSH32 0x78DC164F00000000000000000000000000000000000000000000000000000000 DUP2 MSTORE PUSH1 0x4 ADD PUSH2 0x1910 SWAP2 SWAP1 PUSH2 0x2F76 JUMP JUMPDEST PUSH1 0x40 MLOAD DUP1 SWAP2 SUB SWAP1 REVERT JUMPDEST DUP2 PUSH1 0x8 DUP2 SWAP1 SSTORE POP PUSH32 0xCCE25C35B561657FB7CD2AC403C6A4854283D0F4D462E68E0F97D07C348BCFF2 DUP3 PUSH1 0x40 MLOAD PUSH2 0x194F SWAP2 SWAP1 PUSH2 0x2F76 JUMP JUMPDEST PUSH1 0x40 MLOAD DUP1 SWAP2 SUB SWAP1 LOG1 POP POP JUMP JUMPDEST PUSH1 0x2 PUSH1 0x20 MSTORE DUP1 PUSH0 MSTORE PUSH1 0x40 PUSH0 KECCAK256 PUSH0 SWAP2 POP SWAP1 POP DUP1 PUSH0 ADD PUSH0 SWAP1 SLOAD SWAP1 PUSH2 0x100 EXP SWAP1 DIV PUSH20 0xFFFFFFFFFFFFFFFFFFFFFFFFFFFFFFFFFFFFFFFF AND SWAP1 DUP1 PUSH1 0x1 ADD SLOAD SWAP1 DUP1 PUSH1 0x2 ADD PUSH0 SWAP1 SLOAD SWAP1 PUSH2 0x100 EXP SWAP1 DIV PUSH20 0xFFFFFFFFFFFFFFFFFFFFFFFFFFFFFFFFFFFFFFFF AND SWAP1 DUP1 PUSH1 0x3 ADD SLOAD SWAP1 POP DUP5 JUMP JUMPDEST DUP2 PUSH0 PUSH20 0xFFFFFFFFFFFFFFFFFFFFFFFFFFFFFFFFFFFFFFFF AND DUP2 PUSH20 0xFFFFFFFFFFFFFFFFFFFFFFFFFFFFFFFFFFFFFFFF AND SUB PUSH2 0x1A36 JUMPI DUP1 PUSH1 0x40 MLOAD PUSH32 0x8E4C8AA600000000000000000000000000000000000000000000000000000000 DUP2 MSTORE PUSH1 0x4 ADD PUSH2 0x1A2D SWAP2 SWAP1 PUSH2 0x307D JUMP JUMPDEST PUSH1 0x40 MLOAD DUP1 SWAP2 SUB SWAP1 REVERT JUMPDEST DUP2 PUSH0 DUP2 SUB PUSH2 0x1A70 JUMPI PUSH1 0x40 MLOAD PUSH32 0x2C5211C600000000000000000000000000000000000000000000000000000000 DUP2 MSTORE PUSH1 0x4 ADD PUSH1 0x40 MLOAD DUP1 SWAP2 SUB SWAP1 REVERT JUMPDEST DUP4 PUSH1 0x4 PUSH0 DUP3 PUSH20 0xFFFFFFFFFFFFFFFFFFFFFFFFFFFFFFFFFFFFFFFF AND PUSH20 0xFFFFFFFFFFFFFFFFFFFFFFFFFFFFFFFFFFFFFFFF AND DUP2 MSTORE PUSH1 0x20 ADD SWAP1 DUP2 MSTORE PUSH1 0x20 ADD PUSH0 KECCAK256 PUSH0 SWAP1 SLOAD SWAP1 PUSH2 0x100 EXP SWAP1 DIV PUSH1 0xFF AND PUSH2 0x1AFC JUMPI DUP1 PUSH1 0x40 MLOAD PUSH32 0x87921F5A00000000000000000000000000000000000000000000000000000000 DUP2 MSTORE PUSH1 0x4 ADD PUSH2 0x1AF3 SWAP2 SWAP1 PUSH2 0x307D JUMP JUMPDEST PUSH1 0x40 MLOAD DUP1 SWAP2 SUB SWAP1 REVERT JUMPDEST PUSH0 PUSH2 0x1B06 CALLER PUSH2 0x2644 JUMP JUMPDEST SWAP1 POP PUSH2 0x1B11 CALLER PUSH2 0x2BD9 JUMP JUMPDEST PUSH2 0x1B47 JUMPI PUSH1 0x40 MLOAD PUSH32 0x33CBF2BC00000000000000000000000000000000000000000000000000000000 DUP2 MSTORE PUSH1 0x4 ADD PUSH1 0x40 MLOAD DUP1 SWAP2 SUB SWAP1 REVERT JUMPDEST PUSH2 0x1B51 CALLER DUP8 PUSH2 0x2C24 JUMP JUMPDEST PUSH2 0x1B92 JUMPI DUP6 PUSH1 0x40 MLOAD PUSH32 0x6F79C78A00000000000000000000000000000000000000000000000000000000 DUP2 MSTORE PUSH1 0x4 ADD PUSH2 0x1B89 SWAP2 SWAP1 PUSH2 0x307D JUMP JUMPDEST PUSH1 0x40 MLOAD DUP1 SWAP2 SUB SWAP1 REVERT JUMPDEST DUP1 PUSH1 0x3 ADD SLOAD DUP6 GT ISZERO PUSH2 0x1BE1 JUMPI DUP5 DUP2 PUSH1 0x3 ADD SLOAD PUSH1 0x40 MLOAD PUSH32 0x99BCD81300000000000000000000000000000000000000000000000000000000 DUP2 MSTORE PUSH1 0x4 ADD PUSH2 0x1BD8 SWAP3 SWAP2 SWAP1 PUSH2 0x34EE JUMP JUMPDEST PUSH1 0x40 MLOAD DUP1 SWAP2 SUB SWAP1 REVERT JUMPDEST DUP1 PUSH1 0x2 ADD PUSH0 SWAP1 SLOAD SWAP1 PUSH2 0x100 EXP SWAP1 DIV PUSH20 0xFFFFFFFFFFFFFFFFFFFFFFFFFFFFFFFFFFFFFFFF AND PUSH20 0xFFFFFFFFFFFFFFFFFFFFFFFFFFFFFFFFFFFFFFFF AND PUSH4 0x95EA7B3 ADDRESS DUP8 PUSH1 0x40 MLOAD DUP4 PUSH4 0xFFFFFFFF AND PUSH1 0xE0 SHL DUP2 MSTORE PUSH1 0x4 ADD PUSH2 0x1C3F SWAP3 SWAP2 SWAP1 PUSH2 0x3515 JUMP JUMPDEST PUSH1 0x20 PUSH1 0x40 MLOAD DUP1 DUP4 SUB DUP2 PUSH0 DUP8 GAS CALL ISZERO DUP1 ISZERO PUSH2 0x1C5B JUMPI RETURNDATASIZE PUSH0 PUSH0 RETURNDATACOPY RETURNDATASIZE PUSH0 REVERT JUMPDEST POP POP POP POP PUSH1 0x40 MLOAD RETURNDATASIZE PUSH1 0x1F NOT PUSH1 0x1F DUP3 ADD AND DUP3 ADD DUP1 PUSH1 0x40 MSTORE POP DUP2 ADD SWAP1 PUSH2 0x1C7F SWAP2 SWAP1 PUSH2 0x3566 JUMP JUMPDEST POP PUSH0 DUP2 PUSH1 0x2 ADD PUSH0 SWAP1 SLOAD SWAP1 PUSH2 0x100 EXP SWAP1 DIV PUSH20 0xFFFFFFFFFFFFFFFFFFFFFFFFFFFFFFFFFFFFFFFF AND PUSH20 0xFFFFFFFFFFFFFFFFFFFFFFFFFFFFFFFFFFFFFFFF AND PUSH4 0x23B872DD CALLER ADDRESS DUP10 PUSH1 0x40 MLOAD DUP5 PUSH4 0xFFFFFFFF AND PUSH1 0xE0 SHL DUP2 MSTORE PUSH1 0x4 ADD PUSH2 0x1CE1 SWAP4 SWAP3 SWAP2 SWAP1 PUSH2 0x3591 JUMP JUMPDEST PUSH1 0x20 PUSH1 0x40 MLOAD DUP1 DUP4 SUB DUP2 PUSH0 DUP8 GAS CALL ISZERO DUP1 ISZERO PUSH2 0x1CFD JUMPI RETURNDATASIZE PUSH0 PUSH0 RETURNDATACOPY RETURNDATASIZE PUSH0 REVERT JUMPDEST POP POP POP POP PUSH1 0x40 MLOAD RETURNDATASIZE PUSH1 0x1F NOT PUSH1 0x1F DUP3 ADD AND DUP3 ADD DUP1 PUSH1 0x40 MSTORE POP DUP2 ADD SWAP1 PUSH2 0x1D21 SWAP2 SWAP1 PUSH2 0x3566 JUMP JUMPDEST SWAP1 POP DUP1 PUSH2 0x1D8C JUMPI DUP2 PUSH1 0x2 ADD PUSH0 SWAP1 SLOAD SWAP1 PUSH2 0x100 EXP SWAP1 DIV PUSH20 0xFFFFFFFFFFFFFFFFFFFFFFFFFFFFFFFFFFFFFFFF AND CALLER DUP8 PUSH1 0x40 MLOAD PUSH32 0xBF182BE800000000000000000000000000000000000000000000000000000000 DUP2 MSTORE PUSH1 0x4 ADD PUSH2 0x1D83 SWAP4 SWAP3 SWAP2 SWAP1 PUSH2 0x3591 JUMP JUMPDEST PUSH1 0x40 MLOAD DUP1 SWAP2 SUB SWAP1 REVERT JUMPDEST DUP6 DUP3 PUSH1 0x3 ADD PUSH0 DUP3 DUP3 SLOAD PUSH2 0x1D9F SWAP2 SWAP1 PUSH2 0x30F6 JUMP JUMPDEST SWAP3 POP POP DUP2 SWAP1 SSTORE POP CALLER PUSH20 0xFFFFFFFFFFFFFFFFFFFFFFFFFFFFFFFFFFFFFFFF AND PUSH32 0xB7EFCC12F3D3E74E33995FF303ACA806B9428989809E60A4E5A4D465832966E4 DUP8 PUSH1 0x40 MLOAD PUSH2 0x1DEC SWAP2 SWAP1 PUSH2 0x2F76 JUMP JUMPDEST PUSH1 0x40 MLOAD DUP1 SWAP2 SUB SWAP1 LOG2 POP POP POP POP POP POP POP JUMP JUMPDEST DUP2 PUSH0 PUSH20 0xFFFFFFFFFFFFFFFFFFFFFFFFFFFFFFFFFFFFFFFF AND DUP2 PUSH20 0xFFFFFFFFFFFFFFFFFFFFFFFFFFFFFFFFFFFFFFFF AND SUB PUSH2 0x1E6E JUMPI DUP1 PUSH1 0x40 MLOAD PUSH32 0x8E4C8AA600000000000000000000000000000000000000000000000000000000 DUP2 MSTORE PUSH1 0x4 ADD PUSH2 0x1E65 SWAP2 SWAP1 PUSH2 0x307D JUMP JUMPDEST PUSH1 0x40 MLOAD DUP1 SWAP2 SUB SWAP1 REVERT JUMPDEST DUP2 PUSH0 DUP2 SUB PUSH2 0x1EA8 JUMPI PUSH1 0x40 MLOAD PUSH32 0x2C5211C600000000000000000000000000000000000000000000000000000000 DUP2 MSTORE PUSH1 0x4 ADD PUSH1 0x40 MLOAD DUP1 SWAP2 SUB SWAP1 REVERT JUMPDEST PUSH0 PUSH2 0x1EB2 DUP6 PUSH2 0x2644 JUMP JUMPDEST SWAP1 POP PUSH2 0x1EBD DUP6 PUSH2 0x2BD9 JUMP JUMPDEST PUSH2 0x1EF3 JUMPI PUSH1 0x40 MLOAD PUSH32 0x33CBF2BC00000000000000000000000000000000000000000000000000000000 DUP2 MSTORE PUSH1 0x4 ADD PUSH1 0x40 MLOAD DUP1 SWAP2 SUB SWAP1 REVERT JUMPDEST PUSH0 PUSH2 0x2710 PUSH2 0x1D4C DUP4 PUSH1 0x1 ADD SLOAD PUSH2 0x1F09 SWAP2 SWAP1 PUSH2 0x3482 JUMP JUMPDEST PUSH2 0x1F13 SWAP2 SWAP1 PUSH2 0x35F3 JUMP JUMPDEST SWAP1 POP PUSH0 PUSH8 0xDE0B6B3A7640000 PUSH2 0x1F4B DUP5 PUSH1 0x2 ADD PUSH0 SWAP1 SLOAD SWAP1 PUSH2 0x100 EXP SWAP1 DIV PUSH20 0xFFFFFFFFFFFFFFFFFFFFFFFFFFFFFFFFFFFFFFFF AND PUSH2 0xBB1 JUMP JUMPDEST DUP5 PUSH1 0x3 ADD SLOAD PUSH2 0x1F5A SWAP2 SWAP1 PUSH2 0x3482 JUMP JUMPDEST PUSH2 0x1F64 SWAP2 SWAP1 PUSH2 0x35F3 JUMP JUMPDEST SWAP1 POP DUP2 DUP2 LT ISZERO PUSH2 0x1FAD JUMPI DUP1 DUP3 PUSH1 0x40 MLOAD PUSH32 0xD771D8E900000000000000000000000000000000000000000000000000000000 DUP2 MSTORE PUSH1 0x4 ADD PUSH2 0x1FA4 SWAP3 SWAP2 SWAP1 PUSH2 0x34EE JUMP JUMPDEST PUSH1 0x40 MLOAD DUP1 SWAP2 SUB SWAP1 REVERT JUMPDEST DUP3 PUSH1 0x2 ADD PUSH0 SWAP1 SLOAD SWAP1 PUSH2 0x100 EXP SWAP1 DIV PUSH20 0xFFFFFFFFFFFFFFFFFFFFFFFFFFFFFFFFFFFFFFFF AND PUSH20 0xFFFFFFFFFFFFFFFFFFFFFFFFFFFFFFFFFFFFFFFF AND PUSH4 0x95EA7B3 ADDRESS DUP9 PUSH1 0x40 MLOAD DUP4 PUSH4 0xFFFFFFFF AND PUSH1 0xE0 SHL DUP2 MSTORE PUSH1 0x4 ADD PUSH2 0x200B SWAP3 SWAP2 SWAP1 PUSH2 0x3515 JUMP JUMPDEST PUSH1 0x20 PUSH1 0x40 MLOAD DUP1 DUP4 SUB DUP2 PUSH0 DUP8 GAS CALL ISZERO DUP1 ISZERO PUSH2 0x2027 JUMPI RETURNDATASIZE PUSH0 PUSH0 RETURNDATACOPY RETURNDATASIZE PUSH0 REVERT JUMPDEST POP POP POP POP PUSH1 0x40 MLOAD RETURNDATASIZE PUSH1 0x1F NOT PUSH1 0x1F DUP3 ADD AND DUP3 ADD DUP1 PUSH1 0x40 MSTORE POP DUP2 ADD SWAP1 PUSH2 0x204B SWAP2 SWAP1 PUSH2 0x3566 JUMP JUMPDEST POP PUSH0 DUP4 PUSH1 0x2 ADD PUSH0 SWAP1 SLOAD SWAP1 PUSH2 0x100 EXP SWAP1 DIV PUSH20 0xFFFFFFFFFFFFFFFFFFFFFFFFFFFFFFFFFFFFFFFF AND PUSH20 0xFFFFFFFFFFFFFFFFFFFFFFFFFFFFFFFFFFFFFFFF AND PUSH4 0x23B872DD CALLER ADDRESS DUP11 PUSH1 0x40 MLOAD DUP5 PUSH4 0xFFFFFFFF AND PUSH1 0xE0 SHL DUP2 MSTORE PUSH1 0x4 ADD PUSH2 0x20AD SWAP4 SWAP3 SWAP2 SWAP1 PUSH2 0x3591 JUMP JUMPDEST PUSH1 0x20 PUSH1 0x40 MLOAD DUP1 DUP4 SUB DUP2 PUSH0 DUP8 GAS CALL ISZERO DUP1 ISZERO PUSH2 0x20C9 JUMPI RETURNDATASIZE PUSH0 PUSH0 RETURNDATACOPY RETURNDATASIZE PUSH0 REVERT JUMPDEST POP POP POP POP PUSH1 0x40 MLOAD RETURNDATASIZE PUSH1 0x1F NOT PUSH1 0x1F DUP3 ADD AND DUP3 ADD DUP1 PUSH1 0x40 MSTORE POP DUP2 ADD SWAP1 PUSH2 0x20ED SWAP2 SWAP1 PUSH2 0x3566 JUMP JUMPDEST SWAP1 POP DUP1 PUSH2 0x2158 JUMPI DUP4 PUSH1 0x2 ADD PUSH0 SWAP1 SLOAD SWAP1 PUSH2 0x100 EXP SWAP1 DIV PUSH20 0xFFFFFFFFFFFFFFFFFFFFFFFFFFFFFFFFFFFFFFFF AND CALLER DUP9 PUSH1 0x40 MLOAD PUSH32 0xBF182BE800000000000000000000000000000000000000000000000000000000 DUP2 MSTORE PUSH1 0x4 ADD PUSH2 0x214F SWAP4 SWAP3 SWAP2 SWAP1 PUSH2 0x3591 JUMP JUMPDEST PUSH1 0x40 MLOAD DUP1 SWAP2 SUB SWAP1 REVERT JUMPDEST DUP7 DUP5 PUSH1 0x3 ADD PUSH0 DUP3 DUP3 SLOAD PUSH2 0x216B SWAP2 SWAP1 PUSH2 0x30F6 JUMP JUMPDEST SWAP3 POP POP DUP2 SWAP1 SSTORE POP PUSH0 PUSH2 0x219E DUP6 PUSH0 ADD PUSH0 SWAP1 SLOAD SWAP1 PUSH2 0x100 EXP SWAP1 DIV PUSH20 0xFFFFFFFFFFFFFFFFFFFFFFFFFFFFFFFFFFFFFFFF AND PUSH2 0xBB1 JUMP JUMPDEST PUSH8 0xDE0B6B3A7640000 DUP1 DUP11 PUSH2 0x21B3 SWAP2 SWAP1 PUSH2 0x3482 JUMP JUMPDEST PUSH2 0x21BD SWAP2 SWAP1 PUSH2 0x3482 JUMP JUMPDEST PUSH2 0x21C7 SWAP2 SWAP1 PUSH2 0x35F3 JUMP JUMPDEST SWAP1 POP DUP5 PUSH1 0x1 ADD SLOAD DUP2 GT ISZERO PUSH2 0x21DD JUMPI DUP5 PUSH1 0x1 ADD SLOAD SWAP1 POP JUMPDEST DUP1 DUP6 PUSH1 0x1 ADD PUSH0 DUP3 DUP3 SLOAD PUSH2 0x21F0 SWAP2 SWAP1 PUSH2 0x30F6 JUMP JUMPDEST SWAP3 POP POP DUP2 SWAP1 SSTORE POP PUSH0 CALLER PUSH20 0xFFFFFFFFFFFFFFFFFFFFFFFFFFFFFFFFFFFFFFFF AND DUP3 PUSH1 0x40 MLOAD PUSH2 0x221C SWAP1 PUSH2 0x3650 JUMP JUMPDEST PUSH0 PUSH1 0x40 MLOAD DUP1 DUP4 SUB DUP2 DUP6 DUP8 GAS CALL SWAP3 POP POP POP RETURNDATASIZE DUP1 PUSH0 DUP2 EQ PUSH2 0x2256 JUMPI PUSH1 0x40 MLOAD SWAP2 POP PUSH1 0x1F NOT PUSH1 0x3F RETURNDATASIZE ADD AND DUP3 ADD PUSH1 0x40 MSTORE RETURNDATASIZE DUP3 MSTORE RETURNDATASIZE PUSH0 PUSH1 0x20 DUP5 ADD RETURNDATACOPY PUSH2 0x225B JUMP JUMPDEST PUSH1 0x60 SWAP2 POP JUMPDEST POP POP SWAP1 POP DUP1 PUSH2 0x22A5 JUMPI PUSH0 CALLER DUP4 PUSH1 0x40 MLOAD PUSH32 0xBF182BE800000000000000000000000000000000000000000000000000000000 DUP2 MSTORE PUSH1 0x4 ADD PUSH2 0x229C SWAP4 SWAP3 SWAP2 SWAP1 PUSH2 0x3591 JUMP JUMPDEST PUSH1 0x40 MLOAD DUP1 SWAP2 SUB SWAP1 REVERT JUMPDEST PUSH0 DUP7 PUSH1 0x3 ADD SLOAD EQ DUP1 ISZERO PUSH2 0x22BB JUMPI POP PUSH0 DUP7 PUSH1 0x1 ADD SLOAD EQ JUMPDEST ISZERO PUSH2 0x22CA JUMPI PUSH2 0x22C9 DUP11 PUSH2 0x2CBB JUMP JUMPDEST JUMPDEST POP POP POP POP POP POP POP POP POP POP JUMP JUMPDEST PUSH0 PUSH0 PUSH2 0x22E1 DUP5 PUSH2 0xBB1 JUMP JUMPDEST SWAP1 POP PUSH0 DUP2 SUB PUSH2 0x22F3 JUMPI PUSH0 SWAP2 POP POP PUSH2 0x234B JUMP JUMPDEST PUSH0 PUSH2 0x22FD DUP6 PUSH2 0x2D60 JUMP JUMPDEST SWAP1 POP PUSH0 DUP2 PUSH1 0x12 PUSH2 0x230D SWAP2 SWAP1 PUSH2 0x3664 JUMP JUMPDEST PUSH1 0xA PUSH2 0x2319 SWAP2 SWAP1 PUSH2 0x3698 JUMP JUMPDEST DUP6 PUSH2 0x2324 SWAP2 SWAP1 PUSH2 0x3482 JUMP JUMPDEST SWAP1 POP PUSH8 0xDE0B6B3A7640000 DUP4 DUP3 PUSH2 0x233B SWAP2 SWAP1 PUSH2 0x3482 JUMP JUMPDEST PUSH2 0x2345 SWAP2 SWAP1 PUSH2 0x35F3 JUMP JUMPDEST SWAP4 POP POP POP POP JUMPDEST SWAP3 SWAP2 POP POP JUMP JUMPDEST PUSH2 0x2359 PUSH2 0x25F7 JUMP JUMPDEST DUP1 PUSH0 DUP2 SUB PUSH2 0x2393 JUMPI PUSH1 0x40 MLOAD PUSH32 0x2C5211C600000000000000000000000000000000000000000000000000000000 DUP2 MSTORE PUSH1 0x4 ADD PUSH1 0x40 MLOAD DUP1 SWAP2 SUB SWAP1 REVERT JUMPDEST PUSH0 PUSH2 0x239D CALLER PUSH2 0x2644 JUMP JUMPDEST SWAP1 POP PUSH0 DUP2 PUSH1 0x3 ADD SLOAD EQ PUSH2 0x23EB JUMPI DUP1 PUSH1 0x3 ADD SLOAD PUSH1 0x40 MLOAD PUSH32 0x40A636FB00000000000000000000000000000000000000000000000000000000 DUP2 MSTORE PUSH1 0x4 ADD PUSH2 0x23E2 SWAP2 SWAP1 PUSH2 0x2F76 JUMP JUMPDEST PUSH1 0x40 MLOAD DUP1 SWAP2 SUB SWAP1 REVERT JUMPDEST DUP1 PUSH1 0x1 ADD SLOAD DUP4 GT ISZERO PUSH2 0x243A JUMPI DUP1 PUSH1 0x1 ADD SLOAD DUP4 PUSH1 0x40 MLOAD PUSH32 0x768063DB00000000000000000000000000000000000000000000000000000000 DUP2 MSTORE PUSH1 0x4 ADD PUSH2 0x2431 SWAP3 SWAP2 SWAP1 PUSH2 0x34EE JUMP JUMPDEST PUSH1 0x40 MLOAD DUP1 SWAP2 SUB SWAP1 REVERT JUMPDEST PUSH0 CALLER PUSH20 0xFFFFFFFFFFFFFFFFFFFFFFFFFFFFFFFFFFFFFFFF AND DUP5 PUSH1 0x40 MLOAD PUSH2 0x245F SWAP1 PUSH2 0x3650 JUMP JUMPDEST PUSH0 PUSH1 0x40 MLOAD DUP1 DUP4 SUB DUP2 DUP6 DUP8 GAS CALL SWAP3 POP POP POP RETURNDATASIZE DUP1 PUSH0 DUP2 EQ PUSH2 0x2499 JUMPI PUSH1 0x40 MLOAD SWAP2 POP PUSH1 0x1F NOT PUSH1 0x3F RETURNDATASIZE ADD AND DUP3 ADD PUSH1 0x40 MSTORE RETURNDATASIZE DUP3 MSTORE RETURNDATASIZE PUSH0 PUSH1 0x20 DUP5 ADD RETURNDATACOPY PUSH2 0x249E JUMP JUMPDEST PUSH1 0x60 SWAP2 POP JUMPDEST POP POP SWAP1 POP DUP1 PUSH2 0x24E8 JUMPI PUSH0 CALLER DUP6 PUSH1 0x40 MLOAD PUSH32 0xBF182BE800000000000000000000000000000000000000000000000000000000 DUP2 MSTORE PUSH1 0x4 ADD PUSH2 0x24DF SWAP4 SWAP3 SWAP2 SWAP1 PUSH2 0x3591 JUMP JUMPDEST PUSH1 0x40 MLOAD DUP1 SWAP2 SUB SWAP1 REVERT JUMPDEST DUP4 DUP3 PUSH1 0x1 ADD PUSH0 DUP3 DUP3 SLOAD PUSH2 0x24FB SWAP2 SWAP1 PUSH2 0x30F6 JUMP JUMPDEST SWAP3 POP POP DUP2 SWAP1 SSTORE POP PUSH0 DUP3 PUSH1 0x1 ADD SLOAD SUB PUSH2 0x2517 JUMPI PUSH2 0x2516 CALLER PUSH2 0x2CBB JUMP JUMPDEST JUMPDEST CALLER PUSH20 0xFFFFFFFFFFFFFFFFFFFFFFFFFFFFFFFFFFFFFFFF AND PUSH32 0x5B0743ACABCE0EA09498B3C2598ED444F80EF6513A2029D7D9AAED87064D1EDB DUP6 PUSH1 0x40 MLOAD PUSH2 0x255D SWAP2 SWAP1 PUSH2 0x2F76 JUMP JUMPDEST PUSH1 0x40 MLOAD DUP1 SWAP2 SUB SWAP1 LOG2 POP POP POP PUSH2 0x2570 PUSH2 0x2A86 JUMP JUMPDEST POP JUMP JUMPDEST PUSH2 0x257B PUSH2 0x2A8F JUMP JUMPDEST PUSH0 PUSH20 0xFFFFFFFFFFFFFFFFFFFFFFFFFFFFFFFFFFFFFFFF AND DUP2 PUSH20 0xFFFFFFFFFFFFFFFFFFFFFFFFFFFFFFFFFFFFFFFF AND SUB PUSH2 0x25EB JUMPI PUSH0 PUSH1 0x40 MLOAD PUSH32 0x1E4FBDF700000000000000000000000000000000000000000000000000000000 DUP2 MSTORE PUSH1 0x4 ADD PUSH2 0x25E2 SWAP2 SWAP1 PUSH2 0x307D JUMP JUMPDEST PUSH1 0x40 MLOAD DUP1 SWAP2 SUB SWAP1 REVERT JUMPDEST PUSH2 0x25F4 DUP2 PUSH2 0x2B16 JUMP JUMPDEST POP JUMP JUMPDEST PUSH1 0x2 PUSH0 SLOAD SUB PUSH2 0x263B JUMPI PUSH1 0x40 MLOAD PUSH32 0x8C379A000000000000000000000000000000000000000000000000000000000 DUP2 MSTORE PUSH1 0x4 ADD PUSH2 0x2632 SWAP1 PUSH2 0x373C JUMP JUMPDEST PUSH1 0x40 MLOAD DUP1 SWAP2 SUB SWAP1 REVERT JUMPDEST PUSH1 0x2 PUSH0 DUP2 SWAP1 SSTORE POP JUMP JUMPDEST PUSH0 PUSH1 0x2 PUSH0 DUP4 PUSH20 0xFFFFFFFFFFFFFFFFFFFFFFFFFFFFFFFFFFFFFFFF AND PUSH20 0xFFFFFFFFFFFFFFFFFFFFFFFFFFFFFFFFFFFFFFFF AND DUP2 MSTORE PUSH1 0x20 ADD SWAP1 DUP2 MSTORE PUSH1 0x20 ADD PUSH0 KECCAK256 SWAP1 POP SWAP2 SWAP1 POP JUMP JUMPDEST PUSH0 PUSH0 PUSH1 0x2 PUSH0 DUP5 PUSH20 0xFFFFFFFFFFFFFFFFFFFFFFFFFFFFFFFFFFFFFFFF AND PUSH20 0xFFFFFFFFFFFFFFFFFFFFFFFFFFFFFFFFFFFFFFFF AND DUP2 MSTORE PUSH1 0x20 ADD SWAP1 DUP2 MSTORE PUSH1 0x20 ADD PUSH0 KECCAK256 PUSH1 0x1 ADD SLOAD GT SWAP1 POP SWAP2 SWAP1 POP JUMP JUMPDEST PUSH0 PUSH0 PUSH2 0x26DF DUP5 PUSH2 0x2644 JUMP JUMPDEST SWAP1 POP PUSH0 DUP2 PUSH1 0x1 ADD SLOAD SUB PUSH2 0x271E JUMPI PUSH1 0x40 MLOAD PUSH32 0xB016BE5E00000000000000000000000000000000000000000000000000000000 DUP2 MSTORE PUSH1 0x4 ADD PUSH1 0x40 MLOAD DUP1 SWAP2 SUB SWAP1 REVERT JUMPDEST PUSH0 PUSH20 0xFFFFFFFFFFFFFFFFFFFFFFFFFFFFFFFFFFFFFFFF AND PUSH1 0x3 PUSH0 DUP6 PUSH20 0xFFFFFFFFFFFFFFFFFFFFFFFFFFFFFFFFFFFFFFFF AND PUSH20 0xFFFFFFFFFFFFFFFFFFFFFFFFFFFFFFFFFFFFFFFF AND DUP2 MSTORE PUSH1 0x20 ADD SWAP1 DUP2 MSTORE PUSH1 0x20 ADD PUSH0 KECCAK256 PUSH0 SWAP1 SLOAD SWAP1 PUSH2 0x100 EXP SWAP1 DIV PUSH20 0xFFFFFFFFFFFFFFFFFFFFFFFFFFFFFFFFFFFFFFFF AND PUSH20 0xFFFFFFFFFFFFFFFFFFFFFFFFFFFFFFFFFFFFFFFF AND SUB PUSH2 0x27EA JUMPI DUP3 PUSH1 0x40 MLOAD PUSH32 0x6F79C78A00000000000000000000000000000000000000000000000000000000 DUP2 MSTORE PUSH1 0x4 ADD PUSH2 0x27E1 SWAP2 SWAP1 PUSH2 0x307D JUMP JUMPDEST PUSH1 0x40 MLOAD DUP1 SWAP2 SUB SWAP1 REVERT JUMPDEST PUSH0 PUSH2 0x281B DUP3 PUSH0 ADD PUSH0 SWAP1 SLOAD SWAP1 PUSH2 0x100 EXP SWAP1 DIV PUSH20 0xFFFFFFFFFFFFFFFFFFFFFFFFFFFFFFFFFFFFFFFF AND DUP4 PUSH1 0x1 ADD SLOAD PUSH2 0x22D6 JUMP JUMPDEST SWAP1 POP PUSH0 PUSH2 0x2710 PUSH1 0x8 SLOAD DUP4 PUSH2 0x282F SWAP2 SWAP1 PUSH2 0x3482 JUMP JUMPDEST PUSH2 0x2839 SWAP2 SWAP1 PUSH2 0x35F3 JUMP JUMPDEST SWAP1 POP PUSH0 PUSH0 SWAP1 POP PUSH0 DUP5 PUSH1 0x3 ADD SLOAD GT ISZERO PUSH2 0x287F JUMPI PUSH2 0x287C DUP5 PUSH1 0x2 ADD PUSH0 SWAP1 SLOAD SWAP1 PUSH2 0x100 EXP SWAP1 DIV PUSH20 0xFFFFFFFFFFFFFFFFFFFFFFFFFFFFFFFFFFFFFFFF AND DUP6 PUSH1 0x3 ADD SLOAD PUSH2 0x22D6 JUMP JUMPDEST SWAP1 POP JUMPDEST DUP2 DUP2 LT PUSH2 0x2892 JUMPI PUSH0 SWAP5 POP POP POP POP POP PUSH2 0x28EE JUMP JUMPDEST PUSH0 DUP2 DUP4 PUSH2 0x289F SWAP2 SWAP1 PUSH2 0x30F6 JUMP JUMPDEST SWAP1 POP PUSH0 DUP2 SUB PUSH2 0x28B5 JUMPI PUSH0 SWAP6 POP POP POP POP POP POP PUSH2 0x28EE JUMP JUMPDEST PUSH0 PUSH2 0x28BF DUP9 PUSH2 0xBB1 JUMP JUMPDEST SWAP1 POP PUSH0 DUP2 PUSH8 0xDE0B6B3A7640000 DUP5 PUSH2 0x28D7 SWAP2 SWAP1 PUSH2 0x3482 JUMP JUMPDEST PUSH2 0x28E1 SWAP2 SWAP1 PUSH2 0x35F3 JUMP JUMPDEST SWAP1 POP DUP1 SWAP8 POP POP POP POP POP POP POP POP JUMPDEST SWAP3 SWAP2 POP POP JUMP JUMPDEST PUSH0 DUP4 SWAP1 POP PUSH0 DUP2 PUSH20 0xFFFFFFFFFFFFFFFFFFFFFFFFFFFFFFFFFFFFFFFF AND PUSH4 0x70A08231 ADDRESS PUSH1 0x40 MLOAD DUP3 PUSH4 0xFFFFFFFF AND PUSH1 0xE0 SHL DUP2 MSTORE PUSH1 0x4 ADD PUSH2 0x2932 SWAP2 SWAP1 PUSH2 0x307D JUMP JUMPDEST PUSH1 0x20 PUSH1 0x40 MLOAD DUP1 DUP4 SUB DUP2 DUP7 GAS STATICCALL ISZERO DUP1 ISZERO PUSH2 0x294D JUMPI RETURNDATASIZE PUSH0 PUSH0 RETURNDATACOPY RETURNDATASIZE PUSH0 REVERT JUMPDEST POP POP POP POP PUSH1 0x40 MLOAD RETURNDATASIZE PUSH1 0x1F NOT PUSH1 0x1F DUP3 ADD AND DUP3 ADD DUP1 PUSH1 0x40 MSTORE POP DUP2 ADD SWAP1 PUSH2 0x2971 SWAP2 SWAP1 PUSH2 0x34C3 JUMP JUMPDEST SWAP1 POP DUP3 DUP2 LT ISZERO PUSH2 0x29BA JUMPI DUP1 DUP4 PUSH1 0x40 MLOAD PUSH32 0xCE9514F900000000000000000000000000000000000000000000000000000000 DUP2 MSTORE PUSH1 0x4 ADD PUSH2 0x29B1 SWAP3 SWAP2 SWAP1 PUSH2 0x34EE JUMP JUMPDEST PUSH1 0x40 MLOAD DUP1 SWAP2 SUB SWAP1 REVERT JUMPDEST PUSH0 DUP3 PUSH20 0xFFFFFFFFFFFFFFFFFFFFFFFFFFFFFFFFFFFFFFFF AND PUSH4 0xA9059CBB DUP7 DUP7 PUSH1 0x40 MLOAD DUP4 PUSH4 0xFFFFFFFF AND PUSH1 0xE0 SHL DUP2 MSTORE PUSH1 0x4 ADD PUSH2 0x29F6 SWAP3 SWAP2 SWAP1 PUSH2 0x3515 JUMP JUMPDEST PUSH1 0x20 PUSH1 0x40 MLOAD DUP1 DUP4 SUB DUP2 PUSH0 DUP8 GAS CALL ISZERO DUP1 ISZERO PUSH2 0x2A12 JUMPI RETURNDATASIZE PUSH0 PUSH0 RETURNDATACOPY RETURNDATASIZE PUSH0 REVERT JUMPDEST POP POP POP POP PUSH1 0x40 MLOAD RETURNDATASIZE PUSH1 0x1F NOT PUSH1 0x1F DUP3 ADD AND DUP3 ADD DUP1 PUSH1 0x40 MSTORE POP DUP2 ADD SWAP1 PUSH2 0x2A36 SWAP2 SWAP1 PUSH2 0x3566 JUMP JUMPDEST SWAP1 POP DUP1 PUSH2 0x2A7E JUMPI DUP6 DUP6 DUP6 PUSH1 0x40 MLOAD PUSH32 0xC877679800000000000000000000000000000000000000000000000000000000 DUP2 MSTORE PUSH1 0x4 ADD PUSH2 0x2A75 SWAP4 SWAP3 SWAP2 SWAP1 PUSH2 0x3591 JUMP JUMPDEST PUSH1 0x40 MLOAD DUP1 SWAP2 SUB SWAP1 REVERT JUMPDEST POP POP POP POP POP POP JUMP JUMPDEST PUSH1 0x1 PUSH0 DUP2 SWAP1 SSTORE POP JUMP JUMPDEST PUSH2 0x2A97 PUSH2 0x2E66 JUMP JUMPDEST PUSH20 0xFFFFFFFFFFFFFFFFFFFFFFFFFFFFFFFFFFFFFFFF AND PUSH2 0x2AB5 PUSH2 0x1723 JUMP JUMPDEST PUSH20 0xFFFFFFFFFFFFFFFFFFFFFFFFFFFFFFFFFFFFFFFF AND EQ PUSH2 0x2B14 JUMPI PUSH2 0x2AD8 PUSH2 0x2E66 JUMP JUMPDEST PUSH1 0x40 MLOAD PUSH32 0x118CDAA700000000000000000000000000000000000000000000000000000000 DUP2 MSTORE PUSH1 0x4 ADD PUSH2 0x2B0B SWAP2 SWAP1 PUSH2 0x307D JUMP JUMPDEST PUSH1 0x40 MLOAD DUP1 SWAP2 SUB SWAP1 REVERT JUMPDEST JUMP JUMPDEST PUSH0 PUSH1 0x1 PUSH0 SWAP1 SLOAD SWAP1 PUSH2 0x100 EXP SWAP1 DIV PUSH20 0xFFFFFFFFFFFFFFFFFFFFFFFFFFFFFFFFFFFFFFFF AND SWAP1 POP DUP2 PUSH1 0x1 PUSH0 PUSH2 0x100 EXP DUP2 SLOAD DUP2 PUSH20 0xFFFFFFFFFFFFFFFFFFFFFFFFFFFFFFFFFFFFFFFF MUL NOT AND SWAP1 DUP4 PUSH20 0xFFFFFFFFFFFFFFFFFFFFFFFFFFFFFFFFFFFFFFFF AND MUL OR SWAP1 SSTORE POP DUP2 PUSH20 0xFFFFFFFFFFFFFFFFFFFFFFFFFFFFFFFFFFFFFFFF AND DUP2 PUSH20 0xFFFFFFFFFFFFFFFFFFFFFFFFFFFFFFFFFFFFFFFF AND PUSH32 0x8BE0079C531659141344CD1FD0A4F28419497F9722A3DAAFE3B4186F6B6457E0 PUSH1 0x40 MLOAD PUSH1 0x40 MLOAD DUP1 SWAP2 SUB SWAP1 LOG3 POP POP JUMP JUMPDEST PUSH0 PUSH0 PUSH1 0x2 PUSH0 DUP5 PUSH20 0xFFFFFFFFFFFFFFFFFFFFFFFFFFFFFFFFFFFFFFFF AND PUSH20 0xFFFFFFFFFFFFFFFFFFFFFFFFFFFFFFFFFFFFFFFF AND DUP2 MSTORE PUSH1 0x20 ADD SWAP1 DUP2 MSTORE PUSH1 0x20 ADD PUSH0 KECCAK256 PUSH1 0x3 ADD SLOAD GT SWAP1 POP SWAP2 SWAP1 POP JUMP JUMPDEST PUSH0 DUP2 PUSH20 0xFFFFFFFFFFFFFFFFFFFFFFFFFFFFFFFFFFFFFFFF AND PUSH1 0x2 PUSH0 DUP6 PUSH20 0xFFFFFFFFFFFFFFFFFFFFFFFFFFFFFFFFFFFFFFFF AND PUSH20 0xFFFFFFFFFFFFFFFFFFFFFFFFFFFFFFFFFFFFFFFF AND DUP2 MSTORE PUSH1 0x20 ADD SWAP1 DUP2 MSTORE PUSH1 0x20 ADD PUSH0 KECCAK256 PUSH1 0x2 ADD PUSH0 SWAP1 SLOAD SWAP1 PUSH2 0x100 EXP SWAP1 DIV PUSH20 0xFFFFFFFFFFFFFFFFFFFFFFFFFFFFFFFFFFFFFFFF AND PUSH20 0xFFFFFFFFFFFFFFFFFFFFFFFFFFFFFFFFFFFFFFFF AND EQ SWAP1 POP SWAP3 SWAP2 POP POP JUMP JUMPDEST PUSH0 PUSH2 0x2CC5 DUP3 PUSH2 0x2644 JUMP JUMPDEST SWAP1 POP PUSH0 DUP2 PUSH1 0x2 ADD PUSH0 PUSH2 0x100 EXP DUP2 SLOAD DUP2 PUSH20 0xFFFFFFFFFFFFFFFFFFFFFFFFFFFFFFFFFFFFFFFF MUL NOT AND SWAP1 DUP4 PUSH20 0xFFFFFFFFFFFFFFFFFFFFFFFFFFFFFFFFFFFFFFFF AND MUL OR SWAP1 SSTORE POP PUSH0 DUP2 PUSH1 0x3 ADD DUP2 SWAP1 SSTORE POP PUSH0 DUP2 PUSH0 ADD PUSH0 PUSH2 0x100 EXP DUP2 SLOAD DUP2 PUSH20 0xFFFFFFFFFFFFFFFFFFFFFFFFFFFFFFFFFFFFFFFF MUL NOT AND SWAP1 DUP4 PUSH20 0xFFFFFFFFFFFFFFFFFFFFFFFFFFFFFFFFFFFFFFFF AND MUL OR SWAP1 SSTORE POP PUSH0 DUP2 PUSH1 0x1 ADD DUP2 SWAP1 SSTORE POP POP POP JUMP JUMPDEST PUSH0 PUSH1 0x7 PUSH0 SWAP1 SLOAD SWAP1 PUSH2 0x100 EXP SWAP1 DIV PUSH20 0xFFFFFFFFFFFFFFFFFFFFFFFFFFFFFFFFFFFFFFFF AND PUSH20 0xFFFFFFFFFFFFFFFFFFFFFFFFFFFFFFFFFFFFFFFF AND DUP3 PUSH20 0xFFFFFFFFFFFFFFFFFFFFFFFFFFFFFFFFFFFFFFFF AND SUB PUSH2 0x2DBE JUMPI PUSH1 0x12 SWAP1 POP PUSH2 0x2E61 JUMP JUMPDEST DUP2 PUSH20 0xFFFFFFFFFFFFFFFFFFFFFFFFFFFFFFFFFFFFFFFF AND PUSH4 0x313CE567 PUSH1 0x40 MLOAD DUP2 PUSH4 0xFFFFFFFF AND PUSH1 0xE0 SHL DUP2 MSTORE PUSH1 0x4 ADD PUSH1 0x20 PUSH1 0x40 MLOAD DUP1 DUP4 SUB DUP2 DUP7 GAS STATICCALL SWAP3 POP POP POP DUP1 ISZERO PUSH2 0x2E26 JUMPI POP PUSH1 0x40 MLOAD RETURNDATASIZE PUSH1 0x1F NOT PUSH1 0x1F DUP3 ADD AND DUP3 ADD DUP1 PUSH1 0x40 MSTORE POP DUP2 ADD SWAP1 PUSH2 0x2E23 SWAP2 SWAP1 PUSH2 0x32DE JUMP JUMPDEST PUSH1 0x1 JUMPDEST PUSH2 0x2E5C JUMPI PUSH1 0x40 MLOAD PUSH32 0xD25598A000000000000000000000000000000000000000000000000000000000 DUP2 MSTORE PUSH1 0x4 ADD PUSH1 0x40 MLOAD DUP1 SWAP2 SUB SWAP1 REVERT JUMPDEST DUP1 SWAP2 POP POP JUMPDEST SWAP2 SWAP1 POP JUMP JUMPDEST PUSH0 CALLER SWAP1 POP SWAP1 JUMP JUMPDEST PUSH0 PUSH0 REVERT JUMPDEST PUSH0 PUSH20 0xFFFFFFFFFFFFFFFFFFFFFFFFFFFFFFFFFFFFFFFF DUP3 AND SWAP1 POP SWAP2 SWAP1 POP JUMP JUMPDEST PUSH0 PUSH2 0x2E9A DUP3 PUSH2 0x2E71 JUMP JUMPDEST SWAP1 POP SWAP2 SWAP1 POP JUMP JUMPDEST PUSH2 0x2EAA DUP2 PUSH2 0x2E90 JUMP JUMPDEST DUP2 EQ PUSH2 0x2EB4 JUMPI PUSH0 PUSH0 REVERT JUMPDEST POP JUMP JUMPDEST PUSH0 DUP2 CALLDATALOAD SWAP1 POP PUSH2 0x2EC5 DUP2 PUSH2 0x2EA1 JUMP JUMPDEST SWAP3 SWAP2 POP POP JUMP JUMPDEST PUSH0 DUP2 SWAP1 POP SWAP2 SWAP1 POP JUMP JUMPDEST PUSH2 0x2EDD DUP2 PUSH2 0x2ECB JUMP JUMPDEST DUP2 EQ PUSH2 0x2EE7 JUMPI PUSH0 PUSH0 REVERT JUMPDEST POP JUMP JUMPDEST PUSH0 DUP2 CALLDATALOAD SWAP1 POP PUSH2 0x2EF8 DUP2 PUSH2 0x2ED4 JUMP JUMPDEST SWAP3 SWAP2 POP POP JUMP JUMPDEST PUSH0 PUSH0 PUSH1 0x40 DUP4 DUP6 SUB SLT ISZERO PUSH2 0x2F14 JUMPI PUSH2 0x2F13 PUSH2 0x2E6D JUMP JUMPDEST JUMPDEST PUSH0 PUSH2 0x2F21 DUP6 DUP3 DUP7 ADD PUSH2 0x2EB7 JUMP JUMPDEST SWAP3 POP POP PUSH1 0x20 PUSH2 0x2F32 DUP6 DUP3 DUP7 ADD PUSH2 0x2EEA JUMP JUMPDEST SWAP2 POP POP SWAP3 POP SWAP3 SWAP1 POP JUMP JUMPDEST PUSH0 PUSH1 0x20 DUP3 DUP5 SUB SLT ISZERO PUSH2 0x2F51 JUMPI PUSH2 0x2F50 PUSH2 0x2E6D JUMP JUMPDEST JUMPDEST PUSH0 PUSH2 0x2F5E DUP5 DUP3 DUP6 ADD PUSH2 0x2EB7 JUMP JUMPDEST SWAP2 POP POP SWAP3 SWAP2 POP POP JUMP JUMPDEST PUSH2 0x2F70 DUP2 PUSH2 0x2ECB JUMP JUMPDEST DUP3 MSTORE POP POP JUMP JUMPDEST PUSH0 PUSH1 0x20 DUP3 ADD SWAP1 POP PUSH2 0x2F89 PUSH0 DUP4 ADD DUP5 PUSH2 0x2F67 JUMP JUMPDEST SWAP3 SWAP2 POP POP JUMP JUMPDEST PUSH0 PUSH1 0x20 DUP3 DUP5 SUB SLT ISZERO PUSH2 0x2FA4 JUMPI PUSH2 0x2FA3 PUSH2 0x2E6D JUMP JUMPDEST JUMPDEST PUSH0 PUSH2 0x2FB1 DUP5 DUP3 DUP6 ADD PUSH2 0x2EEA JUMP JUMPDEST SWAP2 POP POP SWAP3 SWAP2 POP POP JUMP JUMPDEST PUSH0 PUSH0 PUSH1 0x40 DUP4 DUP6 SUB SLT ISZERO PUSH2 0x2FD0 JUMPI PUSH2 0x2FCF PUSH2 0x2E6D JUMP JUMPDEST JUMPDEST PUSH0 PUSH2 0x2FDD DUP6 DUP3 DUP7 ADD PUSH2 0x2EB7 JUMP JUMPDEST SWAP3 POP POP PUSH1 0x20 PUSH2 0x2FEE DUP6 DUP3 DUP7 ADD PUSH2 0x2EB7 JUMP JUMPDEST SWAP2 POP POP SWAP3 POP SWAP3 SWAP1 POP JUMP JUMPDEST PUSH0 DUP2 ISZERO ISZERO SWAP1 POP SWAP2 SWAP1 POP JUMP JUMPDEST PUSH2 0x300C DUP2 PUSH2 0x2FF8 JUMP JUMPDEST DUP3 MSTORE POP POP JUMP JUMPDEST PUSH0 PUSH1 0x20 DUP3 ADD SWAP1 POP PUSH2 0x3025 PUSH0 DUP4 ADD DUP5 PUSH2 0x3003 JUMP JUMPDEST SWAP3 SWAP2 POP POP JUMP JUMPDEST PUSH2 0x3034 DUP2 PUSH2 0x2E90 JUMP JUMPDEST DUP3 MSTORE POP POP JUMP JUMPDEST PUSH0 PUSH1 0x80 DUP3 ADD SWAP1 POP PUSH2 0x304D PUSH0 DUP4 ADD DUP8 PUSH2 0x302B JUMP JUMPDEST PUSH2 0x305A PUSH1 0x20 DUP4 ADD DUP7 PUSH2 0x2F67 JUMP JUMPDEST PUSH2 0x3067 PUSH1 0x40 DUP4 ADD DUP6 PUSH2 0x302B JUMP JUMPDEST PUSH2 0x3074 PUSH1 0x60 DUP4 ADD DUP5 PUSH2 0x2F67 JUMP JUMPDEST SWAP6 SWAP5 POP POP POP POP POP JUMP JUMPDEST PUSH0 PUSH1 0x20 DUP3 ADD SWAP1 POP PUSH2 0x3090 PUSH0 DUP4 ADD DUP5 PUSH2 0x302B JUMP JUMPDEST SWAP3 SWAP2 POP POP JUMP JUMPDEST PUSH32 0x4E487B7100000000000000000000000000000000000000000000000000000000 PUSH0 MSTORE PUSH1 0x11 PUSH1 0x4 MSTORE PUSH1 0x24 PUSH0 REVERT JUMPDEST PUSH0 PUSH2 0x30CD DUP3 PUSH2 0x2ECB JUMP JUMPDEST SWAP2 POP PUSH2 0x30D8 DUP4 PUSH2 0x2ECB JUMP JUMPDEST SWAP3 POP DUP3 DUP3 ADD SWAP1 POP DUP1 DUP3 GT ISZERO PUSH2 0x30F0 JUMPI PUSH2 0x30EF PUSH2 0x3096 JUMP JUMPDEST JUMPDEST SWAP3 SWAP2 POP POP JUMP JUMPDEST PUSH0 PUSH2 0x3100 DUP3 PUSH2 0x2ECB JUMP JUMPDEST SWAP2 POP PUSH2 0x310B DUP4 PUSH2 0x2ECB JUMP JUMPDEST SWAP3 POP DUP3 DUP3 SUB SWAP1 POP DUP2 DUP2 GT ISZERO PUSH2 0x3123 JUMPI PUSH2 0x3122 PUSH2 0x3096 JUMP JUMPDEST JUMPDEST SWAP3 SWAP2 POP POP JUMP JUMPDEST PUSH32 0x4E487B7100000000000000000000000000000000000000000000000000000000 PUSH0 MSTORE PUSH1 0x32 PUSH1 0x4 MSTORE PUSH1 0x24 PUSH0 REVERT JUMPDEST PUSH32 0x4E487B7100000000000000000000000000000000000000000000000000000000 PUSH0 MSTORE PUSH1 0x31 PUSH1 0x4 MSTORE PUSH1 0x24 PUSH0 REVERT JUMPDEST PUSH0 PUSH10 0xFFFFFFFFFFFFFFFFFFFF DUP3 AND SWAP1 POP SWAP2 SWAP1 POP JUMP JUMPDEST PUSH2 0x31A1 DUP2 PUSH2 0x3183 JUMP JUMPDEST DUP2 EQ PUSH2 0x31AB JUMPI PUSH0 PUSH0 REVERT JUMPDEST POP JUMP JUMPDEST PUSH0 DUP2 MLOAD SWAP1 POP PUSH2 0x31BC DUP2 PUSH2 0x3198 JUMP JUMPDEST SWAP3 SWAP2 POP POP JUMP JUMPDEST PUSH0 DUP2 SWAP1 POP SWAP2 SWAP1 POP JUMP JUMPDEST PUSH2 0x31D4 DUP2 PUSH2 0x31C2 JUMP JUMPDEST DUP2 EQ PUSH2 0x31DE JUMPI PUSH0 PUSH0 REVERT JUMPDEST POP JUMP JUMPDEST PUSH0 DUP2 MLOAD SWAP1 POP PUSH2 0x31EF DUP2 PUSH2 0x31CB JUMP JUMPDEST SWAP3 SWAP2 POP POP JUMP JUMPDEST PUSH0 DUP2 MLOAD SWAP1 POP PUSH2 0x3203 DUP2 PUSH2 0x2ED4 JUMP JUMPDEST SWAP3 SWAP2 POP POP JUMP JUMPDEST PUSH0 PUSH0 PUSH0 PUSH0 PUSH0 PUSH1 0xA0 DUP7 DUP9 SUB SLT ISZERO PUSH2 0x3222 JUMPI PUSH2 0x3221 PUSH2 0x2E6D JUMP JUMPDEST JUMPDEST PUSH0 PUSH2 0x322F DUP9 DUP3 DUP10 ADD PUSH2 0x31AE JUMP JUMPDEST SWAP6 POP POP PUSH1 0x20 PUSH2 0x3240 DUP9 DUP3 DUP10 ADD PUSH2 0x31E1 JUMP JUMPDEST SWAP5 POP POP PUSH1 0x40 PUSH2 0x3251 DUP9 DUP3 DUP10 ADD PUSH2 0x31F5 JUMP JUMPDEST SWAP4 POP POP PUSH1 0x60 PUSH2 0x3262 DUP9 DUP3 DUP10 ADD PUSH2 0x31F5 JUMP JUMPDEST SWAP3 POP POP PUSH1 0x80 PUSH2 0x3273 DUP9 DUP3 DUP10 ADD PUSH2 0x31AE JUMP JUMPDEST SWAP2 POP POP SWAP3 SWAP6 POP SWAP3 SWAP6 SWAP1 SWAP4 POP JUMP JUMPDEST PUSH2 0x3289 DUP2 PUSH2 0x31C2 JUMP JUMPDEST DUP3 MSTORE POP POP JUMP JUMPDEST PUSH0 PUSH1 0x20 DUP3 ADD SWAP1 POP PUSH2 0x32A2 PUSH0 DUP4 ADD DUP5 PUSH2 0x3280 JUMP JUMPDEST SWAP3 SWAP2 POP POP JUMP JUMPDEST PUSH0 PUSH1 0xFF DUP3 AND SWAP1 POP SWAP2 SWAP1 POP JUMP JUMPDEST PUSH2 0x32BD DUP2 PUSH2 0x32A8 JUMP JUMPDEST DUP2 EQ PUSH2 0x32C7 JUMPI PUSH0 PUSH0 REVERT JUMPDEST POP JUMP JUMPDEST PUSH0 DUP2 MLOAD SWAP1 POP PUSH2 0x32D8 DUP2 PUSH2 0x32B4 JUMP JUMPDEST SWAP3 SWAP2 POP POP JUMP JUMPDEST PUSH0 PUSH1 0x20 DUP3 DUP5 SUB SLT ISZERO PUSH2 0x32F3 JUMPI PUSH2 0x32F2 PUSH2 0x2E6D JUMP JUMPDEST JUMPDEST PUSH0 PUSH2 0x3300 DUP5 DUP3 DUP6 ADD PUSH2 0x32CA JUMP JUMPDEST SWAP2 POP POP SWAP3 SWAP2 POP POP JUMP JUMPDEST PUSH0 DUP2 PUSH1 0x1 SHR SWAP1 POP SWAP2 SWAP1 POP JUMP JUMPDEST PUSH0 PUSH0 DUP3 SWAP2 POP DUP4 SWAP1 POP JUMPDEST PUSH1 0x1 DUP6 GT ISZERO PUSH2 0x335E JUMPI DUP1 DUP7 DIV DUP2 GT ISZERO PUSH2 0x333A JUMPI PUSH2 0x3339 PUSH2 0x3096 JUMP JUMPDEST JUMPDEST PUSH1 0x1 DUP6 AND ISZERO PUSH2 0x3349 JUMPI DUP1 DUP3 MUL SWAP2 POP JUMPDEST DUP1 DUP2 MUL SWAP1 POP PUSH2 0x3357 DUP6 PUSH2 0x3309 JUMP JUMPDEST SWAP5 POP PUSH2 0x331E JUMP JUMPDEST SWAP5 POP SWAP5 SWAP3 POP POP POP JUMP JUMPDEST PUSH0 DUP3 PUSH2 0x3376 JUMPI PUSH1 0x1 SWAP1 POP PUSH2 0x3431 JUMP JUMPDEST DUP2 PUSH2 0x3383 JUMPI PUSH0 SWAP1 POP PUSH2 0x3431 JUMP JUMPDEST DUP2 PUSH1 0x1 DUP2 EQ PUSH2 0x3399 JUMPI PUSH1 0x2 DUP2 EQ PUSH2 0x33A3 JUMPI PUSH2 0x33D2 JUMP JUMPDEST PUSH1 0x1 SWAP2 POP POP PUSH2 0x3431 JUMP JUMPDEST PUSH1 0xFF DUP5 GT ISZERO PUSH2 0x33B5 JUMPI PUSH2 0x33B4 PUSH2 0x3096 JUMP JUMPDEST JUMPDEST DUP4 PUSH1 0x2 EXP SWAP2 POP DUP5 DUP3 GT ISZERO PUSH2 0x33CC JUMPI PUSH2 0x33CB PUSH2 0x3096 JUMP JUMPDEST JUMPDEST POP PUSH2 0x3431 JUMP JUMPDEST POP PUSH1 0x20 DUP4 LT PUSH2 0x133 DUP4 LT AND PUSH1 0x4E DUP5 LT PUSH1 0xB DUP5 LT AND OR ISZERO PUSH2 0x3407 JUMPI DUP3 DUP3 EXP SWAP1 POP DUP4 DUP2 GT ISZERO PUSH2 0x3402 JUMPI PUSH2 0x3401 PUSH2 0x3096 JUMP JUMPDEST JUMPDEST PUSH2 0x3431 JUMP JUMPDEST PUSH2 0x3414 DUP5 DUP5 DUP5 PUSH1 0x1 PUSH2 0x3315 JUMP JUMPDEST SWAP3 POP SWAP1 POP DUP2 DUP5 DIV DUP2 GT ISZERO PUSH2 0x342B JUMPI PUSH2 0x342A PUSH2 0x3096 JUMP JUMPDEST JUMPDEST DUP2 DUP2 MUL SWAP1 POP JUMPDEST SWAP4 SWAP3 POP POP POP JUMP JUMPDEST PUSH0 PUSH2 0x3442 DUP3 PUSH2 0x2ECB JUMP JUMPDEST SWAP2 POP PUSH2 0x344D DUP4 PUSH2 0x2ECB JUMP JUMPDEST SWAP3 POP PUSH2 0x347A PUSH32 0xFFFFFFFFFFFFFFFFFFFFFFFFFFFFFFFFFFFFFFFFFFFFFFFFFFFFFFFFFFFFFFFF DUP5 DUP5 PUSH2 0x3367 JUMP JUMPDEST SWAP1 POP SWAP3 SWAP2 POP POP JUMP JUMPDEST PUSH0 PUSH2 0x348C DUP3 PUSH2 0x2ECB JUMP JUMPDEST SWAP2 POP PUSH2 0x3497 DUP4 PUSH2 0x2ECB JUMP JUMPDEST SWAP3 POP DUP3 DUP3 MUL PUSH2 0x34A5 DUP2 PUSH2 0x2ECB JUMP JUMPDEST SWAP2 POP DUP3 DUP3 DIV DUP5 EQ DUP4 ISZERO OR PUSH2 0x34BC JUMPI PUSH2 0x34BB PUSH2 0x3096 JUMP JUMPDEST JUMPDEST POP SWAP3 SWAP2 POP POP JUMP JUMPDEST PUSH0 PUSH1 0x20 DUP3 DUP5 SUB SLT ISZERO PUSH2 0x34D8 JUMPI PUSH2 0x34D7 PUSH2 0x2E6D JUMP JUMPDEST JUMPDEST PUSH0 PUSH2 0x34E5 DUP5 DUP3 DUP6 ADD PUSH2 0x31F5 JUMP JUMPDEST SWAP2 POP POP SWAP3 SWAP2 POP POP JUMP JUMPDEST PUSH0 PUSH1 0x40 DUP3 ADD SWAP1 POP PUSH2 0x3501 PUSH0 DUP4 ADD DUP6 PUSH2 0x2F67 JUMP JUMPDEST PUSH2 0x350E PUSH1 0x20 DUP4 ADD DUP5 PUSH2 0x2F67 JUMP JUMPDEST SWAP4 SWAP3 POP POP POP JUMP JUMPDEST PUSH0 PUSH1 0x40 DUP3 ADD SWAP1 POP PUSH2 0x3528 PUSH0 DUP4 ADD DUP6 PUSH2 0x302B JUMP JUMPDEST PUSH2 0x3535 PUSH1 0x20 DUP4 ADD DUP5 PUSH2 0x2F67 JUMP JUMPDEST SWAP4 SWAP3 POP POP POP JUMP JUMPDEST PUSH2 0x3545 DUP2 PUSH2 0x2FF8 JUMP JUMPDEST DUP2 EQ PUSH2 0x354F JUMPI PUSH0 PUSH0 REVERT JUMPDEST POP JUMP JUMPDEST PUSH0 DUP2 MLOAD SWAP1 POP PUSH2 0x3560 DUP2 PUSH2 0x353C JUMP JUMPDEST SWAP3 SWAP2 POP POP JUMP JUMPDEST PUSH0 PUSH1 0x20 DUP3 DUP5 SUB SLT ISZERO PUSH2 0x357B JUMPI PUSH2 0x357A PUSH2 0x2E6D JUMP JUMPDEST JUMPDEST PUSH0 PUSH2 0x3588 DUP5 DUP3 DUP6 ADD PUSH2 0x3552 JUMP JUMPDEST SWAP2 POP POP SWAP3 SWAP2 POP POP JUMP JUMPDEST PUSH0 PUSH1 0x60 DUP3 ADD SWAP1 POP PUSH2 0x35A4 PUSH0 DUP4 ADD DUP7 PUSH2 0x302B JUMP JUMPDEST PUSH2 0x35B1 PUSH1 0x20 DUP4 ADD DUP6 PUSH2 0x302B JUMP JUMPDEST PUSH2 0x35BE PUSH1 0x40 DUP4 ADD DUP5 PUSH2 0x2F67 JUMP JUMPDEST SWAP5 SWAP4 POP POP POP POP JUMP JUMPDEST PUSH32 0x4E487B7100000000000000000000000000000000000000000000000000000000 PUSH0 MSTORE PUSH1 0x12 PUSH1 0x4 MSTORE PUSH1 0x24 PUSH0 REVERT JUMPDEST PUSH0 PUSH2 0x35FD DUP3 PUSH2 0x2ECB JUMP JUMPDEST SWAP2 POP PUSH2 0x3608 DUP4 PUSH2 0x2ECB JUMP JUMPDEST SWAP3 POP DUP3 PUSH2 0x3618 JUMPI PUSH2 0x3617 PUSH2 0x35C6 JUMP JUMPDEST JUMPDEST DUP3 DUP3 DIV SWAP1 POP SWAP3 SWAP2 POP POP JUMP JUMPDEST PUSH0 DUP2 SWAP1 POP SWAP3 SWAP2 POP POP JUMP JUMPDEST POP JUMP JUMPDEST PUSH0 PUSH2 0x363B PUSH0 DUP4 PUSH2 0x3623 JUMP JUMPDEST SWAP2 POP PUSH2 0x3646 DUP3 PUSH2 0x362D JUMP JUMPDEST PUSH0 DUP3 ADD SWAP1 POP SWAP2 SWAP1 POP JUMP JUMPDEST PUSH0 PUSH2 0x365A DUP3 PUSH2 0x3630 JUMP JUMPDEST SWAP2 POP DUP2 SWAP1 POP SWAP2 SWAP1 POP JUMP JUMPDEST PUSH0 PUSH2 0x366E DUP3 PUSH2 0x32A8 JUMP JUMPDEST SWAP2 POP PUSH2 0x3679 DUP4 PUSH2 0x32A8 JUMP JUMPDEST SWAP3 POP DUP3 DUP3 SUB SWAP1 POP PUSH1 0xFF DUP2 GT ISZERO PUSH2 0x3692 JUMPI PUSH2 0x3691 PUSH2 0x3096 JUMP JUMPDEST JUMPDEST SWAP3 SWAP2 POP POP JUMP JUMPDEST PUSH0 PUSH2 0x36A2 DUP3 PUSH2 0x2ECB JUMP JUMPDEST SWAP2 POP PUSH2 0x36AD DUP4 PUSH2 0x32A8 JUMP JUMPDEST SWAP3 POP PUSH2 0x36DA PUSH32 0xFFFFFFFFFFFFFFFFFFFFFFFFFFFFFFFFFFFFFFFFFFFFFFFFFFFFFFFFFFFFFFFF DUP5 DUP5 PUSH2 0x3367 JUMP JUMPDEST SWAP1 POP SWAP3 SWAP2 POP POP JUMP JUMPDEST PUSH0 DUP3 DUP3 MSTORE PUSH1 0x20 DUP3 ADD SWAP1 POP SWAP3 SWAP2 POP POP JUMP JUMPDEST PUSH32 0x5265656E7472616E637947756172643A207265656E7472616E742063616C6C00 PUSH0 DUP3 ADD MSTORE POP JUMP JUMPDEST PUSH0 PUSH2 0x3726 PUSH1 0x1F DUP4 PUSH2 0x36E2 JUMP JUMPDEST SWAP2 POP PUSH2 0x3731 DUP3 PUSH2 0x36F2 JUMP JUMPDEST PUSH1 0x20 DUP3 ADD SWAP1 POP SWAP2 SWAP1 POP JUMP JUMPDEST PUSH0 PUSH1 0x20 DUP3 ADD SWAP1 POP DUP2 DUP2 SUB PUSH0 DUP4 ADD MSTORE PUSH2 0x3753 DUP2 PUSH2 0x371A JUMP JUMPDEST SWAP1 POP SWAP2 SWAP1 POP JUMP INVALID LOG2 PUSH5 0x6970667358 0x22 SLT KECCAK256 CALLVALUE CALLDATACOPY RETURN 0x4B DUP2 0x4B 0xD9 0x2E EOFCREATE 0xA3 ADD 0xC7 MSTORE MOD EXTCALL 0x4C CALLF 0x54E9 PUSH6 0x8D764335A1C6 DIV DUP10 PUSH24 0x9F18E164736F6C634300081E003300000000000000000000 "
		},
		"gasEstimates": {
			"creation": {
				"codeDepositCost": "2844800",
				"executionCost": "infinite",
				"totalCost": "infinite"
			},
			"external": {
				"": "240",
				"approveToken(address)": "infinite",
				"approvedTokenList(uint256)": "5033",
				"approvedTokens(address)": "2922",
				"borrowAsset(address,uint256)": "infinite",
				"getApprovedTokensCount()": "2485",
				"getContractEthBalance()": "401",
				"getContractsTokenBalance(address)": "infinite",
				"getLatestPrice(address)": "infinite",
				"getUsdValue(address,uint256)": "infinite",
				"getUser(address)": "infinite",
				"isTokenApproved(address)": "infinite",
				"liquidate(address,uint256)": "infinite",
				"owner()": "2582",
				"priceFeeds(address)": "infinite",
				"renounceOwnership()": "infinite",
				"repayAsset(address,uint256)": "infinite",
				"revokeTokenApproval(address)": "infinite",
				"setFeed(address,address)": "infinite",
				"setLiquidationBonus(uint256)": "infinite",
				"setLtv(uint256)": "infinite",
				"stakeEth()": "infinite",
				"tokenIndex(address)": "2825",
				"transferOwnership(address)": "infinite",
				"users(address)": "infinite",
				"withdrawCollateralEth(uint256)": "infinite"
			},
			"internal": {
				"_activePosition(address)": "2232",
				"_borrowableAmount(address,address)": "infinite",
				"_default(address)": "58738",
				"_getTokenDecimals(address)": "infinite",
				"_hasCollateral(address)": "2232",
				"_poolTransfer(address,address,uint256)": "infinite",
				"_repayWithBorrowedAsset(address,address)": "2282",
				"_user(address)": "121"
			}
		},
		"methodIdentifiers": {
			"approveToken(address)": "80b2edd8",
			"approvedTokenList(uint256)": "9776f4a5",
			"approvedTokens(address)": "6d1ea3fa",
			"borrowAsset(address,uint256)": "0f07645a",
			"getApprovedTokensCount()": "4bb55d5c",
			"getContractEthBalance()": "4de57d75",
			"getContractsTokenBalance(address)": "3e4e1c27",
			"getLatestPrice(address)": "16345f18",
			"getUsdValue(address,uint256)": "c660d112",
			"getUser(address)": "6f77926b",
			"isTokenApproved(address)": "9d93d352",
			"liquidate(address,uint256)": "bcbaf487",
			"owner()": "8da5cb5b",
			"priceFeeds(address)": "9dcb511a",
			"renounceOwnership()": "715018a6",
			"repayAsset(address,uint256)": "b8bc9cab",
			"revokeTokenApproval(address)": "15c92678",
			"setFeed(address,address)": "40b1eb10",
			"setLiquidationBonus(uint256)": "28842d4f",
			"setLtv(uint256)": "a37e52e3",
			"stakeEth()": "7a5f0dc4",
			"tokenIndex(address)": "427f91a6",
			"transferOwnership(address)": "f2fde38b",
			"users(address)": "a87430ba",
			"withdrawCollateralEth(uint256)": "e1bf0a4b"
		}
	},
	"abi": [
		{
			"inputs": [
				{
					"internalType": "uint256",
					"name": "bonus",
					"type": "uint256"
				}
			],
			"name": "BadBonus",
			"type": "error"
		},
		{
			"inputs": [
				{
					"internalType": "uint256",
					"name": "ltv",
					"type": "uint256"
				}
			],
			"name": "BadLtv",
			"type": "error"
		},
		{
			"inputs": [
				{
					"internalType": "uint256",
					"name": "amount",
					"type": "uint256"
				},
				{
					"internalType": "uint256",
					"name": "availableToBorrow",
					"type": "uint256"
				}
			],
			"name": "BorrowLimitExceeded",
			"type": "error"
		},
		{
			"inputs": [
				{
					"internalType": "uint256",
					"name": "balance",
					"type": "uint256"
				}
			],
			"name": "BorrowedAmountNotFullyRepaid",
			"type": "error"
		},
		{
			"inputs": [],
			"name": "FeedDataNotFinalized",
			"type": "error"
		},
		{
			"inputs": [
				{
					"internalType": "uint256",
					"name": "poolBalance",
					"type": "uint256"
				},
				{
					"internalType": "uint256",
					"name": "requestedAmount",
					"type": "uint256"
				}
			],
			"name": "InsufficientPoolBalance",
			"type": "error"
		},
		{
			"inputs": [
				{
					"internalType": "address",
					"name": "addr",
					"type": "address"
				}
			],
			"name": "InvalidAddress",
			"type": "error"
		},
		{
			"inputs": [],
			"name": "InvalidAmount",
			"type": "error"
		},
		{
			"inputs": [
				{
					"internalType": "address",
					"name": "asset",
					"type": "address"
				}
			],
			"name": "InvalidAsset",
			"type": "error"
		},
		{
			"inputs": [],
			"name": "InvalidDecimals",
			"type": "error"
		},
		{
			"inputs": [
				{
					"internalType": "int256",
					"name": "price",
					"type": "int256"
				}
			],
			"name": "InvalidPriceData",
			"type": "error"
		},
		{
			"inputs": [],
			"name": "NoActivePosition",
			"type": "error"
		},
		{
			"inputs": [],
			"name": "NoCollateralProvided",
			"type": "error"
		},
		{
			"inputs": [
				{
					"internalType": "uint256",
					"name": "collateralBalance",
					"type": "uint256"
				},
				{
					"internalType": "uint256",
					"name": "userInput",
					"type": "uint256"
				}
			],
			"name": "NotEnoughCollateral",
			"type": "error"
		},
		{
			"inputs": [
				{
					"internalType": "uint256",
					"name": "amountPaid",
					"type": "uint256"
				},
				{
					"internalType": "uint256",
					"name": "expectedAmount",
					"type": "uint256"
				}
			],
			"name": "OverPaymentNotSupported",
			"type": "error"
		},
		{
			"inputs": [
				{
					"internalType": "address",
					"name": "owner",
					"type": "address"
				}
			],
			"name": "OwnableInvalidOwner",
			"type": "error"
		},
		{
			"inputs": [
				{
					"internalType": "address",
					"name": "account",
					"type": "address"
				}
			],
			"name": "OwnableUnauthorizedAccount",
			"type": "error"
		},
		{
			"inputs": [
				{
					"internalType": "uint256",
					"name": "data",
					"type": "uint256"
				}
			],
			"name": "StalePriceData",
			"type": "error"
		},
		{
			"inputs": [
				{
					"internalType": "address",
					"name": "token",
					"type": "address"
				}
			],
			"name": "TokenAlreadyApproved",
			"type": "error"
		},
		{
			"inputs": [
				{
					"internalType": "address",
					"name": "token",
					"type": "address"
				}
			],
			"name": "TokenNotApproved",
			"type": "error"
		},
		{
			"inputs": [
				{
					"internalType": "address",
					"name": "token",
					"type": "address"
				},
				{
					"internalType": "address",
					"name": "to",
					"type": "address"
				},
				{
					"internalType": "uint256",
					"name": "amount",
					"type": "uint256"
				}
			],
			"name": "TokenTransferFailed",
			"type": "error"
		},
		{
			"inputs": [
				{
					"internalType": "address",
					"name": "token",
					"type": "address"
				},
				{
					"internalType": "address",
					"name": "sender",
					"type": "address"
				},
				{
					"internalType": "uint256",
					"name": "amount",
					"type": "uint256"
				}
			],
			"name": "TransferFailed",
			"type": "error"
		},
		{
			"anonymous": false,
			"inputs": [
				{
					"indexed": false,
					"internalType": "uint256",
					"name": "newBonus",
					"type": "uint256"
				}
			],
			"name": "BonusUpdated",
			"type": "event"
		},
		{
			"anonymous": false,
			"inputs": [
				{
					"indexed": true,
					"internalType": "address",
					"name": "user",
					"type": "address"
				},
				{
					"indexed": false,
					"internalType": "uint256",
					"name": "amount",
					"type": "uint256"
				}
			],
			"name": "ETHCollateralWithdrawn",
			"type": "event"
		},
		{
			"anonymous": false,
			"inputs": [
				{
					"indexed": true,
					"internalType": "address",
					"name": "user",
					"type": "address"
				},
				{
					"indexed": false,
					"internalType": "uint256",
					"name": "ethAmount",
					"type": "uint256"
				}
			],
			"name": "EthStaked",
			"type": "event"
		},
		{
			"anonymous": false,
			"inputs": [
				{
					"indexed": false,
					"internalType": "uint256",
					"name": "newLtv",
					"type": "uint256"
				}
			],
			"name": "LtvUpdated",
			"type": "event"
		},
		{
			"anonymous": false,
			"inputs": [
				{
					"indexed": false,
					"internalType": "address",
					"name": "newAddress",
					"type": "address"
				}
			],
			"name": "MockUsdtAddressUpdated",
			"type": "event"
		},
		{
			"anonymous": false,
			"inputs": [
				{
					"indexed": true,
					"internalType": "address",
					"name": "token",
					"type": "address"
				}
			],
			"name": "NewTokenApproved",
			"type": "event"
		},
		{
			"anonymous": false,
			"inputs": [
				{
					"indexed": true,
					"internalType": "address",
					"name": "previousOwner",
					"type": "address"
				},
				{
					"indexed": true,
					"internalType": "address",
					"name": "newOwner",
					"type": "address"
				}
			],
			"name": "OwnershipTransferred",
			"type": "event"
		},
		{
			"anonymous": false,
			"inputs": [
				{
					"indexed": true,
					"internalType": "address",
					"name": "token",
					"type": "address"
				},
				{
					"indexed": true,
					"internalType": "address",
					"name": "feed",
					"type": "address"
				}
			],
			"name": "PriceFeedUpdated",
			"type": "event"
		},
		{
			"anonymous": false,
			"inputs": [
				{
					"indexed": true,
					"internalType": "address",
					"name": "token",
					"type": "address"
				}
			],
			"name": "TokenRevoked",
			"type": "event"
		},
		{
			"anonymous": false,
			"inputs": [
				{
					"indexed": true,
					"internalType": "address",
					"name": "user",
					"type": "address"
				},
				{
					"indexed": false,
					"internalType": "uint256",
					"name": "usdAmount",
					"type": "uint256"
				}
			],
			"name": "USDBorrowed",
			"type": "event"
		},
		{
			"anonymous": false,
			"inputs": [
				{
					"indexed": true,
					"internalType": "address",
					"name": "user",
					"type": "address"
				},
				{
					"indexed": false,
					"internalType": "uint256",
					"name": "usdAmount",
					"type": "uint256"
				}
			],
			"name": "USDRepaid",
			"type": "event"
		},
		{
			"stateMutability": "payable",
			"type": "fallback"
		},
		{
			"inputs": [
				{
					"internalType": "address",
					"name": "token",
					"type": "address"
				}
			],
			"name": "approveToken",
			"outputs": [],
			"stateMutability": "nonpayable",
			"type": "function"
		},
		{
			"inputs": [
				{
					"internalType": "uint256",
					"name": "",
					"type": "uint256"
				}
			],
			"name": "approvedTokenList",
			"outputs": [
				{
					"internalType": "address",
					"name": "",
					"type": "address"
				}
			],
			"stateMutability": "view",
			"type": "function"
		},
		{
			"inputs": [
				{
					"internalType": "address",
					"name": "",
					"type": "address"
				}
			],
			"name": "approvedTokens",
			"outputs": [
				{
					"internalType": "bool",
					"name": "",
					"type": "bool"
				}
			],
			"stateMutability": "view",
			"type": "function"
		},
		{
			"inputs": [
				{
					"internalType": "address",
					"name": "token",
					"type": "address"
				},
				{
					"internalType": "uint256",
					"name": "amount",
					"type": "uint256"
				}
			],
			"name": "borrowAsset",
			"outputs": [],
			"stateMutability": "nonpayable",
			"type": "function"
		},
		{
			"inputs": [],
			"name": "getApprovedTokensCount",
			"outputs": [
				{
					"internalType": "uint256",
					"name": "",
					"type": "uint256"
				}
			],
			"stateMutability": "view",
			"type": "function"
		},
		{
			"inputs": [],
			"name": "getContractEthBalance",
			"outputs": [
				{
					"internalType": "uint256",
					"name": "",
					"type": "uint256"
				}
			],
			"stateMutability": "view",
			"type": "function"
		},
		{
			"inputs": [
				{
					"internalType": "address",
					"name": "token",
					"type": "address"
				}
			],
			"name": "getContractsTokenBalance",
			"outputs": [
				{
					"internalType": "uint256",
					"name": "",
					"type": "uint256"
				}
			],
			"stateMutability": "view",
			"type": "function"
		},
		{
			"inputs": [
				{
					"internalType": "address",
					"name": "token",
					"type": "address"
				}
			],
			"name": "getLatestPrice",
			"outputs": [
				{
					"internalType": "uint256",
					"name": "",
					"type": "uint256"
				}
			],
			"stateMutability": "view",
			"type": "function"
		},
		{
			"inputs": [
				{
					"internalType": "address",
					"name": "token",
					"type": "address"
				},
				{
					"internalType": "uint256",
					"name": "amount",
					"type": "uint256"
				}
			],
			"name": "getUsdValue",
			"outputs": [
				{
					"internalType": "uint256",
					"name": "usdValue",
					"type": "uint256"
				}
			],
			"stateMutability": "view",
			"type": "function"
		},
		{
			"inputs": [
				{
					"internalType": "address",
					"name": "user",
					"type": "address"
				}
			],
			"name": "getUser",
			"outputs": [
				{
					"internalType": "address",
					"name": "stakedAsset",
					"type": "address"
				},
				{
					"internalType": "uint256",
					"name": "stakedAmount",
					"type": "uint256"
				},
				{
					"internalType": "address",
					"name": "borrowedAsset",
					"type": "address"
				},
				{
					"internalType": "uint256",
					"name": "borrowedAssetAmount",
					"type": "uint256"
				}
			],
			"stateMutability": "view",
			"type": "function"
		},
		{
			"inputs": [
				{
					"internalType": "address",
					"name": "token",
					"type": "address"
				}
			],
			"name": "isTokenApproved",
			"outputs": [
				{
					"internalType": "bool",
					"name": "",
					"type": "bool"
				}
			],
			"stateMutability": "view",
			"type": "function"
		},
		{
			"inputs": [
				{
					"internalType": "address",
					"name": "borrower",
					"type": "address"
				},
				{
					"internalType": "uint256",
					"name": "repayAmount",
					"type": "uint256"
				}
			],
			"name": "liquidate",
			"outputs": [],
			"stateMutability": "nonpayable",
			"type": "function"
		},
		{
			"inputs": [],
			"name": "owner",
			"outputs": [
				{
					"internalType": "address",
					"name": "",
					"type": "address"
				}
			],
			"stateMutability": "view",
			"type": "function"
		},
		{
			"inputs": [
				{
					"internalType": "address",
					"name": "",
					"type": "address"
				}
			],
			"name": "priceFeeds",
			"outputs": [
				{
					"internalType": "address",
					"name": "",
					"type": "address"
				}
			],
			"stateMutability": "view",
			"type": "function"
		},
		{
			"inputs": [],
			"name": "renounceOwnership",
			"outputs": [],
			"stateMutability": "nonpayable",
			"type": "function"
		},
		{
			"inputs": [
				{
					"internalType": "address",
					"name": "token",
					"type": "address"
				},
				{
					"internalType": "uint256",
					"name": "amount",
					"type": "uint256"
				}
			],
			"name": "repayAsset",
			"outputs": [],
			"stateMutability": "nonpayable",
			"type": "function"
		},
		{
			"inputs": [
				{
					"internalType": "address",
					"name": "token",
					"type": "address"
				}
			],
			"name": "revokeTokenApproval",
			"outputs": [],
			"stateMutability": "nonpayable",
			"type": "function"
		},
		{
			"inputs": [
				{
					"internalType": "address",
					"name": "token",
					"type": "address"
				},
				{
					"internalType": "address",
					"name": "feed",
					"type": "address"
				}
			],
			"name": "setFeed",
			"outputs": [],
			"stateMutability": "nonpayable",
			"type": "function"
		},
		{
			"inputs": [
				{
					"internalType": "uint256",
					"name": "_bonus",
					"type": "uint256"
				}
			],
			"name": "setLiquidationBonus",
			"outputs": [],
			"stateMutability": "nonpayable",
			"type": "function"
		},
		{
			"inputs": [
				{
					"internalType": "uint256",
					"name": "_ltv",
					"type": "uint256"
				}
			],
			"name": "setLtv",
			"outputs": [],
			"stateMutability": "nonpayable",
			"type": "function"
		},
		{
			"inputs": [],
			"name": "stakeEth",
			"outputs": [],
			"stateMutability": "payable",
			"type": "function"
		},
		{
			"inputs": [
				{
					"internalType": "address",
					"name": "",
					"type": "address"
				}
			],
			"name": "tokenIndex",
			"outputs": [
				{
					"internalType": "uint256",
					"name": "",
					"type": "uint256"
				}
			],
			"stateMutability": "view",
			"type": "function"
		},
		{
			"inputs": [
				{
					"internalType": "address",
					"name": "newOwner",
					"type": "address"
				}
			],
			"name": "transferOwnership",
			"outputs": [],
			"stateMutability": "nonpayable",
			"type": "function"
		},
		{
			"inputs": [
				{
					"internalType": "address",
					"name": "",
					"type": "address"
				}
			],
			"name": "users",
			"outputs": [
				{
					"internalType": "address",
					"name": "stakedAsset",
					"type": "address"
				},
				{
					"internalType": "uint256",
					"name": "stakedAmount",
					"type": "uint256"
				},
				{
					"internalType": "address",
					"name": "borrowedAsset",
					"type": "address"
				},
				{
					"internalType": "uint256",
					"name": "borrowedAssetAmount",
					"type": "uint256"
				}
			],
			"stateMutability": "view",
			"type": "function"
		},
		{
			"inputs": [
				{
					"internalType": "uint256",
					"name": "amount",
					"type": "uint256"
				}
			],
			"name": "withdrawCollateralEth",
			"outputs": [],
			"stateMutability": "nonpayable",
			"type": "function"
		},
		{
			"stateMutability": "payable",
			"type": "receive"
		}
	]
}