{
	"data": {
		"bytecode": {
			"linkReferences": {},
			"object": "60806040526032600555604b6006556101f460075534801561001f575f5ffd5b506040516128eb3803806128eb83398181016040528101906100419190610318565b3360015f819055505f73ffffffffffffffffffffffffffffffffffffffff168173ffffffffffffffffffffffffffffffffffffffff16036100b9575f6040517f1e4fbdf70000000000000000000000000000000000000000000000000000000081526004016100b09190610365565b60405180910390fd5b6100c8816101f760201b60201c565b505f73ffffffffffffffffffffffffffffffffffffffff168273ffffffffffffffffffffffffffffffffffffffff16148061012e57505f73ffffffffffffffffffffffffffffffffffffffff168173ffffffffffffffffffffffffffffffffffffffff16145b15610170575f6040517f8e4c8aa60000000000000000000000000000000000000000000000000000000081526004016101679190610365565b60405180910390fd5b8160035f6101000a81548173ffffffffffffffffffffffffffffffffffffffff021916908373ffffffffffffffffffffffffffffffffffffffff1602179055508060045f6101000a81548173ffffffffffffffffffffffffffffffffffffffff021916908373ffffffffffffffffffffffffffffffffffffffff160217905550505061037e565b5f60015f9054906101000a900473ffffffffffffffffffffffffffffffffffffffff1690508160015f6101000a81548173ffffffffffffffffffffffffffffffffffffffff021916908373ffffffffffffffffffffffffffffffffffffffff1602179055508173ffffffffffffffffffffffffffffffffffffffff168173ffffffffffffffffffffffffffffffffffffffff167f8be0079c531659141344cd1fd0a4f28419497f9722a3daafe3b4186f6b6457e060405160405180910390a35050565b5f5ffd5b5f73ffffffffffffffffffffffffffffffffffffffff82169050919050565b5f6102e7826102be565b9050919050565b6102f7816102dd565b8114610301575f5ffd5b50565b5f81519050610312816102ee565b92915050565b5f5f6040838503121561032e5761032d6102ba565b5b5f61033b85828601610304565b925050602061034c85828601610304565b9150509250929050565b61035f816102dd565b82525050565b5f6020820190506103785f830184610356565b92915050565b6125608061038b5f395ff3fe608060405260043610610169575f3560e01c80637a5f0dc4116100d0578063bcbaf48711610089578063e1bf0a4b11610063578063e1bf0a4b146104e5578063f2fde38b1461050d578063f897a22b14610535578063fb2926b21461055f5761016a565b8063bcbaf4871461046b578063da80559014610493578063e1a45218146104bb5761016a565b80637a5f0dc41461037e57806380b1acf5146103885780638da5cb5b146103b257806397d43965146103dc578063a37e52e314610406578063a87430ba1461042e5761016a565b80634aed0980116101225780634aed09801461029c578063530e784f146102c45780635c2e3de2146102ec5780636a146024146103145780636f811a2d1461033e578063715018a6146103685761016a565b806319970d8e1461016c5780632630c12f1461019657806328842d4f146101c057806329f98057146101e85780632c38199e1461022457806330f883e3146102605761016a565b5b005b348015610177575f5ffd5b5061018061059b565b60405161018d9190611ee4565b60405180910390f35b3480156101a1575f5ffd5b506101aa6105a1565b6040516101b79190611f77565b60405180910390f35b3480156101cb575f5ffd5b506101e660048036038101906101e19190611fbe565b6105c6565b005b3480156101f3575f5ffd5b5061020e60048036038101906102099190612024565b610654565b60405161021b9190611ee4565b60405180910390f35b34801561022f575f5ffd5b5061024a60048036038101906102459190612024565b610747565b6040516102579190611ee4565b60405180910390f35b34801561026b575f5ffd5b5061028660048036038101906102819190612024565b6107f9565b6040516102939190611ee4565b60405180910390f35b3480156102a7575f5ffd5b506102c260048036038101906102bd9190611fbe565b610828565b005b3480156102cf575f5ffd5b506102ea60048036038101906102e59190612024565b610a82565b005b3480156102f7575f5ffd5b50610312600480360381019061030d9190611fbe565b610b80565b005b34801561031f575f5ffd5b50610328610d31565b6040516103359190611ee4565b60405180910390f35b348015610349575f5ffd5b50610352610d3d565b60405161035f9190611ee4565b60405180910390f35b348015610373575f5ffd5b5061037c610d43565b005b610386610d56565b005b348015610393575f5ffd5b5061039c610e44565b6040516103a99190611ee4565b60405180910390f35b3480156103bd575f5ffd5b506103c6610e49565b6040516103d3919061205e565b60405180910390f35b3480156103e7575f5ffd5b506103f0610e71565b6040516103fd9190611ee4565b60405180910390f35b348015610411575f5ffd5b5061042c60048036038101906104279190611fbe565b610e77565b005b348015610439575f5ffd5b50610454600480360381019061044f9190612024565b610f04565b604051610462929190612077565b60405180910390f35b348015610476575f5ffd5b50610491600480360381019061048c919061209e565b610f24565b005b34801561049e575f5ffd5b506104b960048036038101906104b49190612024565b61141b565b005b3480156104c6575f5ffd5b506104cf611519565b6040516104dc9190611ee4565b60405180910390f35b3480156104f0575f5ffd5b5061050b60048036038101906105069190611fbe565b61151f565b005b348015610518575f5ffd5b50610533600480360381019061052e9190612024565b61182d565b005b348015610540575f5ffd5b506105496118b1565b60405161055691906120fc565b60405180910390f35b34801561056a575f5ffd5b5061058560048036038101906105809190612024565b6118d6565b6040516105929190611ee4565b60405180910390f35b60075481565b60045f9054906101000a900473ffffffffffffffffffffffffffffffffffffffff1681565b6105ce61199d565b612710811115610613576040517f08c379a000000000000000000000000000000000000000000000000000000000815260040161060a9061216f565b60405180910390fd5b806007819055507faebdbb2d62051c61387bf5a1cd77f093484880809eabd6b2ecefb2dc5869d23d816040516106499190611ee4565b60405180910390a150565b5f670de0b6b3a764000060045f9054906101000a900473ffffffffffffffffffffffffffffffffffffffff1673ffffffffffffffffffffffffffffffffffffffff16638e15f4736040518163ffffffff1660e01b8152600401602060405180830381865afa1580156106c8573d5f5f3e3d5ffd5b505050506040513d601f19601f820116820180604052508101906106ec91906121a1565b60025f8573ffffffffffffffffffffffffffffffffffffffff1673ffffffffffffffffffffffffffffffffffffffff1681526020019081526020015f205f015461073691906121f9565b6107409190612267565b9050919050565b5f5f610752836107f9565b90508060025f8573ffffffffffffffffffffffffffffffffffffffff1673ffffffffffffffffffffffffffffffffffffffff1681526020019081526020015f2060010154106107a4575f9150506107f4565b60025f8473ffffffffffffffffffffffffffffffffffffffff1673ffffffffffffffffffffffffffffffffffffffff1681526020019081526020015f2060010154816107f09190612297565b9150505b919050565b5f5f61080483610654565b905060646005548261081691906121f9565b6108209190612267565b915050919050565b610830611a24565b5f8103610869576040517f2c5211c600000000000000000000000000000000000000000000000000000000815260040160405180910390fd5b5f60025f3373ffffffffffffffffffffffffffffffffffffffff1673ffffffffffffffffffffffffffffffffffffffff1681526020019081526020015f2090505f8160010154036108e6576040517fb016be5e00000000000000000000000000000000000000000000000000000000815260040160405180910390fd5b8060010154821115610935578181600101546040517f99bcd81300000000000000000000000000000000000000000000000000000000815260040161092c929190612077565b60405180910390fd5b5f60035f9054906101000a900473ffffffffffffffffffffffffffffffffffffffff1673ffffffffffffffffffffffffffffffffffffffff166323b872dd3330866040518463ffffffff1660e01b8152600401610994939291906122ca565b6020604051808303815f875af11580156109b0573d5f5f3e3d5ffd5b505050506040513d601f19601f820116820180604052508101906109d49190612334565b905080610a0d576040517f90b8ec1800000000000000000000000000000000000000000000000000000000815260040160405180910390fd5b82826001015f828254610a209190612297565b925050819055503373ffffffffffffffffffffffffffffffffffffffff167fb7efcc12f3d3e74e33995ff303aca806b9428989809e60a4e5a4d465832966e484604051610a6d9190611ee4565b60405180910390a25050610a7f611a71565b50565b610a8a61199d565b5f73ffffffffffffffffffffffffffffffffffffffff168173ffffffffffffffffffffffffffffffffffffffff1603610afa57806040517f8e4c8aa6000000000000000000000000000000000000000000000000000000008152600401610af1919061205e565b60405180910390fd5b8060045f6101000a81548173ffffffffffffffffffffffffffffffffffffffff021916908373ffffffffffffffffffffffffffffffffffffffff1602179055508073ffffffffffffffffffffffffffffffffffffffff167f3df77beb5db05fcdd70a30fc8adf3f83f9501b68579455adbd100b818094039460405160405180910390a250565b610b88611a24565b5f8103610bc1576040517f2c5211c600000000000000000000000000000000000000000000000000000000815260040160405180910390fd5b5f60025f3373ffffffffffffffffffffffffffffffffffffffff1673ffffffffffffffffffffffffffffffffffffffff1681526020019081526020015f2090505f815f015403610c3d576040517fb016be5e00000000000000000000000000000000000000000000000000000000815260040160405180910390fd5b5f610c47336107f9565b905080838360010154610c5a919061235f565b1115610cb2575f826001015482610c719190612297565b905083816040517fd771d8e9000000000000000000000000000000000000000000000000000000008152600401610ca9929190612077565b60405180910390fd5b82826001015f828254610cc5919061235f565b92505081905550610cd63384611a7a565b3373ffffffffffffffffffffffffffffffffffffffff167f5abc9a9c4616711eb03d720e050325118645a3695a5e75b5b10a29e2e217fe0384604051610d1c9190611ee4565b60405180910390a25050610d2e611a71565b50565b670de0b6b3a764000081565b60055481565b610d4b61199d565b610d545f611e02565b565b610d5e611a24565b5f3403610d97576040517fb016be5e00000000000000000000000000000000000000000000000000000000815260040160405180910390fd5b3460025f3373ffffffffffffffffffffffffffffffffffffffff1673ffffffffffffffffffffffffffffffffffffffff1681526020019081526020015f205f015f828254610de5919061235f565b925050819055503373ffffffffffffffffffffffffffffffffffffffff167f1c0917c3a343a300b56473c59fa8355d3326f2c73472679a5b4cd5d6e0390c8034604051610e329190611ee4565b60405180910390a2610e42611a71565b565b606481565b5f60015f9054906101000a900473ffffffffffffffffffffffffffffffffffffffff16905090565b60065481565b610e7f61199d565b6064811115610ec3576040517f08c379a0000000000000000000000000000000000000000000000000000000008152600401610eba906123dc565b60405180910390fd5b806005819055507fcce25c35b561657fb7cd2ac403c6a4854283d0f4d462e68e0f97d07c348bcff281604051610ef99190611ee4565b60405180910390a150565b6002602052805f5260405f205f91509050805f0154908060010154905082565b610f2c611a24565b5f8103610f65576040517f2c5211c600000000000000000000000000000000000000000000000000000000815260040160405180910390fd5b5f73ffffffffffffffffffffffffffffffffffffffff168273ffffffffffffffffffffffffffffffffffffffff1603610fd557816040517f8e4c8aa6000000000000000000000000000000000000000000000000000000008152600401610fcc919061205e565b60405180910390fd5b5f60025f8473ffffffffffffffffffffffffffffffffffffffff1673ffffffffffffffffffffffffffffffffffffffff1681526020019081526020015f2090505f816001015403611052576040517fb016be5e00000000000000000000000000000000000000000000000000000000815260040160405180910390fd5b5f60045f9054906101000a900473ffffffffffffffffffffffffffffffffffffffff1673ffffffffffffffffffffffffffffffffffffffff16638e15f4736040518163ffffffff1660e01b8152600401602060405180830381865afa1580156110bd573d5f5f3e3d5ffd5b505050506040513d601f19601f820116820180604052508101906110e191906121a1565b90505f6110ed85610654565b90505f600654826110fe91906121f9565b90505f6064856001015461111291906121f9565b90508082106111765780670de0b6b3a76400008361113091906121f9565b61113a9190612267565b6040517f4fd4b9f700000000000000000000000000000000000000000000000000000000815260040161116d9190611ee4565b60405180910390fd5b5f85600101548711611188578661118e565b85600101545b90505f60035f9054906101000a900473ffffffffffffffffffffffffffffffffffffffff1673ffffffffffffffffffffffffffffffffffffffff166323b872dd3330856040518463ffffffff1660e01b81526004016111ef939291906122ca565b6020604051808303815f875af115801561120b573d5f5f3e3d5ffd5b505050506040513d601f19601f8201168201806040525081019061122f9190612334565b905080611268576040517f90b8ec1800000000000000000000000000000000000000000000000000000000815260040160405180910390fd5b5f86670de0b6b3a76400008461127e91906121f9565b6112889190612267565b90505f60075461271061129b919061235f565b90505f61271082846112ad91906121f9565b6112b79190612267565b9050895f01548111156112cb57895f015490505b848a6001015f8282546112de9190612297565b92505081905550808a5f015f8282546112f79190612297565b925050819055505f3373ffffffffffffffffffffffffffffffffffffffff168260405161132390612427565b5f6040518083038185875af1925050503d805f811461135d576040519150601f19603f3d011682016040523d82523d5f602084013e611362565b606091505b505090508061139d576040517f90b8ec1800000000000000000000000000000000000000000000000000000000815260040160405180910390fd5b8c73ffffffffffffffffffffffffffffffffffffffff163373ffffffffffffffffffffffffffffffffffffffff167f4ecae3269f800df64b16cb9f6f8b0b507018888521d1cff0841823e44bc0b00d88856040516113fc929190612077565b60405180910390a35050505050505050505050611417611a71565b5050565b61142361199d565b5f73ffffffffffffffffffffffffffffffffffffffff168173ffffffffffffffffffffffffffffffffffffffff160361149357806040517f8e4c8aa600000000000000000000000000000000000000000000000000000000815260040161148a919061205e565b60405180910390fd5b8060035f6101000a81548173ffffffffffffffffffffffffffffffffffffffff021916908373ffffffffffffffffffffffffffffffffffffffff1602179055508073ffffffffffffffffffffffffffffffffffffffff167f81a590c208a61d15bdfb64b188e09c0a6fbc5cc06d3f769de354972a76d0c12f60405160405180910390a250565b61271081565b611527611a24565b5f8103611560576040517f2c5211c600000000000000000000000000000000000000000000000000000000815260040160405180910390fd5b5f60025f3373ffffffffffffffffffffffffffffffffffffffff1673ffffffffffffffffffffffffffffffffffffffff1681526020019081526020015f20905081815f015410156115ed57805f0154826040517f768063db0000000000000000000000000000000000000000000000000000000081526004016115e4929190612077565b60405180910390fd5b5f82825f01546115fd9190612297565b90505f60045f9054906101000a900473ffffffffffffffffffffffffffffffffffffffff1673ffffffffffffffffffffffffffffffffffffffff16638e15f4736040518163ffffffff1660e01b8152600401602060405180830381865afa15801561166a573d5f5f3e3d5ffd5b505050506040513d601f19601f8201168201806040525081019061168e91906121a1565b90505f670de0b6b3a764000082846116a691906121f9565b6116b09190612267565b90505f84600101541115611728575f600554606486600101546116d391906121f9565b6116dd9190612267565b905080821015611726575f816040517fd771d8e900000000000000000000000000000000000000000000000000000000815260040161171d929190612474565b60405180910390fd5b505b82845f01819055505f3373ffffffffffffffffffffffffffffffffffffffff168660405161175590612427565b5f6040518083038185875af1925050503d805f811461178f576040519150601f19603f3d011682016040523d82523d5f602084013e611794565b606091505b50509050806117cf576040517f90b8ec1800000000000000000000000000000000000000000000000000000000815260040160405180910390fd5b3373ffffffffffffffffffffffffffffffffffffffff167f5b0743acabce0ea09498b3c2598ed444f80ef6513a2029d7d9aaed87064d1edb876040516118159190611ee4565b60405180910390a2505050505061182a611a71565b50565b61183561199d565b5f73ffffffffffffffffffffffffffffffffffffffff168173ffffffffffffffffffffffffffffffffffffffff16036118a5575f6040517f1e4fbdf700000000000000000000000000000000000000000000000000000000815260040161189c919061205e565b60405180910390fd5b6118ae81611e02565b50565b60035f9054906101000a900473ffffffffffffffffffffffffffffffffffffffff1681565b5f5f60025f8473ffffffffffffffffffffffffffffffffffffffff1673ffffffffffffffffffffffffffffffffffffffff1681526020019081526020015f2090505f81600101540361194b577fffffffffffffffffffffffffffffffffffffffffffffffffffffffffffffffff915050611998565b5f61195584610654565b90506064826001015461196891906121f9565b670de0b6b3a76400006006548361197f91906121f9565b61198991906121f9565b6119939190612267565b925050505b919050565b6119a5611ec5565b73ffffffffffffffffffffffffffffffffffffffff166119c3610e49565b73ffffffffffffffffffffffffffffffffffffffff1614611a22576119e6611ec5565b6040517f118cdaa7000000000000000000000000000000000000000000000000000000008152600401611a19919061205e565b60405180910390fd5b565b60025f5403611a68576040517f08c379a0000000000000000000000000000000000000000000000000000000008152600401611a5f906124e5565b60405180910390fd5b60025f81905550565b60015f81905550565b5f60035f9054906101000a900473ffffffffffffffffffffffffffffffffffffffff1673ffffffffffffffffffffffffffffffffffffffff166370a08231306040518263ffffffff1660e01b8152600401611ad5919061205e565b602060405180830381865afa158015611af0573d5f5f3e3d5ffd5b505050506040513d601f19601f82011682018060405250810190611b1491906121a1565b9050818110611bfa575f60035f9054906101000a900473ffffffffffffffffffffffffffffffffffffffff1673ffffffffffffffffffffffffffffffffffffffff1663a9059cbb85856040518363ffffffff1660e01b8152600401611b7a929190612503565b6020604051808303815f875af1158015611b96573d5f5f3e3d5ffd5b505050506040513d601f19601f82011682018060405250810190611bba9190612334565b905080611bf3576040517f90b8ec1800000000000000000000000000000000000000000000000000000000815260040160405180910390fd5b5050611dfe565b5f8183611c079190612297565b90505f821115611ce9575f60035f9054906101000a900473ffffffffffffffffffffffffffffffffffffffff1673ffffffffffffffffffffffffffffffffffffffff1663a9059cbb86856040518363ffffffff1660e01b8152600401611c6e929190612503565b6020604051808303815f875af1158015611c8a573d5f5f3e3d5ffd5b505050506040513d601f19601f82011682018060405250810190611cae9190612334565b905080611ce7576040517f90b8ec1800000000000000000000000000000000000000000000000000000000815260040160405180910390fd5b505b60035f9054906101000a900473ffffffffffffffffffffffffffffffffffffffff1673ffffffffffffffffffffffffffffffffffffffff166340c10f1985836040518363ffffffff1660e01b8152600401611d45929190612503565b6020604051808303815f875af1925050508015611d8057506040513d601f19601f82011682018060405250810190611d7d9190612334565b60015b611dc35782826040517f206adee0000000000000000000000000000000000000000000000000000000008152600401611dba929190612077565b60405180910390fd5b80611dfa576040517f6a17288200000000000000000000000000000000000000000000000000000000815260040160405180910390fd5b5050505b5050565b5f60015f9054906101000a900473ffffffffffffffffffffffffffffffffffffffff1690508160015f6101000a81548173ffffffffffffffffffffffffffffffffffffffff021916908373ffffffffffffffffffffffffffffffffffffffff1602179055508173ffffffffffffffffffffffffffffffffffffffff168173ffffffffffffffffffffffffffffffffffffffff167f8be0079c531659141344cd1fd0a4f28419497f9722a3daafe3b4186f6b6457e060405160405180910390a35050565b5f33905090565b5f819050919050565b611ede81611ecc565b82525050565b5f602082019050611ef75f830184611ed5565b92915050565b5f73ffffffffffffffffffffffffffffffffffffffff82169050919050565b5f819050919050565b5f611f3f611f3a611f3584611efd565b611f1c565b611efd565b9050919050565b5f611f5082611f25565b9050919050565b5f611f6182611f46565b9050919050565b611f7181611f57565b82525050565b5f602082019050611f8a5f830184611f68565b92915050565b5f5ffd5b611f9d81611ecc565b8114611fa7575f5ffd5b50565b5f81359050611fb881611f94565b92915050565b5f60208284031215611fd357611fd2611f90565b5b5f611fe084828501611faa565b91505092915050565b5f611ff382611efd565b9050919050565b61200381611fe9565b811461200d575f5ffd5b50565b5f8135905061201e81611ffa565b92915050565b5f6020828403121561203957612038611f90565b5b5f61204684828501612010565b91505092915050565b61205881611fe9565b82525050565b5f6020820190506120715f83018461204f565b92915050565b5f60408201905061208a5f830185611ed5565b6120976020830184611ed5565b9392505050565b5f5f604083850312156120b4576120b3611f90565b5b5f6120c185828601612010565b92505060206120d285828601611faa565b9150509250929050565b5f6120e682611f46565b9050919050565b6120f6816120dc565b82525050565b5f60208201905061210f5f8301846120ed565b92915050565b5f82825260208201905092915050565b7f62616420627073000000000000000000000000000000000000000000000000005f82015250565b5f612159600783612115565b915061216482612125565b602082019050919050565b5f6020820190508181035f8301526121868161214d565b9050919050565b5f8151905061219b81611f94565b92915050565b5f602082840312156121b6576121b5611f90565b5b5f6121c38482850161218d565b91505092915050565b7f4e487b71000000000000000000000000000000000000000000000000000000005f52601160045260245ffd5b5f61220382611ecc565b915061220e83611ecc565b925082820261221c81611ecc565b91508282048414831517612233576122326121cc565b5b5092915050565b7f4e487b71000000000000000000000000000000000000000000000000000000005f52601260045260245ffd5b5f61227182611ecc565b915061227c83611ecc565b92508261228c5761228b61223a565b5b828204905092915050565b5f6122a182611ecc565b91506122ac83611ecc565b92508282039050818111156122c4576122c36121cc565b5b92915050565b5f6060820190506122dd5f83018661204f565b6122ea602083018561204f565b6122f76040830184611ed5565b949350505050565b5f8115159050919050565b612313816122ff565b811461231d575f5ffd5b50565b5f8151905061232e8161230a565b92915050565b5f6020828403121561234957612348611f90565b5b5f61235684828501612320565b91505092915050565b5f61236982611ecc565b915061237483611ecc565b925082820190508082111561238c5761238b6121cc565b5b92915050565b7f626164206c7476000000000000000000000000000000000000000000000000005f82015250565b5f6123c6600783612115565b91506123d182612392565b602082019050919050565b5f6020820190508181035f8301526123f3816123ba565b9050919050565b5f81905092915050565b50565b5f6124125f836123fa565b915061241d82612404565b5f82019050919050565b5f61243182612407565b9150819050919050565b5f819050919050565b5f61245e6124596124548461243b565b611f1c565b611ecc565b9050919050565b61246e81612444565b82525050565b5f6040820190506124875f830185612465565b6124946020830184611ed5565b9392505050565b7f5265656e7472616e637947756172643a207265656e7472616e742063616c6c005f82015250565b5f6124cf601f83612115565b91506124da8261249b565b602082019050919050565b5f6020820190508181035f8301526124fc816124c3565b9050919050565b5f6040820190506125165f83018561204f565b6125236020830184611ed5565b939250505056fea26469706673582212200472c204aa4620d5002e63835b1f7420dc858ad9966977ef8f2c2877413258d764736f6c634300081f0033",
			"opcodes": "PUSH1 0x80 PUSH1 0x40 MSTORE PUSH1 0x32 PUSH1 0x5 SSTORE PUSH1 0x4B PUSH1 0x6 SSTORE PUSH2 0x1F4 PUSH1 0x7 SSTORE CALLVALUE DUP1 ISZERO PUSH2 0x1F JUMPI PUSH0 PUSH0 REVERT JUMPDEST POP PUSH1 0x40 MLOAD PUSH2 0x28EB CODESIZE SUB DUP1 PUSH2 0x28EB DUP4 CODECOPY DUP2 DUP2 ADD PUSH1 0x40 MSTORE DUP2 ADD SWAP1 PUSH2 0x41 SWAP2 SWAP1 PUSH2 0x318 JUMP JUMPDEST CALLER PUSH1 0x1 PUSH0 DUP2 SWAP1 SSTORE POP PUSH0 PUSH20 0xFFFFFFFFFFFFFFFFFFFFFFFFFFFFFFFFFFFFFFFF AND DUP2 PUSH20 0xFFFFFFFFFFFFFFFFFFFFFFFFFFFFFFFFFFFFFFFF AND SUB PUSH2 0xB9 JUMPI PUSH0 PUSH1 0x40 MLOAD PUSH32 0x1E4FBDF700000000000000000000000000000000000000000000000000000000 DUP2 MSTORE PUSH1 0x4 ADD PUSH2 0xB0 SWAP2 SWAP1 PUSH2 0x365 JUMP JUMPDEST PUSH1 0x40 MLOAD DUP1 SWAP2 SUB SWAP1 REVERT JUMPDEST PUSH2 0xC8 DUP2 PUSH2 0x1F7 PUSH1 0x20 SHL PUSH1 0x20 SHR JUMP JUMPDEST POP PUSH0 PUSH20 0xFFFFFFFFFFFFFFFFFFFFFFFFFFFFFFFFFFFFFFFF AND DUP3 PUSH20 0xFFFFFFFFFFFFFFFFFFFFFFFFFFFFFFFFFFFFFFFF AND EQ DUP1 PUSH2 0x12E JUMPI POP PUSH0 PUSH20 0xFFFFFFFFFFFFFFFFFFFFFFFFFFFFFFFFFFFFFFFF AND DUP2 PUSH20 0xFFFFFFFFFFFFFFFFFFFFFFFFFFFFFFFFFFFFFFFF AND EQ JUMPDEST ISZERO PUSH2 0x170 JUMPI PUSH0 PUSH1 0x40 MLOAD PUSH32 0x8E4C8AA600000000000000000000000000000000000000000000000000000000 DUP2 MSTORE PUSH1 0x4 ADD PUSH2 0x167 SWAP2 SWAP1 PUSH2 0x365 JUMP JUMPDEST PUSH1 0x40 MLOAD DUP1 SWAP2 SUB SWAP1 REVERT JUMPDEST DUP2 PUSH1 0x3 PUSH0 PUSH2 0x100 EXP DUP2 SLOAD DUP2 PUSH20 0xFFFFFFFFFFFFFFFFFFFFFFFFFFFFFFFFFFFFFFFF MUL NOT AND SWAP1 DUP4 PUSH20 0xFFFFFFFFFFFFFFFFFFFFFFFFFFFFFFFFFFFFFFFF AND MUL OR SWAP1 SSTORE POP DUP1 PUSH1 0x4 PUSH0 PUSH2 0x100 EXP DUP2 SLOAD DUP2 PUSH20 0xFFFFFFFFFFFFFFFFFFFFFFFFFFFFFFFFFFFFFFFF MUL NOT AND SWAP1 DUP4 PUSH20 0xFFFFFFFFFFFFFFFFFFFFFFFFFFFFFFFFFFFFFFFF AND MUL OR SWAP1 SSTORE POP POP POP PUSH2 0x37E JUMP JUMPDEST PUSH0 PUSH1 0x1 PUSH0 SWAP1 SLOAD SWAP1 PUSH2 0x100 EXP SWAP1 DIV PUSH20 0xFFFFFFFFFFFFFFFFFFFFFFFFFFFFFFFFFFFFFFFF AND SWAP1 POP DUP2 PUSH1 0x1 PUSH0 PUSH2 0x100 EXP DUP2 SLOAD DUP2 PUSH20 0xFFFFFFFFFFFFFFFFFFFFFFFFFFFFFFFFFFFFFFFF MUL NOT AND SWAP1 DUP4 PUSH20 0xFFFFFFFFFFFFFFFFFFFFFFFFFFFFFFFFFFFFFFFF AND MUL OR SWAP1 SSTORE POP DUP2 PUSH20 0xFFFFFFFFFFFFFFFFFFFFFFFFFFFFFFFFFFFFFFFF AND DUP2 PUSH20 0xFFFFFFFFFFFFFFFFFFFFFFFFFFFFFFFFFFFFFFFF AND PUSH32 0x8BE0079C531659141344CD1FD0A4F28419497F9722A3DAAFE3B4186F6B6457E0 PUSH1 0x40 MLOAD PUSH1 0x40 MLOAD DUP1 SWAP2 SUB SWAP1 LOG3 POP POP JUMP JUMPDEST PUSH0 PUSH0 REVERT JUMPDEST PUSH0 PUSH20 0xFFFFFFFFFFFFFFFFFFFFFFFFFFFFFFFFFFFFFFFF DUP3 AND SWAP1 POP SWAP2 SWAP1 POP JUMP JUMPDEST PUSH0 PUSH2 0x2E7 DUP3 PUSH2 0x2BE JUMP JUMPDEST SWAP1 POP SWAP2 SWAP1 POP JUMP JUMPDEST PUSH2 0x2F7 DUP2 PUSH2 0x2DD JUMP JUMPDEST DUP2 EQ PUSH2 0x301 JUMPI PUSH0 PUSH0 REVERT JUMPDEST POP JUMP JUMPDEST PUSH0 DUP2 MLOAD SWAP1 POP PUSH2 0x312 DUP2 PUSH2 0x2EE JUMP JUMPDEST SWAP3 SWAP2 POP POP JUMP JUMPDEST PUSH0 PUSH0 PUSH1 0x40 DUP4 DUP6 SUB SLT ISZERO PUSH2 0x32E JUMPI PUSH2 0x32D PUSH2 0x2BA JUMP JUMPDEST JUMPDEST PUSH0 PUSH2 0x33B DUP6 DUP3 DUP7 ADD PUSH2 0x304 JUMP JUMPDEST SWAP3 POP POP PUSH1 0x20 PUSH2 0x34C DUP6 DUP3 DUP7 ADD PUSH2 0x304 JUMP JUMPDEST SWAP2 POP POP SWAP3 POP SWAP3 SWAP1 POP JUMP JUMPDEST PUSH2 0x35F DUP2 PUSH2 0x2DD JUMP JUMPDEST DUP3 MSTORE POP POP JUMP JUMPDEST PUSH0 PUSH1 0x20 DUP3 ADD SWAP1 POP PUSH2 0x378 PUSH0 DUP4 ADD DUP5 PUSH2 0x356 JUMP JUMPDEST SWAP3 SWAP2 POP POP JUMP JUMPDEST PUSH2 0x2560 DUP1 PUSH2 0x38B PUSH0 CODECOPY PUSH0 RETURN INVALID PUSH1 0x80 PUSH1 0x40 MSTORE PUSH1 0x4 CALLDATASIZE LT PUSH2 0x169 JUMPI PUSH0 CALLDATALOAD PUSH1 0xE0 SHR DUP1 PUSH4 0x7A5F0DC4 GT PUSH2 0xD0 JUMPI DUP1 PUSH4 0xBCBAF487 GT PUSH2 0x89 JUMPI DUP1 PUSH4 0xE1BF0A4B GT PUSH2 0x63 JUMPI DUP1 PUSH4 0xE1BF0A4B EQ PUSH2 0x4E5 JUMPI DUP1 PUSH4 0xF2FDE38B EQ PUSH2 0x50D JUMPI DUP1 PUSH4 0xF897A22B EQ PUSH2 0x535 JUMPI DUP1 PUSH4 0xFB2926B2 EQ PUSH2 0x55F JUMPI PUSH2 0x16A JUMP JUMPDEST DUP1 PUSH4 0xBCBAF487 EQ PUSH2 0x46B JUMPI DUP1 PUSH4 0xDA805590 EQ PUSH2 0x493 JUMPI DUP1 PUSH4 0xE1A45218 EQ PUSH2 0x4BB JUMPI PUSH2 0x16A JUMP JUMPDEST DUP1 PUSH4 0x7A5F0DC4 EQ PUSH2 0x37E JUMPI DUP1 PUSH4 0x80B1ACF5 EQ PUSH2 0x388 JUMPI DUP1 PUSH4 0x8DA5CB5B EQ PUSH2 0x3B2 JUMPI DUP1 PUSH4 0x97D43965 EQ PUSH2 0x3DC JUMPI DUP1 PUSH4 0xA37E52E3 EQ PUSH2 0x406 JUMPI DUP1 PUSH4 0xA87430BA EQ PUSH2 0x42E JUMPI PUSH2 0x16A JUMP JUMPDEST DUP1 PUSH4 0x4AED0980 GT PUSH2 0x122 JUMPI DUP1 PUSH4 0x4AED0980 EQ PUSH2 0x29C JUMPI DUP1 PUSH4 0x530E784F EQ PUSH2 0x2C4 JUMPI DUP1 PUSH4 0x5C2E3DE2 EQ PUSH2 0x2EC JUMPI DUP1 PUSH4 0x6A146024 EQ PUSH2 0x314 JUMPI DUP1 PUSH4 0x6F811A2D EQ PUSH2 0x33E JUMPI DUP1 PUSH4 0x715018A6 EQ PUSH2 0x368 JUMPI PUSH2 0x16A JUMP JUMPDEST DUP1 PUSH4 0x19970D8E EQ PUSH2 0x16C JUMPI DUP1 PUSH4 0x2630C12F EQ PUSH2 0x196 JUMPI DUP1 PUSH4 0x28842D4F EQ PUSH2 0x1C0 JUMPI DUP1 PUSH4 0x29F98057 EQ PUSH2 0x1E8 JUMPI DUP1 PUSH4 0x2C38199E EQ PUSH2 0x224 JUMPI DUP1 PUSH4 0x30F883E3 EQ PUSH2 0x260 JUMPI PUSH2 0x16A JUMP JUMPDEST JUMPDEST STOP JUMPDEST CALLVALUE DUP1 ISZERO PUSH2 0x177 JUMPI PUSH0 PUSH0 REVERT JUMPDEST POP PUSH2 0x180 PUSH2 0x59B JUMP JUMPDEST PUSH1 0x40 MLOAD PUSH2 0x18D SWAP2 SWAP1 PUSH2 0x1EE4 JUMP JUMPDEST PUSH1 0x40 MLOAD DUP1 SWAP2 SUB SWAP1 RETURN JUMPDEST CALLVALUE DUP1 ISZERO PUSH2 0x1A1 JUMPI PUSH0 PUSH0 REVERT JUMPDEST POP PUSH2 0x1AA PUSH2 0x5A1 JUMP JUMPDEST PUSH1 0x40 MLOAD PUSH2 0x1B7 SWAP2 SWAP1 PUSH2 0x1F77 JUMP JUMPDEST PUSH1 0x40 MLOAD DUP1 SWAP2 SUB SWAP1 RETURN JUMPDEST CALLVALUE DUP1 ISZERO PUSH2 0x1CB JUMPI PUSH0 PUSH0 REVERT JUMPDEST POP PUSH2 0x1E6 PUSH1 0x4 DUP1 CALLDATASIZE SUB DUP2 ADD SWAP1 PUSH2 0x1E1 SWAP2 SWAP1 PUSH2 0x1FBE JUMP JUMPDEST PUSH2 0x5C6 JUMP JUMPDEST STOP JUMPDEST CALLVALUE DUP1 ISZERO PUSH2 0x1F3 JUMPI PUSH0 PUSH0 REVERT JUMPDEST POP PUSH2 0x20E PUSH1 0x4 DUP1 CALLDATASIZE SUB DUP2 ADD SWAP1 PUSH2 0x209 SWAP2 SWAP1 PUSH2 0x2024 JUMP JUMPDEST PUSH2 0x654 JUMP JUMPDEST PUSH1 0x40 MLOAD PUSH2 0x21B SWAP2 SWAP1 PUSH2 0x1EE4 JUMP JUMPDEST PUSH1 0x40 MLOAD DUP1 SWAP2 SUB SWAP1 RETURN JUMPDEST CALLVALUE DUP1 ISZERO PUSH2 0x22F JUMPI PUSH0 PUSH0 REVERT JUMPDEST POP PUSH2 0x24A PUSH1 0x4 DUP1 CALLDATASIZE SUB DUP2 ADD SWAP1 PUSH2 0x245 SWAP2 SWAP1 PUSH2 0x2024 JUMP JUMPDEST PUSH2 0x747 JUMP JUMPDEST PUSH1 0x40 MLOAD PUSH2 0x257 SWAP2 SWAP1 PUSH2 0x1EE4 JUMP JUMPDEST PUSH1 0x40 MLOAD DUP1 SWAP2 SUB SWAP1 RETURN JUMPDEST CALLVALUE DUP1 ISZERO PUSH2 0x26B JUMPI PUSH0 PUSH0 REVERT JUMPDEST POP PUSH2 0x286 PUSH1 0x4 DUP1 CALLDATASIZE SUB DUP2 ADD SWAP1 PUSH2 0x281 SWAP2 SWAP1 PUSH2 0x2024 JUMP JUMPDEST PUSH2 0x7F9 JUMP JUMPDEST PUSH1 0x40 MLOAD PUSH2 0x293 SWAP2 SWAP1 PUSH2 0x1EE4 JUMP JUMPDEST PUSH1 0x40 MLOAD DUP1 SWAP2 SUB SWAP1 RETURN JUMPDEST CALLVALUE DUP1 ISZERO PUSH2 0x2A7 JUMPI PUSH0 PUSH0 REVERT JUMPDEST POP PUSH2 0x2C2 PUSH1 0x4 DUP1 CALLDATASIZE SUB DUP2 ADD SWAP1 PUSH2 0x2BD SWAP2 SWAP1 PUSH2 0x1FBE JUMP JUMPDEST PUSH2 0x828 JUMP JUMPDEST STOP JUMPDEST CALLVALUE DUP1 ISZERO PUSH2 0x2CF JUMPI PUSH0 PUSH0 REVERT JUMPDEST POP PUSH2 0x2EA PUSH1 0x4 DUP1 CALLDATASIZE SUB DUP2 ADD SWAP1 PUSH2 0x2E5 SWAP2 SWAP1 PUSH2 0x2024 JUMP JUMPDEST PUSH2 0xA82 JUMP JUMPDEST STOP JUMPDEST CALLVALUE DUP1 ISZERO PUSH2 0x2F7 JUMPI PUSH0 PUSH0 REVERT JUMPDEST POP PUSH2 0x312 PUSH1 0x4 DUP1 CALLDATASIZE SUB DUP2 ADD SWAP1 PUSH2 0x30D SWAP2 SWAP1 PUSH2 0x1FBE JUMP JUMPDEST PUSH2 0xB80 JUMP JUMPDEST STOP JUMPDEST CALLVALUE DUP1 ISZERO PUSH2 0x31F JUMPI PUSH0 PUSH0 REVERT JUMPDEST POP PUSH2 0x328 PUSH2 0xD31 JUMP JUMPDEST PUSH1 0x40 MLOAD PUSH2 0x335 SWAP2 SWAP1 PUSH2 0x1EE4 JUMP JUMPDEST PUSH1 0x40 MLOAD DUP1 SWAP2 SUB SWAP1 RETURN JUMPDEST CALLVALUE DUP1 ISZERO PUSH2 0x349 JUMPI PUSH0 PUSH0 REVERT JUMPDEST POP PUSH2 0x352 PUSH2 0xD3D JUMP JUMPDEST PUSH1 0x40 MLOAD PUSH2 0x35F SWAP2 SWAP1 PUSH2 0x1EE4 JUMP JUMPDEST PUSH1 0x40 MLOAD DUP1 SWAP2 SUB SWAP1 RETURN JUMPDEST CALLVALUE DUP1 ISZERO PUSH2 0x373 JUMPI PUSH0 PUSH0 REVERT JUMPDEST POP PUSH2 0x37C PUSH2 0xD43 JUMP JUMPDEST STOP JUMPDEST PUSH2 0x386 PUSH2 0xD56 JUMP JUMPDEST STOP JUMPDEST CALLVALUE DUP1 ISZERO PUSH2 0x393 JUMPI PUSH0 PUSH0 REVERT JUMPDEST POP PUSH2 0x39C PUSH2 0xE44 JUMP JUMPDEST PUSH1 0x40 MLOAD PUSH2 0x3A9 SWAP2 SWAP1 PUSH2 0x1EE4 JUMP JUMPDEST PUSH1 0x40 MLOAD DUP1 SWAP2 SUB SWAP1 RETURN JUMPDEST CALLVALUE DUP1 ISZERO PUSH2 0x3BD JUMPI PUSH0 PUSH0 REVERT JUMPDEST POP PUSH2 0x3C6 PUSH2 0xE49 JUMP JUMPDEST PUSH1 0x40 MLOAD PUSH2 0x3D3 SWAP2 SWAP1 PUSH2 0x205E JUMP JUMPDEST PUSH1 0x40 MLOAD DUP1 SWAP2 SUB SWAP1 RETURN JUMPDEST CALLVALUE DUP1 ISZERO PUSH2 0x3E7 JUMPI PUSH0 PUSH0 REVERT JUMPDEST POP PUSH2 0x3F0 PUSH2 0xE71 JUMP JUMPDEST PUSH1 0x40 MLOAD PUSH2 0x3FD SWAP2 SWAP1 PUSH2 0x1EE4 JUMP JUMPDEST PUSH1 0x40 MLOAD DUP1 SWAP2 SUB SWAP1 RETURN JUMPDEST CALLVALUE DUP1 ISZERO PUSH2 0x411 JUMPI PUSH0 PUSH0 REVERT JUMPDEST POP PUSH2 0x42C PUSH1 0x4 DUP1 CALLDATASIZE SUB DUP2 ADD SWAP1 PUSH2 0x427 SWAP2 SWAP1 PUSH2 0x1FBE JUMP JUMPDEST PUSH2 0xE77 JUMP JUMPDEST STOP JUMPDEST CALLVALUE DUP1 ISZERO PUSH2 0x439 JUMPI PUSH0 PUSH0 REVERT JUMPDEST POP PUSH2 0x454 PUSH1 0x4 DUP1 CALLDATASIZE SUB DUP2 ADD SWAP1 PUSH2 0x44F SWAP2 SWAP1 PUSH2 0x2024 JUMP JUMPDEST PUSH2 0xF04 JUMP JUMPDEST PUSH1 0x40 MLOAD PUSH2 0x462 SWAP3 SWAP2 SWAP1 PUSH2 0x2077 JUMP JUMPDEST PUSH1 0x40 MLOAD DUP1 SWAP2 SUB SWAP1 RETURN JUMPDEST CALLVALUE DUP1 ISZERO PUSH2 0x476 JUMPI PUSH0 PUSH0 REVERT JUMPDEST POP PUSH2 0x491 PUSH1 0x4 DUP1 CALLDATASIZE SUB DUP2 ADD SWAP1 PUSH2 0x48C SWAP2 SWAP1 PUSH2 0x209E JUMP JUMPDEST PUSH2 0xF24 JUMP JUMPDEST STOP JUMPDEST CALLVALUE DUP1 ISZERO PUSH2 0x49E JUMPI PUSH0 PUSH0 REVERT JUMPDEST POP PUSH2 0x4B9 PUSH1 0x4 DUP1 CALLDATASIZE SUB DUP2 ADD SWAP1 PUSH2 0x4B4 SWAP2 SWAP1 PUSH2 0x2024 JUMP JUMPDEST PUSH2 0x141B JUMP JUMPDEST STOP JUMPDEST CALLVALUE DUP1 ISZERO PUSH2 0x4C6 JUMPI PUSH0 PUSH0 REVERT JUMPDEST POP PUSH2 0x4CF PUSH2 0x1519 JUMP JUMPDEST PUSH1 0x40 MLOAD PUSH2 0x4DC SWAP2 SWAP1 PUSH2 0x1EE4 JUMP JUMPDEST PUSH1 0x40 MLOAD DUP1 SWAP2 SUB SWAP1 RETURN JUMPDEST CALLVALUE DUP1 ISZERO PUSH2 0x4F0 JUMPI PUSH0 PUSH0 REVERT JUMPDEST POP PUSH2 0x50B PUSH1 0x4 DUP1 CALLDATASIZE SUB DUP2 ADD SWAP1 PUSH2 0x506 SWAP2 SWAP1 PUSH2 0x1FBE JUMP JUMPDEST PUSH2 0x151F JUMP JUMPDEST STOP JUMPDEST CALLVALUE DUP1 ISZERO PUSH2 0x518 JUMPI PUSH0 PUSH0 REVERT JUMPDEST POP PUSH2 0x533 PUSH1 0x4 DUP1 CALLDATASIZE SUB DUP2 ADD SWAP1 PUSH2 0x52E SWAP2 SWAP1 PUSH2 0x2024 JUMP JUMPDEST PUSH2 0x182D JUMP JUMPDEST STOP JUMPDEST CALLVALUE DUP1 ISZERO PUSH2 0x540 JUMPI PUSH0 PUSH0 REVERT JUMPDEST POP PUSH2 0x549 PUSH2 0x18B1 JUMP JUMPDEST PUSH1 0x40 MLOAD PUSH2 0x556 SWAP2 SWAP1 PUSH2 0x20FC JUMP JUMPDEST PUSH1 0x40 MLOAD DUP1 SWAP2 SUB SWAP1 RETURN JUMPDEST CALLVALUE DUP1 ISZERO PUSH2 0x56A JUMPI PUSH0 PUSH0 REVERT JUMPDEST POP PUSH2 0x585 PUSH1 0x4 DUP1 CALLDATASIZE SUB DUP2 ADD SWAP1 PUSH2 0x580 SWAP2 SWAP1 PUSH2 0x2024 JUMP JUMPDEST PUSH2 0x18D6 JUMP JUMPDEST PUSH1 0x40 MLOAD PUSH2 0x592 SWAP2 SWAP1 PUSH2 0x1EE4 JUMP JUMPDEST PUSH1 0x40 MLOAD DUP1 SWAP2 SUB SWAP1 RETURN JUMPDEST PUSH1 0x7 SLOAD DUP2 JUMP JUMPDEST PUSH1 0x4 PUSH0 SWAP1 SLOAD SWAP1 PUSH2 0x100 EXP SWAP1 DIV PUSH20 0xFFFFFFFFFFFFFFFFFFFFFFFFFFFFFFFFFFFFFFFF AND DUP2 JUMP JUMPDEST PUSH2 0x5CE PUSH2 0x199D JUMP JUMPDEST PUSH2 0x2710 DUP2 GT ISZERO PUSH2 0x613 JUMPI PUSH1 0x40 MLOAD PUSH32 0x8C379A000000000000000000000000000000000000000000000000000000000 DUP2 MSTORE PUSH1 0x4 ADD PUSH2 0x60A SWAP1 PUSH2 0x216F JUMP JUMPDEST PUSH1 0x40 MLOAD DUP1 SWAP2 SUB SWAP1 REVERT JUMPDEST DUP1 PUSH1 0x7 DUP2 SWAP1 SSTORE POP PUSH32 0xAEBDBB2D62051C61387BF5A1CD77F093484880809EABD6B2ECEFB2DC5869D23D DUP2 PUSH1 0x40 MLOAD PUSH2 0x649 SWAP2 SWAP1 PUSH2 0x1EE4 JUMP JUMPDEST PUSH1 0x40 MLOAD DUP1 SWAP2 SUB SWAP1 LOG1 POP JUMP JUMPDEST PUSH0 PUSH8 0xDE0B6B3A7640000 PUSH1 0x4 PUSH0 SWAP1 SLOAD SWAP1 PUSH2 0x100 EXP SWAP1 DIV PUSH20 0xFFFFFFFFFFFFFFFFFFFFFFFFFFFFFFFFFFFFFFFF AND PUSH20 0xFFFFFFFFFFFFFFFFFFFFFFFFFFFFFFFFFFFFFFFF AND PUSH4 0x8E15F473 PUSH1 0x40 MLOAD DUP2 PUSH4 0xFFFFFFFF AND PUSH1 0xE0 SHL DUP2 MSTORE PUSH1 0x4 ADD PUSH1 0x20 PUSH1 0x40 MLOAD DUP1 DUP4 SUB DUP2 DUP7 GAS STATICCALL ISZERO DUP1 ISZERO PUSH2 0x6C8 JUMPI RETURNDATASIZE PUSH0 PUSH0 RETURNDATACOPY RETURNDATASIZE PUSH0 REVERT JUMPDEST POP POP POP POP PUSH1 0x40 MLOAD RETURNDATASIZE PUSH1 0x1F NOT PUSH1 0x1F DUP3 ADD AND DUP3 ADD DUP1 PUSH1 0x40 MSTORE POP DUP2 ADD SWAP1 PUSH2 0x6EC SWAP2 SWAP1 PUSH2 0x21A1 JUMP JUMPDEST PUSH1 0x2 PUSH0 DUP6 PUSH20 0xFFFFFFFFFFFFFFFFFFFFFFFFFFFFFFFFFFFFFFFF AND PUSH20 0xFFFFFFFFFFFFFFFFFFFFFFFFFFFFFFFFFFFFFFFF AND DUP2 MSTORE PUSH1 0x20 ADD SWAP1 DUP2 MSTORE PUSH1 0x20 ADD PUSH0 KECCAK256 PUSH0 ADD SLOAD PUSH2 0x736 SWAP2 SWAP1 PUSH2 0x21F9 JUMP JUMPDEST PUSH2 0x740 SWAP2 SWAP1 PUSH2 0x2267 JUMP JUMPDEST SWAP1 POP SWAP2 SWAP1 POP JUMP JUMPDEST PUSH0 PUSH0 PUSH2 0x752 DUP4 PUSH2 0x7F9 JUMP JUMPDEST SWAP1 POP DUP1 PUSH1 0x2 PUSH0 DUP6 PUSH20 0xFFFFFFFFFFFFFFFFFFFFFFFFFFFFFFFFFFFFFFFF AND PUSH20 0xFFFFFFFFFFFFFFFFFFFFFFFFFFFFFFFFFFFFFFFF AND DUP2 MSTORE PUSH1 0x20 ADD SWAP1 DUP2 MSTORE PUSH1 0x20 ADD PUSH0 KECCAK256 PUSH1 0x1 ADD SLOAD LT PUSH2 0x7A4 JUMPI PUSH0 SWAP2 POP POP PUSH2 0x7F4 JUMP JUMPDEST PUSH1 0x2 PUSH0 DUP5 PUSH20 0xFFFFFFFFFFFFFFFFFFFFFFFFFFFFFFFFFFFFFFFF AND PUSH20 0xFFFFFFFFFFFFFFFFFFFFFFFFFFFFFFFFFFFFFFFF AND DUP2 MSTORE PUSH1 0x20 ADD SWAP1 DUP2 MSTORE PUSH1 0x20 ADD PUSH0 KECCAK256 PUSH1 0x1 ADD SLOAD DUP2 PUSH2 0x7F0 SWAP2 SWAP1 PUSH2 0x2297 JUMP JUMPDEST SWAP2 POP POP JUMPDEST SWAP2 SWAP1 POP JUMP JUMPDEST PUSH0 PUSH0 PUSH2 0x804 DUP4 PUSH2 0x654 JUMP JUMPDEST SWAP1 POP PUSH1 0x64 PUSH1 0x5 SLOAD DUP3 PUSH2 0x816 SWAP2 SWAP1 PUSH2 0x21F9 JUMP JUMPDEST PUSH2 0x820 SWAP2 SWAP1 PUSH2 0x2267 JUMP JUMPDEST SWAP2 POP POP SWAP2 SWAP1 POP JUMP JUMPDEST PUSH2 0x830 PUSH2 0x1A24 JUMP JUMPDEST PUSH0 DUP2 SUB PUSH2 0x869 JUMPI PUSH1 0x40 MLOAD PUSH32 0x2C5211C600000000000000000000000000000000000000000000000000000000 DUP2 MSTORE PUSH1 0x4 ADD PUSH1 0x40 MLOAD DUP1 SWAP2 SUB SWAP1 REVERT JUMPDEST PUSH0 PUSH1 0x2 PUSH0 CALLER PUSH20 0xFFFFFFFFFFFFFFFFFFFFFFFFFFFFFFFFFFFFFFFF AND PUSH20 0xFFFFFFFFFFFFFFFFFFFFFFFFFFFFFFFFFFFFFFFF AND DUP2 MSTORE PUSH1 0x20 ADD SWAP1 DUP2 MSTORE PUSH1 0x20 ADD PUSH0 KECCAK256 SWAP1 POP PUSH0 DUP2 PUSH1 0x1 ADD SLOAD SUB PUSH2 0x8E6 JUMPI PUSH1 0x40 MLOAD PUSH32 0xB016BE5E00000000000000000000000000000000000000000000000000000000 DUP2 MSTORE PUSH1 0x4 ADD PUSH1 0x40 MLOAD DUP1 SWAP2 SUB SWAP1 REVERT JUMPDEST DUP1 PUSH1 0x1 ADD SLOAD DUP3 GT ISZERO PUSH2 0x935 JUMPI DUP2 DUP2 PUSH1 0x1 ADD SLOAD PUSH1 0x40 MLOAD PUSH32 0x99BCD81300000000000000000000000000000000000000000000000000000000 DUP2 MSTORE PUSH1 0x4 ADD PUSH2 0x92C SWAP3 SWAP2 SWAP1 PUSH2 0x2077 JUMP JUMPDEST PUSH1 0x40 MLOAD DUP1 SWAP2 SUB SWAP1 REVERT JUMPDEST PUSH0 PUSH1 0x3 PUSH0 SWAP1 SLOAD SWAP1 PUSH2 0x100 EXP SWAP1 DIV PUSH20 0xFFFFFFFFFFFFFFFFFFFFFFFFFFFFFFFFFFFFFFFF AND PUSH20 0xFFFFFFFFFFFFFFFFFFFFFFFFFFFFFFFFFFFFFFFF AND PUSH4 0x23B872DD CALLER ADDRESS DUP7 PUSH1 0x40 MLOAD DUP5 PUSH4 0xFFFFFFFF AND PUSH1 0xE0 SHL DUP2 MSTORE PUSH1 0x4 ADD PUSH2 0x994 SWAP4 SWAP3 SWAP2 SWAP1 PUSH2 0x22CA JUMP JUMPDEST PUSH1 0x20 PUSH1 0x40 MLOAD DUP1 DUP4 SUB DUP2 PUSH0 DUP8 GAS CALL ISZERO DUP1 ISZERO PUSH2 0x9B0 JUMPI RETURNDATASIZE PUSH0 PUSH0 RETURNDATACOPY RETURNDATASIZE PUSH0 REVERT JUMPDEST POP POP POP POP PUSH1 0x40 MLOAD RETURNDATASIZE PUSH1 0x1F NOT PUSH1 0x1F DUP3 ADD AND DUP3 ADD DUP1 PUSH1 0x40 MSTORE POP DUP2 ADD SWAP1 PUSH2 0x9D4 SWAP2 SWAP1 PUSH2 0x2334 JUMP JUMPDEST SWAP1 POP DUP1 PUSH2 0xA0D JUMPI PUSH1 0x40 MLOAD PUSH32 0x90B8EC1800000000000000000000000000000000000000000000000000000000 DUP2 MSTORE PUSH1 0x4 ADD PUSH1 0x40 MLOAD DUP1 SWAP2 SUB SWAP1 REVERT JUMPDEST DUP3 DUP3 PUSH1 0x1 ADD PUSH0 DUP3 DUP3 SLOAD PUSH2 0xA20 SWAP2 SWAP1 PUSH2 0x2297 JUMP JUMPDEST SWAP3 POP POP DUP2 SWAP1 SSTORE POP CALLER PUSH20 0xFFFFFFFFFFFFFFFFFFFFFFFFFFFFFFFFFFFFFFFF AND PUSH32 0xB7EFCC12F3D3E74E33995FF303ACA806B9428989809E60A4E5A4D465832966E4 DUP5 PUSH1 0x40 MLOAD PUSH2 0xA6D SWAP2 SWAP1 PUSH2 0x1EE4 JUMP JUMPDEST PUSH1 0x40 MLOAD DUP1 SWAP2 SUB SWAP1 LOG2 POP POP PUSH2 0xA7F PUSH2 0x1A71 JUMP JUMPDEST POP JUMP JUMPDEST PUSH2 0xA8A PUSH2 0x199D JUMP JUMPDEST PUSH0 PUSH20 0xFFFFFFFFFFFFFFFFFFFFFFFFFFFFFFFFFFFFFFFF AND DUP2 PUSH20 0xFFFFFFFFFFFFFFFFFFFFFFFFFFFFFFFFFFFFFFFF AND SUB PUSH2 0xAFA JUMPI DUP1 PUSH1 0x40 MLOAD PUSH32 0x8E4C8AA600000000000000000000000000000000000000000000000000000000 DUP2 MSTORE PUSH1 0x4 ADD PUSH2 0xAF1 SWAP2 SWAP1 PUSH2 0x205E JUMP JUMPDEST PUSH1 0x40 MLOAD DUP1 SWAP2 SUB SWAP1 REVERT JUMPDEST DUP1 PUSH1 0x4 PUSH0 PUSH2 0x100 EXP DUP2 SLOAD DUP2 PUSH20 0xFFFFFFFFFFFFFFFFFFFFFFFFFFFFFFFFFFFFFFFF MUL NOT AND SWAP1 DUP4 PUSH20 0xFFFFFFFFFFFFFFFFFFFFFFFFFFFFFFFFFFFFFFFF AND MUL OR SWAP1 SSTORE POP DUP1 PUSH20 0xFFFFFFFFFFFFFFFFFFFFFFFFFFFFFFFFFFFFFFFF AND PUSH32 0x3DF77BEB5DB05FCDD70A30FC8ADF3F83F9501B68579455ADBD100B8180940394 PUSH1 0x40 MLOAD PUSH1 0x40 MLOAD DUP1 SWAP2 SUB SWAP1 LOG2 POP JUMP JUMPDEST PUSH2 0xB88 PUSH2 0x1A24 JUMP JUMPDEST PUSH0 DUP2 SUB PUSH2 0xBC1 JUMPI PUSH1 0x40 MLOAD PUSH32 0x2C5211C600000000000000000000000000000000000000000000000000000000 DUP2 MSTORE PUSH1 0x4 ADD PUSH1 0x40 MLOAD DUP1 SWAP2 SUB SWAP1 REVERT JUMPDEST PUSH0 PUSH1 0x2 PUSH0 CALLER PUSH20 0xFFFFFFFFFFFFFFFFFFFFFFFFFFFFFFFFFFFFFFFF AND PUSH20 0xFFFFFFFFFFFFFFFFFFFFFFFFFFFFFFFFFFFFFFFF AND DUP2 MSTORE PUSH1 0x20 ADD SWAP1 DUP2 MSTORE PUSH1 0x20 ADD PUSH0 KECCAK256 SWAP1 POP PUSH0 DUP2 PUSH0 ADD SLOAD SUB PUSH2 0xC3D JUMPI PUSH1 0x40 MLOAD PUSH32 0xB016BE5E00000000000000000000000000000000000000000000000000000000 DUP2 MSTORE PUSH1 0x4 ADD PUSH1 0x40 MLOAD DUP1 SWAP2 SUB SWAP1 REVERT JUMPDEST PUSH0 PUSH2 0xC47 CALLER PUSH2 0x7F9 JUMP JUMPDEST SWAP1 POP DUP1 DUP4 DUP4 PUSH1 0x1 ADD SLOAD PUSH2 0xC5A SWAP2 SWAP1 PUSH2 0x235F JUMP JUMPDEST GT ISZERO PUSH2 0xCB2 JUMPI PUSH0 DUP3 PUSH1 0x1 ADD SLOAD DUP3 PUSH2 0xC71 SWAP2 SWAP1 PUSH2 0x2297 JUMP JUMPDEST SWAP1 POP DUP4 DUP2 PUSH1 0x40 MLOAD PUSH32 0xD771D8E900000000000000000000000000000000000000000000000000000000 DUP2 MSTORE PUSH1 0x4 ADD PUSH2 0xCA9 SWAP3 SWAP2 SWAP1 PUSH2 0x2077 JUMP JUMPDEST PUSH1 0x40 MLOAD DUP1 SWAP2 SUB SWAP1 REVERT JUMPDEST DUP3 DUP3 PUSH1 0x1 ADD PUSH0 DUP3 DUP3 SLOAD PUSH2 0xCC5 SWAP2 SWAP1 PUSH2 0x235F JUMP JUMPDEST SWAP3 POP POP DUP2 SWAP1 SSTORE POP PUSH2 0xCD6 CALLER DUP5 PUSH2 0x1A7A JUMP JUMPDEST CALLER PUSH20 0xFFFFFFFFFFFFFFFFFFFFFFFFFFFFFFFFFFFFFFFF AND PUSH32 0x5ABC9A9C4616711EB03D720E050325118645A3695A5E75B5B10A29E2E217FE03 DUP5 PUSH1 0x40 MLOAD PUSH2 0xD1C SWAP2 SWAP1 PUSH2 0x1EE4 JUMP JUMPDEST PUSH1 0x40 MLOAD DUP1 SWAP2 SUB SWAP1 LOG2 POP POP PUSH2 0xD2E PUSH2 0x1A71 JUMP JUMPDEST POP JUMP JUMPDEST PUSH8 0xDE0B6B3A7640000 DUP2 JUMP JUMPDEST PUSH1 0x5 SLOAD DUP2 JUMP JUMPDEST PUSH2 0xD4B PUSH2 0x199D JUMP JUMPDEST PUSH2 0xD54 PUSH0 PUSH2 0x1E02 JUMP JUMPDEST JUMP JUMPDEST PUSH2 0xD5E PUSH2 0x1A24 JUMP JUMPDEST PUSH0 CALLVALUE SUB PUSH2 0xD97 JUMPI PUSH1 0x40 MLOAD PUSH32 0xB016BE5E00000000000000000000000000000000000000000000000000000000 DUP2 MSTORE PUSH1 0x4 ADD PUSH1 0x40 MLOAD DUP1 SWAP2 SUB SWAP1 REVERT JUMPDEST CALLVALUE PUSH1 0x2 PUSH0 CALLER PUSH20 0xFFFFFFFFFFFFFFFFFFFFFFFFFFFFFFFFFFFFFFFF AND PUSH20 0xFFFFFFFFFFFFFFFFFFFFFFFFFFFFFFFFFFFFFFFF AND DUP2 MSTORE PUSH1 0x20 ADD SWAP1 DUP2 MSTORE PUSH1 0x20 ADD PUSH0 KECCAK256 PUSH0 ADD PUSH0 DUP3 DUP3 SLOAD PUSH2 0xDE5 SWAP2 SWAP1 PUSH2 0x235F JUMP JUMPDEST SWAP3 POP POP DUP2 SWAP1 SSTORE POP CALLER PUSH20 0xFFFFFFFFFFFFFFFFFFFFFFFFFFFFFFFFFFFFFFFF AND PUSH32 0x1C0917C3A343A300B56473C59FA8355D3326F2C73472679A5B4CD5D6E0390C80 CALLVALUE PUSH1 0x40 MLOAD PUSH2 0xE32 SWAP2 SWAP1 PUSH2 0x1EE4 JUMP JUMPDEST PUSH1 0x40 MLOAD DUP1 SWAP2 SUB SWAP1 LOG2 PUSH2 0xE42 PUSH2 0x1A71 JUMP JUMPDEST JUMP JUMPDEST PUSH1 0x64 DUP2 JUMP JUMPDEST PUSH0 PUSH1 0x1 PUSH0 SWAP1 SLOAD SWAP1 PUSH2 0x100 EXP SWAP1 DIV PUSH20 0xFFFFFFFFFFFFFFFFFFFFFFFFFFFFFFFFFFFFFFFF AND SWAP1 POP SWAP1 JUMP JUMPDEST PUSH1 0x6 SLOAD DUP2 JUMP JUMPDEST PUSH2 0xE7F PUSH2 0x199D JUMP JUMPDEST PUSH1 0x64 DUP2 GT ISZERO PUSH2 0xEC3 JUMPI PUSH1 0x40 MLOAD PUSH32 0x8C379A000000000000000000000000000000000000000000000000000000000 DUP2 MSTORE PUSH1 0x4 ADD PUSH2 0xEBA SWAP1 PUSH2 0x23DC JUMP JUMPDEST PUSH1 0x40 MLOAD DUP1 SWAP2 SUB SWAP1 REVERT JUMPDEST DUP1 PUSH1 0x5 DUP2 SWAP1 SSTORE POP PUSH32 0xCCE25C35B561657FB7CD2AC403C6A4854283D0F4D462E68E0F97D07C348BCFF2 DUP2 PUSH1 0x40 MLOAD PUSH2 0xEF9 SWAP2 SWAP1 PUSH2 0x1EE4 JUMP JUMPDEST PUSH1 0x40 MLOAD DUP1 SWAP2 SUB SWAP1 LOG1 POP JUMP JUMPDEST PUSH1 0x2 PUSH1 0x20 MSTORE DUP1 PUSH0 MSTORE PUSH1 0x40 PUSH0 KECCAK256 PUSH0 SWAP2 POP SWAP1 POP DUP1 PUSH0 ADD SLOAD SWAP1 DUP1 PUSH1 0x1 ADD SLOAD SWAP1 POP DUP3 JUMP JUMPDEST PUSH2 0xF2C PUSH2 0x1A24 JUMP JUMPDEST PUSH0 DUP2 SUB PUSH2 0xF65 JUMPI PUSH1 0x40 MLOAD PUSH32 0x2C5211C600000000000000000000000000000000000000000000000000000000 DUP2 MSTORE PUSH1 0x4 ADD PUSH1 0x40 MLOAD DUP1 SWAP2 SUB SWAP1 REVERT JUMPDEST PUSH0 PUSH20 0xFFFFFFFFFFFFFFFFFFFFFFFFFFFFFFFFFFFFFFFF AND DUP3 PUSH20 0xFFFFFFFFFFFFFFFFFFFFFFFFFFFFFFFFFFFFFFFF AND SUB PUSH2 0xFD5 JUMPI DUP2 PUSH1 0x40 MLOAD PUSH32 0x8E4C8AA600000000000000000000000000000000000000000000000000000000 DUP2 MSTORE PUSH1 0x4 ADD PUSH2 0xFCC SWAP2 SWAP1 PUSH2 0x205E JUMP JUMPDEST PUSH1 0x40 MLOAD DUP1 SWAP2 SUB SWAP1 REVERT JUMPDEST PUSH0 PUSH1 0x2 PUSH0 DUP5 PUSH20 0xFFFFFFFFFFFFFFFFFFFFFFFFFFFFFFFFFFFFFFFF AND PUSH20 0xFFFFFFFFFFFFFFFFFFFFFFFFFFFFFFFFFFFFFFFF AND DUP2 MSTORE PUSH1 0x20 ADD SWAP1 DUP2 MSTORE PUSH1 0x20 ADD PUSH0 KECCAK256 SWAP1 POP PUSH0 DUP2 PUSH1 0x1 ADD SLOAD SUB PUSH2 0x1052 JUMPI PUSH1 0x40 MLOAD PUSH32 0xB016BE5E00000000000000000000000000000000000000000000000000000000 DUP2 MSTORE PUSH1 0x4 ADD PUSH1 0x40 MLOAD DUP1 SWAP2 SUB SWAP1 REVERT JUMPDEST PUSH0 PUSH1 0x4 PUSH0 SWAP1 SLOAD SWAP1 PUSH2 0x100 EXP SWAP1 DIV PUSH20 0xFFFFFFFFFFFFFFFFFFFFFFFFFFFFFFFFFFFFFFFF AND PUSH20 0xFFFFFFFFFFFFFFFFFFFFFFFFFFFFFFFFFFFFFFFF AND PUSH4 0x8E15F473 PUSH1 0x40 MLOAD DUP2 PUSH4 0xFFFFFFFF AND PUSH1 0xE0 SHL DUP2 MSTORE PUSH1 0x4 ADD PUSH1 0x20 PUSH1 0x40 MLOAD DUP1 DUP4 SUB DUP2 DUP7 GAS STATICCALL ISZERO DUP1 ISZERO PUSH2 0x10BD JUMPI RETURNDATASIZE PUSH0 PUSH0 RETURNDATACOPY RETURNDATASIZE PUSH0 REVERT JUMPDEST POP POP POP POP PUSH1 0x40 MLOAD RETURNDATASIZE PUSH1 0x1F NOT PUSH1 0x1F DUP3 ADD AND DUP3 ADD DUP1 PUSH1 0x40 MSTORE POP DUP2 ADD SWAP1 PUSH2 0x10E1 SWAP2 SWAP1 PUSH2 0x21A1 JUMP JUMPDEST SWAP1 POP PUSH0 PUSH2 0x10ED DUP6 PUSH2 0x654 JUMP JUMPDEST SWAP1 POP PUSH0 PUSH1 0x6 SLOAD DUP3 PUSH2 0x10FE SWAP2 SWAP1 PUSH2 0x21F9 JUMP JUMPDEST SWAP1 POP PUSH0 PUSH1 0x64 DUP6 PUSH1 0x1 ADD SLOAD PUSH2 0x1112 SWAP2 SWAP1 PUSH2 0x21F9 JUMP JUMPDEST SWAP1 POP DUP1 DUP3 LT PUSH2 0x1176 JUMPI DUP1 PUSH8 0xDE0B6B3A7640000 DUP4 PUSH2 0x1130 SWAP2 SWAP1 PUSH2 0x21F9 JUMP JUMPDEST PUSH2 0x113A SWAP2 SWAP1 PUSH2 0x2267 JUMP JUMPDEST PUSH1 0x40 MLOAD PUSH32 0x4FD4B9F700000000000000000000000000000000000000000000000000000000 DUP2 MSTORE PUSH1 0x4 ADD PUSH2 0x116D SWAP2 SWAP1 PUSH2 0x1EE4 JUMP JUMPDEST PUSH1 0x40 MLOAD DUP1 SWAP2 SUB SWAP1 REVERT JUMPDEST PUSH0 DUP6 PUSH1 0x1 ADD SLOAD DUP8 GT PUSH2 0x1188 JUMPI DUP7 PUSH2 0x118E JUMP JUMPDEST DUP6 PUSH1 0x1 ADD SLOAD JUMPDEST SWAP1 POP PUSH0 PUSH1 0x3 PUSH0 SWAP1 SLOAD SWAP1 PUSH2 0x100 EXP SWAP1 DIV PUSH20 0xFFFFFFFFFFFFFFFFFFFFFFFFFFFFFFFFFFFFFFFF AND PUSH20 0xFFFFFFFFFFFFFFFFFFFFFFFFFFFFFFFFFFFFFFFF AND PUSH4 0x23B872DD CALLER ADDRESS DUP6 PUSH1 0x40 MLOAD DUP5 PUSH4 0xFFFFFFFF AND PUSH1 0xE0 SHL DUP2 MSTORE PUSH1 0x4 ADD PUSH2 0x11EF SWAP4 SWAP3 SWAP2 SWAP1 PUSH2 0x22CA JUMP JUMPDEST PUSH1 0x20 PUSH1 0x40 MLOAD DUP1 DUP4 SUB DUP2 PUSH0 DUP8 GAS CALL ISZERO DUP1 ISZERO PUSH2 0x120B JUMPI RETURNDATASIZE PUSH0 PUSH0 RETURNDATACOPY RETURNDATASIZE PUSH0 REVERT JUMPDEST POP POP POP POP PUSH1 0x40 MLOAD RETURNDATASIZE PUSH1 0x1F NOT PUSH1 0x1F DUP3 ADD AND DUP3 ADD DUP1 PUSH1 0x40 MSTORE POP DUP2 ADD SWAP1 PUSH2 0x122F SWAP2 SWAP1 PUSH2 0x2334 JUMP JUMPDEST SWAP1 POP DUP1 PUSH2 0x1268 JUMPI PUSH1 0x40 MLOAD PUSH32 0x90B8EC1800000000000000000000000000000000000000000000000000000000 DUP2 MSTORE PUSH1 0x4 ADD PUSH1 0x40 MLOAD DUP1 SWAP2 SUB SWAP1 REVERT JUMPDEST PUSH0 DUP7 PUSH8 0xDE0B6B3A7640000 DUP5 PUSH2 0x127E SWAP2 SWAP1 PUSH2 0x21F9 JUMP JUMPDEST PUSH2 0x1288 SWAP2 SWAP1 PUSH2 0x2267 JUMP JUMPDEST SWAP1 POP PUSH0 PUSH1 0x7 SLOAD PUSH2 0x2710 PUSH2 0x129B SWAP2 SWAP1 PUSH2 0x235F JUMP JUMPDEST SWAP1 POP PUSH0 PUSH2 0x2710 DUP3 DUP5 PUSH2 0x12AD SWAP2 SWAP1 PUSH2 0x21F9 JUMP JUMPDEST PUSH2 0x12B7 SWAP2 SWAP1 PUSH2 0x2267 JUMP JUMPDEST SWAP1 POP DUP10 PUSH0 ADD SLOAD DUP2 GT ISZERO PUSH2 0x12CB JUMPI DUP10 PUSH0 ADD SLOAD SWAP1 POP JUMPDEST DUP5 DUP11 PUSH1 0x1 ADD PUSH0 DUP3 DUP3 SLOAD PUSH2 0x12DE SWAP2 SWAP1 PUSH2 0x2297 JUMP JUMPDEST SWAP3 POP POP DUP2 SWAP1 SSTORE POP DUP1 DUP11 PUSH0 ADD PUSH0 DUP3 DUP3 SLOAD PUSH2 0x12F7 SWAP2 SWAP1 PUSH2 0x2297 JUMP JUMPDEST SWAP3 POP POP DUP2 SWAP1 SSTORE POP PUSH0 CALLER PUSH20 0xFFFFFFFFFFFFFFFFFFFFFFFFFFFFFFFFFFFFFFFF AND DUP3 PUSH1 0x40 MLOAD PUSH2 0x1323 SWAP1 PUSH2 0x2427 JUMP JUMPDEST PUSH0 PUSH1 0x40 MLOAD DUP1 DUP4 SUB DUP2 DUP6 DUP8 GAS CALL SWAP3 POP POP POP RETURNDATASIZE DUP1 PUSH0 DUP2 EQ PUSH2 0x135D JUMPI PUSH1 0x40 MLOAD SWAP2 POP PUSH1 0x1F NOT PUSH1 0x3F RETURNDATASIZE ADD AND DUP3 ADD PUSH1 0x40 MSTORE RETURNDATASIZE DUP3 MSTORE RETURNDATASIZE PUSH0 PUSH1 0x20 DUP5 ADD RETURNDATACOPY PUSH2 0x1362 JUMP JUMPDEST PUSH1 0x60 SWAP2 POP JUMPDEST POP POP SWAP1 POP DUP1 PUSH2 0x139D JUMPI PUSH1 0x40 MLOAD PUSH32 0x90B8EC1800000000000000000000000000000000000000000000000000000000 DUP2 MSTORE PUSH1 0x4 ADD PUSH1 0x40 MLOAD DUP1 SWAP2 SUB SWAP1 REVERT JUMPDEST DUP13 PUSH20 0xFFFFFFFFFFFFFFFFFFFFFFFFFFFFFFFFFFFFFFFF AND CALLER PUSH20 0xFFFFFFFFFFFFFFFFFFFFFFFFFFFFFFFFFFFFFFFF AND PUSH32 0x4ECAE3269F800DF64B16CB9F6F8B0B507018888521D1CFF0841823E44BC0B00D DUP9 DUP6 PUSH1 0x40 MLOAD PUSH2 0x13FC SWAP3 SWAP2 SWAP1 PUSH2 0x2077 JUMP JUMPDEST PUSH1 0x40 MLOAD DUP1 SWAP2 SUB SWAP1 LOG3 POP POP POP POP POP POP POP POP POP POP POP PUSH2 0x1417 PUSH2 0x1A71 JUMP JUMPDEST POP POP JUMP JUMPDEST PUSH2 0x1423 PUSH2 0x199D JUMP JUMPDEST PUSH0 PUSH20 0xFFFFFFFFFFFFFFFFFFFFFFFFFFFFFFFFFFFFFFFF AND DUP2 PUSH20 0xFFFFFFFFFFFFFFFFFFFFFFFFFFFFFFFFFFFFFFFF AND SUB PUSH2 0x1493 JUMPI DUP1 PUSH1 0x40 MLOAD PUSH32 0x8E4C8AA600000000000000000000000000000000000000000000000000000000 DUP2 MSTORE PUSH1 0x4 ADD PUSH2 0x148A SWAP2 SWAP1 PUSH2 0x205E JUMP JUMPDEST PUSH1 0x40 MLOAD DUP1 SWAP2 SUB SWAP1 REVERT JUMPDEST DUP1 PUSH1 0x3 PUSH0 PUSH2 0x100 EXP DUP2 SLOAD DUP2 PUSH20 0xFFFFFFFFFFFFFFFFFFFFFFFFFFFFFFFFFFFFFFFF MUL NOT AND SWAP1 DUP4 PUSH20 0xFFFFFFFFFFFFFFFFFFFFFFFFFFFFFFFFFFFFFFFF AND MUL OR SWAP1 SSTORE POP DUP1 PUSH20 0xFFFFFFFFFFFFFFFFFFFFFFFFFFFFFFFFFFFFFFFF AND PUSH32 0x81A590C208A61D15BDFB64B188E09C0A6FBC5CC06D3F769DE354972A76D0C12F PUSH1 0x40 MLOAD PUSH1 0x40 MLOAD DUP1 SWAP2 SUB SWAP1 LOG2 POP JUMP JUMPDEST PUSH2 0x2710 DUP2 JUMP JUMPDEST PUSH2 0x1527 PUSH2 0x1A24 JUMP JUMPDEST PUSH0 DUP2 SUB PUSH2 0x1560 JUMPI PUSH1 0x40 MLOAD PUSH32 0x2C5211C600000000000000000000000000000000000000000000000000000000 DUP2 MSTORE PUSH1 0x4 ADD PUSH1 0x40 MLOAD DUP1 SWAP2 SUB SWAP1 REVERT JUMPDEST PUSH0 PUSH1 0x2 PUSH0 CALLER PUSH20 0xFFFFFFFFFFFFFFFFFFFFFFFFFFFFFFFFFFFFFFFF AND PUSH20 0xFFFFFFFFFFFFFFFFFFFFFFFFFFFFFFFFFFFFFFFF AND DUP2 MSTORE PUSH1 0x20 ADD SWAP1 DUP2 MSTORE PUSH1 0x20 ADD PUSH0 KECCAK256 SWAP1 POP DUP2 DUP2 PUSH0 ADD SLOAD LT ISZERO PUSH2 0x15ED JUMPI DUP1 PUSH0 ADD SLOAD DUP3 PUSH1 0x40 MLOAD PUSH32 0x768063DB00000000000000000000000000000000000000000000000000000000 DUP2 MSTORE PUSH1 0x4 ADD PUSH2 0x15E4 SWAP3 SWAP2 SWAP1 PUSH2 0x2077 JUMP JUMPDEST PUSH1 0x40 MLOAD DUP1 SWAP2 SUB SWAP1 REVERT JUMPDEST PUSH0 DUP3 DUP3 PUSH0 ADD SLOAD PUSH2 0x15FD SWAP2 SWAP1 PUSH2 0x2297 JUMP JUMPDEST SWAP1 POP PUSH0 PUSH1 0x4 PUSH0 SWAP1 SLOAD SWAP1 PUSH2 0x100 EXP SWAP1 DIV PUSH20 0xFFFFFFFFFFFFFFFFFFFFFFFFFFFFFFFFFFFFFFFF AND PUSH20 0xFFFFFFFFFFFFFFFFFFFFFFFFFFFFFFFFFFFFFFFF AND PUSH4 0x8E15F473 PUSH1 0x40 MLOAD DUP2 PUSH4 0xFFFFFFFF AND PUSH1 0xE0 SHL DUP2 MSTORE PUSH1 0x4 ADD PUSH1 0x20 PUSH1 0x40 MLOAD DUP1 DUP4 SUB DUP2 DUP7 GAS STATICCALL ISZERO DUP1 ISZERO PUSH2 0x166A JUMPI RETURNDATASIZE PUSH0 PUSH0 RETURNDATACOPY RETURNDATASIZE PUSH0 REVERT JUMPDEST POP POP POP POP PUSH1 0x40 MLOAD RETURNDATASIZE PUSH1 0x1F NOT PUSH1 0x1F DUP3 ADD AND DUP3 ADD DUP1 PUSH1 0x40 MSTORE POP DUP2 ADD SWAP1 PUSH2 0x168E SWAP2 SWAP1 PUSH2 0x21A1 JUMP JUMPDEST SWAP1 POP PUSH0 PUSH8 0xDE0B6B3A7640000 DUP3 DUP5 PUSH2 0x16A6 SWAP2 SWAP1 PUSH2 0x21F9 JUMP JUMPDEST PUSH2 0x16B0 SWAP2 SWAP1 PUSH2 0x2267 JUMP JUMPDEST SWAP1 POP PUSH0 DUP5 PUSH1 0x1 ADD SLOAD GT ISZERO PUSH2 0x1728 JUMPI PUSH0 PUSH1 0x5 SLOAD PUSH1 0x64 DUP7 PUSH1 0x1 ADD SLOAD PUSH2 0x16D3 SWAP2 SWAP1 PUSH2 0x21F9 JUMP JUMPDEST PUSH2 0x16DD SWAP2 SWAP1 PUSH2 0x2267 JUMP JUMPDEST SWAP1 POP DUP1 DUP3 LT ISZERO PUSH2 0x1726 JUMPI PUSH0 DUP2 PUSH1 0x40 MLOAD PUSH32 0xD771D8E900000000000000000000000000000000000000000000000000000000 DUP2 MSTORE PUSH1 0x4 ADD PUSH2 0x171D SWAP3 SWAP2 SWAP1 PUSH2 0x2474 JUMP JUMPDEST PUSH1 0x40 MLOAD DUP1 SWAP2 SUB SWAP1 REVERT JUMPDEST POP JUMPDEST DUP3 DUP5 PUSH0 ADD DUP2 SWAP1 SSTORE POP PUSH0 CALLER PUSH20 0xFFFFFFFFFFFFFFFFFFFFFFFFFFFFFFFFFFFFFFFF AND DUP7 PUSH1 0x40 MLOAD PUSH2 0x1755 SWAP1 PUSH2 0x2427 JUMP JUMPDEST PUSH0 PUSH1 0x40 MLOAD DUP1 DUP4 SUB DUP2 DUP6 DUP8 GAS CALL SWAP3 POP POP POP RETURNDATASIZE DUP1 PUSH0 DUP2 EQ PUSH2 0x178F JUMPI PUSH1 0x40 MLOAD SWAP2 POP PUSH1 0x1F NOT PUSH1 0x3F RETURNDATASIZE ADD AND DUP3 ADD PUSH1 0x40 MSTORE RETURNDATASIZE DUP3 MSTORE RETURNDATASIZE PUSH0 PUSH1 0x20 DUP5 ADD RETURNDATACOPY PUSH2 0x1794 JUMP JUMPDEST PUSH1 0x60 SWAP2 POP JUMPDEST POP POP SWAP1 POP DUP1 PUSH2 0x17CF JUMPI PUSH1 0x40 MLOAD PUSH32 0x90B8EC1800000000000000000000000000000000000000000000000000000000 DUP2 MSTORE PUSH1 0x4 ADD PUSH1 0x40 MLOAD DUP1 SWAP2 SUB SWAP1 REVERT JUMPDEST CALLER PUSH20 0xFFFFFFFFFFFFFFFFFFFFFFFFFFFFFFFFFFFFFFFF AND PUSH32 0x5B0743ACABCE0EA09498B3C2598ED444F80EF6513A2029D7D9AAED87064D1EDB DUP8 PUSH1 0x40 MLOAD PUSH2 0x1815 SWAP2 SWAP1 PUSH2 0x1EE4 JUMP JUMPDEST PUSH1 0x40 MLOAD DUP1 SWAP2 SUB SWAP1 LOG2 POP POP POP POP POP PUSH2 0x182A PUSH2 0x1A71 JUMP JUMPDEST POP JUMP JUMPDEST PUSH2 0x1835 PUSH2 0x199D JUMP JUMPDEST PUSH0 PUSH20 0xFFFFFFFFFFFFFFFFFFFFFFFFFFFFFFFFFFFFFFFF AND DUP2 PUSH20 0xFFFFFFFFFFFFFFFFFFFFFFFFFFFFFFFFFFFFFFFF AND SUB PUSH2 0x18A5 JUMPI PUSH0 PUSH1 0x40 MLOAD PUSH32 0x1E4FBDF700000000000000000000000000000000000000000000000000000000 DUP2 MSTORE PUSH1 0x4 ADD PUSH2 0x189C SWAP2 SWAP1 PUSH2 0x205E JUMP JUMPDEST PUSH1 0x40 MLOAD DUP1 SWAP2 SUB SWAP1 REVERT JUMPDEST PUSH2 0x18AE DUP2 PUSH2 0x1E02 JUMP JUMPDEST POP JUMP JUMPDEST PUSH1 0x3 PUSH0 SWAP1 SLOAD SWAP1 PUSH2 0x100 EXP SWAP1 DIV PUSH20 0xFFFFFFFFFFFFFFFFFFFFFFFFFFFFFFFFFFFFFFFF AND DUP2 JUMP JUMPDEST PUSH0 PUSH0 PUSH1 0x2 PUSH0 DUP5 PUSH20 0xFFFFFFFFFFFFFFFFFFFFFFFFFFFFFFFFFFFFFFFF AND PUSH20 0xFFFFFFFFFFFFFFFFFFFFFFFFFFFFFFFFFFFFFFFF AND DUP2 MSTORE PUSH1 0x20 ADD SWAP1 DUP2 MSTORE PUSH1 0x20 ADD PUSH0 KECCAK256 SWAP1 POP PUSH0 DUP2 PUSH1 0x1 ADD SLOAD SUB PUSH2 0x194B JUMPI PUSH32 0xFFFFFFFFFFFFFFFFFFFFFFFFFFFFFFFFFFFFFFFFFFFFFFFFFFFFFFFFFFFFFFFF SWAP2 POP POP PUSH2 0x1998 JUMP JUMPDEST PUSH0 PUSH2 0x1955 DUP5 PUSH2 0x654 JUMP JUMPDEST SWAP1 POP PUSH1 0x64 DUP3 PUSH1 0x1 ADD SLOAD PUSH2 0x1968 SWAP2 SWAP1 PUSH2 0x21F9 JUMP JUMPDEST PUSH8 0xDE0B6B3A7640000 PUSH1 0x6 SLOAD DUP4 PUSH2 0x197F SWAP2 SWAP1 PUSH2 0x21F9 JUMP JUMPDEST PUSH2 0x1989 SWAP2 SWAP1 PUSH2 0x21F9 JUMP JUMPDEST PUSH2 0x1993 SWAP2 SWAP1 PUSH2 0x2267 JUMP JUMPDEST SWAP3 POP POP POP JUMPDEST SWAP2 SWAP1 POP JUMP JUMPDEST PUSH2 0x19A5 PUSH2 0x1EC5 JUMP JUMPDEST PUSH20 0xFFFFFFFFFFFFFFFFFFFFFFFFFFFFFFFFFFFFFFFF AND PUSH2 0x19C3 PUSH2 0xE49 JUMP JUMPDEST PUSH20 0xFFFFFFFFFFFFFFFFFFFFFFFFFFFFFFFFFFFFFFFF AND EQ PUSH2 0x1A22 JUMPI PUSH2 0x19E6 PUSH2 0x1EC5 JUMP JUMPDEST PUSH1 0x40 MLOAD PUSH32 0x118CDAA700000000000000000000000000000000000000000000000000000000 DUP2 MSTORE PUSH1 0x4 ADD PUSH2 0x1A19 SWAP2 SWAP1 PUSH2 0x205E JUMP JUMPDEST PUSH1 0x40 MLOAD DUP1 SWAP2 SUB SWAP1 REVERT JUMPDEST JUMP JUMPDEST PUSH1 0x2 PUSH0 SLOAD SUB PUSH2 0x1A68 JUMPI PUSH1 0x40 MLOAD PUSH32 0x8C379A000000000000000000000000000000000000000000000000000000000 DUP2 MSTORE PUSH1 0x4 ADD PUSH2 0x1A5F SWAP1 PUSH2 0x24E5 JUMP JUMPDEST PUSH1 0x40 MLOAD DUP1 SWAP2 SUB SWAP1 REVERT JUMPDEST PUSH1 0x2 PUSH0 DUP2 SWAP1 SSTORE POP JUMP JUMPDEST PUSH1 0x1 PUSH0 DUP2 SWAP1 SSTORE POP JUMP JUMPDEST PUSH0 PUSH1 0x3 PUSH0 SWAP1 SLOAD SWAP1 PUSH2 0x100 EXP SWAP1 DIV PUSH20 0xFFFFFFFFFFFFFFFFFFFFFFFFFFFFFFFFFFFFFFFF AND PUSH20 0xFFFFFFFFFFFFFFFFFFFFFFFFFFFFFFFFFFFFFFFF AND PUSH4 0x70A08231 ADDRESS PUSH1 0x40 MLOAD DUP3 PUSH4 0xFFFFFFFF AND PUSH1 0xE0 SHL DUP2 MSTORE PUSH1 0x4 ADD PUSH2 0x1AD5 SWAP2 SWAP1 PUSH2 0x205E JUMP JUMPDEST PUSH1 0x20 PUSH1 0x40 MLOAD DUP1 DUP4 SUB DUP2 DUP7 GAS STATICCALL ISZERO DUP1 ISZERO PUSH2 0x1AF0 JUMPI RETURNDATASIZE PUSH0 PUSH0 RETURNDATACOPY RETURNDATASIZE PUSH0 REVERT JUMPDEST POP POP POP POP PUSH1 0x40 MLOAD RETURNDATASIZE PUSH1 0x1F NOT PUSH1 0x1F DUP3 ADD AND DUP3 ADD DUP1 PUSH1 0x40 MSTORE POP DUP2 ADD SWAP1 PUSH2 0x1B14 SWAP2 SWAP1 PUSH2 0x21A1 JUMP JUMPDEST SWAP1 POP DUP2 DUP2 LT PUSH2 0x1BFA JUMPI PUSH0 PUSH1 0x3 PUSH0 SWAP1 SLOAD SWAP1 PUSH2 0x100 EXP SWAP1 DIV PUSH20 0xFFFFFFFFFFFFFFFFFFFFFFFFFFFFFFFFFFFFFFFF AND PUSH20 0xFFFFFFFFFFFFFFFFFFFFFFFFFFFFFFFFFFFFFFFF AND PUSH4 0xA9059CBB DUP6 DUP6 PUSH1 0x40 MLOAD DUP4 PUSH4 0xFFFFFFFF AND PUSH1 0xE0 SHL DUP2 MSTORE PUSH1 0x4 ADD PUSH2 0x1B7A SWAP3 SWAP2 SWAP1 PUSH2 0x2503 JUMP JUMPDEST PUSH1 0x20 PUSH1 0x40 MLOAD DUP1 DUP4 SUB DUP2 PUSH0 DUP8 GAS CALL ISZERO DUP1 ISZERO PUSH2 0x1B96 JUMPI RETURNDATASIZE PUSH0 PUSH0 RETURNDATACOPY RETURNDATASIZE PUSH0 REVERT JUMPDEST POP POP POP POP PUSH1 0x40 MLOAD RETURNDATASIZE PUSH1 0x1F NOT PUSH1 0x1F DUP3 ADD AND DUP3 ADD DUP1 PUSH1 0x40 MSTORE POP DUP2 ADD SWAP1 PUSH2 0x1BBA SWAP2 SWAP1 PUSH2 0x2334 JUMP JUMPDEST SWAP1 POP DUP1 PUSH2 0x1BF3 JUMPI PUSH1 0x40 MLOAD PUSH32 0x90B8EC1800000000000000000000000000000000000000000000000000000000 DUP2 MSTORE PUSH1 0x4 ADD PUSH1 0x40 MLOAD DUP1 SWAP2 SUB SWAP1 REVERT JUMPDEST POP POP PUSH2 0x1DFE JUMP JUMPDEST PUSH0 DUP2 DUP4 PUSH2 0x1C07 SWAP2 SWAP1 PUSH2 0x2297 JUMP JUMPDEST SWAP1 POP PUSH0 DUP3 GT ISZERO PUSH2 0x1CE9 JUMPI PUSH0 PUSH1 0x3 PUSH0 SWAP1 SLOAD SWAP1 PUSH2 0x100 EXP SWAP1 DIV PUSH20 0xFFFFFFFFFFFFFFFFFFFFFFFFFFFFFFFFFFFFFFFF AND PUSH20 0xFFFFFFFFFFFFFFFFFFFFFFFFFFFFFFFFFFFFFFFF AND PUSH4 0xA9059CBB DUP7 DUP6 PUSH1 0x40 MLOAD DUP4 PUSH4 0xFFFFFFFF AND PUSH1 0xE0 SHL DUP2 MSTORE PUSH1 0x4 ADD PUSH2 0x1C6E SWAP3 SWAP2 SWAP1 PUSH2 0x2503 JUMP JUMPDEST PUSH1 0x20 PUSH1 0x40 MLOAD DUP1 DUP4 SUB DUP2 PUSH0 DUP8 GAS CALL ISZERO DUP1 ISZERO PUSH2 0x1C8A JUMPI RETURNDATASIZE PUSH0 PUSH0 RETURNDATACOPY RETURNDATASIZE PUSH0 REVERT JUMPDEST POP POP POP POP PUSH1 0x40 MLOAD RETURNDATASIZE PUSH1 0x1F NOT PUSH1 0x1F DUP3 ADD AND DUP3 ADD DUP1 PUSH1 0x40 MSTORE POP DUP2 ADD SWAP1 PUSH2 0x1CAE SWAP2 SWAP1 PUSH2 0x2334 JUMP JUMPDEST SWAP1 POP DUP1 PUSH2 0x1CE7 JUMPI PUSH1 0x40 MLOAD PUSH32 0x90B8EC1800000000000000000000000000000000000000000000000000000000 DUP2 MSTORE PUSH1 0x4 ADD PUSH1 0x40 MLOAD DUP1 SWAP2 SUB SWAP1 REVERT JUMPDEST POP JUMPDEST PUSH1 0x3 PUSH0 SWAP1 SLOAD SWAP1 PUSH2 0x100 EXP SWAP1 DIV PUSH20 0xFFFFFFFFFFFFFFFFFFFFFFFFFFFFFFFFFFFFFFFF AND PUSH20 0xFFFFFFFFFFFFFFFFFFFFFFFFFFFFFFFFFFFFFFFF AND PUSH4 0x40C10F19 DUP6 DUP4 PUSH1 0x40 MLOAD DUP4 PUSH4 0xFFFFFFFF AND PUSH1 0xE0 SHL DUP2 MSTORE PUSH1 0x4 ADD PUSH2 0x1D45 SWAP3 SWAP2 SWAP1 PUSH2 0x2503 JUMP JUMPDEST PUSH1 0x20 PUSH1 0x40 MLOAD DUP1 DUP4 SUB DUP2 PUSH0 DUP8 GAS CALL SWAP3 POP POP POP DUP1 ISZERO PUSH2 0x1D80 JUMPI POP PUSH1 0x40 MLOAD RETURNDATASIZE PUSH1 0x1F NOT PUSH1 0x1F DUP3 ADD AND DUP3 ADD DUP1 PUSH1 0x40 MSTORE POP DUP2 ADD SWAP1 PUSH2 0x1D7D SWAP2 SWAP1 PUSH2 0x2334 JUMP JUMPDEST PUSH1 0x1 JUMPDEST PUSH2 0x1DC3 JUMPI DUP3 DUP3 PUSH1 0x40 MLOAD PUSH32 0x206ADEE000000000000000000000000000000000000000000000000000000000 DUP2 MSTORE PUSH1 0x4 ADD PUSH2 0x1DBA SWAP3 SWAP2 SWAP1 PUSH2 0x2077 JUMP JUMPDEST PUSH1 0x40 MLOAD DUP1 SWAP2 SUB SWAP1 REVERT JUMPDEST DUP1 PUSH2 0x1DFA JUMPI PUSH1 0x40 MLOAD PUSH32 0x6A17288200000000000000000000000000000000000000000000000000000000 DUP2 MSTORE PUSH1 0x4 ADD PUSH1 0x40 MLOAD DUP1 SWAP2 SUB SWAP1 REVERT JUMPDEST POP POP POP JUMPDEST POP POP JUMP JUMPDEST PUSH0 PUSH1 0x1 PUSH0 SWAP1 SLOAD SWAP1 PUSH2 0x100 EXP SWAP1 DIV PUSH20 0xFFFFFFFFFFFFFFFFFFFFFFFFFFFFFFFFFFFFFFFF AND SWAP1 POP DUP2 PUSH1 0x1 PUSH0 PUSH2 0x100 EXP DUP2 SLOAD DUP2 PUSH20 0xFFFFFFFFFFFFFFFFFFFFFFFFFFFFFFFFFFFFFFFF MUL NOT AND SWAP1 DUP4 PUSH20 0xFFFFFFFFFFFFFFFFFFFFFFFFFFFFFFFFFFFFFFFF AND MUL OR SWAP1 SSTORE POP DUP2 PUSH20 0xFFFFFFFFFFFFFFFFFFFFFFFFFFFFFFFFFFFFFFFF AND DUP2 PUSH20 0xFFFFFFFFFFFFFFFFFFFFFFFFFFFFFFFFFFFFFFFF AND PUSH32 0x8BE0079C531659141344CD1FD0A4F28419497F9722A3DAAFE3B4186F6B6457E0 PUSH1 0x40 MLOAD PUSH1 0x40 MLOAD DUP1 SWAP2 SUB SWAP1 LOG3 POP POP JUMP JUMPDEST PUSH0 CALLER SWAP1 POP SWAP1 JUMP JUMPDEST PUSH0 DUP2 SWAP1 POP SWAP2 SWAP1 POP JUMP JUMPDEST PUSH2 0x1EDE DUP2 PUSH2 0x1ECC JUMP JUMPDEST DUP3 MSTORE POP POP JUMP JUMPDEST PUSH0 PUSH1 0x20 DUP3 ADD SWAP1 POP PUSH2 0x1EF7 PUSH0 DUP4 ADD DUP5 PUSH2 0x1ED5 JUMP JUMPDEST SWAP3 SWAP2 POP POP JUMP JUMPDEST PUSH0 PUSH20 0xFFFFFFFFFFFFFFFFFFFFFFFFFFFFFFFFFFFFFFFF DUP3 AND SWAP1 POP SWAP2 SWAP1 POP JUMP JUMPDEST PUSH0 DUP2 SWAP1 POP SWAP2 SWAP1 POP JUMP JUMPDEST PUSH0 PUSH2 0x1F3F PUSH2 0x1F3A PUSH2 0x1F35 DUP5 PUSH2 0x1EFD JUMP JUMPDEST PUSH2 0x1F1C JUMP JUMPDEST PUSH2 0x1EFD JUMP JUMPDEST SWAP1 POP SWAP2 SWAP1 POP JUMP JUMPDEST PUSH0 PUSH2 0x1F50 DUP3 PUSH2 0x1F25 JUMP JUMPDEST SWAP1 POP SWAP2 SWAP1 POP JUMP JUMPDEST PUSH0 PUSH2 0x1F61 DUP3 PUSH2 0x1F46 JUMP JUMPDEST SWAP1 POP SWAP2 SWAP1 POP JUMP JUMPDEST PUSH2 0x1F71 DUP2 PUSH2 0x1F57 JUMP JUMPDEST DUP3 MSTORE POP POP JUMP JUMPDEST PUSH0 PUSH1 0x20 DUP3 ADD SWAP1 POP PUSH2 0x1F8A PUSH0 DUP4 ADD DUP5 PUSH2 0x1F68 JUMP JUMPDEST SWAP3 SWAP2 POP POP JUMP JUMPDEST PUSH0 PUSH0 REVERT JUMPDEST PUSH2 0x1F9D DUP2 PUSH2 0x1ECC JUMP JUMPDEST DUP2 EQ PUSH2 0x1FA7 JUMPI PUSH0 PUSH0 REVERT JUMPDEST POP JUMP JUMPDEST PUSH0 DUP2 CALLDATALOAD SWAP1 POP PUSH2 0x1FB8 DUP2 PUSH2 0x1F94 JUMP JUMPDEST SWAP3 SWAP2 POP POP JUMP JUMPDEST PUSH0 PUSH1 0x20 DUP3 DUP5 SUB SLT ISZERO PUSH2 0x1FD3 JUMPI PUSH2 0x1FD2 PUSH2 0x1F90 JUMP JUMPDEST JUMPDEST PUSH0 PUSH2 0x1FE0 DUP5 DUP3 DUP6 ADD PUSH2 0x1FAA JUMP JUMPDEST SWAP2 POP POP SWAP3 SWAP2 POP POP JUMP JUMPDEST PUSH0 PUSH2 0x1FF3 DUP3 PUSH2 0x1EFD JUMP JUMPDEST SWAP1 POP SWAP2 SWAP1 POP JUMP JUMPDEST PUSH2 0x2003 DUP2 PUSH2 0x1FE9 JUMP JUMPDEST DUP2 EQ PUSH2 0x200D JUMPI PUSH0 PUSH0 REVERT JUMPDEST POP JUMP JUMPDEST PUSH0 DUP2 CALLDATALOAD SWAP1 POP PUSH2 0x201E DUP2 PUSH2 0x1FFA JUMP JUMPDEST SWAP3 SWAP2 POP POP JUMP JUMPDEST PUSH0 PUSH1 0x20 DUP3 DUP5 SUB SLT ISZERO PUSH2 0x2039 JUMPI PUSH2 0x2038 PUSH2 0x1F90 JUMP JUMPDEST JUMPDEST PUSH0 PUSH2 0x2046 DUP5 DUP3 DUP6 ADD PUSH2 0x2010 JUMP JUMPDEST SWAP2 POP POP SWAP3 SWAP2 POP POP JUMP JUMPDEST PUSH2 0x2058 DUP2 PUSH2 0x1FE9 JUMP JUMPDEST DUP3 MSTORE POP POP JUMP JUMPDEST PUSH0 PUSH1 0x20 DUP3 ADD SWAP1 POP PUSH2 0x2071 PUSH0 DUP4 ADD DUP5 PUSH2 0x204F JUMP JUMPDEST SWAP3 SWAP2 POP POP JUMP JUMPDEST PUSH0 PUSH1 0x40 DUP3 ADD SWAP1 POP PUSH2 0x208A PUSH0 DUP4 ADD DUP6 PUSH2 0x1ED5 JUMP JUMPDEST PUSH2 0x2097 PUSH1 0x20 DUP4 ADD DUP5 PUSH2 0x1ED5 JUMP JUMPDEST SWAP4 SWAP3 POP POP POP JUMP JUMPDEST PUSH0 PUSH0 PUSH1 0x40 DUP4 DUP6 SUB SLT ISZERO PUSH2 0x20B4 JUMPI PUSH2 0x20B3 PUSH2 0x1F90 JUMP JUMPDEST JUMPDEST PUSH0 PUSH2 0x20C1 DUP6 DUP3 DUP7 ADD PUSH2 0x2010 JUMP JUMPDEST SWAP3 POP POP PUSH1 0x20 PUSH2 0x20D2 DUP6 DUP3 DUP7 ADD PUSH2 0x1FAA JUMP JUMPDEST SWAP2 POP POP SWAP3 POP SWAP3 SWAP1 POP JUMP JUMPDEST PUSH0 PUSH2 0x20E6 DUP3 PUSH2 0x1F46 JUMP JUMPDEST SWAP1 POP SWAP2 SWAP1 POP JUMP JUMPDEST PUSH2 0x20F6 DUP2 PUSH2 0x20DC JUMP JUMPDEST DUP3 MSTORE POP POP JUMP JUMPDEST PUSH0 PUSH1 0x20 DUP3 ADD SWAP1 POP PUSH2 0x210F PUSH0 DUP4 ADD DUP5 PUSH2 0x20ED JUMP JUMPDEST SWAP3 SWAP2 POP POP JUMP JUMPDEST PUSH0 DUP3 DUP3 MSTORE PUSH1 0x20 DUP3 ADD SWAP1 POP SWAP3 SWAP2 POP POP JUMP JUMPDEST PUSH32 0x6261642062707300000000000000000000000000000000000000000000000000 PUSH0 DUP3 ADD MSTORE POP JUMP JUMPDEST PUSH0 PUSH2 0x2159 PUSH1 0x7 DUP4 PUSH2 0x2115 JUMP JUMPDEST SWAP2 POP PUSH2 0x2164 DUP3 PUSH2 0x2125 JUMP JUMPDEST PUSH1 0x20 DUP3 ADD SWAP1 POP SWAP2 SWAP1 POP JUMP JUMPDEST PUSH0 PUSH1 0x20 DUP3 ADD SWAP1 POP DUP2 DUP2 SUB PUSH0 DUP4 ADD MSTORE PUSH2 0x2186 DUP2 PUSH2 0x214D JUMP JUMPDEST SWAP1 POP SWAP2 SWAP1 POP JUMP JUMPDEST PUSH0 DUP2 MLOAD SWAP1 POP PUSH2 0x219B DUP2 PUSH2 0x1F94 JUMP JUMPDEST SWAP3 SWAP2 POP POP JUMP JUMPDEST PUSH0 PUSH1 0x20 DUP3 DUP5 SUB SLT ISZERO PUSH2 0x21B6 JUMPI PUSH2 0x21B5 PUSH2 0x1F90 JUMP JUMPDEST JUMPDEST PUSH0 PUSH2 0x21C3 DUP5 DUP3 DUP6 ADD PUSH2 0x218D JUMP JUMPDEST SWAP2 POP POP SWAP3 SWAP2 POP POP JUMP JUMPDEST PUSH32 0x4E487B7100000000000000000000000000000000000000000000000000000000 PUSH0 MSTORE PUSH1 0x11 PUSH1 0x4 MSTORE PUSH1 0x24 PUSH0 REVERT JUMPDEST PUSH0 PUSH2 0x2203 DUP3 PUSH2 0x1ECC JUMP JUMPDEST SWAP2 POP PUSH2 0x220E DUP4 PUSH2 0x1ECC JUMP JUMPDEST SWAP3 POP DUP3 DUP3 MUL PUSH2 0x221C DUP2 PUSH2 0x1ECC JUMP JUMPDEST SWAP2 POP DUP3 DUP3 DIV DUP5 EQ DUP4 ISZERO OR PUSH2 0x2233 JUMPI PUSH2 0x2232 PUSH2 0x21CC JUMP JUMPDEST JUMPDEST POP SWAP3 SWAP2 POP POP JUMP JUMPDEST PUSH32 0x4E487B7100000000000000000000000000000000000000000000000000000000 PUSH0 MSTORE PUSH1 0x12 PUSH1 0x4 MSTORE PUSH1 0x24 PUSH0 REVERT JUMPDEST PUSH0 PUSH2 0x2271 DUP3 PUSH2 0x1ECC JUMP JUMPDEST SWAP2 POP PUSH2 0x227C DUP4 PUSH2 0x1ECC JUMP JUMPDEST SWAP3 POP DUP3 PUSH2 0x228C JUMPI PUSH2 0x228B PUSH2 0x223A JUMP JUMPDEST JUMPDEST DUP3 DUP3 DIV SWAP1 POP SWAP3 SWAP2 POP POP JUMP JUMPDEST PUSH0 PUSH2 0x22A1 DUP3 PUSH2 0x1ECC JUMP JUMPDEST SWAP2 POP PUSH2 0x22AC DUP4 PUSH2 0x1ECC JUMP JUMPDEST SWAP3 POP DUP3 DUP3 SUB SWAP1 POP DUP2 DUP2 GT ISZERO PUSH2 0x22C4 JUMPI PUSH2 0x22C3 PUSH2 0x21CC JUMP JUMPDEST JUMPDEST SWAP3 SWAP2 POP POP JUMP JUMPDEST PUSH0 PUSH1 0x60 DUP3 ADD SWAP1 POP PUSH2 0x22DD PUSH0 DUP4 ADD DUP7 PUSH2 0x204F JUMP JUMPDEST PUSH2 0x22EA PUSH1 0x20 DUP4 ADD DUP6 PUSH2 0x204F JUMP JUMPDEST PUSH2 0x22F7 PUSH1 0x40 DUP4 ADD DUP5 PUSH2 0x1ED5 JUMP JUMPDEST SWAP5 SWAP4 POP POP POP POP JUMP JUMPDEST PUSH0 DUP2 ISZERO ISZERO SWAP1 POP SWAP2 SWAP1 POP JUMP JUMPDEST PUSH2 0x2313 DUP2 PUSH2 0x22FF JUMP JUMPDEST DUP2 EQ PUSH2 0x231D JUMPI PUSH0 PUSH0 REVERT JUMPDEST POP JUMP JUMPDEST PUSH0 DUP2 MLOAD SWAP1 POP PUSH2 0x232E DUP2 PUSH2 0x230A JUMP JUMPDEST SWAP3 SWAP2 POP POP JUMP JUMPDEST PUSH0 PUSH1 0x20 DUP3 DUP5 SUB SLT ISZERO PUSH2 0x2349 JUMPI PUSH2 0x2348 PUSH2 0x1F90 JUMP JUMPDEST JUMPDEST PUSH0 PUSH2 0x2356 DUP5 DUP3 DUP6 ADD PUSH2 0x2320 JUMP JUMPDEST SWAP2 POP POP SWAP3 SWAP2 POP POP JUMP JUMPDEST PUSH0 PUSH2 0x2369 DUP3 PUSH2 0x1ECC JUMP JUMPDEST SWAP2 POP PUSH2 0x2374 DUP4 PUSH2 0x1ECC JUMP JUMPDEST SWAP3 POP DUP3 DUP3 ADD SWAP1 POP DUP1 DUP3 GT ISZERO PUSH2 0x238C JUMPI PUSH2 0x238B PUSH2 0x21CC JUMP JUMPDEST JUMPDEST SWAP3 SWAP2 POP POP JUMP JUMPDEST PUSH32 0x626164206C747600000000000000000000000000000000000000000000000000 PUSH0 DUP3 ADD MSTORE POP JUMP JUMPDEST PUSH0 PUSH2 0x23C6 PUSH1 0x7 DUP4 PUSH2 0x2115 JUMP JUMPDEST SWAP2 POP PUSH2 0x23D1 DUP3 PUSH2 0x2392 JUMP JUMPDEST PUSH1 0x20 DUP3 ADD SWAP1 POP SWAP2 SWAP1 POP JUMP JUMPDEST PUSH0 PUSH1 0x20 DUP3 ADD SWAP1 POP DUP2 DUP2 SUB PUSH0 DUP4 ADD MSTORE PUSH2 0x23F3 DUP2 PUSH2 0x23BA JUMP JUMPDEST SWAP1 POP SWAP2 SWAP1 POP JUMP JUMPDEST PUSH0 DUP2 SWAP1 POP SWAP3 SWAP2 POP POP JUMP JUMPDEST POP JUMP JUMPDEST PUSH0 PUSH2 0x2412 PUSH0 DUP4 PUSH2 0x23FA JUMP JUMPDEST SWAP2 POP PUSH2 0x241D DUP3 PUSH2 0x2404 JUMP JUMPDEST PUSH0 DUP3 ADD SWAP1 POP SWAP2 SWAP1 POP JUMP JUMPDEST PUSH0 PUSH2 0x2431 DUP3 PUSH2 0x2407 JUMP JUMPDEST SWAP2 POP DUP2 SWAP1 POP SWAP2 SWAP1 POP JUMP JUMPDEST PUSH0 DUP2 SWAP1 POP SWAP2 SWAP1 POP JUMP JUMPDEST PUSH0 PUSH2 0x245E PUSH2 0x2459 PUSH2 0x2454 DUP5 PUSH2 0x243B JUMP JUMPDEST PUSH2 0x1F1C JUMP JUMPDEST PUSH2 0x1ECC JUMP JUMPDEST SWAP1 POP SWAP2 SWAP1 POP JUMP JUMPDEST PUSH2 0x246E DUP2 PUSH2 0x2444 JUMP JUMPDEST DUP3 MSTORE POP POP JUMP JUMPDEST PUSH0 PUSH1 0x40 DUP3 ADD SWAP1 POP PUSH2 0x2487 PUSH0 DUP4 ADD DUP6 PUSH2 0x2465 JUMP JUMPDEST PUSH2 0x2494 PUSH1 0x20 DUP4 ADD DUP5 PUSH2 0x1ED5 JUMP JUMPDEST SWAP4 SWAP3 POP POP POP JUMP JUMPDEST PUSH32 0x5265656E7472616E637947756172643A207265656E7472616E742063616C6C00 PUSH0 DUP3 ADD MSTORE POP JUMP JUMPDEST PUSH0 PUSH2 0x24CF PUSH1 0x1F DUP4 PUSH2 0x2115 JUMP JUMPDEST SWAP2 POP PUSH2 0x24DA DUP3 PUSH2 0x249B JUMP JUMPDEST PUSH1 0x20 DUP3 ADD SWAP1 POP SWAP2 SWAP1 POP JUMP JUMPDEST PUSH0 PUSH1 0x20 DUP3 ADD SWAP1 POP DUP2 DUP2 SUB PUSH0 DUP4 ADD MSTORE PUSH2 0x24FC DUP2 PUSH2 0x24C3 JUMP JUMPDEST SWAP1 POP SWAP2 SWAP1 POP JUMP JUMPDEST PUSH0 PUSH1 0x40 DUP3 ADD SWAP1 POP PUSH2 0x2516 PUSH0 DUP4 ADD DUP6 PUSH2 0x204F JUMP JUMPDEST PUSH2 0x2523 PUSH1 0x20 DUP4 ADD DUP5 PUSH2 0x1ED5 JUMP JUMPDEST SWAP4 SWAP3 POP POP POP JUMP INVALID LOG2 PUSH5 0x6970667358 0x22 SLT KECCAK256 DIV PUSH19 0xC204AA4620D5002E63835B1F7420DC858AD996 PUSH10 0x77EF8F2C2877413258D7 PUSH5 0x736F6C6343 STOP ADDMOD 0x1F STOP CALLER "
		},
		"gasEstimates": {
			"creation": {
				"codeDepositCost": "1913600",
				"executionCost": "infinite",
				"totalCost": "infinite"
			},
			"external": {
				"": "240",
				"BPS_DENOMINATOR()": "414",
				"PCT_DENOMINATOR()": "370",
				"WAD()": "414",
				"availableToBorrow(address)": "infinite",
				"borrowUsd(uint256)": "infinite",
				"collateralValueUsd(address)": "infinite",
				"healthFactorWad(address)": "infinite",
				"liquidate(address,uint256)": "infinite",
				"liquidationBonusBps()": "2449",
				"liquidationThresholdPct()": "2514",
				"ltvPct()": "2536",
				"maxBorrowAllowed(address)": "infinite",
				"owner()": "2582",
				"priceOracle()": "infinite",
				"renounceOwnership()": "infinite",
				"repayUsd(uint256)": "infinite",
				"setLiquidationBonus(uint256)": "infinite",
				"setLtv(uint256)": "infinite",
				"setPriceOracle(address)": "infinite",
				"setUsdToken(address)": "infinite",
				"stakeEth()": "infinite",
				"transferOwnership(address)": "infinite",
				"usdToken()": "infinite",
				"users(address)": "infinite",
				"withdrawCollateralEth(uint256)": "infinite"
			},
			"internal": {
				"_ensureFundsAndTransfer(address,uint256)": "infinite"
			}
		},
		"methodIdentifiers": {
			"BPS_DENOMINATOR()": "e1a45218",
			"PCT_DENOMINATOR()": "80b1acf5",
			"WAD()": "6a146024",
			"availableToBorrow(address)": "2c38199e",
			"borrowUsd(uint256)": "5c2e3de2",
			"collateralValueUsd(address)": "29f98057",
			"healthFactorWad(address)": "fb2926b2",
			"liquidate(address,uint256)": "bcbaf487",
			"liquidationBonusBps()": "19970d8e",
			"liquidationThresholdPct()": "97d43965",
			"ltvPct()": "6f811a2d",
			"maxBorrowAllowed(address)": "30f883e3",
			"owner()": "8da5cb5b",
			"priceOracle()": "2630c12f",
			"renounceOwnership()": "715018a6",
			"repayUsd(uint256)": "4aed0980",
			"setLiquidationBonus(uint256)": "28842d4f",
			"setLtv(uint256)": "a37e52e3",
			"setPriceOracle(address)": "530e784f",
			"setUsdToken(address)": "da805590",
			"stakeEth()": "7a5f0dc4",
			"transferOwnership(address)": "f2fde38b",
			"usdToken()": "f897a22b",
			"users(address)": "a87430ba",
			"withdrawCollateralEth(uint256)": "e1bf0a4b"
		}
	},
	"abi": [
		{
			"inputs": [
				{
					"internalType": "address",
					"name": "_usdToken",
					"type": "address"
				},
				{
					"internalType": "address",
					"name": "_priceOracle",
					"type": "address"
				}
			],
			"stateMutability": "nonpayable",
			"type": "constructor"
		},
		{
			"inputs": [
				{
					"internalType": "uint256",
					"name": "requested",
					"type": "uint256"
				},
				{
					"internalType": "uint256",
					"name": "available",
					"type": "uint256"
				}
			],
			"name": "BorrowLimitExceeded",
			"type": "error"
		},
		{
			"inputs": [
				{
					"internalType": "uint256",
					"name": "outstanding",
					"type": "uint256"
				}
			],
			"name": "BorrowedAmountNotFullyRepaid",
			"type": "error"
		},
		{
			"inputs": [
				{
					"internalType": "uint256",
					"name": "required",
					"type": "uint256"
				},
				{
					"internalType": "uint256",
					"name": "available",
					"type": "uint256"
				}
			],
			"name": "InsufficientPoolFunds",
			"type": "error"
		},
		{
			"inputs": [
				{
					"internalType": "address",
					"name": "addr",
					"type": "address"
				}
			],
			"name": "InvalidAddress",
			"type": "error"
		},
		{
			"inputs": [],
			"name": "InvalidAmount",
			"type": "error"
		},
		{
			"inputs": [],
			"name": "LoanNotFound",
			"type": "error"
		},
		{
			"inputs": [],
			"name": "NoCollateralProvided",
			"type": "error"
		},
		{
			"inputs": [
				{
					"internalType": "uint256",
					"name": "available",
					"type": "uint256"
				},
				{
					"internalType": "uint256",
					"name": "requested",
					"type": "uint256"
				}
			],
			"name": "NotEnoughCollateral",
			"type": "error"
		},
		{
			"inputs": [
				{
					"internalType": "uint256",
					"name": "healthFactor",
					"type": "uint256"
				}
			],
			"name": "NotLiquidatable",
			"type": "error"
		},
		{
			"inputs": [
				{
					"internalType": "uint256",
					"name": "paid",
					"type": "uint256"
				},
				{
					"internalType": "uint256",
					"name": "outstanding",
					"type": "uint256"
				}
			],
			"name": "OverPaymentNotSupported",
			"type": "error"
		},
		{
			"inputs": [
				{
					"internalType": "address",
					"name": "owner",
					"type": "address"
				}
			],
			"name": "OwnableInvalidOwner",
			"type": "error"
		},
		{
			"inputs": [
				{
					"internalType": "address",
					"name": "account",
					"type": "address"
				}
			],
			"name": "OwnableUnauthorizedAccount",
			"type": "error"
		},
		{
			"inputs": [],
			"name": "TransferFailed",
			"type": "error"
		},
		{
			"inputs": [],
			"name": "UnsupportedToken",
			"type": "error"
		},
		{
			"anonymous": false,
			"inputs": [
				{
					"indexed": true,
					"internalType": "address",
					"name": "user",
					"type": "address"
				},
				{
					"indexed": false,
					"internalType": "uint256",
					"name": "ethAmount",
					"type": "uint256"
				}
			],
			"name": "ETHCollateralWithdrawn",
			"type": "event"
		},
		{
			"anonymous": false,
			"inputs": [
				{
					"indexed": true,
					"internalType": "address",
					"name": "user",
					"type": "address"
				},
				{
					"indexed": false,
					"internalType": "uint256",
					"name": "ethAmount",
					"type": "uint256"
				}
			],
			"name": "EthStaked",
			"type": "event"
		},
		{
			"anonymous": false,
			"inputs": [
				{
					"indexed": true,
					"internalType": "address",
					"name": "liquidator",
					"type": "address"
				},
				{
					"indexed": true,
					"internalType": "address",
					"name": "borrower",
					"type": "address"
				},
				{
					"indexed": false,
					"internalType": "uint256",
					"name": "repayAmount",
					"type": "uint256"
				},
				{
					"indexed": false,
					"internalType": "uint256",
					"name": "seizedEth",
					"type": "uint256"
				}
			],
			"name": "Liquidation",
			"type": "event"
		},
		{
			"anonymous": false,
			"inputs": [
				{
					"indexed": false,
					"internalType": "uint256",
					"name": "newBonusBps",
					"type": "uint256"
				}
			],
			"name": "LiquidationBonusUpdated",
			"type": "event"
		},
		{
			"anonymous": false,
			"inputs": [
				{
					"indexed": false,
					"internalType": "uint256",
					"name": "newLtv",
					"type": "uint256"
				}
			],
			"name": "LtvUpdated",
			"type": "event"
		},
		{
			"anonymous": false,
			"inputs": [
				{
					"indexed": true,
					"internalType": "address",
					"name": "newOracle",
					"type": "address"
				}
			],
			"name": "OracleUpdated",
			"type": "event"
		},
		{
			"anonymous": false,
			"inputs": [
				{
					"indexed": true,
					"internalType": "address",
					"name": "previousOwner",
					"type": "address"
				},
				{
					"indexed": true,
					"internalType": "address",
					"name": "newOwner",
					"type": "address"
				}
			],
			"name": "OwnershipTransferred",
			"type": "event"
		},
		{
			"anonymous": false,
			"inputs": [
				{
					"indexed": true,
					"internalType": "address",
					"name": "user",
					"type": "address"
				},
				{
					"indexed": false,
					"internalType": "uint256",
					"name": "usdAmount",
					"type": "uint256"
				}
			],
			"name": "USDBorrowed",
			"type": "event"
		},
		{
			"anonymous": false,
			"inputs": [
				{
					"indexed": true,
					"internalType": "address",
					"name": "user",
					"type": "address"
				},
				{
					"indexed": false,
					"internalType": "uint256",
					"name": "usdAmount",
					"type": "uint256"
				}
			],
			"name": "USDRepaid",
			"type": "event"
		},
		{
			"anonymous": false,
			"inputs": [
				{
					"indexed": true,
					"internalType": "address",
					"name": "newToken",
					"type": "address"
				}
			],
			"name": "USDTokenUpdated",
			"type": "event"
		},
		{
			"stateMutability": "payable",
			"type": "fallback"
		},
		{
			"inputs": [],
			"name": "BPS_DENOMINATOR",
			"outputs": [
				{
					"internalType": "uint256",
					"name": "",
					"type": "uint256"
				}
			],
			"stateMutability": "view",
			"type": "function"
		},
		{
			"inputs": [],
			"name": "PCT_DENOMINATOR",
			"outputs": [
				{
					"internalType": "uint256",
					"name": "",
					"type": "uint256"
				}
			],
			"stateMutability": "view",
			"type": "function"
		},
		{
			"inputs": [],
			"name": "WAD",
			"outputs": [
				{
					"internalType": "uint256",
					"name": "",
					"type": "uint256"
				}
			],
			"stateMutability": "view",
			"type": "function"
		},
		{
			"inputs": [
				{
					"internalType": "address",
					"name": "user",
					"type": "address"
				}
			],
			"name": "availableToBorrow",
			"outputs": [
				{
					"internalType": "uint256",
					"name": "",
					"type": "uint256"
				}
			],
			"stateMutability": "view",
			"type": "function"
		},
		{
			"inputs": [
				{
					"internalType": "uint256",
					"name": "amount",
					"type": "uint256"
				}
			],
			"name": "borrowUsd",
			"outputs": [],
			"stateMutability": "nonpayable",
			"type": "function"
		},
		{
			"inputs": [
				{
					"internalType": "address",
					"name": "user",
					"type": "address"
				}
			],
			"name": "collateralValueUsd",
			"outputs": [
				{
					"internalType": "uint256",
					"name": "",
					"type": "uint256"
				}
			],
			"stateMutability": "view",
			"type": "function"
		},
		{
			"inputs": [
				{
					"internalType": "address",
					"name": "user",
					"type": "address"
				}
			],
			"name": "healthFactorWad",
			"outputs": [
				{
					"internalType": "uint256",
					"name": "",
					"type": "uint256"
				}
			],
			"stateMutability": "view",
			"type": "function"
		},
		{
			"inputs": [
				{
					"internalType": "address",
					"name": "borrower",
					"type": "address"
				},
				{
					"internalType": "uint256",
					"name": "repayAmount",
					"type": "uint256"
				}
			],
			"name": "liquidate",
			"outputs": [],
			"stateMutability": "nonpayable",
			"type": "function"
		},
		{
			"inputs": [],
			"name": "liquidationBonusBps",
			"outputs": [
				{
					"internalType": "uint256",
					"name": "",
					"type": "uint256"
				}
			],
			"stateMutability": "view",
			"type": "function"
		},
		{
			"inputs": [],
			"name": "liquidationThresholdPct",
			"outputs": [
				{
					"internalType": "uint256",
					"name": "",
					"type": "uint256"
				}
			],
			"stateMutability": "view",
			"type": "function"
		},
		{
			"inputs": [],
			"name": "ltvPct",
			"outputs": [
				{
					"internalType": "uint256",
					"name": "",
					"type": "uint256"
				}
			],
			"stateMutability": "view",
			"type": "function"
		},
		{
			"inputs": [
				{
					"internalType": "address",
					"name": "user",
					"type": "address"
				}
			],
			"name": "maxBorrowAllowed",
			"outputs": [
				{
					"internalType": "uint256",
					"name": "",
					"type": "uint256"
				}
			],
			"stateMutability": "view",
			"type": "function"
		},
		{
			"inputs": [],
			"name": "owner",
			"outputs": [
				{
					"internalType": "address",
					"name": "",
					"type": "address"
				}
			],
			"stateMutability": "view",
			"type": "function"
		},
		{
			"inputs": [],
			"name": "priceOracle",
			"outputs": [
				{
					"internalType": "contract IPriceOracle",
					"name": "",
					"type": "address"
				}
			],
			"stateMutability": "view",
			"type": "function"
		},
		{
			"inputs": [],
			"name": "renounceOwnership",
			"outputs": [],
			"stateMutability": "nonpayable",
			"type": "function"
		},
		{
			"inputs": [
				{
					"internalType": "uint256",
					"name": "amount",
					"type": "uint256"
				}
			],
			"name": "repayUsd",
			"outputs": [],
			"stateMutability": "nonpayable",
			"type": "function"
		},
		{
			"inputs": [
				{
					"internalType": "uint256",
					"name": "_bonusBps",
					"type": "uint256"
				}
			],
			"name": "setLiquidationBonus",
			"outputs": [],
			"stateMutability": "nonpayable",
			"type": "function"
		},
		{
			"inputs": [
				{
					"internalType": "uint256",
					"name": "_ltvPct",
					"type": "uint256"
				}
			],
			"name": "setLtv",
			"outputs": [],
			"stateMutability": "nonpayable",
			"type": "function"
		},
		{
			"inputs": [
				{
					"internalType": "address",
					"name": "_oracle",
					"type": "address"
				}
			],
			"name": "setPriceOracle",
			"outputs": [],
			"stateMutability": "nonpayable",
			"type": "function"
		},
		{
			"inputs": [
				{
					"internalType": "address",
					"name": "_usd",
					"type": "address"
				}
			],
			"name": "setUsdToken",
			"outputs": [],
			"stateMutability": "nonpayable",
			"type": "function"
		},
		{
			"inputs": [],
			"name": "stakeEth",
			"outputs": [],
			"stateMutability": "payable",
			"type": "function"
		},
		{
			"inputs": [
				{
					"internalType": "address",
					"name": "newOwner",
					"type": "address"
				}
			],
			"name": "transferOwnership",
			"outputs": [],
			"stateMutability": "nonpayable",
			"type": "function"
		},
		{
			"inputs": [],
			"name": "usdToken",
			"outputs": [
				{
					"internalType": "contract IERC20",
					"name": "",
					"type": "address"
				}
			],
			"stateMutability": "view",
			"type": "function"
		},
		{
			"inputs": [
				{
					"internalType": "address",
					"name": "",
					"type": "address"
				}
			],
			"name": "users",
			"outputs": [
				{
					"internalType": "uint256",
					"name": "stakedEth",
					"type": "uint256"
				},
				{
					"internalType": "uint256",
					"name": "borrowedUsd",
					"type": "uint256"
				}
			],
			"stateMutability": "view",
			"type": "function"
		},
		{
			"inputs": [
				{
					"internalType": "uint256",
					"name": "ethAmount",
					"type": "uint256"
				}
			],
			"name": "withdrawCollateralEth",
			"outputs": [],
			"stateMutability": "nonpayable",
			"type": "function"
		},
		{
			"stateMutability": "payable",
			"type": "receive"
		}
	]
}