{
	"data": {
		"bytecode": {
			"linkReferences": {},
			"object": "608060405234801561000f575f5ffd5b5060405161150038038061150083398181016040528101906100319190610149565b5f73ffffffffffffffffffffffffffffffffffffffff168173ffffffffffffffffffffffffffffffffffffffff16146100a857805f5f6101000a81548173ffffffffffffffffffffffffffffffffffffffff021916908373ffffffffffffffffffffffffffffffffffffffff1602179055506100e5565b806040517f8e4c8aa60000000000000000000000000000000000000000000000000000000081526004016100dc9190610183565b60405180910390fd5b5061019c565b5f5ffd5b5f73ffffffffffffffffffffffffffffffffffffffff82169050919050565b5f610118826100ef565b9050919050565b6101288161010e565b8114610132575f5ffd5b50565b5f815190506101438161011f565b92915050565b5f6020828403121561015e5761015d6100eb565b5b5f61016b84828501610135565b91505092915050565b61017d8161010e565b82525050565b5f6020820190506101965f830184610174565b92915050565b611357806101a95f395ff3fe60806040526004361061007e575f3560e01c8063685398e71161004d578063685398e7146101255780637a5f0dc41461014f578063a87430ba14610159578063e1bf0a4b146101965761007f565b80630ce90e5f146100815780630fb9f035146100ab5780634aed0980146100d55780635c2e3de2146100fd5761007f565b5b005b34801561008c575f5ffd5b506100956101be565b6040516100a29190610d24565b60405180910390f35b3480156100b6575f5ffd5b506100bf6101c5565b6040516100cc9190610db7565b60405180910390f35b3480156100e0575f5ffd5b506100fb60048036038101906100f69190610dfe565b6101e9565b005b348015610108575f5ffd5b50610123600480360381019061011e9190610dfe565b61040c565b005b348015610130575f5ffd5b506101396105a1565b6040516101469190610d24565b60405180910390f35b61015761063f565b005b348015610164575f5ffd5b5061017f600480360381019061017a9190610e64565b610723565b60405161018d929190610e8f565b60405180910390f35b3480156101a1575f5ffd5b506101bc60048036038101906101b79190610dfe565b610743565b005b5f47905090565b5f5f9054906101000a900473ffffffffffffffffffffffffffffffffffffffff1681565b5f60015f3373ffffffffffffffffffffffffffffffffffffffff1673ffffffffffffffffffffffffffffffffffffffff1681526020019081526020015f2090505f82148061023a57505f8160010154145b15610271576040517ff79050d000000000000000000000000000000000000000000000000000000000815260040160405180910390fd5b8060010154821161035d575f5f9054906101000a900473ffffffffffffffffffffffffffffffffffffffff1673ffffffffffffffffffffffffffffffffffffffff166323b872dd3330856040518463ffffffff1660e01b81526004016102d993929190610ec5565b6020604051808303815f875af11580156102f5573d5f5f3e3d5ffd5b505050506040513d601f19601f820116820180604052508101906103199190610f2f565b610358576040517f08c379a000000000000000000000000000000000000000000000000000000000815260040161034f90610fb4565b60405180910390fd5b6103a0565b8181600101546040517f99bcd813000000000000000000000000000000000000000000000000000000008152600401610397929190610e8f565b60405180910390fd5b81816001015f8282546103b39190610fff565b925050819055503373ffffffffffffffffffffffffffffffffffffffff167fb7efcc12f3d3e74e33995ff303aca806b9428989809e60a4e5a4d465832966e4836040516104009190610d24565b60405180910390a25050565b5f60015f3373ffffffffffffffffffffffffffffffffffffffff1673ffffffffffffffffffffffffffffffffffffffff1681526020019081526020015f2090505f815f015403610488576040517fb016be5e00000000000000000000000000000000000000000000000000000000815260040160405180910390fd5b5f82036104c1576040517f2c5211c600000000000000000000000000000000000000000000000000000000815260040160405180910390fd5b5f6104cb3361093c565b11156104f05781816001015f8282546104e49190611032565b9250508190555061052b565b6040517f08c379a0000000000000000000000000000000000000000000000000000000008152600401610522906110d5565b60405180910390fd5b81816001015f82825461053e9190611032565b9250508190555061054f3383610a9a565b3373ffffffffffffffffffffffffffffffffffffffff167f5abc9a9c4616711eb03d720e050325118645a3695a5e75b5b10a29e2e217fe03836040516105959190610d24565b60405180910390a25050565b5f5f5f9054906101000a900473ffffffffffffffffffffffffffffffffffffffff1673ffffffffffffffffffffffffffffffffffffffff166370a08231306040518263ffffffff1660e01b81526004016105fb91906110f3565b602060405180830381865afa158015610616573d5f5f3e3d5ffd5b505050506040513d601f19601f8201168201806040525081019061063a9190611120565b905090565b5f3411156106a1573460015f3373ffffffffffffffffffffffffffffffffffffffff1673ffffffffffffffffffffffffffffffffffffffff1681526020019081526020015f205f015f8282546106959190611032565b925050819055506106d3565b6040517fb016be5e00000000000000000000000000000000000000000000000000000000815260040160405180910390fd5b3373ffffffffffffffffffffffffffffffffffffffff167f1c0917c3a343a300b56473c59fa8355d3326f2c73472679a5b4cd5d6e0390c80346040516107199190610d24565b60405180910390a2565b6001602052805f5260405f205f91509050805f0154908060010154905082565b5f60015f3373ffffffffffffffffffffffffffffffffffffffff1673ffffffffffffffffffffffffffffffffffffffff1681526020019081526020015f2090505f82148061079557505f816001015414155b156107db5780600101546040517f40a636fb0000000000000000000000000000000000000000000000000000000081526004016107d29190610d24565b60405180910390fd5b805f015482111561082857805f0154826040517f768063db00000000000000000000000000000000000000000000000000000000815260040161081f929190610e8f565b60405180910390fd5b81815f015f82825461083a9190610fff565b925050819055505f3373ffffffffffffffffffffffffffffffffffffffff168360405161086690611178565b5f6040518083038185875af1925050503d805f81146108a0576040519150601f19603f3d011682016040523d82523d5f602084013e6108a5565b606091505b50509050806108e9576040517f08c379a00000000000000000000000000000000000000000000000000000000081526004016108e0906111d6565b60405180910390fd5b3373ffffffffffffffffffffffffffffffffffffffff167f5b0743acabce0ea09498b3c2598ed444f80ef6513a2029d7d9aaed87064d1edb8460405161092f9190610d24565b60405180910390a2505050565b5f5f670de0b6b3a764000080606461095491906111f4565b61095e91906111f4565b6032686c6b935b8bbd40000060015f8773ffffffffffffffffffffffffffffffffffffffff1673ffffffffffffffffffffffffffffffffffffffff1681526020019081526020015f205f01546109b491906111f4565b6109be91906111f4565b6109c89190611262565b905080670de0b6b3a764000060015f8673ffffffffffffffffffffffffffffffffffffffff1673ffffffffffffffffffffffffffffffffffffffff1681526020019081526020015f2060010154610a1f9190611262565b10610a2d575f915050610a95565b5f670de0b6b3a764000060015f8673ffffffffffffffffffffffffffffffffffffffff1673ffffffffffffffffffffffffffffffffffffffff1681526020019081526020015f2060010154610a829190611262565b82610a8d9190610fff565b905080925050505b919050565b5f610aa36105a1565b9050818110610b8b575f5f9054906101000a900473ffffffffffffffffffffffffffffffffffffffff1673ffffffffffffffffffffffffffffffffffffffff1663a9059cbb84846040518363ffffffff1660e01b8152600401610b07929190611292565b6020604051808303815f875af1158015610b23573d5f5f3e3d5ffd5b505050506040513d601f19601f82011682018060405250810190610b479190610f2f565b610b86576040517f08c379a0000000000000000000000000000000000000000000000000000000008152600401610b7d90611303565b60405180910390fd5b610d07565b5f8183610b989190610fff565b90505f821115610c7d575f5f9054906101000a900473ffffffffffffffffffffffffffffffffffffffff1673ffffffffffffffffffffffffffffffffffffffff1663a9059cbb85846040518363ffffffff1660e01b8152600401610bfd929190611292565b6020604051808303815f875af1158015610c19573d5f5f3e3d5ffd5b505050506040513d601f19601f82011682018060405250810190610c3d9190610f2f565b610c7c576040517f08c379a0000000000000000000000000000000000000000000000000000000008152600401610c7390611303565b60405180910390fd5b5b5f5f9054906101000a900473ffffffffffffffffffffffffffffffffffffffff1673ffffffffffffffffffffffffffffffffffffffff166340c10f1985836040518363ffffffff1660e01b8152600401610cd8929190611292565b5f604051808303815f87803b158015610cef575f5ffd5b505af1158015610d01573d5f5f3e3d5ffd5b50505050505b505050565b5f819050919050565b610d1e81610d0c565b82525050565b5f602082019050610d375f830184610d15565b92915050565b5f73ffffffffffffffffffffffffffffffffffffffff82169050919050565b5f819050919050565b5f610d7f610d7a610d7584610d3d565b610d5c565b610d3d565b9050919050565b5f610d9082610d65565b9050919050565b5f610da182610d86565b9050919050565b610db181610d97565b82525050565b5f602082019050610dca5f830184610da8565b92915050565b5f5ffd5b610ddd81610d0c565b8114610de7575f5ffd5b50565b5f81359050610df881610dd4565b92915050565b5f60208284031215610e1357610e12610dd0565b5b5f610e2084828501610dea565b91505092915050565b5f610e3382610d3d565b9050919050565b610e4381610e29565b8114610e4d575f5ffd5b50565b5f81359050610e5e81610e3a565b92915050565b5f60208284031215610e7957610e78610dd0565b5b5f610e8684828501610e50565b91505092915050565b5f604082019050610ea25f830185610d15565b610eaf6020830184610d15565b9392505050565b610ebf81610e29565b82525050565b5f606082019050610ed85f830186610eb6565b610ee56020830185610eb6565b610ef26040830184610d15565b949350505050565b5f8115159050919050565b610f0e81610efa565b8114610f18575f5ffd5b50565b5f81519050610f2981610f05565b92915050565b5f60208284031215610f4457610f43610dd0565b5b5f610f5184828501610f1b565b91505092915050565b5f82825260208201905092915050565b7f5472616e73666572204661696c656400000000000000000000000000000000005f82015250565b5f610f9e600f83610f5a565b9150610fa982610f6a565b602082019050919050565b5f6020820190508181035f830152610fcb81610f92565b9050919050565b7f4e487b71000000000000000000000000000000000000000000000000000000005f52601160045260245ffd5b5f61100982610d0c565b915061101483610d0c565b925082820390508181111561102c5761102b610fd2565b5b92915050565b5f61103c82610d0c565b915061104783610d0c565b925082820190508082111561105f5761105e610fd2565b5b92915050565b7f596f75206861766520657863656564656420796f757220626f72726f77206c695f8201527f6d69740000000000000000000000000000000000000000000000000000000000602082015250565b5f6110bf602383610f5a565b91506110ca82611065565b604082019050919050565b5f6020820190508181035f8301526110ec816110b3565b9050919050565b5f6020820190506111065f830184610eb6565b92915050565b5f8151905061111a81610dd4565b92915050565b5f6020828403121561113557611134610dd0565b5b5f6111428482850161110c565b91505092915050565b5f81905092915050565b50565b5f6111635f8361114b565b915061116e82611155565b5f82019050919050565b5f61118282611158565b9150819050919050565b7f455448207472616e73666572206661696c6564000000000000000000000000005f82015250565b5f6111c0601383610f5a565b91506111cb8261118c565b602082019050919050565b5f6020820190508181035f8301526111ed816111b4565b9050919050565b5f6111fe82610d0c565b915061120983610d0c565b925082820261121781610d0c565b9150828204841483151761122e5761122d610fd2565b5b5092915050565b7f4e487b71000000000000000000000000000000000000000000000000000000005f52601260045260245ffd5b5f61126c82610d0c565b915061127783610d0c565b92508261128757611286611235565b5b828204905092915050565b5f6040820190506112a55f830185610eb6565b6112b26020830184610d15565b9392505050565b7f5472616e73666572206661696c656400000000000000000000000000000000005f82015250565b5f6112ed600f83610f5a565b91506112f8826112b9565b602082019050919050565b5f6020820190508181035f83015261131a816112e1565b905091905056fea26469706673582212207a2f1c4b3bf33717d5492bc0df533e74e2411550eef7151d8a4e7ff64d1a377c64736f6c634300081f0033",
			"opcodes": "PUSH1 0x80 PUSH1 0x40 MSTORE CALLVALUE DUP1 ISZERO PUSH2 0xF JUMPI PUSH0 PUSH0 REVERT JUMPDEST POP PUSH1 0x40 MLOAD PUSH2 0x1500 CODESIZE SUB DUP1 PUSH2 0x1500 DUP4 CODECOPY DUP2 DUP2 ADD PUSH1 0x40 MSTORE DUP2 ADD SWAP1 PUSH2 0x31 SWAP2 SWAP1 PUSH2 0x149 JUMP JUMPDEST PUSH0 PUSH20 0xFFFFFFFFFFFFFFFFFFFFFFFFFFFFFFFFFFFFFFFF AND DUP2 PUSH20 0xFFFFFFFFFFFFFFFFFFFFFFFFFFFFFFFFFFFFFFFF AND EQ PUSH2 0xA8 JUMPI DUP1 PUSH0 PUSH0 PUSH2 0x100 EXP DUP2 SLOAD DUP2 PUSH20 0xFFFFFFFFFFFFFFFFFFFFFFFFFFFFFFFFFFFFFFFF MUL NOT AND SWAP1 DUP4 PUSH20 0xFFFFFFFFFFFFFFFFFFFFFFFFFFFFFFFFFFFFFFFF AND MUL OR SWAP1 SSTORE POP PUSH2 0xE5 JUMP JUMPDEST DUP1 PUSH1 0x40 MLOAD PUSH32 0x8E4C8AA600000000000000000000000000000000000000000000000000000000 DUP2 MSTORE PUSH1 0x4 ADD PUSH2 0xDC SWAP2 SWAP1 PUSH2 0x183 JUMP JUMPDEST PUSH1 0x40 MLOAD DUP1 SWAP2 SUB SWAP1 REVERT JUMPDEST POP PUSH2 0x19C JUMP JUMPDEST PUSH0 PUSH0 REVERT JUMPDEST PUSH0 PUSH20 0xFFFFFFFFFFFFFFFFFFFFFFFFFFFFFFFFFFFFFFFF DUP3 AND SWAP1 POP SWAP2 SWAP1 POP JUMP JUMPDEST PUSH0 PUSH2 0x118 DUP3 PUSH2 0xEF JUMP JUMPDEST SWAP1 POP SWAP2 SWAP1 POP JUMP JUMPDEST PUSH2 0x128 DUP2 PUSH2 0x10E JUMP JUMPDEST DUP2 EQ PUSH2 0x132 JUMPI PUSH0 PUSH0 REVERT JUMPDEST POP JUMP JUMPDEST PUSH0 DUP2 MLOAD SWAP1 POP PUSH2 0x143 DUP2 PUSH2 0x11F JUMP JUMPDEST SWAP3 SWAP2 POP POP JUMP JUMPDEST PUSH0 PUSH1 0x20 DUP3 DUP5 SUB SLT ISZERO PUSH2 0x15E JUMPI PUSH2 0x15D PUSH2 0xEB JUMP JUMPDEST JUMPDEST PUSH0 PUSH2 0x16B DUP5 DUP3 DUP6 ADD PUSH2 0x135 JUMP JUMPDEST SWAP2 POP POP SWAP3 SWAP2 POP POP JUMP JUMPDEST PUSH2 0x17D DUP2 PUSH2 0x10E JUMP JUMPDEST DUP3 MSTORE POP POP JUMP JUMPDEST PUSH0 PUSH1 0x20 DUP3 ADD SWAP1 POP PUSH2 0x196 PUSH0 DUP4 ADD DUP5 PUSH2 0x174 JUMP JUMPDEST SWAP3 SWAP2 POP POP JUMP JUMPDEST PUSH2 0x1357 DUP1 PUSH2 0x1A9 PUSH0 CODECOPY PUSH0 RETURN INVALID PUSH1 0x80 PUSH1 0x40 MSTORE PUSH1 0x4 CALLDATASIZE LT PUSH2 0x7E JUMPI PUSH0 CALLDATALOAD PUSH1 0xE0 SHR DUP1 PUSH4 0x685398E7 GT PUSH2 0x4D JUMPI DUP1 PUSH4 0x685398E7 EQ PUSH2 0x125 JUMPI DUP1 PUSH4 0x7A5F0DC4 EQ PUSH2 0x14F JUMPI DUP1 PUSH4 0xA87430BA EQ PUSH2 0x159 JUMPI DUP1 PUSH4 0xE1BF0A4B EQ PUSH2 0x196 JUMPI PUSH2 0x7F JUMP JUMPDEST DUP1 PUSH4 0xCE90E5F EQ PUSH2 0x81 JUMPI DUP1 PUSH4 0xFB9F035 EQ PUSH2 0xAB JUMPI DUP1 PUSH4 0x4AED0980 EQ PUSH2 0xD5 JUMPI DUP1 PUSH4 0x5C2E3DE2 EQ PUSH2 0xFD JUMPI PUSH2 0x7F JUMP JUMPDEST JUMPDEST STOP JUMPDEST CALLVALUE DUP1 ISZERO PUSH2 0x8C JUMPI PUSH0 PUSH0 REVERT JUMPDEST POP PUSH2 0x95 PUSH2 0x1BE JUMP JUMPDEST PUSH1 0x40 MLOAD PUSH2 0xA2 SWAP2 SWAP1 PUSH2 0xD24 JUMP JUMPDEST PUSH1 0x40 MLOAD DUP1 SWAP2 SUB SWAP1 RETURN JUMPDEST CALLVALUE DUP1 ISZERO PUSH2 0xB6 JUMPI PUSH0 PUSH0 REVERT JUMPDEST POP PUSH2 0xBF PUSH2 0x1C5 JUMP JUMPDEST PUSH1 0x40 MLOAD PUSH2 0xCC SWAP2 SWAP1 PUSH2 0xDB7 JUMP JUMPDEST PUSH1 0x40 MLOAD DUP1 SWAP2 SUB SWAP1 RETURN JUMPDEST CALLVALUE DUP1 ISZERO PUSH2 0xE0 JUMPI PUSH0 PUSH0 REVERT JUMPDEST POP PUSH2 0xFB PUSH1 0x4 DUP1 CALLDATASIZE SUB DUP2 ADD SWAP1 PUSH2 0xF6 SWAP2 SWAP1 PUSH2 0xDFE JUMP JUMPDEST PUSH2 0x1E9 JUMP JUMPDEST STOP JUMPDEST CALLVALUE DUP1 ISZERO PUSH2 0x108 JUMPI PUSH0 PUSH0 REVERT JUMPDEST POP PUSH2 0x123 PUSH1 0x4 DUP1 CALLDATASIZE SUB DUP2 ADD SWAP1 PUSH2 0x11E SWAP2 SWAP1 PUSH2 0xDFE JUMP JUMPDEST PUSH2 0x40C JUMP JUMPDEST STOP JUMPDEST CALLVALUE DUP1 ISZERO PUSH2 0x130 JUMPI PUSH0 PUSH0 REVERT JUMPDEST POP PUSH2 0x139 PUSH2 0x5A1 JUMP JUMPDEST PUSH1 0x40 MLOAD PUSH2 0x146 SWAP2 SWAP1 PUSH2 0xD24 JUMP JUMPDEST PUSH1 0x40 MLOAD DUP1 SWAP2 SUB SWAP1 RETURN JUMPDEST PUSH2 0x157 PUSH2 0x63F JUMP JUMPDEST STOP JUMPDEST CALLVALUE DUP1 ISZERO PUSH2 0x164 JUMPI PUSH0 PUSH0 REVERT JUMPDEST POP PUSH2 0x17F PUSH1 0x4 DUP1 CALLDATASIZE SUB DUP2 ADD SWAP1 PUSH2 0x17A SWAP2 SWAP1 PUSH2 0xE64 JUMP JUMPDEST PUSH2 0x723 JUMP JUMPDEST PUSH1 0x40 MLOAD PUSH2 0x18D SWAP3 SWAP2 SWAP1 PUSH2 0xE8F JUMP JUMPDEST PUSH1 0x40 MLOAD DUP1 SWAP2 SUB SWAP1 RETURN JUMPDEST CALLVALUE DUP1 ISZERO PUSH2 0x1A1 JUMPI PUSH0 PUSH0 REVERT JUMPDEST POP PUSH2 0x1BC PUSH1 0x4 DUP1 CALLDATASIZE SUB DUP2 ADD SWAP1 PUSH2 0x1B7 SWAP2 SWAP1 PUSH2 0xDFE JUMP JUMPDEST PUSH2 0x743 JUMP JUMPDEST STOP JUMPDEST PUSH0 SELFBALANCE SWAP1 POP SWAP1 JUMP JUMPDEST PUSH0 PUSH0 SWAP1 SLOAD SWAP1 PUSH2 0x100 EXP SWAP1 DIV PUSH20 0xFFFFFFFFFFFFFFFFFFFFFFFFFFFFFFFFFFFFFFFF AND DUP2 JUMP JUMPDEST PUSH0 PUSH1 0x1 PUSH0 CALLER PUSH20 0xFFFFFFFFFFFFFFFFFFFFFFFFFFFFFFFFFFFFFFFF AND PUSH20 0xFFFFFFFFFFFFFFFFFFFFFFFFFFFFFFFFFFFFFFFF AND DUP2 MSTORE PUSH1 0x20 ADD SWAP1 DUP2 MSTORE PUSH1 0x20 ADD PUSH0 KECCAK256 SWAP1 POP PUSH0 DUP3 EQ DUP1 PUSH2 0x23A JUMPI POP PUSH0 DUP2 PUSH1 0x1 ADD SLOAD EQ JUMPDEST ISZERO PUSH2 0x271 JUMPI PUSH1 0x40 MLOAD PUSH32 0xF79050D000000000000000000000000000000000000000000000000000000000 DUP2 MSTORE PUSH1 0x4 ADD PUSH1 0x40 MLOAD DUP1 SWAP2 SUB SWAP1 REVERT JUMPDEST DUP1 PUSH1 0x1 ADD SLOAD DUP3 GT PUSH2 0x35D JUMPI PUSH0 PUSH0 SWAP1 SLOAD SWAP1 PUSH2 0x100 EXP SWAP1 DIV PUSH20 0xFFFFFFFFFFFFFFFFFFFFFFFFFFFFFFFFFFFFFFFF AND PUSH20 0xFFFFFFFFFFFFFFFFFFFFFFFFFFFFFFFFFFFFFFFF AND PUSH4 0x23B872DD CALLER ADDRESS DUP6 PUSH1 0x40 MLOAD DUP5 PUSH4 0xFFFFFFFF AND PUSH1 0xE0 SHL DUP2 MSTORE PUSH1 0x4 ADD PUSH2 0x2D9 SWAP4 SWAP3 SWAP2 SWAP1 PUSH2 0xEC5 JUMP JUMPDEST PUSH1 0x20 PUSH1 0x40 MLOAD DUP1 DUP4 SUB DUP2 PUSH0 DUP8 GAS CALL ISZERO DUP1 ISZERO PUSH2 0x2F5 JUMPI RETURNDATASIZE PUSH0 PUSH0 RETURNDATACOPY RETURNDATASIZE PUSH0 REVERT JUMPDEST POP POP POP POP PUSH1 0x40 MLOAD RETURNDATASIZE PUSH1 0x1F NOT PUSH1 0x1F DUP3 ADD AND DUP3 ADD DUP1 PUSH1 0x40 MSTORE POP DUP2 ADD SWAP1 PUSH2 0x319 SWAP2 SWAP1 PUSH2 0xF2F JUMP JUMPDEST PUSH2 0x358 JUMPI PUSH1 0x40 MLOAD PUSH32 0x8C379A000000000000000000000000000000000000000000000000000000000 DUP2 MSTORE PUSH1 0x4 ADD PUSH2 0x34F SWAP1 PUSH2 0xFB4 JUMP JUMPDEST PUSH1 0x40 MLOAD DUP1 SWAP2 SUB SWAP1 REVERT JUMPDEST PUSH2 0x3A0 JUMP JUMPDEST DUP2 DUP2 PUSH1 0x1 ADD SLOAD PUSH1 0x40 MLOAD PUSH32 0x99BCD81300000000000000000000000000000000000000000000000000000000 DUP2 MSTORE PUSH1 0x4 ADD PUSH2 0x397 SWAP3 SWAP2 SWAP1 PUSH2 0xE8F JUMP JUMPDEST PUSH1 0x40 MLOAD DUP1 SWAP2 SUB SWAP1 REVERT JUMPDEST DUP2 DUP2 PUSH1 0x1 ADD PUSH0 DUP3 DUP3 SLOAD PUSH2 0x3B3 SWAP2 SWAP1 PUSH2 0xFFF JUMP JUMPDEST SWAP3 POP POP DUP2 SWAP1 SSTORE POP CALLER PUSH20 0xFFFFFFFFFFFFFFFFFFFFFFFFFFFFFFFFFFFFFFFF AND PUSH32 0xB7EFCC12F3D3E74E33995FF303ACA806B9428989809E60A4E5A4D465832966E4 DUP4 PUSH1 0x40 MLOAD PUSH2 0x400 SWAP2 SWAP1 PUSH2 0xD24 JUMP JUMPDEST PUSH1 0x40 MLOAD DUP1 SWAP2 SUB SWAP1 LOG2 POP POP JUMP JUMPDEST PUSH0 PUSH1 0x1 PUSH0 CALLER PUSH20 0xFFFFFFFFFFFFFFFFFFFFFFFFFFFFFFFFFFFFFFFF AND PUSH20 0xFFFFFFFFFFFFFFFFFFFFFFFFFFFFFFFFFFFFFFFF AND DUP2 MSTORE PUSH1 0x20 ADD SWAP1 DUP2 MSTORE PUSH1 0x20 ADD PUSH0 KECCAK256 SWAP1 POP PUSH0 DUP2 PUSH0 ADD SLOAD SUB PUSH2 0x488 JUMPI PUSH1 0x40 MLOAD PUSH32 0xB016BE5E00000000000000000000000000000000000000000000000000000000 DUP2 MSTORE PUSH1 0x4 ADD PUSH1 0x40 MLOAD DUP1 SWAP2 SUB SWAP1 REVERT JUMPDEST PUSH0 DUP3 SUB PUSH2 0x4C1 JUMPI PUSH1 0x40 MLOAD PUSH32 0x2C5211C600000000000000000000000000000000000000000000000000000000 DUP2 MSTORE PUSH1 0x4 ADD PUSH1 0x40 MLOAD DUP1 SWAP2 SUB SWAP1 REVERT JUMPDEST PUSH0 PUSH2 0x4CB CALLER PUSH2 0x93C JUMP JUMPDEST GT ISZERO PUSH2 0x4F0 JUMPI DUP2 DUP2 PUSH1 0x1 ADD PUSH0 DUP3 DUP3 SLOAD PUSH2 0x4E4 SWAP2 SWAP1 PUSH2 0x1032 JUMP JUMPDEST SWAP3 POP POP DUP2 SWAP1 SSTORE POP PUSH2 0x52B JUMP JUMPDEST PUSH1 0x40 MLOAD PUSH32 0x8C379A000000000000000000000000000000000000000000000000000000000 DUP2 MSTORE PUSH1 0x4 ADD PUSH2 0x522 SWAP1 PUSH2 0x10D5 JUMP JUMPDEST PUSH1 0x40 MLOAD DUP1 SWAP2 SUB SWAP1 REVERT JUMPDEST DUP2 DUP2 PUSH1 0x1 ADD PUSH0 DUP3 DUP3 SLOAD PUSH2 0x53E SWAP2 SWAP1 PUSH2 0x1032 JUMP JUMPDEST SWAP3 POP POP DUP2 SWAP1 SSTORE POP PUSH2 0x54F CALLER DUP4 PUSH2 0xA9A JUMP JUMPDEST CALLER PUSH20 0xFFFFFFFFFFFFFFFFFFFFFFFFFFFFFFFFFFFFFFFF AND PUSH32 0x5ABC9A9C4616711EB03D720E050325118645A3695A5E75B5B10A29E2E217FE03 DUP4 PUSH1 0x40 MLOAD PUSH2 0x595 SWAP2 SWAP1 PUSH2 0xD24 JUMP JUMPDEST PUSH1 0x40 MLOAD DUP1 SWAP2 SUB SWAP1 LOG2 POP POP JUMP JUMPDEST PUSH0 PUSH0 PUSH0 SWAP1 SLOAD SWAP1 PUSH2 0x100 EXP SWAP1 DIV PUSH20 0xFFFFFFFFFFFFFFFFFFFFFFFFFFFFFFFFFFFFFFFF AND PUSH20 0xFFFFFFFFFFFFFFFFFFFFFFFFFFFFFFFFFFFFFFFF AND PUSH4 0x70A08231 ADDRESS PUSH1 0x40 MLOAD DUP3 PUSH4 0xFFFFFFFF AND PUSH1 0xE0 SHL DUP2 MSTORE PUSH1 0x4 ADD PUSH2 0x5FB SWAP2 SWAP1 PUSH2 0x10F3 JUMP JUMPDEST PUSH1 0x20 PUSH1 0x40 MLOAD DUP1 DUP4 SUB DUP2 DUP7 GAS STATICCALL ISZERO DUP1 ISZERO PUSH2 0x616 JUMPI RETURNDATASIZE PUSH0 PUSH0 RETURNDATACOPY RETURNDATASIZE PUSH0 REVERT JUMPDEST POP POP POP POP PUSH1 0x40 MLOAD RETURNDATASIZE PUSH1 0x1F NOT PUSH1 0x1F DUP3 ADD AND DUP3 ADD DUP1 PUSH1 0x40 MSTORE POP DUP2 ADD SWAP1 PUSH2 0x63A SWAP2 SWAP1 PUSH2 0x1120 JUMP JUMPDEST SWAP1 POP SWAP1 JUMP JUMPDEST PUSH0 CALLVALUE GT ISZERO PUSH2 0x6A1 JUMPI CALLVALUE PUSH1 0x1 PUSH0 CALLER PUSH20 0xFFFFFFFFFFFFFFFFFFFFFFFFFFFFFFFFFFFFFFFF AND PUSH20 0xFFFFFFFFFFFFFFFFFFFFFFFFFFFFFFFFFFFFFFFF AND DUP2 MSTORE PUSH1 0x20 ADD SWAP1 DUP2 MSTORE PUSH1 0x20 ADD PUSH0 KECCAK256 PUSH0 ADD PUSH0 DUP3 DUP3 SLOAD PUSH2 0x695 SWAP2 SWAP1 PUSH2 0x1032 JUMP JUMPDEST SWAP3 POP POP DUP2 SWAP1 SSTORE POP PUSH2 0x6D3 JUMP JUMPDEST PUSH1 0x40 MLOAD PUSH32 0xB016BE5E00000000000000000000000000000000000000000000000000000000 DUP2 MSTORE PUSH1 0x4 ADD PUSH1 0x40 MLOAD DUP1 SWAP2 SUB SWAP1 REVERT JUMPDEST CALLER PUSH20 0xFFFFFFFFFFFFFFFFFFFFFFFFFFFFFFFFFFFFFFFF AND PUSH32 0x1C0917C3A343A300B56473C59FA8355D3326F2C73472679A5B4CD5D6E0390C80 CALLVALUE PUSH1 0x40 MLOAD PUSH2 0x719 SWAP2 SWAP1 PUSH2 0xD24 JUMP JUMPDEST PUSH1 0x40 MLOAD DUP1 SWAP2 SUB SWAP1 LOG2 JUMP JUMPDEST PUSH1 0x1 PUSH1 0x20 MSTORE DUP1 PUSH0 MSTORE PUSH1 0x40 PUSH0 KECCAK256 PUSH0 SWAP2 POP SWAP1 POP DUP1 PUSH0 ADD SLOAD SWAP1 DUP1 PUSH1 0x1 ADD SLOAD SWAP1 POP DUP3 JUMP JUMPDEST PUSH0 PUSH1 0x1 PUSH0 CALLER PUSH20 0xFFFFFFFFFFFFFFFFFFFFFFFFFFFFFFFFFFFFFFFF AND PUSH20 0xFFFFFFFFFFFFFFFFFFFFFFFFFFFFFFFFFFFFFFFF AND DUP2 MSTORE PUSH1 0x20 ADD SWAP1 DUP2 MSTORE PUSH1 0x20 ADD PUSH0 KECCAK256 SWAP1 POP PUSH0 DUP3 EQ DUP1 PUSH2 0x795 JUMPI POP PUSH0 DUP2 PUSH1 0x1 ADD SLOAD EQ ISZERO JUMPDEST ISZERO PUSH2 0x7DB JUMPI DUP1 PUSH1 0x1 ADD SLOAD PUSH1 0x40 MLOAD PUSH32 0x40A636FB00000000000000000000000000000000000000000000000000000000 DUP2 MSTORE PUSH1 0x4 ADD PUSH2 0x7D2 SWAP2 SWAP1 PUSH2 0xD24 JUMP JUMPDEST PUSH1 0x40 MLOAD DUP1 SWAP2 SUB SWAP1 REVERT JUMPDEST DUP1 PUSH0 ADD SLOAD DUP3 GT ISZERO PUSH2 0x828 JUMPI DUP1 PUSH0 ADD SLOAD DUP3 PUSH1 0x40 MLOAD PUSH32 0x768063DB00000000000000000000000000000000000000000000000000000000 DUP2 MSTORE PUSH1 0x4 ADD PUSH2 0x81F SWAP3 SWAP2 SWAP1 PUSH2 0xE8F JUMP JUMPDEST PUSH1 0x40 MLOAD DUP1 SWAP2 SUB SWAP1 REVERT JUMPDEST DUP2 DUP2 PUSH0 ADD PUSH0 DUP3 DUP3 SLOAD PUSH2 0x83A SWAP2 SWAP1 PUSH2 0xFFF JUMP JUMPDEST SWAP3 POP POP DUP2 SWAP1 SSTORE POP PUSH0 CALLER PUSH20 0xFFFFFFFFFFFFFFFFFFFFFFFFFFFFFFFFFFFFFFFF AND DUP4 PUSH1 0x40 MLOAD PUSH2 0x866 SWAP1 PUSH2 0x1178 JUMP JUMPDEST PUSH0 PUSH1 0x40 MLOAD DUP1 DUP4 SUB DUP2 DUP6 DUP8 GAS CALL SWAP3 POP POP POP RETURNDATASIZE DUP1 PUSH0 DUP2 EQ PUSH2 0x8A0 JUMPI PUSH1 0x40 MLOAD SWAP2 POP PUSH1 0x1F NOT PUSH1 0x3F RETURNDATASIZE ADD AND DUP3 ADD PUSH1 0x40 MSTORE RETURNDATASIZE DUP3 MSTORE RETURNDATASIZE PUSH0 PUSH1 0x20 DUP5 ADD RETURNDATACOPY PUSH2 0x8A5 JUMP JUMPDEST PUSH1 0x60 SWAP2 POP JUMPDEST POP POP SWAP1 POP DUP1 PUSH2 0x8E9 JUMPI PUSH1 0x40 MLOAD PUSH32 0x8C379A000000000000000000000000000000000000000000000000000000000 DUP2 MSTORE PUSH1 0x4 ADD PUSH2 0x8E0 SWAP1 PUSH2 0x11D6 JUMP JUMPDEST PUSH1 0x40 MLOAD DUP1 SWAP2 SUB SWAP1 REVERT JUMPDEST CALLER PUSH20 0xFFFFFFFFFFFFFFFFFFFFFFFFFFFFFFFFFFFFFFFF AND PUSH32 0x5B0743ACABCE0EA09498B3C2598ED444F80EF6513A2029D7D9AAED87064D1EDB DUP5 PUSH1 0x40 MLOAD PUSH2 0x92F SWAP2 SWAP1 PUSH2 0xD24 JUMP JUMPDEST PUSH1 0x40 MLOAD DUP1 SWAP2 SUB SWAP1 LOG2 POP POP POP JUMP JUMPDEST PUSH0 PUSH0 PUSH8 0xDE0B6B3A7640000 DUP1 PUSH1 0x64 PUSH2 0x954 SWAP2 SWAP1 PUSH2 0x11F4 JUMP JUMPDEST PUSH2 0x95E SWAP2 SWAP1 PUSH2 0x11F4 JUMP JUMPDEST PUSH1 0x32 PUSH9 0x6C6B935B8BBD400000 PUSH1 0x1 PUSH0 DUP8 PUSH20 0xFFFFFFFFFFFFFFFFFFFFFFFFFFFFFFFFFFFFFFFF AND PUSH20 0xFFFFFFFFFFFFFFFFFFFFFFFFFFFFFFFFFFFFFFFF AND DUP2 MSTORE PUSH1 0x20 ADD SWAP1 DUP2 MSTORE PUSH1 0x20 ADD PUSH0 KECCAK256 PUSH0 ADD SLOAD PUSH2 0x9B4 SWAP2 SWAP1 PUSH2 0x11F4 JUMP JUMPDEST PUSH2 0x9BE SWAP2 SWAP1 PUSH2 0x11F4 JUMP JUMPDEST PUSH2 0x9C8 SWAP2 SWAP1 PUSH2 0x1262 JUMP JUMPDEST SWAP1 POP DUP1 PUSH8 0xDE0B6B3A7640000 PUSH1 0x1 PUSH0 DUP7 PUSH20 0xFFFFFFFFFFFFFFFFFFFFFFFFFFFFFFFFFFFFFFFF AND PUSH20 0xFFFFFFFFFFFFFFFFFFFFFFFFFFFFFFFFFFFFFFFF AND DUP2 MSTORE PUSH1 0x20 ADD SWAP1 DUP2 MSTORE PUSH1 0x20 ADD PUSH0 KECCAK256 PUSH1 0x1 ADD SLOAD PUSH2 0xA1F SWAP2 SWAP1 PUSH2 0x1262 JUMP JUMPDEST LT PUSH2 0xA2D JUMPI PUSH0 SWAP2 POP POP PUSH2 0xA95 JUMP JUMPDEST PUSH0 PUSH8 0xDE0B6B3A7640000 PUSH1 0x1 PUSH0 DUP7 PUSH20 0xFFFFFFFFFFFFFFFFFFFFFFFFFFFFFFFFFFFFFFFF AND PUSH20 0xFFFFFFFFFFFFFFFFFFFFFFFFFFFFFFFFFFFFFFFF AND DUP2 MSTORE PUSH1 0x20 ADD SWAP1 DUP2 MSTORE PUSH1 0x20 ADD PUSH0 KECCAK256 PUSH1 0x1 ADD SLOAD PUSH2 0xA82 SWAP2 SWAP1 PUSH2 0x1262 JUMP JUMPDEST DUP3 PUSH2 0xA8D SWAP2 SWAP1 PUSH2 0xFFF JUMP JUMPDEST SWAP1 POP DUP1 SWAP3 POP POP POP JUMPDEST SWAP2 SWAP1 POP JUMP JUMPDEST PUSH0 PUSH2 0xAA3 PUSH2 0x5A1 JUMP JUMPDEST SWAP1 POP DUP2 DUP2 LT PUSH2 0xB8B JUMPI PUSH0 PUSH0 SWAP1 SLOAD SWAP1 PUSH2 0x100 EXP SWAP1 DIV PUSH20 0xFFFFFFFFFFFFFFFFFFFFFFFFFFFFFFFFFFFFFFFF AND PUSH20 0xFFFFFFFFFFFFFFFFFFFFFFFFFFFFFFFFFFFFFFFF AND PUSH4 0xA9059CBB DUP5 DUP5 PUSH1 0x40 MLOAD DUP4 PUSH4 0xFFFFFFFF AND PUSH1 0xE0 SHL DUP2 MSTORE PUSH1 0x4 ADD PUSH2 0xB07 SWAP3 SWAP2 SWAP1 PUSH2 0x1292 JUMP JUMPDEST PUSH1 0x20 PUSH1 0x40 MLOAD DUP1 DUP4 SUB DUP2 PUSH0 DUP8 GAS CALL ISZERO DUP1 ISZERO PUSH2 0xB23 JUMPI RETURNDATASIZE PUSH0 PUSH0 RETURNDATACOPY RETURNDATASIZE PUSH0 REVERT JUMPDEST POP POP POP POP PUSH1 0x40 MLOAD RETURNDATASIZE PUSH1 0x1F NOT PUSH1 0x1F DUP3 ADD AND DUP3 ADD DUP1 PUSH1 0x40 MSTORE POP DUP2 ADD SWAP1 PUSH2 0xB47 SWAP2 SWAP1 PUSH2 0xF2F JUMP JUMPDEST PUSH2 0xB86 JUMPI PUSH1 0x40 MLOAD PUSH32 0x8C379A000000000000000000000000000000000000000000000000000000000 DUP2 MSTORE PUSH1 0x4 ADD PUSH2 0xB7D SWAP1 PUSH2 0x1303 JUMP JUMPDEST PUSH1 0x40 MLOAD DUP1 SWAP2 SUB SWAP1 REVERT JUMPDEST PUSH2 0xD07 JUMP JUMPDEST PUSH0 DUP2 DUP4 PUSH2 0xB98 SWAP2 SWAP1 PUSH2 0xFFF JUMP JUMPDEST SWAP1 POP PUSH0 DUP3 GT ISZERO PUSH2 0xC7D JUMPI PUSH0 PUSH0 SWAP1 SLOAD SWAP1 PUSH2 0x100 EXP SWAP1 DIV PUSH20 0xFFFFFFFFFFFFFFFFFFFFFFFFFFFFFFFFFFFFFFFF AND PUSH20 0xFFFFFFFFFFFFFFFFFFFFFFFFFFFFFFFFFFFFFFFF AND PUSH4 0xA9059CBB DUP6 DUP5 PUSH1 0x40 MLOAD DUP4 PUSH4 0xFFFFFFFF AND PUSH1 0xE0 SHL DUP2 MSTORE PUSH1 0x4 ADD PUSH2 0xBFD SWAP3 SWAP2 SWAP1 PUSH2 0x1292 JUMP JUMPDEST PUSH1 0x20 PUSH1 0x40 MLOAD DUP1 DUP4 SUB DUP2 PUSH0 DUP8 GAS CALL ISZERO DUP1 ISZERO PUSH2 0xC19 JUMPI RETURNDATASIZE PUSH0 PUSH0 RETURNDATACOPY RETURNDATASIZE PUSH0 REVERT JUMPDEST POP POP POP POP PUSH1 0x40 MLOAD RETURNDATASIZE PUSH1 0x1F NOT PUSH1 0x1F DUP3 ADD AND DUP3 ADD DUP1 PUSH1 0x40 MSTORE POP DUP2 ADD SWAP1 PUSH2 0xC3D SWAP2 SWAP1 PUSH2 0xF2F JUMP JUMPDEST PUSH2 0xC7C JUMPI PUSH1 0x40 MLOAD PUSH32 0x8C379A000000000000000000000000000000000000000000000000000000000 DUP2 MSTORE PUSH1 0x4 ADD PUSH2 0xC73 SWAP1 PUSH2 0x1303 JUMP JUMPDEST PUSH1 0x40 MLOAD DUP1 SWAP2 SUB SWAP1 REVERT JUMPDEST JUMPDEST PUSH0 PUSH0 SWAP1 SLOAD SWAP1 PUSH2 0x100 EXP SWAP1 DIV PUSH20 0xFFFFFFFFFFFFFFFFFFFFFFFFFFFFFFFFFFFFFFFF AND PUSH20 0xFFFFFFFFFFFFFFFFFFFFFFFFFFFFFFFFFFFFFFFF AND PUSH4 0x40C10F19 DUP6 DUP4 PUSH1 0x40 MLOAD DUP4 PUSH4 0xFFFFFFFF AND PUSH1 0xE0 SHL DUP2 MSTORE PUSH1 0x4 ADD PUSH2 0xCD8 SWAP3 SWAP2 SWAP1 PUSH2 0x1292 JUMP JUMPDEST PUSH0 PUSH1 0x40 MLOAD DUP1 DUP4 SUB DUP2 PUSH0 DUP8 DUP1 EXTCODESIZE ISZERO DUP1 ISZERO PUSH2 0xCEF JUMPI PUSH0 PUSH0 REVERT JUMPDEST POP GAS CALL ISZERO DUP1 ISZERO PUSH2 0xD01 JUMPI RETURNDATASIZE PUSH0 PUSH0 RETURNDATACOPY RETURNDATASIZE PUSH0 REVERT JUMPDEST POP POP POP POP POP JUMPDEST POP POP POP JUMP JUMPDEST PUSH0 DUP2 SWAP1 POP SWAP2 SWAP1 POP JUMP JUMPDEST PUSH2 0xD1E DUP2 PUSH2 0xD0C JUMP JUMPDEST DUP3 MSTORE POP POP JUMP JUMPDEST PUSH0 PUSH1 0x20 DUP3 ADD SWAP1 POP PUSH2 0xD37 PUSH0 DUP4 ADD DUP5 PUSH2 0xD15 JUMP JUMPDEST SWAP3 SWAP2 POP POP JUMP JUMPDEST PUSH0 PUSH20 0xFFFFFFFFFFFFFFFFFFFFFFFFFFFFFFFFFFFFFFFF DUP3 AND SWAP1 POP SWAP2 SWAP1 POP JUMP JUMPDEST PUSH0 DUP2 SWAP1 POP SWAP2 SWAP1 POP JUMP JUMPDEST PUSH0 PUSH2 0xD7F PUSH2 0xD7A PUSH2 0xD75 DUP5 PUSH2 0xD3D JUMP JUMPDEST PUSH2 0xD5C JUMP JUMPDEST PUSH2 0xD3D JUMP JUMPDEST SWAP1 POP SWAP2 SWAP1 POP JUMP JUMPDEST PUSH0 PUSH2 0xD90 DUP3 PUSH2 0xD65 JUMP JUMPDEST SWAP1 POP SWAP2 SWAP1 POP JUMP JUMPDEST PUSH0 PUSH2 0xDA1 DUP3 PUSH2 0xD86 JUMP JUMPDEST SWAP1 POP SWAP2 SWAP1 POP JUMP JUMPDEST PUSH2 0xDB1 DUP2 PUSH2 0xD97 JUMP JUMPDEST DUP3 MSTORE POP POP JUMP JUMPDEST PUSH0 PUSH1 0x20 DUP3 ADD SWAP1 POP PUSH2 0xDCA PUSH0 DUP4 ADD DUP5 PUSH2 0xDA8 JUMP JUMPDEST SWAP3 SWAP2 POP POP JUMP JUMPDEST PUSH0 PUSH0 REVERT JUMPDEST PUSH2 0xDDD DUP2 PUSH2 0xD0C JUMP JUMPDEST DUP2 EQ PUSH2 0xDE7 JUMPI PUSH0 PUSH0 REVERT JUMPDEST POP JUMP JUMPDEST PUSH0 DUP2 CALLDATALOAD SWAP1 POP PUSH2 0xDF8 DUP2 PUSH2 0xDD4 JUMP JUMPDEST SWAP3 SWAP2 POP POP JUMP JUMPDEST PUSH0 PUSH1 0x20 DUP3 DUP5 SUB SLT ISZERO PUSH2 0xE13 JUMPI PUSH2 0xE12 PUSH2 0xDD0 JUMP JUMPDEST JUMPDEST PUSH0 PUSH2 0xE20 DUP5 DUP3 DUP6 ADD PUSH2 0xDEA JUMP JUMPDEST SWAP2 POP POP SWAP3 SWAP2 POP POP JUMP JUMPDEST PUSH0 PUSH2 0xE33 DUP3 PUSH2 0xD3D JUMP JUMPDEST SWAP1 POP SWAP2 SWAP1 POP JUMP JUMPDEST PUSH2 0xE43 DUP2 PUSH2 0xE29 JUMP JUMPDEST DUP2 EQ PUSH2 0xE4D JUMPI PUSH0 PUSH0 REVERT JUMPDEST POP JUMP JUMPDEST PUSH0 DUP2 CALLDATALOAD SWAP1 POP PUSH2 0xE5E DUP2 PUSH2 0xE3A JUMP JUMPDEST SWAP3 SWAP2 POP POP JUMP JUMPDEST PUSH0 PUSH1 0x20 DUP3 DUP5 SUB SLT ISZERO PUSH2 0xE79 JUMPI PUSH2 0xE78 PUSH2 0xDD0 JUMP JUMPDEST JUMPDEST PUSH0 PUSH2 0xE86 DUP5 DUP3 DUP6 ADD PUSH2 0xE50 JUMP JUMPDEST SWAP2 POP POP SWAP3 SWAP2 POP POP JUMP JUMPDEST PUSH0 PUSH1 0x40 DUP3 ADD SWAP1 POP PUSH2 0xEA2 PUSH0 DUP4 ADD DUP6 PUSH2 0xD15 JUMP JUMPDEST PUSH2 0xEAF PUSH1 0x20 DUP4 ADD DUP5 PUSH2 0xD15 JUMP JUMPDEST SWAP4 SWAP3 POP POP POP JUMP JUMPDEST PUSH2 0xEBF DUP2 PUSH2 0xE29 JUMP JUMPDEST DUP3 MSTORE POP POP JUMP JUMPDEST PUSH0 PUSH1 0x60 DUP3 ADD SWAP1 POP PUSH2 0xED8 PUSH0 DUP4 ADD DUP7 PUSH2 0xEB6 JUMP JUMPDEST PUSH2 0xEE5 PUSH1 0x20 DUP4 ADD DUP6 PUSH2 0xEB6 JUMP JUMPDEST PUSH2 0xEF2 PUSH1 0x40 DUP4 ADD DUP5 PUSH2 0xD15 JUMP JUMPDEST SWAP5 SWAP4 POP POP POP POP JUMP JUMPDEST PUSH0 DUP2 ISZERO ISZERO SWAP1 POP SWAP2 SWAP1 POP JUMP JUMPDEST PUSH2 0xF0E DUP2 PUSH2 0xEFA JUMP JUMPDEST DUP2 EQ PUSH2 0xF18 JUMPI PUSH0 PUSH0 REVERT JUMPDEST POP JUMP JUMPDEST PUSH0 DUP2 MLOAD SWAP1 POP PUSH2 0xF29 DUP2 PUSH2 0xF05 JUMP JUMPDEST SWAP3 SWAP2 POP POP JUMP JUMPDEST PUSH0 PUSH1 0x20 DUP3 DUP5 SUB SLT ISZERO PUSH2 0xF44 JUMPI PUSH2 0xF43 PUSH2 0xDD0 JUMP JUMPDEST JUMPDEST PUSH0 PUSH2 0xF51 DUP5 DUP3 DUP6 ADD PUSH2 0xF1B JUMP JUMPDEST SWAP2 POP POP SWAP3 SWAP2 POP POP JUMP JUMPDEST PUSH0 DUP3 DUP3 MSTORE PUSH1 0x20 DUP3 ADD SWAP1 POP SWAP3 SWAP2 POP POP JUMP JUMPDEST PUSH32 0x5472616E73666572204661696C65640000000000000000000000000000000000 PUSH0 DUP3 ADD MSTORE POP JUMP JUMPDEST PUSH0 PUSH2 0xF9E PUSH1 0xF DUP4 PUSH2 0xF5A JUMP JUMPDEST SWAP2 POP PUSH2 0xFA9 DUP3 PUSH2 0xF6A JUMP JUMPDEST PUSH1 0x20 DUP3 ADD SWAP1 POP SWAP2 SWAP1 POP JUMP JUMPDEST PUSH0 PUSH1 0x20 DUP3 ADD SWAP1 POP DUP2 DUP2 SUB PUSH0 DUP4 ADD MSTORE PUSH2 0xFCB DUP2 PUSH2 0xF92 JUMP JUMPDEST SWAP1 POP SWAP2 SWAP1 POP JUMP JUMPDEST PUSH32 0x4E487B7100000000000000000000000000000000000000000000000000000000 PUSH0 MSTORE PUSH1 0x11 PUSH1 0x4 MSTORE PUSH1 0x24 PUSH0 REVERT JUMPDEST PUSH0 PUSH2 0x1009 DUP3 PUSH2 0xD0C JUMP JUMPDEST SWAP2 POP PUSH2 0x1014 DUP4 PUSH2 0xD0C JUMP JUMPDEST SWAP3 POP DUP3 DUP3 SUB SWAP1 POP DUP2 DUP2 GT ISZERO PUSH2 0x102C JUMPI PUSH2 0x102B PUSH2 0xFD2 JUMP JUMPDEST JUMPDEST SWAP3 SWAP2 POP POP JUMP JUMPDEST PUSH0 PUSH2 0x103C DUP3 PUSH2 0xD0C JUMP JUMPDEST SWAP2 POP PUSH2 0x1047 DUP4 PUSH2 0xD0C JUMP JUMPDEST SWAP3 POP DUP3 DUP3 ADD SWAP1 POP DUP1 DUP3 GT ISZERO PUSH2 0x105F JUMPI PUSH2 0x105E PUSH2 0xFD2 JUMP JUMPDEST JUMPDEST SWAP3 SWAP2 POP POP JUMP JUMPDEST PUSH32 0x596F75206861766520657863656564656420796F757220626F72726F77206C69 PUSH0 DUP3 ADD MSTORE PUSH32 0x6D69740000000000000000000000000000000000000000000000000000000000 PUSH1 0x20 DUP3 ADD MSTORE POP JUMP JUMPDEST PUSH0 PUSH2 0x10BF PUSH1 0x23 DUP4 PUSH2 0xF5A JUMP JUMPDEST SWAP2 POP PUSH2 0x10CA DUP3 PUSH2 0x1065 JUMP JUMPDEST PUSH1 0x40 DUP3 ADD SWAP1 POP SWAP2 SWAP1 POP JUMP JUMPDEST PUSH0 PUSH1 0x20 DUP3 ADD SWAP1 POP DUP2 DUP2 SUB PUSH0 DUP4 ADD MSTORE PUSH2 0x10EC DUP2 PUSH2 0x10B3 JUMP JUMPDEST SWAP1 POP SWAP2 SWAP1 POP JUMP JUMPDEST PUSH0 PUSH1 0x20 DUP3 ADD SWAP1 POP PUSH2 0x1106 PUSH0 DUP4 ADD DUP5 PUSH2 0xEB6 JUMP JUMPDEST SWAP3 SWAP2 POP POP JUMP JUMPDEST PUSH0 DUP2 MLOAD SWAP1 POP PUSH2 0x111A DUP2 PUSH2 0xDD4 JUMP JUMPDEST SWAP3 SWAP2 POP POP JUMP JUMPDEST PUSH0 PUSH1 0x20 DUP3 DUP5 SUB SLT ISZERO PUSH2 0x1135 JUMPI PUSH2 0x1134 PUSH2 0xDD0 JUMP JUMPDEST JUMPDEST PUSH0 PUSH2 0x1142 DUP5 DUP3 DUP6 ADD PUSH2 0x110C JUMP JUMPDEST SWAP2 POP POP SWAP3 SWAP2 POP POP JUMP JUMPDEST PUSH0 DUP2 SWAP1 POP SWAP3 SWAP2 POP POP JUMP JUMPDEST POP JUMP JUMPDEST PUSH0 PUSH2 0x1163 PUSH0 DUP4 PUSH2 0x114B JUMP JUMPDEST SWAP2 POP PUSH2 0x116E DUP3 PUSH2 0x1155 JUMP JUMPDEST PUSH0 DUP3 ADD SWAP1 POP SWAP2 SWAP1 POP JUMP JUMPDEST PUSH0 PUSH2 0x1182 DUP3 PUSH2 0x1158 JUMP JUMPDEST SWAP2 POP DUP2 SWAP1 POP SWAP2 SWAP1 POP JUMP JUMPDEST PUSH32 0x455448207472616E73666572206661696C656400000000000000000000000000 PUSH0 DUP3 ADD MSTORE POP JUMP JUMPDEST PUSH0 PUSH2 0x11C0 PUSH1 0x13 DUP4 PUSH2 0xF5A JUMP JUMPDEST SWAP2 POP PUSH2 0x11CB DUP3 PUSH2 0x118C JUMP JUMPDEST PUSH1 0x20 DUP3 ADD SWAP1 POP SWAP2 SWAP1 POP JUMP JUMPDEST PUSH0 PUSH1 0x20 DUP3 ADD SWAP1 POP DUP2 DUP2 SUB PUSH0 DUP4 ADD MSTORE PUSH2 0x11ED DUP2 PUSH2 0x11B4 JUMP JUMPDEST SWAP1 POP SWAP2 SWAP1 POP JUMP JUMPDEST PUSH0 PUSH2 0x11FE DUP3 PUSH2 0xD0C JUMP JUMPDEST SWAP2 POP PUSH2 0x1209 DUP4 PUSH2 0xD0C JUMP JUMPDEST SWAP3 POP DUP3 DUP3 MUL PUSH2 0x1217 DUP2 PUSH2 0xD0C JUMP JUMPDEST SWAP2 POP DUP3 DUP3 DIV DUP5 EQ DUP4 ISZERO OR PUSH2 0x122E JUMPI PUSH2 0x122D PUSH2 0xFD2 JUMP JUMPDEST JUMPDEST POP SWAP3 SWAP2 POP POP JUMP JUMPDEST PUSH32 0x4E487B7100000000000000000000000000000000000000000000000000000000 PUSH0 MSTORE PUSH1 0x12 PUSH1 0x4 MSTORE PUSH1 0x24 PUSH0 REVERT JUMPDEST PUSH0 PUSH2 0x126C DUP3 PUSH2 0xD0C JUMP JUMPDEST SWAP2 POP PUSH2 0x1277 DUP4 PUSH2 0xD0C JUMP JUMPDEST SWAP3 POP DUP3 PUSH2 0x1287 JUMPI PUSH2 0x1286 PUSH2 0x1235 JUMP JUMPDEST JUMPDEST DUP3 DUP3 DIV SWAP1 POP SWAP3 SWAP2 POP POP JUMP JUMPDEST PUSH0 PUSH1 0x40 DUP3 ADD SWAP1 POP PUSH2 0x12A5 PUSH0 DUP4 ADD DUP6 PUSH2 0xEB6 JUMP JUMPDEST PUSH2 0x12B2 PUSH1 0x20 DUP4 ADD DUP5 PUSH2 0xD15 JUMP JUMPDEST SWAP4 SWAP3 POP POP POP JUMP JUMPDEST PUSH32 0x5472616E73666572206661696C65640000000000000000000000000000000000 PUSH0 DUP3 ADD MSTORE POP JUMP JUMPDEST PUSH0 PUSH2 0x12ED PUSH1 0xF DUP4 PUSH2 0xF5A JUMP JUMPDEST SWAP2 POP PUSH2 0x12F8 DUP3 PUSH2 0x12B9 JUMP JUMPDEST PUSH1 0x20 DUP3 ADD SWAP1 POP SWAP2 SWAP1 POP JUMP JUMPDEST PUSH0 PUSH1 0x20 DUP3 ADD SWAP1 POP DUP2 DUP2 SUB PUSH0 DUP4 ADD MSTORE PUSH2 0x131A DUP2 PUSH2 0x12E1 JUMP JUMPDEST SWAP1 POP SWAP2 SWAP1 POP JUMP INVALID LOG2 PUSH5 0x6970667358 0x22 SLT KECCAK256 PUSH27 0x2F1C4B3BF33717D5492BC0DF533E74E2411550EEF7151D8A4E7FF6 0x4D BYTE CALLDATACOPY PUSH29 0x64736F6C634300081F0033000000000000000000000000000000000000 "
		},
		"gasEstimates": {
			"creation": {
				"codeDepositCost": "990200",
				"executionCost": "infinite",
				"totalCost": "infinite"
			},
			"external": {
				"": "173",
				"borrowUsd(uint256)": "infinite",
				"getContractEthBal()": "335",
				"getContractUsdBal()": "infinite",
				"mockusdt()": "infinite",
				"repayUsd(uint256)": "infinite",
				"stakeEth()": "infinite",
				"users(address)": "infinite",
				"withdrawCollateralEth(uint256)": "infinite"
			},
			"internal": {
				"_ensureFundsAndTransfer(address,uint256)": "infinite",
				"howMuchYouCanStillBorrow(address)": "infinite"
			}
		},
		"methodIdentifiers": {
			"borrowUsd(uint256)": "5c2e3de2",
			"getContractEthBal()": "0ce90e5f",
			"getContractUsdBal()": "685398e7",
			"mockusdt()": "0fb9f035",
			"repayUsd(uint256)": "4aed0980",
			"stakeEth()": "7a5f0dc4",
			"users(address)": "a87430ba",
			"withdrawCollateralEth(uint256)": "e1bf0a4b"
		}
	},
	"abi": [
		{
			"inputs": [
				{
					"internalType": "address",
					"name": "_mockusdtAddress",
					"type": "address"
				}
			],
			"stateMutability": "nonpayable",
			"type": "constructor"
		},
		{
			"inputs": [
				{
					"internalType": "uint256",
					"name": "amount",
					"type": "uint256"
				},
				{
					"internalType": "uint256",
					"name": "availableToBorrow",
					"type": "uint256"
				}
			],
			"name": "BorrowLimitExceeded",
			"type": "error"
		},
		{
			"inputs": [
				{
					"internalType": "uint256",
					"name": "balance",
					"type": "uint256"
				}
			],
			"name": "BorrowedAmountNotFullyRepaid",
			"type": "error"
		},
		{
			"inputs": [
				{
					"internalType": "address",
					"name": "addr",
					"type": "address"
				}
			],
			"name": "InvalidAddress",
			"type": "error"
		},
		{
			"inputs": [],
			"name": "InvalidAmount",
			"type": "error"
		},
		{
			"inputs": [],
			"name": "NoCollateralProvided",
			"type": "error"
		},
		{
			"inputs": [],
			"name": "NoUsdtBorrowed",
			"type": "error"
		},
		{
			"inputs": [
				{
					"internalType": "uint256",
					"name": "collateralBalance",
					"type": "uint256"
				},
				{
					"internalType": "uint256",
					"name": "userInput",
					"type": "uint256"
				}
			],
			"name": "NotEnoughCollateral",
			"type": "error"
		},
		{
			"inputs": [
				{
					"internalType": "uint256",
					"name": "amountPaid",
					"type": "uint256"
				},
				{
					"internalType": "uint256",
					"name": "expectedAmount",
					"type": "uint256"
				}
			],
			"name": "OverPaymentNotSupported",
			"type": "error"
		},
		{
			"anonymous": false,
			"inputs": [
				{
					"indexed": true,
					"internalType": "address",
					"name": "user",
					"type": "address"
				},
				{
					"indexed": false,
					"internalType": "uint256",
					"name": "amount",
					"type": "uint256"
				}
			],
			"name": "ETHCollateralWithdrawn",
			"type": "event"
		},
		{
			"anonymous": false,
			"inputs": [
				{
					"indexed": true,
					"internalType": "address",
					"name": "user",
					"type": "address"
				},
				{
					"indexed": false,
					"internalType": "uint256",
					"name": "ethAmount",
					"type": "uint256"
				}
			],
			"name": "EthStaked",
			"type": "event"
		},
		{
			"anonymous": false,
			"inputs": [
				{
					"indexed": true,
					"internalType": "address",
					"name": "user",
					"type": "address"
				},
				{
					"indexed": false,
					"internalType": "uint256",
					"name": "usdAmount",
					"type": "uint256"
				}
			],
			"name": "USDBorrowed",
			"type": "event"
		},
		{
			"anonymous": false,
			"inputs": [
				{
					"indexed": true,
					"internalType": "address",
					"name": "user",
					"type": "address"
				},
				{
					"indexed": false,
					"internalType": "uint256",
					"name": "usdAmount",
					"type": "uint256"
				}
			],
			"name": "USDRepaid",
			"type": "event"
		},
		{
			"stateMutability": "payable",
			"type": "fallback"
		},
		{
			"inputs": [
				{
					"internalType": "uint256",
					"name": "amount",
					"type": "uint256"
				}
			],
			"name": "borrowUsd",
			"outputs": [],
			"stateMutability": "nonpayable",
			"type": "function"
		},
		{
			"inputs": [],
			"name": "getContractEthBal",
			"outputs": [
				{
					"internalType": "uint256",
					"name": "",
					"type": "uint256"
				}
			],
			"stateMutability": "view",
			"type": "function"
		},
		{
			"inputs": [],
			"name": "getContractUsdBal",
			"outputs": [
				{
					"internalType": "uint256",
					"name": "",
					"type": "uint256"
				}
			],
			"stateMutability": "view",
			"type": "function"
		},
		{
			"inputs": [],
			"name": "mockusdt",
			"outputs": [
				{
					"internalType": "contract MockUsdt",
					"name": "",
					"type": "address"
				}
			],
			"stateMutability": "view",
			"type": "function"
		},
		{
			"inputs": [
				{
					"internalType": "uint256",
					"name": "amount",
					"type": "uint256"
				}
			],
			"name": "repayUsd",
			"outputs": [],
			"stateMutability": "nonpayable",
			"type": "function"
		},
		{
			"inputs": [],
			"name": "stakeEth",
			"outputs": [],
			"stateMutability": "payable",
			"type": "function"
		},
		{
			"inputs": [
				{
					"internalType": "address",
					"name": "",
					"type": "address"
				}
			],
			"name": "users",
			"outputs": [
				{
					"internalType": "uint256",
					"name": "stakedEth",
					"type": "uint256"
				},
				{
					"internalType": "uint256",
					"name": "borrowedUsdt",
					"type": "uint256"
				}
			],
			"stateMutability": "view",
			"type": "function"
		},
		{
			"inputs": [
				{
					"internalType": "uint256",
					"name": "amount",
					"type": "uint256"
				}
			],
			"name": "withdrawCollateralEth",
			"outputs": [],
			"stateMutability": "nonpayable",
			"type": "function"
		},
		{
			"stateMutability": "payable",
			"type": "receive"
		}
	]
}